:10000000F8FF022099010000D1D40000D5D30000F0
:10001000D5D30000D5D30000D5D30000D5D3000040
:10002000D5D30000D5D30000D5D30000D1D4000033
:10003000D1D40000D5D300004D9D00003D9D0000AF
:10004000D1D40000D1D40000D1D40000D1D400001C
:10005000D1D40000D1D40000D1D40000D1D400000C
:10006000D1D40000D1D40000D1D40000D1D40000FC
:10007000D1D40000D1D40000D1D40000D1D40000EC
:10008000D1D40000D1D40000D1D40000D1D40000DC
:10009000D1D40000D1D40000D1D40000D1D40000CC
:1000A0009585000089850000D1D40000D1D40000DE
:1000B000D1D40000D1D40000D1D400004972000096
:1000C000D1D4000071710000D1D40000D5700000BF
:1000D000D1D4000039700000D1D40000D1D4000088
:1000E000D1D40000D1D40000D1D40000D1D400007C
:1000F000D1D40000D1D40000D1D40000D1D400006C
:10010000D1D40000D1D40000D1D40000D1D400005B
:10011000D1D4000019740000D1D40000D1D4000063
:10012000D1D40000D1D40000D1D40000D1D400003B
:10013000D1D40000D1D40000D1D40000D1D400002B
:10014000D1D40000D1D400009D6F0000D1D40000B4
:10015000056F0000D1D40000D1D40000D1D400003C
:10016000D1D40000D1D400007D850000D1D400009E
:10017000D1D40000D1D40000D1D40000D1D40000EB
:10018000D1D40000D1D40000D1D40000D1D40000DB
:10019000D1D40000D1D4000008B55D4B4CF2205200
:1001A0001A804DF628121A8000BF00BF102223F8D3
:1001B0000E2CA3F51F43DE3B4FF030621A60554A08
:1001C0009A60554ADA60554B4FF470021A60544AEF
:1001D000136813F4807304D152490B604FF4A85391
:1001E0001360514B1A78100703D51A7842F00802B1
:1001F0001A704E4B4E492A221A704E4A4E4B8B4271
:1002000004D252F8040F43F8040BF8E74B4B4C4967
:1002100000228B4202D243F8042BFAE749494A4AAA
:10022000002352F8230041F823000133662BF8D154
:10023000464B474A802103F8011B9342FBD1454BB3
:10024000404A1A60444B8A221A70A3F58053242234
:100250005A70A0221A709A799107FCD59A79D20621
:10026000FCD43E4A937903F00C03082B3B4BF9D1A5
:1002700003221A7146225A719A799406FCD5374A9C
:100280009179364B4806FBD5354A4FF082711160A3
:100290000921516020221A709A7902F00C020C2A6E
:1002A000FAD1304B304A1A60304B314A1A60002480
:1002B00007225C6043F8042C2E4AC3F80C2D62B66A
:1002C0000DF00AF9174B1A68D1070AD52A4A2B49AB
:1002D0001C60146042F8041C10221A60284A294944
:1002E0001160294A127852060ED52549254A086818
:1002F000904209D12048214C00221A60026040F847
:10030000044C102018600A600EF03CFE01F022FA46
:100310000E200540823F04000100002B88ED00E024
:1003200010D0034014D0034002D0074000E0074043
:100330004C19FF1FFC940100080CFF1F4C19FF1FF4
:100340005C34FF1F0002FF1F0000000000E400E01B
:1003500056E400E008ED00E0005006400040064092
:100360004480044004800440C010050014E000E014
:10037000BFD401000000202004D00340F3079F6396
:100380001CE00340A5C3945A00F00740FFFFFFFFA5
:10039000FFFFFFFFFFFFFFFFFFFFFFFFFFFFFFFF6D
:1003A000FFFFFFFFFFFFFFFFFFFFFFFFFFFFFFFF5D
:1003B000FFFFFFFFFFFFFFFFFFFFFFFFFFFFFFFF4D
:1003C000FFFFFFFFFFFFFFFFFFFFFFFFFFFFFFFF3D
:1003D000FFFFFFFFFFFFFFFFFFFFFFFFFFFFFFFF2D
:1003E000FFFFFFFFFFFFFFFFFFFFFFFFFFFFFFFF1D
:1003F000FFFFFFFFFFFFFFFFFFFFFFFFFFFFFFFF0D
:10040000FFFFFFFFFFFFFFFFFFFFFFFFDEF9FFFF23
:1004100010B5054C237833B9044B13B10448AFF33E
:1004200000800123237010BD4C19FF1F0000000045
:10043000F8940100084B10B51BB108490848AFF308
:1004400000800848036803B910BD074B002BFBD0A0
:10045000BDE81040184700BF000000005019FF1F02
:10046000F89401004C19FF1F000000002DE9F04F27
:10047000B64EB74FDFF82CB3DFF82CA3B54D9BB0C9
:10048000B54905A809F048FEB44B1B68002B00F0E5
:100490008F81012B00F02382022B00F01B82032BA3
:1004A00001F0CB80AD4B5B68002B00F04A81012B43
:1004B00001F0CF80022B01F0C68005A911A809F038
:1004C000FFFD11A809F094F811980FF013FE962083
:1004D0000DF092F9306808F007FC386808F004FC69
:1004E000DBF8000008F000FCDAF8000008F0FCFB84
:1004F0009B4B186808F0F8FB9A4B186808F0F4FB5F
:10050000994B186808F0F0FB984B186808F0ECFB62
:1005100033681B689A7B1AB11C7B002C00F04D815C
:10052000386808F0D9FB80B9DBF8000008F0D4FB8C
:100530000446002800F0E28102F0C2FE044605985D
:100540000FF0D8FD002C9BD07EE0824D0DAC884989
:10055000204609F0E1FD214611A809F0B1FD11A8DE
:1005600009F046F811980FF0C5FD96200DF044F9FA
:10057000306808F0B9FB386808F0B6FBDBF800001B
:1005800008F0B2FBDAF8000008F0AEFB754B186813
:1005900008F0AAFB33681B689A7B12B11B7B002B07
:1005A00060D03B681B689A7B1AB11B7B002B00F064
:1005B000AF80DBF8000008F08FFB002800F07881A6
:1005C00028200DF02DFA002840F06C8128200BF037
:1005D000CBFC03250D98674C0FF08CFD0BF0B2FCA3
:1005E000654B0220012100229875D87599825982A5
:1005F000DA811A8204F1080614F8011B5E4807F03C
:10060000EDFFB442F8D11AAC303504F8035D25464D
:1006100015F8011B584807F0E1FFC5F10103DC4262
:10062000F6D1564C04F1090514F8011B524807F0A5
:10063000D5FFAC42F8D10BF0B5F84FF4FA700DF0DD
:10064000DBF805980FF056FD0BF07CFC4C4808F0E9
:10065000B9FD0BF0A7F84FF4FA700DF0CDF81BB010
:10066000BDE8F08F2B78DB0763D54FF0A0531B78E4
:10067000002B56D1DFF83481424FD8F80030424E7B
:100680001978424D424C00200DF0A2F93B68012040
:1006900019780DF09DF93368022019780DF098F95A
:1006A0002B68032019780DF093F92368042019783A
:1006B0000DF08EF9374B19680C31C9B205200DF0D9
:1006C00087F9354B062019780DF082F9D8F80030FB
:1006D0000720197A0DF07CF93B680820197A0DF093
:1006E00077F933680920197A0DF072F92B680A201E
:1006F000197A0DF06DF923680B20197A0DF068F95D
:10070000264B1B680C20197A0DF062F9012561E770
:1007100014200DF085F978B914200BF025FC022582
:1007200058E70EF065FB0028A4D10D980FF0E2FC0D
:100730000DE70DF007F998E70EF05AFB0028F4D00A
:10074000EAE7174905A809F0ADFCB6E67019FF1FE6
:100750007419FF1F01000240940501006819FF1F72
:100760006C1BFF1F8019FF1FD019FF1FD419FF1F1B
:100770001C0701007C050100582EFF1F88050100A1
:100780007C0101009C19FF1FA019FF1FA419FF1F66
:10079000E419FF1FAC19FF1FA819FF1F3C1AFF1F08
:1007A0004C0601007819FF1F7C19FF1F9819FF1FC5
:1007B0004D4905A809F076FC74E60DF134084B4963
:1007C000404609F0A9FC0F9B1194129413948DF8E4
:1007D0005040002B47D111A808F00AFF11980FF0E4
:1007E00089FC96200DF008F8306808F07DFA38682A
:1007F00008F07AFADBF8000008F076FA3C4B18684B
:1008000008F072FA33681B689A7B0AB11B7BC3B18C
:100810003B681B689A7B0AB11B7BE3B1DBF80030B5
:100820001B689A7B0AB11B7B23B1314B186808F017
:1008300053FAA0B1404609F0A5FA05980FF05AFC0A
:100840001EE605F0D5FA81460D980FF053FCB9F17C
:10085000000FB4D0F5E60DF067FE8146F4E70D9881
:100860000FF048FCABE70D9A0293591C002001924F
:100870000FF048FC814660B11399029B11901293CE
:10088000019A01B901701146484613930FF0F4FA2A
:10089000A1E7119818B10FF02DFCCDF844901294F7
:1008A000139498E70EF0A4FA00283FF43EAF8DE6CB
:1008B000DAF8000008F010FA002800F0D7863C2093
:1008C0000DF0AEF8002840F0CA863C200BF04CFB3F
:1008D00004257FE6074905A809F0E4FBE2E506499F
:1008E00005A809F0DFFBDDE5EC0501009406010039
:1008F0008019FF1F1C06010004060100DAF8000041
:1009000008F0EAF9002800F06B86A1464321002098
:10091000CDF82490CDF82890CDF82C908DF830901B
:100920000FF0F0FB0446002800F0768542234322B6
:100930006B490A930B93019309900EF0FDFF43213D
:100940000020CDF84490CDF84890CDF84C908DF82B
:1009500050900FF0D7FB019B8046002800F0508597
:10096000139A1190129302B9027042232146404615
:1009700013930FF081FA01225A4911A809F03CFBA8
:10098000139CDDF84480002C40F02D85099B13B1A9
:100990001C70DDF84480CDF82C9040460FF0AAFB87
:1009A0000B9CCDF84490CDF84890CDF84C908DF844
:1009B0005090002C40F0918501224A4911A809F07D
:1009C0001BFB139CDDF84480002C40F0FF84099B46
:1009D00013B11C70DDF84480CDF82C9040460FF028
:1009E00089FB0B9CCDF84490CDF84890CDF84C9005
:1009F0008DF85090002C40F04F852D223A4911A8D7
:100A000009F0FAFA139CDDF84480002C40F0D18400
:100A1000099B13B11C70DDF84480CDF82C90404642
:100A20000FF068FB0B9CCDF84490CDF84890CDF8C2
:100A30004C908DF85090002C40F00D8511A808F0D6
:100A4000D7FD11980FF056FB96200CF0D5FE3068BC
:100A500008F04AF9386808F047F9DBF8000008F0B8
:100A600043F9DAF8000008F03FF9204B186808F065
:100A70003BF91F4B186808F037F933681B689A7BFD
:100A800012B11B7B002B5BD03B681B689A7B1AB1B1
:100A90001B7B002B00F04E84DBF800301B689A7B38
:100AA0001AB11B7B002B00F04584DAF800301B687C
:100AB0009A7B1AB11B7B002B00F00E840B4B1B683A
:100AC0001B689A7B0AB11B7B33B1094B186808F08D
:100AD00003F9002800F02E8409A809F053F9ACE6C8
:100AE000D0070100EC130100140801006C1BFF1F6C
:100AF0008019FF1F3B681B689A7B1AB11B7B002B78
:100B000000F0CF81DBF800301B689A7B1AB11B7BA9
:100B1000002B00F0D382DAF800301B689A7B1AB100
:100B20001B7B002B00F01184AB4B1B681B689A7B6E
:100B30001AB11B7B002B00F0088402980FF0DAFA40
:100B4000B12100200FF0DEFA0290002800F077813A
:100B5000B122A2490EF0F0FEB1210020CDF8449060
:100B6000CDF84890CDF84C908DF850900FF0CAFA1F
:100B70000446002800F08B81139B1190B022129242
:100B800003B90370B0232046029913930FF074F950
:100B900011A808F02DFD11980FF0ACFA96200CF07A
:100BA0002BFE306808F0A0F8386808F09DF8DBF8F4
:100BB000000008F099F8DAF8000008F095F8864B84
:100BC000186808F091F833681B689A7B002A91D066
:100BD0001B7B002B8ED1824BDFF81C821B6801939C
:100BE000B1210020CDF83490CDF83890CDF83C906C
:100BF0008DF840900FF086FA0446002800F00A8134
:100C0000B023B12277490E930F9303930D900EF00A
:100C100093FEB1210020CDF84490CDF84890CDF856
:100C20004C908DF850900FF06DFA039B024600280F
:100C300000F0E48013991190129301B90170B02370
:100C40002146104613930FF017F911A808F0D0FCB5
:100C500011980FF04FFAC8200CF0CEFD306808F064
:100C600043F8386808F040F8DBF8000008F03CF87A
:100C7000DAF8000008F038F85B4B186808F034F830
:100C8000D8F8000008F030F8534B186808F02CF83A
:100C900033681B689A7B12B11B7B002B35D03B68F5
:100CA0001B689A7B12B11B7B002B7DD0DBF80030D8
:100CB0001B689A7B1AB11B7B002B00F0CC80DAF802
:100CC00000301B689A7B1AB11B7B002B00F0378326
:100CD000454B1B681B689A7B1AB11B7B002B00F0ED
:100CE0006283D8F800301B689A7B1AB11B7B002BFB
:100CF00000F06281384B186807F0EEFF002840F0E2
:100D00005B810D980FF0F6F96AE7019A0123936071
:100D10002B78D80740F19080344B1B78012B0BD0F7
:100D2000334A137813F0700318BF13702F4B01224E
:100D30001A702B78DC07FCD50D980FF0DBF9B12188
:100D400000200FF0DFF9044600287ED0B1222949A7
:100D50000EF0F2FDB1210020CDF84490CDF848907E
:100D6000CDF84C908DF850900FF0CCF980460028CB
:100D700000F0A482139B1190B022129203B9037069
:100D8000B0234046214613930FF076F811A808F0DF
:100D90002FFC11980FF0AEF94FF47A700CF02CFD87
:100DA00020460FF0A7F9C8E6019A022393602B783A
:100DB000D90769D50D4B1B78022BBDD00C4A13788F
:100DC00013F0700318BF1370084B02221A702B78AF
:100DD000D807FCD5B0E700BF8019FF1F4408010009
:100DE0008C19FF1FF80801006C1BFF1F670000141F
:100DF00000000240AC090100741BFF1F0390119812
:100E000018B10FF077F9039A1192CDF84890CDF808
:100E10004C901AE70D9810B10FF06CF90D94CDF8C5
:100E20003890CDF83C90CDF84490CDF84890CDF86E
:100E30004C908DF8509008E70CF084FD6CE7119011
:100E400012908DF850001390A2E6119012908DF838
:100E5000500013909AE7019A032393602B78DA07E6
:100E600040F192828D4B1B78032B3FF465AF8C4A87
:100E7000137813F0700318BF1370884B03221A7095
:100E80002B78D907FCD557E70CF05CFD92E7119859
:100E900010B10FF02FF91194CDF84890CDF84C9087
:100EA00076E6804BDFF810821B680193B1210020A9
:100EB000CDF83490CDF83890CDF83C908DF8409036
:100EC0000FF020F90446002800F0B680B023B122CC
:100ED00075490E930F9303930D900EF02DFDB121E4
:100EE0000020CDF84490CDF84890CDF84C908DF886
:100EF00050900FF007F9039B0246002878D0139911
:100F00001190129301B90170B0232146104613933A
:100F10000EF0B2FF11A808F06BFB11980FF0EAF881
:100F2000C8200CF069FC306807F0DEFE386807F076
:100F3000DBFEDBF8000007F0D7FEDAF8000007F070
:100F4000D3FE5A4B186807F0CFFED8F8000007F020
:100F5000CBFE574B186807F0C7FE33681B689A7BB7
:100F600012B11B7B002B2BD03B681B689A7B12B104
:100F70001B7B002B48D0DBF800301B689A7B12B13A
:100F80001B7B002B6DD0DAF800301B689A7B1AB1FE
:100F90001B7B002B00F0F281444B1B681B689A7B83
:100FA0001AB11B7B002B00F04A82D8F8000007F032
:100FB00093FE002800F009830DA808F0E3FEBEE6CA
:100FC000019A012393602B78DB0747D5394B1B78B7
:100FD000012B3FF4B1AE324A137813F0700318BFFF
:100FE0001370344B01221A702B78DA07FCD5A3E674
:100FF0000390119818B10FF07DF8039A1192CDF873
:101000004890CDF84C9085E7019A022393602B78A5
:10101000DC073FD5274B1B78022B3FF48DAE204ACF
:10102000137813F0700318BF1370224B02221A704A
:101030002B78DB07FCD57FE60D9810B10FF05AF83E
:101040000D94CDF83890CDF83C90CDF84490CDF883
:101050004890CDF84C908DF850905BE70CF072FC06
:10106000B4E7019A032393602B78D80740F1958168
:10107000104B1B78032B3FF45FAE094A137813F033
:10108000700318BF13700B4B03221A702B78DC0708
:10109000FCD551E60CF056FCBCE700BF670000141D
:1010A000000002409019FF1FF80801006C1BFF1F91
:1010B0008019FF1F68000014741BFF1FA74BDFF887
:1010C000B8821B680193B1210020CDF83490CDF88F
:1010D0003890CDF83C908DF840900FF013F804460E
:1010E000002800F0A580B023B1229D490E930F93F4
:1010F00003930D900EF020FCB1210020CDF8449018
:10110000CDF84890CDF84C908DF850900EF0FAFF45
:10111000039B024600287FD013991190129301B9C6
:101120000170B0232146104613930EF0A5FE11A8BE
:1011300008F05EFA11980EF0DDFFC8200CF05CFBA1
:10114000306807F0D1FD386807F0CEFDDBF800000D
:1011500007F0CAFDDAF8000007F0C6FD814B1868F9
:1011600007F0C2FDD8F8000007F0BEFD7E4B1868FE
:1011700007F0BAFD33681B689A7B12B11B7B002B0A
:1011800032D03B681B689A7B12B11B7B002B61D06D
:10119000DBF800301B689A7B12B11B7B002B74D0EC
:1011A000DAF800301B689A7B1AB11B7B002B00F029
:1011B000EE806C4B1B681B689A7B1AB11B7B002B63
:1011C00000F04381D8F8000007F086FD00287FF486
:1011D000F3AE654B186807F07FFD00287FF4ECAE96
:1011E0000D980EF087FF6EE7019A012393602B782C
:1011F000D90747D55D4B1B78012B3FF49DAD5C4A69
:10120000137813F0700318BF1370584B01221A7033
:101210002B78D807FCD58FE50390119818B10EF004
:1012200069FF039A1192CDF84890CDF84C907EE773
:101230000D9810B10EF05EFF0D94CDF83890CDF8FA
:101240003C90CDF84490CDF84890CDF84C908DF876
:1012500050906CE7019A022393602B78DA0738D517
:10126000424B1B78022B3FF467AD414A137813F0D1
:10127000700318BF13703D4B02221A702B78D907E8
:10128000FCD559E50CF05EFBB4E7019A03239360AB
:101290002B78DB0740F18480344B1B78032B3FF421
:1012A0004BAD334A137813F0700318BF13702F4BF4
:1012B00003221A702B78DA07FCD53DE5119818B196
:1012C0000EF018FFCDF84480CDF84890CDF84C9042
:1012D0005CE50CF037FBC3E709F0E8F9224B18682E
:1012E00007F002FD204B186803689A7B002AF7D0AC
:1012F0001B7B002BF4D10DAC1E49204608F00CFFDF
:10130000214611A808F0DCFE11A808F071F9119827
:101310000EF0F0FE144B186807F0E6FC124B18684C
:1013200003689A7B002AF7D01B7B002BF4D10D9821
:101330000EF0E0FE09980EF0DDFEFFF7E7BA019B24
:10134000042098600BF0D4FAF6E402980EF0D2FE76
:1013500009980EF0CFFEFFF7D9BA00BF9419FF1F0E
:10136000F80801006C1BFF1F8019FF1F69000014A3
:1013700000000240600A0100741BFF1F019B042053
:1013800098600BF091FAD7E40CF0DCFA6AE5019B67
:10139000042098600BF064FACEE40CF0D3FA67E610
:1013A0000CF0D0FA78E7019B052098600BF0A0FACA
:1013B000C2E40A9B9C4200F2CE8009980B944146FD
:1013C0000EF05AFDDDF84480FFF729BB0A9B9C42D2
:1013D00000F2A48009980B9441460EF04DFDDDF813
:1013E0004480FFF7FBBA0A9B9C4200F2D180099827
:1013F0000B9441460EF040FDDDF84480FFF7CDBA76
:10140000119818B10EF076FECDF84480CDF84890D2
:10141000CDF84C90FFF7AFBA099810B10EF06AFE04
:101420000994CDF82890CDF82C90CDF84490CDF8C3
:101430004890CDF84C908DF85090FFF79CBA019BE6
:10144000052098600BF030FA76E4019B0520986047
:101450000BF006FA70E4099A0192611C00200EF06C
:1014600051FE804660B1139B11901294019A03B90A
:1014700003701146404613940EF0FEFCFFF7DEBAEF
:10148000119818B10EF036FECDF84480CDF8489092
:10149000CDF84C90FFF7D2BA099A0192611C002056
:1014A0000EF030FE804660B1139B11901294019AA9
:1014B00003B903701146404613940EF0DDFCFFF7AC
:1014C0009CBA119818B10EF015FECDF84480CDF8F5
:1014D0004890CDF84C90FFF790BA099A0192611CA0
:1014E00000200EF00FFE804660B1139B1190129405
:1014F000019A03B903701146404613940EF0BCFCE8
:10150000FFF75ABA119818B10EF0F4FDCDF84480E7
:10151000CDF84890CDF84C90FFF74EBA611C099871
:101520000EF0F0FD40B10B9A09900A94002A7FF466
:1015300052AF027009984EE70190099818B10EF069
:10154000D9FD019B0993CDF82890CDF82C90DDF8BA
:101550004480FFF743BA611C09980EF0D3FD40B1F7
:101560000B9A09900A94002A7FF428AF0270099818
:1015700024E70190099818B10EF0BCFD019B099376
:10158000CDF82890CDF82C90DDF84480FFF747BACD
:10159000611C09980EF0B6FD40B10B9A09900A94AF
:1015A000002A7FF425AF0270099821E7019009987D
:1015B00018B10EF09FFD019B0993CDF82890CDF84E
:1015C0002C90DDF84480FFF7E8B9564B186807F017
:1015D00083FB00287FF4F0AC0D980EF08BFD65E4E2
:1015E000514B186807F078FB00287FF42AA84D4B70
:1015F000186807F071FB044600287FF422A84B4BC3
:10160000186807F069FB804600285AD0484B484AC2
:101610001B68002B4BD0012B3FD0022B32D0032B69
:101620007FF40BA9434A444B11681A6800230B73DB
:101630003F490B601373FFF700B9404905A808F054
:1016400031FDFEF72FBF3E4905A808F02BFDFEF740
:1016500034BF3C4905A808F025FDFEF72EBF0DF06C
:10166000C7FB00283FF461A8FFF72FB92D4B18687E
:1016700007F032FB00283FF458A8204608F082FB10
:10168000FEF7DFBF2B4B2C491B680968012018733C
:1016900003230C731360FFF7D0B826492648096866
:1016A00000680C73022103731160FFF7C6B821496B
:1016B000214B086819680123037313600B73FFF74C
:1016C000BCB8214B186807F007FB00283FF4B5A809
:1016D000174B174A5B687BB1012B17D0022B7FF4A5
:1016E000ACA81A4A1A4B11681A6800230B731049E8
:1016F0004B601373FFF7A1B81448154900680968D7
:10170000037301230B735360FFF797B80F48104919
:10171000006809680373022381F80C805360FFF7A7
:101720008CB800BF8019FF1F6C1BFF1FD019FF1F53
:101730006819FF1FA019FF1FA419FF1F340601001D
:101740007C06010064060100D419FF1F9819FF1FD1
:101750009C19FF1F2DE98048ABB004F0D5FE0D4B5E
:101760000D4D1B78DFF838B00C4C002B40F0AC82EC
:10177000D5F8408098E80C000026B242C8F808303E
:1017800088F80C6088F80D60C8F8046022DD08F164
:101790000C070BE00C0CFF1F7019FF1F010002402B
:1017A000302FFF1FD8F80030B3420FDD57F8040F79
:1017B00007F09AFA3B681A790136002AF2D09B6842
:1017C000C8F80430D8F80030B342EFDCD8F8046031
:1017D000D8F808309E4240F32D86012388F80C305B
:1017E000A96C6E640A68537B3F2B00F23987BF48AF
:1017F00050F8333093F80032D8B2137B834200F0B4
:10180000D984BB4B17681B681193119BB84EDB1B27
:101810005768BB42C0F0CE8433681093109E10739B
:10182000012300201660906093730B689A7B2AB1A5
:101830001B7B1BB94B7983F001034B71EE6CAC4BF6
:10184000D6F8F4771B6813933969139BA94AA84803
:10185000126D5B1AB3F57A7F40F20587D2F88030BB
:1018600001681B6B149114991B6939611BB2BB6031
:10187000D6F8E47707EE903A07EE107AF8EEE77ABA
:10188000B8EEC77AB4EEE77AF1EE10FA40F3D885F5
:10189000FA23C6F8FC3796F8FA37002B40F0258774
:1018A000012386F8F837012386F8FA37D36FD6F884
:1018B000E827186B4FF42F730169013B02FA81F29C
:1018C000FAD106F5FB6EDEED007A8B48C6F8E837F4
:1018D00080FB0210FDEEE77AD117C1EB20223A44DB
:1018E00017EE901A02EBD272C1EB6202052AC6F81B
:1018F000E427D6F8EC2740F3758441F6B05302F69E
:10190000C4129A4240F37184C6F8EC3796F8F23765
:10191000002B41F00781012386F8F037012386F878
:10192000F237686D07F0E0F9A86D07F0DDF9EE6DAC
:10193000304607F0D9F9D5F860A0504607F0D4F941
:101940002B690993184607F0CFF9D5F81C8040465B
:1019500007F0CAF92F6A384607F0C6F9D5F824907F
:10196000484607F0C1F9404607F0B6F920B1D8F86B
:101970000830012B00F05684384607F0ADF918B155
:10198000BB68012B00F04E84484607F0A5F90028FB
:1019900040F043849AF80430002B40F0C48630466F
:1019A00007F09AF9002800F07B84AA6BD5F8D030B4
:1019B000504902F1020E9E45C5F838E002DD0023D1
:1019C0008B639E46EB6CDFF82CC193F8F237002B4B
:1019D00001F00B83686B07F01FF9286B07F01CF907
:1019E000A86A07F019F9E86A07F016F9D5F8CC00EB
:1019F00007F012F9EB6B696CA86A1944102207F022
:101A00002BF9EB6B696CE86A1022194407F024F992
:101A1000E96BD5F8CC0007F037FFAB6BE96B686B6F
:101A2000194407F031FFAB6BE96B286B194407F0E1
:101A30002BFFAA6AEB6B1268686CA96913441844FF
:101A400008F060FD686D2B4E07F046F9002800F0A5
:101A50003A84EB6BEA6E274E934241DAF26C92F8CD
:101A6000F22703F1010EC6F83CE0002A01F073836F
:101A7000686B07F0D1F8286B07F0CEF8A86A07F07A
:101A8000CBF8E86A07F0C8F8D5F8CC0007F0C4F83E
:101A9000EB6B696CA86A1944102207F0DDF8EB6B58
:101AA000696CE86A1022194407F0D6F8E96BD5F89A
:101AB000CC0007F0E9FEAB6BE96B686B194407F0EB
:101AC000E3FEAB6BE96B286B194407F0DDFEAA6AF5
:101AD000EB6B1268686CA9691344184408F012FD96
:101AE000A86D044E07F0F8F808E000BFB05D0100F3
:101AF0004030FF1F7019FF1F91739F5D002801F098
:101B00001E80EA6BEB6EB14E1344002B41DDF36C8B
:101B100093F8F23702F1FF3EC6F83CE0002B01F0EB
:101B2000D282686B07F078F8286B07F075F8A86A1E
:101B300007F072F8E86A07F06FF8D5F8CC0007F004
:101B40006BF8EB6B696CA86A1944102207F084F8F3
:101B5000EB6B696CE86A1022194407F07DF8E96BB9
:101B6000D5F8CC0007F090FEAB6BE96B686B1944BD
:101B700007F08AFEAB6BE96B286B194407F084FE13
:101B8000AA6AEB6B1268686CA9691344184408F0E0
:101B9000B9FCEE69304607F09FF8002840F0A583B5
:101BA0002E6A304607F098F8002840F0A8836E6A45
:101BB000304607F091F8002840F0AB83A86C834EC4
:101BC0004379002B00F0AE8307F086F8F36C002811
:101BD00041F040822A6C117B002901F01B83A86A26
:101BE00007F01AF8E86A07F017F8D5F8CC0007F004
:101BF00013F8EB6B696CA86A1944102207F02CF8F3
:101C0000EB6B696CE86A1944102207F025F8E96B60
:101C1000D5F8CC0007F038FEAA6AEB6B1268686C46
:101C2000A9691344184408F06DFCEB6C93F8F8278D
:101C3000002A40F0AB8393F8F937002B40F0B283D1
:101C4000634B5B78002B00F0B583624E9BF85870B5
:101C5000102F40F2EC80D5F8C000DFF88C814FF0F7
:101C60000009002800F0A781068843889A0800EB45
:101C700082020433B342976880F05C81438007F0AE
:101C80000F06A6F10803062B00F2B080082EC7F35A
:101C9000033700F0B281092E00F0B3810A2E40F024
:101CA000B4810A2FDDD0D5F8C8304B49474A0133FB
:101CB0008B4200F3DB84C2F8C8300BF00FFB444BBF
:101CC0001B78002B3FF454AD444F454915A808F04C
:101CD00023FA15A921A808F0F3F921A807F088FC38
:101CE00021980EF007FA96200BF086FD2E683046FC
:101CF00006F0FAFFD5F80480404606F0F5FFD5F867
:101D000008A0504606F0F0FFD5F80C90484606F0C3
:101D1000EBFF33689A7B1AB11B7B002B00F0158513
:101D2000D8F800309A7B1AB11B7B002B00F012858B
:101D3000504606F0D1FF002800F0118501F0C0FAEE
:101D4000064615980EF0D6F9002EBED064200BF092
:101D500067FEA86167200BF063FEEB692E6A98604E
:101D600068200BF05DFEB06069200BF059FE6B6AD5
:101D700098600AF0E7F81B4807F024FA05F12806F6
:101D800009F010FD40F2EE200BF036FD96E8C04061
:101D90006B6B306893F80CC039681B68DEF8002064
:101DA000CDF818C09EF80CE0CDF814E03F7B049706
:101DB000367BAF6B039601970026EF6B0296009778
:101DC00008F0ECFE024B1E70D2E400BF7019FF1F3A
:101DD0000C0CFF1F302FFF1FA086010000000240E7
:101DE0003C0F0100100B0100DC33FF1FB31E012B61
:101DF000C7F3072240F2B580052E00F0AE80042E16
:101E000000F00B86731F022B40F202870F2E7FF427
:101E10004AAFF72A00F2A580F02A04D0B5F8C43002
:101E2000002B3FF440AF104608F0AAF93BE7736D72
:101E3000C44A186803681B69934240F0B780C24BDC
:101E4000C24A1B781078DBB2C0B2834202D2C04AC9
:101E500012681344181A00283FF4FDAE9BF80D31A8
:101E6000DBF8542023F001038BF80D311068B94AD8
:101E700003685B69934240F0F183B34BB34A1B782C
:101E80001278DBB2D2B2934201F0CA81B04909683C
:101E900002F1010E8E4580F07B81BEF13F0F41F2D1
:101EA000FA813F3AD5F8B800D5F8BCC0805C5FFA3B
:101EB00080F8A6485FFA8EF20270BCF1000F00F0C5
:101EC0007781A54A734538BFC91852682CBFCEEB3D
:101ED0000303CEEB0103934200F26A8100234046E4
:101EE0008CF80030C2B2FD2A3FF4B5AEDBF86430A6
:101EF000DFF878E2002B40F097809BF859308BF8A0
:101F00005B20190600F1E08653B2002BC1F2688015
:101F10009BF90D01DBF8043040F001008BF80D0156
:101F200003B198470023CBF86430CBF860308BF8CE
:101F3000593090E608F036F972B6884B186940B10E
:101F4000874B02881B894168C8F810109B1A844A85
:101F5000138162B6C5F8C00091E6F02A5CD9F72A71
:101F60005AD0F13A0E2A3FF69EAE01A353F822F062
:101F7000631C0000631C0000631C0000A71C000021
:101F8000A71C0000631C0000A71C0000631C0000CD
:101F9000A71C0000631C0000631C0000631C000001
:101FA000A71C0000631C0000631C00009847002869
:101FB0003FF451AE52E76B4B1B78002B3FF473AEEE
:101FC00072B6664B186940B1654B02881B8941683F
:101FD000C8F810109B1A624A138162B6624FC5F8A6
:101FE000C00000283FF45FAE0688002E7FF43DAEAF
:101FF00008F0D8F8C7F8C06055E6082F7FF453AE54
:102000002FE6092F7FF44FAE2BE60B2E41F02881EF
:102010000B2F7FF448AE24E6104608F0B1F8A5F87F
:10202000C490D5F8C0001CE6010600F11E869BF89E
:102030005B10F02900F08483F72900F08183F11808
:1020400081F85B20DBF860004849421E9A4200F2AA
:10205000568396F85B10F02901F05D80F72901F0B6
:102060005A800B0600F1E98500228BF87520B02A12
:1020700000F0F685A02A00F0F385D02A00F0F08564
:10208000E02A00F0ED85C02A00F0EA85002303284D
:102090009BF85CE008BF96F85D008BF876E018BF0F
:1020A00000204FF0000E4FF0010CB02A8BF8743076
:1020B0008BF87700CBF864E0CBF860E08BF8F8C0E1
:1020C00000F0E48700F2DB87902A00F0DF87A02A87
:1020D00000F0DC87802A00F0D98700228BF8592095
:1020E0009BF87520902A43D0A2F18001C9B26029E3
:1020F00042D907F0E1F89BF8703013F001083FF483
:10210000A5AD9BF8702012F0FE0F15D096F8750063
:1021100080F08003602B00F2C58196F874309F42F6
:1021200000F0F182002F00F0EE825208012A00F048
:102130009E87032A00F0F082B8F1000F7FF486AD8D
:1021400089E500BFAD6400001834FF1F1934FF1F7C
:102150000411FF1F2D6400000C0CFF1FDC33FF1F58
:10216000F033FF1FD433FF1F7019FF1F302FFF1FE5
:1021700010B980228BF875209F42BAD0002FB8D0BA
:102180009BF87030DB077FF566AD4FF00008B8E7CD
:102190000022964605EB0E00D5F8BCC090F87800FA
:1021A0005FFA80F8BB480270BCF1000F7FF489AE83
:1021B000404697E69368002B00F05981B6481768AF
:1021C00000680F900F98B44EC01B834200F24F81FD
:1021D00033681293129B1360002001239060937365
:1021E000FFF723BBC83A00F1468141F289339A4296
:1021F000C6F8EC273FF78AABB2F57A7FBFF691AB12
:1022000096F8F237002B00F03D81012386F8F13774
:10221000002386F8F237FFF784BBD9F80830012B8A
:102220007FF4B8ABA86A06F0F7FCE86A06F0F4FCA5
:10223000D5F8CC0006F0F0FC686B06F0EDFC286BDE
:1022400006F0EAFC686F06F0E7FCAB6C4FF00008A4
:1022500083F80580FEF70AF96B6BD5F828E0EE6A83
:102260002F6B93F80CC0DEF8000031683A681B68E9
:10227000CDF818C03F7B0597367B04969EF80C601E
:10228000AF6B0396EE6B0096CDF80880019708F0CF
:1022900085FCEE6D304606F01FFD00287FF485AB0F
:1022A0002A697E4B1279002A3FF4CCAB586E06F0B7
:1022B00013FD00287FF479AB686D784E06F00CFDB5
:1022C00000287FF4C6AB33681B79002B40F0E4860E
:1022D000B06D06F001FD00287FF413ACEE693046C6
:1022E00006F0FAFC00283FF45BAC304606F078FDBF
:1022F0002E6A304606F0F0FC00283FF458AC304619
:1023000006F06EFD6E6A304606F0E6FC00283FF4EB
:1023100055AC304606F064FDA86C604E4379002B46
:102320007FF452ACF36C93F8F277002F00F08183C6
:1023300093F8F027002A3FF44DACF36B716CB06A50
:102340001944102206F088FCF36B716CF06A1022BD
:10235000194406F081FCB36BF16B706B194407F004
:1023600093FAB36BF16B306B194407F08DFAB26AD4
:10237000F36B1268706CB1691344184408F0C2F82A
:10238000F36C93F8F827002A3FF455ACAB6BE96B7C
:10239000686F194407F078FAEB6C93F8F937002B63
:1023A0003FF44EAC686F06F037FC3D4B5B78002B7A
:1023B0007FF44BACAB6CDFF8E4E05B79002B7FF48F
:1023C00044ACDEF84C3093F8F237002B7FF43DAC90
:1023D000314BDEF8D4201B680C930C9B9B1AC82B46
:1023E0007FF633ACDEF83430DEF828C0DEF82C603F
:1023F000DEF8307093F80C803A68DCF80000316841
:102400001B68CDF818803F7B0597367B0496DEF875
:102410003860DEF844709CF80CC00196DEF83C6031
:1024200002971F4F00960126CDF80CC07E7008F071
:10243000B5FB0AE4BCBF012388F80D30FFF7D0B923
:10244000D6F8FC37002B05DD013BC6F8FC37002B26
:102450007FF421AA96F8FA37002B00F0F2850123C9
:1024600086F8F937002386F8FA37FFF71FBA0023FA
:102470009373FFF7DAB9C6F8EC3796F8F237002B0A
:102480007FF4C3AE96F8F127002A3FF4C1AE86F878
:10249000F137BDE61934FF1F4030FF1F7019FF1FD1
:1024A0000C0CFF1FA0F1F0030F2B3FF645AE01A26D
:1024B00052F823F01526000073250000C9250000FE
:1024C0002B2500003921000039210000F5240000EF
:1024D00039210000F524000039210000F524000016
:1024E000F5240000F524000039210000F524000047
:1024F000F524000000F10803DBB2072B3FF61CAE09
:10250000012202FA03F313F0DD0F3FF415AEDBF8FE
:102510005430B7491A6813681B688B4240F0BF8675
:10252000B44B1B685F0521D406E6DBF85430B04A93
:1025300018689BF8767003681B68934240F08886A1
:10254000AC4A1268520506D5F32005F0E9FB736D1D
:10255000186803681B68A64A934207F07F0157D1A9
:10256000A44B1B6858057FF5E7AD084605F0D8FB7E
:10257000E2E5DBF854209BF8763010689BF8777022
:1025800002681B0103F0700307F00F0712681F4376
:10259000974B9A4240F05486964B1B68590506D5D6
:1025A000F12005F0BDFB736D186803681A68904B45
:1025B0009A4240F041868F4B1B685A057FF5BCADAF
:1025C000384605F0ADFBB7E5DBF85430884A1868AB
:1025D0009BF8767003689BF877901B68934240F0F5
:1025E0004686844A1268520506D5F22005F098FB0B
:1025F000736D186803681B6847EAC91707F07F0105
:102600009847DBF85430186803681B68C7F3C61195
:10261000984791E5BBF87630802B28BF8023002BAC
:102620003FF48AAD7733DFF8E4919F1908E0714BEE
:102630001B68590501D505F073FBB9453FF47CAD26
:10264000DBF854306A481A6819F8011F13681B68D0
:1026500083420846EBD010469847EEE7984741E49E
:102660000020FFF7CAB8BB68FFF702B900231621A4
:102670006148C2F8C83007F007FE604B604A1B682B
:102680000B930B9B12689A1A00F0D1825D4EA6FB49
:102690000213DB0803EB8301A2EB410230328DF819
:1026A000A520002B00F0C4852121A6FB0302D2083F
:1026B00002EB82000139A3EB4003C9B22AA8084407
:1026C000303300F8243C1346002AEED10846C1F10D
:1026D000220121AB184407F0D7FD484B484A1B683C
:1026E0000A930A9B1360FFF7E8BA96F8F837002BB5
:1026F0003FF4D9A8002386F8F837FFF7D4B80133A0
:102700004B66FFF7A8BA9BF870205208012A00F028
:10271000AE84022A7FF410AD96F8772096F87610F2
:1027200006F0F2FE08E5099B1B79002B7FF47AADD9
:10273000304606F0D1FA00287FF437A9FFF782B9B6
:102740000BEB030181F878207CE403F051FB064693
:10275000FFF7F7BA0BF0E8FE0646FFF7F2BA484675
:1027600006F0BAFA20B915980DF0C4FCFFF7ADBA1F
:10277000254919A807F0D0FC19A921A807F0A0FC49
:1027800021A806F035FF21980DF0B4FC96200BF03F
:1027900033F8D5F80080404606F0A6FA6E68304659
:1027A00006F0A2FAD5F80890484606F09DFAD5F84A
:1027B00010A0504606F098FAD8F800309A7B3046C0
:1027C0001AB11B7B002B00F0C78106F085FAF8B91F
:1027D000484606F081FA002863D1504606F07CFA9C
:1027E000064619980DF086FC002EC1D0BBE700BF4D
:1027F000ED64000034800440481201004030FF1FA7
:102800004430FF1FCDCCCCCCF00F0100A72FFF1F11
:102810009F49DFF8A0921DA807F07EFC1DA921A802
:1028200007F04EFC21A806F0E3FE21980DF062FCB3
:1028300096200AF0E1FF2E68304606F055FAD5F8EA
:102840000480404606F050FAD5F810A0504606F035
:102850004BFA33689A7B12B11B7B002B6AD0D8F8F5
:1028600000309A7B1AB11B7B002B00F0B7805046DA
:1028700006F032FA06461D980DF03CFC002EC7D03B
:1028800019980DF037FC15980DF034FCFFF71DBAC0
:10289000484606F021FA06461D980DF02BFC002E46
:1028A000EED17C49DFF80CA21DA807F035FC1DA96C
:1028B00021A807F005FC21A806F09AFE21980DF04A
:1028C00019FC96200AF098FFD5F80080404606F0E3
:1028D0000BFA6E68304606F007FAD5F810904846B5
:1028E00006F002FAD8F800309A7B304612B11B7B12
:1028F000002B57D006F0F0F90028C9D02378012228
:10290000DE072A7540F14F84634B1B78012B0AD0F8
:102910003B7813F0700318BF3B705F4B01221A70B5
:102920002378D807FCD51D980DF0E4FB19980DF01D
:10293000E1FB18E72278C9F81830D30740F1FC8092
:10294000564B1B7853B13B7813F0700318BF3B70A4
:10295000524B00221A702378D907FCD509F0F2FAFD
:102960004F4802218175C1754E49012200238282A0
:1029700042824B4A21A8D381138207F0CDFB21A8C4
:1029800009F0E4F908F00EFF40F2EE200AF034FFFF
:1029900021980DF0AFFB1D980DF0ACFB19980DF0D0
:1029A000A9FBE0E622788AF81430D00740F15C8376
:1029B000394B1B78002BB6D03B7813F0700318BF4F
:1029C0003B70354B00221A702378DB07FCD51D982D
:1029D0000DF090FB19980DF08DFBC4E623780122D1
:1029E000DE07AA6140F13D832C4B1B78012B0AD0F6
:1029F0003B7813F0700318BF3B70284B01221A700C
:102A00002378DA07FCD509F09DFA25480221817563
:102A1000C175012200232449A9E7104607F0B0FB45
:102A2000C7F3074007F0ACFB380E07F0A9FBFFF730
:102A30003AB90268917B11B1127B002A3CD193F81C
:102A4000F137002B3FF4FCA8A86A06F0E5F8E86A25
:102A500006F0E2F8D5F8CC0006F0DEF8686B06F078
:102A6000DBF8286B06F0D8F8686F06F0D5F80F4B46
:102A70000F4A1B680D930D9BC5F8D430002353708B
:102A8000AB6CDFF830E05B79002B7FF4DEA898E4D4
:102A9000C0100100AC1101006500001464000014B6
:102AA000582EFF1F74110100901101004030FF1FCC
:102AB0000C0CFF1F7019FF1FB06A06F0ADF8F06A2A
:102AC00006F0AAF8D6F8CC0006F0A6F8706B06F06F
:102AD000A3F8306B06F0A0F8706F06F09DF8B06AAE
:102AE00006F084F8F06A06F081F8D6F8CC0006F01B
:102AF0007DF8706B06F07AF8306B06F077F8706F3F
:102B000006F074F8694B6A4A1B680E930E9BC6F870
:102B1000D430AB6C57705B79DFF8A8E1002B7FF401
:102B200094A84EE496F8F037002B3EF4F7AE00235D
:102B300086F8F037FEF7F2BE0AF004FF00E73368CC
:102B40001B79002B3FF425A8286F06F0C5F8002854
:102B50007EF4D7AFFFF71DB84FF0A0562378DA0701
:102B600053D533784BB13B7813F0700318BF3B70EB
:102B7000002333702378DB07FCD54E4B01369E4291
:102B8000ECD1012166200AF023FF012009F0B0FEFC
:102B9000022009F089FE032009F062FE2378DE0797
:102BA00040F18E82444B1B7853B13B7813F0700395
:102BB00018BF3B70404B00221A702378D807FCD511
:102BC00009F0C0F93D480122828242823B4A00233B
:102BD0000221D38113828175C175394921A807F07B
:102BE0009BFA21A809F0B2F808F0DCFD40F2EE20D3
:102BF0000AF002FE21980DF07DFA19980DF07AFA8C
:102C000015980DF077FAFFF760B80AF09BFEA8E779
:102C1000104607F0B5FAC7F3074007F0B1FA072EE0
:102C20007FF4FDA9380E07F0ABFAFFF7F8B93023AF
:102C30008DF8A530012121204BE501F10C03DBB219
:102C4000012B7FF611AAFD293FF40EAAEF2900F20D
:102C5000338301F0F002802A86F8752040F0248347
:102C600001F00F030133FFF712BAA2F1F0000F28B1
:102C70003FF6DDA90121814011F0810F00F099821A
:102C800096F87810F02900F0A782F72900F0A482C6
:102C90009EF90D01DEF8043040F001008EF80D01C0
:102CA000002B7FF43EA9FFF73DB900BF4030FF1F66
:102CB0000C0CFF1F0010001465000014582EFF1F9D
:102CC000A41001007019FF1F03F10C0E5FFA8EF1C2
:102CD00001297FF619A9FD2B3FF416A9EF2B00F26D
:102CE000698103F0F001802940F0658101063FF51C
:102CF0000BA901208BF85B308BF85C20CBF86400CB
:102D00005FFA8EFEBEF1010F7FF602A9FD2B3FF4A4
:102D1000FFA8EF2B94BF03F0F0021A46A2F1800146
:102D20007F293FF6F5A80FF2080E5EF821F000BFEC
:102D3000AD2F0000111F0000111F0000111F000027
:102D4000111F0000111F0000111F0000111F0000C3
:102D5000111F0000111F0000111F0000111F0000B3
:102D6000111F0000111F0000111F0000111F0000A3
:102D7000AD2F0000111F0000111F0000111F0000E7
:102D8000111F0000111F0000111F0000111F000083
:102D9000111F0000111F0000111F0000111F000073
:102DA000111F0000111F0000111F0000111F000063
:102DB000AD2F0000111F0000111F0000111F0000A7
:102DC000111F0000111F0000111F0000111F000043
:102DD000111F0000111F0000111F0000111F000033
:102DE000111F0000111F0000111F0000111F000023
:102DF000AD2F0000111F0000111F0000111F000067
:102E0000111F0000111F0000111F0000111F000002
:102E1000111F0000111F0000111F0000111F0000F2
:102E2000111F0000111F0000111F0000111F0000E2
:102E30006F2F0000111F0000111F0000111F000064
:102E4000111F0000111F0000111F0000111F0000C2
:102E5000111F0000111F0000111F0000111F0000B2
:102E6000111F0000111F0000111F0000111F0000A2
:102E70006F2F0000111F0000111F0000111F000024
:102E8000111F0000111F0000111F0000111F000082
:102E9000111F0000111F0000111F0000111F000072
:102EA000111F0000111F0000111F0000111F000062
:102EB000AD2F0000111F0000111F0000111F0000A6
:102EC000111F0000111F0000111F0000111F000042
:102ED000111F0000111F0000111F0000111F000032
:102EE000111F0000111F0000111F0000111F000022
:102EF000552F00006F2F0000AD2F00006F2F000036
:102F0000111F0000111F0000312F0000552F00007D
:102F1000312F0000312F0000312F0000312F000031
:102F2000312F0000111F0000312F0000312F000051
:102F3000002301208BF875208BF874308BF87630E5
:102F40008BF87730CBF86430CBF860308BF8F80032
:102F5000FFF7CCB8802100238BF87820CBF86010E5
:102F60008BF859300130CBF86400FEF774BE0221B3
:102F7000CBF860100028F5D096F85C0086F8760053
:102F800003F00F0300210120013386F8743086F826
:102F9000752086F8771071663166C6F8FC0086F8F1
:102FA000F800902A7FF4A0A8FFF7E3B80323CBF83A
:102FB0006030D7E7194601F0DF0CBCF1900F3FF409
:102FC00095AE01F0BF0CBCF1A00F3FF48FAE01F045
:102FD000EF01C0293FF48AAE53B2002BBEF698AF82
:102FE000134602F10C0E00208AE6DCF848305B79CB
:102FF000002B7EF4EFACDCF83430DCF82870DCF821
:103000002C80DCF8306093F80C903868D8F8001009
:1030100032681B68CDF81890367B059698F80C60DE
:10302000049697F80C80DCF83C60DCF8447002975A
:103030000096CDF80C80CDF804E007F0AFFDFEF768
:1030400001BD96F8F91700293FF40CAA86F8F93764
:10305000FFF708BA93F8F227002A3FF46EA9FEF7AB
:10306000B9BD0AF06FFCBFE40AF06CFCA0E49BF869
:1030700077209BF8761006F047FAFFF75DB8D02A64
:1030800004D0E02A02D0C02A7FF427A88BF8591078
:103090009BF87520FFF726B8B06E05F01DFE0028DE
:1030A0007EF4D7ACB06D05F017FE00287EF429AD94
:1030B000286F05F011FE00287EF423ADFEF769BDF0
:1030C0000AF040FC6EE5B36C5B79002B7EF429AD11
:1030D000736BD6F82C80D6F828C0376B93F80C9019
:1030E000DCF800003A681B68D8F80010CDF818909A
:1030F0003F7B059798F80C700497776C9CF80CC090
:103100000297B66B0196CDF80CC0CDF800E007F041
:1031100045FDFEF73EBDF02380229BF8F7608BF85B
:1031200075308BF876208BF8F730CBF8FC20002335
:1031300001228BF877308BF874308BF8F82006F08A
:10314000BBF8F72202238BF879608BF87820CBF854
:103150006430FEF780BDB36C5B79002B7EF488ACE5
:10316000736BD6F82C80D6F828C0376B93F80C9088
:10317000DCF800003A681B68D8F80010CDF8189009
:103180003F7B059798F80C700497776C9CF80CC0FF
:103190000297B66B0196CDF80CC0CDF800E007F0B1
:1031A000FDFCFEF79DBC0AF0CDFBFFF7ADBB4FF475
:1031B000004111F45F4F3EF43AAF002301218BF838
:1031C00075208BF876308BF877308BF87430CBF82D
:1031D000FC108BF8F810E4E6591C0BEB03000B0A0B
:1031E0008BF87610CBF8FC108BF87730F0210023A9
:1031F00080F8782001228BF875108BF87430CBF8AA
:103200006430CBF860308BF859308BF8F82070219F
:10321000FEF76CBF527B002A7EF4E1ACFEF706BDE0
:10322000736EFF22002BC2D14FF0FF30FEF765BE58
:1032300001212120FFF74DBA39469047FEF77CBFA8
:10324000F1219047736D186803681A68FFF7AFB9EA
:10325000F3219847736D186803681B68FFF77BB903
:103260000C2E0CD10C2F7EF41EADFEF7FABCF22111
:103270009847736D186803681B68FFF7BDB90D2E7A
:1032800004D10D2F7EF40FADFEF7EBBC0E2F7EF4B4
:103290000AADFEF7E6BC5FFA8EF2FEF77BBF014691
:1032A00010469847FEF748BF902A7EF4E0AE01F042
:1032B0000F030133FEF7EBBE0A46FEF7D6BE00BF92
:1032C0002DE9F04FDFF82083DFF82093DFF820A30B
:1032D00099B0B349B34C0CA806F01EFF0CA914A872
:1032E00006F0EEFE14A806F083F914980CF002FF25
:1032F00096200AF081FAD8F8000005F0F5FCD9F81C
:10330000000005F0F1FCA84B186805F0EDFCA74B98
:10331000186805F0E9FC2668304605F0E5FCA44B8A
:10332000186805F0E1FCD8F800301B689A7B1AB1E8
:103330001B7B002B00F0B083D9F8000005F0CCFC1B
:10334000002800F03984974A002313710C9810ADBF
:103350000CF0D0FE2846974906F0DEFE914B1B7913
:10336000002B01F010809449284606F09BFE48236C
:10337000039343234FF0540A4F2702938F4C9049F5
:10338000DFF870B214A806F0C7FE3B01E218E1585E
:10339000926814A806F030FE8A4914A806F06CFE64
:1033A0004FEA0A13E218E1589268064606F024FE36
:1033B0003046854906F060FE029B1B01E218E15889
:1033C0009268064606F018FE3046804906F054FE24
:1033D000039B1B01E218E1589268064606F00CFEBA
:1033E00030467B4906F048FE0346284619689A682D
:1033F00006F002FE14A806F0C5FC294614A806F043
:103400005FFE14A806F0F4F814A806F0BBFC9620A2
:103410000AF0F2F9D8F80060304605F065FCD9F8FA
:10342000000005F061FC604B186805F05DFC5F4B27
:10343000186805F059FCDBF8000005F055FCD8F8D9
:10344000006033689A7B0AB11B7B33B1DBF8000064
:1034500005F042FC002800F031835E4B01931B68AD
:103460001F60284606F08EFC4E4B5B491B79002BF3
:103470000BBF2B2330233222372214A80BBF372750
:103480003C273E2643260393029206F045FE01990F
:103490000B681B681B01E218E158926814A806F03B
:1034A000ABFD4E4914A806F0E7FD3301E218E158E0
:1034B0009268824606F0A0FD5046424906F0DCFDC7
:1034C0003B01E218E1589268824606F095FD5046AD
:1034D0003D4906F0D1FD029A1301E218E1589268C5
:1034E000824606F089FD5046384906F0C5FD039B2B
:1034F0001B01E218E1589268824606F07DFD5046B5
:10350000374906F0B9FD0146284606F0D9FD14A852
:1035100006F038FC294614A806F0D2FD14A806F0DF
:1035200067F814A806F02EFC96200AF065F9D8F882
:1035300000A0504605F0D8FBD9F8000005F0D4FBF8
:10354000194B186805F0D0FB184B186805F0CCFB38
:10355000DBF8000005F0C8FBD8F800A0DAF800306E
:103560009A7B0AB11B7B33B1DBF8000005F0B4FB9A
:10357000002800F0BB82DFF880A0DAF800301E607F
:10358000284606F0FFFB074B16491B79002B0BBFA3
:103590003E234323372630260CBF322237222DE02C
:1035A000601201006C1BFF1F7819FF1F7C19FF1FA1
:1035B0008019FF1FE4160100E0130100D81CFF1F53
:1035C0000014010034140100401401004C140100E7
:1035D000581401009819FF1FA4140100B814010029
:1035E000F0140100501501007019FF1F7419FF1F1E
:1035F000CDCCCCCCD019FF1F9C19FF1F0CBF4FF0B6
:103600002B0E4FF0240E1F46089304960BBF432346
:103610003C2326262B2614A8CDF808E00793069213
:10362000039606F079FD019803681B681B01E218F8
:10363000E158926814A806F0DFFCB84914A806F017
:103640001BFDDAF800301B681B01E218E158926894
:10365000064606F0D1FC3046B14906F00DFD029B4E
:103660001B01E218E1589268064606F0C5FC304698
:10367000AC4906F001FD03990B01E218E15892688C
:10368000064606F0B9FC3046A74906F0F5FC049959
:103690000B01E218E1589268064606F0ADFC304690
:1036A000A24906F0E9FC069A1301E218E158926873
:1036B000064606F0A1FC30469D4906F0DDFC079B5E
:1036C0001B01E218E1589268064606F095FC304668
:1036D000984906F0D1FC3B01E218E1589268064691
:1036E00006F08AFC3046944906F0C6FC014628469E
:1036F00006F0E6FC14A806F045FB294614A806F0DF
:10370000DFFC14A805F074FF14A806F03BFB96201C
:103710000AF072F8894BD8F800701E689B68059310
:10372000384605F0E1FAD9F8000005F0DDFA844BDF
:10373000186805F0D9FA834B186805F0D5FA3046B9
:1037400005F0D2FA059805F0CFFADBF8000005F095
:10375000CBFAD8F800703B689A7B1AB11B7B002B20
:1037600000F0D081D9F8000005F0B6FA002800F08A
:10377000CE81754E039A33681A60284606F002FB24
:103780006E4B724A1B790992002B0BBF37273C27DF
:103790004FF0430E4FF0480E0BBF322337232B223E
:1037A0003022CDF808E0049707BF4FF03E0E4A27BD
:1037B0004F274FF0430E6649CDF814E014A8069346
:1037C0000792039706F0A8FC019803681B681B0189
:1037D000E218E158926814A806F00EFC4F4914A8AC
:1037E00006F04AFCDAF800301B681B01E218E158C9
:1037F0009268074606F000FC3846564906F03CFC45
:1038000033681B681B01E218E1589268074606F00E
:10381000F3FB3846504906F02FFC029B1B01E218CF
:10382000E1589268074606F0E7FB38464B4906F038
:1038300023FC03990B01E218E1589268074606F051
:10384000DBFB3846384906F017FC04990B01E218F7
:10385000E1589268074606F0CFFB3846404906F02B
:103860000BFC05990B01E218E1589268074606F037
:10387000C3FB38462E4906F0FFFB079A1301E218F6
:10388000E1589268074606F0B7FB3846294906F02A
:10389000F3FB069B1B01E218E1589268074606F00D
:1038A000ABFB38462F49304F06F0E6FB0146284671
:1038B00006F006FC14A806F065FA294614A806F0DE
:1038C000FFFB14A805F094FE14A806F05BFA9620FE
:1038D00009F092FF194BD8F800201B680893174B8A
:1038E0000B949B680A931446204605F0FDF9D9F81D
:1038F000000005F0F9F9124B186805F0F5F9114BC5
:10390000186805F0F1F9089805F0EEF90A9805F045
:10391000EBF9DBF8000005F0E7F927E0601501009E
:103920006415010084150100401401009015010088
:103930009C150100A8150100581401006C1BFF1F05
:103940007819FF1F7C19FF1FA019FF1FA419FF1F63
:1039500050150100B4150100C01501003414010018
:103960004C140100E8150100E419FF1FD8F80040CD
:103970002368997B09B11B7B33B1DBF8000005F0AC
:10398000ABF9002800F0A680099B029A1B681A6018
:10399000134601210C3B3E2BFCDC386803600029F8
:1039A000A2D028460B9C06F0EDF9794914A806F040
:1039B000B3FB019B1B681B681B01E218E15892686E
:1039C00014A806F019FB734914A806F055FBDAF8A1
:1039D00000301B681B01E218E1589268074606F0A8
:1039E0000BFB38466C4906F047FB33681B681B012C
:1039F000E218E1589268074606F0FEFA6749384631
:103A000006F03AFB099B1B681B681B01E218E15892
:103A10009268064606F0F0FA3046614906F02CFB43
:103A20000146284606F04CFB14A806F0ABF92946DF
:103A300014A806F045FB14A805F0DAFD14A806F05A
:103A4000A1F9962009F0D8FED8F80060304605F0BC
:103A50004BF9D9F8000005F047F9DBF8000005F054
:103A600043F9504B186805F03FF9DBF800301B684C
:103A70009A7B1AB11B7B002B00F08780D8F800607E
:103A8000304605F029F9044648B1284606F07AF98F
:103A9000204619B0BDE8F08F0123237156E4414B55
:103AA0001B681B689A7B12B11B7B002BEDD0D9F8E9
:103AB000000005F011F90028E7D1C7E7D9F80000A8
:103AC00005F00AF900282ED0374B01931B68C3F884
:103AD00000A0C6E4D9F8000005F0FEF800282FD0B9
:103AE000099B039A1B681A60134652E7D9F8000035
:103AF00005F0F2F800283AD0DFF8B8A0DAF8003084
:103B00001F603DE5294E029A33681A6035E6284B5E
:103B1000186805F0E1F8002800F00984234E049AA3
:103B200033681A6029E6224B186805F0D5F800289A
:103B300000F057811C4B01931B68029A1A6090E4B5
:103B40001B4B186805F0C8F8002800F05881099B45
:103B5000049A1B681A601346012100E00C33312BD4
:103B6000FCDD3868036000293FF4BEAE19E7104B56
:103B7000186805F0B1F8002800F07281DFF834A071
:103B8000029ADAF800301A60FAE401247DE700BFF7
:103B90001C160100441601005C1601007416010099
:103BA0008C1601008019FF1F9819FF1FA019FF1F15
:103BB0007819FF1F9C19FF1F994B186805F08CF8A6
:103BC0000546002800F06081964A974B029210AC9F
:103BD000964A974E974D984F03929B460494974967
:103BE00014A806F099FA33681B681B01EA18E95813
:103BF000926814A806F000FA0F22914914A806F062
:103C0000FBF93B681B681B01EA18E958926814A885
:103C100006F0F2F90F228B4914A806F0EDF9DBF853
:103C200000301B681B01EA18E958926814A806F0D6
:103C3000E3F90F22844914A806F0DEF9029B1B6801
:103C40001B681B01EA18E958926814A806F0D4F919
:103C50000F227E4914A806F0CFF9039B1B681B684E
:103C60001B01EA18E958926814A806F0C5F9192250
:103C7000774914A806F0C0F914A9049806F020FAB0
:103C800014980CF037FA129C00201490159016909E
:103C90008DF85C00002C7ED114A805F0A9FC1498C6
:103CA0000CF028FA962009F0A7FDD8F8000005F0DE
:103CB0001BF8D9F8000005F017F8594B186805F003
:103CC00013F8644B186805F00FF8634B1C68204626
:103CD00005F00AF8604B9A680192104605F004F866
:103CE0005E4B186805F000F8D8F80030019A1B68A0
:103CF000997B11B11B7B002B37D0D9F800301B68A2
:103D0000997B11B11B7B002B36D0454B1B681B6880
:103D1000997B11B11B7B002B35D04E4B1B681B6868
:103D2000997B11B11B7B002B53D02368997B09B180
:103D30001B7B93B113689A7B0AB11B7B23B1474B62
:103D4000186804F0C9FF60B1049C204606F01AF818
:103D50000C980CF0CFF9FFF7BCBA039B18680AF077
:103D60007DFE10980CF0C6F939E730680AF076FE4F
:103D700010980CF0BFF932E738680AF06FFE10981F
:103D80000CF0B8F92BE7DBF800000AF067FE10989A
:103D90000CF0B0F923E7109A0192611C0CF0B2F913
:103DA000034658B1169914901594019A01B90170FF
:103DB0001146184616940CF05FF86DE701901498C0
:103DC00018B10CF097F9019B1493002315931693E7
:103DD00062E7029B18680AF041FE10980CF08AF91D
:103DE000FDE61C4B186804F077FF00283FF414AB85
:103DF0000F4B01931B68039A1A60FFF732BB154BF8
:103E0000186804F069FF002800F0A382099B059A56
:103E1000196813460A6001213E2B3FF7BBAD9EE6B1
:103E20007819FF1FA419FF1FA019FF1FE419FF1F16
:103E30009819FF1FD81CFF1F9C19FF1F14130100A6
:103E40005013010060130100701301008013010082
:103E5000901301007C19FF1F6C1BFF1F8019FF1FAF
:103E6000074B186804F038FF00283FF462ABDFF816
:103E700014A0039ADAF800301A60FFF781BB00BF84
:103E80007C19FF1F9C19FF1FD54B186804F024FFF5
:103E90000446002800F08482D24B0493D24B029354
:103EA000D24ED34BD34F039310AC2322D249149557
:103EB00014A815958DF85C50169506F09DF833689A
:103EC0009B68002BC0F28C82AAFB0312D20802EB83
:103ED0008201A3EB410330338DF840301346002AB2
:103EE00000F03E842046A6460021AAFB03C2D20869
:103EF00002EB820CA3EB4C0330330EF8013F01318F
:103F00001346002AF1D10DF1600E8E4463180EF8AD
:103F10001F2C93F800E090F800C000F801EB01328C
:103F2000C2EB010E724503F801C9F2DB20460CF02A
:103F300007F82146024614A806F05EF80F22AF49A2
:103F400014A806F059F83B689B68002BC0F27383F5
:103F5000AAFB0312D20802EB8201A3EB4103303328
:103F60008DF840301346002A00F0FE832046A64616
:103F70000021AAFB03C2D20802EB820CA3EB4C0384
:103F800030330EF8013F01311346002AF1D10DF113
:103F9000600E8E4463180EF81F2C93F800E090F822
:103FA00000C000F801EB0132C2EB010E964503F8A8
:103FB00001C9F2DC20460BF0C3FF2146024614A8DB
:103FC00006F01AF80F228E4914A806F015F8049B83
:103FD0001B689B68002BC0F2F582AAFB0312D20873
:103FE00002EB8201A3EB410330338DF840301346DE
:103FF000002A00F0BC832046A6460021AAFB03C28B
:10400000D20802EB820CA3EB4C0330330EF8013FD5
:1040100001311346002AF1D10DF1600E8E44631870
:104020000EF81F2C93F800E090F800C000F801EBA8
:104030000132C2EB010E724503F801C9F2DB2046E2
:104040000BF07EFF2146024614A805F0D5FF0F2293
:104050006C4914A805F0D0FF029B1B689B68002BDD
:10406000C0F27782AAFB0312D20802EB8201A3EB13
:10407000410330338DF840301346002A00F07A8334
:104080002046A6460021AAFB03C2D20802EB820CFE
:10409000A3EB4C0330330EF8013F01311346002AE5
:1040A000F1D10DF1600E8E4463180EF81F2C93F8B9
:1040B00000E090F800C000F801EB0132C2EB010E05
:1040C000724503F801C9F2DB20460BF039FF2146A7
:1040D000024614A805F090FF0F224B4914A805F0E2
:1040E0008BFF039B1B689B68002BC0F2F981AAFB26
:1040F0000312D20802EB8201A3EB410330338DF8A7
:1041000040301346002A00F028832046A6460021AE
:10411000AAFB03C2D20802EB820CA3EB4C033033A0
:104120000EF8013F01311346002AF1D10DF1600E66
:104130008E4463180EF81F2C93F800E090F800C02E
:1041400000F801EB0132C2EB010E724503F801C920
:10415000F2DB20460BF0F4FE2146024614A805F0DF
:104160004BFF0F22294914A805F046FF284B1B6876
:104170009B68002BC0F26D81AAFB0312D20802EBF0
:104180008201A3EB410330338DF840301346002AFF
:1041900000F0E0822046A6460021AAFB03C2D20816
:1041A00002EB820CA3EB4C0330330EF8013F0131DC
:1041B0001346002AF1D10DF1600E8E4463180EF8FB
:1041C0001F2C93F800E090F800C000F801EB0132DA
:1041D000C2EB010E724503F801C9F2DB1AE000BF21
:1041E0007C19FF1FA019FF1FA419FF1F9819FF1F9B
:1041F000E419FF1F9C19FF1FAC13010050130100AD
:10420000601301007013010080130100D01301003E
:104210003C1AFF1F20460BF093FE2146024614A8CD
:1042200005F0EAFE1322A74914A805F0E5FE169A48
:104230001095119512958DF84C50149B002A40F062
:10424000648218460BF056FF129B1495159516952F
:104250008DF85C50002B40F0348214A805F0C8F9AA
:1042600014980BF047FF962009F0C6FAD8F8000022
:1042700004F03AFDD9F8000004F036FD924B1868BE
:1042800004F032FD914B186804F02EFD904BD3F8EA
:1042900000B0584604F028FD8D4B9A6801921046F4
:1042A00004F022FD8B4B186804F01EFDD8F8003096
:1042B000019A1B68997B19B11B7B002B00F0F481DC
:1042C000D9F800301B68997B19B11B7B002B00F0DB
:1042D000EF817D4B1B681B68997B19B11B7B002B01
:1042E00000F0EA81794B1B681B68997B19B11B7B35
:1042F000002B00F00582DBF80030997B19B11B7BA5
:10430000002B00F0228213689A7B1AB11B7B002BD2
:1043100000F033826F4B1B681B689A7B1AB11B7BC2
:10432000002B3FF412AD10980BF0E4FEBDE5DBF876
:10433000000004F0D1FC00287FF4F0AB634B186858
:1043400004F0CAFCA8B1644E069A33681A60FFF7FD
:1043500014BA089804F0C0FC00283AD10A9804F076
:10436000BBFC099B1B68002840F0288201461B68A3
:1043700052E5304604F0B0FCF8B1574E079A336866
:104380001A60FFF7FAB95549284605F08BFE43231A
:1043900003933E234FF04F0A4A270293FEF7EEBFE6
:1043A000304604F099FC002800F0FF810CA805F0CD
:1043B000E9FC204619B0BDE8F08F059804F08CFCAC
:1043C00000283FF4ADA9444E089A33681A60FFF7FD
:1043D000D4B9099B079A1B681A601346FFF7BCBB48
:1043E0005B42AAFB0312D20802EB8201A3EB41035A
:1043F00030332D218DF841308DF840101346002ABE
:1044000000F0C9810DF141000021AAFB03E2D208AE
:1044100002EB820EA3EB4E03303300F8013F013173
:104420001346002AF1D14A1C18A81044A64600F8E9
:104430001F3C2244204692F800C01EF801BF00F83D
:1044400001CF0133C3EB010C634502F801B9F2DB84
:104450006CE55B42AAFB0312D20802EB8201A3EBDC
:10446000410330332D218DF841308DF84010134633
:10447000002A00F094810DF141000021AAFB03E223
:10448000D20802EB820EA3EB4E03303300F8013F5B
:1044900001311346002AF1D14A1C18A81044A6463F
:1044A00000F81F3C2244204692F800C01EF801BFCD
:1044B00000F801CF0133C3EB010C634502F801B9E9
:1044C000F2DBA7E6D01601007819FF1F7C19FF1F49
:1044D0006C1BFF1F8019FF1FA019FF1FF0130100A5
:1044E0005B42AAFB0312D20802EB8201A3EB410359
:1044F00030332D218DF841308DF840101346002ABD
:1045000000F046810DF141000021AAFB03E2D20830
:1045100002EB820EA3EB4E03303300F8013F013172
:104520001346002AF1D14A1C18A81044A64600F8E8
:104530001F3C2244204692F800C01EF801BF00F83C
:1045400001CF0133C3EB010C634502F801B9F2DB83
:10455000FFE55B42AAFB0312D20802EB8201A3EB48
:10456000410330332D218DF841308DF84010134632
:10457000002A00F00A810DF141000021AAFB03E2AC
:10458000D20802EB820EA3EB4E03303300F8013F5A
:1045900001311346002AF1D14A1C18A81044A6463E
:1045A00000F81F3C2244204692F800C01EF801BFCC
:1045B00000F801CF0133C3EB010C634502F801B9E8
:1045C000F2DB81E55B42AAFB0312D20802EB820117
:1045D000A3EB410330332D218DF841308DF840108D
:1045E0001346002A00F0CE800DF141000021AAFB05
:1045F00003E2D20802EB820EA3EB4E03303300F845
:10460000013F01311346002AF1D14A1C18A8104479
:10461000A64600F81F3C2244204692F800C01EF82F
:1046200001BF00F801CF0133C3EB010C9C4502F838
:1046300001B9F2DC03E55B42AAFB0312D20802EBEC
:104640008201A3EB410330332D218DF841308DF8E9
:1046500040101346002A00F0A5800DF14100002112
:10466000AAFB03E2D20802EB820EA3EB4E03303327
:1046700000F8013F01311346002AF1D14A1C18A865
:104680001044A64600F81F3C2244204692F800C081
:1046900010F801BF0EF801CF0133C3EB010C9C45AC
:1046A00002F801B9F2DC85E4306809F0B7FD3AE6BA
:1046B000386809F0B3FD36E6049B186809F0AEFDD2
:1046C00031E6109A0593591C002001920BF01AFD57
:1046D000834660B11699059B14901593019A01B910
:1046E00001701146584616930BF0C6FBB5E51498B9
:1046F00018B10BF0FFFCCDF850B015951695ACE550
:10470000029B186809F08AFD0DE6511C00200593F4
:1047100001920BF0F7FC834668B11299019A109050
:104720001192059B01B901701946584612920BF07F
:10473000A3FB149B85E5109818B10BF0DBFCCDF8BA
:1047400040B0149B119512957BE5039B186809F006
:1047500065FDE8E58DF841205CE58DF84120F8E441
:104760008DF84120FFF7E2BB8DF8412022E48DF85F
:10477000412064E48DF84120A6E4134B186809F049
:104780004DFDD0E58DF8422059E48DF842209BE4A0
:104790008DF84220DDE48DF84220FFF7C7BB8DF88D
:1047A000422037E58DF8422004E4084B186804F0F5
:1047B00093FA00287FF4FAADFFF7CABA069A1A6096
:1047C0001346FFF7C9B900BF3C1AFF1F8019FF1F2E
:1047D0002DE9F04FDE4DDFF8FCA3DE4FDFF8F88364
:1047E000DD4C87B05146284605F096FC3A464146D6
:1047F00028460AF0B5FBD94902A805F08DFC2946E8
:1048000002A805F047FC05F110090146484605F0ED
:1048100057FC02A805F0B6FA3A464146484605F16B
:1048200020090AF09DFB4846CD4905F075FC3A4643
:104830004146484605F130090AF092FB09F082F83A
:104840005146484605F068FC3A46414648460AF05B
:1048500087FBC24902A805F05FFC494602A805F0A3
:1048600019FC05F140090146484605F029FC02A85B
:1048700005F088FA3A464146484605F150090AF0E3
:104880006FFB4846B64905F047FC3A464146484664
:1048900005F160090AF064FB09F054F851464846F6
:1048A00005F03AFC3A46414648460AF059FBAB4906
:1048B00002A805F031FC494602A805F0EBFB05F122
:1048C00070090146484605F0FBFB02A805F05AFABC
:1048D0003A464146484605F180090AF041FB484600
:1048E0009F4905F019FC3A464146484605F19009B2
:1048F0000AF036FB09F026F85146484605F00CFC54
:104900003A46414648460AF02BFB944902A805F076
:1049100003FC494602A805F0BDFB05F1A0090146CC
:10492000484605F0CDFB02A805F02CFA3A46414670
:10493000484605F1B0090AF013FB4846884905F0DE
:10494000EBFB3A464146484605F1C0090AF008FB30
:104950005146484605F0E0FB3A46414648460AF0D3
:10496000FFFA7E4902A805F0D7FB494602A805F0E8
:1049700091FB05F1D0090146484605F0A1FB02A8CC
:1049800005F000FA3A464146484605F1E0090AF0CA
:10499000E7FA4846724905F0BFFB3A4641464846A9
:1049A00005F1F0090AF0DCFA08F0CCFF5146484660
:1049B00005F0B2FB3A46414648460AF0D1FA67494B
:1049C00002A805F0A9FB494602A805F063FB05F51E
:1049D00080790146484605F073FB02A805F0D2F93C
:1049E0003A464146484605F588790AF0B9FA5C49E5
:1049F000484605F091FB3A464146484605F5907910
:104A00000AF0AEFA4846574905F086FB3A46414659
:104A1000484605F598790AF0A3FA4846524905F048
:104A20007BFB3A464146484605F5A0790AF098FADC
:104A300048464E4905F070FB3A464146484605F562
:104A4000A8790AF08DFA4846494905F065FB3A46CF
:104A5000414648460AF084FA05F5B070454905F02C
:104A60005BFB05F5B870444905F056FB05F5C070D1
:104A7000424905F051FB05F5C870414905F04CFB72
:104A800005F5D0703F4905F047FB05F5D8703E4964
:104A900005F042FB05F5E0703C4905F03DFB05F5EE
:104AA000E8703B4905F038FB05F5F070394905F031
:104AB00033FB05F5F870384905F02EFB05F500705D
:104AC000364905F029FB05F50470354905F024FB4E
:104AD00005F50870334905F01FFB05F50C703249E8
:104AE00005F01AFB05F51070304905F015FB05F5CA
:104AF00014702F4905F010FB05F518702D4905F0CD
:104B00000BFB05F51C702C4905F006FB05F5207024
:104B10002A4905F001FB05F52470294905F0FCFA46
:104B200005F52870274905F0F7FA05F52C70264998
:104B300005F0F2FA05F53070244905F0EDFA05F5B7
:104B40003470234905F0E8FA05F5387046E000BFF7
:104B5000781BFF1F080CFF1F702CFF1FB8170100E8
:104B6000C8170100DC170100EC170100FC17010059
:104B70000C1801001C180100201801002818010061
:104B80002C18010034180100381801003C180100ED
:104B90004418010048180100501801005418010081
:104BA0005C18010060180100641801006818010019
:104BB0006C180100701801007418010078180100C9
:104BC0007C18010080180100841801008818010079
:104BD0008C180100B0170100859D0000D34905F035
:104BE0009BFA05F53C70D24905F096FA05F5407040
:104BF000D04905F091FA05F54470CF4905F08CFADB
:104C000005F54870CD4905F087FA05F54C70CC499B
:104C100005F082FA05F55070CA4905F07DFA05F5F0
:104C20005470C94905F078FA05F55870C74905F080
:104C300073FA05F55C70C64905F06EFA05F560700B
:104C4000C44905F069FA05F56470C34905F064FAD2
:104C500005F56870C14905F05FFA05F56C70C0494B
:104C600005F05AFA05F57070BE4905F055FA05F5DC
:104C70007470BD4905F050FA05F57870BB4905F030
:104C80004BFA05F57C70BA4905F046FA05F58060E7
:104C9000B84905F041FA05F58260B74905F03CFADC
:104CA00005F58460B54905F037FA05F58660B44925
:104CB00005F032FA05F58860B24905F02DFA05F5E0
:104CC0008A60B14905F028FA05F58C60AF4905F016
:104CD00023FA05F58E60AE4905F01EFA05F59060E1
:104CE000AC4905F019FA05F59260AB4905F014FAE4
:104CF00005F59460A94905F00FFA05F59660A849F5
:104D000005F00AFA05F59860A64905F005FA05F5DB
:104D10009A60A54905F000FA05F59C60A34905F0E5
:104D2000FBF905F59E60A24905F0F6F905F5A060CE
:104D3000A04905F0F1F905F5A2609F4905F0ECF9ED
:104D400005F5A4609D4905F0E7F905F5A6609C49C5
:104D500005F0E2F905F5A8609A4905F0DDF905F5D9
:104D6000AA60994905F0D8F905F5AC60974905F0B6
:104D7000D3F905F5AE60964905F0CEF905F5B060BA
:104D8000944905F0C9F905F5B260934905F0C4F9F5
:104D900005F5B460914905F0BFF905F5B660904995
:104DA00005F0BAF905F5B8608E4905F0B5F905F5D5
:104DB000BA608D4905F0B0F905F5BC608B4905F086
:104DC000ABF905F5BE608A4905F0A6F905F5C060A6
:104DD000884905F0A1F905F5C260874905F09CF9FD
:104DE00005F5C460854905F097F905F5C660844965
:104DF00005F092F905F5C860824905F08DF905F5D1
:104E0000CA60814905F088F905F5CC607F4905F055
:104E100083F905F5CE607E4905F07EF905F5D06091
:104E20007C4905F079F905F5D2607B4905F074F904
:104E300005F5D460794905F06FF905F5D660784934
:104E400005F06AF905F5D860764905F065F905F5CC
:104E5000DA60754905F060F905F5DC60734905F025
:104E60005BF905F5DE60724905F056F905F5E0607D
:104E7000704905F051F905F5E2606F4905F04CF90C
:104E800005F5E4606D4905F047F905F5E6606C4904
:104E900005F042F905F5E8606A4905F03DF905F5C8
:104EA000EA60694905F038F905F5EC60674905F0F5
:104EB00033F905F5EE60664905F02EF905F5F06069
:104EC000644905F029F905F5F260634905F024F914
:104ED00005F5F460614905F01FF905F5F6606049D4
:104EE00005F01AF905F5F8605E4905F015F905F5C4
:104EF000FA605D4905F010F905F5FC605B4905F0C5
:104F00000BF905F5FE605A4905F006F905F5006054
:104F1000584905F001F905F50160574905F0FCF81D
:104F200005F50260554905F0F7F8A9E09018010071
:104F300094180100981801009C180100A0180100A5
:104F4000A4180100A8180100AC180100B018010055
:104F5000B4180100B8180100BC180100C018010005
:104F6000C4180100C8180100CC180100D0180100B5
:104F7000D4180100D8180100DC180100E018010065
:104F8000E4180100E8180100EC180100F018010015
:104F9000F4180100F8180100FC18010000190100C4
:104FA00004190100081901000C1901001019010071
:104FB00014190100181901001C1901002019010021
:104FC00024190100281901002C19010030190100D1
:104FD00034190100381901003C1901004019010081
:104FE00044190100481901004C1901005019010031
:104FF00054190100581901005C19010060190100E1
:1050000064190100681901006C1901007019010090
:1050100074190100781901007C1901008019010040
:1050200084190100881901008C19010090190100F0
:1050300094190100981901009C190100A0190100A0
:10504000A4190100A8190100AC190100B019010050
:10505000B4190100B8190100BC190100C019010000
:10506000C4190100C8190100CC190100D0190100B0
:10507000D4190100D8190100DC190100E019010060
:1050800005F50360D34905F047F805F50460D249FA
:1050900005F042F805F50560D04905F03DF805F545
:1050A0000660CF4905F038F805F50760CD4905F0F1
:1050B00033F805F50860CC4905F02EF805F50960D0
:1050C000CA4905F029F805F50A60C94905F024F830
:1050D00005F50B60C74905F01FF805F50C60C649DA
:1050E00005F01AF805F50D60C44905F015F805F549
:1050F0000E60C34905F010F805F50F60C14905F0D1
:105100000BF805F51060C04905F006F805F51160CB
:10511000BE4905F001F805F51260BD4904F0FCFF39
:1051200005F51360BB4904F0F7FF05F51460BA49B3
:1051300004F0F2FF05F51560B8493E4604F0ECFFB7
:105140003A46B74905F51667002009F009FF3846C9
:10515000B449B54F04F0E0FF05F51760B34904F01A
:10516000DBFF05F51860B24904F0D6FF05F51960BC
:10517000B04904F0D1FF05F51A60AF4904F0CCFF47
:1051800005F51B60AD4904F0C7FF05F51C60AC498F
:1051900004F0C2FF05F51D60AA4904F0BDFF05F546
:1051A0001E60A94904F0B8FF05F51F60A74904F087
:1051B000B3FF05F52060A64904F0AEFF05F52160B8
:1051C000A44904F0A9FF05F52260A34904F0A4FF57
:1051D00005F52360A14904F09FFF05F52460A0496F
:1051E00004F09AFF05F525609E4904F095FF05F54A
:1051F00026609D4904F090FF05F527609B4904F067
:105200008BFF05F528609A4904F086FF05F52960B3
:10521000984904F081FF05F52A60974905F52C6946
:1052200004F07AFF05F52B60944904F075FF4846B9
:10523000934904F071FF05F52D60924904F06CFF6D
:1052400005F52E60904904F067FF05F52F608F4942
:1052500004F062FF05F530608D4904F05DFF05F54F
:1052600031608C4904F058FF05F532608A4904F03A
:1052700053FF05F53360894904F04EFF05F53460AE
:10528000874904F049FF05F53560864904F044FF7D
:1052900005F53660844904F03FFF05F53760834922
:1052A00004F03AFF05F53860814904F035FF05F553
:1052B0003960804904F030FF05F53A607E4904F01A
:1052C0002BFF05F53B607D4904F026FF05F53C60AA
:1052D0007B4904F021FF05F53D607A4904F01CFF8D
:1052E00005F53E60784904F017FF05F53F60774902
:1052F00004F012FF05F54060754904F00DFF05F557
:105300004160744904F008FF05F54260724904F0F9
:1053100003FF05F54360714904F0FEFE05F54460A6
:105320006F4904F0F9FE05F545606E4904F0F4FE9E
:1053300005F546606C4904F0EFFE05F547606B49E2
:1053400004F0EAFE05F54860694904F0E5FE05F55C
:105350004960684904F0E0FE05F54A60664904F0DA
:10536000DBFE05F54B60654904F0D6FE05F54C60A3
:10537000634904F0D1FE05F54D60624904F0CCFEAE
:1053800005F54E60604904F0C7FE05F54F605F49C2
:1053900004F0C2FE05F550605D4904F0BDFE05F560
:1053A00051605C4904F0B8FE05F552605A4904F0BA
:1053B000B3FE05F55360594904F0AEFE05F554609F
:1053C000574904F0A9FE05F55560564904F0A4FEBE
:1053D000AAE000BFE4190100E8190100EC1901007E
:1053E000F0190100F4190100F8190100FC1901007D
:1053F000001A0100041A0100081A01000C1A010029
:10540000101A0100141A0100181A01001C1A0100D8
:10541000201A0100241A0100281A01002C1A010088
:10542000D18B0000301A0100C8170100381A0100A2
:10543000441A01004C1A0100581A0100601A0100B8
:10544000681A0100741A01007C1A0100881A010010
:10545000901A01009C1A0100A41A0100AC1A010064
:10546000B41A0100BC1A0100C41A0100CC1A0100D0
:10547000D41A0100DC1A0100E41A0100EC1A010040
:10548000F41A0100FC1A0100041B01000C1B0100AE
:10549000141B01001C1B0100241B01002C1B01001C
:1054A000341B01003C1B0100441B01004C1B01008C
:1054B000541B01005C1B0100641B01006C1B0100FC
:1054C000741B01007C1B0100841B01008C1B01006C
:1054D000941B01009C1B0100A41B0100AC1B0100DC
:1054E000B41B0100BC1B0100C41B0100CC1B01004C
:1054F000D41B0100DC1B0100E41B0100EC1B0100BC
:10550000F41B0100FC1B0100041C01000C1C010029
:10551000141C01001C1C0100241C01002C1C010097
:10552000341C01003C1C010005F55660D94904F00B
:10553000F3FD05F55760D84904F0EEFD05F5586018
:10554000D64904F0E9FD05F55960D54904F0E4FDBC
:1055500005F55A60D34904F0DFFD05F55B60D249DB
:1055600004F0DAFD05F55C60D04904F0D5FD05F5E1
:105570005D60CF4904F0D0FD05F55E60CD4904F0D3
:10558000CBFD05F55F60CC4904F0C6FD05F5606014
:10559000CA4904F0C1FD05F56160C94904F0BCFDCC
:1055A00005F56260C74904F0B7FD05F56360C649BB
:1055B00004F0B2FD05F56460C44904F0ADFD05F5E5
:1055C0006560C34904F0A8FD05F56660C14904F0B3
:1055D000A3FD05F56760C04904F09EFD05F5686010
:1055E000BE4904F099FD05F56960BD4904F094FDDC
:1055F00005F56A60BB4904F08FFD05F56B60BA499B
:1056000004F08AFD05F56C60B84904F085FD05F5E8
:105610006D60B74904F080FD05F56E60B54904F092
:105620007BFD05F56F60B44904F076FD05F570600B
:10563000B24904F071FD05F57160B14904F06CFDEB
:1056400005F57260AF4904F067FD05F57360AE497A
:1056500004F062FD05F57460AC4904F05DFD05F5EC
:105660007560AB4904F058FD05F57660A94904F072
:1056700053FD05F57760A84904F04EFD05F5786007
:10568000A64904F049FD05F57960A54904F044FDFB
:1056900005F57A60A34904F03FFD05F57B60A2495A
:1056A00004F03AFD09F5A060A04904F035FD09F5C4
:1056B000A2609F4904F030FD09F5A4609D4904F003
:1056C0002BFD09F5A6609C4904F026FD09F5A860AC
:1056D0009A4904F021FD09F5AA60994904F01CFDDE
:1056E00009F5AC60974904F017FD09F5AE609649DD
:1056F00004F012FD09F5B060944904F00DFD09F5C0
:10570000B260934904F008FD09F5B460914904F0D2
:1057100003FD09F5B660904904F0FEFC09F5B86098
:105720008E4904F0F9FC09F5BA608D4904F0F4FCE7
:1057300009F5BC608B4904F0EFFC09F5BE608A49AD
:1057400004F0EAFC09F5C060884904F0E5FC09F5BD
:10575000C260874904F0E0FC09F5C460854904F0A3
:10576000DBFC09F5C660844904F0D6FC09F5C86085
:10577000824904F0D1FC09F5CA60814904F0CCFCEF
:1057800009F5CC607F4904F0C7FC09F5CE607E497D
:1057900004F0C2FC09F5D0607C4904F0BDFC09F5B9
:1057A000D2607B4904F0B8FC04F1680532467949BF
:1057B0000020C34609F0D4FBDFF8DC8151462846BF
:1057C00004F0AAFC32465946284609F0C9FB414676
:1057D00002A804F0A1FC294602A804F05BFC04F135
:1057E00078050146284604F06BFC02A804F0CAFACA
:1057F00032465946284604F1880509F0B1FB39467E
:10580000284604F089FC32465946284604F198059A
:1058100009F0A6FB5146284604F07EFC3246594664
:10582000284609F09DFB414602A804F075FC294674
:1058300002A804F02FFC04F1A8050146284604F054
:105840003FFC02A804F09EFA32465946284604F16D
:10585000B80509F085FB3946284604F05DFC324660
:105860005946284604F1C80509F07AFB51462846F6
:1058700004F052FC32465946284609F071FB414675
:1058800002A804F049FC294602A804F003FC04F134
:10589000D80583E0441C01004C1C0100541C01008D
:1058A0005C1C0100641C01006C1C0100741C0100E4
:1058B0007C1C0100841C01008C1C0100941C010054
:1058C0009C1C0100A41C0100AC1C0100B41C0100C4
:1058D000BC1C0100C41C0100CC1C0100D41C010034
:1058E000DC1C0100E41C0100EC1C0100F41C0100A4
:1058F000FC1C0100041D01000C1D0100141D010011
:105900001C1D0100241D01002C1D0100341D01007F
:105910003C1D0100441D01004C1D0100541D0100EF
:105920005C1D0100641D01006C1D0100741D01005F
:105930007C1D0100841D01008C1D0100941D0100CF
:105940009C1D0100A41D0100AC1D0100B41D01003F
:10595000BC1D0100C41D0100CC1D0100D41D0100AF
:10596000DC1D0100E41D0100EC1D0100F41D01001F
:10597000FC1D0100041E01000C1E0100141E01008C
:105980001C1E0100241E01002C1E0100341E0100FB
:105990003C1E0100B58B0000B817010001462846E7
:1059A00004F08EFB02A804F0EDF932465946284671
:1059B00004F1E80509F0D4FA3946284604F0ACFBB6
:1059C00032465946284604F1F80509F0C9FA07F0AD
:1059D000B9FF5146284604F09FFB324659462846F7
:1059E00009F0BEFA414602A804F096FB294602A837
:1059F00004F050FB04F584750146284604F060FB72
:105A000002A804F0BFF932465946284604F58C75C1
:105A100009F0A6FA3946284604F07EFB324659467C
:105A2000284604F5947509F09BFA07F08BFF514660
:105A3000284604F071FB32465946284609F090FA90
:105A4000414602A804F068FB294602A804F022FBA4
:105A500004F59C750146284604F032FB02A804F0C8
:105A600091F932465946284604F5A47509F078FAAA
:105A70003946284604F050FB32465946284604F57C
:105A8000AC7509F06DFA07F05DFF07F05BFF51465A
:105A9000284604F041FB32465946284609F060FA90
:105AA000414602A804F038FB294602A804F0F2FAA5
:105AB00004F5B4750146284604F002FB02A804F080
:105AC00061F932465946284604F5BC7509F048FA92
:105AD0003946284604F020FB32465946284604F54C
