:10000000F8FF022099010000FDCE000001CE0000A3
:1000100001CE000001CE000001CE000001CE0000A4
:1000200001CE000001CE000001CE0000FDCE000098
:10003000FDCE000001CE0000C9690000B9690000D2
:10004000FDCE0000FDCE0000FDCE0000FDCE000084
:10005000FDCE0000FDCE0000FDCE0000FDCE000074
:10006000FDCE0000FDCE0000FDCE0000FDCE000064
:10007000FDCE0000FDCE0000FDCE0000FDCE000054
:10008000FDCE0000FDCE0000FDCE0000FDCE000044
:10009000FDCE0000FDCE0000FDCE0000FDCE000034
:1000A000359A0000299A0000FDCE0000FDCE000028
:1000B000FDCE0000FDCE0000FDCE0000F97C00006A
:1000C000FDCE0000217C0000FDCE0000857B0000FD
:1000D000FDCE0000E97A0000FDCE0000FDCE00005C
:1000E000FDCE0000FDCE0000FDCE0000FDCE0000E4
:1000F000FDCE0000FDCE0000FDCE0000FDCE0000D4
:10010000FDCE0000FDCE0000FDCE0000FDCE0000C3
:10011000FDCE0000C97E0000FDCE0000FDCE000037
:10012000FDCE0000FDCE0000FDCE0000FDCE0000A3
:10013000FDCE0000FDCE0000FDCE0000FDCE000093
:10014000FDCE0000FDCE00004D7A0000FDCE000087
:10015000B5790000FDCE0000FDCE0000FDCE000010
:10016000FDCE0000FDCE00001D9A0000FDCE000077
:10017000FDCE0000FDCE0000FDCE0000FDCE000053
:10018000FDCE0000FDCE0000FDCE0000FDCE000043
:10019000FDCE0000FDCE000008B55D4B4CF22052B4
:1001A0001A804DF628121A8000BF00BF102223F8D3
:1001B0000E2CA3F51F43DE3B4FF030621A60554A08
:1001C0009A60554ADA60554B4FF470021A60544AEF
:1001D000136813F4807304D152490B604FF4A85391
:1001E0001360514B1A78100703D51A7842F00802B1
:1001F0001A704E4B4E492A221A704E4A4E4B8B4271
:1002000004D252F8040F43F8040BF8E74B4B4C4967
:1002100000228B4202D243F8042BFAE749494A4AAA
:10022000002352F8230041F823000133662BF8D154
:10023000464B474A802103F8011B9342FBD1454BB3
:10024000404A1A60444B8A221A70A3F58053242234
:100250005A70A0221A709A799107FCD59A79D20621
:10026000FCD43E4A937903F00C03082B3B4BF9D1A5
:1002700003221A7146225A719A799406FCD5374A9C
:100280009179364B4806FBD5354A4FF082711160A3
:100290000921516020221A709A7902F00C020C2A6E
:1002A000FAD1304B304A1A60304B314A1A60002480
:1002B00007225C6043F8042C2E4AC3F80C2D62B66A
:1002C0000CF020FE174B1A68D1070AD52A4A2B4991
:1002D0001C60146042F8041C10221A60284A294944
:1002E0001160294A127852060ED52549254A086818
:1002F000904209D12048214C00221A60026040F847
:10030000044C102018600A600EF000FB01F04EFB58
:100310000E200540823F04000100002B88ED00E024
:1003200010D0034014D0034002D0074000E0074043
:10033000881DFF1F58940100080CFF1F881DFF1F18
:10034000C037FF1F0002FF1F0000000000E400E0B4
:1003500056E400E008ED00E0005006400040064092
:100360004480044004800440C010050014E000E014
:10037000BFD401000000202004D003401D8BA063E7
:100380001CE00340A5C3945A00F00740FFFFFFFFA5
:10039000FFFFFFFFFFFFFFFFFFFFFFFFFFFFFFFF6D
:1003A000FFFFFFFFFFFFFFFFFFFFFFFFFFFFFFFF5D
:1003B000FFFFFFFFFFFFFFFFFFFFFFFFFFFFFFFF4D
:1003C000FFFFFFFFFFFFFFFFFFFFFFFFFFFFFFFF3D
:1003D000FFFFFFFFFFFFFFFFFFFFFFFFFFFFFFFF2D
:1003E000FFFFFFFFFFFFFFFFFFFFFFFFFFFFFFFF1D
:1003F000FFFFFFFFFFFFFFFFFFFFFFFFFFFFFFFF0D
:10040000FFFFFFFFFFFFFFFFFFFFFFFFDEF9FFFF23
:1004100010B5054C237833B9044B13B10448AFF33E
:1004200000800123237010BD881DFF1F0000000005
:1004300054940100084B10B51BB108490848AFF3AC
:1004400000800848036803B910BD074B002BFBD0A0
:10045000BDE81040184700BF000000008C1DFF1FC2
:1004600054940100881DFF1F000000002DE9F04F8B
:10047000DFF88093DFF88083DFF880A399B0CE495E
:10048000CE4C0CA806F094FC0CA914A806F064FC51
:1004900014A80AF055FC149810F0D6F896200CF029
:1004A000C1FED9F800000DF077FED8F800000DF07D
:1004B00073FEC34B18680DF06FFEC24B18680DF049
:1004C0006BFE266830460DF067FEBF4B18680DF0D6
:1004D00063FED9F800301B689A7B1AB11B7B002B96
:1004E00000F07C82D8F800301B689A7B1AB11B7B25
:1004F000002B00F04B86B24B18680DF045FE054608
:10050000002840F09B86AF4B18680DF03DFE044676
:10051000002801F02480AD4B0493AD4B0293AD4E07
:10052000AD4BAE4F039310AC2322AD49149514A8E4
:1005300015958DF85C50169506F0AAFB33689B68FC
:10054000002BC1F22A80AAFB0312D20802EB82011F
:10055000A3EB410330338DF840301346002A01F0FD
:10056000E6812046A6460021AAFB03C2D20802EB80
:10057000820CA3EB4C0330330EF8013F01311346DC
:10058000002AF1D10DF1600E8E4463180EF81F2C75
:1005900093F800E090F800C000F801EB0132C2EBE4
:1005A000010E724503F801C9F2DB20460FF088F90D
:1005B0002146024614A806F06BFB0F22894914A8B5
:1005C00006F066FB3B689B68002BC1F20F81AAFB1B
:1005D0000312D20802EB8201A3EB410330338DF802
:1005E00040301346002A01F0A6812046A64600218D
:1005F000AAFB03C2D20802EB820CA3EB4C033033FC
:100600000EF8013F01311346002AF1D10DF1600EC1
:100610008E4463180EF81F2C93F800E090F800C089
:1006200000F801EB0132C2EB010E964503F801C957
:10063000F2DC20460FF044F92146024614A806F0E9
:1006400027FB0F22684914A806F022FB049B1B68B5
:100650009B68002BC1F28980AAFB0312D20802EB2F
:100660008201A3EB410330338DF840301346002A5A
:1006700001F065812046A6460021AAFB03C2D208EC
:1006800002EB820CA3EB4C0330330EF8013F013137
:100690001346002AF1D10DF1600E8E4463180EF856
:1006A0001F2C93F800E090F800C000F801EB013235
:1006B000C2EB010E724503F801C9F2DB20460FF0D0
:1006C000FFF82146024614A806F0E2FA0F22474935
:1006D00014A806F0DDFA029B1B689B68002BC1F290
:1006E0000A80AAFB0312D20802EB8201A3EB4103AA
:1006F00030338DF840301346002A01F02481204623
:10070000A6460021AAFB03C2D20802EB820CA3EB8F
:100710004C0330330EF8013F01311346002AF1D16A
:100720000DF1600E8E4463180EF81F2C93F800E054
:1007300090F800C000F801EB0132C2EB010E7245E7
:1007400003F801C9F2DB20460FF0BAF82146024651
:1007500014A806F09DFA0F22254914A806F098FA6D
:10076000039B1B689B68002BC0F28B87AAFB0312BC
:10077000D20802EB8201A3EB410330338DF8403005
:100780001346002A01F0CF802046A6460021AAFB8E
:1007900003C2D20802EB820CA3EB4C0330330EF8F9
:1007A000013F01311346002AF1D10DF1600E8E4454
:1007B00063180EF81F2C23E0D0060100A41DFF1FB4
:1007C000B81DFF1FBC1DFF1FC01DFF1FDC1DFF1F2D
:1007D000E01DFF1FD41DFF1F201EFF1FD81DFF1F80
:1007E0001C080100C0070100D0070100E00701005C
:1007F000F0070100B01DFF1FB41DFF1FCDCCCCCCF6
:1008000093F800E090F800C000F801EB0132C2EB71
:10081000010E724503F801C9F2DB20460FF050F8D3
:100820002146024614A806F033FA0F22644914A8A0
:1008300006F02EFA634B1B689B68002BC0F2E7861C
:10084000AAFB0312D20802EB8201A3EB410330336F
:100850008DF840301346002A01F061802046A646FC
:100860000021AAFB03C2D20802EB820CA3EB4C03CB
:1008700030330EF8013F01311346002AF1D10DF15A
:10088000600E8E4463180EF81F2C93F800E090F869
:1008900000C000F801EB0132C2EB010E724503F813
:1008A00001C9F2DB20460FF00BF82146024614A8DE
:1008B00006F0EEF91322444914A806F0E9F9169A55
:1008C0001095119512958DF84C50149B002A40F00C
:1008D000FE8718460FF0B8FE129B149515951695D5
:1008E0008DF85C50002B40F0CB8714A80AF028FA52
:1008F00014980FF0A9FE96200CF094FCD9F8000093
:100900000DF04AFCD8F800000DF046FC2F4B18689B
:100910000DF042FC2E4B18680DF03EFC2D4BD3F829
:1009200000B058460DF038FC2A4B5A680192104628
:100930000DF032FC284B18680DF02EFCD9F8003071
:10094000019A1B68997B19B11B7B002B00F08887EB
:10095000D8F800301B68997B19B11B7B002B00F085
:1009600084871A4B1B681B68997B19B11B7B002B72
:1009700000F08087164B1B681B68997B19B11B7BA5
:10098000002B00F09E87DBF80030997B19B11B7BB0
:10099000002B00F0BE8713689A7B1AB11B7B002BDB
:1009A00000F0D5870C4B1B681B689A7B1AB11B7B28
:1009B000002B00F0048510980FF046FEB4E500BF50
:1009C00040080100341EFF1F400B0100B81DFF1F2F
:1009D000BC1DFF1FA41DFF1FC01DFF1F012323728D
:1009E0000C9810AD0FF030FE2846B14906F0E0F942
:1009F000B04B1B7A002B00F0A585AF49284606F0C6
:100A00009DF94823039343234FF0540A4F27029341
:100A1000AA4CAB49DFF8E4B214A806F0C9F93B01CF
:100A2000E218E158926814A806F032F9A54914A812
:100A300006F06EF94FEA0A13E218E158926806468A
:100A400006F026F93046A04906F062F9029B1B0128
:100A5000E218E1589268064606F01AF930469B49BA
:100A600006F056F9039B1B01E218E158926806460E
:100A700006F00EF93046964906F04AF90346284634
:100A800019689A6806F004F914A805F0B9FF294618
:100A900014A806F061F914A80AF052F914A805F098
:100AA000AFFF96200CF0BEFBD9F8006030460DF089
:100AB00073FBD8F800000DF06FFB864B18680DF043
:100AC0006BFB854B18680DF067FBDBF800000DF041
:100AD00063FBD9F8006033689A7B0AB11B7B33B1A2
:100AE000DBF800000DF050FB002800F027837B4B63
:100AF00001931B681F60284605F082FF6D4B784903
:100B00001B7A002B0BBF2B2330233222372214A851
:100B10000BBF37273C273E2643260393029206F05D
:100B200047F901990B681B681B01E218E1589268AC
:100B300014A806F0ADF86B4914A806F0E9F83301E3
:100B4000E218E1589268824606F0A2F850465D49E4
:100B500006F0DEF83B01E218E1589268824606F0A2
:100B600097F85046584906F0D3F8029A1301E21854
:100B7000E1589268824606F08BF85046534906F0D9
:100B8000C7F8039B1B01E218E1589268824606F001
:100B90007FF85046544906F0BBF80146284606F057
:100BA000DBF814A805F02CFF294614A806F0D4F8A9
:100BB00014A80AF0C5F814A805F022FF96200CF03E
:100BC00031FBD9F800A050460DF0E6FAD8F8000045
:100BD0000DF0E2FA3F4B18680DF0DEFA3E4B186854
:100BE0000DF0DAFADBF800000DF0D6FAD9F800A023
:100BF000DAF800309A7B0AB11B7B33B1DBF80000D6
:100C00000DF0C2FA002800F0A582DFF8F4A0DAF8AF
:100C100000301E60284605F0F3FE264B33491B7A50
:100C2000002B0BBF3E234323372630260BBF322237
:100C300037224FF02B0E4FF0240E1F4608930496D8
:100C40000BBF43233C2326262B2614A8CDF808E00F
:100C500007930692039606F0ABF8019803681B68A9
:100C60001B01E218E158926814A806F011F8204917
:100C700014A806F04DF8DAF800301B681B01E218E2
:100C8000E1589268064606F003F83046194906F026
:100C90003FF8029B1B01E218E1589268064605F0F6
:100CA000F7FF3046144906F033F803992AE000BFF5
:100CB000540B0100A41DFF1F50080100CC20FF1F92
:100CC00070080100A4080100B0080100BC08010080
:100CD000C8080100B81DFF1FBC1DFF1FD41DFF1F4A
:100CE000140901002809010060090100C009010080
:100CF000D0090100D4090100F40901000C1EFF1FF6
:100D0000D81DFF1F0B01E218E1589268064605F056
:100D1000BFFF3046B24905F0FBFF04990B01E21812
:100D2000E1589268064605F0B3FF3046AD4905F03C
:100D3000EFFF069A1301E218E1589268064605F0A3
:100D4000A7FF3046A84905F0E3FF079B1B01E21807
:100D5000E1589268064605F09BFF3046A34905F02E
:100D6000D7FF3B01E218E1589268064605F090FF74
:100D700030469F4905F0CCFF0146284605F0ECFFC0
:100D800014A805F03DFE294614A805F0E5FF14A8B7
:100D900009F0D6FF14A805F033FE96200CF042FAB5
:100DA000944BD9F800701E685B68059338460DF0C7
:100DB000F3F9D8F800000DF0EFF98F4B18680DF03B
:100DC000EBF98E4B18680DF0E7F930460DF0E4F9B9
:100DD00005980DF0E1F9DBF800000DF0DDF9D9F828
:100DE00000703B689A7B1AB11B7B002B00F0C98115
:100DF000D8F800000DF0C8F9002800F0CA81804E34
:100E0000039A33681A60284605F0FAFD794B7D4A4B
:100E10001B7A0992002B0BBF37273C274FF0430E5C
:100E20004FF0480E0BBF322337232B223022CDF850
:100E300008E0049707BF4FF03E0E4A274F274FF0B8
:100E4000430E7149CDF814E014A807930692039756
:100E500005F0AEFF019803681B681B01E218E1581A
:100E6000926814A805F014FF684914A805F050FF13
:100E7000DAF800301B681B01E218E1589268074657
:100E800005F006FF3846624905F042FF33681B68EB
:100E90001B01E218E1589268074605F0F9FE384652
:100EA0005C4905F035FF029B1B01E218E15892688E
:100EB000074605F0EDFE3846574905F029FF03992E
:100EC0000B01E218E1589268074605F0E1FE38464A
:100ED000434905F01DFF04990B01E218E15892689F
:100EE000074605F0D5FE38464C4905F011FF059937
:100EF0000B01E218E1589268074605F0C9FE384632
:100F0000394905F005FF069A1301E218E158926885
:100F1000074605F0BDFE3846344905F0F9FE079B4B
:100F20001B01E218E1589268074605F0B1FE384609
:100F30003B493C4F05F0ECFE0146284605F00CFF0E
:100F400014A805F05DFD294614A805F005FF14A8B6
:100F500009F0F6FE14A805F053FD96200CF062F996
:100F6000244BD9F800201B680893224B0B945B6834
:100F70000A93144620460DF00FF9D8F800000DF042
:100F80000BF91D4B18680DF007F91C4B18680DF094
:100F900003F908980DF000F90A980DF0FDF8DBF858
:100FA00000000DF0F9F8D9F800402368997B09B1E9
:100FB0001B7B33B1DBF800000DF0E6F8002800F0F1
:100FC000D480099B029A1B681A60134601210C3BCE
:100FD0003E2BFCDC386803600029CBD024E000BF46
:100FE000B0080100000A01000C0A0100180A010003
:100FF000C8080100A41DFF1FB81DFF1FBC1DFF1F57
:10100000DC1DFF1FE01DFF1FC0090100D00901000A
:10101000240A0100300A0100A4080100BC080100F4
:10102000580A0100201EFF1F28460B9C05F0E8FC13
:10103000774914A805F0BCFE019B1B681B681B01C7
:10104000E218E158926814A805F022FE714914A82C
:1010500005F05EFEDAF800301B681B01E218E1586B
:101060009268074605F014FE38466B4905F050FEBD
:1010700033681B681B01E218E1589268074605F0C7
:1010800007FE6649384605F043FE099B1B681B684E
:101090001B01E218E1589268064605F0F9FD30465A
:1010A0005F4905F035FE0146284605F055FE14A8B7
:1010B00005F0A6FC294614A805F04EFE14A809F078
:1010C0003FFE14A805F09CFC96200CF0ABF8D9F874
:1010D000006030460DF060F8D8F800000DF05CF8C4
:1010E000DBF800000DF058F84E4B18680DF054F87E
:1010F000DBF800301B689A7B1AB11B7B002B00F0D9
:10110000AA81D9F8006030460DF03EF8044630B1AF
:10111000284605F075FC204619B0BDE8F08F414B1C
:101120001B681B689A7B12B11B7B002BF0D0D8F890
:1011300000000DF029F80028EAD1CAE7D8F800002D
:101140000DF022F800283ED0374B01931B68C3F8FE
:1011500000A0D0E4D8F800000DF016F828B3DFF8AE
:10116000D8A0DAF800301F6054E5D8F800000DF080
:101170000BF8002834D0099B039A1B681A601346A9
:1011800024E72A4E029A33681A603CE6284A137212
:1011900026E4284B18680CF0F7FF002800F0A9811E
:1011A000224E049A33681A602DE6224B18680CF020
:1011B000EBFF002800F05181DFF87CA0029ADAF8FA
:1011C00000301A6026E51B4B18680CF0DDFF002884
:1011D00000F05281144B01931B68029A1A608AE452
:1011E000144B18680CF0D0FF002800F07381099BA5
:1011F000049A1B681A601346012100E00C33312B5E
:10120000FCDD3868036000293FF4B4AE0CE700BF92
:101210008C0A0100B40A0100CC0A0100E40A0100B2
:10122000FC0A0100C01DFF1FD41DFF1FDC1DFF1F96
:10123000A41DFF1FB81DFF1FD81DFF1F954A964B09
:10124000029210AC954A964E964D974F0392049495
:101250009B46964914A805F0ABFD33681B681B013B
:10126000EA18E958926814A805F012FD0F22904977
:1012700014A805F00DFD3B681B681B01EA18E9582E
:10128000926814A805F004FD0F228A4914A805F0FD
:10129000FFFCDBF800301B681B01EA18E958926874
:1012A00014A805F0F5FC0F22834914A805F0F0FC02
:1012B000029B1B681B681B01EA18E958926814A876
:1012C00005F0E6FC0F227D4914A805F0E1FC039B24
:1012D0001B681B681B01EA18E958926814A805F0FE
:1012E000D7FC1922764914A805F0D2FC14A9049859
:1012F00005F032FD14980FF0A7F9129C002014900D
:10130000159016908DF85C00002C7ED114A809F081
:1013100017FD14980FF098F996200BF083FFD9F879
:1013200000000CF039FFD8F800000CF035FF654BD9
:1013300018680CF031FF644B18680CF02DFF634BFC
:101340001C6820460CF028FF604B5A68019210463A
:101350000CF022FF5E4B18680CF01EFFD9F800302D
:10136000019A1B68997B11B11B7B002B37D0D8F8F1
:1013700000301B68997B11B11B7B002B36D0514B81
:101380001B681B68997B11B11B7B002B35D04E4B22
:101390001B681B68997B11B11B7B002B53D0236802
:1013A000997B09B11B7B93B113689A7B0AB11B7BB4
:1013B00023B1474B18680CF0E7FE60B1049C20464F
:1013C00005F01EFB0C980FF03FF9FFF758B8039B90
:1013D00018680DF05FF910980FF036F939E73068AA
:1013E0000DF058F910980FF02FF932E738680DF02A
:1013F00051F910980FF028F92BE7DBF800000DF0F9
:1014000049F910980FF020F923E7109A0192611C16
:101410000FF022F9034658B1169914901594019AC9
:1014200001B901701146184616940EF0E9F96DE7FE
:101430000190149818B10FF007F9019B1493002341
:101440001593169362E7029B18680DF023F9109824
:101450000FF0FAF8FDE601245AE61B4B18680CF071
:1014600093FE00283FF4AFABDFF83CA0039ADAF814
:1014700000301A60FFF7CEBB134B18680CF084FEE7
:1014800000283FF413AB064B01931B68039A1A60C4
:10149000FFF731BBE01DFF1FDC1DFF1F201EFF1FDC
:1014A000D41DFF1FCC20FF1FD81DFF1F8407010084
:1014B000C0070100D0070100E0070100F0070100AC
:1014C00000080100B81DFF1FBC1DFF1FA41DFF1F4A
:1014D000C01DFF1FC24B18680CF056FED0B1099B0F
:1014E000059A196813460A6001213E2B3FF76FAD3C
:1014F00085E6DBF800000CF047FE00287FF450AED4
:10150000B74B18680CF040FE98B1B64E069A336897
:101510001A6078E408980CF037FE68BB0A980CF063
:1015200033FE099B1B68002840F0378201461B6888
:10153000DBE730460CF028FE20B3AA4E079A33684A
:101540001A6060E4A849284605F0F8FB432303939A
:101550003E234FF04F0A4A270293FFF759BA30460D
:101560000CF012FE002800F010820CA805F048FADA
:10157000204619B0BDE8F08F099B069A1B681A60D7
:10158000134639E605980CF0FFFD00283FF40EAC39
:10159000944E089A33681A6035E45B42AAFB031242
:1015A000D20802EB8201A3EB410330332D218DF8E9
:1015B00041308DF840101346002A00F0DA810DF119
:1015C00041000021AAFB03E2D20802EB820EA3EB4A
:1015D0004E03303300F8013F01311346002AF1D1A8
:1015E0004A1C18A81044A64600F81F3C2244204676
:1015F00092F800C01EF801BF00F801CF0133C3EB21
:10160000010C634502F801B9F2DBFEF7CEBF5B4285
:10161000AAFB0312D20802EB8201A3EB4103303391
:101620002D218DF841308DF840101346002A00F02E
:10163000A4810DF141000021AAFB03E2D20802EBD4
:10164000820EA3EB4E03303300F8013F0131134605
:10165000002AF1D14A1C18A81044A64600F81F3CE5
:101660002244204692F800C01EF801BF00F801CFC6
:101670000133C3EB010C634502F801B9F2DBFFF75C
:1016800011B95B42AAFB0312D20802EB8201A3EB61
:10169000410330332D218DF841308DF84010134631
:1016A000002A00F062810DF141000021AAFB03E253
:1016B000D20802EB820EA3EB4E03303300F8013F59
:1016C00001311346002AF1D14A1C18A81044A6463D
:1016D00000F81F3C2244204692F800C01EF801BFCB
:1016E00000F801CF0133C3EB010C634502F801B9E7
:1016F000F2DBFFF792B85B42AAFB0312D20802EBBF
:101700008201A3EB410330332D218DF841308DF858
:1017100040101346002A00F024810DF14100002101
:10172000AAFB03E2D20802EB820EA3EB4E03303396
:1017300000F8013F01311346002AF1D14A1C18A8D4
:101740001044A64600F81F3C2244204692F800C0F0
:101750001EF801BF00F801CF0133C3EB010C634554
:1017600002F801B9F2DBFEF7EEBF5B42AAFB0312FF
:10177000D20802EB8201A3EB410330332D218DF817
:1017800041308DF840101346002A00F0E6800DF13C
:1017900041000021AAFB03E2D20802EB820EA3EB78
:1017A0004E03303300F8013F01311346002AF1D1D6
:1017B0004A1C18A81044A64600F81F3C22442046A4
:1017C00092F800C01EF801BF00F801CF0133C3EB4F
:1017D000010C9C4502F801B9F2DCFEF76FBF00BFB7
:1017E000BC1DFF1FDC1DFF1F600801005B42AAFB40
:1017F0000312D20802EB8201A3EB410330332D2107
:101800008DF841308DF840101346002A00F0B98061
:101810000DF141000021AAFB03E2D20802EB820E87
:10182000A3EB4E03303300F8013F01311346002A89
:10183000F1D14A1C18A81044A64600F81F3C2244C7
:10184000204692F800C010F801BF0EF801CF013316
:10185000C3EB010C9C4502F801B9F2DCFEF7E9BECE
:1018600030680BF039F9FFF7A6B838680BF034F997
:10187000FFF7A1B8049B18680BF02EF9FFF79BB88F
:10188000109A0593591C002001920EF0E5FE834644
:1018900068B11699059B14901593019A01B90170CE
:1018A0001146584616930DF0ABFFFFF71EB814987B
:1018B00018B10EF0C9FECDF850B015951695FFF78A
:1018C00014B8029B18680BF007F9FFF774B8511CA5
:1018D0000020059301920EF0BFFE834670B112996D
:1018E000019A10901192059B01B901701946584652
:1018F00012920DF085FF149BFEF7EBBF109818B104
:101900000EF0A2FECDF840B0149B11951295FEF793
:10191000E0BF039B18680BF0DFF8FFF74CB88DF8B9
:101920004120FEF7BFBF8DF84120FEF776BF8DF84E
:101930004120FEF73ABE8DF84120FEF77ABE8DF8C1
:101940004120FEF7BBBE8DF84120FEF7FCBE154BD3
:1019500018680BF0C1F8FFF72EB88DF84220FEF79B
:10196000ADBE8DF84220FEF7EEBE8DF84220FEF7A8
:1019700054BF8DF84220FEF718BE8DF84220FEF7C6
:1019800091BF8DF84220FEF754BE074B18680CF04B
:10199000FBFB00287FF4E9AD14E5079A1A601346B3
:1019A0002AE400BF341EFF1FC01DFF1F2DE9804821
:1019B000ABB002F08FFA0E4B0E4D1B78DFF83CA057
:1019C0000D4CDFF83CB0002B40F04E82D5F83C8047
:1019D00098E80C000026B242C8F8083088F80C607D
:1019E00088F80D60C8F8046024DD08F10C070DE0EC
:1019F0000C0CFF1FB01DFF1F010002404C32FF1FE7
:101A000000000240D8F80030B3420FDD57F8040F51
:101A10000CF0C2FB3B681A790136002AF2D09B68B1
:101A2000C8F80430D8F80030B342EFDCD8F80460CE
:101A3000D8F808309E4240F3C185012388F80C3065
:101A40006A6C2E641368597B3F2900F2C1859C485B
:101A500050F8311091F80012C9B2187B884200F09A
:101A6000848498481F68006811901198954EC01B97
:101A70005F68B842C0F0798430681090109E197386
:101A8000002001211E60986099731368997B29B129
:101A90001B7B1BB9537983F001035371AE6C8A4AE7
:101AA00006F5FC6393ED007AF2EE047AB4EEE77A81
:101AB000F1EE10FA00F10686002386F8F23786F878
:101AC000F03786F8F137286D0CF066FB686D0CF086
:101AD00063FBAE6D30460CF05FFBEB6D0893184670
:101AE0000CF05AFB2B69099318460CF055FBD5F8FE
:101AF000188040460CF050FBEF6938460CF04CFB68
:101B0000D5F8209048460CF047FB40460CF03CFBD3
:101B100020B1D8F80830012B00F0448438460CF08E
:101B200033FB18B1BB68012B00F03C8448460CF035
:101B30002BFB002840F03184089B1B79002B40F0E0
:101B4000638630460CF020FB002800F069846A6B45
:101B5000D5F888305C4902F1020E9E45C5F834E0A4
:101B600002DD00234B639E46AB6C574E93F8F23771
:101B7000002B00F05387286B0CF0EEF9E86A0CF0AC
:101B8000EBF9686A0CF0E8F9A86A0CF0E5F9D5F809
:101B900084000CF0E1F9AB6B296C686A19441022DF
:101BA0000CF04EFAAB6B296CA86A194410220CF0A9
:101BB00047FA0022A96BD5F884000CF041FA6B6B50
:101BC000A96B286B194400220CF03AFA6B6BA96BD5
:101BD000E86A194400220CF033FA6A6AAB6B1268A7
:101BE000286C69691344184409F05EFA286D364E72
:101BF0000CF0CAFA002800F02684AB6BAA6E324EB5
:101C0000934244DAB26C92F8F22703F1010EC6F85F
:101C100038E0002A00F08687286B0CF09DF9E86A0E
:101C20000CF09AF9686A0CF097F9A86A0CF094F92C
:101C3000D5F884000CF090F9AB6B296C686A1944F4
:101C400010220CF0FDF9AB6B296CA86A1944102224
:101C50000CF0F6F90022A96BD5F884000CF0F0F92D
:101C60006B6BA96B286B194400220CF0E9F96B6BC4
:101C7000A96BE86A194400220CF0E2F96A6AAB6BBE
:101C80001268286C69691344184409F00DFA686DEC
:101C90000D4E0CF079FA002800F08E86AA6BAB6E20
:101CA000094E1344002B4CDDB36C93F8F23702F16C
:101CB000FF3EC6F838E0002B00F0FD8606E000BFCE
:101CC000E49101005C33FF1FB01DFF1F286B0CF077
:101CD00043F9E86A0CF040F9686A0CF03DF9A86A2B
:101CE0000CF03AF9D5F884000CF036F9AB6B296C9E
:101CF000686A194410220CF0A3F9AB6B296CA86A2E
:101D0000194410220CF09CF90022A96BD5F884002C
:101D10000CF096F96B6BA96B286B194400220CF040
:101D20008FF96B6BA96BE86A194400220CF088F9F3
:101D30006A6AAB6B1268286C69691344184409F02D
:101D4000B3F9AE6930460CF01FFA002840F08D83DD
:101D5000EE6930460CF018FA002840F090832E6AA5
:101D600030460CF011FA002840F09383686C9C4ECA
:101D70004779002F00F096830CF006FAB36C002828
:101D800040F07B86EA6B117B002900F02087686AAF
:101D90000CF0E2F8A86A0CF0DFF8D5F884000CF03B
:101DA000DBF8AB6B296C686A194410220CF048F917
:101DB000AB6B296CA86A194410220CF041F900227F
:101DC000A96BD5F884000CF03BF96A6AAB6B12681A
:101DD000286C69691344184409F066F9AB6C93F8F0
:101DE000F827002A40F0958393F8F937002B40F04C
:101DF0009D837C4B5B78002B00F0A083686F7A4E4C
:101E0000002800F02582018843889A0800EB8202AE
:101E100004338B42976880F0E081438007F00F081D
:101E2000A8F10803062B00F2B581B8F1080FC7F33B
:101E3000033700F02E82B8F1090F00F02E82B8F1BE
:101E40000A0F40F02E820A2FDAD0EB6F6749644AFE
:101E500001338B4200F3CE83D3670AF04BFB614B17
:101E60001B78002B3FF4B2AD614915A804F0A0FF28
:101E700015A921A804F070FF21A808F061FF21989E
:101E80000EF0E2FB96200BF0CDF92E6830460CF0F8
:101E900083F96F6838460CF07FF9D5F80880404622
:101EA0000CF07AF9D5F80C9048460CF075F93368C7
:101EB0009A7B1AB11B7B002B00F0E2803B689A7B77
:101EC0001AB11B7B002B00F0FD81D8F800309A7B03
:101ED0001AB11B7B002B00F0CB8348460CF054F961
:101EE00018B915980EF0B0FBBEE7424919A804F0E6
:101EF0005FFF19A921A804F02FFF21A808F020FFF7
:101F000021980EF0A1FB96200BF08CF92F68384633
:101F10000CF042F96E6830460CF03EF9D5F80880B6
:101F200040460CF039F9D5F8109048460CF034F9D9
:101F30003B689A7B30461AB11B7B002B00F0BC84B7
:101F40000CF022F900285CD140460CF01DF948B98C
:101F500048460CF019F9064619980EF075FB002E4C
:101F6000C3D0BEE72449DFF878901DA804F020FF15
:101F70001DA921A804F0F0FE21A808F0E1FE219897
:101F80000EF062FB96200BF04DF92E6830460CF0F7
:101F900003F96F6838460CF0FFF8D5F8108040461A
:101FA0000CF0FAF833689A7B1AB11B7B002B00F017
:101FB000A1813B689A7B1AB11B7B002B00F05C83EC
:101FC00040460CF0E1F806461D980EF03DFB002E51
:101FD000C8D019980EF038FB15980EF035FB43E782
:101FE000B01DFF1F0C0CFF1F0837FF1FA08601004C
:101FF0008C0F010040100100FC1101001D980EF033
:1020000023FBB249DFF8E8821DA804F0D1FE1DA928
:1020100021A804F0A1FE21A808F092FE21980EF05C
:1020200013FB96200BF0FEF82E6830460CF0B4F847
:102030006F6838460CF0B0F8D5F8109048460CF0B0
:10204000ABF833689A7B12B11B7B002B60D03B68E6
:102050009A7B1AB11B7B002B00F06581D9F8003008
:102060009A7B002ACAD01E7B1D980EF0EDFA002E36
:10207000C7D119980EF0E8FA15980EF0E5FAF3E6D4
:1020800003F094FF064615980EF0DEFA002E3FF49A
:10209000EBAE64200BF09EF9686167200BF09AF9B3
:1020A000AB69EE69986068200BF094F9B060692024
:1020B0000BF090F92B6A986008F0AAFC844808F0AD
:1020C000ABFD05F1240608F05DFA40F2EE200BF0BE
:1020D000A9F896E8C0402B6B306893F810C03968B7
:1020E0001B68DEF80020CDF818C09EF810E0CDF88F
:1020F00014E03F7C0497367C6F6B039601970026B3
:10210000AF6B0296009709F08DFB724B1E705DE479
:102110002278C8F81430D00740F1BA836E4B1B7890
:1021200063B19BF8003013F0700318BF8BF80030D8
:10213000694B00221A702378DA07FCD54FF48062CD
:10214000002166480CF00AFC6549022001220023A8
:102150008AF816008AF8170021A8AAF81420AAF80D
:102160001220AAF80E30AAF8103004F021FE21A89F
:1021700008F056FC08F006FA40F2EE200BF052F898
:1021800021980EF061FA1D980EF05EFA19980EF083
:102190005BFAA6E6A8F10203012BC7F3072231D9A7
:1021A000B8F1050F2AD0B8F1040F00F07F82A8F132
:1021B0000503022B40F2EB83B8F10F0F7FF445AE1D
:1021C000F72A1FD8F02A04D0B5F87830002B3FF456
:1021D0003CAE104604F020FE37E604F02FFE72B647
:1021E000404B186938B1404B02881B894168316106
:1021F0009B1A3D4A138162B668670FE6F02A58D9E8
:10220000F72A56D0F13A0E2A3FF61FAE01A353F833
:1022100022F000BF011E0000011E0000011E000090
:102220004B1E00004B1E0000011E00004B1E000054
:10223000011E00004B1E0000011E0000011E0000D8
:10224000011E00004B1E0000011E0000011E0000C8
:10225000264B1B78002B3FF4F8AD72B6214B186962
:1022600038B1214B02881B89416831619B1A1E4A93
:10227000138162B61E4F686700283FF4E6AD0188FF
:1022800000297FF4C1AD884604F0D8FDC7F87480FA
:10229000DBE5082F7FF4D9ADB2E5092F7FF4D5AD8A
:1022A000AEE5B8F10B0F40F098840B2F7FF4CDAD65
:1022B000A6E5104604F0B0FD4FF00003A5F8783015
:1022C000686F9DE504F076FF0646DCE6101101001C
:1022D000600B01000C0CFF1F640000143811FF1F7D
:1022E000C41101000837FF1F1C37FF1F0437FF1FF1
:1022F000B01DFF1F227889F88030D20740F1B883E3
:10230000B54B1B78002B3FF43EAF9BF8003013F029
:10231000700318BF8BF80030AF4B00221A7023787F
:10232000DF07FCD52FE723780122D9076A6140F146
:10233000AB83AA4B1B78012B0CD09BF8003013F019
:10234000700318BF8BF80030A44B01221A70237859
:10235000DB07FCD54FF480620021A1480CF0FEFAA7
:102360000220012200239F49F2E69968002900F02B
:102370002B819D481F6800680F900F989A4EC01BD4
:10238000814200F221813168129112991960002076
:10239000012198609973FFF778BBD9F80830012BB9
:1023A0007FF4CAAB686A0BF0D7FDA86A0BF0D4FDC6
:1023B000D5F884000BF0D0FD286B0BF0CDFDE86A5A
:1023C0000BF0CAFD286F0BF0C7FD6B6C4FF00008D7
:1023D00083F8058000F01EFC2B6B6F6AD5F828E0AF
:1023E000EE6A93F810C0386832681B68DEF8001097
:1023F000CDF818C0367C05969EF8106004963E7C99
:1024000003966F6BAE6B0096CDF80880019709F0CC
:1024100009FAAE6D30460BF0B7FE00287FF497AB9B
:102420002A69724B1279002A3FF4E0AB186E0BF068
:10243000ABFE00287FF48BAB286D6C4E0BF0A4FE36
:1024400000287FF4DAAB33681B79002B40F01F8340
:10245000706D0BF099FE00287FF420ACAE69304619
:102460000BF092FE00283FF473AC30460BF03EF9BF
:10247000EE6930460BF088FE00283FF470AC304621
:102480000BF034F92E6A30460BF07EFE00283FF444
:102490006DAC30460BF02AF9686C544E4779002F2A
:1024A0007FF46AACB36C93F8F287B8F1000F00F0D8
:1024B0007C8193F8F027002A3FF464ACB36B316C55
:1024C000706A194410220BF0BBFDB36B316CB06A1B
:1024D000194410220BF0B4FD736BB16B306B1944CF
:1024E0003A460BF0ADFD736BB16BF06A19443A4696
:1024F0000BF0A6FD726AB36B1268306C71691344FD
:10250000184408F0D1FDB36C93F8F827002A3FF483
:102510006BAC6B6BA96B286F194400220BF090FD1C
:10252000AB6C93F8F937002B3FF463AC286F0BF0DA
:1025300013FD2F4B5B78002B7FF460AC6B6CDFF8E6
:10254000ACE05B79002B7FF459ACDEF8483093F8AF
:10255000F237002B7FF452AC234BDEF88C201B6843
:102560000C930C9B9B1AC82B7FF648AC0EF12406EB
:1025700096E8C010DEF83030396893F81080306883
:10258000DCF800201B68CDF818809CF810C0CDF84E
:1025900014C03F7C049796F810C0DEF83460DEF873
:1025A00040700196DEF838600297114F00960126C0
:1025B000CDF80CC07E7009F035F91FE4BCBF0123D3
:1025C00088F80D30FFF73CBA00219973FFF75DBA28
:1025D0000021FFF742BA00BF650000146400001438
:1025E0003811FF1FE01101005C33FF1FB01DFF1FFA
:1025F0000C0CFF1F00231621A748D36704F094FC9E
:10260000A64BA74A1B680B930B9B12689A1A00F003
:10261000CD81A44EA6FB0213DB0803EB8301A2EBE2
:10262000410230328DF8A520002B00F0CD8221210F
:10263000A6FB0302D20802EB82000139A3EB4003A0
:10264000C9B22AA80844303300F8243C1346002AB3
:10265000EED10846C1F1220121AB184404F064FC1C
:102660008E4B8F4A1B680A930A9B1360FFF7F5BBDA
:10267000FDF7FCFE064606E523780122DB0785F818
:10268000802040F17A82884B1B78012B3FF47BAD90
:102690009BF8003013F0700318BF8BF80030824BAA
:1026A00001221A702378DE07FCD56CE5104604F091
:1026B000B3FBC7F3074004F0AFFB380E04F0ACFBEC
:1026C000FFF7C3BB754BD6F8F4171B681393139B26
:1026D0000F697248D26CDB1BB3F57A7F40F2CB8175
:1026E000D2F8803000681B6B149014981B69086145
:1026F0001BB28B60D6F8E47707EE903A07EE107ABB
:10270000F8EEE77AB8EEC77AB4EEE77AF1EE10FAAF
:1027100040F33F82FA23C6F8FC3796F8FA37002BCD
:1027200040F02E82012386F8F837012386F8FA3725
:10273000D36FD6F8E827186B4FF42F730169013B6C
:1027400002FA81F2FAD106F5FB6EDEED007A574807
:10275000C6F8E83780FB0210FDEEE77AD117C1EB2F
:1027600020223A4417EE901A02EBD272C1EB6202B9
:10277000052AC6F8E427D6F8EC2740F32A8141F66B
:10278000B05302F6C4129A4240F32581C6F8EC37E2
:1027900096F8F237002B40F0BC81012386F8F03721
:1027A000012386F8F237FFF78EB90268917B11B1E9
:1027B000127B002A35D193F8F137002B3FF419AB87
:1027C000686A0BF0C9FBA86A0BF0C6FBD5F8840059
:1027D0000BF0C2FB286B0BF0BFFBE86A0BF0BCFBF5
:1027E000286F0BF0B9FB2D4B314A1B680D930D9BE5
:1027F000C5F88C30002353706B6CDFF8B8E05B7960
:10280000002B7FF4FBAAA0E6099B1B79002B7FF429
:10281000C9AD30460BF0B8FC00287FF498A9FFF74B
:10282000E5B9706A0BF098FBB06A0BF095FBD6F82F
:1028300084000BF091FB306B0BF08EFBF06A0BF019
:102840008BFB306F0BF088FB706A0BF05FFBB06A9C
:102850000BF05CFBD6F884000BF058FB306B0BF0F0
:1028600055FBF06A0BF052FB306F0BF04FFB0B4B3C
:102870000F4A1B680E930E9BC6F88C306B6C82F867
:1028800001805B79DFF82CE0002B7FF4B7AA5CE6CF
:102890000AF032FD42E400BF981201005C33FF1FD2
:1028A0006033FF1FCDCCCCCC6500001491739F5DCD
:1028B0000C0CFF1FB01DFF1F4FF0A0562378DB0745
:1028C00062D533785BB19BF8003013F0700318BF0A
:1028D0008BF80030002333702378DF07FCD5C94B19
:1028E00001369E42EAD1012166200AF04BFD01210A
:1028F00067200AF047FD022168200AF043FD6920A5
:1029000003210AF03FFD2378D80740F1FF80BE4B3A
:102910001B7863B19BF8003013F0700318BF8BF87D
:102920000030B94B00221A702378D907FCD54FF438
:1029300080620021B5480CF011F80220012200232A
:10294000B3498AF816008AF8170021A8AAF81420BB
:10295000AAF81220AAF80E30AAF8103004F028FACB
:1029600021A808F05DF807F00DFE40F2EE200AF015
:1029700059FC21980DF068FE19980DF065FE159828
:102980000DF062FEFFF770BA0AF0B6FC99E7104648
:1029900004F042FAC7F3074004F03EFAB8F1070F1B
:1029A0007FF48AAC380E04F037FA85E430238DF8D2
:1029B000A530012121204FE633681B79002B3FF41D
:1029C000C0A9E86E0BF0E0FB00287FF467A9FFF7D1
:1029D000B8B9C83A15D441F289339A42C6F8EC27FF
:1029E0003FF7D6AEB2F57A7FBFF66DA896F8F2370C
:1029F0006BB1012386F8F137002386F8F237FFF731
:102A000062B8C6F8EC3796F8F237002BF1D196F899
:102A1000F127002AF0D086F8F137EDE7736C5B7987
:102A2000002B7FF4A8A8336B776AD6F828C0D6F8B5
:102A30002C8093F810903868DCF80010D8F800204B
:102A40001B68CDF8189098F81080CDF814809CF889
:102A500010C0CDF810C097F810C0376C0297B66B55
:102A6000CDF80CC08DE8404008F0DCFEFFF7BEB8A2
:102A70000AF042FC44E48B683CE693F8F277002FBE
:102A80003FF41CADFFF77EB90AF036FC51E4706EDE
:102A90000BF07AFB00287FF4B0A8706D0BF074FB8C
:102AA00000287FF4FBA8E86E0BF06EFB00287FF493
:102AB000F5A8FFF746B9736C5B79002B7FF406A984
:102AC000336B776AD6F828C0D6F82C8093F810902C
:102AD0003868DCF80010D8F800201B68CDF8189092
:102AE00098F81080CDF814809CF810C0CDF810C074
:102AF00097F810C0376C0297766B0196CDF80CC032
:102B0000CDF800E008F08EFEFFF71BB90AF0F4FBE9
:102B1000FDE696F8F037002B3FF442AE002386F82E
:102B2000F0373DE6736C5B79002B7FF475A8336B4F
:102B3000776AD6F828C0D6F82C8093F810903868B9
:102B4000DCF80010D8F800201B68CDF8189098F831
:102B50001080CDF814809CF810C0CDF810C097F804
:102B600010C0376C0297766B0196CDF80CC0CDF88B
:102B700000E008F057FEFFF78AB80AF0BDFB82E5D7
:102B800096F8F837002B3FF4D0AD002386F8F837DD
:102B9000CBE5D6F8FC37002B05DD013BC6F8FC374A
:102BA000002B7FF4BAAD96F8FA3733B1012386F8DB
:102BB000F937002386F8FA37BAE596F8F9170029AD
:102BC000F7D086F8F937F4E70121212044E5527B5C
:102BD000002A7FF4DCA8FFF702B9B8F10C0F04D18A
:102BE0000C2F7FF432A9FFF70BB9B8F10D0F04D108
:102BF0000D2F7FF42AA9FFF703B90E2F7FF425A923
:102C0000FFF7FEB800100014650000143811FF1F14
:102C1000F41001002DE9F04F2DED048BDFF848B3DF
:102C2000DFF848A3DFEDB88A9FEDB89A9DB0B849A8
:102C300007A804F0BDF8B74B1B68002B00F0A78174
:102C4000012B01F09B80022B01F0B180032B01F0DE
:102C5000B480B04B5B68002B00F09481012B01F035
:102C60009A80022B01F09D8007A913A804F074F844
:102C700013A808F065F813980DF0E6FC96200AF00A
:102C8000D1FADBF800000BF087FADAF800000BF05D
:102C900083FAA14B18680BF07FFAA04B18680BF071
:102CA0007BFA9F4B18680BF077FA9E4B18680BF075
:102CB00073FA9D4B18680BF06FFA9C4B18680BF079
:102CC0006BFADBF800301B689A7B1AB11C7B002C76
:102CD00000F06281DAF800000BF056FA78B98E4BFA
:102CE00018680BF051FA002800F0DB81FDF7BEFBFD
:102CF000044607980DF0A8FC002C98D086E08C4D77
:102D00000FAC8C49204604F053F8214613A804F078
:102D100023F813A808F014F813980DF095FC9620EA
:102D20000AF080FADBF800000BF036FADAF800005F
:102D30000BF032FA784B18680BF02EFA774B1868C4
:102D40000BF02AFA774B18680BF026FADBF8003004
:102D50001B689A7B12B11B7B002B6BD0DAF800301A
:102D60001B689A7B1AB11B7B002B00F0BA806A4B60
:102D700018680BF009FA002800F0818128200AF079
:102D800029FB002841F0008028200AF01DFE0325C1
:102D90000F98694C0DF058FC4FF480620021674891
:102DA0000BF0DCFD664B0220012100229875D875DE
:102DB00099825982DA811A8204F1080614F8011BFB
:102DC0005F4806F05BFEB442F8D11CAE303506F821
:102DD000035D344614F8011B594806F04FFEC4F158
:102DE0000103DE42F6D1574C04F1090514F8011B2A
:102DF000534806F043FEAC42F8D107F0C3FB4FF452
:102E0000FA700AF00FFA07980DF01EFC4FF480627A
:102E100000214A480BF0A2FD4B4807F0FDFE07F0E9
:102E2000B1FB4FF4FA700AF0FDF91DB0BDEC048B54
:102E3000BDE8F08F2B78DB0740F19C804FF0A0536A
:102E40001B78002B57D1DFF82881404FD8F800308D
:102E50003F4E19783F4D404C00200AF093FA3B68F2
:102E6000012019780AF08EFA3368022019780AF0E6
:102E700089FA2B68032019780AF084FA2368042061
:102E800019780AF07FFA354B19680C31C9B2052060
:102E90000AF078FA324B062019780AF073FAD8F85B
:102EA00000300720197A0AF06DFA3B680820197A79
:102EB0000AF068FA33680920197A0AF063FA2B6875
:102EC0000A20197A0AF05EFA23680B20197A0AF0B0
:102ED00059FA244B1B680C20197A0AF053FA012581
:102EE00056E714200AF076FA002846D114200AF09A
:102EF0006BFD02254CE708F051FC0028A3D10F9888
:102F00000DF0A2FBFDE600BF000000000000FA4348
:102F1000FC160100641FFF1FB81DFF1FBC1DFF1F13
:102F2000A41DFF1FC01DFF1F0C1EFF1F101EFF1F33
:102F30000100024084180100B41601003811FF1F7F
:102F40004C32FF1FC0160100B4120100D81DFF1F34
:102F5000DC1DFF1FE01DFF1F201EFF1FE81DFF1FC0
:102F6000E41DFF1F341EFF1FB01DFF1FB41DFF1FF8
:102F7000D41DFF1F0AF0C0F960E708F00FFC00281D
:102F8000BDD0B3E7614907A803F0D8FE6CE66049FD
:102F900007A803F0D3FE5CE60FAE5E49304603F0AF
:102FA00007FF119D1394149415948DF85840002D2B
:102FB00046D113A807F0C4FE13980DF045FB9620E8
:102FC0000AF030F9DBF800000BF0E6F8DAF8000060
:102FD0000BF0E2F8504B18680BF0DEF84F4B186816
:102FE0000BF0DAF8DBF800301B689A7B0AB11B7B28
:102FF000CBB1DAF800301B689A7B0AB11B7BDBB1DE
:10300000454B1B681B689A7B0AB11B7B23B1434B62
:1030100018680BF0B9F870B3304603F0F1FC07986C
:103020000DF012FB03E602F0C1FF05460F980DF00C
:103030000BFB002DB1D0E6E604F0BCF80546F5E741
:10304000691C0020DDF83C800DF006FB074650B1FE
:10305000159B1390149503B9037041463846159596
:103060000CF0CEFBA5E7139810B10DF0EDFA139715
:10307000149415949DE70F980DF0E6FA8DE7284B10
:1030800018680BF081F8002800F0A4863C200AF0B4
:10309000A1F9002840F097863C200AF095FC042511
:1030A00076E61F4B18680BF06FF800285ED11D4BB9
:1030B00018680BF069F800287FF4A5AE174B186864
:1030C0000BF062F8044600287FF49DAE164B18689A
:1030D0000BF05AF80546002800F08886134B134A77
:1030E0001B68002B00F0C686012B00F0B986022B6E
:1030F00000F0AB86032B92D10D4A0E4B11681A6873
:1031000000230B7409490B60137488E7B41701009E
:1031100054170100FC170100B81DFF1FC01DFF1F41
:10312000BC1DFF1FA41DFF1F0C1EFF1F641FFF1FE0
:10313000DC1DFF1FE01DFF1F9D4B1B6803F5FC639B
:1031400093ED007AF2EE047AB4EEE77AF1EE10FA3B
:103150004CBF984898480BF0B1F807F013FA4FF4B9
:103160007A700AF05FF80B980DF06EFA93490BA88D
:1031700003F01EFE0BA913A803F0EEFD01229049F7
:1031800013A803F085FD159C139D002C40F02E84A0
:103190000B9B0BB11C70139D00230D9328460DF063
:1031A00053FA0BA913A803F0D7FD0122844913A8F1
:1031B00003F06EFD159C139D002C40F00C840B9BBE
:1031C0000BB11C70139D00230D9328460DF03CFAA3
:1031D0000BA913A803F0C0FD2D227A4913A803F010
:1031E00057FD159C139D002C40F0EB830B9B0BB1FE
:1031F0001C70139D00230D9328460DF025FA0BA992
:1032000013A803F0A9FD13A807F09AFD13980DF079
:103210001BFA96200AF006F8DBF800000AF0BCFF63
:10322000DAF800000AF0B8FF674B18680AF0B4FF3C
:10323000664B18680AF0B0FF654B18680AF0ACFFDF
:10324000644B18680AF0A8FFDBF800301B689A7B13
:1032500012B1187B00282CD0DAF800301B689A7B5A
:103260001AB11B7B002B3FF47EAF574B1B681B68CA
:103270009A7B1AB11B7B002B3FF475AF534B1B6835
:103280001B689A7B1AB11B7B002B00F0F884504B13
:103290001B681B689A7B0AB11B7B33B14D4B1868C6
:1032A0000AF072FF00283FF45EAF0BA803F0A8FB02
:1032B000B5E63F4B484E1F6807F5FB6307F5FC6218
:1032C00007F2DC79C3ED008A0493C9ED008A059208
:1032D0003C4607F5FA68C2ED008A3D4601E0D7F8A2
:1032E000D4073368DB6F1B6B1B691BB245F8043FC7
:1032F0000344C7F8D437022009F094FF4545EED1C6
:10330000D7F8D437D9F8005007EE903AF8EEE77ABC
:10331000049B87EE898A83ED008A54F8043F07EE08
:10332000903AF8EEE77A78EE677A17EE900A0CF0AA
:10333000FDFC02460B460CF04DFD064628460F46A6
:103340000CF0F4FC02460B46304639460CF090FB7C
:103350000CF0F0FFA0450546DFD107EE100AC7EEDE
:10336000097AC9F800001D4C1D4D274605F10A08D1
:1033700017EE900A0CF0DAFC41EC100B0DF02AF875
:1033800051EC100B0CF0D6FF059B4FF480621860D7
:10339000002114480BF0E2FA002302210122A1755A
:1033A000E175A2826282E381238299464DE000BFEB
:1033B000F81DFF1FAC190100B819010038190100F0
:1033C0005C0801007C190100B81DFF1FBC1DFF1F18
:1033D000A41DFF1FC01DFF1FFC1DFF1F4C32FF1F40
:1033E000CC1601003811FF1F0D2B2CD0027A93420E
:1033F00029D3817A994226D39A1A4668D2B206EB2B
:10340000C206B278CAB1F178B9B1797E002940F02C
:10341000C383B7F90E200492F87DB7F9102097F80E
:1034200016C00499B4F814E00390608ACDF808C07F
:103430008DE80140864808F0D7FD3179E389A27D07
:1034400001FB0233E381454511D0E06915F8013BEA
:10345000002800F093810A2BC6D1A7F80E90027BBA
:103460003B8AF97D454501FB02333B82EDD10222C7
:103470007849774F13A80BF023FF13AE0DF14E09D7
:103480004FF0000830E00D2B2CD0027A934229D364
:10349000817A994226D39A1A4568D2B205EBC205C1
:1034A000AA78CAB1E978B9B1797E002940F05E8383
:1034B000B7F90E200492F87DB7F9102097F816C0DE
:1034C0000499B4F814E00390608ACDF808C08DE840
:1034D00001405F4808F088FD2979E389A27D01FB5E
:1034E0000233E3814E4511D0E06916F8013B002814
:1034F00000F074810A2BC6D1A7F80E80027B3B8AAC
:10350000F97D4E4501FB02333B82EDD1524D504FC8
:10351000012305F11508A375E37530E00D2B2CD0C0
:10352000027A934229D3817A994226D39A1A46681D
:10353000D2B206EBC206B278CAB1F178B9B1797EDF
:10354000002940F05183B7F90E200492F87DB7F9B5
:10355000102097F816C00499B4F814E00390608A1C
:10356000CDF808C08DE80140394808F03DFD3179BB
:10357000E389A27D01FB0233E381454512D0E06976
:1035800015F8013B002800F059810A2BC6D14FF0F5
:103590000003FB81027B3B8AF97D454501FB023339
:1035A0003B82ECD102222B49294F13A80BF088FE55
:1035B00013AE4FF0000830E00D2B2CD0027A93426E
:1035C00029D3817A994226D39A1A4568D2B205EB5B
:1035D000C205AA78CAB1E978B9B1797E002940F06C
:1035E0001983B7F90E200492F87DB7F9102097F8E7
:1035F00016C00499B4F814E00390608ACDF808C0AE
:103600008DE80140124808F0EFFC2979E389A27D9A
:1036100001FB0233E3814E4511D0E06916F8013B0E
:10362000002800F03B810A2BC6D1A7F80E80027B50
:103630003B8AF97D4E4501FB02333B82EDD1074DBC
:10364000034F022305F10A08A375E37539E000BFB3
:103650004C32FF1FB0120100D8160100F016010015
:103660000D2B2CD0027A934229D3817A994226D30A
:103670009A1A4668D2B206EBC206B278CAB1F1789D
:10368000B9B1797E002940F05B82B7F90E2004922F
:10369000F87DB7F9102097F816C00499B4F814E033
:1036A0000390608ACDF808C08DE80140AB4808F06F
:1036B0009BFC3179E389A27D01FB0233E38145451F
:1036C00012D0E06915F8013B002800F017810A2BA1
:1036D000C6D14FF00003FB81027B3B8AF97D454553
:1036E00001FB02333B82ECD102229D499B4F13A880
:1036F0000BF0E6FD13AE2FE00D2B2AD0027A934299
:1037000027D3817A994224D39A1A4568D2B205EB1D
:10371000C205AA78BAB1E978A9B1797E002940F04A
:103720005182F87DB7F90E10B7F9102097F816C03E
:10373000B4F814E00390608ACDF808C08DE8014029
:10374000864808F051FC2979E389A27D01FB023308
:10375000E3814E453FF4F0ACE06916F8013B0028E8
:1037600000F000810A2BC7D14FF00003FB81027BE0
:103770003B8AF97D01FB02333B82EAE70A2B00F02A
:10378000BC810D2B3FF45FAE7A7EB7F90E10002A94
:1037900000F03E8197F816E0B7F90A60062212FBA6
:1037A0000E12B24240F35F823A8A97F817C0F8814E
:1037B00002EBCC0212B201463A82A68ACDF80CC0C6
:1037C000608A8DE84140654808F00EFCA37DE289DF
:1037D00003EB430302EB4303E38134E60A2B00F0DF
:1037E000A1810D2B3FF47EAE7A7EB7F90E10002A30
:1037F00000F0158197F816E0B7F90A50062212FB7F
:103800000E12AA4240F320823A8A97F817C0F88134
:1038100002EBCC0212B201463A82A58ACDF80CC066
:10382000608A8DE821404D4808F0DEFBA37DE289E7
:1038300003EB430302EB4303E38153E60A2B00F05F
:1038400055810D2B3FF499AE7A7EB7F90E10002A00
:1038500000F0D78097F816E0B7F90A60062212FB4D
:103860000E12B24240F3FA813A8A97F817C0F881F3
:1038700002EBCC0212B201463A82A68ACDF80CC005
:10388000608A8DE84140354808F0AEFBA37DE289AF
:1038900003EB430302EB4303E3816EE60A2B00F0E4
:1038A0003A810D2B3FF4B7AE7A7EB7F90E10002A9D
:1038B00000F0CA8097F816E0B7F90A50062212FB0A
:1038C0000E12AA4240F3D6813A8A97F817C0F881BF
:1038D00002EBCC0212B201463A82A58ACDF80CC0A6
:1038E000608A8DE821401D4808F07EFBA37DE289B7
:1038F00003EB430302EB4303E3818CE60A2B00F066
:1039000018810D2B3FF4DBAE7A7EB7F90E10002A3A
:1039100000F08C8097F816E0B7F90A60062212FBD7
:103920000E12B24240F38B813A8A97F817C0F881A1
:1039300002EBCC0212B201463A82A68ACDF80CC044
:10394000608A8DE84140054808F04EFBA37DE2897E
:1039500003EB430302EB4303E381B0E64C32FF1F6A
:10396000B01201000A2B00F0CF800D2B3FF4F1AE16
:103970007A7EB7F90E10002A5FD097F816E0B7F9F3
:103980000A50062212FB0E12AA4240F362813A8AC2
:1039900097F817C0F88102EBCC0212B201463A82C6
:1039A000A58ACDF80CC0608A8DE82140B04808F0A7
:1039B0001BFBA37DE28903EB430302EB4303E3819B
:1039C000C7E60C9B9C4246D80B980D9429460BF0F9
:1039D00017FF139D10E40C9B9C4255D80B980D9437
:1039E00029460BF00DFF139DFFF7EFBB0C9B9C428C
:1039F00063D80B980D9429460BF002FF139DFFF737
:103A0000CDBBB7F9102097F817C097F816E034E748
:103A1000B7F9102097F817C097F816E0CDE6B7F978
:103A2000102097F817C097F816E0F6E6B7F91020BF
:103A300097F817C097F816E07FE7B7F9102097F8C6
:103A400017C097F816E0ABE7B7F9102097F817C042
:103A500097F816E041E7611C0B980CF0FDFD064657
:103A600038B10D9B0B900C94002BAED103700B98CA
:103A7000ABE70B9810B10CF0E7FD0B960023139DFC
:103A80000C930D93FFF7B8BB611C0B980CF0E4FD91
:103A9000064638B10D9B0B900C94002B9FD1037000
:103AA0000B989CE70B9810B10CF0CEFD0B96002301
:103AB000139D0C930D93FFF788BB611C0B980CF0C2
:103AC000CBFD064638B10D9B0B900C94002B91D189
:103AD00003700B988EE70B9810B10CF0B5FD0B96A8
:103AE0000023139D0C930D93FFF758BB3B8AFA7D7F
:103AF000F88103EBC2033B823FE53B8AFA7DF88104
:103B000003EBC2033B829EE43B8AFA7DF88103EB20
:103B1000C2033B821DE63B8AFA7DF88103EBC203B8
:103B20003B8278E53B8AFA7DF88103EBC2033B8256
:103B3000D8E43B8AFA7DF88103EBC2033B82BEE501
:103B400096F905100591B7F90E100491059997F8AB
:103B500016C0B7F90AE00A4404990CFB0212724538
:103B600000F3F280F87DB7F9102097E595F905107C
:103B70000591B7F90E100491059997F816C0B7F999
:103B80000AE00A4404990CFB0212724500F3B68065
:103B9000F87DB7F9102094E496F905100591B7F96E
:103BA0000E100491059997F816C0B7F90AE00A4477
:103BB00004990CFB0212724500F3D380F87DB7F92B
:103BC00010202FE495F90580B7F90E1097F816C06C
:103BD000B7F90AE042440CFB0212724500F38280FE
:103BE000F87DB7F91020A3E596F905100591B7F90E
:103BF0000E100491059997F816C0B7F90AE00A4427
:103C000004990CFB0212724500F38580F87DB7F928
:103C10001020A1E495F905100591B7F90E10049153
:103C2000059997F816C0B7F90AE00A4404990CFB05
:103C3000021272457CDCF87DB7F91020DAE4B7F99E
:103C4000102097F817C078E6B7F9102097F817C03A
:103C5000E3E5B7F9102097F817C0A1E6B7F91020EF
:103C600097F817C009E6B7F9102097F817C0A4E530
:103C70004C32FF1FB7F9102097F817C02DE607F058
:103C800085FC814B18680AF087FA7F4B1868036837
:103C90009A7B002AF7D01B7B002BF4D10FAC7B4919
:103CA000204603F085F8214613A803F055F813A821
:103CB00007F046F813A802F0A3FE734B18680AF049
:103CC0006BFA714B186803689A7B002AF7D01B7B4C
:103CD000002BF4D1204602F093FE0B980CF0B4FCBC
:103CE000FFF744BA4FF00002FA81027B398AF87D6F
:103CF00002FB001212B23A82002119E5A7F80E80E9
:103D0000027B398AF87D02FB001212B200213A824E
:103D10000491FFF7D6BB4FF00002FA81027B398A8B
:103D2000F87D02FB001212B200213A82049113E4E2
:103D3000A7F80E80027B398AF87D02FB001212B2CE
:103D400000213A82049155E44FF00002FA81027B8F
:103D5000398AF87D02FB001212B200213A820491E6
:103D60009CE4A7F80E90027B398AF87D02FB0012D2
:103D700012B200213A820491FFF754BB444907A8CC
:103D800002F0DCFFFEF765BF07F008FD00283FF4F6
:103D9000B6A8FEF7F9BF3F4907A802F0CFFFFEF72C
:103DA00063BF3D4907A802F0C9FFFEF75DBF3B496D
:103DB00007A802F0C3FFFEF74CBF394907A802F07D
:103DC000BDFFFEF746BF07F0E9FC00283FF497A8C7
:103DD000FFF762B92C4B18680AF0D6F900283FF4B7
:103DE0008EA8204602F00CFEFFF70DB82D4B186888
:103DF0000AF0CAF900283FF412A92B4B2A4A5B6843
:103E0000CBB1012B0DD0022B7FF409A9274A284BF7
:103E100011681A6800230B7423494B601374FFF771
:103E2000FEB82248224900680968037402230D7411
:103E30005360FFF7F4B81D481D4900680968037412
:103E400001230B745360FFF7EAB81A4B1A491B6839
:103E500009680120187403230C741360FFF7DFB89E
:103E600014491548096800680C7402210374116034
:103E7000FFF7D5B80F49104B086819680123037480
:103E800013600B74FFF7CBB8C01DFF1FC4190100EE
:103E90006C170100CC170100E41701008417010022
:103EA0009C170100101EFF1F641FFF1FD41DFF1F62
:103EB000D81DFF1FDC1DFF1FE01DFF1F10B50846AA
:103EC0001446114604F00EFD204610BD084611466A
:103ED00003F02AB82DE9F04F2DED028BA44BA44836
:103EE00093F9223002213C22013389B080F821105D
:103EF00080F8202000F0FF8490F82400DFF888A2EA
:103F00000AF0C6F99A4B93F826000AF0C1F9984BCB
:103F1000974893F9261093F9242093F827305AF8FC
:103F200031105AF8322001630124426380F83A408C
:103F300080F83B40002B00F071858E4A8E48536814
:103F40001C68596825682943216011688B4C0860FA
:103F50008B4DCC608B4C0D610C60517A5C180C3130
:103F600094F82C4053F821500AEBC40149680D60C5
:103F7000117A5C1803EB8101247ECD690AEBC40140
:103F800049680D60917A5C1803EB810394F8401046
:103F90005C6C0AEBC1035B681C6053680ACB0C685D
:103FA00023430B601268D368D46803F0E06343F0E6
:103FB000384141F40031A1420BD0146843F07843FA
:103FC000650443F4003300F151851060D160136142
:103FD0001460674B93F825000AF05AF9644B93F884
:103FE00025000AF041FB012009F01CF9604B93F811
:103FF00025303F2B0AD85AF83310634A91F88002D3
:10400000002800F06F84012381F800310A2009F0B4
:1040100009F9574B5D4F93F825005D4C5D4EDFF875
:1040200098910AF021FBAE2006F070F9D52006F039
:104030006DF9802006F06AF9A82006F067F93F20A4
:1040400006F064F9D32006F061F9002006F05EF96D
:10405000402006F05BF98D2006F058F9142006F098
:1040600055F9202006F052F9002006F04FF9A12062
:1040700006F04CF9C82006F049F9DA2006F046F9B6
:10408000122006F043F9812006F040F9CF2006F017
:104090003DF9D92006F03AF9F12006F037F9DB2096
:1040A00006F034F9402006F031F9A42006F02EF98C
:1040B000A62006F02BF9AF2006F028F906F0A8FCA0
:1040C000354806F0A9FD06F05DFA4FF4487009F096
:1040D000A9F806F09DFC314806F09EFD06F052FA64
:1040E0006E2009F09FF806F093FC2D4806F094FD31
:1040F00006F048FA6E2009F095F806F089FC294888
:1041000006F08AFD06F03EFA6E2009F08BF806F004
:104110007FFC254806F080FD06F034FA6E2009F099
:1041200081F806F075FC214806F076FD06F02AFAC3
:104130006E2009F077F806F06BFC1D4806F06CFD68
:1041400006F020FA6E2009F06DF806F061FC1948BF
:1041500006F062FD06F016FA06F05AFC07F016FAB1
:104160004FF47A7009F05EF840F2EE283D682AE0DC
:104170004C32FF1F0011FF1F01401F0001100038CB
:104180000110007800001F80E49101005C33FF1FE4
:104190000437FF1F7436FF1F741A0100741E0100DC
:1041A0007422010074260100742A0100742E01009B
:1041B00074320100743601007036FF1FB3F5FA6FD8
:1041C00015D808F097F908F095F9237843B13378BA
:1041D000DB0705D53B68D9F800209B1A0E2B06D8C3
:1041E0003B6822785B1B002AE8D14345E9D94FF4AC
:1041F000FA7009F017F80621B248B34D02F094FEA8
:104200000222B24906A80BF05BF8022106A802F0D0
:104210008BFE00244FF46141AD4885F8624085F87B
:10422000634002F0F5FB28462422FF2185F85F4019
:1042300085F8604085F861400AF090FBA54DA649DD
:10424000A64ADFF8CCC2DFF8CCE2A3462C68087897
:104250001378C0B2DBB2984238BF0019C31A83B3D7
:1042600091F8009013785FFA89F9DBB29945EED0A6
:10427000581C84421FD93F2840F2FC83A3F13F0819
:10428000DCF8003013F80830C3B2954E1370D6F83E
:104290000080B8F1000FD9D0814538BF4C44DEF81A
:1042A00000302CBFC0EB0900201A9842CED888F805
:1042B00000B02C68CBE7002318468A4E16F8008021
:1042C000E3E74FF005094FF0F008AA2655254FF017
:1042D000010B494606A81C468DF81A908DF81880E7
:1042E0008DF819608DF81BB08DF81C5004F0FAFAA7
:1042F0004FF00203494606A88DF81B308DF8188050
:104300008DF819608DF81A908DF81C5004F0EAFAB7
:104310000A2008F087FF0422494606A88DF81B20D2
:1043200001928DF818808DF819608DF81A908DF82B
:104330001C5004F0D7FA4FF0080E4FF00C0C7146E9
:1043400006A88DF81BC08DF81AE08DF818808DF83E
:1043500019608DF81CB08DF81F508DF81D408DF838
:104360001E4004F0BFFA8C200CF066F95E4E5F49E7
:10437000016306F14803C36227215D4B466205468F
:10438000436380F83810047600F13C0805F014FC13
:104390004FF0490E5749584B85F874E006F14C0030
:1043A0009436E96685F854B02866AE6640462B67B9
:1043B00005F002FCDFF86091C5F880804FF0020341
:1043C00085F87830C5F88880ED67C5F884504FF4DB
:1043D0000060C9F800500CF02FF9064614200CF0CC
:1043E0002BF93B6805938046444B05984449C8F82F
:1043F00010004FF4807B1020C8F8000081F8804244
:10440000C3F800B0D5F8800098F8001009F030F932
:104410003C49C8F804400F203060C8F80840C6F88E
:10442000F487394B81F88042D9F80000C3F800B016
:10443000019AC06FC6F8E447FA23C6F8FC37334B3D
:10444000C6F8EC47114686F8F04786F8F14786F83B
:10445000F24786F8F84786F8F94786F8FA471E606B
:1044600008F0D2FFD9F80030DD6F6B7E2846002BB4
:1044700040F086822B6B5A0102F1844213460121DF
:10448000C2F81011C3F884110322C3F880113178E7
:1044900085F8232009F0ECF81C4BD3F8008008F5D0
:1044A000FB6208F2DC7108F5FC60002313600292E5
:1044B0000B6001910390454608F5FA660360C34618
:1044C00030E000BFDC3B0100F832FF1F743A01000E
:1044D000200CFF1F3C15FF1F4837FF1F4937FF1FE8
:1044E0007033FF1F7433FF1F783A010000B00340A0
:1044F0001060034000B00B403860034000A004404F
:104500000008FE430010FE4300B00440F81DFF1FEA
:104510006833FF1F380CFF1FFC1DFF1F0000FA430C
:10452000D8F8D447D9F80030DB6F1B6B1B691BB27E
:104530004BF8043F2344C8F8D437022008F072FE39
:104540005E45EDD1D8F8D4371FED0C7A07EE903ADE
:10455000F8EEE77A019B87EE878A1C68029B83ED61
:10456000008A55F8043F07EE903AF8EEE77A78EEC5
:10457000677A17EE900A0BF0D9FB02460B460BF058
:1045800029FC8046204689460BF0D0FB02460B46AC
:10459000404649460BF06CFA0BF0CCFEAE420446A6
:1045A000DFD106EE900A5FED237A019B434E18603F
:1045B00086EEA77A0125022417EE100A0BF0B6FB4F
:1045C00041EC100B0BF006FF51EC100B0BF0B2FEA0
:1045D000039B186006F01CFA394A3A48958200237A
:1045E0005582D38113829475D47509F067FE344BDC
:1045F00035489D75DD7509F061FE314B33489C757A
:10460000DC7509F05BFE324B1B6803F5FC6393ED30
:10461000007AF2EE047AB4EEE77AF1EE10FA4CBFCB
:104620002C482D4809F04AFE05F0ACFF4FF47A7093
:1046300008F0F8FD70200BF0FFFF00231822019016
:1046400002604360994600F10C0B012519E05AF80D
:104650003320DEF8041092F800E280F80CE040F21B
:10466000031E4373206082F88092C1F800E0A560C9
:104670000135192D4FF0000884F804904BF8044FD1
:104680002CD00C200BF0D8FF56F8048F04461020D5
:104690000BF0D2FF3B6806935FFA88F30521069A78
:1046A000C0F808903F2B0AEBC30E41600260CED9E0
:1046B00080F80C9043732060D9E700BF103B0100E5
:1046C0004C32FF1FCC160100D8160100F016010075
:1046D000F81DFF1FAC190100B8190100AB4D019B7B
:1046E0002B6008200BF0A8FFFA2227210446A84FD0
:1046F000A84E09F09DFD2A68A7493C6017690F6024
:10470000A64D976E3760A648D76D2F6084F8058058
:104710005769A44C0760A449D7692760A34E176A5C
:104720000F60A34D976AA348A3493760A34C176B4A
:10473000566B2F600660D56E526E256018200A6099
:104740000BF07AFF024646256FF0190443219C4E78
:1047500080F81080012782F8118057601160516144
:104760009560D460182032600BF066FF0246372156
:10477000944E80F81080022782F811809560D460F2
:10478000576011605161182032600BF055FF0246EE
:1047900030268D4980F81080032782F811809560BB
:1047A000D46057601660566118200A600BF044FF11
:1047B0000246864882F810802421042782E882007D
:1047C00082F811809560D4600260516118200BF06E
:1047D00033FF024605237E4980F8108080F811805F
:1047E00006608560C4604661536018200A600BF063
:1047F00023FF024685605321764E82F810800625FD
:1048000082F81180D46055601160516108203260D7
:104810000BF012FF1621C822044609F009FD6E4A6A
:104820006E4E146008200BF007FFC82215210446C5
:1048300009F0FEFC6A496B4A0C600820C2F800804F
:104840000BF0FAFE40F22B121721044609F0F0FC9F
:104850006549664A0C606720C2F8008008F0BAFD1E
:1048600005460C200BF0E8FE29210446C82209F079
:10487000DFFC5F4AA5606820146008F0ABFD0546C8
:104880000C200BF0D9FE11210446C82209F0D0FCFF
:10489000584AA5606920146008F09CFD05460C206C
:1048A0000BF0CAFEC8220E21044609F0C1FC524892
:1048B000524A534907601460524BA5605248534D09
:1048C000534AC1F800800C21C3F80080C6F800806C
:1048D000C5F8008080F80080116009B0BDEC028B43
:1048E000BDE8F08F02EBC3035A68136823F002039C
:1048F0001360FFF78BBB474BDFF81CA159690022FF
:1049000083F8A02083F8A12083F82C2183F82D219F
:1049100083F82E2183F82F210C6848682568C3F896
:1049200034212843C3F8382120601869827093F835
:10493000312108680A44147A527B0AEBC40412023B
:10494000646802F4E06242F06402226093F832216B
:104950000A44947CD27D0AEBC404120202F4E062A1
:10496000646842F06402226000684A68104276D1AE
:104970001A69202151711B6980229A70FFF729BBA7
:1049800008F0FEFDD9F80030D86F73E5EC1DFF1F6D
:10499000F41DFF1F0C1EFF1FC01DFF1F101EFF1F59
:1049A000B01DFF1FB41DFF1FB81DFF1FBC1DFF1F43
:1049B000A41DFF1FA81DFF1F1C1EFF1F141EFF1F8D
:1049C000D41DFF1FD81DFF1FE01DFF1FDC1DFF1F93
:1049D000201EFF1F341EFF1F001EFF1F5437FF1F26
:1049E000041EFF1FE81DFF1F081EFF1FE41DFF1F01
:1049F000C81DFF1FCC1DFF1F381EFF1FD01DFF1F2E
:104A0000641FFF1F681FFF1F301EFF1FC41DFF1FF5
:104A1000181EFF1FC40FFF1FE4910100164B93F8EF
:104A2000220009F035FC144B93F8230009F030FC08
:104A3000114B114893F9231093F9222093F8273052
:104A40005AF831105AF8322080F8394080F838404E
:104A5000C1628262002B3FF4BCAAFFF76EBA1A69EA
:104A60002C2151701A690421917181E7D160136181
:104A7000FFF7AFBAC3B220E44C32FF1F704700BF4C
:104A80002DE9F04FEB4CDFF838A4EB4FEB4DDFF89E
:104A90003494DFF8348485B05146204602F088F91A
:104AA0002A463946204609F01FFF4946684602F06B
:104AB0007FF92146684602F039F904F1100B0146EE
:104AC000584602F049F9684601F09AFF2A463946ED
:104AD000584604F1200B09F007FF4146584602F002
:104AE00067F92A463946584604F1300B09F0FCFEB6
:104AF00008F002FC5146584602F05AF92A46394657
:104B0000584609F0F1FE4946684602F051F9594607
:104B1000684602F00BF904F1400B0146584602F0DA
:104B20001BF9684601F06CFF2A463946584604F1E5
:104B3000500B09F0D9FE4146584602F039F92A4691
:104B40003946584604F1600B09F0CEFE08F0D4FB5C
:104B50005146584602F02CF92A463946584609F083
:104B6000C3FE4946684602F023F95946684602F0FA
:104B7000DDF804F1700B0146584602F0EDF8684686
:104B800001F03EFF2A463946584604F1800B09F0F1
:104B9000ABFE4146584602F00BF92A4639465846C4
:104BA00004F1900B09F0A0FE08F0A6FB5146584610
:104BB00002F0FEF82A463946584609F095FE494665
:104BC000684602F0F5F85946684602F0AFF804F17D
:104BD000A00B0146584602F0BFF8684601F010FFEE
:104BE0002A463946584604F1B00B09F07DFE41468D
:104BF000584602F0DDF82A463946584604F1C00B03
:104C000009F072FE5146584602F0D2F82A4639465B
:104C1000584609F069FE4946684602F0C9F8594607
:104C2000684602F083F804F1D00B0146584602F0C2
:104C300093F8684601F0E4FE2A463946584604F1E6
:104C4000E00B09F051FE4146584602F0B1F82A4601
:104C50003946584604F1F00B09F046FE08F04CFBCB
:104C60005146584602F0A4F82A463946584609F0FB
:104C70003BFE4946684602F09BF85946684602F0FA
:104C800055F804F580790146484602F065F8684613
:104C900001F0B6FE2A463946484604F5887909F0FF
:104CA00023FE4146484602F083F804F590782A46F0
:104CB0003946484609F018FE40466149DFF800923F
:104CC000DFF800B202F074F82A463946404604F58F
:104CD000987809F009FE40465A4902F069F82A46D8
:104CE0003946404604F5A07809F0FEFD4046564995
:104CF00002F05EF82A463946404604F5A87809F0E5
:104D0000F3FD4046514902F053F82A4639464046E1
:104D100009F0EAFD04F5B0704D4902F049F804F5D8
:104D2000B8704C4902F044F804F5C0704A4902F0EA
:104D30003FF804F5C870494902F03AF804F5D0701C
:104D4000474902F035F804F5D870464902F030F8CA
:104D500004F5E070444902F02BF804F5E87043498B
:104D600002F026F804F5F070414902F021F804F54C
:104D7000F870404902F01CF804F500703E4902F05A
:104D800017F804F504703D4902F012F804F50870B4
:104D90003B4902F00DF804F50C703A4902F008F8AE
:104DA00004F51070384902F003F804F5147037491F
:104DB00001F0FEFF04F51870354901F0F9FF04F524
:104DC0001C70344901F0F4FF04F52070324901F001
:104DD000EFFF04F52470314901F0EAFF04F5287073
:104DE0002F4901F0E5FF04F52C702E4901F0E0FF9A
:104DF00004F530702C4901F0DBFF04F534702B49C9
:104E000001F0D6FF04F53870294901F0D1FF04F50F
:104E10003C70284901F0CCFF04F54070264901F0B0
:104E2000C7FF04F54470254901F0C2FF04F548703E
:104E30004CE000BF6C1FFF1F016A0000080CFF1F41
:104E40006C3C01007C3C01008C3C01009C3C01005E
:104E5000AC3C0100B03C0100B83C0100BC3C01008E
:104E6000C43C0100C83C0100CC3C0100D43C010022
:104E7000D83C0100E03C0100E43C0100EC3C0100B6
:104E8000F03C0100F43C0100F83C0100FC3C010056
:104E9000003D0100043D0100083D01000C3D010002
:104EA000103D0100143D0100183D01001C3D0100B2
:104EB000203D0100243D0100283D01002C3D010062
:104EC0003C3C0100443C0100543C0100D34901F04A
:104ED0006FFF04F54C70D24901F06AFF04F5507081
:104EE000D04901F065FF04F55470CF4901F060FF2F
:104EF00004F55870CD4901F05BFF04F55C70CC49B6
:104F000001F056FF04F56070CA4901F051FF04F545
:104F10006470C94901F04CFF04F56870C74901F09D
:104F200047FF04F56C70C64901F042FF04F570704C
:104F3000C44901F03DFF04F57470C34901F038FF26
:104F400004F57870C14901F033FF04F57C70C04965
:104F500001F02EFF04F58060BE4901F029FF04F541
:104F60008260BD4901F024FF04F58460BB4901F073
:104F70001FFF04F58660BA4901F01AFF04F5886046
:104F8000B84901F015FF04F58A60B74901F010FF38
:104F900004F58C60B54901F00BFF04F58E60B4494F
:104FA00001F006FF04F59060B24901F001FF04F53D
:104FB0009260B14901F0FCFE04F59460AF4901F044
:104FC000F7FE04F59660AE4901F0F2FE04F5986034
:104FD000AC4901F0EDFE04F59A60AB4901F0E8FE42
:104FE00004F59C60A94901F0E3FE04F59E60A84920
:104FF00001F0DEFE04F5A060A64901F0D9FE04F53B
:10500000A260A54901F0D4FE04F5A460A34901F013
:10501000CFFE04F5A660A24901F0CAFE04F5A8601F
:10502000A04901F0C5FE04F5AA609F4901F0C0FE49
:1050300004F5AC609D4901F0BBFE04F5AE609C49EF
:1050400001F0B6FE04F5B0609A4901F0B1FE04F536
:10505000B260994901F0ACFE04F5B460974901F0E3
:10506000A7FE04F5B660964901F0A2FE04F5B8600B
:10507000944901F09DFE04F5BA60934901F098FE51
:1050800004F5BC60914901F093FE04F5BE609049BF
:1050900001F08EFE04F5C0608E4901F089FE04F532
:1050A000C2608D4901F084FE04F5C4608B4901F0B3
:1050B0007FFE04F5C6608A4901F07AFE04F5C860F7
:1050C000884901F075FE04F5CA60874901F070FE59
:1050D00004F5CC60854901F06BFE04F5CE6084498F
:1050E00001F066FE04F5D060824901F061FE04F52E
:1050F000D260814901F05CFE04F5D4607F4901F083
:1051000057FE04F5D6607E4901F052FE04F5D860E2
:105110007C4901F04DFE04F5DA607B4901F048FE60
:1051200004F5DC60794901F043FE04F5DE6078495E
:1051300001F03EFE04F5E060764901F039FE04F529
:10514000E260754901F034FE04F5E460734901F052
:105150002FFE04F5E660724901F02AFE04F5E860CE
:10516000704901F025FE04F5EA606F4901F020FE68
:1051700004F5EC606D4901F01BFE04F5EE606C492E
:1051800001F016FE04F5F0606A4901F011FE04F525
:10519000F260694901F00CFE04F5F460674901F022
:1051A00007FE04F5F660664901F002FE04F5F860BA
:1051B000644901F0FDFD04F5FA60634901F0F8FD72
:1051C00004F5FC60614901F0F3FD04F5FE606049FF
:1051D00001F0EEFD04F500605E4901F0E9FD04F523
:1051E00001605D4901F0E4FD04F502605B4901F0F6
:1051F000DFFD04F503605A4901F0DAFD04F50460AF
:10520000584901F0D5FD04F50560574901F0D0FD7E
:1052100004F50660554901F0CBFDA9E0303D0100E1
:10522000343D0100383D01003C3D0100403D01009E
:10523000443D0100483D01004C3D0100503D01004E
:10524000543D0100583D01005C3D0100603D0100FE
:10525000643D0100683D01006C3D0100703D0100AE
:10526000743D0100783D01007C3D0100803D01005E
:10527000843D0100883D01008C3D0100903D01000E
:10528000943D0100983D01009C3D0100A03D0100BE
:10529000A43D0100A83D0100AC3D0100B03D01006E
:1052A000B43D0100B83D0100BC3D0100C03D01001E
:1052B000C43D0100C83D0100CC3D0100D03D0100CE
:1052C000D43D0100D83D0100DC3D0100E03D01007E
:1052D000E43D0100E83D0100EC3D0100F03D01002E
:1052E000F43D0100F83D0100FC3D0100003E0100DD
:1052F000043E0100083E01000C3E0100103E01008A
:10530000143E0100183E01001C3E0100203E010039
:10531000243E0100283E01002C3E0100303E0100E9
:10532000343E0100383E01003C3E0100403E010099
:10533000443E0100483E01004C3E0100503E010049
:10534000543E0100583E01005C3E0100603E0100F9
:10535000643E0100683E01006C3E0100703E0100A9
:10536000743E0100783E01007C3E0100803E010059
:1053700004F50760D34901F01BFD04F50860D2492C
:1053800001F016FD04F50960D04901F011FD04F5A6
:105390000A60CF4901F00CFD04F50B60CD4901F026
:1053A00007FD04F50C60CC4901F002FD04F50D6029
:1053B000CA4901F0FDFC04F50E60C94901F0F8FC92
:1053C00004F50F60C74901F0F3FC04F51060C6490D
:1053D00001F0EEFC04F51160C44901F0E9FC04F5AC
:1053E0001260C34901F0E4FC04F51360C14901F007
:1053F000DFFC04F51460C04901F0DAFC04F5156027
:10540000BE4901F0D5FC04F5166A2A46BC490020C5
:1054100009F06AFA5046BB4901F0CAFC04F517606E
:10542000B94901F0C5FC04F51860B84901F0C0FCA9
:1054300004F51960B64901F0BBFC04F51A60B549E2
:1054400001F0B6FC04F51B60B34901F0B1FC04F5B2
:105450001C60B24901F0ACFC04F51D60B04901F0DC
:10546000A7FC04F51E60AF4901F0A2FC04F51F6023
:10547000AD4901F09DFC04F52060AC4901F098FCB9
:1054800004F52160AA4901F093FC04F52260A949C2
:1054900001F08EFC04F52360A74901F089FC04F5B6
:1054A0002460A64901F084FC04F52560A44901F0BC
:1054B0007FFC04F52660A34901F07AFC04F527601F
:1054C000A14901F075FC04F52860A04901F070FCC9
:1054D00004F529609E4901F06BFC04F52A609D49A2
:1054E00004F52C6801F064FC04F52B609A4901F086
:1054F0005FFC4046994901F05BFC04F52D6098493A
:1055000001F056FC04F52E60964901F051FC04F5BB
:105510002F60954901F04CFC04F53060934901F08F
:1055200047FC04F53160924901F042FC04F5326019
:10553000904901F03DFC04F533608F4901F038FCDF
:1055400004F534608D4901F033FC04F535608C4975
:1055500001F02EFC04F536608A4901F029FC04F5BF
:105560003760894901F024FC04F53860874901F06F
:105570001FFC04F53960864901F01AFC04F53A6015
:10558000844901F015FC04F53B60834901F010FCEF
:1055900004F53C60814901F00BFC04F53D60804955
:1055A00001F006FC04F53E607E4901F001FC04F5C3
:1055B0003F607D4901F0FCFB04F540607B4901F050
:1055C000F7FB04F541607A4901F0F2FB04F5426013
:1055D000784901F0EDFB04F54360774901F0E8FB01
:1055E00004F54460754901F0E3FB04F54560744936
:1055F00001F0DEFB04F54660724901F0D9FB04F5C9
:105600004760714901F0D4FB04F548606F4901F02F
:10561000CFFB04F549606E4901F0CAFB04F54A600E
:105620006C4901F0C5FB04F54B606B4901F0C0FB10
:1056300004F54C60694901F0BBFB04F54D60684915
:1056400001F0B6FB04F54E60664901F0B1FB04F5CC
:105650004F60654901F0ACFB04F55060634901F00F
:10566000A7FB04F55160624901F0A2FB04F552600A
:10567000604901F09DFB04F553605F4901F098FB20
:1056800004F554605D4901F093FB04F555605C49F5
:1056900001F08EFB04F556605A4901F089FB04F5D0
:1056A0005760594901F084FB04F55860574901F0EF
:1056B0007FFB04F55960564901F07AFB04F55A6006
:1056C000A8E000BF843E0100883E01008C3E01003E
:1056D000903E0100943E0100983E01009C3E010076
:1056E000A03E0100A43E0100A83E0100AC3E010026
:1056F000B03E0100B43E0100B83E0100BC3E0100D6
:10570000F1DE0000C03E0100C83E0100D43E0100B1
:10571000DC3E0100E83E0100F03E0100F83E0100E1
:10572000043F01000C3F0100183F0100203F010031
:105730002C3F0100343F01003C3F0100443F010089
:105740004C3F0100543F01005C3F0100643F0100F9
:105750006C3F0100743F01007C3F0100843F010069
:105760008C3F0100943F01009C3F0100A43F0100D9
:10577000AC3F0100B43F0100BC3F0100C43F010049
:10578000CC3F0100D43F0100DC3F0100E43F0100B9
:10579000EC3F0100F43F0100FC3F01000440010028
:1057A0000C400100144001001C4001002440010095
:1057B0002C400100344001003C4001004440010005
:1057C0004C400100544001005C4001006440010075
:1057D0006C400100744001007C40010084400100E5
:1057E0008C400100944001009C400100A440010055
:1057F000AC400100B4400100BC400100C4400100C5
:10580000CC400100D4400100DC400100E440010034
:10581000EC400100DE4901F0CBFA04F55B60DD49A4
:1058200001F0C6FA04F55C60DB4901F0C1FA04F549
:105830005D60DA4901F0BCFA04F55E60D84901F018
:10584000B7FA04F55F60D74901F0B2FA04F5606079
:10585000D54901F0ADFA04F56160D44901F0A8FA28
:1058600004F56260D24901F0A3FA04F56360D149FE
:1058700001F09EFA04F56460CF4901F099FA04F54D
:105880006560CE4901F094FA04F56660CC4901F0F8
:105890008FFA04F56760CB4901F08AFA04F5686075
:1058A000C94901F085FA04F56960C84901F080FA38
:1058B00004F56A60C64901F07BFA04F56B60C549DE
:1058C00001F076FA04F56C60C34901F071FA04F551
:1058D0006D60C24901F06CFA04F56E60C04901F0D8
:1058E00067FA04F56F60BF4901F062FA04F5706071
:1058F000BD4901F05DFA04F57160BC4901F058FA48
:1059000004F57260BA4901F053FA04F57360B949BD
:1059100001F04EFA04F57460B74901F049FA04F554
:105920007560B64901F044FA04F57660B44901F0B7
:105930003FFA04F57760B34901F03AFA04F578606C
:10594000B14901F035FA04F57960B04901F030FA57
:1059500004F57A60AE4901F02BFA04F57B60AD499D
:10596000AD4C01F025FA08F5A060AC4901F020FA31
:1059700008F5A260AA4901F01BFA08F5A460A9493C
:1059800001F016FA08F5A660A74901F011FA08F52A
:10599000A860A64901F00CFA08F5AA60A44901F034
:1059A00007FA08F5AC60A34901F002FA08F5AE6009
:1059B000A14901F0FDF908F5B060A04901F0F8F93E
:1059C00008F5B2609E4901F0F3F908F5B4609D490D
:1059D00001F0EEF908F5B6609B4901F0E9F908F528
:1059E000B8609A4901F0E4F908F5BA60984901F005
:1059F000DFF908F5BC60974901F0DAF908F5BE60F7
:105A0000954901F0D5F908F5C060944901F0D0F945
:105A100008F5C260924901F0CBF908F5C4609149DC
:105A200001F0C6F908F5C6608F4901F0C1F908F523
:105A3000C8608E4901F0BCF908F5CA608C4901F0D4
:105A4000B7F908F5CC608B4901F0B2F908F5CE60E2
:105A500089492E4601F0ACF9884D894908F5D06096
:105A600001F0A6F908F5D260864901F0A1F905F127
:105A7000680832468449002008F036FF494640460F
:105A800001F096F932463946404608F02DFF594656
:105A9000684601F08DF94146684601F047F905F185
:105AA00078080146404601F057F9684600F0A8FF23
:105AB00032463946404605F1880808F015FF214670
:105AC000404601F075F932463946404605F19808DE
:105AD00008F00AFF4946404601F06AF93246394665
