:10000000F8FF02209901000011B60000C9B50000F8
:10001000C9B50000C9B50000C9B50000C9B50000E8
:10002000C9B50000C9B50000C9B5000011B600008F
:1000300011B60000C9B5000045CD000049CD000053
:1000400011B6000011B6000011B6000011B6000094
:1000500011B6000011B6000011B6000011B6000084
:1000600011B6000011B6000011B6000011B6000074
:1000700011B6000011B6000011B6000011B6000064
:1000800011B6000011B6000011B6000011B6000054
:1000900011B6000011B6000011B6000011B6000044
:1000A0003D9F0000499F000011B6000011B60000FE
:1000B00011B6000011B6000011B600008DDB000083
:1000C00011B6000011B6000011B6000011B6000014
:1000D00011B6000011B6000011B6000011B6000004
:1000E00011B6000011B6000011B6000011B60000F4
:1000F00011B6000011B6000011B6000011B60000E4
:1001000011B6000011B6000011B6000011B60000D3
:1001100011B6000015BB000011B6000011B60000BA
:1001200011B6000011B6000011B6000011B60000B3
:1001300011B6000011B6000011B6000011B60000A3
:1001400011B6000011B6000011B6000011B6000093
:1001500011B6000011B6000011B6000011B6000083
:1001600011B6000011B60000559F000011B6000046
:1001700011B6000011B6000011B6000011B6000063
:1001800011B6000011B6000011B6000011B6000053
:1001900011B6000011B60000584B4CF2205210B5B9
:1001A0001A804DF628121A8000BF00BF0BF034FAF7
:1001B000534B4FF030621A60524A9A60524ADA60EA
:1001C000524B4FF470021A60514A136813F4807353
:1001D00004D150490B604FF4A85313604E4B1A786A
:1001E000110703D51A7842F008021A704B4B4C499C
:1001F0002A221A704B4A4C4B8B4204D252F8040FFD
:1002000043F8040BF8E7494B494900228B4202D2DC
:1002100043F8042BFAE74749474A002352F82300E2
:1002200041F823000133662BF8D1444B444A802126
:1002300003F8011B9342FBD1424B3E4A1A60424BEA
:100240008A221A70A3F5805324225A70A0221A70B1
:100250009A799207FCD59A79D406FCD43B4A9379D3
:1002600003F00C03082B394BF9D103221A714622F3
:100270005A719A799006FCD5344A9179334B4906E4
:10028000FBD5334A4FF08271116009215160202261
:100290001A709A7902F00C020C2AFAD12D4B2E4AD0
:1002A0001A602E4B2E4A1A6000225A60072243F829
:1002B000042C2C4AC3F80C2D62B60BF0DDFA154B5A
:1002C0001B68DA0705D528480BF05AFA274B284A4D
:1002D0001A60284B1B785B0609D5244C244B2268F6
:1002E0009A4204D120480BF04BFA002323600BF014
:1002F00099F917F0E5FD0CF00FFFFEE70E20054021
:1003000030800440823F04000100002B88ED00E0B3
:1003100010D0034014D0034002D0074000E0074053
:10032000301BFF1F887D0200080CFF1F301BFF1FC2
:100330003839FF1F0002FF1F0000000000E400E04A
:1003400056E400E008ED00E00050064000400640A2
:100350004480044004800440C010050014E000E024
:10036000BFD4010000002020587E4D631CE00340F4
:10037000A5C3945A00F00740FFFFFFFFFFFFFFFFF8
:10038000FFFFFFFFFFFFFFFFFFFFFFFFFFFFFFFF7D
:10039000FFFFFFFFFFFFFFFFFFFFFFFFFFFFFFFF6D
:1003A000FFFFFFFFFFFFFFFFFFFFFFFFFFFFFFFF5D
:1003B000FFFFFFFFFFFFFFFFFFFFFFFFFFFFFFFF4D
:1003C000FFFFFFFFFFFFFFFFFFFFFFFFFFFFFFFF3D
:1003D000FFFFFFFFFFFFFFFFFFFFFFFFFFFFFFFF2D
:1003E000FFFFFFFFFFFFFFFFFFFFFFFFFFFFFFFF1D
:1003F000FFFFFFFFFFFFFFFFFFFFFFFFFFFFFFFF0D
:10040000FFFFFFFFFFFFFFFFFFFFFFFFDEF9FFFF23
:1004100010B5054C237833B9044B13B10448AFF33E
:1004200000800123237010BD301BFF1F000000005F
:100430008C790200084B10B51BB108490848AFF38E
:1004400000800848036803B910BD074B002BFBD0A0
:10045000BDE81040184700BF00000000341BFF1F1C
:100460008C790200301BFF1F0000000038B5074CDC
:10047000A4F5406554F8080CA042A4F1180401D07A
:100480000CF054FEAC42F5D138BD00BF4034FF1F24
:1004900038B5074CA4F5406554F8080CA042A4F107
:1004A000180401D00CF042FEAC42F5D138BD00BFBB
:1004B0004027FF1F70B5054682B001B3541A0F2CB8
:1004C0000E4601940AD82B68012C184613D064B943
:1004D000019A6A600021995402B070BD002201A9FE
:1004E0000DF00EFE019B2860AB60224631460AF0FB
:1004F0000FFF2B68ECE732781A702B68E8E712B12F
:1005000002480DF0CDFD01920368E1E7D43402000A
:1005100038B500F10803044603600D4649B10846AA
:1005200018F08EFF2A1820462946FFF7C3FF204601
:1005300038BD4FF0FF32F6E770B5044608460D4669
:1005400018F07EFF23680246294620465B68BDE816
:100550007040184738B50446006809F075FD2068FA
:1005600009F0A2FD10B10123237138BD05462068B2
:1005700009F090FD00B1257138BD00BF2DE9F041B3
:10058000264A274B82FB0024C217C2EB640284B0C8
:1005900002EB4205A0EB85050FFA81F84020012708
:1005A000541E019000900E4603EB452341460297EE
:1005B00000221C4808F0D0FF002C29DB0B2D04D8AA
:1005C00040F6B520E840C30712D4174B1548402227
:1005D000012501920092414603EB4423029500223B
:1005E00008F0BAFF0F4804B0BDE8F0410AF08ABD38
:1005F0000E4B029715200E2206F134012A25019098
:10060000009209B205FB04332B22064808F0A4FF30
:10061000044804B0BDE8F0410AF074BDABAAAA2AB0
:1006200058D701007027FF1F58EF0100B4D5010013
:10063000F0B5364B53F82070002F85B029DB344AD3
:10064000344B0C4652F820100126402203EB412384
:10065000054621B230480192009202960022A4B2CF
:1006600008F07AFF072304F11D010193009302961D
:100670002A4B29483AB209B208F06EFF284B53F8CA
:100680002530022B18D0012B24D0032B30D0042B83
:1006900005D0214805B0BDE8F0400AF033BD04F1B3
:1006A0002A010A221423009309B2029601921D4BDB
:1006B000194808F051FFECE704F12A010A2214233B
:1006C0000192009309B20296164B1348242208F0B7
:1006D00043FFDEE704F12A010A201422029301906D
:1006E000009209B2104B0C48242208F035FFD0E7E5
:1006F00004F12A010A221423009309B202960192FE
:10070000094B054808F028FFC3E700BFB4D3010038
:1007100058030200D42602007027FF1F580502006C
:10072000B4D10100C4CC0100E425020010B5044698
:1007300009480AF0DBFB094B1968204621B120214A
:10074000BDE81040FFF71ABFFFF718FF2046402111
:10075000BDE81040FFF76CBF7027FF1F1028FF1F78
:10076000022825D0032820D0134A144B042806BFA2
:1007700013464A204320124A124912680968106041
:10078000114A586808601168104A98680860116832
:100790000F4AD86808601268196911600D490E4A3D
:1007A00058699B690860136070470C4B4A20E2E768
:1007B00043200B4BDFE700BFC82502009025020055
:1007C0003C28FF1FFC27FF1F7034FF1FF827FF1F67
:1007D0009C34FF1F5034FF1F4828FF1FA8CC010086
:1007E000AC2502002DE9F84304460AF0ABFE274B86
:1007F000D3F80090C9F80000601C0AF0A3FE244B57
:10080000D3F80080C8F80000A01C0AF09BFE214B22
:100810001F683860E01C0AF095FE1F4B1E683060B0
:10082000201D0AF08FFE1D4B1D682860601D0AF018
:1008300089FE1B4BA0F10C02A01D1A600AF082FE7B
:10084000184B1860E01D0AF07DFEC9F8080004F19D
:1008500008000AF077FEC8F8080004F109000AF061
:1008600071FEB86004F10A000AF06CFEB06004F199
:100870000B000AF067FEA86004F10C000AF062FEAB
:10088000094B1B689860BDE8F88300BF3C28FF1F38
:10089000FC27FF1F7034FF1FF827FF1F9C34FF1F2A
:1008A0005034FF1F4828FF1F6027FF1F2DE9F84322
:1008B000DFF8C090DFF8C080D9F80030274F1978F2
:1008C000274E284D04460AF057FED8F80030601C29
:1008D00019780AF051FE3B68A01C19780AF04CFE0A
:1008E0003368E01C19780AF047FE2B68201D197840
:1008F0000AF042FE1C4B19680C31601DC9B20AF0A7
:100900003BFE1A4BA01D19780AF036FED9F80030CC
:10091000E01D197A0AF030FED8F8003004F1080022
:10092000197A0AF029FE3B6804F10900197A0AF0E5
:1009300023FE336804F10A00197A0AF01DFE2B68C1
:1009400004F10B00197A0AF017FE094B1B6804F139
:100950000C00197ABDE8F8430AF00EBE7034FF1F90
:10096000F827FF1F9C34FF1F5034FF1F4828FF1F2C
:100970006027FF1F3C28FF1FFC27FF1F2DE9F04FBA
:100980008BB004460A4603A8264918F07DF9264A8A
:1009900004F10808C4F8008020461146FFF78AFDDC
:1009A00006AE03ADB3460DF10F09002794E806002B
:1009B00004A80A4415F801AB0496FFF77BFD012358
:1009C00000220599CDF800A004A80DF0EFFC049AD0
:1009D0002368B24217D043451BD005980699226080
:1009E0006060A268A160CBB10493069205971F7066
:1009F0000498B04201D00CF099FB4D45D6D1204669
:100A00000BB0BDE8F08F04A920460DF09FFB049BBE
:100A1000ECE70599069B22606160A360049606AB33
:100A20005E46E3E700350200C04A0200F8B504461E
:100A3000084616460F4618F003FD00236360237234
:100A4000716804F1080305462360014420460DF057
:100A500067FC62686FF000439B1A9D420BD82A46E0
:100A6000394620460DF0C2FD96E8060020460DF0FE
:100A7000BDFD2046F8BD01480DF02AFB04350200FB
:100A80002DE9F041E0290C469DF8185008D8013DA9
:100A9000EDB20F2D02D849B2002912DBBDE8F0817A
:100AA000F729FBD90834E4B2012303FA04F414F063
:100AB000DD0FF3D0436D18680368BDE8F0411B6893
:100AC00018471F46436D8046186803682943C9B21A
:100AD0001B6816469847D8F854301868036806F023
:100AE0007F011B6804F0EF049847C02CD6D0D8F8DB
:100AF00054301868036807F07F011B68BDE8F041B7
:100B0000184700BF0E4B30B51C682379013B0546E2
:100B10001B02000403F4706300F4FE00184340F469
:100B2000404083B040F00C000BF0FAFC2379606980
:100B30000093EAB20023C021FFF7A2FF03B030BD4B
:100B40003C28FF1F30B504460A482378013B1B02AE
:100B500003F4706383B00D4618430BF0E1FC237877
:100B6000286800937B220023B021FFF789FF03B0A0
:100B700030BD00BF0BB07B0030B50568037B294456
:100B800083B001610BB103B030BD836804460079C6
:100B90001B0603F0FE43013843F41043000243F008
:100BA0000903090400F4706001F4FE0118430843CE
:100BB00015460BF0B5FC2179237A227C60690091FF
:100BC0009021FFF75DFF002DDDDD2379013B280635
:100BD0001B0203F4706300F0FE40184340F4D83069
:100BE00040F00B000BF09CFC23796069009301221C
:100BF000EBB2B021FFF744FF03B030BD0369826858
:100C000010B51B0404461206007902F0FE4203F4FC
:100C1000FE031343013843F40043000243F008038A
:100C200000F4706082B018430BF07AFC2179237ACB
:100C3000227C606900918021FFF722FF02B010BD85
:100C4000036810B504460BB17430984794F87530BA
:100C5000803B7F2B00F28580DFE813F08A00830061
:100C6000830083008300830083008300830083006C
:100C70008300830083008300830083009600830049
:100C8000830083008300830083008300830083004C
:100C90008300830083008300830083009A00830025
:100CA000830083008300830083008300830083002C
:100CB0008300830083008300830083009E00830001
:100CC000830083008300830083008300830083000C
:100CD000830083008300830083008300A2008300DD
:100CE00083008300830083008300830083008300EC
:100CF000830083008300830083008300AC008300B3
:100D000083008300830083008300830083008300CB
:100D1000830083008300830083008300B00083008E
:100D200083008300830083008300830083008300AB
:100D3000830083008300830083008300C40080005D
:100D4000D500E50083008300ED008300F100F5008D
:100D5000F900FD000101830005018400A36A002B56
:100D600064D110BD236D002BFBD0BDE810401847A7
:100D7000A368002BF5D094F8772094F8761094F8B7
:100D80007400BDE810401847E368002BF3D1E8E792
:100D90002369002BEFD1E4E76369002BEBD1E0E797
:100DA000A369002BDDD094F8761094F87400BDE8A8
:100DB00010401847E369002BF5D1D2E7226A002AD8
:100DC000CFD094F8771094F8763094F87400C90175
:100DD00001F47E5103F07F031943A1F50051BDE8F2
:100DE00010401047626A002ABBD094F8763094F81D
:100DF000771043EA0121802904F1780028BF80217F
:100E0000BDE810401047E26A002AAAD094F8773073
:100E100094F87600DB0103F47E5300F07F00184362
:100E2000BDE810401047236B002B9AD094F8760051
:100E3000BDE810401847636B002B96D191E7A36B78
:100E4000002B92D18DE7236C002B8ED189E7E36BC9
:100E5000002B8AD185E7636C002B86D181E7A36CD8
:100E6000002B82D17DE7E36C002B7FF47EAF78E727
:100E7000F8B5436D0446186803681B69984708B9BC
:100E80000020F8BD94F80D31626D23F0010384F861
:100E90000D31106803685B699847C3B2FD2BEFD032
:100EA000626E002A49D001067ED494F85B10F029C6
:100EB0005FD0F7295DD0A11881F85B30216E4B1E01
:100EC0009A4253D394F85B30F02B00F00A82F72B50
:100ED00000F007821A0650D4002284F87520B02A48
:100EE0005CD0A02A5AD0D02A58D0E02A56D0C02AA6
:100EF00054D0002084F87400032994F85C0008BFE3
:100F000094F85D5084F8760018BF00250021012078
:100F1000B02A84F877506166216684F8F80008D01A
:100F200000F2D581902A04D0A02A02D0802A00D0D5
:100F3000002384F859300120F8BD94F8592084F832
:100F40005B3015064DD440B20028C0F20E8294F9F1
:100F50000D01636840F0010084F80D0103B198476A
:100F6000002084F8590060662066F8BD0132626690
:100F700086E7A11881F87830A0E703F10C02D2B21D
:100F8000012AA9D9FD2BA7D0EF2B00F2EC8103F0A9
:100F9000F002802A84F8752040F0EF8103F00F0002
:100FA000013084F87400A7E7A3F1F0010F293FF6A0
:100FB0007CAF012000FA01F111F0810540F0B18110
:100FC00011F45F4F3FF471AF84F8765084F8775096
:100FD00084F8745084F87530C4F8FC0084F8F80084
:100FE000F8BD02F10C01CDB2012DACD9FD2AAAD079
:100FF000EF2A00F2578102F0F006802E40F0538174
:1010000040B20028A0DB0120C9B2814284F85B20F5
:1010100084F85C3060669AD9FD2A98D0EF2A94BF94
:1010200002F0F0051546A5F180037F2B8FD801A1B2
:1010300051F823F09D1200004F0F00004F0F0000E9
:101040004F0F00004F0F00004F0F00004F0F000028
:101050004F0F00004F0F00004F0F00004F0F000018
:101060004F0F00004F0F00004F0F00004F0F000008
:101070004F0F00009D1200004F0F00004F0F0000A7
:101080004F0F00004F0F00004F0F00004F0F0000E8
:101090004F0F00004F0F00004F0F00004F0F0000D8
:1010A0004F0F00004F0F00004F0F00004F0F0000C8
:1010B0004F0F00009D1200004F0F00004F0F000067
:1010C0004F0F00004F0F00004F0F00004F0F0000A8
:1010D0004F0F00004F0F00004F0F00004F0F000098
:1010E0004F0F00004F0F00004F0F00004F0F000088
:1010F0004F0F00009D1200004F0F00004F0F000027
:101100004F0F00004F0F00004F0F00004F0F000067
:101110004F0F00004F0F00004F0F00004F0F000057
:101120004F0F00004F0F00004F0F00004F0F000047
:101130004F0F0000951200004F0F00004F0F0000EE
:101140004F0F00004F0F00004F0F00004F0F000027
:101150004F0F00004F0F00004F0F00004F0F000017
:101160004F0F00004F0F00004F0F00004F0F000007
:101170004F0F0000951200004F0F00004F0F0000AE
:101180004F0F00004F0F00004F0F00004F0F0000E7
:101190004F0F00004F0F00004F0F00004F0F0000D7
:1011A0004F0F00004F0F00004F0F00004F0F0000C7
:1011B0004F0F00009D1200004F0F00004F0F000066
:1011C0004F0F00004F0F00004F0F00004F0F0000A7
:1011D0004F0F00004F0F00004F0F00004F0F000097
:1011E0004F0F00004F0F00004F0F00004F0F000087
:1011F0004F0F000053120000951200009D120000D6
:10120000951200004F0F00004F0F00003512000034
:101210005312000035120000351200003512000094
:1012200035120000351200004F0F0000351200008B
:10123000351200000023012084F8743084F87630E1
:1012400084F8773084F875506366236684F8F80074
:10125000F8BD80210023216684F8785084F8593045
:101260007F21636E8B422ED302F00F0200230132E6
:1012700094F85C1084F87420012084F8761084F8C7
:10128000773084F8755063662366C4F8FC0084F8F0
:10129000F800F8BD022323660121E2E70323236659
:1012A0000221DEE7164606F0DF05902D3FF4A8AEDA
:1012B00006F0BF05A02D3FF4A3AE06F0EF06C02E4A
:1012C0003FF49EAE3FE6013363660020F8BDD02AAE
:1012D0003FF42FAEE02A3FF42CAEC02A7FF428AEB4
:1012E00027E6F02280230025012194F8F76084F896
:1012F000752084F8763084F8F720C4F8FC30204656
:1013000084F8775084F8745084F8F810FFF798FC4C
:10131000F722022384F8796084F8782028466366EF
:10132000F8BD94F87810F02902D0F7297FF40FAEB9
:10133000551C224400214FEA152E82F878300126F0
:10134000F02784F8765084F877E084F8741084F8F5
:1013500059103046C4F8FC5084F8757061662166F7
:1013600084F8F860F8BD1A46B7E503F10C02D2B272
:10137000012A7FF6ECAD1A4650E6902A3FF40EAEF5
:10138000ADE500BF90F87030DA0718D513F0FE0F06
:1013900015D070B590F8755085F08002602A82B043
:1013A00004460DD890F874608E4231D081B35B084A
:1013B000012B32D0032B00F09F8002B070BD70472C
:1013C000A5F1F0030F2BF8D801A252F823F000BFCB
:1013D000C7140000A5140000731400005714000087
:1013E000BB130000BB1300002F140000BB13000050
:1013F0002F140000BB1300002F1400002F14000056
:101400002F140000BB1300002F1400002F14000045
:101410005B08012B01D0022BCFD194F8773094F8E0
:101420007620009629462046FFF72AFBC5E705F1FE
:101430000803DBB2072BC0D8012202FA03F313F032
:10144000DD0FBAD0636D1868036829461B6802B0C7
:10145000BDE870401847436D90F8765018680368EF
:10146000F3211B689847636D186805F07F010368D6
:10147000ECE7436D90F87750186894F8762003688D
:10148000F2211B6842EAC5159847636D1868036826
:1014900005F07F011B689847636D1868C5F3C61196
:1014A0000368D3E7436D90F87650186894F8773066
:1014B00002682D0103F00F03126805F07005F12199
:1014C0001D439047BEE790F8763090F8776043EA86
:1014D0000626802E28BF802600F17805002E3FF4D6
:1014E0006CAF2E44636D15F8011B186803681B6808
:1014F0009847B542F6D160E794F8773094F87620B3
:1015000000962946FFF7BCFA57E700BF2DE9F047E0
:10151000D14DD24ED24CDFF89494D24FDFF8908464
:10152000DFF890A486B009F0C7FF2846CE49FEF741
:10153000EFFF05F11800CD49FEF7EAFF05F1300095
:10154000CB49FEF7E5FF05F14800CA49FEF7E0FF89
:1015500005F16000C849FEF7DBFF05F17800C749D7
:10156000FEF7D6FF05F19000C549FEF7D1FF05F162
:10157000A800C449FEF7CCFF05F1C000C249FEF740
:10158000C7FF05F1D800C149FEF7C2FF05F1F00021
:10159000BF49FEF7BDFF05F58470BE49FEF7B8FFF1
:1015A00005F59070BC49FEF7B3FF05F59C70BB498B
:1015B000FEF7AEFF05F5A870B949FEF7A9FF05F5DE
:1015C000B470B849FEF7A4FF05F5C070B649FEF740
:1015D0009FFF05F5CC70B549FEF79AFF05F5D87069
:1015E000B349FEF795FF05F5E470B249FEF790FFA9
:1015F00005F5F070B049FEF78BFF05F5FC70AF49BB
:10160000FEF786FF05F50470AD49FEF781FF05F58D
:101610000A70AC49FEF77CFF05F51070AA49FEF789
:1016200077FF05F51670A949FEF772FF05F51C70E6
:10163000A749FEF76DFF05F52270A649FEF768FF82
:1016400005F52870A449FEF763FF05F52E70A34940
:10165000FEF75EFF05F53470A149FEF759FF05F569
:101660003A70A049FEF754FF05F540709E49FEF719
:101670004FFF05F546709D49FEF74AFF05F54C7092
:101680009B49FEF745FF05F552709A49FEF740FF6A
:1016900005F558709849FEF73BFF05F55E709749D0
:1016A000FEF736FF05F564709549FEF731FF05F545
:1016B0006A709449FEF72CFF05F570709249FEF7A9
:1016C00027FF05F576709149FEF722FF05F57C703E
:1016D0008F49FEF71DFF05F581608E49FEF718FF63
:1016E00005F584608C49FEF713FF05F587608B498B
:1016F000FEF70EFF05F58A608949FEF709FF05F53B
:101700008D608849FEF704FF05F590608649FEF775
:10171000FFFE05F593608549FEF7FAFE05F5966034
:101720008349FEF7F5FE05F599608249FEF7F0FE64
:1017300005F59C608049FEF7EBFE05F59F607F494B
:10174000FEF7E6FE05F5A2607D49FEF7E1FE05F530
:10175000A5607C49FEF7DCFE05F5A8607A49FEF736
:10176000D7FE05F5AB607949FEF7D2FE05F5AE6010
:101770007749FEF7CDFE05F5B1607649FEF7C8FE64
:1017800005F5B4607449FEF7C3FE05F5B76073490B
:10179000FEF7BEFE05F5BA607149FEF7B9FE05F524
:1017A000BD607049FEF7B4FE05F5C0606E49FEF7F6
:1017B000AFFE05F5C3606D49FEF7AAFE05F5C660EC
:1017C0006B49FEF7A5FE05F5C9606A49FEF7A0FE64
:1017D00005F5CC606849FEF79BFE05F5CF606749CB
:1017E000FEF796FE05F5D2606549FEF791FE05F518
:1017F000D5606449FEF78CFE05F5D8606249FEF7B6
:1018000087FE05F5DB606149FEF782FE05F5DE60C7
:101810005F49FEF77DFE05F5E1605E49FEF778FE63
:1018200005F5E4605C49FEF773FE05F5E7605B498A
:10183000FEF76EFE05F5EA605949FEF769FE05F50B
:10184000ED605849FEF764FE05F5F0605649FEF775
:101850005FFE05F5F360AFE0501BFF1F080CFF1F94
:101860005028FF1FA9E200001C35020020350200AD
:10187000283502002C3502003435020038350200CC
:101880003C35020044350200483502005035020064
:10189000543502005C3502006035020064350200F8
:1018A000683502006C3502007035020074350200A4
:1018B000783502007C350200803502008435020054
:1018C000883502008C350200903502009435020004
:1018D000983502009C350200A0350200A4350200B4
:1018E000A8350200AC350200B0350200B435020064
:1018F000B8350200BC350200C0350200C435020014
:10190000C8350200CC350200D0350200D4350200C3
:10191000D8350200DC350200E0350200E435020073
:10192000E8350200EC350200F0350200F435020023
:10193000F8350200FC3502000036020004360200D1
:10194000083602000C36020010360200143602007F
:10195000183602001C36020020360200243602002F
:10196000283602002C3602003036020034360200DF
:10197000383602003C36020040360200443602008F
:10198000483602004C36020050360200543602003F
:10199000583602005C3602006036020064360200EF
:1019A000683602006C360200703602007834FF1F81
:1019B000D827FF1F5834FF1FD249FEF7A9FD05F5B0
:1019C000F660D149FEF7A4FD05F5F960CF49FEF7B1
:1019D0009FFD05F5FC60CE49FEF79AFD05F5FF6019
:1019E000CC49FEF795FD05F50160CB49FEF790FD6A
:1019F00005F62800C949FEF78BFD05F50460C849C6
:101A0000FEF786FD05F65800C649FEF781FD05F58F
:101A10000760C549FEF77CFD05F68800C349FEF75F
:101A200077FD05F50A60C249FEF772FD05F6B800BC
:101A3000C049FEF76DFD05F50D60BF49FEF768FD75
:101A400005F6E800BD49FEF763FD05F51060BC49E9
:101A5000FEF75EFD05F61810BA49FEF759FD05F5CB
:101A60001360B949FEF754FD05F64810B749FEF773
:101A70004FFD05F51660B649FEF74AFD05F67810EC
:101A8000B449FEF745FD05F51960B349FEF740FD81
:101A900005F6A810B149FEF73BFD05F51C60B049FD
:101AA000FEF736FD05F6D810AE49FEF731FD05F517
:101AB0001F60AD49FEF72CFD05F60820AB49FEF787
:101AC00027FD05F52260AA49FEF722FD05F638201C
:101AD000A849FEF71DFD05F52560A749FEF718FD8D
:101AE00005F66820A549FEF713FD05F52860A44911
:101AF000FEF70EFD05F69820A249FEF709FD05F553
:101B00002B60A149FEF704FD05F6C8209F49FEF7AA
:101B1000FFFC05F52E609E49FEF7FAFC05F6F8205D
:101B20009C49FEF7F5FC05F531609B49FEF7F0FC9A
:101B300005F628309949FEF7EBFC05F53460984925
:101B4000FEF7E6FC05F658309649FEF7E1FC05F590
:101B500037609549FEF7DCFC05F688309349FEF7BF
:101B6000D7FC05F53A609249FEF7D2FC05F6B8308D
:101B70009049FEF7CDFC05F53D608F49FEF7C8FCA6
:101B800005F6E8308D498E4DFEF7C2FC32468D4990
:101B900000200CF07FFA20468B49FEF7B9FC04F1D7
:101BA00018008A49FEF7B4FC04F130008849FEF7BA
:101BB000AFFC04F148008749FEF7AAFC04F160007D
:101BC0008549FEF7A5FC04F178008449FEF7A0FCE6
:101BD00004F190008249FEF79BFC04F1A8008149C2
:101BE000FEF796FC04F1C0007F49FEF791FC04F17A
:101BF000D8007E49FEF78CFC04F1F0007C49FEF72A
:101C000087FC04F584707B49FEF782FC04F5907034
:101C10007949FEF77DFC04F59C707849FEF778FC65
:101C200004F5A8707649FEF773FC04F5B4707549A5
:101C3000FEF76EFC04F5C0707349FEF769FC04F50D
:101C4000CC707249FEF764FC04F5D8707049FEF759
:101C50005FFC04F5E4706F49FEF75AFC04F5F07080
:101C60006D49FEF755FC04F5FC706C49FEF750FC1D
:101C700004F504706A49FEF74BFC04F50A706949E3
:101C8000FEF746FC04F510706749FEF741FC04F5C9
:101C900016706649FEF73CFC04F51C706449FEF7BB
:101CA00037FC04F522706349FEF732FC04F5287016
:101CB0006149FEF72DFC04F52E706049FEF728FC03
:101CC00004F534705E49FEF723FC04F53A705D4973
:101CD000FEF71EFC04F540705B49FEF719FC04F5A5
:101CE00046705A49FEF714FC04F54C705849FEF74B
:101CF0000FFC04F552705749FEF70AFC04F55870C2
:101D0000AAE000BF74360200783602007C3602007A
:101D10008036020084360200883602008C360200CB
:101D20009036020094360200983602009C3602007B
:101D3000A0360200A4360200A8360200AC3602002B
:101D4000B0360200B4360200B8360200BC360200DB
:101D5000C0360200C4360200C8360200CC3602008B
:101D6000D0360200D4360200D8360200DC3602003B
:101D7000E0360200E4360200E8360200EC360200EB
:101D8000F0360200F4360200F8360200FC3602009B
:101D90000037020004370200083702000C37020047
:101DA0001037020014370200183702001C370200F7
:101DB0002037020024370200283702002C370200A7
:101DC0001428FF1F9104000030370200383702004A
:101DD000443702004C3702005837020060370200D7
:101DE00068370200743702007C370200883702002F
:101DF000903702009C370200A4370200AC37020083
:101E0000B4370200BC370200C4370200CC370200EE
:101E1000D4370200DC370200E4370200EC3702005E
:101E2000F4370200FC370200043802000C380200CC
:101E3000143802001C380200243802002C3802003A
:101E4000343802003C380200443802004C380200AA
:101E5000543802005C380200D349FEF759FB04F500
:101E60005E70D249FEF754FB04F56470D049FEF76A
:101E70004FFB04F56A70CF49FEF74AFB04F570701A
:101E8000CD49FEF745FB04F57670CC49FEF740FBE3
:101E900004F57C70CA49FEF73BFB04F58160C94933
:101EA000FEF736FB04F58460C749FEF731FB04F505
:101EB0008760C649FEF72CFB04F58A60C449FEF72B
:101EC00027FB04F58D60C349FEF722FB04F5906003
:101ED000C149FEF71DFB04F59360C049FEF718FBEE
:101EE00004F59660BE49FEF713FB04F59960BD4901
:101EF000FEF70EFB04F59C60BB49FEF709FB04F5F9
:101F00009F60BA49FEF704FB04F5A260B849FEF7EA
:101F1000FFFA04F5A560B749FEF7FAFA04F5A860E0
:101F2000B549FEF7F5FA04F5AB60B449FEF7F0FAEF
:101F300004F5AE60B249FEF7EBFA04F5B160B149C1
:101F4000FEF7E6FA04F5B460AF49FEF7E1FA04F5EE
:101F5000B760AE49FEF7DCFA04F5BA60AC49FEF7AB
:101F6000D7FA04F5BD60AB49FEF7D2FA04F5C060BC
:101F7000A949FEF7CDFA04F5C360A849FEF7C8FAEF
:101F800004F5C660A649FEF7C3FA04F5C960A54981
:101F9000FEF7BEFA04F5CC60A349FEF7B9FA04F5E2
:101FA000CF60A249FEF7B4FA04F5D260A049FEF76B
:101FB000AFFA04F5D5609F49FEF7AAFA04F5D86098
:101FC0009D49FEF7A5FA04F5DB609C49FEF7A0FAEF
:101FD00004F5DE609A49FEF79BFA04F5E160994941
:101FE000FEF796FA04F5E4609749FEF791FA04F5D6
:101FF000E7609649FEF78CFA04F5EA609449FEF72B
:1020000087FA04F5ED609349FEF782FA04F5F06073
:102010009149FEF77DFA04F5F3609049FEF778FAEE
:1020200004F5F6608E49FEF773FA04F5F9608D4900
:10203000FEF76EFA04F5FC608B49FEF769FA04F5C9
:10204000FF608A49FEF764FA04F501608849FEF7EB
:102050005FFA04F628008749FEF75AFA04F504608F
:102060008549FEF755FA04F658008449FEF750FA00
:1020700004F507608249FEF74BFA04F688008149AF
:10208000FEF746FA04F50A607F49FEF741FA04F6C6
:10209000B8007E49FEF73CFA04F50D607C49FEF776
:1020A00037FA04F6E8007B49FEF732FA04F51060CF
:1020B0007949FEF72DFA04F618107849FEF728FA48
:1020C00004F513607649FEF723FA04F648107549C3
:1020D000FEF71EFA04F516607349FEF719FA04F6C6
:1020E00078107249FEF714FA04F519607049FEF78A
:1020F0000FFA04F6A8106F49FEF70AFA04F51C60FF
:102100006D49FEF705FA04F6D8106C49FEF700FA9F
:1021100004F51F606A49FEF7FBF904F608206949D7
:10212000FEF7F6F904F522606749FEF7F1F904F6C7
:1021300038206649FEF7ECF904F525606449FEF79E
:10214000E7F904F668206349FEF7E2F904F5286030
:102150006149FEF7DDF904F698206049FEF7D8F9E9
:1021600004F52B605E49FEF7D3F904F6C8205D49FB
:10217000FEF7CEF904F52E605B49FEF7C9F904F6C7
:10218000F8205A49FEF7C4F904F531605849FEF7C2
:10219000BFF904F628305749FEF7BAF904F5346060
:1021A0005549FEF7B5F9A9E0643802006C38020021
:1021B000743802007C380200843802008C38020037
:1021C000943802009C380200A4380200AC380200A7
:1021D000B4380200BC380200C4380200CC38020017
:1021E000D4380200DC380200E4380200EC38020087
:1021F000F4380200FC380200043902000C390200F5
:10220000143902001C390200243902002C39020062
:10221000343902003C390200443902004C390200D2
:10222000543902005C390200643902006C39020042
:10223000743902007C390200843902008C390200B2
:10224000943902009C390200A4390200AC39020022
:10225000B4390200BC390200C4390200CC39020092
:10226000D4390200DC390200E4390200EC39020002
:10227000F4390200FC390200043A02000C3A020070
:10228000143A02001C3A0200243A02002C3A0200DE
:10229000343A02003C3A0200443A02004C3A02004E
:1022A000543A02005C3A0200643A02006C3A0200BE
:1022B000743A02007C3A0200843A02008C3A02002E
:1022C000943A02009C3A0200A43A0200AC3A02009E
:1022D000B43A0200BC3A0200C43A0200CC3A02000E
:1022E000D43A0200DC3A0200E43A0200EC3A02007E
:1022F000F43A0200FC3A0200043B020004F65830B3
:102300003449FEF705F904F537603349FEF700F963
:1023100004F688303149FEF7FBF804F53A6030499D
:10232000FEF7F6F804F6B8302E49FEF7F1F804F59A
:102330003D602D49FEF7ECF804F6E8302B492C4CB3
:10234000FEF7E6F832462B4900200BF0A3FE484684
:102350002949FEF7DDF83246394648460BF09AFE29
:1023600040462649FEF7D4F83246394640460BF03F
:1023700091FE28462249FEF7CBF8324639462846D8
:102380000BF088FE50461F49FEF7C2F83246394628
:1023900050460BF07FFE0C250D210B220A230291E3
:1023A000019200932046092303954022802108F0E2
:1023B00049FA3246204614490BF06CFE134B14497F
:1023C0001B6805930598134B134A08601A6006B002
:1023D000BDE8F0870C3B0200143B02001C3B0200EE
:1023E000243B02002C3B0200343B02003C3B020039
:1023F0007027FF1F6D040000443B0200543B0200A5
:10240000643B0200743B020095A80000A834FF1F43
:102410005434FF1F0028FF1F4810FF1F2DE9F04F05
:102420004A4E4B4FDFF83491DFF834A187B00DF1FD
:1024300008080125454808F059FD0121434807F0E7
:102440001DFB444AB5820023A2F19A016846F3813C
:1024500033827582CDF80080FEF72CF8009C204670
:1024600016F0EEFF2146024638480AF0FDFC3748D8
:1024700008F048FE3C68206807F0E6FD206807F099
:1024800013FE834600284BD02571D9F80040206800
:1024900007F0DAFD206807F007FE8346002837D0F2
:1024A0002571DAF80040206807F0CEFD206807F0BB
:1024B000FBFD834620B325713B68186807F0F4FDE7
:1024C00088B10023244A19466520137009F054F896
:1024D0000098404504D001240AF028FE002CA9D021
:1024E00007B0BDE8F08FD9F80030186807F0DCFDC0
:1024F000F0B1194B012165201D7009F03DF8E7E7A7
:10250000206807F0C7FD0028D6D084F804B0D3E7D0
:10251000206807F0BFFD0028C3D084F804B0C0E7EE
:10252000206807F0B7FD0028AFD084F804B0ACE70E
:10253000DAF80030186807F0B7FD04460098404507
:10254000CAD1002C3FF476AFCAE700BF7027FF1F47
:102550002C28FF1F1E3C02006827FF1F4028FF1F7A
:102560005027FF1F2DE9F04F034699B01F680590D3
:102570004FF4967009F032F9A04D7B0003930DF1F2
:10258000200901269D4808F0B1FC01219B4807F075
:1025900075FA9B4AAE820023A2F1430106A8EB81A3
:1025A0002B826E82CDF81890FDF784FF069C2046A2
:1025B00016F046FF2146024690480AF055FC0221DB
:1025C0008E4807F05BFA039B8E49DA198E4B0CA8F4
:1025D00003EBC202FEF72AFA0D9A6FF000439A420B
:1025E00000F00581012289490CA80BF0FFFF0DF1D5
:1025F00050080346CDF8488053F8082B9A42044609
:1026000000F0DE808168129214916268139218A91A
:10261000236051F8180D069B00224045626022722B
:1026200000F099804B4500F0B4801399149A0791FB
:10263000069008990892002B00F0B0801293149134
:10264000002213921A701298404501D00AF06EFDD4
:102650000C980EAB984201D00AF068FD069CDFF89A
:10266000B481204616F0ECFE2146024663480AF08B
:10267000FBFB0121614807F001FA1721644B079A1F
:10268000009106A800210BF0E5FE069C204616F0FE
:10269000D7FE2146024659480AF0E6FB574808F0A3
:1026A00031FDD8F80040206807F0CEFC206807F024
:1026B000FBFC8246002846D02671DFF85CA1DAF8E0
:1026C0000040206807F0C0FC206807F0EDFC83465E
:1026D00088B32671DFF848B1DBF80040206807F0C6
:1026E000B3FC206807F0E0FCE0B12671D8F80030B8
:1026F000484C186807F0D8FC40B1182F41DC069808
:1027000048453FF43FAF0AF011FD3BE723681B79D2
:1027100033B3182FF3DD013F7B009620039309F0BC
:102720005DF8ECE70490206807F0B4FC0028DDD0E9
:10273000049B2371DAE7206807F0ACFC0028C9D0BD
:1027400084F804B0C6E7206807F0A4FC0028B4D0E1
:1027500084F804A0B1E706A80BF0F8FC129B6FE721
:10276000DAF800302C4C186807F09EFCE0B16E2FB0
:10277000C5DC01377B004FF49670039309F02EF807
:10278000BDE7013F7B004FF49670039309F026F8F4
:10279000B5E7139A149B069007920893CDF84880EA
:1027A0000DF1500843464BE723681B7983B16E2F28
:1027B000A5DC01377B009620039309F00FF89EE714
:1027C000194610224046049308F0A2FD049B1CE722
:1027D000DBF80030186807F067FC00288FD00698F7
:1027E000059B48451F6005D119B0BDE8F08F0B4827
:1027F0000BF06EFC0AF09AFCF6E700BF7027FF1F93
:10280000633C0200204102005028FF1F7045020077
:10281000643C02002C28FF1F4028FF1F04350200E3
:102820005027FF1F2DE9F04FDFF8DCB2DFF80C93E3
:10283000BFB04FF0010AB44808F058FB0121B2487C
:1028400007F01CF9B14BB2491B681A68ABF814A029
:1028500002EB4202002309EBC20208A8ABF80E30DB
:10286000ABF81030ABF812A0FEF7E0F8099A6FF061
:1028700000439B1A0E2B40F29A820F22A54908A80A
:102880000BF0B4FE0DF140080546CDF8388055F840
:10289000083BAB42044600F05F8282680E931092C0
:1028A00063680F939C4B25601A6800232372636052
:1028B000136803EB430309EBC30259F83310526862
:1028C0000EA80BF093FE16AB0546149355F8083B83
:1028D000AB42044600F03A82826814931692636811
:1028E000159300226260159922726FF000435B1A03
:1028F0000E2B256040F25B820F22884914A80BF052
:1029000075FE1CAB05461A9355F8083BAB420446CE
:1029100000F0168282681A931C9263681B93804BA6
:1029200025601A68002323726360136803EB430376
:1029300009EBC30259F8331052681AA80BF056FE7F
:1029400022AB0546209355F8083BAB42044600F005
:10295000F181826820932292636821930022626051
:10296000219922726FF000435B1A0E2B256040F212
:102970001E820F226B4920A80BF038FE28AD0646B8
:10298000269556F8083BB342044600F00A82826856
:102990002693289263682793634B26601A68002366
:1029A00023726360136803EB430309EBC30259F816
:1029B0003310526826A80BF019FE2EAE07462C964F
:1029C00057F8083BBB42044600F0E58182682C932F
:1029D0002E9263682D93002262602D9922726FF00F
:1029E00000435B1A0E2B276040F2E1810F224F4912
:1029F0002CA80BF0FBFD34AF0346329753F8082B9D
:102A00009A42044600F0BF81816832923491626834
:102A100033922360464B1A68002323726360136865
:102A200003EB430309EBC30259F83310526832A891
:102A30000BF0DCFD3AAA0346389253F8082B9A4271
:102A4000044600F09881816838923A916268399220
:102A500000226260399923606FF000435B1A182BE3
:102A6000227240F2A4811922324938A80BF0BEFD2F
:102A700004AA0346029253F8082B9A42044600F037
:102A80007181816802920491626803922360389890
:102A90000023636023723AAB984201D00AF046FBF0
:102AA0003298B84201D00AF041FB2C98B04201D0D4
:102AB0000AF03CFB2698A84201D00AF037FB209888
:102AC00022AB984201D00AF031FB1A981CAB984215
:102AD00001D00AF02BFB149816AB984201D00AF0F3
:102AE00025FB0E98404501D00AF020FB08980AAB60
:102AF000984201D00AF01AFB029C0F4D204616F0B6
:102B00009FFC214602461BE07027FF1F3C28FF1F49
:102B10007C3C0200B83C0200FC27FF1FC83C0200BE
:102B20007034FF1FD83C0200F827FF1FE83C02006A
:102B30009C34FF1FF83C02002C28FF1F501BFF1F76
:102B40009C480AF091F99B4808F0DCFA2C68206850
:102B500007F07AFA206807F0A7FA0646002800F086
:102B6000C58084F804A0944B1C68206807F06CFAB8
:102B7000206807F099FA0646002800F0AF8084F834
:102B800004A08E4B1C68206807F05EFA206807F0EE
:102B90008BFA0646002800F0998084F804A0884B40
:102BA0001C68206807F050FA206807F07DFA064696
:102BB000002800F0838084F804A0824E34682068E6
:102BC00007F042FA206807F06FFA074600286ED037
:102BD00084F804A07C4F3C68206807F035FA206830
:102BE00007F062FA8046002859D084F804A0DFF884
:102BF000F481D8F80040206807F026FA206807F032
:102C000053FA002831D084F804A02B68186807F024
:102C10004BFA002837D1684B1B68186807F044FA54
:102C200000286BD1654B1B68186807F03DFA002837
:102C300069D1634B1B68186807F036FA002867D122
:102C40003368186807F030FA002866D13B681868C6
:102C500007F02AFA002865D0029804AB984201D008
:102C60000AF064FA3FB0BDE8F08F0190206807F0E9
:102C700011FA0028C9D0019B23712B68186807F04E
:102C800013FA0028C7D0514B1868FFF76BFC029865
:102C900004AB98423FF4CFAD0AF048FACBE5206888
:102CA00007F0F8F90028A2D084F804809FE7206894
:102CB00007F0F0F900288DD027718BE7206807F026
:102CC000E9F900283FF479AF267176E7206807F02C
:102CD000E1F900283FF463AF267160E7206807F050
:102CE000D9F900283FF44DAF26714AE7206807F074
:102CF000D1F900283FF437AF267134E7344B186818
:102D0000FFF730FCC3E7334B1868FFF72BFCBEE737
:102D1000314B1868FFF726FCB9E7304B1868FFF70E
:102D200021FCB4E7D8F80030186807F0BDF9002896
:102D300092D1ACE71022294622A808F0E9FA0BE666
:102D4000102229461CA808F0E3FAE6E510222946DD
:102D500016A808F0DDFAC2E510222946404608F020
:102D6000D7FA9DE5102219460DEB0200019308F0F9
:102D7000CFFA019B88E6194610223AA8019308F081
:102D8000C7FA019B62E6194610223846019308F003
:102D9000BFFA019B3BE610223946304608F0B8FAEC
:102DA00017E610223146284608F0B2FAF2E50C4840
:102DB0000BF08EF97027FF1F4028FF1F0828FF1F08
:102DC0006427FF1FA034FF1F5827FF1F3C28FF1F49
:102DD000FC27FF1F7034FF1FF827FF1F9C34FF1FC5
:102DE000043502005027FF1F2DE9F04F9DB0034628
:102DF00003904FF49670D3F80880B14E08F0EEFCC3
:102E000001270024AE4808F071F80121AC4806F013
:102E100035FEAC4AB78206ABA2F1430104A8049385
:102E20007782F4813482FDF745FB049D284616F035
:102E300007FB29460246A2480AF016F80221A048DC
:102E400006F01CFE41460AA8FDF798FD0022032368
:102E5000009311469C4B0AA80BF0FCFA12AA0346F9
:102E6000109253F8082B9A42054600F00A818168B7
:102E7000109212916A6811926C6011992C726FF025
:102E8000004291422B6000F0178101228F4910A867
:102E90000BF0ACFB0DF160090346CDF8589053F8E8
:102EA000082B9A42054600F0E4808168169218913A
:102EB0006A6817921CA92B6051F8180D2C724845AE
:102EC0006C60049B00F0A88006AA934200F0BA80D0
:102ED0001799189A0591049006990692002B00F014
:102EE000B6801693189117941C701698484501D017
:102EF0000AF01CF9109812AB984201D00AF016F9AA
:102F00000A980CAB984201D00AF010F9049DDFF842
:102F1000C491284616F094FA29460246684809F0FA
:102F2000A3FF0121664806F0A9FD1721684B059A09
:102F3000009104A800210BF08DFA049D284616F09C
:102F40007FFA294602465E4809F08EFF5C4808F089
:102F5000D9F8D9F80050286807F076F8286807F003
:102F6000A3F8824600284FD02F71DFF86CA1DAF861
:102F70000050286807F068F8286807F095F883463D
:102F8000002839D02F71DFF858B1DBF800502868DD
:102F900007F05AF8286807F087F820B32F71D9F89E
:102FA00000304C4D186807F07FF880B1B8F1000F81
:102FB00005DD4FF4967008F1FF3808F00FFC049817
:102FC00006AB98423FF41EAF0AF0B0F81AE72B6840
:102FD0001B7933B3B8F1000FF1DD642008F1FF383D
:102FE00008F0FCFBEBE70290286807F053F8002894
:102FF000D5D0029B2B71D2E7286807F04BF8002848
:10300000C1D085F804B0BEE7286807F043F800286F
:10301000ABD085F804A0A8E704A80BF097F8169B9E
:1030200061E7DAF800302C4D186807F03DF8A0B1E0
:10303000B8F17E0FC3DC4FF4967008F1010808F078
:10304000CDFBBCE7179A189B049005920693CDF828
:1030500058900DF160094B4645E72B681B79C3B1C9
:10306000B8F17E0FABDC642008F1010808F0B6FB74
:10307000A5E7194610224846029308F049F9029B39
:1030800016E71946102212A8029308F041F9029B94
:10309000F0E6DBF80030186807F006F800288ED05C
:1030A000039B0498C3F8088006AB984201D00AF04D
:1030B0003DF81DB0BDE8F08F08480BF009F800BFDF
:1030C0007027FF1F573D0200F037020070450200D5
:1030D000643C02002C28FF1F4028FF1F043502001B
:1030E0005027FF1F2DE9F04F4FF0010AF1B04FF0CC
:1030F000000BB24807F0FAFE0121B04806F0BEFC12
:10310000AF4BAE4A1B68A2F814A09968A2F812A0AF
:103110000AA8A2F80EB0A2F810B0FDF72FFC2323E6
:10312000002200931146A74B0AA80BF093F912ABAB
:103130000546109355F8083BAB42044600F08983DE
:1031400082681093129263681193C4F804B0119AC4
:1031500084F808B06FF000439B1A0E2B256040F2F4
:10316000C3830F22984910A80BF040FA0DF16008B4
:103170000546CDF8588055F8083BAB42044600F0B0
:103180006283826816931892636817938F4B256049
:103190001B6884F808B0C4F804B099681CA8FDF74F
:1031A000EDFB169B1D9A179C434514BF18990F21E0
:1031B000A01888421C9940F2C9821EADA94214BFD2
:1031C0001E9D0F25A84200F2C182002200941146E4
:1031D0001CA80BF03FF90446254624AB229355F872
:1031E000083BAB4200F03B83A268229324926368C1
:1031F0002393C4F804B0239A84F808B06FF0004316
:103200009B1A0E2B256040F26F830F22704922A873
:103210000BF0ECF90DF1A8090546CDF8A09055F892
:10322000083BAB42044600F00883826828932A9248
:1032300063682993674B25601B6884F808B0C4F85D
:1032400004B099682EA8FDF799FB289B2F9A299C1A
:103250004B4514BF2A990F21A01888422E9940F29D
:103260007A8230ADA94214BF309D0F25A84200F2EA
:1032700072820022009411462EA80BF0EBF804464F
:10328000254636AB349355F8083BAB4200F0ED824F
:10329000A2683493369263683593C4F804B0359AC3
:1032A00084F808B06FF000439B1A0E2B256040F2A3
:1032B0001B830F22484934A80BF098F93CAF054610
:1032C0003A9755F8083BAB42044600F0DC8282682E
:1032D0003A933C9263683B93404B25601B6884F8AB
:1032E00008B0C4F804B0996840A8FDF747FB3A9BC2
:1032F0003B9C419ABB4214BF3C990F21A0188842C5
:10330000409940F22D8242ADA94214BF429D0F2543
:10331000A84200F225820022009440A811460BF03A
:1033200099F80446254648AB469355F8083BAB420E
:1033300000F0AF82A2684693489263684793C4F84E
:1033400004B0479A84F808B06FF000439B1A0E2B24
:10335000256040F2C9820F22214946A80BF046F9A8
:103360004EAD06464C9556F8083BB342044600F075
:10337000968282684C934E9263684D93194B2660F7
:103380001B6884F808B0C4F804B0996852A8FDF727
:10339000F5FA4C9B4D9C539AAB4214BF4E990F21AA
:1033A000A0188842529940F2E08154AEB14214BF55
:1033B000549E0F26B04200F2D88115E07027FF1FFF
:1033C0003C28FF1F583D0200B83C0200FC27FF1FAD
:1033D000C83C02007034FF1FD83C0200F827FF1FD2
:1033E000E83C02009C34FF1F0022009452A81146C2
:1033F0000BF030F8044626465AAB589356F8083B73
:10340000B34200F06282A26858935A92636859935B
:10341000C4F804B0599A84F808B06FF000439B1ABE
:103420000E2B266040F260820F22B54958A80BF09F
:10343000DDF860AE03465E9653F8082B9A420446C8
:1034400000F03B8281685E92609162685F922360C7
:10345000AC4B84F808B01B68C4F804B0996864A841
:10346000FDF78CFA5E9B5F9C659AB34214BF60992E
:103470000F21A0188842649940F27C810DF5CC7E22
:10348000714514BFDDF898E14FF00F0E704500F262
:1034900071810022009464A811460AF0DBFF044603
:1034A00023466CAA6A9253F8082B9A4200F0FD81D9
:1034B000A1686A926C9162686B92C4F804B06B99CF
:1034C00084F808B06FF00042521A122A236040F2CA
:1034D0000B8213228C496AA80BF088F806AA0346CF
:1034E000049253F8082B9A42044600F0C481816884
:1034F000049206916268059223606A9884F808B085
:103500006CAB9842C4F804B001D009F00FFE649887
:1035100066AB984201D009F009FE5E98B04201D036
:1035200009F004FE58985AAB984201D009F0FEFD0C
:10353000529854AB984201D009F0F8FD4C98A8423B
:1035400001D009F0F3FD469848AB984201D009F04C
:10355000EDFD409842AB984201D009F0E7FD3A9862
:10356000B84201D009F0E2FD349836AB984201D060
:1035700009F0DCFD2E9830AB984201D009F0D6FD61
:103580002898484501D009F0D1FD229824AB9842F3
:1035900001D009F0CBFD1C981EAB984201D009F078
:1035A000C5FD1698404501D009F0C0FD109812AB3A
:1035B000984201D009F0BAFD0A980CAB984201D0AC
:1035C00009F0B4FD049C514D204615F039FF214609
:1035D00002464F4809F048FC4D4807F093FD2C681F
:1035E000206806F031FD206806F05EFD06460028E2
:1035F00000F0028184F804A0464B1C68206806F0A5
:1036000023FD206806F050FD0646002800F0EC80FF
:1036100084F804A0404B1C68206806F015FD206863
:1036200006F042FD0646002800F0D68084F804A08B
:103630003A4E3468206806F007FD206806F034FD35
:103640000746002800F0C08084F804A0344F3C688E
:10365000206806F0F9FC206806F026FD8046002868
:1036600000F0A98084F804A0DFF8B880D8F8004002
:10367000206806F0E9FC206806F016FD8146002867
:1036800000F0908084F804A0DFF89C90D9F8004006
:10369000206806F0D9FC206806F006FD00286ED0F0
:1036A00084F804A02B68186806F0FEFC002874D18A
:1036B000184B1B68186806F0F7FC002840F0A4803F
:1036C000154B1B68186806F0EFFC002840F0A1803D
:1036D0003368186806F0E8FC002840F09F803B68DB
:1036E000186806F0E1FC002840F09D80D8F8003012
:1036F000186806F0D9FC002840F09A8016E000BF58
:103700007C3D02006027FF1F8C3D02002C28FF1F1C
:103710007027FF1F4028FF1F0828FF1F6427FF1F77
:10372000A034FF1F5827FF1F5027FF1FD9F8003074
:10373000186806F0B9FC002840F0CD80049806AB6C
:1037400098423FF4D6AC09F0F1FCD2E416A80AF096
:103750004DFF044640E528A80AF048FF04468FE5DF
:103760003AA80AF043FF0446DCE54CA80AF03EFF05
:10377000044640E65EA80AF039FF044690E603904E
:10378000206806F087FC00288CD0039B23712B68EF
:10379000186806F089FC00288AD0554B1868FFF796
:1037A00023FBCBE7206806F075FC00283FF46CAFE4
:1037B00084F8049068E7206806F06CFC00283FF469
:1037C00053AF84F804804FE7206806F063FC0028BC
:1037D0003FF43CAF277139E7206806F05BFC002816
:1037E0003FF426AF267123E7206806F053FC00283B
:1037F0003FF410AF26710DE7206806F04BFC00285F
:103800003FF4FAAE2671F7E63A4B1868FFF7ECFA88
:1038100094E7394B1868FFF7E7FA8FE7374B1868DA
:10382000FFF7E2FA8AE7364B1868FFF7DDFA85E71B
:10383000344B1868FFF7D8FA80E71022294648462B
:1038400007F066FDF4E410222946404607F060FDCB
:103850009AE41022294612A807F05AFD73E41022B8
:10386000294624A807F054FDC1E41022294636A8B1
:1038700007F04EFD0FE51946102206A8039307F046
:1038800047FD039B36E610222946384607F040FDE7
:1038900020E51022294648A807F03AFD4DE5102200
:1038A0003146284607F034FD66E5194610226CA81B
:1038B000039307F02DFD039BFDE5194610223046CA
:1038C000039307F025FD039BBFE5102231465AA85C
:1038D00007F01EFD9AE5049806AB984201D009F066
:1038E00025FC71B0BDE8F08F07480AF0F1FB00BF7E
:1038F0003C28FF1FFC27FF1F7034FF1FF827FF1F06
:103900009C34FF1F6027FF1F043502002DE9F04F94
:103910006B4C6C4FDFF8C091DFF8C0A18DB00DF19A
:1039200008080125664807F0E1FA0121644806F01D
:10393000A5F8654AA5820023A2F1B0016846E3819B
:1039400023826582CDF80080FCF7B4FD009E3046EE
:1039500015F076FD31460246594809F085FA584877
:1039600007F0D0FB3E68306806F06EFB306806F06A
:103970009BFB8346002800F08C803571D9F80060ED
:10398000306806F061FB306806F08EFB8346002845
:1039900077D03571DAF80060306806F055FB306892
:1039A00006F082FB8346002863D035713B681868B7
:1039B00006F07AFB064600283CD0444B00263146F0
:1039C00064201E6007F0D8FD3D4807F08FFA022101
:1039D0003B4806F053F83E4AE681A2F118010DF18A
:1039E000200B06A82682A5826582CDF818B0FCF7C8
:1039F00061FD069E304615F023FD314602463048F3
:103A000009F032FA2E4807F07DFB40F2EE2007F075
:103A1000E5FE0698584501D009F088FB009840451E
:103A200005D0012609F082FB002E3FF47BAF0DB0DC
:103A3000BDE8F08FD9F80030186806F035FB002893
:103A400030D0224B012164201D6007F095FD1C48F9
:103A500007F04CFA02211A4806F010F81D4AA58218
:103A6000A2F11A010DF1200B06A86582E6812682DB
:103A7000BBE7306806F00EFB002897D086F804B04C
:103A800094E7306806F006FB002883D086F804B07F
:103A900080E7306806F0FEFA00283FF46FAF86F842
:103AA00004B06BE7DAF80030186806F0FDFA064655
:103AB00000984045B6D1002E3FF434AFB7E700BFC1
:103AC0007027FF1F2C28FF1F503E02001028FF1FE9
:103AD0006C3E02008A3E02004028FF1F5027FF1F55
:103AE0002DE9F04F744DDFF8DC81DFF8DC91DFF871
:103AF000DCA1DFF8DCB18FB004AF01266E4807F01F
:103B0000F5F901216C4805F0B9FF6C4AAE8200233B
:103B1000A2F1B00102A8EB812B826E820297FCF722
:103B2000C9FC029C204615F08BFC214602466248E7
:103B300009F09AF9604807F0E5FAD8F800402068E3
:103B400006F082FA206806F0AFFA002800F09380B1
:103B50002671D9F80040206806F076FA206806F051
:103B6000A3FA00287DD02671DAF80040206806F01C
:103B70006BFA206806F098FA002869D02671DBF805
:103B80000040206806F060FA206806F08DFA0028F0
:103B900046D02671D8F80030186806F085FA00285B
:103BA0004DD0002420460021013407F0E5FCB4F597
:103BB000805FF7D1404807F099F902213E4805F0AF
:103BC0005DFF3F4AAE820023A2F119010AAC08A8AA
:103BD000EB812B826E820894FCF76CFC08990191B2
:103BE000084615F02DFC01990246334809F03CF9CE
:103BF000314807F087FA40F2EE2007F0EFFD089811
:103C0000A04201D009F092FA0298B84205D00124EE
:103C100009F08CFA002C3FF471AF0FB0BDE8F08FC3
:103C20000190206806F036FA0028B3D0019B23717A
:103C3000D8F80030186806F037FA0028B1D1D9F862
:103C40000030186806F030FAF8B1FFF75FFEDBE7E6
:103C50000190206806F01EFA002890D0019B237185
:103C60008DE70190206806F015FA00283FF47CAF3C
:103C7000019B237178E70190206806F00BFA002879
:103C80003FF467AF019B237163E7DAF800301868EF
:103C900006F00AFA10B1FEF7C1FBB5E7DBF8003019
:103CA000186806F001FA04460298B842B0D1002C18
:103CB0003FF424AFB1E700BF7027FF1F3C3F020075
:103CC000593F02002C28FF1F4028FF1F0828FF1F14
:103CD0005027FF1F2DE9F0416E4E6F4D304607F023
:103CE00005F93046022105F0C9FE4FF00108002316
:103CF000F38133820A226949A6F814803046A6F877
:103D0000128009F0B1F8304609F0C4F84146304657
:103D100005F0B4FE15226249304609F0A5F8304698
:103D200009F0B8F815225F49304609F09DF8304691
:103D300009F0B0F815225C49304609F095F8304694
:103D400009F0A8F814225949304609F08DF8304698
:103D500009F0A0F815225649304609F085F830469A
:103D600009F098F815225349304609F07DF830469D
:103D700009F090F8304607F0C5F906E084F80480B1
:103D80002B68186806F090F9A8B92C68206806F02E
:103D90005BF9206806F088F907460028EED1206814
:103DA00006F078F90028EBD02B682771186806F028
:103DB0007BF90028E9D0374807F098F80121354809
:103DC00005F05CFE01270023F381338215223A4976
:103DD000B78277822F4809F047F82E4809F05AF841
:103DE00015222F492B4809F03FF82A4809F052F8CC
:103DF00015223249274809F037F8264809F04AF8D1
:103E000015222B49234809F02FF8224809F042F8DF
:103E100015222B491F4809F027F81E4809F03AF8E7
:103E2000152228491B4809F01FF81A4809F032F8F2
:103E300015222549174809F017F8164809F02AF8FD
:103E400015222249134809F00FF8124809F022F808
:103E5000104807F057F905E027712B68186806F03D
:103E600023F9A8B92C68206806F0EEF8206806F05F
:103E70001BF906460028EFD1206806F00BF9002850
:103E8000EBD02B682671186806F00EF90028E9D0EF
:103E9000BDE8F0817027FF1F5027FF1F5C3F020025
:103EA000683F0200803F0200983F0200B03F0200DE
:103EB000C83F0200E03F0200F83F0200104002004D
:103EC00028400200404002005840020070400200BA
:103ED0006A4B6B482DE9F04F1C686A4F2379DFF875
:103EE000C4812DED028B013B1B0203F470638BB088
:103EF000184308F015FB2379606900937B22B021F9
:103F00000023FCF7BDFD604B5D481C682379013B35
:103F10001B0203F47063184308F002FB2379606905
:103F200000937B22B0210023FCF7AAFD574B544895
:103F30001C682379013B1B0203F47063184308F0EB
:103F4000EFFA2379606900937B22B0210023FCF70C
:103F500097FD4F4B4A481C682379013B1B0203F431
:103F60007063184308F0DCFA2379606900937B22C0
:103F7000B0210023FCF784FD464B41481C6823799F
:103F8000013B1B0203F47063184308F0C9FA23795C
:103F9000606900937B22B0210023FCF771FD3E4B4A
:103FA00037481C682379013B1B0203F470631843F4
:103FB00008F0B6FA2379606900937B220023B021D0
:103FC000FCF75EFD0DF1180A01252E4806F08EFF64
:103FD00001212C4805F052FD304ABD820023FB81AF
:103FE0003B82A2F1580104A87D82CDF810A0FCF715
:103FF00061FA049C204615F023FA21460246214826
:1040000008F032FF1F4807F07DF8D8F8004020681C
:1040100006F01AF8206806F047F8064660B12571E8
:10402000D8F80030186806F03FF890B90498504569
:10403000CBD009F07BF8C8E7206806F02BF8002801
:10404000EED0D8F800302671186806F02DF8002858
:10405000ECD0134AD2F8008008F5FC6208F5FB6545
:1040600008F2DC7B00232B600392CBF8003044463F
:1040700008F5FA661360C146002119E03C28FF1FCD
:104080000BB07B007027FF1FFC27FF1F6027FF1F5F
:10409000F827FF1F7034FF1F9C34FF1FE040020011
:1040A0005427FF1F2C28FF1F0000FA43D8F8D4170D
:1040B000D8F80838DB6F1B6B1A6913B249F8043F54
:1040C0000B44C8F8D437022007F088FBB145EDD186
:1040D000D8F8D4375FED0C6A524807EE903AF8EE04
:1040E000E77A1B2187EEA67A85ED007A08F004FDB9
:1040F000286812F01FF841EC100B02214A4808F022
:104100002FFF494808F0C6FE95ED008ADBF8005005
:1041100054F8043F07EE903AF8EEE77A78EE677AC3
:1041200017EE900A12F006F802460B4612F056F807
:1041300080462846894611F0FDFF02460B46404660
:10414000494611F099FE12F019FBA6420546DFD14F
:1041500006EE900ADFED357ACBF8000086EEA77AFE
:10416000012417EE100A11F0E5FF41EC100B09F0E5
:104170005FFE51EC100B12F001FB039B18602C4802
:1041800006F0B4FE02212A4805F078FC0023FB81EA
:104190003B820A2227492648BC827C8208F064FEC2
:1041A000234808F077FE2146214805F067FC1522D8
:1041B00021491F4808F058FE1D4808F06BFE0221F7
:1041C0001B4805F05BFC1D4919480A2208F04CFE0B
:1041D000174808F05FFE1A4B15481B6803F5FC638F
:1041E00093ED007AF2EE047AB4EEE77AF1EE10FA8B
:1041F0004CBF144914490A2208F036FE0C4808F056
:1042000049FE0B4806F07EFF4FF47A7007F0E6FA9D
:104210000498504501D008F089FF0BB0BDEC028B2B
:10422000BDE8F08FE44002006010FF1F0000FA4379
:104230007027FF1F5C3F020000410200184102008E
:104240005427FF1F24410200304102002DE9F04FA6
:10425000574E584FDFF86491DFF864A1DFF864B17E
:1042600089B00DF110080124514806F03FFE0121EC
:104270004F4805F003FC504AB4820023A2F18601A6
:1042800002A8F38133827482CDF80880FCF712F91A
:10429000029D284615F0D4F829460246444808F005
:1042A000E3FD434806F02EFF3D68286805F0CCFE8C
:1042B000286805F0F9FE002853D02C71D9F8005079
:1042C000286805F0C1FE286805F0EEFE00283FD002
:1042D0002C71DAF80050286805F0B6FE286805F061
:1042E000E3FE002846D02C71DBF80050286805F06A
:1042F000ABFE286805F0D8FE08B32C713B6818683F
:1043000005F0D2FE054650B1FFF7E2FD02984045A8
:1043100001D008F00BFF284609B0BDE8F08FD9F8AE
:104320000030186805F0C0FE054600282BD0FFF7C6
:10433000D1FC0298404597D008F0F8FE94E7019030
:10434000286805F0A7FE0028D8D0019B2B71D5E77F
:104350000190286805F09EFE0028BAD0019B2B71C1
:10436000B7E70190286805F095FE0028A6D0019BCC
:104370002B71A3E70190286805F08CFE0028B3D0CC
:10438000019B2B71B0E7DAF80030186805F08CFE5D
:1043900030B102984045BCD1284609B0BDE8F08F45
:1043A000DBF80030186805F07FFE0028C1D0F0E788
:1043B0007027FF1F2C28FF1FC24102004028FF1F4B
:1043C0000828FF1F5027FF1F2DE9F0473E4C3F4EA6
:1043D0003F4F86B0204606F089FD2046012105F0BA
:1043E0004DFB3C4A00230125A2F1B001E381238269
:1043F00068460DF10809A5826582CDF80090FCF7AA
:1044000059F8DDF80080404615F01AF8414602469A
:10441000204608F029FD204606F074FEDFF8B8803B
:104420003468206805F010FE206805F03DFE8246E5
:10443000002839D025713C68206805F005FE206809
:1044400005F032FE824638B32571D8F80040206866
:1044500005F0FAFD206805F027FE8246A0B125711F
:104460003368186805F020FE044620B93B681868D8
:1044700005F01AFE00B30098484501D008F056FE3A
:10448000204606B0BDE8F087206805F003FE00284E
:10449000E6D084F804A0E3E7206805F0FBFD0028DF
:1044A000D3D084F804A0D0E7206805F0F3FD0028FD
:1044B000C1D084F804A0BEE7D8F80030186805F031
:1044C000F3FD0028ACD0D6E77027FF1F2C28FF1F74
:1044D0004028FF1F744202005027FF1F2DE9F04FB4
:1044E000934E944FDFF86092DFF860A2DFF860B27D
:1044F00089B00DF1100801248D4806F0F7FC012168
:104500008B4805F0BBFA8C4AB4820023A2F1B001BB
:1045100002A8F38133827482CDF80880FBF7CAFFCA
:10452000029D284614F08CFF29460246804808F078
:104530009BFC7F4806F0E6FD3D68286805F084FD99
:10454000286805F0B1FD002800F0A2802C71D9F890
:104550000050286805F078FD286805F0A5FD0028C2
:1045600000F08C802C71DAF80050286805F06CFDA2
:10457000286805F099FD002877D02C71DBF80050F1
:10458000286805F061FD286805F08EFD002863D0DD
:104590002C716A4B1D68286805F056FD286805F0E7
:1045A00083FD002839D02C713B68186805F07CFD2C
:1045B000002840D0002006F0C5FF002872D100205E
:1045C000FCF774F901240298404501D008F0AEFDD3
:1045D000574806F08BFC0221554805F04FFA01259B
:1045E0000023082256495248F3813382B5827582EE
:1045F00008F03AFC21464E4808F0A8FC092251492F
:104600004B4808F031FC4A4806F07CFD4FF4FA7044
:1046100007F0E4F809B0BDE8F08F0190286805F0D4
:1046200039FD0028C0D0019B2B713B68186805F04C
:104630003BFD0028BED1D9F80030186805F034FDE4
:1046400000283AD0142006F07DFF002844D1142021
:10465000FCF72CF90224B6E70190286805F01AFD52
:10466000002896D0019B2B7193E70190286805F0F4
:1046700011FD002882D0019B2B717FE701902868F3
:1046800005F008FD00283FF46EAF019B2B716AE72F
:104690000190286805F0FEFC00283FF458AF019B0C
:1046A0002B7154E7FFF790FE002888D1029840450F
:1046B0003FF422AF08F03AFD1EE7DAF80030186840
:1046C00005F0F2FC68B1282006F03CFFC0B92820B4
:1046D000FCF7ECF8032476E7FFF776FE0028E5D038
:1046E000B5E7DBF80030186805F0DEFC68B13C2067
:1046F00006F028FFB8B93C20FCF7D8F8042462E79C
:10470000FFF762FE0028D1D0E1E70C4B1B68186868
:1047100005F0CAFC0028C9D0029840453FF47AAFA2
:1047200008F004FD76E7FFF74FFE0028BED0E2E771
:104730007027FF1F2C28FF1F284302005027FF1F50
:104740002C430200384302004028FF1F0828FF1FA7
:104750006427FF1F2DE9F04F85B00228029000F07A
:104760006681032800F00581042840F06D814FF038
:104770003C0A3F2355464FF041094FF0420803934E
:104780003E274FF03D0BB74CB74E204606F0AEFB30
:104790002046012105F072F901220021A2826282E5
:1047A000E181162221822046B04908F05DFB0C22EF
:1047B000AF49204608F058FB504606F0C3FE00EB18
:1047C000400056F830100191084614F039FE019966
:1047D0000246204608F048FB0322A649204608F07E
:1047E00043FB0C22A449204608F03EFB584606F045
:1047F000A9FE00EB400056F830B0584614F020FEF9
:1048000059460246204608F02FFB032299492046CC
:1048100008F02AFB0C229949204608F025FB38466F
:1048200006F090FE00EB400056F830A0504614F021
:1048300007FE51460246204608F016FB03228D492A
:10484000204608F011FB0C228D49204608F00CFB95
:10485000039806F077FE00EB400056F830603046D3
:1048600014F0EEFD31460246204608F0FDFA032220
:104870008049204608F0F8FA08228249204608F0CC
:10488000F3FA484606F05EFE0C2800F2C880A0F15C
:104890000C01744808F05AFB08227B49714808F063
:1048A000E3FA404606F04EFE002840F0B0800023B8
:1048B00001460A226B48DFF8E881DFF8E891DFF86B
:1048C000E8A1DFF8E8B108F001FB01226F49654873
:1048D00008F0CAFA11226E49624808F0C5FA13229C
:1048E0006C49604808F0C0FA5E4806F00BFC0126EF
:1048F000D8F80040206805F0A7FB206805F0D4FB3D
:104900000746002877D02671D9F80040206805F0C6
:104910009BFB206805F0C8FB0746002864D0267181
:10492000DAF80040206805F08FFB206805F0BCFB3A
:104930000746002851D02671DBF80040206805F0BA
:1049400083FB206805F0B0FB0746F8B12671D8F864
:104950000030186805F0A8FB28B32846FBF742FF93
:104960004D4B1B78012B4DD00124204605B0BDE8EE
:10497000F08F4FF0280A2B2355464FF02D094FF0AA
:104980002E0803932A274FF0290BFCE6206805F038
:1049900081FB0028DBD0D8F800302771186805F0BB
:1049A00083FB0028D9D1DAF80030186805F07CFBC9
:1049B00004460028D1D1D9F80030186805F074FBFE
:1049C0000028D2D1DBF80030186805F06DFB002814
:1049D0008ED0204605B0BDE8F08F206805F05AFB68
:1049E0000028A9D02771A7E7206805F053FB00280D
:1049F00096D0277194E7206805F04CFB002883D0FF
:104A0000277181E702980330FCF77CF8ACE7234973
:104A10001448FBF791FD404606F094FD47E7204619
:104A20001E49FBF789FD484606F08CFD2FE74FF045
:104A3000140A172355464FF019094FF01A0803932B
:104A400016274FF0150B9EE64FF0000A032355463C
:104A50004FF005094FF00608039302274FF0010BB2
:104A600091E600BF7027FF1F5028FF1F444302003C
:104A70005C430200584602006C4302007C43020083
:104A80008C4302009C430200AC43020070450200CC
:104A9000B8430200CC4302006827FF1FA84302006E
:104AA0002C28FF1F4028FF1F4C1BFF1F5027FF1FF4
:104AB0002DE9F04F7B4EDFF8FC81DFF8FC91DFF849
:104AC000FCA1DFF8FCB189B004AF0124754806F001
:104AD0000DFA0121734804F0D1FF734AB482002318
:104AE000A2F1B00102A8F381338274820297FBF72E
:104AF000E1FC029D284614F0A3FC294602466948C1
:104B000008F0B2F9674806F0FDFAD8F800502868B6
:104B100005F09AFA286805F0C7FA002800F08680A8
:104B20002C71D9F80050286805F08EFA286805F035
:104B3000BBFA002871D02C71DAF80050286805F013
:104B400083FA286805F0B0FA00285DD02C71DBF8F4
:104B50000050286805F078FA286805F0A5FA0028C2
:104B600049D02C71514B1D68286805F06DFA2868F2
:104B700005F09AFA002835D02C714D4B1D68286835
:104B800005F062FA286805F08FFA10B32C71D8F896
:104B90000030186805F088FA78B10120FFF7DAFDD7
:104BA00005460298B84201D008F0C0FA002D8DD019
:104BB0000125284609B0BDE8F08FD9F80030186803
:104BC00005F072FA00283BD00220FFF7C3FD05462E
:104BD000E7E70190286805F05DFA0028D7D0019B2F
:104BE0002B71D4E70190286805F054FA0028C4D04E
:104BF000019B2B71C1E70190286805F04BFA002852
:104C0000B0D0019B2B71ADE70190286805F042FA06
:104C100000289CD0019B2B7199E70190286805F032
:104C200039FA002888D0019B2B7185E7019028680C
:104C300005F030FA00283FF474AF019B2B7170E748
:104C4000DAF80030186805F02FFA20B10320FFF7DA
:104C500081FD0546A5E7DBF80030186805F024FA69
:104C6000054620B10420FFF775FD054699E70F4B77
:104C70001A68106805F018FA28B10298B84298D05E
:104C800008F054FA95E70A4B1A68106805F00CFA18
:104C900003460028F1D10298B8423FF417AF1D46F1
:104CA00082E700BF7027FF1F90440200A034FF1F5F
:104CB0005027FF1F2C28FF1F4028FF1F0828FF1F19
:104CC0006427FF1F2DE9F04FB04BB14D1B78B14C5D
:104CD000002BC3B00CBF2B23302305930CBF322312
:104CE000372304930CBF37233C23039328460CBF80
:104CF0003E234323019306F0F9F82846012104F0EE
:104D0000BDFEA54BA5491B681A680123AB826B82C7
:104D100002EB4202002304EBC202EB812B820CA8BF
:104D2000FBF784FE0D9A6FF000439B1A332B40F281
:104D30003D820CA834229A4909F058FC14AB06466F
:104D4000129356F8083BB342054600F0F58182689D
:104D500012931492019B6A68139203EB4303DB00E6
:104D6000E11800222E602A726A604A68E15812A88F
:104D700009F03CFC1AAB0646189356F8083BB342C0
:104D8000054600F00D82826818931A926B68199399
:104D900000226A6019992A726FF000435B1A072B90
:104DA0002E6040F2038208227E4918A809F01EFCFA
:104DB00020AB06461E9356F8083BB342054600F06A
:104DC000E98182681E932092039B6A681F9203EB1D
:104DD0004303DB00E11800222E602A726A604A68F1
:104DE000E1581EA809F002FC0DF1980B0646CDF81B
:104DF00090B056F8083BB342054600F0C581826882
:104E0000249326926B68259300226A6025992A7262
:104E10006FF000435B1A092B2E6040F2C7810A2213
:104E2000614924A809F0E2FB2CAE07462A9657F800
:104E3000083BBB42054600F0A18182682A932C9270
:104E4000049B6A682B9203EB4303DB00E11800220A
:104E50002F602A726A604A68E1582AA809F0C6FBE6
:104E600032AF0346309753F8082B9A42054600F0BC
:104E70007D818168309232916A68319200226A6045
:104E800031992B606FF000435B1A072B2A7240F2B6
:104E90008D810822454930A809F0A8FB0DF1E008F2
:104EA0000346CDF8D88053F8082B9A42054600F007
:104EB0005581816836923891059A6968379102EB7D
:104EC0004202D200A01800212B6029726960A1580B
:104ED000426836A809F08AFB0DF1F80A0546CDF8BC
:104EE000F0A055F8083BAB42044600F031818268DF
:104EF0003C933E9263683D93002262603D9922722A
:104F00006FF000435B1A5D2B256040F24F815E22FB
:104F100027493CA809F06AFB0DF120090546CDF8A8
:104F2000189055F8083BAB42044600F00B818268AC
:104F3000069308926368079325603C9800235045C8
:104F40006360237201D008F0F1F83698404501D033
:104F500008F0ECF83098B84201D008F0E7F82A9849
:104F6000B04201D008F0E2F82498584501D008F08A
:104F7000DDF81E9820AB984201D008F0D7F81898B9
:104F80001AAB984216D008F0D1F813E03028FF1F72
:104F90007027FF1F501BFF1F3C28FF1F9444020077
:104FA000A8440200E0440200EC440200F84402007D
:104FB00004450200129814AB984201D008F0B6F8EC
:104FC0000C980EAB984201D008F0B0F8069C794ED0
:104FD000DFF8F481DFF8F4A1DFF8F4B1764F204672
:104FE00014F02EFA21460246744807F03DFF73483C
:104FF00006F088F801253468206805F025F8206857
:1050000005F052F8002876D02571D8F800402068C5
:1050100005F01AF8206805F047F8002862D02571DD
:10502000DAF80040206805F00FF8206805F03CF839
:1050300000284ED02571DBF80040206805F004F808
:10504000206805F031F800283AD025713C682068C6
:1050500004F0FAFF206805F027F888B1257133685D
:10506000186805F021F8C8B1554B019A1B681A6001
:105070000698484501D008F059F843B0BDE8F08FD4
:105080000290206805F006F80028E8D0029B237102
:105090003368186805F008F80028E5D13B681868FF
:1050A00005F002F80028DFD1D8F80030186804F0C5
:1050B000FBFF002828D0424B039A1B681A60D7E7F1
:1050C0000290206804F0E6FF0028BFD0029B237105
:1050D000BCE70290206804F0DDFF0028ABD0029B03
:1050E0002371A8E70290206804F0D4FF002897D02D
:1050F000029B237194E70290206804F0CBFF002804
:1051000083D0029B237180E7DAF80030186804F03E
:10511000CBFF20B12A4B049A1B681A60A8E7DBF882
:105120000030186804F0C0FF00283FF464AF244B3F
:10513000059A1B681A609BE71022314614A806F0F6
:10514000E7F807E610222946484606F0E1F8F1E6BE
:1051500010222946504606F0DBF8CBE6194610220D
:105160004046029306F0D4F8029BA5E619461022A9
:105170003846029306F0CCF8029B7DE610223946B1
:10518000304606F0C5F85BE610223146584606F078
:10519000BFF837E61022314620A806F0B9F813E62A
:1051A000102231461AA806F0B3F8EFE5054808F0DA
:1051B0008FFF00BF2C28FF1F4C1BFF1F7027FF1FF6
:1051C000FC27FF1F043502004028FF1F0828FF1F8F
:1051D0006427FF1F2DE9F04FB24CC3B0204605F005
:1051E00085FE2046012104F049FCAF4A0023012539
:1051F000A2F1090106A8A5826582E38123820DF14F
:105200002009CDF81890FBF755F9A84B06991B78A3
:10521000079A3CAE3EAD0A4430463C95002B00F068
:10522000F381FBF747F9A249304609F009FA314604
:1052300006A809F045F83C98A84201D007F076FF8F
:1052400048230593542303934F230193432304934B
:105250000699079A974C0A440EAB0CA80C93FBF7DF
:1052600029F995490CA809F0EBF9019B03EB4303DD
:10527000DB00E218E15852680CA809F0B7F914AA4B
:105280000346129253F8082B9A42074600F0E98130
:105290008168129214917A68139200223B607A60BE
:1052A0003A72864912A809F0CBF91AAA0346189255
:1052B00053F8082B9A42074600F0EB818168189258
:1052C0001A91039A02EB4201C9007A681992601898
:1052D00000223B603A727A604268615818A809F06F
:1052E00085F920AA03461E9253F8082B9A420746D6
:1052F00000F0C78181681E9220917A681F92002277
:105300003B607A603A726E491EA809F099F90DF176
:10531000980B0346CDF890B053F8082B9A420746F5
:1053200000F09781816824922691049A02EB420151
:10533000C9007A682592601800223B603A727A6050
:105340004268615824A809F051F90DF1B00A0346EA
:10535000CDF8A8A053F8082B9A42074600F0B18177
:1053600081682A922C917A682B9200223B607A60A5
:105370003A7254492AA809F063F932AF03463097CC
:1053800053F8082B9A42804600F09381816830924E
:105390003291059AD8F80410319102EB4202D20002
:1053A000A0180021C8F8003088F80810C8F80410C8
:1053B000A158426830A809F019F90DF1E008034638
:1053C000CDF8D88053F8082B9A42044600F0698142
:1053D0008168369238916268379200222360626059
:1053E0002272394936A809F02BF903463C9553F847
:1053F000082B9A42044600F03C813C9282683E921F
:1054000062683D920022314606A8236062602272E3
:1054100008F056FF3C98A84201D007F087FE369866
:10542000404501D007F082FE3098B84201D007F025
:105430007DFE2A98504501D007F078FE2498584503
:1054400001D007F073FE1E9820AB984201D007F000
:105450006DFE18981AAB984201D007F067FE1298BB
:1054600014AB984201D007F061FE0C980EAB984245
:1054700001D007F05BFE069C144EDFF85880DFF881
:1054800058A0DFF858B0124F204613F0D9FF21463C
:105490000246044807F0E8FC024805F033FE012507
:1054A0001EE000BF7027FF1FDD3F02003028FF1FF6
:1054B00064450200501BFF1F84450200E0440200C7
:1054C000EC440200F8440200044502002C28FF1FAF
:1054D0004C1BFF1F4028FF1F0828FF1F6427FF1FCA
:1054E0003468206804F0B0FD206804F0DDFD002879
:1054F00076D02571D8F80040206804F0A5FD20681A
:1055000004F0D2FD002862D02571DAF8004020684E
:1055100004F09AFD206804F0C7FD00284ED02571E4
:10552000DBF80040206804F08FFD206804F0BCFD2B
:1055300000283AD025713C68206804F085FD206879
:1055400004F0B2FD88B125713368186804F0ACFD31
:10555000C8B1604B019A1B681A600698484501D093
:1055600007F0E4FD43B0BDE8F08F0290206804F03E
:1055700091FD0028E8D0029B23713368186804F07D
:1055800093FD0028E5D13B68186804F08DFD0028E4
:10559000DFD1D8F80030186804F086FD002828D044
:1055A0004C4B039A1B681A60D7E70290206804F0FE
:1055B00071FD0028BFD0029B2371BCE702902068D8
:1055C00004F068FD0028ABD0029B2371A8E702908D
:1055D000206804F05FFD002897D0029B237194E7B8
:1055E0000290206804F056FD002883D0029B2371AE
:1055F00080E7DAF80030186804F056FDE0B1354B6A
:10560000049A1B681A60A8E7FAF754FF324930463B
:1056100009F016F8314606A808F052FE3C98A84258
:1056200001D007F083FD432305934F2303934A23BF
:1056300001933E2304930BE6DBF80030186804F076
:1056400033FD00283FF44CAF224B059A1B681A60CB
:1056500083E7194610225846029305F059FE029B33
:1056600063E61946102214A8029305F051FE029B2E
:1056700011E6194610222846029305F049FE029BC6
:10568000BEE61946102220A8029305F041FE029BB7
:1056900033E6194610221AA8029305F039FE029B40
:1056A0000FE6194610224046029305F031FE029B98
:1056B00091E6194610223846029305F029FE029B16
:1056C00067E6194610225046029305F021FE029B20
:1056D00049E600BF3C28FF1F7445020002282DE95F
:1056E000F84F824600F03581032800F0E8809A4D9B
:1056F0009A4B042818BF1D46994C9A4E204605F037
:10570000F5FB2046012104F0B9F900230121E381D2
:1057100023821622A18261822046934907F0A4FBCE
:105720000C229249204607F09FFB2B6803EB4303B2
:1057300056F83370384613F083FE39460246204649
:1057400007F092FB03228A49204607F08DFB0C22CA
:105750008849204607F088FB6B6803EB430356F843
:105760003370384613F06CFE39460246204607F087
:105770007BFB03227E49204607F076FB0C227E4904
:10578000204607F071FBAB6803EB430356F8337018
:10579000384613F055FE39460246204607F064FBB2
:1057A00003227349204607F05FFB0C227349204611
:1057B00007F05AFBEB6803EB430356F833603046BF
:1057C00013F03EFE31460246204607F04DFB032211
:1057D0006749204607F048FB69492046082207F040
:1057E00043FB69690C2900F3AE805D4807F0AEFB0E
:1057F00064495B48082207F037FBA969002905DDE9
:1058000061495748012207F02FFBA96954485F4EB0
:105810005F4FDFF89881DFF8989107F097FB01223E
:105820005C494F4807F020FB12225B494C4807F0C7
:105830001BFB132259494A4807F016FB484805F05C
:1058400061FC01253468206804F0FEFB206804F048
:105850002BFC8346002869D025713C68206804F041
:10586000F3FB206804F020FC8346002856D0257105
:10587000D8F80040206804F0E7FB206804F014FC2E
:105880008346002842D02571D9F80040206804F0F2
:10589000DBFB206804F008FC834690B12571336877
:1058A000186804F001FCC8B15046FAF759FF3C4BA8
:1058B0001B78012B42D001242046BDE8F88F394DDA
:1058C0001AE7206804F0E6FB0028E8D0336884F883
:1058D00004B0186804F0E8FB0028E5D1D8F80030DF
:1058E000186804F0E1FB04460028DDD13B68186825
:1058F00004F0DAFB0028DFD1D9F80030186804F092
:10590000D3FB00289ED02046BDE8F88F206804F025
:10591000C1FB0028B8D084F804B0B5E7206804F0D3
:10592000B9FB0028A4D084F804B0A1E7206804F0F3
:10593000B1FB002891D084F804B08EE70AF1FF3063
:10594000FBF7E0F8B7E710492046FAF7F5FD69697B
:105950004BE7154DD0E600BFC82502009025020098
:105960007027FF1F5028FF1FB84502005C4302004C
:10597000584602006C4302007C4302008C43020044
:105980009C430200AC430200A84302002C28FF1FE6
:105990004028FF1F70450200D0450200CC430200A2
:1059A0006827FF1FA8CC0100AC2502004C1BFF1F7D
:1059B0005027FF1F2DE9F04F0125B3B0B448B44C78
:1059C00005F094FA0121B24804F058F8B048B14A01
:1059D00085820023E3812382AF49658208A8FBF713
:1059E00025F8099A6FF000439B1A042B40F222829B
:1059F0000522AA4908A808F0F9FD10AE07460E9640
:105A000057F8083BBB42044600F0F78182680E93CA
:105A1000109262680F92A24B27600022626022728D
:105A20000EA893E8060008F0E1FD16AF03461497B0
:105A300053F8082B9A42044600F0D78181681492EB
:105A400016916268159200226260159923606FF0CA
:105A500000435B1A042B227240F2EC81052291492B
:105A600014A808F0C3FD0DF170080346CDF8688056
:105A700053F8082B9A42044600F0AF8181681A92CD
:105A80001C9162681B928849236000226260227226
:105A90001AA806C908F0AAFD0DF188090346CDF839
:105AA000809053F8082B9A42044600F08E8181685A
:105AB00020922291626821920022626021992360E3
:105AC0006FF000435B1A042B227240F2B38105226F
:105AD000764920A808F08AFD0DF1A00A0346CDF80A
