:10000000F8FF022099010000F9CB0000FDCA0000B2
:10001000FDCA0000FDCA0000FDCA0000FDCA0000C4
:10002000FDCA0000FDCA0000FDCA0000F9CB0000B7
:10003000F9CB0000FDCA00005972000049720000AF
:10004000F9CB0000F9CB0000F9CB0000F9CB0000A0
:10005000F9CB0000F9CB0000F9CB0000F9CB000090
:10006000F9CB0000F9CB0000F9CB0000F9CB000080
:10007000F9CB0000F9CB0000F9CB0000F9CB000070
:10008000F9CB0000F9CB0000F9CB0000F9CB000060
:10009000F9CB0000F9CB0000F9CB0000F9CB000050
:1000A00005BE0000F9BD0000F9CB0000F9CB00004F
:1000B000F9CB0000F9CB0000F9CB0000897D0000EE
:1000C000F9CB0000B17C0000F9CB0000157C0000EA
:1000D000F9CB0000797B0000F9CB0000F9CB0000E0
:1000E000F9CB0000F9CB0000F9CB0000F9CB000000
:1000F000F9CB0000F9CB0000F9CB0000F9CB0000F0
:10010000F9CB0000F9CB0000F9CB0000F9CB0000DF
:10011000F9CB0000597F0000F9CB0000F9CB0000BB
:10012000F9CB0000F9CB0000F9CB0000F9CB0000BF
:10013000F9CB0000F9CB0000F9CB0000F9CB0000AF
:10014000F9CB0000F9CB0000DD7A0000F9CB00000C
:10015000457A0000F9CB0000F9CB0000F9CB000094
:10016000F9CB0000F9CB0000EDBD0000F9CB000099
:10017000F9CB0000F9CB0000F9CB0000F9CB00006F
:10018000F9CB0000F9CB0000F9CB0000F9CB00005F
:10019000F9CB0000F9CB000008B55D4B4CF22052C2
:1001A0001A804DF628121A8000BF00BF102223F8D3
:1001B0000E2CA3F51F43DE3B4FF030621A60554A08
:1001C0009A60554ADA60554B4FF470021A60544AEF
:1001D000136813F4807304D152490B604FF4A85391
:1001E0001360514B1A78100703D51A7842F00802B1
:1001F0001A704E4B4E492A221A704E4A4E4B8B4271
:1002000004D252F8040F43F8040BF8E74B4B4C4967
:1002100000228B4202D243F8042BFAE749494A4AAA
:10022000002352F8230041F823000133662BF8D154
:10023000464B474A802103F8011B9342FBD1454BB3
:10024000404A1A60444B8A221A70A3F58053242234
:100250005A70A0221A709A799107FCD59A79D20621
:10026000FCD43E4A937903F00C03082B3B4BF9D1A5
:1002700003221A7146225A719A799406FCD5374A9C
:100280009179364B4806FBD5354A4FF082711160A3
:100290000921516020221A709A7902F00C020C2A6E
:1002A000FAD1304B304A1A60304B314A1A60002480
:1002B00007225C6043F8042C2E4AC3F80C2D62B66A
:1002C0000CF09EFC174B1A68D1070AD52A4A2B4915
:1002D0001C60146042F8041C10221A60284A294944
:1002E0001160294A127852060ED52549254A086818
:1002F000904209D12048214C00221A60026040F847
:10030000044C102018600A600EF0EAFE01F0B0FA0A
:100310000E200540823F04000100002B88ED00E024
:1003200010D0034014D0034002D0074000E0074043
:10033000881DFF1F349E0100080CFF1F881DFF1F32
:10034000C037FF1F0002FF1F0000000000E400E0B4
:1003500056E400E008ED00E0005006400040064092
:100360004480044004800440C010050014E000E014
:10037000BFD401000000202004D003407D48A063CA
:100380001CE00340A5C3945A00F00740FFFFFFFFA5
:10039000FFFFFFFFFFFFFFFFFFFFFFFFFFFFFFFF6D
:1003A000FFFFFFFFFFFFFFFFFFFFFFFFFFFFFFFF5D
:1003B000FFFFFFFFFFFFFFFFFFFFFFFFFFFFFFFF4D
:1003C000FFFFFFFFFFFFFFFFFFFFFFFFFFFFFFFF3D
:1003D000FFFFFFFFFFFFFFFFFFFFFFFFFFFFFFFF2D
:1003E000FFFFFFFFFFFFFFFFFFFFFFFFFFFFFFFF1D
:1003F000FFFFFFFFFFFFFFFFFFFFFFFFFFFFFFFF0D
:10040000FFFFFFFFFFFFFFFFFFFFFFFFDEF9FFFF23
:1004100010B5054C237833B9044B13B10448AFF33E
:1004200000800123237010BD881DFF1F0000000005
:10043000309E0100084B10B51BB108490848AFF3C6
:1004400000800848036803B910BD074B002BFBD0A0
:10045000BDE81040184700BF000000008C1DFF1FC2
:10046000309E0100881DFF1F000000002DE9F04FA5
:10047000B64EB74FDFF82CB3DFF82CA3B54C9BB0CA
:10048000B54905A807F0D4F8B44B1B68002B00F061
:100490009981012B00F03082022B00F02882032B7F
:1004A00001F05881AD4B5B68002B00F08681012B79
:1004B00001F05C81022B01F0538105A911A807F01E
:1004C0008BF811A808F070FF119810F0BDFC962071
:1004D0000CF026FD30680EF043FB38680EF040FB50
:1004E000DBF800000EF03CFBDAF800000EF038FB01
:1004F0009B4B18680EF034FB9A4B18680EF030FBDB
:10050000994B18680EF02CFB984B18680EF028FBDE
:1005100033681B689A7B1AB11D7B002D00F0578150
:1005200038680EF015FB80B9DBF800000EF010FB08
:100530000546002800F0E58102F0CCFE054605984E
:1005400010F082FC002D9BD082E0824D0DAC8849DA
:10055000204607F06DF8214611A807F03DF811A8D4
:1005600008F022FF119810F06FFC96200CF0D8FCD8
:1005700030680EF0F5FA38680EF0F2FADBF8000099
:100580000EF0EEFADAF800000EF0EAFA754B186891
:100590000EF0E6FA33681B689A7B12B11B7B002BC6
:1005A00068D03B681B689A7B1AB11B7B002B00F05C
:1005B000B780DBF800000EF0CBFA002800F0858150
:1005C00028200CF0A7FD002840F0798128200BF0AE
:1005D0009BFD03250D98674C10F036FC4FF48062AC
:1005E000002165480EF0A4FD644B02200121002289
:1005F0009875D87599825982DA811A8204F10806B1
:1006000014F8011B5D480BF021FCB442F8D11AAC80
:10061000303504F8035D254615F8011B57480BF0EB
:1006200015FCC5F10103DC42F6D1554C04F1090576
:1006300014F8011B51480BF009FCAC42F8D108F04A
:10064000D7FA4FF4FA700CF06BFC059810F0FCFB35
:100650004FF48062002148480EF06AFD494808F0D6
:1006600011FE08F0C5FA4FF4FA700CF059FC1BB0FB
:10067000BDE8F08F2B78D90764D54FF0A0531B78D5
:10068000002B57D1DFF824813F4FD8F800303F4E80
:1006900019783F4D3F4C00200CF014FD3B680120C1
:1006A00019780CF00FFD3368022019780CF00AFD60
:1006B0002B68032019780CF005FD236804201978B5
:1006C0000CF000FD344B19680C31C9B205200CF058
:1006D000F9FC324B062019780CF0F4FCD8F8003005
:1006E0000720197A0CF0EEFC3B680820197A0CF010
:1006F000E9FC33680920197A0CF0E4FC2B680A2025
:10070000197A0CF0DFFC23680B20197A0CF0DAFC64
:10071000234B1B680C20197A0CF0D4FC012559E7F7
:1007200014200CF0F7FC002842D114200BF0ECFC54
:1007300002254FE70EF068FC0028A3D10D9810F0B9
:1007400083FB04E70CF078FC97E700BFAC1DFF1FAC
:10075000B01DFF1F01000240E8120100A41DFF1F91
:10076000601FFF1FBC1DFF1F0C1EFF1F101EFF1F61
:1007700070140100D01201004C0DFF1F4C32FF1FFE
:10078000DC120100D00E0100D41DFF1FD81DFF1F79
:10079000DC1DFF1FFC1DFF1FE41DFF1FE01DFF1FD1
:1007A000201EFF1FB41DFF1FB81DFF1FD01DFF1F00
:1007B0000EF02AFC0028C1D0B7E7564905A806F07C
:1007C000FDFE7AE6544905A806F0F8FE6AE60DF14A
:1007D00034085249404606F02BFF0F9B11951295A5
:1007E00013958DF85050002B43D111A808F0DCFD73
:1007F000119810F029FB96200CF092FB30680EF057
:10080000AFF938680EF0ACF9DBF800000EF0A8F98B
:10081000434B18680EF0A4F933681B689A7B0AB141
:100820001B7BC3B13B681B689A7B0AB11B7BE3B19E
:10083000DBF800301B689A7B12B11B7B002B37D092
:10084000374B1B681B689A7B0AB11B7B83B30D98DF
:1008500010F0FAFABDE704F057FD81460D9810F04C
:10086000F3FAB9F1000FB4D0EFE60CF009FD8146C0
:10087000F4E70D9A0293591C0020019210F0ECFA53
:10088000814660B11399029B11901293019A01B9AC
:1008900001701146484613930FF09CFBA5E7119891
:1008A00018B110F0D1FACDF84490129513959CE749
:1008B000404606F0EDFC059810F0C6FAE0E50EF0B3
:1008C000A3FB00283FF43AAF80E6DAF800000EF010
:1008D0003FF9002800F057873C200CF01BFC002853
:1008E00040F04A873C200BF00FFC042572E60D49CE
:1008F00005A806F063FED5E50B4905A806F05EFEE7
:10090000D0E5DAF800000EF023F9002800F0F586B3
:10091000A946B5E0A013010040130100E81301004F
:10092000BC1DFF1F7013010058130100099B13B178
:100930001D70DDF84480CDF82C90404610F084FA0C
:100940000B9DCDF84490CDF84890CDF84C908DF8A3
:100950005090002D40F0D28501226F4911A806F079
:10096000DFFD139DDDF84480002D40F07685099B66
:1009700013B11D70DDF84480CDF82C90404610F086
:1009800063FA0B9DCDF84490CDF84890CDF84C908B
:100990008DF85090002D40F0F3852D225F4911A86D
:1009A00006F0BEFD139DDDF84480002D40F0628509
:1009B000099B13B11D70DDF84480CDF82C904046A2
:1009C00010F042FA0B9DCDF84490CDF84890CDF848
:1009D0004C908DF85090002D40F0B18511A808F092
:1009E000E3FC119810F030FA96200CF099FA306878
:1009F0000EF0B6F838680EF0B3F8DBF800000EF031
:100A0000AFF8DAF800000EF0ABF8454B18680EF0BE
:100A1000A7F8444B18680EF0A3F833681B689A7B5C
:100A20001AB11B7B002B00F0A7803B681B689A7BE8
:100A30000AB11B7B0BB3DBF800301B689A7B0AB151
:100A40001B7BD3B1DAF800301B689A7B1AB11B7B91
:100A5000002B00F01D86324B1B681B689A7B1AB175
:100A60001B7B002B00F044862E4B1B681B689A7B77
:100A70001AB11B7B002B00F03B86099810F0E4F9BB
:100A800043210020CDF82490CDF82890CDF82C906B
:100A90008DF8309010F0E0F90546002800F003854D
:100AA0004223432220490A930B93019309900EF0AD
:100AB000F1FF43210020CDF84490CDF84890CDF8C7
:100AC0004C908DF8509010F0C7F9019B804600289B
:100AD00000F0DD84139A1190129302B90270422340
:100AE0002946404613930FF075FA01220A4911A8CE
:100AF00006F016FD139DDDF84480002D3FF416AF7F
:100B00000A9B9D4200F29A8509980B9541460FF089
:100B100061FADDF8448010E740210100681501000A
:100B2000601FFF1FBC1DFF1F241501003B681B68D1
:100B30009A7B1AB11B7B002B00F0D781DBF80030C9
:100B40001B689A7B1AB11B7B002B00F0EF82DAF84E
:100B500000301B689A7B1AB11B7B002B00F02E849F
:100B6000A44B1B681B689A7B1AB11B7B002B00F0FF
:100B70002584029810F068F9B121002010F06CF97A
:100B80000290002800F08381B1229B490EF082FF81
:100B9000B1210020CDF84490CDF84890CDF84C908C
:100BA0008DF8509010F058F90546002800F0938118
:100BB000139B1190B022129203B90370B023284600
:100BC000029913930FF006FA11A808F0EDFB1198A3
:100BD00010F03AF996200CF0A3F930680DF0C0FF40
:100BE00038680DF0BDFFDBF800000DF0B9FFDAF852
:100BF00000000DF0B5FF7F4B18680DF0B1FF3368B2
:100C00001B689A7B002A91D01B7B002B8ED17B4BDB
:100C1000DFF800821B680193B1210020CDF83490E9
:100C2000CDF83890CDF83C908DF8409010F014F944
:100C30000546002800F00A81B023B12270490E93C6
:100C40000F9303930D900EF025FFB1210020CDF8F6
:100C50004490CDF84890CDF84C908DF8509010F01D
:100C6000FBF8039B0246002800F0028113991190C3
:100C7000129301B90170B0232946104613930FF067
:100C8000A9F911A808F090FB119810F0DDF8C82020
:100C90000CF046F930680DF063FF38680DF060FF26
:100CA000DBF800000DF05CFFDAF800000DF058FFF3
:100CB000544B18680DF054FFD8F800000DF050FFA9
:100CC0004C4B18680DF04CFF33681B689A7B12B1CF
:100CD0001B7B002B68D03B681B689A7B1AB11B7B7F
:100CE000002B00F09980DBF800301B689A7B1AB16A
:100CF0001B7B002B00F0D180DAF800301B689A7B58
:100D00001AB11B7B002B00F02B833E4B1B681B682A
:100D10009A7B1AB11B7B002B00F09683D8F8003029
:100D20001B689A7B0AB11B7B33B1324B18680DF0FC
:100D30000FFF002800F0A0840DA806F0A9FAB12149
:100D4000002010F089F8054600284DD0B1222E4928
:100D50000EF0A0FEB1210020CDF84490CDF84890CF
:100D6000CDF84C908DF8509010F076F88046002821
:100D700000F0E882139B1190B022129203B9037025
:100D8000B0234046294613930FF024F911A808F028
:100D90000BFB119810F058F84FF47A700CF0C0F873
:100DA000284610F051F8E4E6019A01239360237875
:100DB000DA0769D5154B1B78012B0BD0144A137831
:100DC00013F0700318BF1370104B01221A702378B0
:100DD000DD07FCD50D9810F037F8B121002010F098
:100DE0003BF805460028B1D1119012908DF85000C3
:100DF0001390CBE7BC1DFF1F98150100C41DFF1FFA
:100E00004C160100601FFF1F00170100670000144F
:100E100000000240641FFF1F019A022393602378A1
:100E2000DB0755D59F4B1B78022BD3D09E4A1378F6
:100E300013F0700318BF13709A4B02221A702378B4
:100E4000D807FCD50D980FF0FFFFC6E70D9810B13D
:100E50000FF0FAFF0D95CDF83890CDF83C90CDF815
:100E60004490CDF84890CDF84C908DF8509008E71C
:100E70000390119818B10FF0E7FF039A1192CDF883
:100E80004890CDF84C90FCE60CF0D6F892E7119023
:100E900012908DF85000139096E6019A0323936008
:100EA0002378DD0740F1AB827E4B1B78032B91D07A
:100EB0007D4A137813F0700318BF1370794B032227
:100EC0001A702378D907FCD50D980FF0BDFF84E781
:100ED0000CF0B2F8A6E7119810B10FF0B5FF11951C
:100EE000CDF84890CDF84C906EE6704BDFF8D0818D
:100EF0001B680193B1210020CDF83490CDF83890D3
:100F0000CDF83C908DF840900FF0A6FF05460028E4
:100F100000F0D880B023B12265490E930F9303935C
:100F20000D900EF0B7FDB1210020CDF84490CDF822
:100F30004890CDF84C908DF850900FF08DFF039BAA
:100F40000246002800F0868013991190129301B98F
:100F50000170B0232946104613930FF03BF811A8F7
:100F600008F022FA11980FF06FFFC8200BF0D8FF9D
:100F700030680DF0F5FD38680DF0F2FDDBF800008B
:100F80000DF0EEFDDAF800000DF0EAFD494B1868AF
:100F90000DF0E6FDD8F800000DF0E2FD464B1868B4
:100FA0000DF0DEFD33681B689A7B12B11B7B002BB2
:100FB00035D03B681B689A7B12B11B7B002B55D048
:100FC000DBF800301B689A7B1AB11B7B002B00F00A
:100FD0008E80DAF800301B689A7B1AB11B7B002BDD
:100FE00000F0F181334B1B681B689A7B1AB11B7BA5
:100FF000002B00F06B82D8F800301B689A7B1AB186
:101000001B7B002B3FF498AE2B4B18680DF0A0FD16
:1010100000287FF491AE0D980FF016FF6AE7019A51
:10102000012393602378D9075ED5244B1B78012BCD
:101030003FF4D0AE1C4A137813F0700318BF13703E
:101040001E4B01221A702378DB07FCD50D980FF098
:10105000FBFEC2E60390119818B10FF0F5FE039A5B
:101060001192CDF84890CDF84C9078E7019A022380
:1010700093602378DA0756D5104B1B78022B3FF488
:10108000A9AE094A137813F0700318BF13700B4B05
:1010900002221A702378DD07FCD50D980FF0D4FEDC
:1010A0009BE600BF6700001400000240C81DFF1F40
:1010B0004C160100601FFF1FBC1DFF1F68000014BD
:1010C000641FFF1F0D9810B10FF0BEFE0D95CDF8F7
:1010D0003890CDF83C90CDF84490CDF84890CDF8BC
:1010E0004C908DF850903AE70BF0A6FF9DE7019ADF
:1010F000032393602378DB0740F1A081A64B1B7884
:10110000032B3FF467AEA54A137813F0700318BFA2
:101110001370A14B03221A702378D807FCD50D98C1
:101120000FF092FE59E60BF087FFA5E79C4BDFF826
:1011300088821B680193B1210020CDF83490CDF84E
:101140003890CDF83C908DF840900FF085FE054624
:10115000002800F0AB80B023B12292490E930F9388
:1011600003930D900EF096FCB1210020CDF8449031
:10117000CDF84890CDF84C908DF850900FF06CFE63
:10118000039B0246002800F085801399119012936A
:1011900001B90170B0232946104613930EF01AFFCF
:1011A00011A808F001F911980FF04EFEC8200BF0BD
:1011B000B7FE30680DF0D4FC38680DF0D1FCDBF8D8
:1011C00000000DF0CDFCDAF800000DF0C9FC764B04
:1011D00018680DF0C5FCD8F800000DF0C1FC734B89
:1011E00018680DF0BDFC33681B689A7B12B11B7B3D
:1011F000002B34D03B681B689A7B12B11B7B002B01
:1012000066D0DBF800301B689A7B12B11B7B002B89
:101210007CD0DAF800301B689A7B1AB11B7B002B5C
:1012200000F0F080604B1B681B689A7B1AB11B7B37
:10123000002B00F05781D8F800301B689A7B1AB158
:101240001B7B002B3FF478AD584B18680DF080FCE9
:1012500000287FF471AD0D980FF0F6FD6BE7019A51
:10126000012393602378D8074DD5514B1B78012B70
:101270003FF4B0AD494A137813F0700318BF1370F0
:101280004B4B01221A702378DA07FCD50D980FF02A
:10129000DBFDA2E50390119818B10FF0D5FD039A7C
:1012A0001192CDF84890CDF84C9079E70D9810B197
:1012B0000FF0CAFD0D95CDF83890CDF83C90CDF8E3
:1012C0004490CDF84890CDF84C908DF8509067E759
:1012D000019A022393602378D9073ED5344B1B78BB
:1012E000022B3FF477AD2D4A137813F0700318BF2B
:1012F00013702F4B02221A702378DB07FCD50D9850
:101300000FF0A2FD69E50BF097FEAEE7019A03230B
:1013100093602378DA0740F19480254B1B78032BE8
:101320003FF458AD1D4A137813F0700318BF1370C3
:101330001F4B03221A702378DD07FCD50D980FF0A0
:1013400083FD4AE5119818B10FF07EFDCDF8448079
:10135000CDF84890CDF84C9018E50BF06DFEBDE748
:10136000019A042393602378D80740F1B880114B89
:101370001B78042B3FF42EAD084A137813F070034A
:1013800018BF13700B4B04221A702378DA07FCD5B0
:101390000D980FF059FD20E5680000140000024090
:1013A000CC1DFF1F4C160100601FFF1FBC1DFF1F3F
:1013B0006900001467000014641FFF1F02980FF0FB
:1013C00043FDFFF75ABB019A042393602378DD079E
:1013D00040F19180AB4B1B78042B3FF4FBACAA4A45
:1013E000137813F0700318BF1370A64B04221A7001
:1013F0002378D907FCD50D980FF026FDEDE40BF00E
:101400001BFE51E5019A042393602378DB0740F12A
:10141000F5809E4B1B78042B3FF4DCAC9A4A137882
:1014200013F0700318BF1370984B04221A702378BE
:10143000D807FCD50D980FF007FDCEE40BF0FCFDAE
:101440005CE60BF0F9FD68E7019B0520986008F069
:10145000B5FA0D980FF0F8FCBFE40A9B9D4200F22C
:10146000D08009980B9541460EF0B4FDDDF844801C
:10147000FFF784BA0A9B9D4200F2A38009980B955E
:1014800041460EF0A7FDDDF84480FFF798BA1198A9
:1014900018B10FF0D9FCCDF84480CDF84890CDF8C4
:1014A0004C90FFF722BB099810B10FF0CDFC0995C5
:1014B000CDF82890CDF82C90CDF84490CDF84890F8
:1014C000CDF84C908DF85090FFF70FBB019B052095
:1014D000986008F04FFA0D980FF0B6FC7DE40BF021
:1014E000ABFD44E7019B0520986008F01FFA0D98BA
:1014F0000FF0AAFC71E40BF09FFD6BE7099A0192D3
:10150000691C00200FF0A8FC804660B1139B11906D
:101510001295019A03B903701146404613950EF0D7
:1015200059FDFFF719BA119818B10FF08DFCCDF8DD
:101530004480CDF84890CDF84C90FFF70DBA099A49
:101540000192691C00200FF087FC804660B1139B5C
:1015500011901295019A03B90370114640461395F4
:101560000EF038FDFFF73ABA119818B10FF06CFC85
:10157000CDF84480CDF84890CDF84C90FFF72EBAC6
:10158000099A0192691C00200FF066FC804660B148
:10159000139B11901295019A03B9037011464046AE
:1015A00013950EF017FDFFF7F8B9119818B10FF069
:1015B0004BFCCDF84480CDF84890CDF84C90FFF727
:1015C000ECB9691C09980FF047FC40B10B9A0990DF
:1015D0000A95002A7FF453AF027009984FE70190F3
:1015E000099818B10FF030FC019B0993CDF82890B1
:1015F000CDF82C90DDF84480FFF7E1B90BF01CFD2D
:1016000007E7691C09980FF027FC40B10B9A099075
:101610000A95002A7FF426AF0270099822E701900C
:10162000099818B10FF010FC019B0993CDF8289090
:10163000CDF82C90DDF84480FFF7A0B9691C09981B
:101640000FF00AFC48B10B9A09900A95002A7FF422
:101650005CAA02700998FFF758BA0190099818B16E
:101660000FF0F2FB019B0993CDF82890CDF82C9058
:10167000DDF84480FFF761B90D980FF0E5FBFFF747
:10168000CBBA00BF680000140000024069000014DB
:1016900008F028FC694B18680DF062FA674B18686F
:1016A00003689A7B002AF7D01B7B002BF4D10DAD89
:1016B0006349284605F0BCFF294611A805F08CFFB8
:1016C00011A807F071FE11980FF0BEFB5B4B186874
:1016D0000DF046FA594B186803689A7B002AF7D038
:1016E0001B7B002BF4D10D980FF0AEFBFFF7C5B9B3
:1016F00009A805F0CDFDFFF7DEB8524B18680DF0D4
:1017000027FA00287EF4A1AF4C4B18680DF020FAA0
:10171000054600287EF499AF4B4B18680DF018FA77
:10172000804600285AD0494B484A1B68002B4BD0B2
:10173000012B3FD0022B32D0032B7FF4BCA8444AAC
:10174000444B11681A6800230B7340490B601373F4
:10175000FFF7B1B8404905A805F030FFFEF7A2BE7B
:101760003E4905A805F02AFFFEF7A7BE3C4905A89B
:1017700005F024FFFEF7A1BE0DF046FC00283EF464
:10178000DDAFFFF7AFB82D4B18680DF0E1F9002879
:101790003EF4D4AF204605F07BFDFEF756BF2C4B40
:1017A0002C491B6809680120187303230D7313600B
:1017B000FFF781B826492748096800680D730221A0
:1017C00003731160FFF777B82149224B0868196845
:1017D0000123037313600B73FFF76DB8214B186877
:1017E0000DF0B6F900283FF466A8184B174A5B685D
:1017F0007BB1012B17D0022B7FF45DA81A4A1B4B3B
:1018000011681A6800230B7310494B601373FFF7BC
:1018100052B81548154900680968037301230B7312
:101820005360FFF748B8104810490068096803730F
:10183000022381F80C805360FFF73DB8BC1DFF1FE9
:10184000B4170100601FFF1F0C1EFF1FA41DFF1F08
:10185000D81DFF1FDC1DFF1F88130100D0130100DE
:10186000B8130100101EFF1FD01DFF1FD41DFF1F46
:101870002DE98048B9B002F0DBFF0B4BDFF82C906C
:101880001B78DFF82CB0002B40F03A83D9F83C608D
:1018900096E80C000024A242B36034737473746041
:1018A0001BDD06F10C0508E00C0CFF1FAC1DFF1F33
:1018B000010002403368A3420DDD55F8040F0DF01E
:1018C0004FF92B681A790134002AF3D09B687360B2
:1018D0003368A342F1DC7468B3689C4240F39A8495
:1018E00001233373D9F84420C9F840401368597B69
:1018F0003F2900F29884C54850F8311091F8001241
:10190000C9B2187B884200F0E683C1481D680068B0
:101910001C901C985C68BE4E401BA042C0F0DB834C
:1019200030681B901B9C1973002001211C6098607B
:1019300099731368997B29B11B7B1BB9537983F089
:1019400001035371D9F84880B14BD8F89C401B680B
:101950001E9322691E9BAF48AD499B1AB3F57A7F4F
:101960000AD9C36C0A68D3F880301F921B6B1F9A88
:101970001B6922611BB2A3600BF020FBD8F8A830D2
:10198000C01A642800F24487A14BD8F8B8201B681D
:101990001993199B9B1A322B00F24884D9F85400F2
:1019A0000DF0DEF8D9F858000DF0DAF8D9F85C40FF
:1019B00020460DF0D5F8D9F8608040460DF0D0F8FB
:1019C000D9F810A050460DF0CBF8D9F81860304681
:1019D0000DF0C6F8D9F81C5028460DF0C1F8D9F81A
:1019E000207038460DF0BCF830460DF0B1F818B153
:1019F000B368012B00F08A8328460DF0A9F818B1CE
:101A0000AB68012B00F0828338460DF0A1F8002866
:101A100040F0788398F80430002B41F0D7802046BE
:101A20000DF096F8002800F0B383D9F83440D9F8C7
:101A30008C30784A02349C42C9F8344001DD0024DD
:101A40005463D9F84830734DD3E918010022724B22
:101A50000FF050F8002801F0AA81D9F830000CF0FE
:101A60008BFFD9F82C000CF087FFD9F824000CF07C
:101A700083FFD9F828000CF07FFFD9F874000CF030
:101A80007BFFD9F83830D9F84010D9F82400194430
:101A900010220CF0B9FFD9F83830D9F84010D9F835
:101AA0002800194410220CF0AFFF0022D9F838109A
:101AB000D9F874000CF0A8FFD9F83430D9F83810F0
:101AC000D9F83000194400220CF09EFFD9F83430C8
:101AD000D9F83810D9F82C00194400220CF094FFE2
:101AE000D9F82420D9F838301268D9F84000D9F84C
:101AF00014101344184407F085FFD9F85400454CDE
:101B00000DF026F8002800F05883D9F83830D9F8BD
:101B10006C20404D93425BDAAA6C5C1CD2E9180140
:101B20003D4BAC6300220EF0E5FF002801F044833A
:101B3000D9F830000CF020FFD9F82C000CF01CFF75
:101B4000D9F824000CF018FFD9F828000CF014FF85
:101B5000D9F874000CF010FFD9F83830D9F84010DB
:101B6000D9F82400194410220CF04EFFD9F838306F
:101B7000D9F84010D9F82800194410220CF044FF7D
:101B80000022D9F83810D9F874000CF03DFFD9F8CC
:101B90003430D9F83810D9F83000194400220CF04C
:101BA00033FFD9F83430D9F83810D9F82C0019445B
:101BB00000220CF029FFD9F82420D9F83830126817
:101BC000D9F84000D9F814101344184407F01AFF4C
:101BD000D9F858000F4C0CF0BBFF002801F0D98059
:101BE000D9F83820D9F86C300A4D1344002B65DD44
:101BF000AB6C541ED3E918010022074BAC630EF006
:101C000079FF002801F0148308E000BF906C010008
:101C10005C33FF1FAC1DFF1F00001640D9F83000D9
:101C20000CF0AAFED9F82C000CF0A6FED9F824007E
:101C30000CF0A2FED9F828000CF09EFED9F8740032
:101C40000CF09AFED9F83830D9F84010D9F82400B1
:101C5000194410220CF0D8FED9F83830D9F84010C9
:101C6000D9F82800194410220CF0CEFE0022D9F831
:101C70003810D9F874000CF0C7FED9F83430D9F810
:101C80003810D9F83000194400220CF0BDFED9F804
:101C90003430D9F83810D9F82C00194400220CF04F
:101CA000B3FED9F82420D9F838301268D9F84000AA
:101CB000D9F814101344184407F0A4FED9F81840BA
:101CC00020460CF045FF002840F08A82D9F81C40DD
:101CD00020460CF03DFF002840F08D82D9F82040CE
:101CE00020460CF035FF002840F09082D9F844508F
:101CF000BD4C95F805A0D4F84880BAF1000F00F06B
:101D000052872846D8E918670CF022FF002841F0D6
:101D10001A820022B54B304639460EF0EBFE002801
:101D200000F0148798F89630002B40F00F870123BD
:101D300088F89630BAF1000F40F00887D9F83830AB
:101D4000D9F84010D9F82400194410220CF05CFE98
:101D5000D9F83830D9F84010D9F8280019441022A1
:101D60000CF052FED9F83430D9F83810D9F83000D8
:101D7000194452460CF048FED9F83810D9F83430DE
:101D8000D9F82C00524619440CF03EFED9F8242014
:101D9000D9F838301268D9F84000D9F81410134433
:101DA000184407F02FFED9F84880D8E91867D8F80A
:101DB0009C30DFED8F7A93ED028AB8EEC88AB4EEDC
:101DC000E78AF1EE10FA00F3B687F1EE087A88EEB2
:101DD000277ADFED887A77EE277A17EE900A0EF0F1
:101DE000A5FB32463B460EF067FEF0B198F897200F
:101DF000DAB9814BD9F838001B682193219BD9F8B7
:101E00003410C8F8B430012388F897300144D9F869
:101E100050000CF0F9FDD9F84880D8F89C3093EDCB
:101E2000028AD8E91867B8EEC88ADFED717AB4EE95
:101E3000E78AF1EE10FA00F3EB87F1EE087A88EE0C
:101E4000277ADFED6C7A77EE277A17EE900A0EF09C
:101E50006DFB04460D4622462B46304639460EF0B1
:101E600035FE90B1644BD8F8B4201B682293229BB6
:101E70009B1A642B09D998F8973033B1002388F85E
:101E80009730D9F850000CF077FD5C4B5B78002B55
:101E900000F0AE82D9F87C00594C0025002800F0F3
:101EA000E380068843889A0800EB82020433B34239
:101EB000976880F08680438007F00F06A6F108033C
:101EC000062B62D8082EC7F3033700F0ED80092EE9
:101ED00000F0EE800A2E40F0EF800A2FDED0D9F815
:101EE00084304849404A01338B4200F3F581C2F8FF
:101EF00084300BF09DFF414B1B78002B3FF4C6ACA8
:101F0000414D424923A805F093FB23A92FA805F0D2
:101F100063FB2FA807F048FA2F980EF095FF962044
:101F20000AF0FEFFD9F8004020460CF019FED9F85F
:101F3000046030460CF014FED9F8087038460CF0F6
:101F40000FFED9F80C8040460CF00AFE23689A7BFD
:101F50001AB11B7B002B00F0948333689A7B1AB173
:101F60001B7B002B00F0D7833B689A7B1AB11B7B4D
:101F7000002B00F0178440460CF0EAFD002840F0EA
:101F80007C8223980EF060FFBBE7B31E012BC7F3E2
:101F9000072243D9052E3DD0042E00F06382731F23
:101FA000022B40F2DD860F2E99D1F72A36D8F02A7F
:101FB00003D0B9F88030002B91D0104605F06CFBAF
:101FC0008DE705F07BFB72B60D4B186938B1104BED
:101FD00002881B89416821619B1A0D4A138162B6F0
:101FE000C9F87C0068E700BFAC1DFF1F0000164069
:101FF00000C07344000070425C33FF1F0C0CFF1FD5
:102000000C37FF1FA086010000000240901C010059
:102010002037FF1FF02A56D9F72A54D0F13A0E2A5A
:102020003FF65DAF01A353F822F000BF9D1E0000F4
:102030009D1E00009D1E0000DF1E0000DF1E000030
:102040009D1E0000DF1E00009D1E0000DF1E000020
:102050009D1E00009D1E00009D1E0000DF1E000052
:102060009D1E00009D1E0000BA4B1B78002B3FF404
:1020700036AF72B6B84B186938B1B84B02881B89B5
:10208000416821619B1AB54A138162B6B44FC9F801
:102090007C0000283FF423AF0688002E7FF402AFB7
:1020A00005F00CFBFE671AE7082F7FF418AFF5E682
:1020B000092F7FF414AFF1E60B2E41F0F7800B2FC0
:1020C0007FF40DAFEAE6104605F0E6FAA9F8805075
:1020D000D9F87C00E2E69968002900F0A080A148C8
:1020E0001D6800681A901A989E4C401B814200F2AD
:1020F000968021681D911D9919600020012198602A
:10210000997316E4BB68012B7FF484ACD9F82400E2
:102110000CF032FCD9F828000CF02EFCD9F8740031
:102120000CF02AFCD9F830000CF026FCD9F82C0071
:102130000CF022FCD9F850000CF01EFCD9F8443009
:1021400000275F7109F12404FEF790F970CCD9F8EB
:102150003030206893F80CE0296832681B68CDF8AD
:1021600018E0367B05962D7B0495267BD9F83450F4
:10217000D9F8384002978DE83000039608F030F91E
:10218000D9F85C4020460CF0E3FC00287FF44DAC0D
:10219000D9F81020724B1279002A3FF4AEAC586E79
:1021A0000CF0D6FC00287FF440ACD9F854006C4CFD
:1021B0000CF0CEFC00287FF4A8AC23681B79002B20
:1021C00041F01C80A06D0CF0C3FC00287FF408AD2A
:1021D000D9F8184020460CF0BBFC00283FF476AD3F
:1021E00020460AF01BFBD9F81C4020460CF0B0FC3E
:1021F00000283FF473AD20460AF010FBD9F82040C8
:1022000020460CF0A5FC00283FF470AD20460AF0F3
:1022100005FB6BE5BCBF01237373FFF763BB0021B4
:102220009973FFF786BB0021FFF76BBBD8E9180154
:102230000EF080FC9FED4C7A07EE900AF4EEC77A20
:10224000F1EE10FA00F3A285B1EE067AF4EEC77A49
:10225000F1EE10FA00F1D98537EEC77ADFED435A77
:10226000DFED436ADFED437A87EE256AE6EE267AF4
:10227000FDEEE77A17EE901AD9F84420D8F8983096
:102280005279002A18BF5A218B421DD0C8F89810E5
:10229000D9F824000CF03AFBD8F89810D9F82800A7
:1022A0000CF034FBD8F89810D9F830000CF02EFB65
:1022B000D8F89810D9F82C000CF028FBD8F8981012
:1022C000D9F850000CF022FB264B1B682093209B72
:1022D000C8F8B830FFF762BB002316212648C2F8C1
:1022E000843005F061FA1F4B244A1B681593159B37
:1022F00012689A1A00F04385214CA4FB0213DB08F4
:1023000003EB8301A2EB410230328DF8DD20002B7C
:1023100000F0C8872121A4FB0302D20802EB82004F
:102320000139A3EB4003C9B238A80844303300F8A0
:10233000243C1346002AEED10846C1F122012FABFE
:10234000184405F031FA074B0C4A1B681493149B90
:102350001360CEE50837FF1F0C37FF1F2037FF1F24
:10236000AC1DFF1F5C33FF1F0000F0420000E54280
:10237000000014420000B4429C1F01006033FF1FA4
:10238000CDCCCCCC2B689A7B002A40F02C84002248
:10239000964B304639460EF0ADFB0446002840F01F
:1023A0002A8598F89630002B00F0258588F896004D
:1023B000D9F824000CF0E0FAD9F828000CF0DCFA87
:1023C000D9F874000CF0D8FAD9F830000CF0D4FA2F
:1023D000D9F82C000CF0D0FAD9F850000CF0CCFA57
:1023E000834B844A1B681793179B5470C9F8783045
:1023F000D9F84420804B5279002A7FF44BAD9B6C76
:10240000D3E91867304639460022784B0EF072FB4C
:1024100000287FF43FAD764BD9F878201B681693DF
:10242000169B754C9B1AC82B7FF634AD04F124051E
:10243000E0CD236B286893F80CE031683A681B689C
:10244000CDF818E03F7B0597367B04962F7B266CF2
:10245000656BA46B8DE8F000664D01246C7007F08D
:10246000BFFF17E5104605F017F9C7F3074005F061
:1024700013F9380E05F010F931E5604927A805F089
:10248000D7F827A92FA805F0A7F82FA806F08CFFEA
:102490002F980EF0D9FC96200AF042FDD9F8007072
:1024A00038460CF05DFBD9F8044020460CF058FB90
:1024B000D9F8086030460CF053FBD9F8108040463C
:1024C0000CF04EFB3B689A7B30461AB11B7B002B0D
:1024D00000F0CE8323689A7B12B11B7B002B4CD07B
:1024E0000CF036FB48B940460CF032FB0446279806
:1024F0000EF0AAFC002CC0D043E54149DFF8F8807B
:102500002BA805F095F82BA92FA805F065F82FA8A2
:1025100006F04AFF2F980EF097FC96200AF000FD77
:10252000D9F8006030460CF01BFBD9F8047038462F
:102530000CF016FBD9F8104020460CF011FB336864
:102540009A7B20461AB11B7B002B00F00B813B6865
:102550009A7B1AB11B7B002B00F028810CF0F8FA53
:1025600004462B980EF070FC002CC6D027980EF075
:102570006BFC23980EF068FCC3E42249DFF87880F6
:102580002BA805F055F82BA92FA805F025F82FA8A2
:1025900006F00AFF2F980EF057FC96200AF0C0FCB8
:1025A000D9F8004020460CF0DBFAD9F80460304638
:1025B0000CF0D6FAD9F8107038460CF0D1FA23682E
:1025C0009A7B0AB11B7BFBB133689A7B1AB11B7BE8
:1025D000002B00F0A4803B689A7B12B11B7B002B80
:1025E00048D02B980EF030FCC7E700BF0000164023
:1025F0005C33FF1F0C0CFF1FAC1DFF1F441D0100AF
:10260000001F0100141E01009BF80020C8F81430C0
:10261000D00740F12A83764B1B785BB12B7813F0FF
:10262000700318BF2B70724B00221A709BF8003099
:10263000DB07FBD54FF4806200216E480CF078FD7B
:102640006D490220012200236C4CA2826282E38148
:102650002382A075E0752FA804F0EAFF2FA806F0EA
:102660000DFD06F0C5FA40F2EE200AF059FC2F9855
:102670000EF0EAFB2B980EF0E7FB27980EF0E4FB38
:102680007FE402F041FE044623980EF0DDFB002CAF
:102690003FF437AC64200AF03DFDC9F81400672010
:1026A0000AF038FDD9F81830D9F81C409860682035
:1026B0000AF030FDA06069200AF02CFDD9F8203026
:1026C000986006F0D7FD4E4806F0DCFD09F12404C1
:1026D00006F08EFA40F2EE200AF022FC70CCD9F817
:1026E000303020681F7B29681B6832680697367B6C
:1026F00005962D7B0495247BD9F83460D9F83850A1
:102700000394002402948DE8600007F069FE3D4BBD
:102710001C70FFF7BBB80AF0B3FD0446B4E79BF8A2
:1027200000300122D907C9F8142040F16B83304BE7
:102730001B78012B0BD02B7813F0700318BF2B7074
:102740002B4B01221A709BF80030DF07FBD54FF4AA
:102750008062002127480CF0EBFC022001220023BC
:10276000294971E79BF8002088F88830D20740F1AA
:102770001F85264B1B78002B3FF47CAF2B7813F082
:10278000700318BF2B70214B00221A709BF8003089
:10279000DE07FBD52B980EF057FB27980EF054FB65
:1027A000FFF7EFBB00F096FD04466DE79BF80030A5
:1027B0000122DB0789F8882040F15F85134B1B78E5
:1027C000012B3FF457AF2B7813F0700318BF2B7019
:1027D0000E4B01221A709BF80030DC07FBD52B98BA
:1027E0000EF032FB27980EF02FFBFFF7CABB00BF9D
:1027F000640000144C0DFF1FC81E01004C32FF1F67
:10280000641801000C0CFF1FE41E01006500001499
:1028100098F800303F2B00F21D83C94A52F833303C
:1028200098F8942093F80032003318BF01239A429D
:1028300088F8953000F01683D8F8A010C14A88F8BF
:1028400094304B1C82FB0321DA17C2EBA11204EE79
:10285000902A98ED0C7B98ED105B98ED0E6BD8E903
:102860000A67D8E90845D8E90401F8EEE44A88ED9A
:102870000E7BC8ED294A88ED125B88ED106BC8E924
:102880000C67C8E90A45C8F8A030C8E90601AAA340
:10289000D3E90023D8E902010DF09CFE0D46044661
:1028A0000AF08CFBD8F8AC30C01A0DF01DFE0246C1
:1028B0000B46204629460DF0B7FF04460D46D8E9E1
:1028C0000A23C8E90445C8E908450DF0D1FCD8E958
:1028D0000C230DF0CDFCD8E90E230DF0C9FCD8E98E
:1028E00010230DF0C5FCD8E912230DF0C1FC002225
:1028F000954B0DF099FF08F1780274CAD8F874303E
:10290000D8F87070C8F87830D8F86C30C8F888609B
:10291000C8E91801C8F88450C8F88040C8F87C207D
:10292000C8F87470C8F870300AF048FBD8ED1EAAD9
:10293000D8F87060D8F874A098ED1FAAD8ED209A46
:1029400098ED219AD8F8AC20D8ED228A1AEE901A88
:1029500006EB0A030B441AEE101A0B4419EE901AF8
:102960000B4419EE101A801A18EE902A0B441344E7
:10297000034408EE103A07EE900ABBEEEE8AF8EE3A
:10298000677AC8F86C0077EEC87A88ED238A17EE6C
:10299000900A0DF0CBFD07EE906AF8EE677A0446D8
:1029A00077EEC87A0D4617EE900A0DF0BFFD07EEE0
:1029B00090AAF8EE677A064677EEC87AF8EE6AAA29
:1029C00017EE900A0F460DF0B1FD7AEEC87ACDE908
:1029D0000801B8EE4AAA17EE900A0DF0A7FD7AEEAC
:1029E000487ACDE90A01F8EE699A17EE900A0DF0DF
:1029F0009DFD79EEC87ACDE90C01B8EE499A17EE43
:102A0000900A0DF093FD79EE487ACDE90E01F8EECB
:102A1000688A17EE900A0DF089FD78EEC87ACDE944
:102A2000100117EE900A0DF081FD2246CDE912014A
:102A30002B46204629460DF0CDFD324604460D4674
:102A40003B46304639460DF0C5FD02460B46204652
:102A500029460DF00DFCDDE9082304460D4610461D
:102A600019460DF0B7FD02460B46204629460DF0EB
:102A7000FFFBDDE90A2304460D46104619460DF01A
:102A8000A9FD02460B46204629460DF0F1FBDDE983
:102A90000C2304460D46104619460DF09BFD0246D8
:102AA0000B46204629460DF0E3FBDDE90E230446E4
:102AB0000D46104619460DF08DFD02460B46204688
:102AC00029460DF0D5FBDDE9102304460D461046DE
:102AD00019460DF07FFD02460B46204629460DF0B3
:102AE000C7FBDDE9122304460D46104619460DF0DA
:102AF00071FD02460B46204629460DF0B9FB002227
:102B00004FF07F530DF066FD41EC100B0EF062F8B4
:102B100051EC100B0EF00EF8C8F890000AF04EFAC7
:102B2000C8F8B0000AF04AFAC8F8AC000AF046FA51
:102B3000C8F8A800FEF728BF00000000389C8C41B0
:102B4000906C01006766666600001840D9F83C305A
:102B50001A7B002A00F0A083D9F824000BF00CFFA8
:102B6000D9F828000BF008FFD9F874000BF004FF27
:102B7000D9F83830D9F84010D9F824001944102277
:102B80000BF042FFD9F84010D9F83830D9F82800B6
:102B9000194410220BF038FF0022D9F83810D9F868
:102BA0007400FFF7F1B8D8E9186700229F4B304650
:102BB00039460DF09FFF00283FF4E4AB28460BF0A8
:102BC000C7FF00283FF4A5A8FFF7ACB89AF8043077
:102BD000002B7FF49BAA20460BF0BAFF00287EF45E
:102BE00024AFFEF78ABF1B7B002B3FF4D0AB3046EF
:102BF000394600228D4B0DF07DFF054600287FF4FD
:102C000044A9606A0BF0B8FEA06A0BF0B5FE606FD5
:102C10000BF0B2FE206B0BF0AFFEE06A0BF0ACFEE7
:102C2000206D0BF0A9FE606A0BF080FEA06A0BF02D
:102C30007DFE606F0BF07AFE206B0BF077FEE06A92
:102C40000BF074FE206D0BF071FE794A794B5570D4
:102C5000D9F844201B6818935279189BA367764BC8
:102C6000002A7FF417A9FFF7CABB0AF0E5F9D2E4FE
:102C70004FF0A0549BF80030DE0759D5237853B1AC
:102C80002B7813F0700318BF2B70002323709BF870
:102C90000030D807FBD5694B01349C42EAD10121B1
:102CA00066200AF00FFA012006F088FE022006F0E6
:102CB00061FE032006F03AFE9BF80030D90740F190
:102CC000D9825F4B1B785BB12B7813F0700318BF70
:102CD0002B705B4B00221A709BF80030DA07FBD593
:102CE000584C59484FF4806200210CF021FA01221F
:102CF000002302205549A2826282E3812382A075CB
:102D0000E0752FA804F094FC2FA806F0B7F905F0A1
:102D10006FFF40F2EE200AF003F92F980EF094F8BE
:102D200027980EF091F823980EF08EF8FFF7E9B887
:102D30000AF082F9A2E7DFED467AB6EE007AE8EE15
:102D4000077A17EE900A0DF0F1FB32463B46044637
:102D50000D460DF0B1FE00287FF448A8FFF77BB8C0
:102D6000104604F099FCC7F3074004F095FC072EC9
:102D70007FF4ACA9380E04F08FFCFFF7A7B930231D
:102D80008DF8DD3001212120FFF7D9BA7F21FFF72F
:102D900073BA23681B79002B3EF490AFD9F870000A
:102DA0000BF0D6FE00287EF41BAFFEF787BF6B6CDE
:102DB0005B79002B7EF451AE05F1240696E8C04005
:102DC0002B6B306893F80CC03968DEF800201B6864
:102DD000CDF818C09EF80CE0CDF814E03F7B0497C6
:102DE000377B2E6CAD6B009503970194029607F02C
:102DF000F7FAFEF782BE0E4B5B78002B7FF44AA8F1
:102E0000FFF700BB0AF018F991E45A21FFF734BA32
:102E1000DFED0F7AB6EE007AE8EE077A17EE900A49
:102E20000DF084FB04460D46FFF715B80000164070
:102E30000C0CFF1F5C33FF1FAC1DFF1F00100014A4
:102E4000650000144C32FF1F4C0DFF1FF81D0100E0
:102E50000000704298F8942000239A4288F8953038
:102E60007FF4EAAC0AF0AAF8D8F8B030D8ED246ABA
:102E700098ED237AF0EE087AC01AA6EEA77A07EE4C
:102E8000900AF8EE677AF4EEC77AF1EE10FA40F3A2
:102E9000F88198ED107B8DED087B98ED0E7B8DED24
:102EA0000A7B98ED0C7B8DED0C7B9DED087B88ED0E
:102EB000127B9DED0A7BD8E90845D8E90A6788EDC1
:102EC000107B9DED0C7BC8E90C6788ED0E7BC8E993
:102ED0000A4520462946002200230DF07BFB0246CE
:102EE0000B46C8E90823204629460DF0C1F93246B1
:102EF0003B460DF0BDF9DDE90C230DF0B9F9DDE934
:102F00000A230DF0B5F9DDE908230DF0B1F900222F
:102F1000C54B0DF089FC08F1780274CAD8F87430FA
:102F2000D8F87070C8F87830D8F86C30C8F87C20C1
:102F3000C8E91801C8F88860C8F88450C8F880400B
:102F4000C8F87470C8F870300AF038F8D8ED1EAAC6
:102F5000D8F87060D8F874A098ED1FAAD8ED209A20
:102F600098ED219AD8F8AC20D8ED228A1AEE901A62
:102F700006EB0A030B441AEE101A0B4419EE901AD2
:102F80000B4419EE101A801A18EE902A0B441344C1
:102F9000034408EE103A07EE900ABBEEEE8AF8EE14
:102FA000677AC8F86C0077EEC87A88ED238A17EE46
:102FB000900A0DF0BBFA07EE906AF8EE677A0446C5
:102FC00077EEC87A0D4617EE900A0DF0AFFA07EECD
:102FD00090AAF8EE677A064677EEC87AF8EE6AAA03
:102FE00017EE900A0F460DF0A1FA7AEEC87ACDE9F5
:102FF0000801B8EE4AAA17EE900A0DF097FA7AEE99
:10300000487ACDE90A01F8EE699A17EE900A0DF0B8
:103010008DFA79EEC87ACDE90C01B8EE499A17EE2F
:10302000900A0DF083FA79EE487ACDE90E01F8EEB8
:10303000688A17EE900A0DF079FA78EEC87ACDE931
:10304000100117EE900A0DF071FA2246CDE9120137
:103050002B46204629460DF0BDFA324604460D4661
:103060003B46304639460DF0B5FA02460B4620463F
:1030700029460DF0FDF8DDE9082304460D4610460B
:1030800019460DF0A7FA02460B46204629460DF0D8
:10309000EFF8DDE90A2304460D46104619460DF007
:1030A00099FA02460B46204629460DF0E1F8DDE983
:1030B0000C2304460D46104619460DF08BFA0246C5
:1030C0000B46204629460DF0D3F8DDE90E230446D1
:1030D0000D46104619460DF07DFA02460B46204675
:1030E00029460DF0C5F8DDE9102304460D461046CB
:1030F00019460DF06FFA02460B46204629460DF0A0
:10310000B7F8DDE9122304460D46104619460DF0C6
:1031100061FA02460B46204629460DF0A9F8002226
:103120004FF07F530DF056FA41EC100B0DF052FDAD
:1031300051EC100B0DF0FEFCC8F8900009F03EFFBA
:10314000C8F8B000F2E40022384B304639460DF0A2
:10315000D1FC054600287EF4E5ADA36B216C606AC6
:10316000194410220BF050FCA36B216CA06A194487
:1031700010220BF049FC636BA16B206B19442A46AB
:103180000BF042FC636BA16BE06A19442A460BF01A
:103190003BFC626AA36B1268206C6169134418449B
:1031A00006F030FCD4F84880D8E91867FEF7FFBD78
:1031B00009F042FFFFF7DDBA6B6C5B79002B7EF400
:1031C000B7AC05F1240696E8C0402B6B306893F845
:1031D0000CC03968DEF800201B68CDF818C09EF8D6
:1031E0000CE0CDF814E03F7B0497377B2E6C6D6BC1
:1031F0008DE8F00007F0F4F8FEF7EABCA06E0BF0E3
:10320000A7FC00287EF481ACA06D0BF0A1FC002887
:103210007EF4E6ACD9F870000BF09AFC00287EF43E
:10322000DFACFEF74BBD00BF0000184000001640A9
:103230006B6C5B79002B7EF4F1AC05F1240696E80B
:10324000C0402B6B306893F80CC03968DEF8002062
:103250001B68CDF818C09EF80CE0CDF814E03F7B59
:103260000497377B2E6C6D6B8DE8F00007F0B8F893
:10327000FEF724BD09F0E0FE23E509F0DDFEFFF7CF
:103280009DBA09F09BFED8F8B03049F64042C01A0A
:1032900090423FF6FEAD49E45B7B002B7FF45CACD3
:1032A000FEF785BD01212120FFF749B80C2E04D17E
:1032B0000C2F7EF414AEFEF7F1BD0D2E04D10D2FB0
:1032C0007EF40DAEFEF7EABD0E2F7EF408AEFEF7DB
:1032D000E5BD00BF2DE9F04FDFF88093DFF8808374
:1032E000DFF880A399B0CE49CE4C0CA804F0A0F929
:1032F0000CA914A804F070F914A806F055F8149855
:103300000DF0A2FD962009F00BFED9F800000BF09D
:1033100027FCD8F800000BF023FCC34B18680BF017
:103320001FFCC24B18680BF01BFC266830460BF0E4
:1033300017FCBF4B18680BF013FCD9F800301B6862
:103340009A7B1AB11B7B002B00F07C82D8F80030EE
:103350001B689A7B1AB11B7B002B00F04B86B24B8B
:1033600018680BF0F5FB0546002840F09B86AF4B34
:1033700018680BF0EDFB0446002801F02480AD4BEB
:103380000493AD4B0293AD4EAD4BAE4F039310ACD7
:103390002322AD49149514A815958DF85C50169507
:1033A00004F0BEF833689B68002BC1F22A80AAFBA8
:1033B0000312D20802EB8201A3EB410330338DF8F4
:1033C00040301346002A01F0E6812046A64600213F
:1033D000AAFB03C2D20802EB820CA3EB4C033033EE
:1033E0000EF8013F01311346002AF1D10DF1600EB4
:1033F0008E4463180EF81F2C93F800E090F800C07C
:1034000000F801EB0132C2EB010E724503F801C96D
:10341000F2DB20460CF054FE2146024614A804F0CC
:103420007FF80F22894914A804F07AF83B689B685A
:10343000002BC1F20F81AAFB0312D20802EB82011A
:10344000A3EB410330338DF840301346002A01F0DE
:10345000A6812046A6460021AAFB03C2D20802EBA1
:10346000820CA3EB4C0330330EF8013F01311346BD
:10347000002AF1D10DF1600E8E4463180EF81F2C56
:1034800093F800E090F800C000F801EB0132C2EBC5
:10349000010E964503F801C9F2DC20460CF010FE3F
:1034A0002146024614A804F03BF80F22684914A8EC
:1034B00004F036F8049B1B689B68002BC1F28980DE
:1034C000AAFB0312D20802EB8201A3EB41033033C3
:1034D0008DF840301346002A01F065812046A6464B
:1034E0000021AAFB03C2D20802EB820CA3EB4C031F
:1034F00030330EF8013F01311346002AF1D10DF1AE
:10350000600E8E4463180EF81F2C93F800E090F8BC
:1035100000C000F801EB0132C2EB010E724503F866
:1035200001C9F2DB20460CF0CBFD2146024614A86F
:1035300003F0F6FF0F22474914A803F0F1FF029BA6
:103540001B689B68002BC1F20A80AAFB0312D208F9
:1035500002EB8201A3EB410330338DF84030134678
:10356000002A01F024812046A6460021AAFB03C2BE
:10357000D20802EB820CA3EB4C0330330EF8013F70
:1035800001311346002AF1D10DF1600E8E4463180B
:103590000EF81F2C93F800E090F800C000F801EB43
:1035A0000132C2EB010E724503F801C9F2DB20467D
:1035B0000CF086FD2146024614A803F0B1FF0F224D
:1035C000254914A803F0ACFF039B1B689B68002BE4
:1035D000C0F28B87AAFB0312D20802EB8201A3EB95
:1035E000410330338DF840301346002A01F0CF807C
:1035F0002046A6460021AAFB03C2D20802EB820C99
:10360000A3EB4C0330330EF8013F01311346002A7F
:10361000F1D10DF1600E8E4463180EF81F2C23E0DB
:10362000B41F0100601FFF1FB41DFF1FB81DFF1F47
:10363000BC1DFF1FD81DFF1FDC1DFF1FD01DFF1F5E
:10364000FC1DFF1FD41DFF1F00210100A42001004D
:10365000B4200100C4200100D4200100AC1DFF1FD4
:10366000B01DFF1FCDCCCCCC93F800E090F800C08B
:1036700000F801EB0132C2EB010E724503F801C9FB
:10368000F2DB20460CF01CFD2146024614A803F094
:1036900047FF0F22644914A803F042FF634B1B68E5
:1036A0009B68002BC0F2E786AAFB0312D20802EB4C
:1036B0008201A3EB410330338DF840301346002ADA
:1036C00001F061802046A6460021AAFB03C2D20871
:1036D00002EB820CA3EB4C0330330EF8013F0131B7
:1036E0001346002AF1D10DF1600E8E4463180EF8D6
:1036F0001F2C93F800E090F800C000F801EB0132B5
:10370000C2EB010E724503F801C9F2DB20460CF052
:10371000D7FC2146024614A803F002FF13224449B5
:1037200014A803F0FDFE169A1095119512958DF8C8
:103730004C50149B002A40F0FE8718460DF084FB85
:10374000129B1495159516958DF85C50002B40F042
:10375000CB8714A805F028FE14980DF075FB962071
:1037600009F0DEFBD9F800000BF0FAF9D8F80000F8
:103770000BF0F6F92F4B18680BF0F2F92E4B186886
:103780000BF0EEF92D4BD3F800B058460BF0E8F9EA
:103790002A4B5A68019210460BF0E2F9284B186840
:1037A0000BF0DEF9D9F80030019A1B68997B19B14A
:1037B0001B7B002B00F08887D8F800301B68997BB2
:1037C00019B11B7B002B00F084871A4B1B681B6808
:1037D000997B19B11B7B002B00F08087164B1B686F
:1037E0001B68997B19B11B7B002B00F09E87DBF8CF
:1037F0000030997B19B11B7B002B00F0BE8713684A
:103800009A7B1AB11B7B002B00F0D5870C4B1B68F1
:103810001B689A7B1AB11B7B002B00F00485109863
:103820000DF012FBB4E500BF24210100201EFF1F94
:1038300024240100B41DFF1FB81DFF1F601FFF1FC0
:10384000BC1DFF1F012323720C9810AD0DF0FCFA74
:103850002846B14903F0ECFEB04B1B7A002B00F078
:10386000A585AF49284603F0A9FE482303934323C7
:103870004FF0540A4F270293AA4CAB49DFF8E4B249
:1038800014A803F0D5FE3B01E218E158926814A891
:1038900003F046FEA54914A803F082FE4FEA0A137E
:1038A000E218E1589268064603F03AFE3046A04915
:1038B00003F076FE029B1B01E218E158926806466F
:1038C00003F02EFE30469B4903F06AFE039B1B016A
:1038D000E218E1589268064603F022FE3046964907
:1038E00003F05EFE0346284619689A6803F018FE46
:1038F00014A803F0CDFC294614A803F06DFE14A80B
:1039000005F052FD14A803F0C3FC962009F008FB53
:10391000D9F8006030460BF023F9D8F800000BF01E
:103920001FF9864B18680BF01BF9854B18680BF0D4
:1039300017F9DBF800000BF013F9D9F800603368D1
:103940009A7B0AB11B7B33B1DBF800000BF000F966
:10395000002800F027837B4B01931B681F602846DB
:1039600003F096FC6D4B78491B7A002B0BBF2B2381
:1039700030233222372214A80BBF37273C273E269C
:1039800043260393029203F053FE01990B681B68D0
:103990001B01E218E158926814A803F0C1FD6B49BD
:1039A00014A803F0FDFD3301E218E1589268824645
:1039B00003F0B6FD50465D4903F0F2FD3B01E2180D
:1039C000E1589268824603F0ABFD5046584903F037
:1039D000E7FD029A1301E218E1589268824603F06B
:1039E0009FFD5046534903F0DBFD039B1B01E2188A
:1039F000E1589268824603F093FD5046544903F023
:103A0000CFFD0146284603F0E7FD14A803F040FC73
:103A1000294614A803F0E0FD14A805F0C5FC14A87D
:103A200003F036FC962009F07BFAD9F800A0504646
:103A30000BF096F8D8F800000BF092F83F4B18689E
:103A40000BF08EF83E4B18680BF08AF8DBF800009C
:103A50000BF086F8D9F800A0DAF800309A7B0AB1AA
:103A60001B7B33B1DBF800000BF072F8002800F08C
:103A7000A582DFF8F4A0DAF800301E60284603F0D3
:103A800007FC264B33491B7A002B0BBF3E234323F5
:103A9000372630260BBF322237224FF02B0E4FF045
:103AA000240E1F46089304960BBF43233C2326266F
:103AB0002B2614A8CDF808E007930692039603F08E
:103AC000B7FD019803681B681B01E218E158926872
:103AD00014A803F025FD204914A803F061FDDAF8CD
:103AE00000301B681B01E218E1589268064603F09B
:103AF00017FD3046194903F053FD029B1B01E218E4
:103B0000E1589268064603F00BFD3046144903F075
:103B100047FD03992AE000BF38240100601FFF1F02
:103B200034210100CC20FF1F542101008821010015
:103B300094210100A0210100AC210100B41DFF1F50
:103B4000B81DFF1FD01DFF1FF82101000C2201002E
:103B500044220100A4220100B4220100B822010085
:103B6000D82201000C1EFF1FD41DFF1F0B01E218FD
:103B7000E1589268064603F0D3FC3046B24903F0A0
:103B80000FFD04990B01E218E1589268064603F014
:103B9000C7FC3046AD4903F003FD069A1301E21855
:103BA000E1589268064603F0BBFC3046A84903F092
:103BB000F7FC079B1B01E218E1589268064603F0E8
:103BC000AFFC3046A34903F0EBFC3B01E218E1589F
:103BD0009268064603F0A4FC30469F4903F0E0FCDF
:103BE0000146284603F0F8FC14A803F051FB2946CF
:103BF00014A803F0F1FC14A805F0D6FB14A803F0F8
:103C000047FB962009F08CF9944BD9F800701E6898
:103C10005B68059338460AF0A3FFD8F800000AF065
:103C20009FFF8F4B18680AF09BFF8E4B18680AF0B5
:103C300097FF30460AF094FF05980AF091FFDBF8F1
:103C400000000AF08DFFD9F800703B689A7B1AB12A
:103C50001B7B002B00F0C981D8F800000AF078FF28
:103C6000002800F0CA81804E039A33681A60284603
:103C700003F00EFB794B7D4A1B7A0992002B0BBF98
:103C800037273C274FF0430E4FF0480E0BBF32232F
:103C900037232B223022CDF808E0049707BF4FF0DE
:103CA0003E0E4A274F274FF0430E7149CDF814E0DE
:103CB00014A807930692039703F0BAFC01980368CF
:103CC0001B681B01E218E158926814A803F028FC55
:103CD000684914A803F064FCDAF800301B681B0183
:103CE000E218E1589268074603F01AFC3846624928
:103CF00003F056FC33681B681B01E218E158926818
:103D0000074603F00DFC38465C4903F049FC029B72
:103D10001B01E218E1589268074603F001FC38469F
:103D2000574903F03DFC03990B01E218E1589268F2
:103D3000074603F0F5FB3846434903F031FC04998C
:103D40000B01E218E1589268074603F0E9FB384698
:103D50004C4903F025FC05990B01E218E1589268E3
:103D6000074603F0DDFB3846394903F019FC069A93
:103D70001301E218E1589268074603F0D1FB384678
:103D8000344903F00DFC079B1B01E218E1589268CF
:103D9000074603F0C5FB38463B493C4F03F000FCA7
:103DA0000146284603F018FC14A803F071FA2946CE
:103DB00014A803F011FC14A805F0F6FA14A803F0F7
:103DC00067FA962009F0ACF8244BD9F800201B685C
:103DD0000893224B0B945B680A93144620460AF022
:103DE000BFFED8F800000AF0BBFE1D4B18680AF0B1
:103DF000B7FE1C4B18680AF0B3FE08980AF0B0FE34
:103E00000A980AF0ADFEDBF800000AF0A9FED9F826
:103E100000402368997B09B11B7B33B1DBF80000BC
:103E20000AF096FE002800F0D480099B029A1B68D5
:103E30001A60134601210C3B3E2BFCDC3868036002
:103E40000029CBD024E000BF94210100E42201002E
:103E5000F0220100FC220100AC210100601FFF1FC5
:103E6000B41DFF1FB81DFF1FD81DFF1FDC1DFF1F46
:103E7000A4220100B4220100082301001423010040
:103E800088210100A02101003C230100FC1DFF1F2F
:103E900028460B9C03F0FCF9774914A803F0C8FBF3
:103EA000019B1B681B681B01E218E158926814A86B
:103EB00003F036FB714914A803F072FBDAF8003006
:103EC0001B681B01E218E1589268074603F028FBC3
:103ED00038466B4903F064FB33681B681B01E2182A
:103EE000E1589268074603F01BFB6649384603F029
:103EF00057FB099B1B681B681B01E218E15892687D
:103F0000064603F00DFB30465F4903F049FB0146CE
:103F1000284603F061FB14A803F0BAF9294614A857
:103F200003F05AFB14A805F03FFA14A803F0B0F907
:103F3000962008F0F5FFD9F8006030460AF010FE30
:103F4000D8F800000AF00CFEDBF800000AF008FECA
:103F50004E4B18680AF004FEDBF800301B689A7BB1
:103F60001AB11B7B002B00F0AA81D9F80060304603
:103F70000AF0EEFD044630B1284603F089F92046E8
:103F800019B0BDE8F08F414B1B681B689A7B12B1DA
:103F90001B7B002BF0D0D8F800000AF0D9FD0028D8
:103FA000EAD1CAE7D8F800000AF0D2FD00283ED0D6
:103FB000374B01931B68C3F800A0D0E4D8F8000089
:103FC0000AF0C6FD28B3DFF8D8A0DAF800301F6089
:103FD00054E5D8F800000AF0BBFD002834D0099B56
:103FE000039A1B681A60134624E72A4E029A336824
:103FF0001A603CE6284A137226E4284B18680AF037
:10400000A7FD002800F0A981224E049A33681A60A7
:104010002DE6224B18680AF09BFD002800F0518124
:10402000DFF87CA0029ADAF800301A6026E51B4B14
:1040300018680AF08DFD002800F05281144B01939E
:104040001B68029A1A608AE4144B18680AF080FD13
:10405000002800F07381099B049A1B681A601346BC
:10406000012100E00C33312BFCDD386803600029AE
:104070003FF4B4AE0CE700BF7023010098230100A9
:10408000B0230100C8230100E0230100BC1DFF1F75
:10409000D01DFF1FD81DFF1F601FFF1FB41DFF1F76
:1040A000D41DFF1F954A964B029210AC954A964E2E
:1040B000964D974F039204949B46964914A803F09B
:1040C000B7FA33681B681B01EA18E958926814A80C
:1040D00003F026FA0F22904914A803F021FA3B6856
:1040E0001B681B01EA18E958926814A803F018FA33
:1040F0000F228A4914A803F013FADBF800301B687A
:104100001B01EA18E958926814A803F009FA0F2273
:10411000834914A803F004FA029B1B681B681B0167
:10412000EA18E958926814A803F0FAF90F227D49B9
:1041300014A803F0F5F9039B1B681B681B01EA1820
:10414000E958926814A803F0EBF91922764914A8EB
:1041500003F0E6F914A9049803F03EFA14980CF061
:1041600073FE129C00201490159016908DF85C0040
:10417000002C7ED114A805F017F914980CF064FEF9
:10418000962008F0CDFED9F800000AF0E9FCD8F836
:1041900000000AF0E5FC654B18680AF0E1FC644B8E
:1041A00018680AF0DDFC634B1C6820460AF0D8FC56
:1041B000604B5A68019210460AF0D2FC5E4B1868B8
:1041C0000AF0CEFCD9F80030019A1B68997B11B136
:1041D0001B7B002B37D0D8F800301B68997B11B1BE
:1041E0001B7B002B36D0514B1B681B68997B11B190
:1041F0001B7B002B35D04E4B1B681B68997B11B184
:104200001B7B002B53D02368997B09B11B7B93B197
:1042100013689A7B0AB11B7B23B1474B18680AF0DD
:1042200097FC60B1049C204603F032F80C980CF027
:104230000BFEFFF758B8039B18680AF00DFD1098A5
:104240000CF002FE39E730680AF006FD10980CF019
:10425000FBFD32E738680AF0FFFC10980CF0F4FD23
:104260002BE7DBF800000AF0F7FC10980CF0ECFDEF
:1042700023E7109A0192611C0CF0EEFD034658B141
:10428000169914901594019A01B9017011461846B7
:1042900016940BF09FFE6DE70190149818B10CF086
:1042A000D3FD019B149300231593169362E7029BA1
:1042B00018680AF0D1FC10980CF0C6FDFDE6012448
:1042C0005AE61B4B18680AF043FC00283FF4AFABDA
:1042D000DFF83CA0039ADAF800301A60FFF7CEBB93
:1042E000134B18680AF034FC00283FF413AB064B5C
:1042F00001931B68039A1A60FFF731BBDC1DFF1F97
:10430000D81DFF1FFC1DFF1FD01DFF1FCC20FF1F4E
:10431000D41DFF1F68200100A4200100B42001006B
:10432000C4200100D4200100E4200100B41DFF1FBF
:10433000B81DFF1F601FFF1FBC1DFF1FC24B186869
:104340000AF006FCD0B1099B059A196813460A6069
:1043500001213E2B3FF76FAD85E6DBF800000AF048
:10436000F7FB00287FF450AEB74B18680AF0F0FB5B
:1043700098B1B64E069A33681A6078E408980AF045
:10438000E7FB68BB0A980AF0E3FB099B1B6800285F
:1043900040F0378201461B68DBE730460AF0D8FB65
:1043A00020B3AA4E079A33681A6060E4A8492846E9
:1043B00003F004F9432303933E234FF04F0A4A27A7
:1043C0000293FFF759BA30460AF0C2FB002800F00A
:1043D00010820CA802F05CFF204619B0BDE8F08FF7
:1043E000099B069A1B681A60134639E605980AF07D
:1043F000AFFB00283FF40EAC944E089A33681A6065
:1044000035E45B42AAFB0312D20802EB8201A3EB64
:10441000410330332D218DF841308DF84010134683
:10442000002A00F0DA810DF141000021AAFB03E22D
:10443000D20802EB820EA3EB4E03303300F8013FAB
:1044400001311346002AF1D14A1C18A81044A6468F
:1044500000F81F3C2244204692F800C01EF801BF1D
:1044600000F801CF0133C3EB010C634502F801B939
:10447000F2DBFEF7CEBF5B42AAFB0312D20802EBCF
:104480008201A3EB410330332D218DF841308DF8AB
:1044900040101346002A00F0A4810DF141000021D4
:1044A000AAFB03E2D20802EB820EA3EB4E033033E9
:1044B00000F8013F01311346002AF1D14A1C18A827
:1044C0001044A64600F81F3C2244204692F800C043
:1044D0001EF801BF00F801CF0133C3EB010C6345A7
:1044E00002F801B9F2DBFFF711B95B42AAFB031234
:1044F000D20802EB8201A3EB410330332D218DF86A
:1045000041308DF840101346002A00F062810DF111
:1045100041000021AAFB03E2D20802EB820EA3EBCA
:104520004E03303300F8013F01311346002AF1D128
:104530004A1C18A81044A64600F81F3C22442046F6
:1045400092F800C01EF801BF00F801CF0133C3EBA1
:10455000010C634502F801B9F2DBFFF792B85B4248
:10456000AAFB0312D20802EB8201A3EB4103303312
:104570002D218DF841308DF840101346002A00F0AF
:1045800024810DF141000021AAFB03E2D20802EBD5
:10459000820EA3EB4E03303300F8013F0131134686
:1045A000002AF1D14A1C18A81044A64600F81F3C66
:1045B0002244204692F800C01EF801BF00F801CF47
:1045C0000133C3EB010C634502F801B9F2DBFEF7DE
:1045D000EEBF5B42AAFB0312D20802EB8201A3EBFF
:1045E000410330332D218DF841308DF840101346B2
:1045F000002A00F0E6800DF141000021AAFB03E251
:10460000D20802EB820EA3EB4E03303300F8013FD9
:1046100001311346002AF1D14A1C18A81044A646BD
:1046200000F81F3C2244204692F800C01EF801BF4B
:1046300000F801CF0133C3EB010C9C4502F801B92E
:10464000F2DCFEF76FBF00BFB81DFF1FD81DFF1FB4
:10465000442101005B42AAFB0312D20802EB820153
:10466000A3EB410330332D218DF841308DF84010FC
:104670001346002A00F0B9800DF141000021AAFB89
:1046800003E2D20802EB820EA3EB4E03303300F8B4
:10469000013F01311346002AF1D14A1C18A81044E9
:1046A000A64600F81F3C2244204692F800C010F8AD
:1046B00001BF0EF801CF0133C3EB010C9C4502F89A
:1046C00001B9F2DCFEF7E9BE306806F083FBFFF7C4
:1046D000A6B8386806F07EFBFFF7A1B8049B1868FF
:1046E00006F078FBFFF79BB8109A0593591C002041
:1046F00001920CF0B1FB834668B11699059B1490AA
:104700001593019A01B901701146584616930BF0A2
:1047100061FCFFF71EB8149818B10CF095FBCDF8AA
:1047200050B015951695FFF714B8029B186806F05F
:1047300051FBFFF774B8511C0020059301920CF057
:104740008BFB834670B11299019A10901192059BD0
:1047500001B901701946584612920BF03BFC149BAC
:10476000FEF7EBBF109818B10CF06EFBCDF840B01F
:10477000149B11951295FEF7E0BF039B186806F095
:1047800029FBFFF74CB88DF84120FEF7BFBF8DF82D
:104790004120FEF776BF8DF84120FEF73ABE8DF836
:1047A0004120FEF77ABE8DF84120FEF7BBBE8DF8A2
:1047B0004120FEF7FCBE154B186806F00BFBFFF717
:1047C0002EB88DF84220FEF7ADBE8DF84220FEF7E0
:1047D000EEBE8DF84220FEF754BF8DF84220FEF762
:1047E00018BE8DF84220FEF791BF8DF84220FEF7EB
:1047F00054BE074B18680AF0ABF900287FF4E9AD06
:1048000014E5079A1A6013462AE400BF201EFF1F12
:10481000BC1DFF1FFFFFFFFF10B5084614461146E1
:1048200004F0A8F8204610BD0846114602F0BCBFAF
:104830002DE9F04FA04C94F9223002213C220133A3
:1048400089B084F8211084F8202000F0E38494F8E3
:1048500024009A4E09F066FB94F8260009F062FBEA
:1048600094F9261094F9242094F8273056F8311042
:1048700056F8322021630125626384F83A5084F8A7
:104880003B50002B00F00A858D4A8E4853681D6806
:1048900059682F683943296011688B4D08608B4F28
:1048A000CD608B4D0F610D60517A5D180C3195F81C
:1048B0002C5053F8217006EBC50149680F60117A3E
:1048C0005D1803EB81012D7ECF6906EBC5014968B8
:1048D0000F60917A5D1803EB810395F840105D6CD1
:1048E00006EBC1035B681D6053680ACB0D682B4360
:1048F0000B601168CB68CD6803F0E06343F0384289
:1049000042F40032AA420BD00D6843F078436F04A2
:1049100043F4003300F1EB840860CA600B610D6062
:1049200094F8250009F0FEFA94F8250009F074FBCC
:10493000012008F0F5FA94F825303F2B0AD856F8F4
:1049400033105E4A91F88002002800F0168401239B
:1049500081F800310A2008F0E3FA94F825005D4D53
:104960005D4CDFF89881DFF898A109F055FBAE2087
:1049700009F074FED52009F071FE802009F06EFE6A
:10498000A82009F06BFE3F2009F068FED32009F053
:1049900065FE002009F062FE402009F05FFE8D20D8
:1049A00009F05CFE142009F059FE202009F056FEA3
:1049B000002009F053FEA12009F050FEC82009F0A4
:1049C0004DFEDA2009F04AFE122009F047FE812050
:1049D00009F044FECF2009F041FED92009F03EFE47
:1049E000F12009F03BFEDB2009F038FE402009F001
:1049F00035FEA42009F032FEA62009F02FFEAF20DC
:104A000009F02CFE04F036FC344804F03BFC04F0C2
:104A1000EFF84FF4487008F083FA04F02BFC3048AC
:104A200004F030FC04F0E4F86E2008F079FA04F0A9
:104A300021FC2C4804F026FC04F0DAF86E2008F083
:104A40006FFA04F017FC284804F01CFC04F0D0F8BE
:104A50006E2008F065FA04F00DFC244804F012FC06
:104A600004F0C6F86E2008F05BFA04F003FC20485E
:104A700004F008FC04F0BCF86E2008F051FA04F0D1
:104A8000F9FB1C4804F0FEFB04F0B2F86E2008F0BD
:104A900047FA04F0EFFB184804F0F4FB04F0A8F820
:104AA00004F0E8FB05F01EFA4FF47A7008F038FACB
:104AB00040F2EE292F682AE04C32FF1F906C010073
:104AC0000C15FF1F01401F00011000380110007875
:104AD00000001F805C33FF1F0837FF1F44240100C4
:104AE00044280100442C01004430010044340100FA
:104AF00044380100443C0100444001007436FF1F6B
:104B00007036FF1FB3F5FA6F16D809F091F909F066
:104B10008FF923784BB198F80030D80705D52B686A
:104B2000DAF800209B1A0E2B06D82B682278DB1BA4
:104B3000002AE7D14B45E8D94FF4FA7008F0F0F9B4
:104B40000621C548C54CDFF85093DFF8508302F0CA
:104B50002BFE0222C24906A80AF09CFF022106A8E9
:104B600002F022FE00274FF46141BE4884F86270D3
:104B700084F8637002F094FBFF212046242284F81D
:104B80005F7084F8607084F861700AF0D1FADFF821
:104B900010E3B548B549DFF80CC3DEF8002004780F
:104BA0000B785FFA84FADCB2A24538BF9244C4EBBA
:104BB0000A0484B390F800A00C785FFA8AFAE4B291
:104BC000A245ECD0631C9A421FD93F2B40F293833D
:104BD000A4F13F0BD9F8004014F80B405FFA83FBB7
:104BE000DCF8004081F800B0002CD6D09A453CBFDC
:104BF0005244D31AD8F8002028BFC3EB0A039342CB
:104C0000CBD82770DEF80020C9E74FF0000B5B46D9
:104C1000974CE45CE4E74FF0050A4FF0F0094FF0E1
:104C2000AA0855274FF0010B514606A88DF81AA087
:104C30008DF818908DF819808DF81BB08DF81C70C8
:104C400003F098FE4FF00203514606A88DF81B3082
:104C50008DF818908DF819808DF81AA08DF81C70B9
:104C600003F088FE0A2008F05BF95146042206A8EA
:104C70008DF818908DF819808DF81AA08DF81C7099
:104C80008DF81B2003F076FE082319460C2206A897
:104C90008DF81A308DF81B208DF818908DF819803A
:104CA0008DF81CB08DF81F708DF81D408DF81E40DA
:104CB00003F060FE8C200CF0BFF8DFF8EC916D4A39
:104CC0006D49047609F14803C36227230746C0F8FB
:104CD00024900263416380F8383000F13C0807F00B
:104CE00053F909F14C0C09F19403644ADFF8BC91C3
:104CF000C7F860C049213A6787F8741087F854B044
:104D00004046BB66C7F86C9007F03EF94FF00203CF
:104D100087F878305A4BC7F88080C7F88880FF67DB
:104D2000C7F88470C0201F600FF2241BDBE900ABC2
:104D30000CF082F8002200230021C0F8A410C0E982
:104D40000423C0E90623C0E90823C0E90A23C0E917
:104D50000C23C0E90E23C0E91023C0E91223C0E9E7
:104D60001423C0E91623C0E91823C0F8884080F84E
:104D7000964080F89740C0F8A040C0E902AB0746D3
:104D800008F01CF9C7F8A80008F018F9C7F8AC003B
:104D900008F014F92B680493049A2B680393039B7F
:104DA000C7F8B000C7F8B420C7F8B83014200CF02A
:104DB00043F82B680593059A324B334902618146CB
:104DC0004FF480721020C9F8000081F880421A6008
:104DD0002B4B99F800801B68B8F1450FD3F8804041
:104DE00040F29881E38A9BB243F00403E382274AAE
:104DF0002748C7F89C9000230F2440F203113C6021
:104E0000C9F80430C9F8083080F8803211603A7867
:104E10003F2A04D856F8323093F80032DBB2003320
:104E200018BF012300241B4A87F89430C7F8984024
:104E3000702017600CF000F81823DFF874800190E0
:104E40004460A246036000F10C0B01274CE000BF58
:104E5000000000A09999793FAC450100F832FF1F8E
:104E600044440100200CFF1F4C37FF1F4D37FF1F2C
:104E70007433FF1F00B003401060034038600340EC
:104E8000F81DFF1F00A004400008FE4300B00440CE
:104E90000010FE43F41DFF1F6833FF1F380CFF1F77
:104EA000CC13FF1F7033FF1F4844010000B00B40BC
:104EB000E044010056F83320DEF8041092F800E2D6
:104EC00080F80CE040F2031E4373206082F880A259
:104ED000C1F800E0A7600137192F4FF0000984F8EE
:104EE00004A04BF8044F1BD00C200BF0A5FF58F882
:104EF000049F044610200BF09FFF2B6806935FFA77
:104F000089F30521069AC0F808A03F2B06EBC30ED3
:104F100041600260CED980F80CA043732060D9E7CD
:104F20009A4D019B2B6008200BF086FFFA22272167
:104F30000446974F974E09F05FFE2A6896493C60F9
:104F400017690F60954D976E37609548D76D2F6044
:104F500084F805905769934C07609349D769276097
:104F6000924E176A0F60924D976A92489249376045
:104F7000924C176B566B2F600660D56E526E256093
:104F800014200A600BF058FF0246462443218C4D42
:104F900080F80C90012682F80D9056601160116126
:104FA000946014202A600BF047FF02463721854D9C
:104FB00080F80C90022682F80D9094605660116083
:104FC000116114202A600BF037FF024630257E491C
:104FD00080F80C90032682F80D909460566015605E
:104FE000156114200A600BF027FF024624210426D5
:104FF000764F80F80C9082E8420082F80D90946021
:10500000116114203A600BF017FF0246704980F8D6
:105010000C90052782F80D9015609460156157601B
:1050200014200A600BF008FF024684605321694D8A
:1050300082F80C90062482F80D9054601160116182
:1050400008202A600BF0F8FE1621C822044609F059
:10505000D3FD614A614F146008200BF0EDFEC822B9
:105060001521044609F0C8FD5D495E4A0C60082020
:10507000C2F800900BF0E0FE40F22B12172104461C
:1050800009F0BAFD5849594A0C606720C2F80090EF
:1050900008F040F805460C200BF0CEFE292104460E
:1050A000C82209F0A9FD524AA5606820146008F0E2
:1050B00031F805460C200BF0BFFE11210446C82232
:1050C00009F09AFD4B4AA5606920146008F022F8A7
:1050D00005460C200BF0B0FEC8220E21044609F054
:1050E0008BFD4548454A464906601460454BA5601E
:1050F0004548464D464AC1F800900C21C3F800903F
:10510000C7F80090C5F8009080F80090116009B0D1
:10511000BDE8F08F606A10F8083003F01F031F2B02
:105120003FF460AE637E002B40F0DC80236B617D3A
:105130005A0102F1844201314FF0010E6175C2F84B
:105140008CE410F808205B01110603F1844346BF8C
:105150000021C3F89011C3F890E172B6216B4B01A6
:1051600003F1844302F01F029B69003318BF01233F
:1051700002EB83120A6062B639E602EBC3035A6897
:10518000136823F002031360FFF7E4BBE81DFF1F61
:10519000F01DFF1F0C1EFF1FBC1DFF1F101EFF1F59
:1051A000AC1DFF1FB01DFF1FB41DFF1FB81DFF1F4B
:1051B000601FFF1F641FFF1F1C1EFF1F141EFF1F09
:1051C000D01DFF1FD41DFF1FDC1DFF1FD81DFF1F9B
:1051D000FC1DFF1F201EFF1F001EFF1F0037FF1FAB
:1051E000041EFF1FE41DFF1F081EFF1FE01DFF1F01
:1051F000C41DFF1FC81DFF1F381EFF1FCC1DFF1F32
:10520000A41DFF1FA81DFF1F341EFF1FC01DFF1F71
:10521000181EFF1F394B3A4E5969002283F8A0200F
:1052200083F8A12083F82C2183F82D2183F82E21E7
:1052300083F82F210D6848682F68C3F8342138435C
:10524000C3F8382128601869827093F83121086802
:105250000A44157A527B06EBC50512026D6802F40A
:10526000E06242F064022A6093F832210A44957C9D
:10527000D27D06EBC505120202F4E0626D6842F0D1
:1052800064022A6000684A68104224D11A69202109
:1052900051711B6980229A70FFF742BB94F822007B
:1052A00008F040FE94F8230008F03CFE94F9231027
:1052B00094F9222094F8273056F8311056F832200D
:1052C00084F8395084F83850E162A262002B3FF430
:1052D00027ABFFF7D9BA1A692C2151701A6904213A
:1052E0009171D3E7204607F02FFF606A1EE7CA607E
:1052F0000B61FFF715BB5FFA83FB89E4D013FF1F37
:10530000906C0100704700BF2DE9F04FDFF8FCA260
:10531000DFF8FC92A74FA84DA84E93B0A8490EA85D
:1053200002F086F9DAF80820DAF800100EA802F088
:10533000F7F80522A3490EA802F0F2F8D9F80820E0
:10534000D9F800100EA802F0EBF805229E490EA82D
:1053500002F0E6F89D4B0EA89A68196802F0E0F892
:1053600005229B490EA802F0DBF89A4B0EA89A681A
:10537000196802F0D5F8172297490EA802F0D0F864
:105380000EA906A802F028F90E980BF05DFD06A9FB
:105390000EA802F021F90EA804F006F80E980BF002
:1053A00053FD962007F0BCFD386809F0D9FB28684A
:1053B00009F0D6FB894B186809F0D2FB884B1868B6
:1053C00009F0CEFB874B186809F0CAFB306809F07A
:1053D000C7FB3B681B689A7B22B193F80CB0BBF10A
:1053E000000F29D02B681B689A7B2AB193F80CB068
:1053F000BBF1000F00F04181784B1B681B689A7B62
:105400001AB11B7B002B00F01382754B186809F052
:105410009FFB0446002800F02482042006F040FF91
:10542000044606980BF010FD002C3FF477AF0124E2
:10543000204613B0BDE8F08F6B4C6C490EA802F00B
:10544000F7F8D4F83824D4F830140EA802F068F82D
:1054500067490EA802F0A4F8D4F87823D4F87013A2
:10546000804602F05DF84046624902F099F8D4F8AF
:105470007823D4F87013804602F052F840465E4913
:1054800002F08EF8D4F8B822D4F8B012804602F0B8
:1054900047F84046594902F083F80DF128080146C3
:1054A000404602F099F80E980BF0CEFC41460EA84B
:1054B00002F092F8302303A88DF80C308DF80DB06F
:1054C0000AF0FEFD03A902460EA802F029F84C4995
:1054D0000EA802F065F8404508D08468002C40F022
:1054E000B6810A9B03B11C7000230C930E980BF03D
:1054F000ABFC41460EA802F06FF80023302203A84F
:105500008DF80D308DF80C200AF0DAFD03A9024663
:105510000EA802F005F83B490EA802F041F84045FC
:1055200008D08468002C40F088810A9B03B11C706D
:1055300000230C930E98344C0BF086FC41460EA8C9
:1055400002F04AF80EA803F02FFF0E980BF07CFC37
:10555000962007F0E5FC386809F002FB286809F09E
:10556000FFFA206809F0FCFA306809F0F9FA3868A7
:1055700003689A7B12B11B7B002B4BD023681B68FE
:105580009A7B12B11B7B002B44D02B681B689A7B43
:105590000AB11B7B3BB133681B689A7B002ADBD0C6
:1055A0001B7B002BD8D10A980BF04EFC06980BF011
:1055B0004BFCB3E6AC1DFF1FB01DFF1FBC1DFF1F42
:1055C000244601006C46010074460100AC20FF1F18
:1055D0007C460100BC20FF1F84460100B41DFF1F54
:1055E000B81DFF1F601FFF1FCC28FF1FC44601000E
:1055F000E8460100F846010008470100184701008D
:10560000244701009C4601000C1EFF1F8C20FF1F39
:105610009C20FF1FA64CA748A74AA84BA849D4F82E
:105620000080D0F800E017681E680968A54DA64CF8
:10563000A648432337224FF02B0C0B60C8F80020FC
:10564000CEF800C03A6033602A780023012A236034
:10565000036006D00A980BF0F7FB06980BF0F4FBFA
:10566000E5E608790138000200F4706040F440403B
:1056700040F00C0002F088F9ECE7DFF878829449FA
:10568000944C0EA801F0D4FFD8F83824D8F8301480
:105690000EA801F045FF90490EA801F081FFD8F84F
:1056A0007823D8F87013019001F03AFF019B8B49E1
:1056B000184601F075FFD8F8C823D8F8C013019038
:1056C00001F02EFF019B8649184601F069FFD8F8CA
:1056D0004822D8F84012019001F022FF019B814935
:1056E000184601F05DFF01460AA801F075FF0E980B
:1056F0000BF0AAFB0AA90EA801F06EFF4FF03008CC
:1057000003A88DF80DB08DF80C800AF0D9FC03A920
:1057100002460EA801F004FF73490EA801F040FFF5
:1057200001460AA803F030FF0E980BF08DFB0AA982
:105730000EA801F051FF03A88DF80C808DF80DB074
:105740000AF0BEFC03A902460EA801F0E9FE674973
:105750000EA801F025FF01460AA803F015FF0E98D8
:105760000BF072FB0AA90EA801F036FF0EA803F099
:105770001BFE0E980BF068FB962007F0D1FB3868F3
:1057800009F0EEF9286809F0EBF9206809F0E8F96A
:10579000306809F0E5F9386803689A7B0AB11B7B29
:1057A000B3B123681B689A7B0AB11B7B83B12B685A
:1057B0001B689A7B1AB11B7B002B3FF4F4AE336855
:1057C0001B689A7B002ADBD01B7B002BD8D1EAE632
:1057D000374C38483849394B394AD4F800C0076843
:1057E0000E681D6812683749374C38483C234FF023
:1057F00043094FF037084FF0240EC2F80090CCF860
:105800000080C7F800E033602B600978002301298D
:10581000236003607FF41EAF10790138000200F4AA
:10582000706040F4E03040F00C0002F0ADF811E799
:10583000032006F035FD0446F3E50B9A0368944215
:105840001CD80A980C9419460AF0C4FB72E60B9A0D
:105850000368944250D80A980C9419460AF0BAFB8F
:1058600044E6234B186809F073F900285ED006A8B7
:1058700001F00EFD204613B0BDE8F08F611C0A98C0
:1058800001930BF0E9FA834640B10C9A0A900B940D
:10589000019B002AD6D102700A98D3E70A9818B162
:1058A0000BF0D2FACDF828B000230B930C9341E60D
:1058B000D41DFF1FD81DFF1FDC1DFF1FFC1DFF1F78
:1058C000D01DFF1F341EFF1FE41DFF1FE01DFF1F23
:1058D000C44601000C1EFF1FE8460100F846010007
:1058E0000847010018470100244701009C460100B9
:1058F000601FFF1FCC28FF1F611C0A9801930BF04B
:10590000ABFA834640B10C9A0A900B94019B002A93
:10591000A2D102700A989FE70A9818B10BF094FA86
:10592000CDF828B000230B930C93DFE5306809F025
:105930000FF900289BD139E62DE9F04FEB4CDFF849
:1059400038A4EB4FEB4DDFF83494DFF8348485B0A6
:105950005146204601F06CFE2A463946204609F0A1
:10596000ADFB4946684601F063FE2146684602F0F9
:1059700061F804F1100B0146584601F02DFE68460F
:1059800001F086FC2A463946584604F1200B09F0FE
:1059900095FB4146584601F04BFE2A46394658468B
:1059A00004F1300B09F08AFB07F046FB51465846DC
:1059B00001F03EFE2A463946584609F07FFB49462B
:1059C000684601F035FE5946684602F033F804F1A6
:1059D000400B0146584601F0FFFD684601F058FCB7
:1059E0002A463946584604F1500B09F067FB4146F8
:1059F000584601F01DFE2A463946584604F1600B10
:105A000009F05CFB07F018FB5146584601F010FE08
:105A10002A463946584609F051FB4946684601F086
:105A200007FE5946684602F005F804F1700B01467E
:105A3000584601F0D1FD684601F02AFC2A46394655
:105A4000584604F1800B09F039FB4146584601F0F5
:105A5000EFFD2A463946584604F1900B09F02EFB1B
:105A600007F0EAFA5146584601F0E2FD2A46394667
:105A7000584609F023FB4946684601F0D9FD5946CE
:105A8000684601F0D7FF04F1A00B0146584601F02B
:105A9000A3FD684601F0FCFB2A463946584604F14E
:105AA000B00B09F00BFB4146584601F0C1FD2A46F8
:105AB0003946584604F1C00B09F000FB51465846E0
:105AC00001F0B6FD2A463946584609F0F7FA49462C
:105AD000684601F0ADFD5946684601F0ABFF04F1A0
