:10000000F8FF022099010000DDC90000E1C80000EE
:10001000E1C80000E1C80000E1C80000E1C800003C
:10002000E1C80000E1C80000E1C80000DDC900002F
:10003000DDC90000E1C80000316C0000216C000047
:10004000DDC90000DDC90000DDC90000DDC9000018
:10005000DDC90000DDC90000DDC90000DDC9000008
:10006000DDC90000DDC90000DDC90000DDC90000F8
:10007000DDC90000DDC90000DDC90000DDC90000E8
:10008000DDC90000DDC90000DDC90000DDC90000D8
:10009000DDC90000DDC90000DDC90000DDC90000C8
:1000A0009D94000091940000DDC90000DDC90000AE
:1000B000DDC90000DDC90000DDC900006177000076
:1000C000DDC9000089760000DDC90000ED75000083
:1000D000DDC9000051750000DDC90000DDC9000068
:1000E000DDC90000DDC90000DDC90000DDC9000078
:1000F000DDC90000DDC90000DDC90000DDC9000068
:10010000DDC90000DDC90000DDC90000DDC9000057
:10011000DDC9000031790000DDC90000DDC9000043
:10012000DDC90000DDC90000DDC90000DDC9000037
:10013000DDC90000DDC90000DDC90000DDC9000027
:10014000DDC90000DDC90000B5740000DDC9000094
:100150001D740000DDC90000DDC90000DDC900001C
:10016000DDC90000DDC9000085940000DDC9000084
:10017000DDC90000DDC90000DDC90000DDC90000E7
:10018000DDC90000DDC90000DDC90000DDC90000D7
:10019000DDC90000DDC9000008B55D4B4CF22052FE
:1001A0001A804DF628121A8000BF00BF102223F8D3
:1001B0000E2CA3F51F43DE3B4FF030621A60554A08
:1001C0009A60554ADA60554B4FF470021A60544AEF
:1001D000136813F4807304D152490B604FF4A85391
:1001E0001360514B1A78100703D51A7842F00802B1
:1001F0001A704E4B4E492A221A704E4A4E4B8B4271
:1002000004D252F8040F43F8040BF8E74B4B4C4967
:1002100000228B4202D243F8042BFAE749494A4AAA
:10022000002352F8230041F823000133662BF8D154
:10023000464B474A802103F8011B9342FBD1454BB3
:10024000404A1A60444B8A221A70A3F58053242234
:100250005A70A0221A709A799107FCD59A79D20621
:10026000FCD43E4A937903F00C03082B3B4BF9D1A5
:1002700003221A7146225A719A799406FCD5374A9C
:100280009179364B4806FBD5354A4FF082711160A3
:100290000921516020221A709A7902F00C020C2A6E
:1002A000FAD1304B304A1A60304B314A1A60002480
:1002B00007225C6043F8042C2E4AC3F80C2D62B66A
:1002C0000CF090FB174B1A68D1070AD52A4A2B4924
:1002D0001C60146042F8041C10221A60284A294944
:1002E0001160294A127852060ED52549254A086818
:1002F000904209D12048214C00221A60026040F847
:10030000044C102018600A600EF0E6FC00F0AEF815
:100310000E200540823F04000100002B88ED00E024
:1003200010D0034014D0034002D0074000E0074043
:10033000881DFF1F58980100080CFF1F881DFF1F14
:10034000F437FF1F0002FF1F0000000000E400E080
:1003500056E400E008ED00E0005006400040064092
:100360004480044004800440C010050014E000E014
:10037000BFD401000000202004D00340CC68A86353
:100380001CE00340A5C3945A00F00740FFFFFFFFA5
:10039000FFFFFFFFFFFFFFFFFFFFFFFFFFFFFFFF6D
:1003A000FFFFFFFFFFFFFFFFFFFFFFFFFFFFFFFF5D
:1003B000FFFFFFFFFFFFFFFFFFFFFFFFFFFFFFFF4D
:1003C000FFFFFFFFFFFFFFFFFFFFFFFFFFFFFFFF3D
:1003D000FFFFFFFFFFFFFFFFFFFFFFFFFFFFFFFF2D
:1003E000FFFFFFFFFFFFFFFFFFFFFFFFFFFFFFFF1D
:1003F000FFFFFFFFFFFFFFFFFFFFFFFFFFFFFFFF0D
:10040000FFFFFFFFFFFFFFFFFFFFFFFFDEF9FFFF23
:1004100010B5054C237833B9044B13B10448AFF33E
:1004200000800123237010BD881DFF1F0000000005
:1004300054980100084B10B51BB108490848AFF3A8
:1004400000800848036803B910BD074B002BFBD0A0
:10045000BDE81040184700BF000000008C1DFF1FC2
:1004600054980100881DFF1F000000002DE98048FE
:10047000ABB003F035FE0E4B0E4D1B78DFF83CB0F1
:100480000D4CDFF83CA0002B40F04382D5F83C80B7
:1004900098E80C000026B242C8F8083088F80C60D2
:1004A00088F80D60C8F8046024DD08F10C070DE041
:1004B0000C0CFF1FA41DFF1F010002407C32FF1F18
:1004C00000000240D8F80030B3420FDD57F8040FA7
:1004D0000DF0EAFF3B681A790136002AF2D09B68DA
:1004E000C8F80430D8F80030B342EFDCD8F8046024
:1004F000D8F808309E4240F31386012388F80C3068
:100500006A6C2E641368597B3F2900F21386B34846
:1005100050F8311091F80012C9B2187B884200F0EF
:100520007684AF481F68006811901198AC4EC01BCC
:100530005F68B842C0F06B8430681090109E1973E9
:10054000002001211E60986099731368997B29B17E
:100550001B7B1BB9537983F001035371AE6CA14A25
:1005600006F5FC6393ED007AF2EE047AB4EEE77AD6
:10057000F1EE10FA00F15D86002386F8F23786F876
:10058000F03786F8F137286D0DF08EFF686D0DF0AD
:100590008BFFAE6D30460DF087FFEB6D089318466C
:1005A0000DF082FF2B69099318460DF07DFFD5F8F9
:1005B000188040460DF078FFEF6938460DF074FF63
:1005C000D5F8209048460DF06FFF40460DF064FFCF
:1005D00020B1D8F80830012B00F0418438460DF0E6
:1005E0005BFF18B1BB68012B00F0398448460DF061
:1005F00053FF002840F02E84089B1B79002B40F00D
:100600008B8630460DF048FF002800F065846A6B49
:10061000D5F88830734902F1020E9E45C5F834E0E2
:1006200002DD00234B639E46AB6C6E4E93F8F237AF
:10063000002B00F0E687286B0DF016FEE86A0DF03F
:1006400013FE686A0DF010FEA86A0DF00DFE686FCB
:100650000DF00AFEAB6B296C686A194410220DF08C
:1006600077FEAB6B296CA86A102219440DF070FE5E
:10067000A96B686F09F03CF96B6BA96B286B194487
:1006800009F036F96B6BA96BE86A194409F030F987
:100690006A6AAB6B1268286C6969134418440BF0E2
:1006A00013F8286D4F4E0DF0F7FE002800F0278458
:1006B000AB6BAA6E4B4E93423FDAB26C92F8F227C4
:1006C00003F1010EC6F838E0002A01F02480286BFF
:1006D0000DF0CAFDE86A0DF0C7FD686A0DF0C4FDB3
:1006E000A86A0DF0C1FD686F0DF0BEFDAB6B296C03
:1006F000686A194410220DF02BFEAB6B296CA86AB6
:10070000102219440DF024FEA96B686F09F0F0F86F
:100710006B6BA96B286B194409F0EAF86B6BA96B3A
:10072000E86A194409F0E4F86A6AAB6B1268286C4D
:100730006969134418440AF0C7FF686D294E0DF02B
:10074000ABFE002800F04387AA6BAB6E254E134426
:10075000002B3FDDB36C93F8F23702F1FF3EC6F891
:1007600038E0002B01F01680286B0DF07DFDE86A63
:100770000DF07AFD686A0DF077FDA86A0DF074FD42
:10078000686F0DF071FDAB6B296C686A194410221B
:100790000DF0DEFDAB6B296CA86A102219440DF038
:1007A000D7FDA96B686F09F0A3F86B6BA96B286B79
:1007B000194409F09DF86B6BA96BE86A194409F0BC
:1007C00097F86A6AAB6B1268286C6969134418441D
:1007D0000AF07AFF2B69034E1B7905E0E4950100CE
:1007E0008C33FF1FA41DFF1F002B40F09983AE69BF
:1007F00030460DF051FE002840F0EC83EE693046A3
:100800000DF04AFE002840F0EF832E6A30460DF0CE
:1008100043FE002840F0F283686C9D4E4379002B24
:1008200000F0F5830DF038FEB36C002840F01D8712
:10083000EA6B117B002901F03D80686A0DF014FD20
:10084000A86A0DF011FD686F0DF00EFDAB6B296C01
:10085000686A194410220DF07BFDAB6B296CA86A05
:10086000194410220DF074FDA96B686F09F040F86F
:100870006A6AAB6B1268286C6969134418440AF001
:1008800023FFAB6C93F8F827002A40F0F48393F829
:10089000F937002B40F0FB837E4B5B78002B00F098
:1008A000FE83A86F7C4E002800F01E8201884388DA
:1008B0009A0800EB820204338B42976880F0DA8159
:1008C000438007F00F08A8F10803062B00F2AF8160
:1008D000B8F1080FC7F3033700F02782B8F1090F0A
:1008E00000F02782B8F10A0F40F027820A2FDAD0F1
:1008F000D5F880306949664A01338B4200F3218480
:10090000C2F8803009F08CFC624B1B78002B3FF45E
:10091000BDAD634915A806F077FB15A921A806F01F
:1009200047FB21A80AF01CFD219810F08DF89620B5
:100930000CF0E8F92E6830460DF0B6FD6F683846C9
:100940000DF0B2FDD5F8088040460DF0ADFDD5F8AC
:100950000C9048460DF0A8FD33689A7B1AB11B7BBA
:10096000002B00F01C813B689A7B1AB11B7B002B8B
:1009700000F0F481D8F800309A7B1AB11B7B002B71
:1009800000F0DB8348460DF087FD18B9159810F08C
:100990005BF8BEE7434919A806F036FB19A921A860
:1009A00006F006FB21A80AF0DBFC219810F04CF8B9
:1009B00096200CF0A7F9D5F8008040460DF074FDA4
:1009C0006E6830460DF070FDAF6838460DF06CFD76
:1009D000D5F8109048460DF067FDD8F800309A7BA6
:1009E00038461AB11B7B002B00F0588533689A7B80
:1009F00012B11B7B002B59D00DF04EFD48B9484673
:100A00000DF04AFD0646199810F01EF8002EC1D0D0
:100A1000BCE72549DFF878901DA806F0F5FA1DA976
:100A200021A806F0C5FA21A80AF09AFC219810F036
:100A30000BF896200CF066F92F6838460DF034FD5F
:100A4000D5F8048040460DF02FFD2E6930460DF09C
:100A50002BFD3B689A7B30461AB11B7B002B00F0C4
:100A6000B781D8F800309A7B1AB11B7B002B00F0BD
:100A7000B3830DF011FD06461D980FF0E5FF002E23
:100A8000C7D019980FF0E0FF15980FF0DDFF40E791
:100A9000A41DFF1F0C0CFF1F4037FF1FA086010085
:100AA000FC0E0100B00F01006C110100AD49DFF830
:100AB000D8821DA806F0A8FA1DA921A806F078FA88
:100AC00021A80AF04DFC21980FF0BEFF96200CF0F3
:100AD00019F92E6830460DF0E7FC6F6838460DF0C6
:100AE000E3FCD5F8109048460DF0DEFC33689A7BA5
:100AF0000AB11B7B8BB13B689A7B1AB11B7B002B25
:100B000000F04481D9F800309A7B12B11B7B002B96
:100B10003ED01D980FF098FFC8E72278C8F814302F
:100B2000D00740F1AC84904B1B7863B19AF8003049
:100B300013F0700318BF8AF800308B4B00221A7034
:100B40002378DA07FCD54FF48062002187480EF045
:100B5000EBF887490220012200238BF816008BF85E
:100B6000170021A8ABF81420ABF81220ABF80E3018
:100B7000ABF8103006F048FA21A80AF061FA0AF042
:100B800011F840F2EE200CF0BDF821980FF05CFF58
:100B90001D980FF059FF19980FF056FFF6E605F073
:100BA00033FB064615980FF04FFF002E3FF4B1AE11
:100BB00064200CF07FF9686167200CF07BF9AB6969
:100BC000EE69986068200CF075F9B06069200CF04F
:100BD00071F92B6A98600AF02BFA66480AF02CFB30
:100BE00005F1240609F0DEFF40F2EE200CF08AF851
:100BF00096E8C0402B6B306893F810C039681B68CA
:100C0000DEF80020CDF818C09EF810E0CDF814E012
:100C10003F7C0497367C6F6B039601970026AF6B81
:100C2000029600970BF00EF9534B1E702EE4A8F1BC
:100C30000203012BC7F3072231D9B8F1050F2AD0DF
:100C4000B8F1040F00F0E982A8F10503022B40F28D
:100C5000AE84B8F10F0F7FF44BAEF72A1FD8F02AFD
:100C600004D0B5F87C30002B3FF442AE104606F0BD
:100C7000FFF93DE606F00EFA72B6404B186938B13E
:100C80003F4B02881B89416831619B1A3C4A1381A2
:100C900062B6A86715E6F02A57D9F72A55D0F13A77
:100CA0000E2A3FF625AE01A353F822F0A708000054
:100CB000A7080000A7080000F1080000F1080000E4
:100CC000A7080000F1080000A7080000F1080000D4
:100CD000A7080000A7080000A7080000F10800000E
:100CE000A7080000A7080000264B1B78002B3FF444
:100CF000FFAD72B6214B186938B1214B02881B89B0
:100D0000416831619B1A1E4A138162B61E4FA86763
:100D100000283FF4EDAD018800297FF4C8AD884676
:100D200006F0B8F9C7F87880E2E5082F7FF4E0AD67
:100D3000B9E5092F7FF4DCADB5E5B8F10B0F40F054
:100D4000C2850B2F7FF4D4ADADE5104606F090F9C7
:100D50004FF00003A5F87C30A86FA4E50CF09AFFD3
:100D600006461FE780100100640000144011FF1FB9
:100D700034110100D00A01000C0CFF1F4037FF1F87
:100D80005437FF1F3837FF1FA41DFF1F2378012290
:100D9000D9076A6140F16184294B1B78012B0CD083
:100DA0009AF8003013F0700318BF8AF80030244B13
:100DB00001221A702378DB07FCD54FF480620021F2
:100DC00020480DF0B1FF0220012200231E49C4E695
:100DD000227889F88430D20740F143841B4B1B787A
:100DE000002B3FF4D5AE9AF8003013F0700318BF13
:100DF0008AF80030154B00221A702378DF07FCD5E3
:100E00001D980FF021FE19980FF01EFEBEE599689F
:100E1000002900F08B810E481F6800680F900F9822
:100E20000B4EC01B814200F28181316812911299F0
:100E300019600020012198609973FFF786BB00BFFD
:100E4000640000144011FF1F5011010065000014E0
:100E50008C33FF1FD9F80830012B7FF4CDAB686AC3
:100E60000DF002FAA86A0DF0FFF9686F0DF0FCF9B9
:100E7000286B0DF0F9F9E86A0DF0F6F9286F0DF01E
:100E8000F3F96B6C4FF0000883F8058001F0D8FF90
:100E90002B6B6F6AD5F828E0EE6A93F810C03868BB
:100EA00032681B68DEF80010CDF818C0367C059655
:100EB0009EF8106004963E7C03966F6BAE6B0096B6
:100EC000CDF8088001970AF0BDFFAE6D30460DF0F9
:100ED000E3FA00287FF49BAB2A69B94B1279002A08
:100EE0003FF4DFAB186E0DF0D7FA00287FF48FAB1C
:100EF000286DB34E0DF0D0FA00287FF4D9AB3368DB
:100F00001B79002B40F03284706D0DF0C5FA00287B
:100F10007FF41AAC2B69AA4E1B79002B3FF467AC07
:100F2000706E0DF0B9FA002840F00382E86EA44F0D
:100F30000DF0B2FA00283FF45AACD5F82C90AE6A06
:100F4000D5F83080D9F808100891B068D8F80810A2
:100F50006A6F2B6F7F6A8142A8BF01468E4608994F
:100F6000906808908E459868A8BF8E468645A8BFB1
:100F700086460898B9687045A8BF70467F298E4696
:100F8000A8BF4FF07F0E7045A8BF70460A2800F337
:100F90008B837B7C002B40F07E83737C002B40F0A6
:100FA0007283286B864E437C002B40F06583E86A91
:100FB000834E437C002B3FF41AAC0DF055F9F06AD8
:100FC000002108F095FCAE6930460DF065FA002866
:100FD0003FF414AC30460CF0F3FCEE6930460DF0F3
:100FE0005BFA00283FF411AC30460CF0E9FC2E6AA5
:100FF00030460DF051FA00283FF40EAC30460CF0AC
:10100000DFFC686C6E4E4379002B7FF40BACB36C45
:1010100093F8F277002F00F0D18193F8F027002A9F
:101020003FF406ACB36B316C706A194410220DF0BA
:101030008FF9B36B316CB06A102219440DF088F946
:10104000736BB16B306B194408F052FC736BB16B6E
:10105000F06A194408F04CFC726AB36B1268306C89
:101060007169134418440AF02FFBB36C93F8F82706
:10107000002A3FF40CAC6B6BA96B286F194408F085
:1010800037FCAB6C93F8F937002B3FF405AC286FB5
:101090000DF0EAF84B4B5B78002B7FF402AC6B6CE5
:1010A000DFF81CE15B79002B7FF4FBABDEF8483006
:1010B00093F8F237002B7FF4F4AB434BDEF88C202F
:1010C0001B680C930C9B9B1AC82B7FF6EAAB0EF1A6
:1010D000240696E8C010DEF83030396893F81080A6
:1010E0003068DCF800201B68CDF818809CF810C030
:1010F000CDF814C03F7C049796F810C0DEF8346039
:10110000DEF840700196DEF8386002972D4F0096A9
:101110000126CDF80CC07E700AF094FEFFF7C1BB2B
:10112000BCBF012388F80D30FFF7EAB9002199739D
:10113000FFF70BBA0021FFF7F0B900F0D9FB064624
:1011400030E5002316212148C2F8803006F018F857
:101150001D4B1F4A1B680B930B9B12689A1A00F0D9
:1011600020821C4EA6FB0213DB0803EB8301A2EBDB
:10117000410230328DF8A520002B00F0A1832121FF
:10118000A6FB0302D20802EB82000139A3EB400365
:10119000C9B22AA80844303300F8243C1346002A78
:1011A000EED10846C1F1220121AB184405F0E8FF59
:1011B000054B074A1B680A930A9B1360FFF7A2BB03
:1011C000A41DFF1F0C0CFF1F8C33FF1F0812010012
:1011D0009033FF1FCDCCCCCC23780122DB0785F8E0
:1011E000842040F14083A84B1B78012B3FF4D0AC06
:1011F0009AF8003013F0700318BF8AF80030A24B41
:1012000001221A702378DE07FCD51D980FF01CFC14
:1012100019980FF019FCFFF7B9BB104605F028FF2D
:10122000C7F3074005F024FF380E05F021FFFFF754
:101230005FBB964BD6F8F4171B681393139B0F698B
:101240009248D26CDB1BB3F57A7F40F20482D2F86D
:10125000803000681B6B149014981B6908611BB2E6
:101260008B60D6F8E47707EE903A07EE107AF8EE46
:10127000E77AB8EEC77AB4EEE77AF1EE10FA40F307
:10128000F582FA23C6F8FC3796F8FA37002B40F0BF
:101290000183012386F8F837012386F8FA37D36FE4
:1012A000D6F8E827186B4FF42F730169013B02FA57
:1012B00081F2FAD106F5FB6EDEED007A7448C6F8CD
:1012C000E83780FB0210FDEEE77AD117C1EB202250
:1012D0003A4417EE901A02EBD272C1EB6202052A71
:1012E000C6F8E427D6F8EC2740F3438141F6B05323
:1012F00002F6C4129A4240F33E81C6F8EC3796F8E3
:10130000F237002B40F0F781012386F8F0370123F4
:1013100086F8F237FFF737B9099B1B79002B7FF46A
:101320009EAD30460DF0B8F800287FF470A9FFF7A5
:10133000B8B9D6F82480B76AD8F808C0B868D6F823
:101340003090F36AD9F80810326F766F6045B8BFF5
:10135000604620EAE0708842B8BF0846996881423A
:10136000B8BF01468E469168B0688E45B8BF8E46BC
:101370007045B8BF7046742840F3518298F8113018
:10138000002B40F043827B7C002B40F03782286B9F
:10139000404E437C002B40F0B781E86A3D4E437CD1
:1013A0002BB10CF061FFF06A002108F0A1FA2B6963
:1013B0001B79002B7FF4BAADFFF719BA0268917B55
:1013C00009B1127B3ABB93F8F137002B3FF464AAC2
:1013D000686A0CF049FFA86A0CF046FF686F0CF0D1
:1013E00043FF286B0CF040FFE86A0CF03DFF286FCC
:1013F0000CF03AFF254B284A1B680D930D9BC5F84E
:101400008C30002353706B6CDFF888E05B79002B25
:101410007FF447AA4AE6706A0CF026FFB06A0CF027
:1014200023FF706F0CF020FF306B0CF01DFFF06A93
:101430000CF01AFF306F0CF017FF706A0CF0EEFE24
:10144000B06A0CF0EBFE706F0CF0E8FE306B0CF045
:10145000E5FEF06A0CF0E2FE306F0CF0DFFE0B4BA5
:101460000D4A1B680E930E9BC6F88C306B6C577040
:101470005B79DFF820E0002B7FF413AA16E60BF06F
:10148000ABFCFFF750BB00BF650000148C33FF1F9F
:1014900091739F5DA41DFF1F0C0CFF1F4FF0A05602
:1014A0002378DB0762D533785BB19AF8003013F00C
:1014B000700318BF8AF80030002333702378DF07E9
:1014C000FCD5CA4B01369E42EAD1012166200BF0C1
:1014D000C9FC012167200BF0C5FC022168200BF03C
:1014E000C1FC692003210BF0BDFC2378D80740F133
:1014F000FF80BF4B1B7863B19AF8003013F0700384
:1015000018BF8AF80030BA4B00221A702378D90726
:10151000FCD54FF480620021B6480DF005FC022096
:1015200001220023B4498BF816008BF8170021A87C
:10153000ABF81420ABF81220ABF80E30ABF810303B
:1015400005F062FD21A809F07BFD09F02BFB40F2BC
:10155000EE200BF0D7FB21980FF076FA19980FF0D8
:1015600073FA15980FF070FAFFF7D3B90BF034FC4B
:1015700099E7C83A38D441F289339A42C6F8EC2741
:101580003FF7BDAEB2F57A7FBEF6FDAF96F8F23703
:1015900083B3012386F8F137002386F8F237FEF78C
:1015A000F2BF30238DF8A53001212120FCE5104643
:1015B00005F05EFDC7F3074005F05AFDB8F1070FCF
:1015C0007FF4C6AB380E05F053FDFFF7C1BB33689F
:1015D0001B79002B3FF4FEA8E86E0CF05DFF00289D
:1015E0007FF4B2A8FFF7F6B8C6F8EC3796F8F237F2
:1015F000002BCED196F8F127002ACDD086F8F1370E
:10160000CAE7736C5B79002B7FF415A8336B776A9C
:10161000D6F828C0D6F82C8093F810903868DCF8FB
:101620000010D8F800201B68CDF8189098F81080AA
:10163000CDF814809CF810C0CDF810C097F810C0F9
:10164000376C0297B66BCDF80CC08DE840400AF0BD
:10165000F9FBFFF726B88B6803E60BF0BDFBFFF73D
:101660009BBB0BF0B9FBFFF7B9BB93F8F227002A3D
:101670003FF4D8ACFFF7DCB80CF0F6FD306B00217E
:1016800008F036F993E430460CF0EEFD0021A86A2C
:1016900008F02EF985E438460CF0E6FD0021686A72
:1016A00008F026F9AE6A78E438460A3909920893B8
:1016B0000CF0A0FDB16830460A390CF09BFDD8F85B
:1016C000081040460A390CF095FDD9F80810484634
:1016D0000A390CF08FFD089B996818460A390CF0FE
:1016E00089FD099A916810460A390CF083FD50E48F
:1016F0000BF072FBFDE696F8F037002B3FF407AED7
:10170000002386F8F03702E60CF0AEFD306B0021C6
:1017100008F0EEF841E6736C5B79002B7EF4D7AFEE
:10172000336B776AD6F828C0D6F82C8093F81090DF
:101730003868DCF80010D8F800201B68CDF8189045
:1017400098F81080CDF814809CF810C0CDF810C027
:1017500097F810C0376C0297766B0196CDF80CC0E5
:10176000CDF800E00AF06EFBFEF7E7BF706E0CF0FC
:1017700093FE00287EF49CAF706D0CF08DFE002867
:101780007EF4E2AFE86E0CF087FE00287EF4DCAF5A
:10179000FFF720B8736C5B79002B7EF4E5AF336BF9
:1017A000776AD6F828C0D6F82C8093F8109038685D
:1017B000DCF80010D8F800201B68CDF8189098F8D5
:1017C0001080CDF814809CF810C0CDF810C097F8A8
:1017D00010C0376C0297766B0196CDF80CC0CDF82F
:1017E00000E00AF02FFBFEF7F5BF00BF0010001469
:1017F000650000144011FF1F6410010038460CF012
:1018000033FD0021A86A08F073F8C0E540460CF0EB
:101810002BFD0021686A08F06BF8AF6AB3E50CF1A4
:101820000A014046099208930CF0E4FCB968384676
:101830000A310CF0DFFCD9F8081048460A310CF0E8
:10184000D9FC089B996818460A310CF0D3FC099A18
:10185000916810460A310CF0CDFCB16830460A316F
:101860000CF0C8FC8AE50BF0B7FABCE4D6F8FC37FC
:10187000002B05DD013BC6F8FC37002B7FF404ADDF
:1018800096F8FA377BB1012386F8F937002386F8FA
:10189000FA3704E596F8F837002B3FF4FDAC002347
:1018A00086F8F837F8E496F8F9170029EED086F8AC
:1018B000F937EBE7527B002A7EF4BFAFFEF7E2BFB9
:1018C0000121212070E4B8F10C0F04D10C2F7FF41A
:1018D0000FA8FEF7E8BFB8F10D0F04D10D2F7FF46C
:1018E00007A8FEF7E0BF0E2F7FF402A8FEF7DBBFCC
:1018F0002DE9F04FDFF88083DFF88093DFF880A3D5
:1019000099B0CE49CE4C0CA805F07EFB0CA914A8CA
:1019100005F04EFB14A809F023FD14980FF094F87D
:1019200096200BF0EFF9D8F800000CF0BDFDD9F8C7
:1019300000000CF0B9FDC34B18680CF0B5FDC24BAC
:1019400018680CF0B1FD266830460CF0ADFDBF4BB9
:1019500018680CF0A9FDD8F800301B689A7B1AB102
:101960001B7B002B00F07C82D9F800301B689A7B2F
:101970001AB11B7B002B00F07286B24B18680CF07A
:101980008BFD0546002840F09B86AF4B18680CF095
:1019900083FD0446002801F02A80AD4B0493AD4B33
:1019A0000293AD4EAD4BAE4F039310AC2322AD4925
:1019B000149514A815958DF85C50169505F09CFAB1
:1019C00033689B68002BC1F23080AAFB0312D20857
:1019D00002EB8201A3EB410330338DF84030134614
:1019E000002A01F0EE812046A6460021AAFB03C290
:1019F000D20802EB820CA3EB4C0330330EF8013F0C
:101A000001311346002AF1D10DF1600E8E446318A6
:101A10000EF81F2C93F800E090F800C000F801EBDE
:101A20000132C2EB010E724503F801C9F2DB204618
:101A30000EF046F92146024614A805F05DFA0F2281
:101A4000894914A805F058FA3B689B68002BC1F23D
:101A50001781AAFB0312D20802EB8201A3EB410318
:101A600030338DF840301346002A01F0AE81204615
:101A7000A6460021AAFB03C2D20802EB820CA3EB0C
:101A80004C0330330EF8013F01311346002AF1D1E7
:101A90000DF1600E8E4463180EF81F2C93F800E0D1
:101AA00090F800C000F801EB0132C2EB010E964540
:101AB00003F801C9F2DC20460EF002F92146024685
:101AC00014A805F019FA0F22684914A805F014FAB1
:101AD000049B1B689B68002BC1F28F80AAFB03123A
:101AE000D20802EB8201A3EB410330338DF8403082
:101AF0001346002A01F06D812046A6460021AAFB6C
:101B000003C2D20802EB820CA3EB4C0330330EF875
:101B1000013F01311346002AF1D10DF1600E8E44D0
:101B200063180EF81F2C93F800E090F800C000F83E
:101B300001EB0132C2EB010E724503F801C9F2DB81
:101B400020460EF0BDF82146024614A805F0D4F94F
:101B50000F22474914A805F0CFF9029B1B689B6828
:101B6000002BC1F21080AAFB0312D20802EB820103
:101B7000A3EB410330338DF840301346002A01F0C7
:101B80002C812046A6460021AAFB03C2D20802EB04
:101B9000820CA3EB4C0330330EF8013F01311346A6
:101BA000002AF1D10DF1600E8E4463180EF81F2C3F
:101BB00093F800E090F800C000F801EB0132C2EBAE
:101BC000010E724503F801C9F2DB20460EF078F8E9
:101BD0002146024614A805F08FF90F22254914A8C2
:101BE00005F08AF9039B1B689B68002BC0F2918764
:101BF000AAFB0312D20802EB8201A3EB41033033AC
:101C00008DF840301346002A01F0D7802046A646C2
:101C10000021AAFB03C2D20802EB820CA3EB4C0307
:101C200030330EF8013F01311346002AF1D10DF196
:101C3000600E8E4463180EF81F2C23E02012010062
:101C4000581FFF1FAC1DFF1FB01DFF1FB41DFF1F3E
:101C5000D01DFF1FD41DFF1FC81DFF1F141EFF1F17
:101C6000CC1DFF1F6C130100101301002013010095
:101C70003013010040130100A41DFF1FA81DFF1F0A
:101C8000CDCCCCCC93F800E090F800C000F801EB8C
:101C90000132C2EB010E724503F801C9F2DB2046A6
:101CA0000EF00EF82146024614A805F025F90F2281
:101CB000644914A805F020F9634B1B689B68002B4E
:101CC000C0F2ED86AAFB0312D20802EB8201A3EB5D
:101CD000410330338DF840301346002A01F069800B
:101CE0002046A6460021AAFB03C2D20802EB820CC2
:101CF000A3EB4C0330330EF8013F01311346002AA9
:101D0000F1D10DF1600E8E4463180EF81F2C93F87C
:101D100000E090F800C000F801EB0132C2EB010EC8
:101D2000724503F801C9F2DB20460DF0C9FF2146D8
:101D3000024614A805F0E0F81322444914A805F05F
:101D4000DBF8169A1095119512958DF84C50149B4E
:101D5000002A41F0068018460EF076FE129B14957C
:101D6000159516958DF85C50002B40F0D38714A87C
:101D700009F0F6FA14980EF067FE96200AF0C2FFFA
:101D8000D8F800000CF090FBD9F800000CF08CFBA8
:101D90002F4B18680CF088FB2E4B18680CF084FB56
:101DA0002D4BD3F800B058460CF07EFB2A4B5A68F6
:101DB000019210460CF078FB284B18680CF074FB6D
:101DC000D8F80030019A1B68997B19B11B7B002B56
:101DD00000F09087D9F800301B68997B19B11B7B04
:101DE000002B00F08C871A4B1B681B68997B19B17C
:101DF0001B7B002B00F08887164B1B681B68997BA8
:101E000019B11B7B002B00F0A687DBF80030997B13
:101E100019B11B7B002B00F0C68713689A7B1AB19F
:101E20001B7B002B00F0DD870C4B1B681B689A7B2B
:101E30001AB11B7B002B00F0048510980EF004FEF5
:101E4000B4E500BF90130100181EFF1F901601009B
:101E5000AC1DFF1FB01DFF1F581FFF1FB41DFF1F2C
:101E6000012323720C9810AD0EF0EEFD2846B04908
:101E700005F0CAF8AF4B1B7A002B00F0AB85AE49DA
:101E8000284605F087F848230393542302934F26EE
:101E90004FF0430AA94CAA49DFF8E0B214A805F0B4
:101EA000B3F83301E218E158926814A805F024F859
:101EB000A44914A805F060F8029B1B01E218E15840
:101EC0009268074605F018F838469F4905F054F81F
:101ED0004FEA0A13E218E1589268074605F00CF839
:101EE00038469A4905F048F8039B1B01E218E1586F
:101EF0009268074605F000F83846954905F03CF829
:101F00000346284619689A6804F0F6FF14A804F0FE
:101F1000ABFE294614A805F04BF814A809F020FAE6
:101F200014A804F0A1FE96200AF0ECFED8F8007088
:101F300038460CF0B9FAD9F800000CF0B5FA854B28
:101F400018680CF0B1FA844B18680CF0ADFADBF8A5
:101F500000000CF0A9FAD8F800703B689A7B0AB12F
:101F60001B7B33B1DBF800000CF096FA002800F080
:101F70004D837A4B01931B681E60284604F074FE63
:101F80006C4B77491B7A002B0BBF2B23302332225B
:101F9000372214A80BBF37273C273E26432603933E
:101FA000029205F031F801990B681B681B01E218D9
:101FB000E158926814A804F09FFF6A4914A804F03D
:101FC000DBFF3301E218E1589268824604F094FF87
:101FD00050465C4904F0D0FF3B01E218E15892689A
:101FE000824604F089FF5046574904F0C5FF029A23
:101FF0001301E218E1589268824604F07DFF5046D2
:10200000524904F0B9FF039B1B01E218E1589268A2
:10201000824604F071FF5046534904F0ADFF01467B
:10202000284604F0C5FF14A804F01EFE294614A893
:1020300004F0BEFF14A809F093F914A804F014FEEC
:1020400096200AF05FFED8F800A050460CF02CFA5B
:10205000D9F800000CF028FA3E4B18680CF024FA6E
:102060003D4B18680CF020FADBF800000CF01CFA6D
:10207000D8F800A0DAF800309A7B0AB11B7B33B1A4
:10208000DBF800000CF008FA002800F0D382DFF83B
:10209000F0A0DAF800301E60284604F0E5FD254B7C
:1020A00032491B7A002B0BBF3226372637273027C1
:1020B0000BBF3E23432343223C22059614A80CBFAA
:1020C00026262B26039707930CBF2B27242706923F
:1020D000029604F099FF019803681B681B01E2183F
:1020E000E158926814A804F007FF214914A804F0ED
:1020F00043FFDAF800301B681B01E218E1589268D0
:10210000064604F0F9FE30461A4904F035FF3B015B
:10211000E218E1589268064604F0EEFE3046164991
:1021200004F02AFF029B1B01E218E1582AE000BFDD
:10213000A4160100581FFF1FA0130100FC20FF1F61
:10214000C0130100F4130100001401000C1401007D
:1021500018140100AC1DFF1FB01DFF1FC81DFF1F7D
:102160006414010078140100B0140100101501007E
:10217000201501002415010044150100001EFF1F59
:10218000CC1DFF1F9268064604F0B6FE3046B249E9
:1021900004F0F2FE03990B01E218E158926806463A
:1021A00004F0AAFE3046AD4904F0E6FE05990B01A5
:1021B000E218E1589268064604F09EFE3046A849AF
:1021C00004F0DAFE069A1301E218E1589268064616
:1021D00004F092FE3046A34904F0CEFE079B1B019B
:1021E000E218E1589268064604F086FE30469E49A1
:1021F00004F0C2FE0146284604F0DAFE14A804F0FA
:1022000033FD294614A804F0D3FE14A809F0A8F859
:1022100014A804F029FD96200AF074FD934AD8F81A
:10222000003016685268089704921F4638460CF032
:102230003BF9D9F800000CF037F98D4B18680CF019
:1022400033F98C4B18680CF02FF930460CF02CF950
:1022500004980CF029F9DBF800000CF025F9D8F807
:1022600000703A68917B19B1127B002A00F0378325
:10227000D9F800201268917B19B1127B002A00F076
:10228000FE817B4B18680CF007F9002800F0798379
:10229000794E039A33681A60284604F0E5FC734BC4
:1022A000764A1B7A0992002B0BBF37273C274FF049
:1022B000430E4FF0480E0BBF322337232B22302220
:1022C000CDF808E0049707BF4FF03E0E4A274F278E
:1022D0004FF0430E6A49CDF814E014A80793069214
:1022E000039704F091FE019803681B681B01E21834
:1022F000E158926814A804F0FFFD624914A804F0A4
:102300003BFEDAF800301B681B01E218E1589268C6
:10231000074604F0F1FD38465B4904F02DFE3368B2
:102320001B681B01E218E1589268074604F0E4FDBF
:102330003846564904F020FE029B1B01E218E15882
:102340009268074604F0D8FD3846514904F014FE5F
:1023500003990B01E218E1589268074604F0CCFD9E
:1023600038463D4904F008FE04990B01E218E15893
:102370009268074604F0C0FD3846464904F0FCFD6B
:1023800005990B01E218E1589268074604F0B4FD84
:102390003846334904F0F0FD069A1301E218E1587B
:1023A0009268074604F0A8FD38462E4904F0E4FD83
:1023B000079B1B01E218E1589268074604F09CFD58
:1023C00038463549354F04F0D7FD0146284604F01C
:1023D000EFFD14A804F048FC294614A804F0E8FD19
:1023E00014A808F0BDFF14A804F03EFC96200AF0E3
:1023F00089FC1E4BD8F800201B6808931B4B0B94DC
:102400005B680A93144620460CF04EF8D9F8000099
:102410000CF04AF8164B18680CF046F8154B186883
:102420000CF042F808980CF03FF80A980CF03CF8D1
:10243000DBF800000CF038F8D8F800402368997BEE
:1024400009B11B7B63B3DBF800000CF025F8002812
:1024500000F0BD8024E000BF001401005015010011
:102460005C1501006815010018140100581FFF1FBA
:10247000AC1DFF1FB01DFF1FD01DFF1FD41DFF1F70
:1024800010150100201501007415010080150100D0
:10249000F41301000C140100A8150100141EFF1F05
:1024A000099B029A1B681A60134601210C3B3E2BC4
:1024B000FCDC386803600029A5D028460B9C04F09A
:1024C000D3FB744914A804F09FFD019B1B681B6893
:1024D0001B01E218E158926814A804F00DFD6E4942
:1024E00014A804F049FDDAF800301B681B01E2185B
:1024F000E1589268074604F0FFFC3846674904F04B
:102500003BFD33681B681B01E218E15892680746DF
:1025100004F0F2FC6249384604F02EFD099B1B686A
:102520001B681B01E218E1589268064604F0E4FCBF
:1025300030465C4904F020FD0146284604F038FD91
:1025400014A804F091FB294614A804F031FD14A846
:1025500008F006FF14A804F087FB96200AF0D2FBCF
:10256000D8F8006030460BF09FFFD9F800000BF060
:102570009BFFDBF800000BF097FF4B4B18680BF04C
:1025800093FFDBF800301B689A7B1AB11B7B002B92
:1025900000F0A381D8F8006030460BF07DFF0446C0
:1025A00030B1284604F060FB204619B0BDE8F08F3A
:1025B0003D4B1B681B689A7B12B11B7B002BF0D034
:1025C000D9F800000BF068FF0028EAD1CAE7D9F873
:1025D00000301B68997B11B11B7B002B54D0334B0F
:1025E00018680BF059FF002800F08C81099B049AB1
:1025F0001B681A601346012100E00C33312BFCDD0F
:102600003868036000293FF4FEAE56E7D9F8003081
:102610001B689A7B0AB11B7B2BB3244B18680BF009
:102620003BFF002800F06081214B01931B68C3F839
:1026300000A0A2E4D9F800301B689A7B0AB11B7B8A
:10264000BBB11A4B18680BF027FF002800F08A81F5
:10265000DFF868A0029ADAF800301A601CE5154A23
:102660001372FFF7FFBB124B01931B68029A1A60AB
:1026700083E4DFF848A0DAF800301F600CE50E4E66
:10268000029A33681A6007E6099B039A1B681A606E
:1026900013460AE7DC150100041601001C160100B0
:1026A000341601004C160100B41DFF1FAC1DFF1FA6
:1026B000C81DFF1F581FFF1FD01DFF1FCC1DFF1F70
:1026C000984A994B029210AC984A994E994D9A4F5C
:1026D00003929B460494994914A804F095FC33682E
:1026E0001B681B01EA18E958926814A804F004FC5E
:1026F0000F22934914A804F0FFFB3B681B681B01E1
:10270000EA18E958926814A804F0F6FB0F228D49E4
:1027100014A804F0F1FBDBF800301B681B01EA1879
:10272000E958926814A804F0E7FB0F22864914A820
:1027300004F0E2FB029B1B681B681B01EA18E958C6
:10274000926814A804F0D8FB0F22804914A804F062
:10275000D3FB039B1B681B681B01EA18E9589268AE
:1027600014A804F0C9FB1922794914A804F0C4FB89
:1027700014A9049804F01CFC14980EF065F9129C3E
:1027800000201490159016908DF85C00002C7ED1DE
:1027900014A808F0E5FD14980EF056F996200AF0FA
:1027A000B1FAD8F800000BF07FFED9F800000BF06A
:1027B0007BFE684B18680BF077FE674B18680BF0D0
:1027C00073FE664B1C6820460BF06EFE634B5A6826
:1027D000019210460BF068FE614B18680BF064FE26
:1027E000D8F80030019A1B68997B11B11B7B002B34
:1027F00037D0D9F800301B68997B11B11B7B002BB7
:1028000036D0544B1B681B68997B11B11B7B002B86
:1028100035D0514B1B681B68997B11B11B7B002B7A
:1028200053D02368997B09B11B7B93B113689A7BC2
:102830000AB11B7B23B14A4B18680BF02DFE60B127
:10284000049C204604F010FA0C980EF0FDF8FFF7F7
:1028500058B8039B18680CF0A5F810980EF0F4F81F
:1028600039E730680CF09EF810980EF0EDF832E77A
:1028700038680CF097F810980EF0E6F82BE7DBF8C4
:1028800000000CF08FF810980EF0DEF823E7109A95
:102890000192611C0EF0E0F8034658B116991490AD
:1028A0001594019A01B901701146184616940DF05D
:1028B0008DF96DE70190149818B10EF0C5F8019BE1
:1028C000149300231593169362E7029B18680CF08B
:1028D00069F810980EF0B8F8FDE6012461E6124E92
:1028E000089F33681F60D7E41B4B18680BF0D4FDBA
:1028F00000283FF41DAB0E4B01931B68039A1A602E
:10290000FFF73BBB144B18680BF0C6FD002849D0FD
:10291000099B059A196813460A6001213E2B3FF76F
:10292000C5AD6BE6D41DFF1FD01DFF1F141EFF1F7A
:10293000C81DFF1FFC20FF1FCC1DFF1FD41201006C
:102940001013010020130100301301004013010097
:1029500050130100AC1DFF1FB01DFF1F581FFF1FAC
:10296000B41DFF1FC24B18680BF096FD00283FF402
:102970006CABDFF808A3039ADAF800301A60FFF7AF
:102980008BBBDBF800000BF087FD00287FF480ACE8
:10299000B74B18680BF080FD98B1B64E059A3368B6
:1029A0001A6079E408980BF077FD68BB0A980BF081
:1029B00073FD099B1B68002840F0398201461B68A3
:1029C000ACE730460BF068FD20B3AA4E069A336898
:1029D0001A6061E4A849284604F0DCFA4323039313
:1029E0004F2302934A264FF03E0AFFF753BA304670
:1029F0000BF052FD002800F012820CA804F034F90C
:102A0000204619B0BDE8F08F099B069A1B681A6032
:102A10001346F0E504980BF03FFD00283FF406ACA8
:102A2000944E079A33681A6036E45B42AAFB03129D
:102A3000D20802EB8201A3EB410330332D218DF844
:102A400041308DF840101346002A00F0DC810DF172
:102A500041000021AAFB03E2D20802EB820EA3EBA5
:102A60004E03303300F8013F01311346002AF1D103
:102A70004A1C18A81044A64600F81F3C22442046D1
:102A800092F800C01EF801BF00F801CF0133C3EB7C
:102A9000010C634502F801B9F2DBFEF7C8BF5B42E7
:102AA000AAFB0312D20802EB8201A3EB41033033ED
:102AB0002D218DF841308DF840101346002A00F08A
:102AC000A6810DF141000021AAFB03E2D20802EB2E
:102AD000820EA3EB4E03303300F8013F0131134661
:102AE000002AF1D14A1C18A81044A64600F81F3C41
:102AF0002244204692F800C01EF801BF00F801CF22
:102B00000133C3EB010C634502F801B9F2DBFFF7B7
:102B10000BB95B42AAFB0312D20802EB8201A3EBC2
:102B2000410330332D218DF841308DF8401013468C
:102B3000002A00F064810DF141000021AAFB03E2AC
:102B4000D20802EB820EA3EB4E03303300F8013FB4
:102B500001311346002AF1D14A1C18A81044A64698
:102B600000F81F3C2244204692F800C01EF801BF26
:102B700000F801CF0133C3EB010C634502F801B942
:102B8000F2DBFFF78CB85B42AAFB0312D20802EB20
:102B90008201A3EB410330332D218DF841308DF8B4
:102BA00040101346002A00F026810DF1410000215B
:102BB000AAFB03E2D20802EB820EA3EB4E033033F2
:102BC00000F8013F01311346002AF1D14A1C18A830
:102BD0001044A64600F81F3C2244204692F800C04C
:102BE0001EF801BF00F801CF0133C3EB010C6345B0
:102BF00002F801B9F2DBFEF7E8BF5B42AAFB031261
:102C0000D20802EB8201A3EB410330332D218DF872
:102C100041308DF840101346002A00F0E8800DF195
:102C200041000021AAFB03E2D20802EB820EA3EBD3
:102C30004E03303300F8013F01311346002AF1D131
:102C40004A1C18A81044A64600F81F3C22442046FF
:102C500092F800C01EF801BF00F801CF0133C3EBAA
:102C6000010C9C4502F801B9F2DCFEF769BF00BF18
:102C7000B01DFF1FD01DFF1FB0130100CC1DFF1F93
:102C80005B42AAFB0312D20802EB8201A3EB4103D1
:102C900030332D218DF841308DF840101346002A35
:102CA00000F0B9800DF141000021AAFB03E2D20837
:102CB00002EB820EA3EB4E03303300F8013F0131EB
:102CC0001346002AF1D14A1C18A81044A64600F861
:102CD0001F3C2244204692F800C010F801BF0EF8B5
:102CE00001CF0133C3EB010C9C4502F801B9F2DCC2
:102CF000FEF7E1BE30680AF0E1FCFFF79EB83868E5
:102D00000AF0DCFCFFF799B8049B18680AF0D6FCBF
:102D1000FFF793B8109A0593591C002001920DF00B
:102D20009BFE834668B11699059B14901593019AF2
:102D300001B901701146584616930CF047FFFFF792
:102D400016B8149818B10DF07FFECDF850B0159557
:102D50001695FFF70CB8029B18680AF0AFFCFFF756
:102D60006CB8511C0020059301920DF075FE83464E
:102D700070B11299019A10901192059B01B90170DE
:102D80001946584612920CF021FF149BFEF7E3BF40
:102D9000109818B10DF058FECDF840B0149B119565
:102DA0001295FEF7D8BF039B18680AF087FCFFF75F
:102DB00044B88DF84120FEF7B7BF8DF84120FEF7EB
:102DC0006EBF8DF84120FEF732BE8DF84120FEF730
:102DD00072BE8DF84120FEF7B3BE8DF84120FEF79C
:102DE000F4BE154B18680AF069FCFFF726B88DF899
:102DF0004220FEF7A5BE8DF84220FEF7E6BE8DF814
:102E00004220FEF74CBF8DF84220FEF710BE8DF831
:102E10004220FEF789BF8DF84220FEF74CBE074BDB
:102E200018680BF039FB00287FF4E7AD0CE5079A32
:102E30001A601346FFF7DFBB181EFF1FB41DFF1FEC
:102E40002DE9F04F2DED048BDFF8ACB2DFF8ACA22A
:102E5000DFED988A9FED989A9DB0984907A804F0F5
:102E6000D3F8974B1B68002B64D0012B01F099809D
:102E7000022B01F09C80032B01F0A580904B5B6836
:102E8000002B52D0012B00F06487022B01F09580BB
:102E900007A913A804F08CF813A808F061FA139896
:102EA0000DF0D2FD962009F02DFFDBF800000BF0AD
:102EB000FBFADAF800000BF0F7FA824B18680BF017
:102EC000F3FA814B18680BF0EFFA804B18680BF09F
:102ED000EBFA7F4B18680BF0E7FA7E4B18680BF0A3
:102EE000E3FA7D4B18680BF0DFFADBF800301B6863
:102EF0009A7B0AB11C7B14B3DAF800301B689A7B0A
:102F00001AB11B7B002B00F02A876E4B18680BF060
:102F1000C3FA002800F09C80FEF7EAFC04460798FC
:102F20000DF092FD002C98D05FE06C4907A804F0EA
:102F300031F8ADE76A4907A804F02CF89EE70FAE18
:102F40006849304604F060F8119D13941494159468
:102F50008DF85840002D60D113A808F001FA13989D
:102F60000DF072FD962009F0CDFEDBF800000BF0AD
:102F70009BFADAF800000BF097FA524B18680BF046
:102F800093FA534B18680BF08FFADBF800301B688C
:102F90009A7B0AB11B7BEBB1DAF800301B689A7B95
:102FA00012B11B7B002B34D0464B1B681B689A7BED
:102FB0001AB11B7B002B00F0C786454B1B681B68B2
:102FC0009A7B1AB11B7B002B00F0BE860F980DF088
:102FD0003BFDB5E703F018F905460F980DF034FDF9
:102FE000002DADD007980DF02FFD4FF48062002129
:102FF0003D480BF099FE3D4808F01EF907F0D2FD60
:103000004FF4FA7009F07EFE1DB0BDEC048BBDE8F4
:10301000F08F0AF03FFE0546DFE7691C0020DDF86F
:103020003C800DF019FD074650B1159B1390149587
:1030300003B903704146384615950CF0C7FD8BE780
:10304000139810B10DF000FD13971494159483E7B5
:103050001D4B18680BF020FA00286BD11B4B186829
:103060000BF01AFA0028BDD1194B18680BF014FAAE
:1030700004460028B6D1174B18680BF00DFA054628
:10308000002800F0B6870E4B0D4A1B68002B00F09D
:10309000F287012B00F0E587022B00F0D787032B86
:1030A00040F0EA801249134B09681B680C741460E5
:1030B0001C74E1E0000000000000FA43FC1A01006B
:1030C000641FFF1FAC1DFF1FB01DFF1F581FFF1FF8
:1030D000B41DFF1F001EFF1F041EFF1FB41B0100B5
:1030E000541B0100FC1B01004011FF1FB41601001E
:1030F000D01DFF1FD41DFF1FA41DFF1FA81DFF1FF4
:103100009E4B1B6803F5FC6393ED007AF2EE047AA4
:10311000B4EEE77AF1EE10FA4CBF994899480BF0FB
:1031200055FA07F03FFD4FF47A7009F0EBFD0B986C
:103130000DF08AFC94490BA803F066FF0BA913A8B5
:1031400003F036FF0122914913A803F0D5FE159C28
:10315000139D002C40F01B840B9B0BB11C70139D26
:1031600000230D9328460DF06FFC0BA913A803F064
:103170001FFF0122854913A803F0BEFE159C139D75
:10318000002C40F019840B9B0BB11C70139D002385
:103190000D9328460DF058FC0BA913A803F008FF67
:1031A0002D227B4913A803F0A7FE159C139D002C2C
:1031B00040F0F8830B9B0BB11C70139D00230D9303
:1031C00028460DF041FC0BA913A803F0F1FE13A84B
:1031D00008F0C6F813980DF037FC962009F092FD20
:1031E000DBF800000BF060F9DAF800000BF05CF996
:1031F000684B18680BF058F9674B18680BF054F9D6
:10320000664B18680BF050F9654B18680BF04CF9D9
:10321000DBF800301B689A7B12B1187B00282FD096
:10322000DAF800301B689A7B1AB11B7B002B3FF445
:103230007EAF584B1B681B689A7B1AB11B7B002B17
:103240003FF475AF544B1B681B689A7B1AB11B7B0C
:10325000002B00F0FA84514B1B681B689A7B0AB163
:103260001B7B33B14E4B18680BF016F900283FF466
:103270005EAF0BA803F0F8FC07980DF0E5FBECE55A
:103280003E4B484E1F6807F5FB6307F5FC6207F2EB
:10329000DC79C3ED008A0493C9ED008A05923C46AF
:1032A00007F5FA68C2ED008A3D4601E0D7F8D40779
:1032B0003368DB6F1B6B1B691BB245F8043F03448B
:1032C000C7F8D437022009F01DFD4545EED1D7F8E7
:1032D000D437D9F8005007EE903AF8EEE77A049B1D
:1032E00087EE898A83ED008A54F8043F07EE903A0E
:1032F000F8EEE77A78EE677A17EE900A0CF016FF90
:1033000002460B460CF066FF064628460F460CF0B8
:103310000DFF02460B46304639460CF0A9FD0DF074
:1033200009FA44450546DFD107EE100AC7EE097ACF
:10333000C9F800001C4C1D4D274605F10A0817EE80
:10334000900A0CF0F3FE41EC100B0DF043FA51EC37
:10335000100B0DF0EFF9059B4FF48062186000210F
:1033600013480BF0E1FC002302210122A175E17555
:10337000A2826282E381238299464CE0EC1DFF1F0A
:10338000AC1D0100B81D0100381D0100AC13010087
:103390007C1D0100AC1DFF1FB01DFF1F581FFF1F2C
:1033A000B41DFF1FF01DFF1F7C32FF1FCC1A010050
:1033B0004011FF1F0D2B2CD0027A934229D3817A22
:1033C000994226D39A1A4668D2B206EBC206B27860
:1033D000CAB1F178B9B1797E002940F09783B7F985
:1033E0000E200492F87DB7F9102097F816C00499C2
:1033F000B4F814E00390608ACDF808C08DE801406D
:10340000864806F071FC3179E389A27D01FB023325
:10341000E381454511D0E06915F8013B002800F033
:1034200093810A2BC6D1A7F80E90027B3B8AF97DC7
:10343000454501FB02333B82EDD102227849774FAB
:1034400013A80CF023F913AE0DF14E094FF000084C
:1034500030E00D2B2CD0027A934229D3817A994205
:1034600026D39A1A4568D2B205EBC205AA78CAB12A
:10347000E978B9B1797E002940F0B283B7F90E201E
:103480000492F87DB7F9102097F816C00499B4F8A3
:1034900014E00390608ACDF808C08DE801405F48D1
:1034A00006F022FC2979E389A27D01FB0233E38146
:1034B0004E4511D0E06916F8013B002800F07481F8
:1034C0000A2BC6D1A7F80E80027B3B8AF97D4E45B8
:1034D00001FB02333B82EDD1524D504F012305F1E8
:1034E0001508A375E37530E00D2B2CD0027A9342BA
:1034F00029D3817A994226D39A1A4668D2B206EB2A
:10350000C206B278CAB1F178B9B1797E002940F02B
:103510001383B7F90E200492F87DB7F9102097F8BD
:1035200016C00499B4F814E00390608ACDF808C07E
:103530008DE80140394806F0D7FB3179E389A27D57
:1035400001FB0233E381454512D0E06915F8013BE8
:10355000002800F059810A2BC6D14FF00003FB81EF
:10356000027B3B8AF97D454501FB02333B82ECD16E
:1035700002222B49294F13A80CF088F813AE4FF004
:10358000000830E00D2B2CD0027A934229D3817AA7
:10359000994226D39A1A4568D2B205EBC205AA7899
:1035A000CAB1E978B9B1797E002940F0DB82B7F978
:1035B0000E200492F87DB7F9102097F816C00499F0
:1035C000B4F814E00390608ACDF808C08DE801409B
:1035D000124806F089FB2979E389A27D01FB0233B9
:1035E000E3814E4511D0E06916F8013B002800F058
:1035F0003B810A2BC6D1A7F80E80027B3B8AF97D5E
:103600004E4501FB02333B82EDD1074D034F0223B0
:1036100005F10A08A375E37539E000BF7C32FF1F8E
:10362000B0160100D81A0100F01A01000D2B2CD0A1
:10363000027A934229D3817A994226D39A1A46680C
:10364000D2B206EBC206B278CAB1F178B9B1797ECE
:10365000002940F09D82B7F90E200492F87DB7F959
:10366000102097F816C00499B4F814E00390608A0B
:10367000CDF808C08DE80140AB4806F035FB317944
:10368000E389A27D01FB0233E381454512D0E06965
:1036900015F8013B002800F017810A2BC6D14FF026
:1036A0000003FB81027B3B8AF97D454501FB023328
:1036B0003B82ECD102229D499B4F13A80BF0E6FF01
:1036C00013AE2FE00D2B2AD0027A934227D3817AB2
:1036D000994224D39A1A4568D2B205EBC205AA785A
:1036E000BAB1E978A9B1797E002940F06782F87D06
:1036F000B7F90E10B7F9102097F816C0B4F814E017
:103700000390608ACDF808C08DE80140864806F035
:10371000EBFA2979E389A27D01FB0233E3814E456F
:103720003FF4EEACE06916F8013B002800F00081A0
:103730000A2BC7D14FF00003FB81027B3B8AF97D46
:1037400001FB02333B82EAE70A2B00F0B5810D2B27
:103750003FF45FAE7A7EB7F90E10002A00F05A816E
:1037600097F816E0B7F90A60062212FB0E12B24271
:1037700040F366823A8A97F817C0F88102EBCC02D0
:1037800012B201463A82A68ACDF80CC0608A8DE852
:103790004140654806F0A8FAA37DE28903EB4303A4
:1037A00002EB4303E38134E60A2B00F093810D2BF7
:1037B0003FF47EAE7A7EB7F90E10002A00F00E813B
:1037C00097F816E0B7F90A50062212FB0E12AA4229
:1037D00040F31B823A8A97F817C0F88102EBCC02BB
:1037E00012B201463A82A58ACDF80CC0608A8DE8F3
:1037F00021404D4806F078FAA37DE28903EB4303AC
:1038000002EB4303E38153E60A2B00F06A810D2BA0
:103810003FF499AE7A7EB7F90E10002A00F0E580E9
:1038200097F816E0B7F90A60062212FB0E12B242B0
:1038300040F3F5813A8A97F817C0F88102EBCC0281
:1038400012B201463A82A68ACDF80CC0608A8DE891
:103850004140354806F048FAA37DE28903EB430373
:1038600002EB4303E3816EE60A2B00F041810D2B4E
:103870003FF4B7AE7A7EB7F90E10002A00F0BC8094
:1038800097F816E0B7F90A50062212FB0E12AA4268
:1038900040F3CF813A8A97F817C0F88102EBCC0247
:1038A00012B201463A82A58ACDF80CC0608A8DE832
:1038B00021401D4806F018FAA37DE28903EB43037B
:1038C00002EB4303E3818CE60A2B00F018810D2BF9
:1038D0003FF4DBAE7A7EB7F90E10002A00F0938039
:1038E00097F816E0B7F90A60062212FB0E12B242F0
:1038F00040F39A813A8A97F817C0F88102EBCC021C
:1039000012B201463A82A68ACDF80CC0608A8DE8D0
:103910004140054806F0E8F9A37DE28903EB430343
:1039200002EB4303E381B0E67C32FF1FB0160100D7
:103930000A2B00F0C8800D2B3FF4F1AE7A7EB7F968
:103940000E10002A43D097F816E0B7F90A50062265
:1039500012FB0E12AA4240F35D813A8A97F817C013
:10396000F88102EBCC0212B201463A82A58ACDF868
:103970000CC0608A8DE82140B04806F0B5F9A37DFF
:10398000E28903EB430302EB4303E381C7E60C9BAD
:103990009C425FD80B980D9429460CF017F9139DA3
:1039A000FFF7E0BB0C9B9C426DD80B980D94294609
:1039B0000CF00CF9139D03E40C9B9C4231D80B983E
:1039C0000D9429460CF002F9139DFFF7E2BBB7F9FD
:1039D000102097F817C097F816E0C7E7B7F910203E
:1039E00097F817C097F816E0FDE6B7F9102097F89A
:1039F00017C097F816E026E7B7F9102097F817C018
:103A000097F816E04FE7B7F9102097F817C097F826
:103A100016E078E7B7F9102097F817C097F816E086
:103A2000B1E6611C0B980DF017F8064638B10D9BF6
:103A30000B900C94002BC3D103700B98C0E70B982C
:103A400010B10DF001F80B960023139D0C930D930C
:103A5000FFF79FBB611C0B980CF0FEFF064638B1C8
:103A60000D9B0B900C94002B95D103700B9892E753
:103A70000B9810B10CF0E8FF0B960023139D0C93EC
:103A80000D93FFF76FBB611C0B980CF0E5FF06462A
:103A900038B10D9B0B900C94002B87D103700B98C1
:103AA00084E70B9810B10CF0CFFF0B960023139D09
:103AB0000C930D93FFF784BB3B8AFA7DF88103EBEF
:103AC000C2033B82A5E43B8AFA7DF88103EBC20383
:103AD0003B8224E63B8AFA7DF88103EBC2033B82FA
:103AE000E6E43B8AFA7DF88103EBC2033B822AE5D8
:103AF0003B8AFA7DF88103EBC2033B8271E53B8A86
:103B0000FA7DF88103EBC2033B82BEE596F905100E
:103B10000591B7F90E100491059997F816C0B7F9F9
:103B20000AE00A4404990CFB0212724500F3DA80A1
:103B3000F87DB7F910205BE496F905100591B7F907
:103B40000E100491059997F816C0B7F90AE00A44D7
:103B500004990CFB0212724500F3AA80F87DB7F9B4
:103B60001020DFE495F905100591B7F90E100491C6
:103B7000059997F816C0B7F90AE00A4404990CFBB6
:103B80000212724500F3C880F87DB7F9102017E5DE
:103B900096F905100591B7F90E100491059997F85B
:103BA00016C0B7F90AE00A4404990CFB02127245E8
:103BB00000F38B80F87DB7F9102055E595F9058065
:103BC000B7F90E1097F816C0B7F90AE042440CFB9B
:103BD0000212724500F3AC80F87DB7F910208DE534
:103BE00095F905100591B7F90E100491059997F80C
:103BF00016C0B7F90AE00A4404990CFB0212724598
:103C00007DDCF87DB7F9102041E4B7F9102097F872
:103C100017C0E8E5B7F9102097F817C0A6E6B7F97E
:103C2000102097F817C00EE6B7F9102097F817C0C4
:103C300069E6B7F9102097F817C034E67C32FF1F09
:103C4000B7F9102097F817C09DE507F0AFFF8B4B31
:103C500018680AF029FC894B186803689A7B002AC7
:103C6000F7D01B7B002BF4D10FAC8549204603F025
:103C7000CBF9214613A803F09BF913A807F070FBBA
:103C800013980CF0E1FE7D4B18680AF00DFC7B4B9D
:103C9000186803689A7B002AF7D01B7B002BF4D1AD
:103CA0000F980CF0D1FE0B980CF0CEFEFFF742BA45
:103CB0004FF00002FA81027B398AF87D02FB001284
:103CC00012B200213A8204912CE44FF00002FA81F2
:103CD000027B398AF87D02FB001212B200213A827F
:103CE0000491C1E4A7F80E90027B398AF87D02FBAB
:103CF000001212B200213A820491FFF779BBA7F8B3
:103D00000E80027B398AF87D02FB001212B200217C
:103D10003A820491FFF7BBBBA7F80E80027B398A79
:103D2000F87D02FB001212B200213A82049147E4AE
:103D30004FF00002FA81027B398AF87D02FB001203
:103D400012B23A820021D9E4304602F08DFFFFF72B
:103D500093BA4C4907A803F01DF9FFF799B84A4DEB
:103D60000FAC4A49204603F04FF9214613A803F04F
:103D70001FF913A807F0F4FA13980CF065FE9620CB
:103D800008F0C0FFDBF800000AF08EFBDAF8000054
:103D90000AF08AFB3E4B18680AF086FB3D4B186818
:103DA0000AF082FB354B18680AF07EFBDBF8003026
:103DB0001B689A7B12B11B7B002B75D0DAF80030A0
:103DC0001B689A7B1AB11B7B002B00F0C380304B21
:103DD0001B681B689A7B1AB11B7B002B00F0CE80FE
:103DE0002C4B18680AF058FB002800F0F7803C20A4
:103DF00009F060F8002840F0EC803C2008F082F9DF
:103E000004250F98244C0CF01FFE4FF48062002113
:103E100022480AF089FF224B0220012100229875D6
:103E2000D87599825982DA811A8204F1080614F849
:103E3000011B1B4805F056FBB442F8D11CAE3035CF
:103E400006F8035D344614F8011B154805F04AFBDB
:103E5000C4F10103DE42F6D1124C04F1090514F855
:103E6000011B0F4805F03EFBAC42F8D106F09AFE6C
:103E70004FF4FA7008F046FFFFF7B4B8B41DFF1F07
:103E8000C41D0100CC1B010001000240841C010084
:103E9000AC1DFF1FB01DFF1FB41A01004011FF1F12
:103EA0007C32FF1FC01A01002B78DB0763D54FF06F
:103EB000A0531B78002B56D1DFF80882734FD8F837
:103EC0000030734E1978734D734C002008F0CAFF10
:103ED0003B680120197808F0C5FF33680220197883
:103EE00008F0C0FF2B680320197808F0BBFF236897
:103EF0000420197808F0B6FF684B19680C31C9B274
:103F0000052008F0AFFF664B0620197808F0AAFFDD
:103F1000D8F800300720197A08F0A4FF3B68082081
:103F2000197A08F09FFF33680920197A08F09AFF80
:103F30002B680A20197A08F095FF23680B20197A5C
:103F400008F090FF574B1B680C20197A08F08AFF85
:103F5000012556E7142008F0ADFFC0B9142008F081
:103F6000D1F802254DE707F029FF0028A4D10F98CA
:103F70000CF06AFDF5E608F02FFF98E7282008F01E
:103F800099FF48B9282008F0BDF8032539E707F064
:103F900015FF0028EBD0E1E707F010FF0028E6D07E
:103FA000F0E7414907A802F0F5FFFEF767BF3F4978
:103FB00007A802F0EFFFFEF761BF3D4907A802F036
:103FC000E9FFFEF765BF3B4907A802F0E3FFFEF7F4
:103FD00055BF07F0F3FE0028C9D00EE7364B18682E
:103FE0000AF05AFA0028C2D0204602F03DFEFEF741
:103FF000F9BF324B18680AF04FFA00283FF43CA989
:104000002F4B2F4A5B68BBB1012B0BD0022B7FF4E7
:1040100033A92C491D4B09681B680D7455601D742C
:10402000FFF72AB927481949006809680374022371
:104030000D745360FFF720B92248144900680968DD
:10404000037401230B745360FFF716B9104B114929
:104050001B6809680120187403230C741360FFF7B0
:104060000BB90B490B48096800680C7402210374F2
:104070001160FFF701B90649064B0868196801236A
:10408000037413600B74FFF7F7B800BFCC1DFF1F5C
:10409000D01DFF1FD41DFF1F141EFF1FDC1DFF1F9F
:1040A000D81DFF1F181EFF1F6C1B0100841B010081
:1040B000E41B01009C1B0100B41DFF1F041EFF1F19
:1040C000641FFF1FC81DFF1F10B508461446114688
:1040D00004F03CF9204610BD0846114603F050B8E4
:1040E0002DE9F04F2DED028BA44BA44893F922301B
:1040F00002213C22013389B080F8211080F8202071
:1041000000F0FF8490F82400DFF888A20AF048FA53
:104110009A4B93F826000AF043FA984B974893F984
:10412000261093F9242093F827305AF831105AF8C2
:10413000322001630124426380F83A4080F83B401A
:10414000002B00F071858E4A8E4853681C685968B0
:1041500025682943216011688B4C08608B4DCC6029
:104160008B4C0D610C60517A5C180C3194F82C402A
:1041700053F821500AEBC40149680D60117A5C18AC
:1041800003EB8101247ECD690AEBC40149680D600F
:10419000917A5C1803EB810394F840105C6C0AEB95
:1041A000C1035B681C6053680ACB0C6823430B6037
:1041B0001268D368D46803F0E06343F0384141F4F7
:1041C0000031A1420BD0146843F07843650443F4F6
:1041D000003300F151851060D16013611460674BAA
:1041E00093F825000AF0DCF9644B93F825000AF0F7
:1041F000C3FB012008F086FD604B93F825303F2B70
:104200000AD85AF83310634A91F88002002800F067
:104210006F84012381F800310A2008F073FD574BA9
:104220005D4F93F825005D4C5D4EDFF898910AF0E4
:10423000A3FBAE2006F07AFBD52006F077FB8020AA
:1042400006F074FBA82006F071FB3F2006F06EFB21
:10425000D32006F06BFB002006F068FB402006F040
:1042600065FB8D2006F062FB142006F05FFB20202A
:1042700006F05CFB002006F059FBA12006F056FB7F
:10428000C82006F053FBDA2006F050FB122006F09F
:104290004DFB812006F04AFBCF2006F047FBD920DA
:1042A00006F044FBF12006F041FBDB2006F03EFB6C
:1042B000402006F03BFBA42006F038FBA62006F0C9
:1042C00035FBAF2006F032FB06F0B2FE354806F0B3
:1042D000B3FF06F067FC4FF4487008F013FD06F0DA
:1042E000A7FE314806F0A8FF06F05CFC6E2008F03F
:1042F00009FD06F09DFE2D4806F09EFF06F052FCDB
:104300006E2008F0FFFC06F093FE294806F094FFAB
:1043100006F048FC6E2008F0F5FC06F089FE254802
:1043200006F08AFF06F03EFC6E2008F0EBFC06F07B
:104330007FFE214806F080FF06F034FC6E2008F076
:10434000E1FC06F075FE1D4806F076FF06F02AFC3B
:104350006E2008F0D7FC06F06BFE194806F06CFFE3
:1043600006F020FC06F064FE07F020FC4FF47A70A3
:1043700008F0C8FC40F2EE283D682AE07C32FF1FBE
:104380000811FF1F01401F000110003801100078C4
:1043900000001F80E49501008C33FF1F3837FF1F9A
:1043A000A436FF1F741E0100742201007426010050
:1043B000742A0100742E0100743201007436010069
:1043C000743A0100A036FF1FB3F5FA6F15D805F057
:1043D00027FF05F025FF237843B13378DB0705D5A8
:1043E0003B68D9F800209B1A0E2B06D83B68227830
:1043F0005B1B002AE8D14345E9D94FF4FA7008F075
:1044000081FC0621B248B34D02F0BAFE0222B24945
:1044100006A80BF03BF9022106A802F0B1FE002429
:104420004FF46141AD4885F8624085F8634002F081
:1044300023FC28462422FF2185F85F4085F8604050
:1044400085F861400AF070FCA54DA649A64ADFF840
:10445000CCC2DFF8CCE2A3462C6808781378C0B24F
:10446000DBB2984238BF0019C31A83B391F80090A9
:1044700013785FFA89F9DBB29945EED0581C844273
:104480001FD93F2840F2FC83A3F13F08DCF800303D
:1044900013F80830C3B2954E1370D6F80080B8F107
:1044A000000FD9D0814538BF4C44DEF800302CBF16
:1044B000C0EB0900201A9842CED888F800B02C68CA
:1044C000CBE7002318468A4E16F80080E3E74FF04A
:1044D00005094FF0F008AA2655254FF0010B494673
:1044E00006A81C468DF81A908DF818808DF8196072
:1044F0008DF81BB08DF81C5003F028FF4FF002031D
:10450000494606A88DF81B308DF818808DF8196083
:104510008DF81A908DF81C5003F018FF0A2008F04F
:10452000F1FB0422494606A88DF81B2001928DF864
:1045300018808DF819608DF81A908DF81C5003F0D2
:1045400005FF4FF0080E4FF00C0C714606A88DF8D1
:104550001BC08DF81AE08DF818808DF819608DF861
:104560001CB08DF81F508DF81D408DF81E4003F0D3
:10457000EDFE8C200CF060FA5E4E5F49016306F19F
:104580004803C36227215D4B46620546436380F8BA
:104590003810047600F13C0805F042F84FF0490E5F
:1045A0005749584B85F874E006F14C009436E9669B
:1045B00085F854B02866AE6640462B6705F030F8A3
:1045C000DFF86091C5F880804FF0020385F87830FD
:1045D000C5F88880ED67C5F884504FF40060C9F8CD
:1045E00000500CF029FA064614200CF025FA3B681E
:1045F00005938046444B05984449C8F810004FF491
:10460000807B1020C8F8000081F88042C3F800B019
:10461000D5F8800098F8001008F09AFD3C49C8F8D9
:1046200004400F203060C8F80840C6F8F487394BC2
:1046300081F88042D9F80000C3F800B0019AC06F39
:10464000C6F8E447FA23C6F8FC37334BC6F8EC4704
:10465000114686F8F04786F8F14786F8F24786F863
:10466000F84786F8F94786F8FA471E6008F03CFCE0
:10467000D9F80030DD6F6B7E2846002B40F0868233
:104680002B6B5A0102F1844213460121C2F810112A
:10469000C3F884110322C3F88011317885F82320F0
:1046A00008F056FD1C4BD3F8008008F5FB6208F2B9
:1046B000DC7108F5FC600023136002920B6001912D
:1046C0000390454608F5FA660360C34630E000BF34
:1046D000DC3F01002833FF1F743E0100200CFF1F48
:1046E000C80FFF1F7C37FF1F7D37FF1FA033FF1F41
:1046F000A433FF1F783E010000B003401060034068
:1047000000B00B403860034000A004400008FE43A6
:104710000010FE4300B00440EC1DFF1F9833FF1F44
:10472000380CFF1FF01DFF1F0000FA43D8F8D447D4
:10473000D9F80030DB6F1B6B1B691BB24BF8043FD1
:104740002344C8F8D437022008F0DCFA5E45EDD1E6
:10475000D8F8D4371FED0C7A07EE903AF8EEE77AE6
:10476000019B87EE878A1C68029B83ED008A55F8BF
:10477000043F07EE903AF8EEE77A78EE677A17EEA4
:10478000900A0BF0D3FC02460B460BF023FD80464B
:10479000204689460BF0CAFC02460B464046494675
:1047A0000BF066FB0BF0C6FFAE420446DFD106EE0F
:1047B000900A5FED237A019B434E186086EEA77A3C
:1047C0000125022417EE100A0BF0B0FC41EC100B8F
:1047D0000CF000F851EC100B0BF0ACFF039B1860D1
:1047E00006F026FC394A3A48958200235582D38147
:1047F00013829475D47509F0E9FE344B35489D75E4
:10480000DD7509F0E3FE314B33489C75DC7509F02A
:10481000DDFE324B1B6803F5FC6393ED007AF2EE8C
:10482000047AB4EEE77AF1EE10FA4CBF2C482D482A
:1048300009F0CCFE06F0B6F94FF47A7008F062FA8F
:1048400070200CF0F9F800231822019002604360F8
:10485000994600F10C0B012519E05AF83320DEF8D7
:10486000041092F800E280F80CE040F2031E43735B
:10487000206082F88092C1F800E0A5600135192D12
:104880004FF0000884F804904BF8044F2CD00C2013
:104890000CF0D2F856F8048F044610200CF0CCF837
:1048A0003B6806935FFA88F30521069AC0F80890E2
:1048B0003F2B0AEBC30E41600260CED980F80C900A
:1048C00043732060D9E700BF103F01007C32FF1F17
:1048D000CC1A0100D81A0100F01A0100EC1DFF1FCC
:1048E000AC1D0100B81D0100AB4D019B2B600820E1
:1048F0000CF0A2F8FA2227210446A84FA84E09F08E
:104900001FFE2A68A7493C6017690F60A64D976E85
:104910003760A648D76D2F6084F805805769A44C8E
:104920000760A449D7692760A34E176A0F60A34D9B
:10493000976AA348A3493760A34C176B566B2F6047
:104940000660D56E526E256018200A600CF074F86F
:10495000024646256FF0190443219C4E80F81080D2
:10496000012782F811805760116051619560D46011
:10497000182032600CF060F802463721944E80F81F
:104980001080022782F811809560D4605760116012
:104990005161182032600CF04FF8024630268D49E4
:1049A00080F81080032782F811809560D4605760EA
:1049B0001660566118200A600CF03EF802468648E0
:1049C00082F810802421042782E8820082F8118076
:1049D0009560D4600260516118200CF02DF80246F9
:1049E00005237E4980F8108080F81180066085607C
:1049F000C4604661536018200A600CF01DF802463E
:104A000085605321764E82F81080062582F8118049
:104A1000D460556011605161082032600CF00CF8D0
:104A20001621C822044609F08BFD6E4A6E4E1460B2
:104A300008200CF001F8C8221521044609F080FD79
:104A40006A496B4A0C600820C2F800800BF0F4FF42
:104A500040F22B121721044609F072FD6549664A9F
:104A60000C606720C2F8008008F024FA05460C208C
:104A70000BF0E2FF29210446C82209F061FD5F4ADC
:104A8000A5606820146008F015FA05460C200BF0AC
:104A9000D3FF11210446C82209F052FD584AA560EF
:104AA0006920146008F006FA05460C200BF0C4FFDC
:104AB000C8220E21044609F043FD5248524A534988
:104AC00007601460524BA5605248534D534AC1F8D9
:104AD00000800C21C3F80080C6F80080C5F8008073
:104AE00080F80080116009B0BDEC028BBDE8F08F4A
:104AF00002EBC3035A68136823F002031360FFF745
:104B00008BBB474BDFF81CA15969002283F8A0201A
:104B100083F8A12083F82C2183F82D2183F82E21FE
:104B200083F82F210C6848682568C3F8342128438E
:104B3000C3F8382120601869827093F83121086821
:104B40000A44147A527B0AEBC4041202646802F429
:104B5000E06242F06402226093F832210A44947CBD
:104B6000D27D0AEBC404120202F4E062646842F0EF
:104B70006402226000684A68104276D11A692021D6
:104B800051711B6980229A70FFF729BB08F068FAFF
:104B9000D9F80030D86F73E5E01DFF1FE81DFF1F37
:104BA000001EFF1FB41DFF1F041EFF1FA41DFF1FBB
:104BB000A81DFF1FAC1DFF1FB01DFF1F581FFF1FAB
:104BC0005C1FFF1F101EFF1F081EFF1FC81DFF1FB9
:104BD000CC1DFF1FD41DFF1FD01DFF1F141EFF1F64
:104BE000181EFF1FF41DFF1F8837FF1FF81DFF1F32
:104BF000DC1DFF1FFC1DFF1FD81DFF1FBC1DFF1F5D
:104C0000C01DFF1F2C1EFF1FC41DFF1F641FFF1FA1
:104C1000681FFF1F281EFF1FB81DFF1F0C1EFF1F50
:104C2000CC0FFF1FE4950100164B93F8220009F00A
:104C3000B7FC144B93F8230009F0B2FC114B114858
:104C400093F9231093F9222093F827305AF8311062
:104C50005AF8322080F8394080F83840C1628262C8
:104C6000002B3FF4BCAAFFF76EBA1A692C215170D1
:104C70001A690421917181E7D1601361FFF7AFBA1E
:104C8000C3B220E47C32FF1F704700BF2DE9F04F14
:104C9000EF4CDFF82CA4EF4FEF4DDFF82894DFF84E
:104CA000288485B05146204602F0AEF92A4639469E
:104CB000204609F0FFFF4946684602F0A5F9214663
:104CC000684602F0A3FB04F1100B0146584602F0BF
:104CD0006FF9684601F0C8FF2A463946584604F184
:104CE000200B09F0E7FF4146584602F08DF92A46AD
:104CF0003946584604F1300B09F0DCFF08F06CF837
:104D00005146584602F080F92A463946584609F07D
:104D1000D1FF4946684602F077F95946684602F0E5
:104D200075FB04F1400B0146584602F041F9684614
:104D300001F09AFF2A463946584604F1500B09F013
:104D4000B9FF4146584602F05FF92A4639465846AF
:104D500004F1600B09F0AEFF08F03EF851465846EA
:104D600002F052F92A463946584609F0A3FF49464F
:104D7000684602F049F95946684602F047FB04F1DB
:104D8000700B0146584602F013F9684601F06CFFBB
:104D90002A463946584604F1800B09F08BFF4146FC
:104DA000584602F031F92A463946584604F1900B2C
:104DB00009F080FF08F010F85146584602F024F937
:104DC0002A463946584609F075FF4946684602F0BA
:104DD0001BF95946684602F019FB04F1A00B014685
:104DE000584602F0E5F8684601F03EFF2A4639468B
:104DF000584604F1B00B09F05DFF4146584602F0F9
:104E000003F92A463946584604F1C00B09F052FF0F
:104E10005146584602F0F8F82A463946584609F0F5
:104E200049FF4946684602F0EFF85946684602F0E5
:104E3000EDFA04F1D00B0146584602F0B9F8684685
:104E400001F012FF2A463946584604F1E00B09F0FA
:104E500031FF4146584602F0D7F82A4639465846AF
:104E600004F1F00B09F026FF5146584602F0CCF849
:104E70002A463946584609F01DFF4946684602F061
:104E8000C3F85946684602F0C1FA04F5807B014632
:104E9000584602F08DF8684601F0E6FE2A4639468B
:104EA000584604F5887B09F005FF4146584602F054
:104EB000ABF82A463946584604F5907B09F0FAFECD
:104EC00007F08AFF07F088FF5146584602F09CF829
:104ED0002A463946584609F0EDFE4946684602F032
:104EE00093F85946684602F091FA04F5987901461C
:104EF000484602F05DF8684601F0B6FE2A4639469B
:104F0000484604F5A07909F0D5FE4146484602F02E
:104F10007BF804F5A8782A463946484609F0CAFEC7
:104F200040464E49DFF89C9102F06EF82A46394619
:104F3000404604F5B07809F0BDFE4046484902F00D
:104F400063F82A463946404604F5B87809F0B2FEBF
:104F50004046444902F058F82A463946404604F58E
:104F6000C07809F0A7FE40463F4902F04DF82A46B6
:104F70003946404609F09EFE04F5C8703B49DFF80B
:104F8000488102F041F804F5D070394902F03CF84C
:104F900004F5D870374902F037F804F5E070364967
:104FA00002F032F804F5E870344902F02DF804F507
:104FB000F070334902F028F804F5F870314902F036
:104FC00023F804F50070304902F01EF804F504706F
:104FD0002E4902F019F804F508702D4902F014F872
:104FE00004F50C702B4902F00FF804F510702A49F3
:104FF00002F00AF804F51470284902F005F804F5E7
:105000001870274902F000F804F51C70254901F0DA
:10501000FBFF04F52070244901F0F6FF04F524702D
:10502000224901F0F1FF04F52870214901F0ECFF5D
:1050300004F52C701F4901F0E7FF04F530701E499C
:1050400001F0E2FF04F534701C4901F0DDFF3DE0A2
:105050006C1FFF1F696C0000080CFF1F6C400100F3
:105060007C4001008C4001009C400100AC400100EC
:10507000B0400100B8400100BC400100C440010044
:10508000C8400100CC400100D4400100D8400100DC
:10509000E0400100E4400100EC400100F04001006C
:1050A000F4400100F8400100FC4001000041010013
:1050B00004410100084101000C41010010410100C0
:1050C0003C400100444001005440010004F53870A8
:1050D000D34901F099FF04F53C70D24901F094FFE7
:1050E00004F54070D04901F08FFF04F54470CF49BA
:1050F00001F08AFF04F54870CD4901F085FF04F501
:105100004C70CC4901F080FF04F55070CA4901F0A1
:105110007BFF04F55470C94901F076FF04F558701F
:10512000C74901F071FF04F55C70C64901F06CFFDE
:1051300004F56070C44901F067FF04F56470C34969
:1051400001F062FF04F56870C14901F05DFF04F5EC
:105150006C70C04901F058FF04F57070BE4901F051
:1051600053FF04F57470BD4901F04EFF04F57870EB
:10517000BB4901F049FF04F57C70BA4901F044FFD6
:1051800004F58060B84901F03FFF04F58260B7493B
:1051900001F03AFF04F58460B54901F035FF04F5EC
:1051A0008660B44901F030FF04F58860B24901F02F
:1051B0002BFF04F58A60B14901F026FF04F58C60ED
:1051C000AF4901F021FF04F58E60AE4901F01CFFEC
:1051D00004F59060AC4901F017FF04F59260AB490B
:1051E00001F012FF04F59460A94901F00DFF04F5E8
:1051F0009660A84901F008FF04F59860A64901F0FF
:1052000003FF04F59A60A54901F0FEFE04F59C60D9
:10521000A34901F0F9FE04F59E60A24901F0F4FEF5
:1052200004F5A060A04901F0EFFE04F5A2609F49DB
:1052300001F0EAFE04F5A4609D4901F0E5FE04F5E5
:10524000A6609C4901F0E0FE04F5A8609A4901F0CF
:10525000DBFE04F5AA60994901F0D6FE04F5AC60C6
:10526000974901F0D1FE04F5AE60964901F0CCFEFD
:1052700004F5B060944901F0C7FE04F5B2609349AB
:1052800001F0C2FE04F5B460914901F0BDFE04F5E1
:10529000B660904901F0B8FE04F5B8608E4901F09F
:1052A000B3FE04F5BA608D4901F0AEFE04F5BC60B2
:1052B0008B4901F0A9FE04F5BE608A4901F0A4FE05
:1052C00004F5C060884901F09FFE04F5C26087497B
:1052D00001F09AFE04F5C460854901F095FE04F5DD
:1052E000C660844901F090FE04F5C860824901F06F
:1052F0008BFE04F5CA60814901F086FE04F5CC609E
:105300007F4901F081FE04F5CE607E4901F07CFE0C
:1053100004F5D0607C4901F077FE04F5D2607B494A
:1053200001F072FE04F5D460794901F06DFE04F5D8
:10533000D660784901F068FE04F5D860764901F03E
:1053400063FE04F5DA60754901F05EFE04F5DC6089
:10535000734901F059FE04F5DE60724901F054FE14
:1053600004F5E060704901F04FFE04F5E2606F491A
:1053700001F04AFE04F5E4606D4901F045FE04F5D4
:10538000E6606C4901F040FE04F5E8606A4901F00E
:105390003BFE04F5EA60694901F036FE04F5EC6075
:1053A000674901F031FE04F5EE60664901F02CFE1C
:1053B00004F5F060644901F027FE04F5F2606349EA
:1053C00001F022FE04F5F460614901F01DFE04F5D0
:1053D000F660604901F018FE04F5F8605E4901F0DE
:1053E00013FE04F5FA605D4901F00EFE04F5FC6061
:1053F0005B4901F009FE04F5FE605A4901F004FE24
:1054000004F50060584901F0FFFD04F501605749BB
:1054100001F0FAFD04F50260554901F0F5FDA9E03F
:1054200014410100184101001C410100204101000C
:1054300024410100284101002C41010030410100BC
:1054400034410100384101003C410100404101006C
:1054500044410100484101004C410100504101001C
:1054600054410100584101005C41010060410100CC
:1054700064410100684101006C410100704101007C
:1054800074410100784101007C410100804101002C
:1054900084410100884101008C41010090410100DC
:1054A00094410100984101009C410100A04101008C
:1054B000A4410100A8410100AC410100B04101003C
:1054C000B4410100B8410100BC410100C0410100EC
:1054D000C4410100C8410100CC410100D04101009C
:1054E000D4410100D8410100DC410100E04101004C
:1054F000E4410100E8410100EC410100F0410100FC
:10550000F4410100F8410100FC41010000420100AA
:1055100004420100084201000C4201001042010057
:1055200014420100184201001C4201002042010007
:1055300024420100284201002C42010030420100B7
:1055400034420100384201003C4201004042010067
:1055500044420100484201004C4201005042010017
:1055600054420100584201005C42010060420100C7
:105570006442010004F50360D34901F045FD04F5E0
:105580000460D24901F040FD04F50560D04901F006
:105590003BFD04F50660CF4901F036FD04F50760D8
:1055A000CD4901F031FD04F50860CC4901F02CFD36
:1055B00004F50960CA4901F027FD04F50A60C949EC
:1055C00001F022FD04F50B60C74901F01DFD04F553
:1055D0000C60C64901F018FD04F50D60C44901F0E6
:1055E00013FD04F50E60C34901F00EFD04F50F60D4
:1055F000C14901F009FD04F51060C04901F004FD46
:1056000004F51160BE4901F0FFFC04F51260BD49CC
:1056100001F0FAFC04F51360BB4901F0F5FC04F558
:105620001460BA4901F0F0FC04F51560B84901F0C6
:10563000EBFC04F51660B74901F0E6FC04F51760D1
:10564000B54901F0E1FC04F51860B44901F0DCFC57
:105650002A46B349002009F02DFB04F51960B14931
:1056600001F0D2FC04F51A60AF4901F0CDFC04F55D
:105670001B60AE4901F0C8FC04F51C60AC4901F0A8
:10568000C3FC04F51D60AB4901F0BEFC04F51E60CF
:10569000A94901F0B9FC04F51F60A84901F0B4FC68
:1056A00004F52060A64901F0AFFC04F52160A5498E
:1056B00001F0AAFC04F52260A34901F0A5FC04F561
:1056C0002360A24901F0A0FC04F52460A04901F088
:1056D0009BFC04F525609F4901F096FC04F52660CB
:1056E0009D492E4601F090FC04F5286504F52760DD
:1056F0009A4901F089FC2846994901F085FC04F596
:105700002960984901F080FC04F52A60964901F06F
:105710007BFC04F52B60954901F076FC04F52C60C8
:10572000934901F071FC04F52D60924901F06CFC85
:1057300004F52E60904901F067FC04F52F608F4955
:1057400001F062FC04F530608D4901F05DFC04F568
:1057500031608C4901F058FC04F532608A4901F04F
:1057600053FC04F53360894901F04EFC04F53460C4
:10577000874901F049FC04F53560864901F044FC95
:1057800004F53660844901F03FFC04F53760834935
:1057900001F03AFC04F53860814901F035FC04F56C
:1057A0003960804901F030FC04F53A607E4901F02F
:1057B0002BFC04F53B607D4901F026FC04F53C60C0
:1057C0007B4901F021FC04F53D607A4901F01CFCA5
:1057D00004F53E60784901F017FC04F53F60774915
:1057E00001F012FC04F54060754901F00DFC04F570
:1057F0004160744901F008FC04F54260724901F00F
:1058000003FC04F54360714901F0FEFB04F54460BC
:105810006F4901F0F9FB04F545606E4901F0F4FBB6
:1058200004F546606C4901F0EFFB04F547606B49F5
:1058300001F0EAFB04F54860694901F0E5FB04F575
:105840004960684901F0E0FB04F54A60664901F0EF
:10585000DBFB04F54B60654901F0D6FB04F54C60B9
:10586000634901F0D1FB04F54D60624901F0CCFBC6
:1058700004F54E60604901F0C7FB04F54F605F49D5
:1058800001F0C2FB04F550605D4901F0BDFB04F579
:1058900051605C4901F0B8FB04F552605A4901F0CF
:1058A000B3FB04F55360594901F0AEFB04F55460B5
:1058B000574901F0A9FB04F55560564901F0A4FBD6
:1058C00004F55660A8E000BF684201006C42010088
:1058D0007042010074420100784201007C420100E4
:1058E0008042010084420100884201008C42010094
:1058F0009042010094420100984201009C42010044
:10590000A0420100A4420100A8420100AC420100F3
:10591000B0420100B4420100B8420100BC420100A3
:10592000D9E10000C0420100C8420100D442010098
:10593000DC420100E8420100F0420100F8420100AF
:10594000044301000C4301001843010020430100FF
:105950002C430100344301003C4301004443010057
:105960004C430100544301005C43010064430100C7
:105970006C430100744301007C4301008443010037
:105980008C430100944301009C430100A4430100A7
:10599000AC430100B4430100BC430100C443010017
:1059A000CC430100D4430100DC430100E443010087
:1059B000EC430100F4430100FC43010004440100F6
:1059C0000C440100144401001C4401002444010063
:1059D0002C440100344401003C44010044440100D3
:1059E0004C440100544401005C4401006444010043
:1059F0006C440100744401007C44010084440100B3
:105A00008C440100944401009C440100A444010022
:105A1000AC440100B4440100DB4901F0F5FA04F59F
:105A20005760DA4901F0F0FA04F55860D84901F0FE
:105A3000EBFA04F55960D74901F0E6FA04F55A602B
:105A4000D54901F0E1FA04F55B60D44901F0DCFAD4
:105A500004F55C60D24901F0D7FA04F55D60D149E4
:105A600001F0D2FA04F55E60CF4901F0CDFA04F5F9
:105A70005F60CE4901F0C8FA04F56060CC4901F0DE
:105A8000C3FA04F56160CB4901F0BEFA04F5626027
:105A9000C94901F0B9FA04F56360C84901F0B4FAE4
:105AA00004F56460C64901F0AFFA04F56560C549C4
:105AB00001F0AAFA04F56660C34901F0A5FA04F5FD
:105AC0006760C24901F0A0FA04F56860C04901F0BE
:105AD0009BFA04F56960BF4901F096FA04F56A6023
