:10000000F8FF02209901000089D800008DD7000078
:100010008DD700008DD700008DD700008DD7000050
:100020008DD700008DD700008DD7000089D8000043
:1000300089D800008DD700003DB500002DB5000027
:1000400089D8000089D8000089D8000089D800002C
:1000500089D8000089D8000089D8000089D800001C
:1000600089D8000089D8000089D8000089D800000C
:1000700089D8000089D8000089D8000089D80000FC
:1000800089D8000089D8000089D8000089D80000EC
:1000900089D8000089D8000089D8000089D80000DC
:1000A0008DA2000081A2000089D8000089D800003C
:1000B00089D8000089D8000089D80000BD720000EE
:1000C00089D80000E571000089D80000497100005E
:1000D00089D80000AD70000089D8000089D80000E0
:1000E00089D8000089D8000089D8000089D800008C
:1000F00089D8000089D8000089D8000089D800007C
:1001000089D8000089D8000089D8000089D800006B
:1001100089D800008D74000089D8000089D80000BB
:1001200089D8000089D8000089D8000089D800004B
:1001300089D8000089D8000089D8000089D800003B
:1001400089D8000089D800001170000089D800000B
:10015000796F000089D8000089D8000089D8000094
:1001600089D8000089D8000075A2000089D8000055
:1001700089D8000089D8000089D8000089D80000FB
:1001800089D8000089D8000089D8000089D80000EB
:1001900089D8000089D8000008B55D4B4CF2205288
:1001A0001A804DF628121A8000BF00BF102223F8D3
:1001B0000E2CA3F51F43DE3B4FF030621A60554A08
:1001C0009A60554ADA60554B4FF470021A60544AEF
:1001D000136813F4807304D152490B604FF4A85391
:1001E0001360514B1A78100703D51A7842F00802B1
:1001F0001A704E4B4E492A221A704E4A4E4B8B4271
:1002000004D252F8040F43F8040BF8E74B4B4C4967
:1002100000228B4202D243F8042BFAE749494A4AAA
:10022000002352F8230041F823000133662BF8D154
:10023000464B474A802103F8011B9342FBD1454BB3
:10024000404A1A60444B8A221A70A3F58053242234
:100250005A70A0221A709A799107FCD59A79D20621
:10026000FCD43E4A937903F00C03082B3B4BF9D1A5
:1002700003221A7146225A719A799406FCD5374A9C
:100280009179364B4806FBD5354A4FF082711160A3
:100290000921516020221A709A7902F00C020C2A6E
:1002A000FAD1304B304A1A60304B314A1A60002480
:1002B00007225C6043F8042C2E4AC3F80C2D62B66A
:1002C0000DF0E6FA174B1A68D1070AD52A4A2B49CE
:1002D0001C60146042F8041C10221A60284A294944
:1002E0001160294A127852060ED52549254A086818
:1002F000904209D12048214C00221A60026040F847
:10030000044C102018600A600FF0CCF801F0AEFA2F
:100310000E200540823F04000100002B88ED00E024
:1003200010D0034014D0034002D0074000E0074043
:10033000841DFF1F14960100080CFF1F841DFF1F62
:100340007838FF1F0002FF1F0000000000E400E0FB
:1003500056E400E008ED00E0005006400040064092
:100360004480044004800440C010050014E000E014
:10037000BFD401000000202004D0034076079F6313
:100380001CE00340A5C3945A00F00740FFFFFFFFA5
:10039000FFFFFFFFFFFFFFFFFFFFFFFFFFFFFFFF6D
:1003A000FFFFFFFFFFFFFFFFFFFFFFFFFFFFFFFF5D
:1003B000FFFFFFFFFFFFFFFFFFFFFFFFFFFFFFFF4D
:1003C000FFFFFFFFFFFFFFFFFFFFFFFFFFFFFFFF3D
:1003D000FFFFFFFFFFFFFFFFFFFFFFFFFFFFFFFF2D
:1003E000FFFFFFFFFFFFFFFFFFFFFFFFFFFFFFFF1D
:1003F000FFFFFFFFFFFFFFFFFFFFFFFFFFFFFFFF0D
:10040000FFFFFFFFFFFFFFFFFFFFFFFFDEF9FFFF23
:1004100010B5054C237833B9044B13B10448AFF33E
:1004200000800123237010BD841DFF1F0000000009
:1004300010960100084B10B51BB108490848AFF3EE
:1004400000800848036803B910BD074B002BFBD0A0
:10045000BDE81040184700BF00000000881DFF1FC6
:1004600010960100841DFF1F000000002DE9F04FD1
:10047000B64EB74FDFF82CB3DFF82CA3B54C9BB0CA
:10048000B54905A80BF040FAB44B1B68002B00F0EF
:100490009981012B00F02D82022B00F02582032B85
:1004A00001F05681AD4B5B68002B00F08681012B7B
:1004B00001F05A81022B01F0518105A911A80BF01E
:1004C000F7F911A808F026FE119810F0B3F896205D
:1004D0000DF06EFB306807F0BFFE386807F0BCFE19
:1004E000DBF8000007F0B8FEDAF8000007F0B4FE11
:1004F0009B4B186807F0B0FE9A4B186807F0ACFEEB
:10050000994B186807F0A8FE984B186807F0A4FEEE
:1005100033681B689A7B1AB11D7B002D00F0578150
:10052000386807F091FE80B9DBF8000007F08CFE18
:100530000546002800F0E28102F082FF054605989A
:1005400010F078F8002D9BD082E0824D0DAC8849E8
:1005500020460BF0D9F9214611A80BF0A9F911A8F2
:1005600008F0D8FD119810F065F896200DF020FBEA
:10057000306807F071FE386807F06EFEDBF80000A7
:1005800007F06AFEDAF8000007F066FE754B18689F
:1005900007F062FE33681B689A7B12B11B7B002B4D
:1005A00068D03B681B689A7B1AB11B7B002B00F05C
:1005B000B780DBF8000007F047FE002800F08281DA
:1005C00028200DF0CDFB002840F0768128200CF08B
:1005D000F9F803250D98674C10F02CF84FF4806261
:1005E000002165480EF086FF644B022001210022A5
:1005F0009875D87599825982DA811A8204F10806B1
:1006000014F8011B5D4809F065FEB442F8D11AAC3C
:10061000303504F8035D254615F8011B574809F0ED
:1006200059FEC5F10103DC42F6D1554C04F1090530
:1006300014F8011B514809F04DFEAC42F8D107F007
:10064000F1FF4FF4FA700DF0B3FA05980FF0F2FFD6
:100650004FF48062002148480EF04CFF494808F0F2
:100660002BFB07F0DFFF4FF4FA700DF0A1FA1BB07F
:10067000BDE8F08F2B78D90764D54FF0A0531B78D5
:10068000002B57D1DFF824813F4FD8F800303F4E80
:1006900019783F4D3F4C00200DF03AFB3B6801209C
:1006A00019780DF035FB3368022019780DF030FB16
:1006B0002B68032019780DF02BFB23680420197890
:1006C0000DF026FB344B19680C31C9B205200DF032
:1006D0001FFB324B062019780DF01AFBD8F80030BA
:1006E0000720197A0DF014FB3B680820197A0DF0E9
:1006F0000FFB33680920197A0DF00AFB2B680A20DA
:10070000197A0DF005FB23680B20197A0DF000FB18
:10071000234B1B680C20197A0DF0FAFA012559E7D2
:1007200014200DF01DFB002842D114200CF04AF8D3
:1007300002254FE70EF0ECFD0028A3D10D980FF035
:1007400079FF04E70DF09EFA97E700BFA81DFF1F91
:10075000AC1DFF1F01000240D40A0100A01DFF1FB5
:10076000A41FFF1FB81DFF1F041EFF1F081EFF1F31
:100770005C0C0100BC0A01003C0DFF1F9032FF1F02
:10078000C80A0100BC060100D01DFF1FD41DFF1FB9
:10079000D81DFF1F181EFF1FE01DFF1FDC1DFF1FC0
:1007A000741EFF1FB01DFF1FB41DFF1FCC1DFF1FB8
:1007B0000EF0AEFD0028C1D0B7E7554905A80BF0F3
:1007C00069F87AE6534905A80BF064F86AE60DF17A
:1007D0003408514940460BF097F80F9B119512953C
:1007E00013958DF85050002B47D111A808F092FCBA
:1007F00011980FF01FFF96200DF0DAF9306807F01E
:100800002BFD386807F028FDDBF8000007F024FD19
:10081000424B186807F020FD33681B689A7B0AB1C9
:100820001B7BC3B13B681B689A7B0AB11B7BE3B19E
:10083000DBF800301B689A7B0AB11B7B23B1374B76
:10084000186807F001FDA0B140460AF093FE059834
:100850000FF0F0FE14E605F08FFB81460D980FF0C7
:10086000E9FEB9F1000FB4D0EFE60DF005FC8146CA
:10087000F4E70D980FF0DEFEABE70D9A0293591CDA
:10088000002001920FF0DEFE814660B11399029BB9
:1008900011901293019A01B90170114648461393C1
:1008A0000FF07AFDA1E7119818B10FF0C3FECDF853
:1008B00044901295139598E70EF02AFD00283FF416
:1008C0003DAF83E6DAF8000007F0BEFC002800F038
:1008D00058873C200DF044FA002840F04B873C201C
:1008E0000BF070FF042575E60D4905A80AF0D2FF4C
:1008F000D8E50C4905A80AF0CDFFD3E5DAF80000E9
:1009000007F0A2FC002800F0F686A946B6E000BF7A
:100910008C0B01002C0B0100D40B0100B81DFF1F34
:100920005C0B0100440B0100099B13B11D70DDF845
:100930004480CDF82C9040460FF07CFE0B9DCDF806
:100940004490CDF84890CDF84C908DF85090002D03
:1009500040F0D28501226F4911A80AF045FF139D8E
:10096000DDF84480002D40F07685099B13B11D70A1
:10097000DDF84480CDF82C9040460FF05BFE0B9DD7
:10098000CDF84490CDF84890CDF84C908DF850902B
:10099000002D40F0F3852D225F4911A80AF024FFB5
:1009A000139DDDF84480002D40F06285099B13B152
:1009B0001D70DDF84480CDF82C9040460FF03AFED3
:1009C0000B9DCDF84490CDF84890CDF84C908DF823
:1009D0005090002D40F0B18511A808F09BFB1198B4
:1009E0000FF028FE96200DF0E3F8306807F034FC95
:1009F000386807F031FCDBF8000007F02DFCDAF86E
:100A0000000007F029FC454B186807F025FC444B13
:100A1000186807F021FC33681B689A7B1AB11B7BAE
:100A2000002B00F0A7803B681B689A7B0AB11B7BF8
:100A30000BB3DBF800301B689A7B0AB11B7BD3B188
:100A4000DAF800301B689A7B1AB11B7B002B00F090
:100A50001D86324B1B681B689A7B1AB11B7B002BCF
:100A600000F044862E4B1B681B689A7B1AB11B7BD7
:100A7000002B00F03B8609980FF0DCFD432100209D
:100A8000CDF82490CDF82890CDF82C908DF83090AA
:100A90000FF0D8FD0546002800F0038542234322CD
:100AA00020490A930B93019309900FF0D5F9432144
:100AB0000020CDF84490CDF84890CDF84C908DF8BA
:100AC00050900FF0BFFD019B8046002800F0DD84B0
:100AD000139A1190129302B902704223294640469C
:100AE00013930FF059FC01220A4911A80AF07CFE69
:100AF000139DDDF84480002D3FF416AF0A9B9D4204
:100B000000F29A8509980B9541460FF045FCDDF8F7
:100B1000448010E72C190100540D0100A41FFF1F91
:100B2000B81DFF1F100D01003B681B689A7B1AB1AE
:100B30001B7B002B00F0D781DBF800301B689A7B11
:100B40001AB11B7B002B00F0EF82DAF800301B6833
:100B50009A7B1AB11B7B002B00F06C84A44B1B68A2
:100B60001B689A7B1AB11B7B002B00F063840298F0
:100B70000FF060FDB12100200FF064FD029000280D
:100B800000F08381B1229B490FF066F9B12100206A
:100B9000CDF84490CDF84890CDF84C908DF8509019
:100BA0000FF050FD0546002800F09381139B119033
:100BB000B022129203B90370B0232846029913930E
:100BC0000FF0EAFB11A808F0A5FA11980FF032FD1A
:100BD00096200CF0EDFF306807F03EFB386807F018
:100BE0003BFBDBF8000007F037FBDAF8000007F00A
:100BF00033FB7F4B186807F02FFB33681B689A7B29
:100C0000002A91D01B7B002B8ED17B4BDFF800821A
:100C10001B680193B1210020CDF83490CDF83890B5
:100C2000CDF83C908DF840900FF00CFD0546002863
:100C300000F00A81B023B12270490E930F93039301
:100C40000D900FF009F9B1210020CDF84490CDF8B6
:100C50004890CDF84C908DF850900FF0F3FC039B2A
:100C60000246002800F0028113991190129301B9F5
:100C70000170B0232946104613930FF08DFB11A885
:100C800008F048FA11980FF0D5FCC8200CF090FF3E
:100C9000306807F0E1FA386807F0DEFADBF80000A8
:100CA00007F0DAFADAF8000007F0D6FA544B1868C1
:100CB00007F0D2FAD8F8000007F0CEFA4C4B1868CB
:100CC00007F0CAFA33681B689A7B12B11B7B002BB2
:100CD00068D03B681B689A7B1AB11B7B002B00F025
:100CE0009980DBF800301B689A7B1AB11B7B002BC4
:100CF00000F0D180DAF800301B689A7B1AB11B7BB8
:100D0000002B00F02B833E4B1B681B689A7B1AB1AB
:100D10001B7B002B00F09683D8F800301B689A7B71
:100D20000AB11B7B33B1324B186807F08DFA0028EB
:100D300000F0A0840DA80AF01DFCB12100200FF0E6
:100D400081FC054600284DD0B1222E490FF084F8D1
:100D5000B1210020CDF84490CDF84890CDF84C90CA
:100D60008DF850900FF06EFC8046002800F0E8826D
:100D7000139B1190B022129203B90370B023404626
:100D8000294613930FF008FB11A808F0C3F9119836
:100D90000FF050FC4FF47A700CF00AFF28460FF069
:100DA00049FCE4E6019A012393602378DA0769D5C8
:100DB000154B1B78012B0BD0144A137813F07003DA
:100DC00018BF1370104B01221A702378DD07FCD571
:100DD0000D980FF02FFCB12100200FF033FC0546D9
:100DE0000028B1D1119012908DF850001390CBE7EC
:100DF000B81DFF1F840D0100C01DFF1F380E01002C
:100E0000A41FFF1FEC0E0100670000140000024049
:100E1000A81FFF1F019A022393602378DB0755D593
:100E20009F4B1B78022BD3D09E4A137813F070038C
:100E300018BF13709A4B02221A702378D807FCD57A
:100E40000D980FF0F7FBC6E70D9810B10FF0F2FB0D
:100E50000D95CDF83890CDF83C90CDF84490CDF874
:100E60004890CDF84C908DF8509008E70390119879
:100E700018B10FF0DFFB039A1192CDF84890CDF82E
:100E80004C90FCE60CF0FEFE92E7119012908DF86B
:100E90005000139096E6019A032393602378DD07B0
:100EA00040F1A6827E4B1B78032B91D07D4A1378AC
:100EB00013F0700318BF1370794B03221A70237854
:100EC000D907FCD50D980FF0B5FB84E70CF0DAFEDE
:100ED000A6E7119810B10FF0ADFB1195CDF8489031
:100EE000CDF84C906EE6704BDFF8D0811B68019313
:100EF000B1210020CDF83490CDF83890CDF83C9059
:100F00008DF840900FF09EFB0546002800F0D88039
:100F1000B023B12265490E930F9303930D900EF009
:100F20009BFFB1210020CDF84490CDF84890CDF83A
:100F30004C908DF850900FF085FB039B02460028E3
:100F400000F0868013991190129301B90170B023BB
:100F50002946104613930FF01FFA11A808F0DAF88B
:100F600011980FF067FBC8200CF022FE306807F0E4
:100F700073F9386807F070F9DBF8000007F06CF9D6
:100F8000DAF8000007F068F9494B186807F064F9CF
:100F9000D8F8000007F060F9464B186807F05CF9D4
:100FA00033681B689A7B12B11B7B002B35D03B68E2
:100FB0001B689A7B12B11B7B002B55D0DBF80030ED
:100FC0001B689A7B1AB11B7B002B00F08E80DAF82D
:100FD00000301B689A7B1AB11B7B002B00F0EC8160
:100FE000334B1B681B689A7B1AB11B7B002B00F0EC
:100FF0006B82D8F800301B689A7B1AB11B7B002BE0
:101000003FF498AE2B4B186807F01EF900287FF4C8
:1010100091AE0D980FF00EFB6AE7019A01239360E1
:101020002378D9075ED5244B1B78012B3FF4D0AE33
:101030001C4A137813F0700318BF13701E4B012263
:101040001A702378DB07FCD50D980FF0F3FAC2E68F
:101050000390119818B10FF0EDFA039A1192CDF8A0
:101060004890CDF84C9078E7019A0223936023785A
:10107000DA0756D5104B1B78022B3FF4A9AE094A6C
:10108000137813F0700318BF13700B4B02221A7001
:101090002378DD07FCD50D980FF0CCFA9BE600BF56
:1010A0006700001400000240C41DFF1F380E01003D
:1010B000A41FFF1FB81DFF1F68000014A81FFF1FFB
:1010C0000D9810B10FF0B6FA0D95CDF83890CDF817
:1010D0003C90CDF84490CDF84890CDF84C908DF8E8
:1010E00050903AE70CF0CEFD9DE7019A0323936000
:1010F0002378DB0740F19B81A64B1B78032B3FF441
:1011000067AEA54A137813F0700318BF1370A14B94
:1011100003221A702378D807FCD50D980FF08AFAAD
:1011200059E60CF0AFFDA5E79C4BDFF888821B6801
:101130000193B1210020CDF83490CDF83890CDF84E
:101140003C908DF840900FF07DFA0546002800F0A5
:10115000AB80B023B12292490E930F9303930D906D
:101160000EF07AFEB1210020CDF84490CDF84890E1
:10117000CDF84C908DF850900FF064FA039B024626
:10118000002800F0858013991190129301B9017025
:10119000B0232946104613930FF0FEF811A807F06C
:1011A000B9FF11980FF046FAC8200CF001FD306825
:1011B00007F052F8386807F04FF8DBF8000007F046
:1011C0004BF8DAF8000007F047F8764B186807F09C
:1011D00043F8D8F8000007F03FF8734B186807F0A1
:1011E0003BF833681B689A7B12B11B7B002B34D011
:1011F0003B681B689A7B12B11B7B002B66D0DBF827
:1012000000301B689A7B12B11B7B002B7CD0DAF874
:1012100000301B689A7B1AB11B7B002B00F0EB801F
:10122000604B1B681B689A7B1AB11B7B002B00F07C
:101230005781D8F800301B689A7B1AB11B7B002BB2
:101240003FF478AD584B186806F0FEFF00287FF495
:1012500071AD0D980FF0EEF96BE7019A01239360E1
:101260002378D8074DD5514B1B78012B3FF4B0ADF7
:10127000494A137813F0700318BF13704B4B0122C7
:101280001A702378DA07FCD50D980FF0D3F9A2E590
:101290000390119818B10FF0CDF9039A1192CDF87F
:1012A0004890CDF84C9079E70D9810B10FF0C2F945
:1012B0000D95CDF83890CDF83C90CDF84490CDF810
:1012C0004890CDF84C908DF8509067E7019A022332
:1012D00093602378D9073ED5344B1B78022B3FF41B
:1012E00077AD2D4A137813F0700318BF13702F4B8E
:1012F00002221A702378DB07FCD50D980FF09AF9BB
:1013000069E50CF0BFFCAEE7019A032393602378F4
:10131000DA0740F19480254B1B78032B3FF458AD3E
:101320001D4A137813F0700318BF13701F4B03226C
:101330001A702378DD07FCD50D980FF07BF94AE58C
:10134000119818B10FF076F9CDF84480CDF8489097
:10135000CDF84C9018E50CF095FCBDE7019A0423FC
:1013600093602378D80740F1B880114B1B78042B89
:101370003FF42EAD084A137813F0700318BF1370B2
:101380000B4B04221A702378DA07FCD50D980FF066
:1013900051F920E56800001400000240C81DFF1F3D
:1013A000380E0100A41FFF1FB81DFF1F69000014A5
:1013B00067000014A81FFF1F019A0423936023787D
:1013C000DD0740F19680AE4B1B78042B3FF400AD57
:1013D000AC4A137813F0700318BF1370A84B0422A3
:1013E0001A702378D907FCD50D980FF023F9F2E491
:1013F0000CF048FC56E5019A042393602378DB0740
:1014000040F1FA80A04B1B78042B3FF4E1AC9D4ADD
:10141000137813F0700318BF13709B4B04221A70DB
:101420002378D807FCD50D980FF004F9D3E40CF01D
:1014300029FC61E602980FF0FDF8FFF71CBB0CF0E9
:1014400021FC68E7019B052098600AF097FE0D9843
:101450000FF0F0F8BFE40A9B9D4200F2D08009989B
:101460000B9541460EF098FFDDF84480FFF784BAF3
:101470000A9B9D4200F2A38009980B9541460EF00D
:101480008BFFDDF84480FFF798BA119818B10FF080
:10149000D1F8CDF84480CDF84890CDF84C90FFF7C6
:1014A00022BB099810B10FF0C5F80995CDF8289026
:1014B000CDF82C90CDF84490CDF84890CDF84C90D4
:1014C0008DF85090FFF70FBB019B052098600AF044
:1014D00031FE0D980FF0AEF87DE40CF0D3FB44E73D
:1014E000019B052098600AF001FE0D980FF0A2F80C
:1014F00071E40CF0C7FB66E7099A0192691C0020B1
:101500000FF0A0F8804660B1139B11901295019ADC
:1015100003B903701146404613950EF03DFFFFF7E7
:1015200019BA119818B10FF085F8CDF84480CDF8AC
:101530004890CDF84C90FFF70DBA099A0192691CBA
:1015400000200FF07FF8804660B1139B1190129538
:10155000019A03B903701146404613950EF01CFF23
:10156000FFF73ABA119818B10FF064F8CDF844803B
:10157000CDF84890CDF84C90FFF72EBA099A019219
:10158000691C00200FF05EF8804660B1139B11903B
:101590001295019A03B903701146404613950EF057
:1015A000FBFEFFF7F8B9119818B10FF043F8CDF82A
:1015B0004480CDF84890CDF84C90FFF7ECB9691C09
:1015C00009980FF03FF840B10B9A09900A95002A4C
:1015D0007FF453AF027009984FE70190099818B152
:1015E0000FF028F8019B0993CDF82890CDF82C90A6
:1015F000DDF84480FFF7E1B90CF044FB02E7691C19
:1016000009980FF01FF840B10B9A09900A95002A2B
:101610007FF426AF0270099822E70190099818B16B
:101620000FF008F8019B0993CDF82890CDF82C9085
:10163000DDF84480FFF7A0B9691C09980FF002F8A3
:1016400048B10B9A09900A95002A7FF45CAA0270AF
:101650000998FFF758BA0190099818B10EF0EAFFFF
:10166000019B0993CDF82890CDF82C90DDF84480AB
:10167000FFF761B90D980EF0DDFFFFF7CBBA00BFA1
:1016800068000014000002406900001409F0CEF95F
:10169000694B186806F0E0FD674B186803689A7B91
:1016A000002AF7D01B7B002BF4D10DAD63492846EF
:1016B0000AF02AF9294611A80AF0FAF811A807F049
:1016C00029FD11980EF0B6FF5B4B186806F0C4FDBB
:1016D000594B186803689A7B002AF7D01B7B002BB4
:1016E000F4D10D980EF0A6FFFFF7C5B909A809F0CF
:1016F00041FFFFF7ACB8524B186806F0A5FD002873
:101700007EF4A3AF4C4B186806F09EFD05460028FA
:101710007EF49BAF4B4B186806F096FD8046002880
:101720005AD0494B484A1B68002B4BD0012B3FD065
:10173000022B32D0032B7FF48AA8444A444B116811
:101740001A6800230B7340490B601373FFF77FB8CF
:10175000404905A80AF09EF8FEF7A4BE3E4905A838
:101760000AF098F8FEF7A9BE3C4905A80AF092F8DD
:10177000FEF7A3BE0DF0CCFD00283EF4DFAFFFF76F
:10178000AEB82D4B186806F05FFD00283EF4D6AFCA
:10179000204609F0EFFEFEF758BF2C4B2C491B6882
:1017A00009680120187303230D731360FFF74FB806
:1017B00026492748096800680D73022103731160E8
:1017C000FFF745B82149224B0868196801230373C4
:1017D00013600B73FFF73BB8214B186806F034FD1C
:1017E00000283FF434A8184B174A5B687BB1012BE3
:1017F00017D0022B7FF42BA81A4A1B4B11681A68CA
:1018000000230B7310494B601373FFF720B8154882
:10181000154900680968037301230B735360FFF7D0
:1018200016B810481049006809680373022381F84C
:101830000C805360FFF70BB8B81DFF1FA00F01000D
:10184000A41FFF1F041EFF1FA01DFF1FD41DFF1F8D
:10185000D81DFF1F740B0100BC0B0100A40B01007D
:10186000081EFF1FCC1DFF1FD01DFF1F2DE9804844
:10187000ABB004F013FF0D4B0D4D1B78DFF838B003
:101880000C4C002B40F0AB82D5F83C8098E80C0063
:101890000026B242C8F8083088F80C6088F80D605D
:1018A000C8F8046022DD08F10C070BE00C0CFF1FE8
:1018B000A81DFF1F010002404C33FF1FD8F8003065
:1018C000B3420FDD57F8040F06F0C6FC3B681A79E7
:1018D0000136002AF2D09B68C8F80430D8F80030EE
:1018E000B342EFDCD8F80460D8F808309E4240F3E9
:1018F000ED85012388F80C30696C2E640A68537BEF
:101900003F2B00F2F986BF4850F8333093F800328D
:10191000D8B2137B834200F09984BB4B17681B68D5
:101920001193119BB84EDB1B5768BB42C0F08E84ED
:1019300033681093109E107301230020166090608E
:1019400093730B689A7B2AB11B7B1BB94B7983F08D
:1019500001034B71AE6CAC4BD6F8F4771B68139354
:101960003969139BA94AA848D26C5B1AB3F57A7FF0
:1019700040F2C586D2F8803001681B6B149114992F
:101980001B6939611BB2BB60D6F8E47707EE903A69
:1019900007EE107AF8EEE77AB8EEC77AB4EEE77A97
:1019A000F1EE10FA40F39885FA23C6F8FC3796F862
:1019B000FA37002B40F0E586012386F8F83701233B
:1019C00086F8FA37D36FD6F8E827186B4FF42F73E1
:1019D0000169013B02FA81F2FAD106F5FB6EDEEDF8
:1019E000007A8B48C6F8E83780FB0210FDEEE77AF4
:1019F000D117C1EB20223A4417EE901A02EBD272B3
:101A0000C1EB6202052AC6F8E427D6F8EC2740F3BA
:101A1000358441F6B05302F6C4129A4240F3318441
:101A2000C6F8EC3796F8F237002B41F036810123E7
:101A300086F8F037012386F8F237286D06F00CFCA3
:101A4000686D06F009FCAE6D304606F005FCD5F871
:101A50005CA0504606F000FC2B690993184606F07E
:101A6000FBFBD5F81880404606F0F6FBEF693846D8
:101A700006F0F2FBD5F82090484606F0EDFB404614
:101A800006F0E2FB20B1D8F80830012B00F01684F4
:101A9000384606F0D9FB18B1BB68012B00F00E8464
:101AA000484606F0D1FB002840F003849AF8043041
:101AB000002B41F0E580304606F0C6FB002800F020
:101AC0003B846A6BD5F8D030504902F1020E9E4536
:101AD000C5F834E002DD00234B639E46AB6CDFF8B3
:101AE0002CC193F8F237002B01F04883286B06F0E5
:101AF0004BFBE86A06F048FB686A06F045FBA86AFB
:101B000006F042FBD5F8CC0006F03EFBAB6B296C2F
:101B1000686A1944102206F057FBAB6B296CA86A5F
:101B20001022194406F050FBA96BD5F8CC000AF03E
:101B300049F96B6BA96B286B19440AF043F96B6B7D
:101B4000A96BE86A19440AF03DF96A6AAB6B12683E
:101B5000286C69691344184408F0F8FC286D2B4E72
:101B600006F072FB002800F0FA83AB6BAA6E274EDA
:101B7000934241DAB26C92F8F22703F1010EC6F8F3
:101B800038E0002A01F04883286B06F0FDFAE86A85
:101B900006F0FAFA686A06F0F7FAA86A06F0F4FAAC
:101BA000D5F8CC0006F0F0FAAB6B296C686A1944E2
:101BB000102206F009FBAB6B296CA86A10221944AD
:101BC00006F002FBA96BD5F8CC000AF0FBF86B6BB2
:101BD000A96B286B19440AF0F5F86B6BA96BE86ADE
:101BE00019440AF0EFF86A6AAB6B1268286C6969ED
:101BF0001344184408F0AAFC686D044E06F024FB58
:101C000008E000BF786401005C34FF1FA81DFF1FBF
:101C100091739F5D002801F05380AA6BAB6EA24EBA
:101C20001344002B41DDB36C93F8F23702F1FF3E11
:101C3000C6F838E0002B01F03A83286B06F0A4FACE
:101C4000E86A06F0A1FA686A06F09EFAA86A06F049
:101C50009BFAD5F8CC0006F097FAAB6B296C686A52
:101C60001944102206F0B0FAAB6B296CA86A102256
:101C7000194406F0A9FAA96BD5F8CC000AF0A2F82D
:101C80006B6BA96B286B19440AF09CF86B6BA96B02
:101C9000E86A19440AF096F86A6AAB6B1268286C15
:101CA00069691344184408F051FCAE69304606F0E7
:101CB000CBFA002840F06583EE69304606F0C4FA9E
:101CC000002840F068832E6A304606F0BDFA0028EE
:101CD00040F06B83686C744E4379002B00F06E8388
:101CE00006F0B2FAB36C002841F08482EA6B117BF3
:101CF000002901F04D83686A06F046FAA86A06F0EA
:101D000043FAD5F8CC0006F03FFAAB6B296C686A51
:101D10001944102206F058FAAB6B296CA86A1944D2
:101D2000102206F051FAA96BD5F8CC000AF04AF857
:101D30006A6AAB6B1268286C69691344184408F02E
:101D400005FCAB6C93F8F827002A40F06B8393F8FE
:101D5000F937002B40F07283544B5B78002B00F076
:101D60007583534E9BF85870102F40F2AB80D5F816
:101D7000BC00DFF84C814FF00009002800F06781BB
:101D8000068843889A0800EB82020433B3429768BE
:101D900080F01B81438007F00F06A6F10803062B95
:101DA00063D8082EC7F3033700F07381092E00F0C3
:101DB00074810A2E40F075810A2FDED0D5F8C43028
:101DC0003C49394A01338B4200F39C84C2F8C43049
:101DD0000AF07EFC354B1B78002B3FF455AD364F97
:101DE000364915A809F090FD15A921A809F060FD54
:101DF00021A807F08FF921980EF01CFC96200BF01B
:101E0000D7FE2E68304606F027FAD5F80480404603
:101E100006F022FAD5F80890484606F01DFAD5F8E3
:101E20000CA0504606F018FA33689A7B1AB11B7B57
:101E3000002B00F0A085D8F800309A7B1AB11B7BEC
:101E4000002B00F04086D9F800309A7B1AB11B7B3A
:101E5000002B00F07286504606F0F6F9002840F09C
:101E6000B38415980EF0E6FBBAE7B31E012BC7F357
:101E7000072240F2C180052E00F0BA80042E00F047
:101E80008E86731F022B40F287870F2E96D1F72A7A
:101E900000F2B280F02A03D0B5F8C030002B8DD00C
:101EA000104609F065FD89E7A81DFF1F0C0CFF1FF8
:101EB0004C33FF1FA0860100000002407C1401008B
:101EC000C837FF1F736DC54A186803681B699342C2
:101ED00040F0B880C24BC34A1B781078DBB2C0B266
:101EE000834202D2C04A12681344181A00283FF4F1
:101EF0003EAF9BF80D31DBF8542023F001038BF843
:101F00000D311068B94A03685B69934240F0F2836F
:101F1000B34BB44A1B781278DBB2D2B2934201F0D1
:101F20001B82B149096802F1010E8E4580F07C8167
:101F3000BEF13F0F41F272823F3AD5F8B400D5F8B6
:101F4000B8C0805C5FFA80F8A6485FFA8EF2027033
:101F5000BCF1000F00F07881A54A9E4588BFC918E2
:101F6000526894BFCEEB0303CEEB0103934200F221
:101F70006B81002340468CF80030C2B2FD2A3FF44A
:101F8000F6AEDBF86430DFF87CE2002B40F098809E
:101F90009BF859308BF85B20190600F1558753B236
:101FA000002BC1F2DD809BF90D01DBF8043040F01D
:101FB00001008BF80D0103B198470023CBF8643082
:101FC000CBF860308BF85930D1E609F0E3FC72B6FB
:101FD000884B186940B1884B02881B894168C8F852
:101FE00010109B1A844A138162B6C5F8BC00D2E671
:101FF000F02A5DD9F72A5BD0F13A0E2A3FF6DEAE21
:1020000001A353F822F000BF7B1D00007B1D0000E0
:102010007B1D0000BD1D0000BD1D00007B1D0000DC
:10202000BD1D00007B1D0000BD1D00007B1D0000CC
:102030007B1D00007B1D0000BD1D00007B1D0000FE
:102040007B1D0000984700283FF491AE51E76B4B91
:102050001B78002B3FF4B2AE72B6664B186940B1E4
:10206000654B02881B894168C8F810109B1A624AA8
:10207000138162B6624FC5F8BC0000283FF49EAEE3
:102080000688002E7FF47DAE09F084FCC7F8BC60A2
:1020900094E6082F7FF492AE6FE6092F7FF48EAEA0
:1020A0006BE60B2E41F09C810B2F7FF487AE64E62C
:1020B000104609F05DFCA5F8C090D5F8BC005CE6C0
:1020C000010600F190869BF85B10F02900F0778301
:1020D000F72900F07483F11881F85B20DBF86000C9
:1020E0004849421E9342C0F0568396F85B10F0298F
:1020F00001F0BA80F72901F0B7800B0600F15B868A
:1021000000228BF87520B02A00F06886A02A00F023
:102110006586D02A00F06286E02A00F05F86C02A39
:1021200000F05C86002303289BF85CE008BF96F86B
:102130005D008BF876E018BF00204FF0000E4FF0E6
:10214000010CB02A8BF874308BF87700CBF864E080
:10215000CBF860E08BF8F8C001F0468001F23D80DA
:10216000902A01F04180A02A01F03E80802A01F0EF
:102170003B8000228BF859209BF87520902A43D091
:10218000A2F18001C9B2602942D906F027FE9BF86E
:10219000703013F001083FF4E5AD9BF8702012F0A9
:1021A000FE0F15D096F8750080F08003602B00F2CA
:1021B000C58196F874309F4200F0F182002F00F044
:1021C000EE825208012A01F01F80032A00F0F082FB
:1021D000B8F1000F7FF4C6ADC9E500BF416600004D
:1021E0000438FF1F0538FF1FC813FF1FC16500001B
:1021F0000C0CFF1FC837FF1FDC37FF1FC037FF1F46
:10220000A81DFF1F4C33FF1F10B980228BF87520CB
:102210009F42BAD0002FB8D09BF87030DB077FF513
:10222000A6AD4FF00008B8E70022964605EB0E0079
:10223000D5F8B8C090F874005FFA80F8BB48027017
:10224000BCF1000F7FF488AE404696E69368002B01
:1022500000F05981B648176800680F900F98B44E87
:10226000C01B834200F24F8133681293129B1360AC
:102270000020012390609373FFF763BBC83A00F11D
:10228000468141F289339A42C6F8EC273FF7CAAB40
:10229000B2F57A7FBFF6D1AB96F8F237002B00F09B
:1022A0003D81012386F8F137002386F8F237FFF7E6
:1022B000C4BBD9F80830012B7FF4F8AB686A05F08D
:1022C00063FFA86A05F060FFD5F8CC0005F05CFF5D
:1022D000286B05F059FFE86A05F056FF286F05F0F6
:1022E00053FF6B6C4FF0000883F80580FEF7BEF8D3
:1022F0002B6BD5F824E0AE6AEF6A93F80CC0DEF8D9
:10230000000031683A681B68CDF818C03F7B05971C
:10231000367B04969EF80C606F6B0396AE6B00964E
:10232000CDF80880019708F0FFFDAE6D304605F04E
:102330008BFF00287FF4C5AB2A697E4B1279002AF7
:102340003FF40CAC186E05F07FFF00287FF4B9ABAA
:10235000286D784E05F078FF00287FF406AC3368CE
:102360001B79002B40F0CB87706D05F06DFF0028C6
:102370007FF453ACAE69304605F066FF00283FF4A9
:102380009BAC304605F0E4FFEE69304605F05CFF9B
:1023900000283FF498AC304605F0DAFF2E6A30464C
:1023A00005F052FF00283FF495AC304605F0D0FF11
:1023B000686C604E4379002B7FF492ACB36C93F859
:1023C000F277002F00F0F78393F8F027002A3FF40C
:1023D0008DACB36B316C706A1944102205F0F4FEB9
:1023E000B36B316CB06A1022194405F0EDFE736BCB
:1023F000B16B306B194409F0E5FC736BB16BF06A9B
:10240000194409F0DFFC726AB36B1268306C7169B1
:102410001344184408F09AF8B36C93F8F827002A8C
:102420003FF495AC6B6BA96B286F194409F0CAFC9B
:10243000AB6C93F8F937002B3FF48EAC286F05F0A6
:10244000A3FE3D4B5B78002B7FF48BAC6B6CDFF80D
:10245000E4E05B79002B7FF484ACDEF8483093F83D
:10246000F237002B7FF47DAC314BDEF8D4201B68B3
:102470000C930C9B9B1AC82B7FF673ACDEF83030A4
:10248000DEF824C0DEF82860DEF82C7093F80C80AB
:102490003A68DCF8000031681B68CDF818803F7B93
:1024A0000597367B0496DEF83460DEF840709CF8C1
:1024B0000CC00196DEF8386002971F4F0096012687
:1024C000CDF80CC07E7008F02FFD4AE4BCBF01239C
:1024D00088F80D30FFF710BAD6F8FC37002B05DD71
:1024E000013BC6F8FC37002B7FF461AA96F8FA3757
:1024F000002B00F03A86012386F8F937002386F88E
:10250000FA37FFF75FBA00239373FFF71ABAC6F8DA
:10251000EC3796F8F237002B7FF4C3AE96F8F1272C
:10252000002A3FF4C1AE86F8F137BDE60538FF1F3B
:102530005C34FF1FA81DFF1F0C0CFF1FA0F1F00350
:102540000F2B3FF645AE01A252F823F0AD26000056
:102550000B26000061260000C3250000D1210000E9
:10256000D12100008D250000D12100008D25000023
:10257000D12100008D2500008D2500008D25000053
:10258000D12100008D2500008D25000000F10803F9
:10259000DBB2072B3FF61CAE012202FA03F313F065
:1025A000DD0F3FF415AEDBF85430A7491A68136805
:1025B0001B688B4240F03687A44B1B685F0521D413
:1025C00006E6DBF85430A04A18689BF8767003687A
:1025D0001B68934240F0D4869C4A1268520506D587
:1025E000F32005F0D7FB736D186803681B68964AE3
:1025F000934207F07F0157D1944B1B6858057FF534
:10260000E7AD084605F0C6FBE2E5DBF854209BF891
:10261000763010689BF8777002681B0103F0700336
:1026200007F00F0712681F43874B9A4240F0A086BD
:10263000864B1B685B0506D5F12005F0ABFB736D7F
:10264000186803681A68804B9A4240F08D867F4B69
:102650001B6859057FF5BCAD384605F09BFBB7E517
:10266000DBF85430784A18689BF8767003689BF85A
:1026700077901B68934240F0DA86744A12685205DC
:1026800006D5F22005F086FB736D186803681B6899
:1026900047EAC91707F07F019847DBF854301868FC
:1026A00003681B68C7F3C611984791E5BBF87630FD
:1026B000802B28BF8023002B3FF48AAD7733DFF8CF
:1026C000A4919F1908E0614B1B68590501D505F0DD
:1026D00061FB4F453FF47CADDBF854305A481A6833
:1026E00019F8011F13681B6883420846EBD0104697
:1026F0009847EEE7984740E40020FFF70AB9BB6827
:10270000FFF742B9002316215148C2F8C43009F03E
:10271000B3F9504B504A1B680B930B9B12689A1AE3
:1027200000F0C8824D4EA6FB0213DB0803EB8301C9
:10273000A2EB410230328DF8A520002B00F04C8630
:102740002121A6FB0302D20802EB82000139A3EB90
:102750004003C9B22AA80844303300F8243C134689
:10276000002AEED10846C1F1220121AB184409F03C
:1027700083F9384B384A1B680A930A9B1360FFF7AA
:1027800027BB96F8F837002B3FF419A9002386F8E9
:10279000F837FFF714B901334B66FFF7E8BA9BF837
:1027A00070205208012A00F02F85022A7FF410AD14
:1027B00096F8772096F8761006F038FC08E50BEBD3
:1027C000030181F8782089E4254919A809F09CF8CB
:1027D00019A921A809F06CF821A806F09BFC219802
:1027E0000DF028FF96200BF0E3F9D5F80080404665
:1027F00005F032FD6E68304605F02EFDD5F80890E4
:10280000484605F029FDD5F810A0504605F024FDF6
:10281000D8F800309A7B30461AB11B7B002B00F0B1
:102820005C8205F011FD002862D1484605F00CFDE0
:10283000D0B9504605F008FD064619980DF0FAFE8D
:10284000002EC1D0FFF70DBB81660000348004402C
:10285000881701005C34FF1F6034FF1FCDCCCCCC47
:1028600030150100C333FF1FB649DFF800A31DA8D0
:1028700009F04AF81DA921A809F01AF821A806F0C4
:1028800049FC21980DF0D6FE96200BF091F92E68A8
:10289000304605F0E1FCD5F80480404605F0DCFC4C
:1028A000D5F81090484605F0D7FC33689A7B1AB1EA
:1028B0001B7B002B00F02B81D8F800309A7B1AB1DB
:1028C0001B7B002B00F05481484605F0BDFC0646FA
:1028D0001D980DF0AFFE002EC6D019980DF0AAFE7F
:1028E00015980DF0A7FEFFF77BBA1D980DF0A2FE1C
:1028F0009549DFF878921DA809F006F81DA921A8CE
:1029000008F0D6FF21A806F005FC21980DF092FEF4
:1029100096200BF04DF92E68304605F09DFCD5F859
:102920000480404605F098FCD5F810A0504605F00C
:1029300093FC33689A7B1AB11B7B002B00F08780D5
:10294000D8F800309A7B1AB11B7B002B00F0BF80B7
:10295000DAF800309A7B002AC7D01E7B1D980DF054
:1029600069FE002EC4D119980DF064FE15980DF083
:1029700061FEFFF735BA03F0FFFA064615980DF031
:1029800059FE002E3FF42CAA64200BF0E9F968618F
:1029900067200BF0E5F9AB69EE69986068200BF0F1
:1029A000DFF9B06069200BF0DBF92B6A986006F064
:1029B0007BF94FF000094F46644B0FFA89FA002665
:1029C00003EB091801E0802E14D031B2CB1016F0C1
:1029D000070F4FEA47070CBF18F80370FFB238061D
:1029E00006F10106EFD501235246594807F030FAA7
:1029F000802EEAD109F10109B9F1400FDCD105F0CF
:102A000011FE05F1240640F2EE200BF0D1F896E815
:102A1000C0402B6B306893F80CC039681B68DEF837
:102A20000020CDF818C09EF80CE0CDF814E03F7BF4
:102A30000497367B6F6B039601970026AF6B029667
:102A4000009708F071FA434B1E70FEF71DBF227805
:102A5000C9F81430D20740F12A813F4B1B7853B19B
:102A60003B7813F0700318BF3B703B4B00221A7089
:102A70002378D907FCD54FF48062002137480CF049
:102A800039FD3749022001220023314EB282728281
:102A9000F3813382B075F07521A808F035FF21A8C5
:102AA00006F006F805F0BEFD40F2EE200BF080F8CF
:102AB00021980DF0BFFD1D980DF0BCFD19980DF08B
:102AC000B9FDFFF7CEB90BF0D7FA064656E72378E3
:102AD0000122DB076A6140F17D831F4B1B78012BCC
:102AE0000AD03B7813F0700318BF3B701A4B0122D9
:102AF0001A702378DA07FCD54FF48062002117485A
:102B00000CF0F8FC0220012200231649BDE72278D0
:102B10008AF8C830D60740F17483134B1B78002B1A
:102B2000C9D03B7813F0700318BF3B700E4B0022E6
:102B30001A702378DB07FCD5BDE700F081FC064660
:102B40001CE700BFEC160100001601005010010048
:102B50009032FF1F0C0CFF1F640000143C0DFF1F80
:102B6000B4160100D016010065000014A81DFF1F57
:102B700023780122D80785F8C82040F1D483AA4BD6
:102B80001B78012B97D03B7813F0700318BF3B7074
:102B9000A54B01221A702378DE07FCD58BE710467F
:102BA00008F0E6FEC7F3074008F0E2FE380E08F032
:102BB000DFFEFFF703B90268917B09B1127B42BBCC
:102BC00093F8F137002B3FF4C7A8686A05F0DCFAE8
:102BD000A86A05F0D9FAD5F8CC0005F0D5FA286B2B
:102BE00005F0D2FAE86A05F0CFFA286F05F0CCFAC2
:102BF0008E4B8F4A1B680D930D9BC5F8D430002374
:102C000053706B6CDFF83CE25B79002B7FF4A9A872
:102C100023E4706A05F0B8FAB06A05F0B5FAD6F8A0
:102C2000CC0005F0B1FA306B05F0AEFAF06A05F0B1
:102C3000ABFA306F05F0A8FA706A05F08FFAB06A47
:102C400005F08CFAD6F8CC0005F088FA306B05F068
:102C500085FAF06A05F082FA306F05F07FFA734B5F
:102C6000734A1B680E930E9BC6F8D4306B6C57707A
:102C70005B79DFF8D0E1002B7FF473A8FFF7EDBBA1
:102C8000099B1B79002B7FF419AB304605F0DCFA69
:102C900000287EF416AFFEF761BF96F8F037002BE0
:102CA0003EF4C8AE002386F8F037FEF7C3BE0AF044
:102CB000E9FFD2E630238DF8A5300121212054E52B
:102CC00033681B79002B3EF4F0AFE86E05F0BCFAD8
:102CD00000287EF4A2AFFEF7E8BF4FF0A05623789D
:102CE000DA0756D533784BB13B7813F0700318BF31
:102CF0003B70002333702378DB07FCD54D4B013646
:102D00009E42ECD1012166200BF002F8012009F06F
:102D100035FA022009F00EFA032009F0E7F92378CA
:102D2000DE0740F1C182404B1B7853B13B7813F072
:102D3000700318BF3B703C4B00221A702378D807F1
:102D4000FCD53D4E3D484FF4806200210CF0D2FB93
:102D50000122002302203A49B2827282F381338237
:102D6000B075F07521A808F0CFFD21A805F0A0FEF0
:102D700005F058FC40F2EE200AF01AFF21980DF001
:102D800059FC19980DF056FC15980DF053FCFFF7FF
:102D900027B80AF077FFA5E7104608F0E9FDC7F36A
:102DA000074008F0E5FD072E7FF485A9380E08F0EE
:102DB000DFFDFFF780B901F10C03DBB2012B7FF6D9
:102DC0009FA9FD293FF49CA9EF2900F2188301F087
:102DD000F002802A86F8752040F0098301F00F0385
:102DE0000133FFF7A0B9A2F1F0000F283FF66BA95D
:102DF0000121814011F0810F00F09B8296F878103C
:102E0000F02900F0CB82F72900F0C8829EF90D016D
:102E1000DEF8043040F001008EF80D01002B7FF445
:102E2000CBA8FFF7CAB800BF650000145C34FF1FD1
:102E30000C0CFF1F001000149032FF1F3C0DFF1FF1
:102E4000E4150100A81DFF1F03F10C0E5FFA8EF1BF
:102E500001297FF6A4A8FD2B3FF4A1A8EF2B00F2D7
:102E6000698103F0F001802940F0658101063FF59A
:102E700096A801208BF85B308BF85C20CBF86400BF
:102E80005FFA8EFEBEF1010F7FF68DA8FD2B3FF499
:102E90008AA8EF2B94BF03F0F0021A46A2F180013A
:102EA0007F293FF680A80FF2080E5EF821F000BFE0
:102EB0002D310000A71F0000A71F0000A71F000062
:102EC000A71F0000A71F0000A71F0000A71F0000EA
:102ED000A71F0000A71F0000A71F0000A71F0000DA
:102EE000A71F0000A71F0000A71F0000A71F0000CA
:102EF0002D310000A71F0000A71F0000A71F000022
:102F0000A71F0000A71F0000A71F0000A71F0000A9
:102F1000A71F0000A71F0000A71F0000A71F000099
:102F2000A71F0000A71F0000A71F0000A71F000089
:102F30002D310000A71F0000A71F0000A71F0000E1
:102F4000A71F0000A71F0000A71F0000A71F000069
:102F5000A71F0000A71F0000A71F0000A71F000059
:102F6000A71F0000A71F0000A71F0000A71F000049
:102F70002D310000A71F0000A71F0000A71F0000A1
:102F8000A71F0000A71F0000A71F0000A71F000029
:102F9000A71F0000A71F0000A71F0000A71F000019
:102FA000A71F0000A71F0000A71F0000A71F000009
:102FB000EF300000A71F0000A71F0000A71F0000A0
:102FC000A71F0000A71F0000A71F0000A71F0000E9
:102FD000A71F0000A71F0000A71F0000A71F0000D9
:102FE000A71F0000A71F0000A71F0000A71F0000C9
:102FF000EF300000A71F0000A71F0000A71F000060
:10300000A71F0000A71F0000A71F0000A71F0000A8
:10301000A71F0000A71F0000A71F0000A71F000098
:10302000A71F0000A71F0000A71F0000A71F000088
:103030002D310000A71F0000A71F0000A71F0000E0
:10304000A71F0000A71F0000A71F0000A71F000068
:10305000A71F0000A71F0000A71F0000A71F000058
:10306000A71F0000A71F0000A71F0000A71F000048
:10307000D5300000EF3000002D310000EF300000AF
:10308000A71F0000A71F0000B1300000D5300000CE
:10309000B1300000B1300000B1300000B1300000AC
:1030A000B1300000A71F0000B1300000B1300000B7
:1030B000002301208BF875208BF874308BF8763064
:1030C0008BF87730CBF86430CBF860308BF8F800B1
:1030D000FFF758B8802100238BF87820CBF86010D8
:1030E0008BF859300130CBF86400FEF740BE022166
:1030F000CBF860100028F5D096F85C0086F87600D2
:1031000003F00F0300210120013386F8743086F8A4
:10311000752086F8771071663166C6F8FC0086F86F
:10312000F800902A7FF42CA8FFF76FB80323CBF8A0
:103130006030D7E7194601F0DF0CBCF1900F3FF487
:1031400095AE01F0BF0CBCF1A00F3FF48FAE01F0C3
:10315000EF01C0293FF48AAE53B2002BBEF623AF75
:10316000134602F10C0E00208AE696F8F9170029A2
:103170003FF4C4A986F8F937FFF7C0B9DCF844304A
:103180005B79002B7EF4B2ACDCF83030DCF82470D4
:10319000DCF82880DCF82C6093F80C903868D8F8BC
:1031A000001032681B68CDF81890367B059698F8A9
:1031B0000C60049697F80C80DCF83860DCF84070FE
:1031C00002970096CDF80C80CDF804E007F0ACFE35
:1031D000FEF7C4BC0AF056FD7FE4D02A04D0E02AF2
:1031E00002D0C02A7EF4C5AF8BF859109BF8752029
:1031F000FEF7C4BF93F8F227002A3FF4EAA8FEF7CF
:1032000075BD0AF03FFD88E49BF877209BF87610A7
:1032100005F00CFFFEF7DCBF736C5B79002B7EF4CE
:10322000B3AC336BD6F82880D6F824C0F76A93F88D
:103230000C90DCF800003A681B68D8F80010CDF854
:1032400018903F7B059798F80C700497376C9CF8A2
:103250000CC00297766B0196CDF80CC0CDF800E05B
:1032600007F062FEFEF7C8BCF02380229BF8F760EF
:103270008BF875308BF876208BF8F730CBF8FC2084
:10328000002301228BF877308BF874308BF8F8200C
:1032900005F0A4FDF72202238BF879608BF87820E3
:1032A000CBF86430FEF763BD0AF0ECFC3BE5736CD1
:1032B0005B79002B7EF4C1AC336BD6F82880D6F84E
:1032C00024C0F76A93F80C90DCF800003A681B6899
:1032D000D8F80010CDF818903F7B059798F80C703F
:1032E0000497376C9CF80CC00297766B0196CDF86A
:1032F0000CC0CDF800E007F017FEFEF7D6BC706EEC
:1033000004F0A2FF00287EF430AC706D04F09CFF46
:1033100000287EF482ACE86E04F096FF00287EF46C
:103320007CACFEF7C2BC0AF0ADFC28E4FF224FF4EF
:10333000004111F45F4F3EF4C6AE002301218BF82B
:1033400075208BF876308BF877308BF87430CBF8AB
:10335000FC108BF8F810E4E6736E002BE6D14FF00A
:10336000FF30FF22FEF714BE39469047FEF730BF0C
:10337000F1219047736D186803681A68FFF763B905
:10338000F3219847736D186803681B68FFF72FB91E
:10339000527B002A7EF4AFACFEF7D4BC591C0BEB79
:1033A00003000B0A8BF87610CBF8FC108BF8773003
:1033B000F021002380F8782001228BF875108BF81B
:1033C0007430CBF86430CBF860308BF859308BF820
:1033D000F8207021FEF7D6BE01212120FFF7C5B9E4
:1033E0000C2E0FD10C2F7EF4E9ACFEF7C6BC902A50
:1033F0007EF489AE01F00F030133FEF794BE0A4656
:10340000FEF77FBE0D2E04D10D2F7EF4D7ACFEF754
:10341000B4BC0E2F7EF4D2ACFEF7AFBC5FFA8EF2D6
:10342000FEF704BF014610469847FEF7D1BEF221D1
:103430009847736D186803681B68FFF729B900BFC8
:103440002DE9F04FDFF88093DFF88083DFF880A369
:1034500099B0CE49CE4C0CA808F056FA0CA914A885
:1034600008F026FA14A805F055FE14980DF0E2F8BD
:1034700096200AF09DFBD9F8000004F0EDFED8F884
:10348000000004F0E9FEC34B186804F0E5FEC24BEF
:10349000186804F0E1FE2668304604F0DDFEBF4BFC
:1034A000186804F0D9FED9F800301B689A7B1AB16D
:1034B0001B7B002B00F07C82D8F800301B689A7BC5
:1034C0001AB11B7B002B00F04B86B24B186804F03E
:1034D000BBFE0546002840F09B86AF4B186804F001
:1034E000B3FE0446002801F02480AD4B0493AD4B9D
:1034F0000293AD4EAD4BAE4F039310AC2322AD49BA
:10350000149514A815958DF85C50169508F06CF973
:1035100033689B68002BC1F22A80AAFB0312D208F1
:1035200002EB8201A3EB410330338DF840301346A8
:10353000002A01F0E6812046A6460021AAFB03C22C
:10354000D20802EB820CA3EB4C0330330EF8013FA0
:1035500001311346002AF1D10DF1600E8E4463183B
:103560000EF81F2C93F800E090F800C000F801EB73
:103570000132C2EB010E724503F801C9F2DB2046AD
:103580000CF07EFF2146024614A808F02DF90F2208
:10359000894914A808F028F93B689B68002BC1F200
:1035A0000F81AAFB0312D20802EB8201A3EB4103B5
:1035B00030338DF840301346002A01F0A6812046B2
:1035C000A6460021AAFB03C2D20802EB820CA3EBA1
:1035D0004C0330330EF8013F01311346002AF1D17C
:1035E0000DF1600E8E4463180EF81F2C93F800E066
:1035F00090F800C000F801EB0132C2EB010E9645D5
:1036000003F801C9F2DC20460CF03AFF21460246DD
:1036100014A808F0E9F80F22684914A808F0E4F8A3
:10362000049B1B689B68002BC1F28980AAFB0312D4
:10363000D20802EB8201A3EB410330338DF8403016
:103640001346002A01F065812046A6460021AAFB08
:1036500003C2D20802EB820CA3EB4C0330330EF80A
:10366000013F01311346002AF1D10DF1600E8E4465
:1036700063180EF81F2C93F800E090F800C000F8D3
:1036800001EB0132C2EB010E724503F801C9F2DB16
:1036900020460CF0F5FE2146024614A808F0A4F8D6
:1036A0000F22474914A808F09FF8029B1B689B68EB
:1036B000002BC1F20A80AAFB0312D20802EB82019E
:1036C000A3EB410330338DF840301346002A01F05C
:1036D00024812046A6460021AAFB03C2D20802EBA1
:1036E000820CA3EB4C0330330EF8013F013113463B
:1036F000002AF1D10DF1600E8E4463180EF81F2CD4
:1037000093F800E090F800C000F801EB0132C2EB42
:10371000010E724503F801C9F2DB20460CF0B0FE41
:103720002146024614A808F05FF80F22254914A884
:1037300008F05AF8039B1B689B68002BC0F28B872C
:10374000AAFB0312D20802EB8201A3EB4103303340
:103750008DF840301346002A01F0CF802046A6465F
:103760000021AAFB03C2D20802EB820CA3EB4C039C
:1037700030330EF8013F01311346002AF1D10DF12B
:10378000600E8E4463180EF81F2C23E0A017010072
:10379000A41FFF1FB01DFF1FB41DFF1FB81DFF1F7B
:1037A000D41DFF1FD81DFF1FCC1DFF1F181EFF1F9C
:1037B000D01DFF1FEC18010090180100A018010097
:1037C000B0180100C0180100A81DFF1FAC1DFF1F8D
:1037D000CDCCCCCC93F800E090F800C000F801EB21
:1037E0000132C2EB010E724503F801C9F2DB20463B
:1037F0000CF046FE2146024614A807F0F5FF0F2202
:10380000644914A807F0F0FF634B1B689B68002B0A
:10381000C0F2E786AAFB0312D20802EB8201A3EBF7
:10382000410330338DF840301346002A01F06180A7
:103830002046A6460021AAFB03C2D20802EB820C56
:10384000A3EB4C0330330EF8013F01311346002A3D
:10385000F1D10DF1600E8E4463180EF81F2C93F811
:1038600000E090F800C000F801EB0132C2EB010E5D
:10387000724503F801C9F2DB20460CF001FE214637
:10388000024614A807F0B0FF1322444914A807F019
:10389000ABFF169A1095119512958DF84C50149B0C
:1038A000002A40F0FE8718460CF0C4FE129B1495C7
:1038B000159516958DF85C50002B40F0CB8714A819
:1038C00005F028FC14980CF0B5FE96200AF070F96B
:1038D000D9F8000004F0C0FCD8F8000004F0BCFCEB
:1038E0002F4B186804F0B8FC2E4B186804F0B4FC99
:1038F0002D4BD3F800B0584604F0AEFC2A4B5A6862
:103900000192104604F0A8FC284B186804F0A4FCAF
:10391000D9F80030019A1B68997B19B11B7B002BE9
:1039200000F08887D8F800301B68997B19B11B7BA1
:10393000002B00F084871A4B1B681B68997B19B118
:103940001B7B002B00F08087164B1B681B68997B44
:1039500019B11B7B002B00F09E87DBF80030997BB0
:1039600019B11B7B002B00F0BE8713689A7B1AB13C
:103970001B7B002B00F0D5870C4B1B681B689A7BC8
:103980001AB11B7B002B00F0048510980CF052FE3E
:10399000B4E500BF10190100741EFF1F101C0100C8
:1039A000B01DFF1FB41DFF1FA41FFF1FB81DFF1F69
:1039B000012323720C9810AD0CF03CFE2846B1494F
:1039C00007F0A2FFB04B1B7A002B00F0A585AF4992
:1039D000284607F05FFF4823039343234FF0540A20
:1039E0004F270293AA4CAB49DFF8E4B214A807F0C2
:1039F0008BFF3B01E218E158926814A807F0F4FE2F
:103A0000A54914A807F030FF4FEA0A13E218E1585D
:103A10009268064607F0E8FE3046A04907F024FF0A
:103A2000029B1B01E218E1589268064607F0DCFE93
:103A300030469B4907F018FF039B1B01E218E15831
:103A40009268064607F0D0FE3046964907F00CFF14
:103A50000346284619689A6807F0C6FE14A807F0BE
:103A600089FD294614A807F023FF14A805F052FB8E
:103A700014A807F07FFD96200AF09AF8D9F80060A4
:103A8000304604F0E9FBD8F8000004F0E5FB864B73
:103A9000186804F0E1FB854B186804F0DDFBDBF8E7
:103AA000000004F0D9FBD9F8006033689A7B0AB1B2
:103AB0001B7B33B1DBF8000004F0C6FB002800F0EC
:103AC00027837B4B01931B681F60284607F052FD3C
:103AD0006D4B78491B7A002B0BBF2B2330233222EE
:103AE000372214A80BBF37273C273E2643260393D3
:103AF000029207F009FF01990B681B681B01E2188D
:103B0000E158926814A807F06FFE6B4914A807F0FB
:103B1000ABFE3301E218E1589268824607F064FE7A
:103B200050465D4907F0A0FE3B01E218E15892685B
:103B3000824607F059FE5046584907F095FE029A12
:103B40001301E218E1589268824607F04DFE504694
:103B5000534907F089FE039B1B01E218E158926864
:103B6000824607F041FE5046544907F07DFE01466B
:103B7000284607F09DFE14A807F0FCFC294614A86F
:103B800007F096FE14A805F0C5FA14A807F0F2FC99
:103B900096200AF00DF8D9F800A0504604F05CFB1E
:103BA000D8F8000004F058FB3F4B186804F054FBB1
:103BB0003E4B186804F050FBDBF8000004F04CFBAF
:103BC000D9F800A0DAF800309A7B0AB11B7B33B138
:103BD000DBF8000004F038FB002800F0A582DFF8D5
:103BE000F4A0DAF800301E60284607F0C3FC264B2C
:103BF00033491B7A002B0BBF3E2343233726302645
:103C00000BBF322237224FF02B0E4FF0240E1F46EF
:103C1000089304960BBF43233C2326262B2614A887
:103C2000CDF808E007930692039607F06DFE019821
:103C300003681B681B01E218E158926814A807F09A
:103C4000D3FD204914A807F00FFEDAF800301B68F6
:103C50001B01E218E1589268064607F0C5FD3046A0
:103C6000194907F001FE029B1B01E218E158926816
:103C7000064607F0B9FD3046144907F0F5FD0399F3
:103C80002AE000BF241C0100A41FFF1F201901000F
:103C90001021FF1F40190100741901008019010053
:103CA0008C19010098190100B01DFF1FB41DFF1FE2
:103CB000CC1DFF1FE4190100F8190100301A0100A2
:103CC000901A0100A01A0100A41A0100C41A0100F0
:103CD000041EFF1FD01DFF1F0B01E218E158926860
:103CE000064607F081FD3046B24907F0BDFD049954
:103CF0000B01E218E1589268064607F075FD304660
:103D0000AD4907F0B1FD069A1301E218E158926837
:103D1000064607F069FD3046A84907F0A5FD079B58
:103D20001B01E218E1589268064607F05DFD304637
:103D3000A34907F099FD3B01E218E1589268064655
:103D400007F052FD30469F4907F08EFD0146284698
:103D500007F0AEFD14A807F00DFC294614A807F0E3
:103D6000A7FD14A805F0D6F914A807F003FC9620C7
:103D700009F01EFF944BD9F800701E685B6805932C
:103D8000384604F069FAD8F8000004F065FA8F4B61
:103D9000186804F061FA8E4B186804F05DFA30463A
:103DA00004F05AFA059804F057FADBF8000004F022
:103DB00053FAD9F800703B689A7B1AB11B7B002B31
:103DC00000F0C981D8F8000004F03EFA002800F0A5
:103DD000CA81804E039A33681A60284607F0CAFBEE
:103DE000794B7D4A1B7A0992002B0BBF37273C2762
:103DF0004FF0430E4FF0480E0BBF322337232B22D8
:103E00003022CDF808E0049707BF4FF03E0E4A2756
:103E10004F274FF0430E7149CDF814E014A80793D3
:103E20000692039707F070FD019803681B681B0159
:103E3000E218E158926814A807F0D6FC684914A863
:103E400007F012FDDAF800301B681B01E218E15898
:103E50009268074607F0C8FC3846624907F004FD3F
:103E600033681B681B01E218E1589268074607F0A7
:103E7000BBFC38465C4907F0F7FC029B1B01E218CB
:103E8000E1589268074607F0AFFC3846574907F0FB
:103E9000EBFC03990B01E218E1589268074607F022
:103EA000A3FC3846434907F0DFFC04990B01E218F4
:103EB000E1589268074607F097FC38464C4907F0EE
:103EC000D3FC05990B01E218E1589268074607F008
:103ED0008BFC3846394907F0C7FC069A1301E218F3
:103EE000E1589268074607F07FFC3846344907F0EE
:103EF000BBFC079B1B01E218E1589268074607F0DC
:103F000073FC38463B493C4F07F0AEFC014628465F
:103F100007F0CEFC14A807F02DFB294614A807F0E3
:103F2000C7FC14A805F0F6F814A807F023FB9620A8
:103F300009F03EFE244BD9F800201B680893224B61
:103F40000B945B680A931446204604F085F9D8F870
:103F5000000004F081F91D4B186804F07DF91C4B3A
:103F6000186804F079F9089804F076F90A9804F0D2
:103F700073F9DBF8000004F06FF9D9F8004023680A
:103F8000997B09B11B7B33B1DBF8000004F05CF9CD
:103F9000002800F0D480099B029A1B681A6013461F
:103FA00001210C3B3E2BFCDC386803600029CBD0A0
:103FB00024E000BF80190100D01A0100DC1A0100C2
:103FC000E81A010098190100A41FFF1FB01DFF1F70
:103FD000B41DFF1FD41DFF1FD81DFF1F901A010025
:103FE000A01A0100F41A0100001B0100741901005D
:103FF0008C190100281B0100181EFF1F28460B9C6E
:1040000007F0B8FA774914A807F07EFC019B1B68FB
:104010001B681B01E218E158926814A807F0E4FB42
:10402000714914A807F020FCDAF800301B681B0166
:10403000E218E1589268074607F0D6FB38466B490C
:1040400007F012FC33681B681B01E218E158926804
:10405000074607F0C9FB6649384607F005FC099B8F
:104060001B681B681B01E218E1589268064607F0BE
:10407000BBFB30465F4907F0F7FB0146284607F0D7
:1040800017FC14A807F076FA294614A807F010FCCC
:1040900014A805F03FF814A807F06CFA962009F070
:1040A00087FDD9F80060304604F0D6F8D8F8000053
:1040B00004F0D2F8DBF8000004F0CEF84E4B18689C
:1040C00004F0CAF8DBF800301B689A7B1AB11B7B3E
:1040D000002B00F0AA81D9F80060304604F0B4F853
:1040E000044630B1284607F045FA204619B0BDE82D
:1040F000F08F414B1B681B689A7B12B11B7B002B16
:10410000F0D0D8F8000004F09FF80028EAD1CAE700
:10411000D8F8000004F098F800283ED0374B0193FF
:104120001B68C3F800A0D0E4D8F8000004F08CF8B5
:1041300028B3DFF8D8A0DAF800301F6054E5D8F8CB
:10414000000004F081F8002834D0099B039A1B6812
:104150001A60134624E72A4E029A33681A603CE636
:10416000284A137226E4284B186804F06DF80028DA
:1041700000F0A981224E049A33681A602DE6224B82
:10418000186804F061F8002800F05181DFF87CA085
:10419000029ADAF800301A6026E51B4B186804F022
:1041A00053F8002800F05281144B01931B68029AC7
:1041B0001A608AE4144B186804F046F8002800F0EE
:1041C0007381099B049A1B681A601346012100E061
:1041D0000C33312BFCDD3868036000293FF4B4AEAA
:1041E0000CE700BF5C1B0100841B01009C1B01004D
:1041F000B41B0100CC1B0100B81DFF1FCC1DFF1F0D
:10420000D41DFF1FA41FFF1FB01DFF1FD01DFF1FC8
:10421000954A964B029210AC954A964E964D974F02
:10422000039204949B46964914A807F06DFB3368EB
:104230001B681B01EA18E958926814A807F0D4FA21
:104240000F22904914A807F0CFFA3B681B681B01A6
:10425000EA18E958926814A807F0C6FA0F228A49AA
:1042600014A807F0C1FADBF800301B681B01EA183C
:10427000E958926814A807F0B7FA0F22834914A8E6
:1042800007F0B2FA029B1B681B681B01EA18E95889
:10429000926814A807F0A8FA0F227D4914A807F025
:1042A000A3FA039B1B681B681B01EA18E958926874
:1042B00014A807F099FA1922764914A807F094FA7D
:1042C00014A9049807F0F4FA14980CF0B3F9129CAE
:1042D00000201490159016908DF85C00002C7ED173
:1042E00014A804F017FF14980CF0A4F9962009F014
:1042F0005FFCD9F8000003F0AFFFD8F8000003F02E
:10430000ABFF654B186803F0A7FF644B186803F018
:10431000A3FF634B1C68204603F09EFF604B5A6866
:104320000192104603F098FF5E4B186803F094FF6B
:10433000D9F80030019A1B68997B11B11B7B002BC7
:1043400037D0D8F800301B68997B11B11B7B002B4C
:1043500036D0514B1B681B68997B11B11B7B002B1E
:1043600035D04E4B1B681B68997B11B11B7B002B12
:1043700053D02368997B09B11B7B93B113689A7B57
:104380000AB11B7B23B1474B186803F05DFF60B196
:10439000049C204607F0EEF80C980CF04BF9FFF760
:1043A00058B8039B18680AF0DBFD10980CF042F92E
:1043B00039E730680AF0D4FD10980CF03BF932E789
:1043C00038680AF0CDFD10980CF034F92BE7DBF8D3
:1043D00000000AF0C5FD10980CF02CF923E7109AA4
:1043E0000192611C0CF02EF9034658B116991490F5
:1043F0001594019A01B901701146184616940BF0F4
:10440000CBFF6DE70190149818B10CF013F9019BE4
:10441000149300231593169362E7029B18680AF021
:104420009FFD10980CF006F9FDE601245AE61B4B9F
:10443000186803F009FF00283FF4AFABDFF83CA099
:10444000039ADAF800301A60FFF7CEBB134B1868F6
:1044500003F0FAFE00283FF413AB064B01931B68F0
:10446000039A1A60FFF731BBD81DFF1FD41DFF1F31
:10447000181EFF1FCC1DFF1F1021FF1FD01DFF1F87
:104480005418010090180100A0180100B018010094
:10449000C0180100D0180100B01DFF1FB41DFF1F80
:1044A000A41FFF1FB81DFF1FC24B186803F0CCFEEE
:1044B000D0B1099B059A196813460A6001213E2B69
:1044C0003FF76FAD85E6DBF8000003F0BDFE002886
:1044D0007FF450AEB74B186803F0B6FE98B1B64EF5
:1044E000069A33681A6078E4089803F0ADFE68BB5A
:1044F0000A9803F0A9FE099B1B68002840F0378248
:1045000001461B68DBE7304603F09EFE20B3AA4E4F
:10451000079A33681A6060E4A849284607F0BAF998
:10452000432303933E234FF04F0A4A270293FFF79A
:1045300059BA304603F088FE002800F010820CA81B
:1045400007F018F8204619B0BDE8F08F099B069ACD
:104550001B681A60134639E6059803F075FE0028BB
:104560003FF40EAC944E089A33681A6035E45B420F
:10457000AAFB0312D20802EB8201A3EB4103303302
:104580002D218DF841308DF840101346002A00F09F
:10459000DA810DF141000021AAFB03E2D20802EB0F
:1045A000820EA3EB4E03303300F8013F0131134676
:1045B000002AF1D14A1C18A81044A64600F81F3C56
:1045C0002244204692F800C01EF801BF00F801CF37
:1045D0000133C3EB010C634502F801B9F2DBFEF7CE
:1045E000CEBF5B42AAFB0312D20802EB8201A3EB0F
:1045F000410330332D218DF841308DF840101346A2
:10460000002A00F0A4810DF141000021AAFB03E281
:10461000D20802EB820EA3EB4E03303300F8013FC9
:1046200001311346002AF1D14A1C18A81044A646AD
:1046300000F81F3C2244204692F800C01EF801BF3B
:1046400000F801CF0133C3EB010C634502F801B957
:10465000F2DBFFF711B95B42AAFB0312D20802EBAF
:104660008201A3EB410330332D218DF841308DF8C9
:1046700040101346002A00F062810DF14100002134
:10468000AAFB03E2D20802EB820EA3EB4E03303307
:1046900000F8013F01311346002AF1D14A1C18A845
:1046A0001044A64600F81F3C2244204692F800C061
:1046B0001EF801BF00F801CF0133C3EB010C6345C5
:1046C00002F801B9F2DBFFF792B85B42AAFB0312D2
:1046D000D20802EB8201A3EB410330332D218DF888
:1046E00041308DF840101346002A00F024810DF16E
:1046F00041000021AAFB03E2D20802EB820EA3EBE9
:104700004E03303300F8013F01311346002AF1D146
:104710004A1C18A81044A64600F81F3C2244204614
:1047200092F800C01EF801BF00F801CF0133C3EBBF
:10473000010C634502F801B9F2DBFEF7EEBF5B4204
:10474000AAFB0312D20802EB8201A3EB4103303330
:104750002D218DF841308DF840101346002A00F0CD
:10476000E6800DF141000021AAFB03E2D20802EB32
:10477000820EA3EB4E03303300F8013F01311346A4
:10478000002AF1D14A1C18A81044A64600F81F3C84
:104790002244204692F800C01EF801BF00F801CF65
:1047A0000133C3EB010C9C4502F801B9F2DCFEF7C2
:1047B0006FBF00BFB41DFF1FD41DFF1F30190100C4
:1047C0005B42AAFB0312D20802EB8201A3EB410376
:1047D00030332D218DF841308DF840101346002ADA
:1047E00000F0B9800DF141000021AAFB03E2D208DC
:1047F00002EB820EA3EB4E03303300F8013F013190
:104800001346002AF1D14A1C18A81044A64600F805
:104810001F3C2244204692F800C010F801BF0EF859
:1048200001CF0133C3EB010C9C4502F801B9F2DC66
:10483000FEF7E9BE306808F027FEFFF7A6B8386833
:1048400008F022FEFFF7A1B8049B186808F01CFED0
:10485000FFF79BB8109A0593591C002001920BF0AA
:10486000F1FE834668B11699059B14901593019A41
:1048700001B901701146584616930BF08DFDFFF7F4
:104880001EB8149818B10BF0D5FECDF850B01595A0
:104890001695FFF714B8029B186808F0F5FDFFF7AE
:1048A00074B8511C0020059301920BF0CBFE834697
:1048B00070B11299019A10901192059B01B9017083
:1048C0001946584612920BF067FD149BFEF7EBBF9A
:1048D000109818B10BF0AEFECDF840B0149B1195B6
:1048E0001295FEF7E0BF039B186808F0CDFDFFF7B7
:1048F0004CB88DF84120FEF7BFBF8DF84120FEF780
:1049000076BF8DF84120FEF73ABE8DF84120FEF7C4
:104910007ABE8DF84120FEF7BBBE8DF84120FEF730
:10492000FCBE154B186808F0AFFDFFF72EB88DF8E8
:104930004220FEF7ADBE8DF84220FEF7EEBE8DF8A8
:104940004220FEF754BF8DF84220FEF718BE8DF8C6
:104950004220FEF791BF8DF84220FEF754BE074B70
:10496000186803F071FC00287FF4E9AD14E5079A9C
:104970001A6013462AE400BF741EFF1FB81DFF1FF4
:104980002DE9F04FDE4DDFF8FC93DE4FDFF8F883C2
:10499000DD4C87B04946284606F0B6FF3A46414608
:1049A00028460AF06DFDD94902A806F0ADFF294658
:1049B00002A806F067FF05F1100A0146504606F00E
:1049C00077FF02A806F0D6FD3A464146504605F16B
:1049D000200A0AF055FD5046CD4906F095FF3A46AB
:1049E0004146504605F1300A0AF04AFD09F04AF9FD
:1049F0004946504606F088FF3A46414650460AF07E
:104A00003FFDC24902A806F07FFF514602A806F00A
:104A100039FF05F1400A0146504606F049FF02A859
:104A200006F0A8FD3A464146504605F1500A0AF004
:104A300027FD5046B64906F067FF3A4641465046C4
:104A400005F1600A0AF01CFD09F01CF949465046C0
:104A500006F05AFF3A46414650460AF011FDAB496E
:104A600002A806F051FF514602A806F00BFF05F11F
:104A7000700A0146504606F01BFF02A806F07AFDB8
:104A80003A464146504605F1800A0AF0F9FC504684
:104A90009F4906F039FF3A464146504605F1900AD3
:104AA0000AF0EEFC09F0EEF84946504606F02CFFFD
:104AB0003A46414650460AF0E3FC944902A806F003
:104AC00023FF514602A806F0DDFE05F1A00A0146CB
:104AD000504606F0EDFE02A806F04CFD3A4641466F
:104AE000504605F1B00A0AF0CBFC5046884906F062
:104AF0000BFF3A464146504605F1C00A0AF0C0FC99
:104B00004946504606F000FF3A46414650460AF0F4
:104B1000B7FC7E4902A806F0F7FE514602A806F04F
:104B2000B1FE05F1D00A0146504606F0C1FE02A8CA
:104B300006F020FD3A464146504605F1E00A0AF0EB
:104B40009FFC5046724906F0DFFE3A464146504609
:104B500005F1F00A0AF094FC09F094F84946504631
:104B600006F0D2FE3A46414650460AF089FC6749B3
:104B700002A806F0C9FE514602A806F083FE05F51C
:104B8000807A0146504606F093FE02A806F0F2FC39
:104B90003A464146504605F5887A0AF071FC5C4970
:104BA000504606F0B1FE3A464146504605F5907A29
:104BB0000AF066FC5046574906F0A6FE3A464146C2
:104BC000504605F5987A0AF05BFC5046524906F0CB
:104BD0009BFE3A464146504605F5A07A0AF050FC45
:104BE00050464E4906F090FE3A464146504605F57D
:104BF000A87A0AF045FC5046494906F085FE3A4637
:104C0000414650460AF03CFC05F5B070454906F0B7
:104C10007BFE05F5B870444906F076FE05F5C070D8
:104C2000424906F071FE05F5C870414906F06CFE78
:104C300005F5D0703F4906F067FE05F5D8703E498E
:104C400006F062FE05F5E0703C4906F05DFE05F5F4
:104C5000E8703B4906F058FE05F5F070394906F05A
:104C600053FE05F5F870384906F04EFE05F5007064
:104C7000364906F049FE05F50470354906F044FE54
:104C800005F50870334906F03FFE05F50C70324912
:104C900006F03AFE05F51070304906F035FE05F5D0
:104CA00014702F4906F030FE05F518702D4906F0F6
:104CB0002BFE05F51C702C4906F026FE05F520702C
:104CC0002A4906F021FE05F52470294906F01CFE4C
:104CD00005F52870274906F017FE05F52C702649C2
:104CE00006F012FE05F53070244906F00DFE05F5BC
:104CF0003470234906F008FE05F5387046E000BF21
:104D0000B01FFF1F080CFF1FA830FF1FF81C010079
:104D1000081D01001C1D01002C1D01003C1D01008F
:104D20004C1D01005C1D0100601D0100681D01009B
:104D30006C1D0100741D0100781D01007C1D010027
:104D4000841D0100881D0100901D0100941D0100BB
:104D50009C1D0100A01D0100A41D0100A81D010053
:104D6000AC1D0100B01D0100B41D0100B81D010003
:104D7000BC1D0100C01D0100C41D0100C81D0100B3
:104D8000CC1D0100F01C010075B50000D34906F0F0
:104D9000BBFD05F53C70D24906F0B6FD05F5407047
:104DA000D04906F0B1FD05F54470CF4906F0ACFDE1
:104DB00005F54870CD4906F0A7FD05F54C70CC49C6
:104DC00006F0A2FD05F55070CA4906F09DFD05F5F7
:104DD0005470C94906F098FD05F55870C74906F0AA
:104DE00093FD05F55C70C64906F08EFD05F5607013
:104DF000C44906F089FD05F56470C34906F084FDD9
:104E000005F56870C14906F07FFD05F56C70C04975
:104E100006F07AFD05F57070BE4906F075FD05F5E2
:104E20007470BD4906F070FD05F57870BB4906F059
:104E30006BFD05F57C70BA4906F066FD05F58060EE
:104E4000B84906F061FD05F58260B74906F05CFDE2
:104E500005F58460B54906F057FD05F58660B4494F
:104E600006F052FD05F58860B24906F04DFD05F5E6
:104E70008A60B14906F048FD05F58C60AF4906F03F
:104E800043FD05F58E60AE4906F03EFD05F59060E8
:104E9000AC4906F039FD05F59260AB4906F034FDEA
:104EA00005F59460A94906F02FFD05F59660A8491F
:104EB00006F02AFD05F59860A64906F025FD05F5E2
:104EC0009A60A54906F020FD05F59C60A34906F00F
:104ED0001BFD05F59E60A24906F016FD05F5A060D4
:104EE000A04906F011FD05F5A2609F4906F00CFDF2
:104EF00005F5A4609D4906F007FD05F5A6609C49EF
:104F000006F002FD05F5A8609A4906F0FDFC05F5DE
:104F1000AA60994906F0F8FC05F5AC60974906F0DF
:104F2000F3FC05F5AE60964906F0EEFC05F5B060C1
:104F3000944906F0E9FC05F5B260934906F0E4FCFB
:104F400005F5B460914906F0DFFC05F5B6609049BF
:104F500006F0DAFC05F5B8608E4906F0D5FC05F5DB
:104F6000BA608D4906F0D0FC05F5BC608B4906F0AF
:104F7000CBFC05F5BE608A4906F0C6FC05F5C060AD
:104F8000884906F0C1FC05F5C260874906F0BCFC03
:104F900005F5C460854906F0B7FC05F5C66084498F
:104FA00006F0B2FC05F5C860824906F0ADFC05F5D7
:104FB000CA60814906F0A8FC05F5CC607F4906F07F
:104FC000A3FC05F5CE607E4906F09EFC05F5D06099
:104FD0007C4906F099FC05F5D2607B4906F094FC0B
:104FE00005F5D460794906F08FFC05F5D66078495F
:104FF00006F08AFC05F5D860764906F085FC05F5D3
:10500000DA60754906F080FC05F5DC60734906F04E
:105010007BFC05F5DE60724906F076FC05F5E06084
:10502000704906F071FC05F5E2606F4906F06CFC12
:1050300005F5E4606D4906F067FC05F5E6606C492E
:1050400006F062FC05F5E8606A4906F05DFC05F5CE
:10505000EA60694906F058FC05F5EC60674906F01E
:1050600053FC05F5EE60664906F04EFC05F5F06070
:10507000644906F049FC05F5F260634906F044FC1A
:1050800005F5F460614906F03FFC05F5F6606049FE
:1050900006F03AFC05F5F8605E4906F035FC05F5CA
:1050A000FA605D4906F030FC05F5FC605B4906F0EE
:1050B0002BFC05F5FE605A4906F026FC05F500605C
:1050C000584906F021FC05F50160574906F01CFC23
:1050D00005F50260554906F017FCA9E0D01D010056
:1050E000D41D0100D81D0100DC1D0100E01D0100E0
:1050F000E41D0100E81D0100EC1D0100F01D010090
:10510000F41D0100F81D0100FC1D0100001E01003E
:10511000041E0100081E01000C1E0100101E0100EB
:10512000141E0100181E01001C1E0100201E01009B
:10513000241E0100281E01002C1E0100301E01004B
:10514000341E0100381E01003C1E0100401E0100FB
:10515000441E0100481E01004C1E0100501E0100AB
:10516000541E0100581E01005C1E0100601E01005B
:10517000641E0100681E01006C1E0100701E01000B
:10518000741E0100781E01007C1E0100801E0100BB
:10519000841E0100881E01008C1E0100901E01006B
:1051A000941E0100981E01009C1E0100A01E01001B
:1051B000A41E0100A81E0100AC1E0100B01E0100CB
:1051C000B41E0100B81E0100BC1E0100C01E01007B
:1051D000C41E0100C81E0100CC1E0100D01E01002B
:1051E000D41E0100D81E0100DC1E0100E01E0100DB
:1051F000E41E0100E81E0100EC1E0100F01E01008B
:10520000F41E0100F81E0100FC1E0100001F010039
:10521000041F0100081F01000C1F0100101F0100E6
:10522000141F0100181F01001C1F0100201F010096
:1052300005F50360D34906F067FB05F50460D24924
:1052400006F062FB05F50560D04906F05DFB05F54B
:105250000660CF4906F058FB05F50760CD4906F01A
:1052600053FB05F50860CC4906F04EFB05F50960D7
:10527000CA4906F049FB05F50A60C94906F044FB36
:1052800005F50B60C74906F03FFB05F50C60C64904
:1052900006F03AFB05F50D60C44906F035FB05F54F
:1052A0000E60C34906F030FB05F50F60C14906F0FA
:1052B0002BFB05F51060C04906F026FB05F51160D3
:1052C000BE4906F021FB05F51260BD4906F01CFB46
:1052D00005F51360BB4906F017FB05F51460BA49E4
:1052E00006F012FB05F51560B8493E4606F00CFBCA
:1052F0003A46B74905F5166700200AF0C1F8384666
:10530000B449B54F06F000FB05F51760B34906F048
:10531000FBFA05F51860B24906F0F6FA05F51960D2
:10532000B04906F0F1FA05F51A60AF4906F0ECFA5B
:1053300005F51B60AD4906F0E7FA05F51C60AC49C0
:1053400006F0E2FA05F51D60AA4906F0DDFA05F55A
:105350001E60A94906F0D8FA05F51F60A74906F0B6
:10536000D3FA05F52060A64906F0CEFA05F52160CE
:10537000A44906F0C9FA05F52260A34906F0C4FA6B
:1053800005F52360A14906F0BFFA05F52460A049A0
:1053900006F0BAFA05F525609E4906F0B5FA05F55E
:1053A00026609D4906F0B0FA05F527609B4906F096
:1053B000ABFA05F528609A4906F0A6FA05F52960CA
:1053C000984906F0A1FA05F52A60974905F52C6A77
:1053D00006F09AFA05F52B60944906F095FA5046C6
:1053E000934906F091FA05F52D60924906F08CFA82
:1053F00005F52E60904906F087FA05F52F608F4974
:1054000006F082FA05F530608D4906F07DFA05F563
:1054100031608C4906F078FA05F532608A4906F069
:1054200073FA05F53360894906F06EFA05F53460C4
:10543000874906F069FA05F53560864906F064FA91
:1054400005F53660844906F05FFA05F53760834953
:1054500006F05AFA05F53860814906F055FA05F567
:105460003960804906F050FA05F53A607E4906F049
:105470004BFA05F53B607D4906F046FA05F53C60C0
:105480007B4906F041FA05F53D607A4906F03CFAA1
:1054900005F53E60784906F037FA05F53F60774933
:1054A00006F032FA05F54060754906F02DFA05F56B
:1054B0004160744906F028FA05F54260724906F029
:1054C00023FA05F54360714906F01EFA05F54460BC
:1054D0006F4906F019FA05F545606E4906F014FAB1
:1054E00005F546606C4906F00FFA05F547606B4913
:1054F00006F00AFA05F54860694906F005FA05F56F
:105500004960684906F000FA05F54A60664906F008
:10551000FBF905F54B60654906F0F6F905F54C60B9
:10552000634906F0F1F905F54D60624906F0ECF9C2
:1055300005F54E60604906F0E7F905F54F605F49F3
:1055400006F0E2F905F550605D4906F0DDF905F574
:1055500051605C4906F0D8F905F552605A4906F0E9
:10556000D3F905F55360594906F0CEF905F55460B5
:10557000574906F0C9F905F55560564906F0C4F9D2
:10558000AAE000BF241F0100281F01002C1F0100FA
:10559000301F0100341F0100381F01003C1F0100B3
:1055A000401F0100441F0100481F01004C1F010063
:1055B000501F0100541F0100581F01005C1F010013
:1055C000601F0100641F0100681F01006C1F0100C3
:1055D00041810000701F0100081D0100781F0100BB
:1055E000841F01008C1F0100981F0100A01F0100F3
:1055F000A81F0100B41F0100BC1F0100C81F01004B
:10560000D01F0100DC1F0100E41F0100EC1F01009E
:10561000F41F0100FC1F0100042001000C20010008
:10562000142001001C200100242001002C20010076
:10563000342001003C200100442001004C200100E6
:10564000542001005C200100642001006C20010056
:10565000742001007C200100842001008C200100C6
:10566000942001009C200100A4200100AC20010036
:10567000B4200100BC200100C4200100CC200100A6
:10568000D4200100DC200100E4200100EC20010016
:10569000F4200100FC200100042101000C21010084
:1056A000142101001C210100242101002C210100F2
:1056B000342101003C210100442101004C21010062
:1056C000542101005C210100642101006C210100D2
:1056D000742101007C21010005F55660D94906F0CE
:1056E00013F905F55760D84906F00EF905F558602D
:1056F000D64906F009F905F55960D54906F004F9CF
:1057000005F55A60D34906F0FFF805F55B60D2490C
:1057100006F0FAF805F55C60D04906F0F5F805F5F5
:105720005D60CF4906F0F0F805F55E60CD4906F002
:10573000EBF805F55F60CC4906F0E6F805F560602A
:10574000CA4906F0E1F805F56160C94906F0DCF8E0
:1057500005F56260C74906F0D7F805F56360C649EC
:1057600006F0D2F805F56460C44906F0CDF805F5F9
:105770006560C34906F0C8F805F56660C14906F0E2
:10578000C3F805F56760C04906F0BEF805F5686026
:10579000BE4906F0B9F805F56960BD4906F0B4F8F0
:1057A00005F56A60BB4906F0AFF805F56B60BA49CC
:1057B00006F0AAF805F56C60B84906F0A5F805F5FD
:1057C0006D60B74906F0A0F805F56E60B54906F0C2
:1057D0009BF805F56F60B44906F096F805F5706022
:1057E000B24906F091F805F57160B14906F08CF800
:1057F00005F57260AF4906F087F805F57360AE49AC
:1058000006F082F805F57460AC4906F07DF805F500
:105810007560AB4906F078F805F57660A94906F0A1
:1058200073F805F57760A84906F06EF805F578601D
:10583000A64906F069F805F57960A54906F064F80F
:1058400005F57A60A34906F05FF805F57B60A2498B
:1058500006F05AF80AF5A060A04906F055F80AF5D6
:10586000A2609F4906F050F80AF5A4609D4906F031
:105870004BF80AF5A6609C4906F046F80AF5A860C0
:105880009A4906F041F80AF5AA60994906F03CF8F1
:105890000AF5AC60974906F037F80AF5AE6096490C
:1058A00006F032F80AF5B060944906F02DF80AF5D2
:1058B000B260934906F028F80AF5B460914906F001
:1058C00023F80AF5B660904906F01EF80AF5B860AC
:1058D0008E4906F019F80AF5BA608D4906F014F8F9
:1058E0000AF5BC608B4906F00FF80AF5BE608A49DC
:1058F00006F00AF80AF5C060884906F005F80AF5CE
:10590000C260874906F000F80AF5C460854905F0D1
:10591000FBFF0AF5C660844905F0F6FF0AF5C8608A
:10592000824905F0F1FF0AF5CA60814905F0ECFFF4
:105930000AF5CC607F4905F0E7FF0AF5CE607E49A5
:1059400005F0E2FF0AF5D0607C4905F0DDFF0AF5BD
:10595000D2607B4905F0D8FF04F1680532467949E9
:105960000020C34609F08CFDDFF8DC81494628465B
:1059700005F0CAFF32465946284609F081FD4146E6
:1059800002A805F0C1FF294602A805F07BFF04F13B
:1059900078050146284605F08BFF02A805F0EAFDD0
:1059A00032465946284604F1880509F069FD394612
:1059B000284605F0A9FF32465946284604F19805C5
:1059C00009F05EFD4946284605F09EFF32465946DD
:1059D000284609F055FD414602A805F095FF2946E5
:1059E00002A805F04FFF04F1A8050146284605F07E
:1059F0005FFF02A805F0BEFD32465946284604F175
:105A0000B80509F03DFD3946284605F07DFF3246D0
:105A10005946284604F1C80509F032FD4946284692
:105A200005F072FF32465946284609F029FD4146E5
:105A300002A805F069FF294602A805F023FF04F13A
:105A4000D80583E0842101008C210100942101000C
:105A50009C210100A4210100AC210100B42101001E
:105A6000BC210100C4210100CC210100D42101008E
:105A7000DC210100E4210100EC210100F4210100FE
:105A8000FC210100042201000C220100142201006B
:105A90001C220100242201002C22010034220100DA
:105AA0003C220100442201004C220100542201004A
:105AB0005C220100642201006C22010074220100BA
:105AC0007C220100842201008C220100942201002A
:105AD0009C220100A4220100AC220100B42201009A
