:10000000F8FF02209901000089E500008DE400005E
:100010008DE400008DE400008DE400008DE400001C
:100020008DE400008DE400008DE4000089E500000F
:1000300089E500008DE40000A5B6000095B600003B
:1000400089E5000089E5000089E5000089E50000F8
:1000500089E5000089E5000089E5000089E50000E8
:1000600089E5000089E5000089E5000089E50000D8
:1000700089E5000089E5000089E5000089E50000C8
:1000800089E5000089E5000089E5000089E50000B8
:1000900089E5000089E5000089E5000089E50000A8
:1000A000ED9D0000E19D000089E5000089E500006C
:1000B00089E5000089E5000089E50000E1730000A2
:1000C00089E500000973000089E500006D720000F9
:1000D00089E50000D171000089E5000089E5000094
:1000E00089E5000089E5000089E5000089E5000058
:1000F00089E5000089E5000089E5000089E5000048
:1001000089E5000089E5000089E5000089E5000037
:1001100089E50000B175000089E5000089E500006F
:1001200089E5000089E5000089E5000089E5000017
:1001300089E5000089E5000089E5000089E5000007
:1001400089E5000089E500003571000089E50000BF
:100150009D70000089E5000089E5000089E5000048
:1001600089E5000089E50000D59D000089E50000D3
:1001700089E5000089E5000089E5000089E50000C7
:1001800089E5000089E5000089E5000089E50000B7
:1001900089E5000089E5000008B55D4B4CF220526E
:1001A0001A804DF628121A8000BF00BF102223F8D3
:1001B0000E2CA3F51F43DE3B4FF030621A60554A08
:1001C0009A60554ADA60554B4FF470021A60544AEF
:1001D000136813F4807304D152490B604FF4A85391
:1001E0001360514B1A78100703D51A7842F00802B1
:1001F0001A704E4B4E492A221A704E4A4E4B8B4271
:1002000004D252F8040F43F8040BF8E74B4B4C4967
:1002100000228B4202D243F8042BFAE749494A4AAA
:10022000002352F8230041F823000133662BF8D154
:10023000464B474A802103F8011B9342FBD1454BB3
:10024000404A1A60444B8A221A70A3F58053242234
:100250005A70A0221A709A799107FCD59A79D20621
:10026000FCD43E4A937903F00C03082B3B4BF9D1A5
:1002700003221A7146225A719A799406FCD5374A9C
:100280009179364B4806FBD5354A4FF082711160A3
:100290000921516020221A709A7902F00C020C2A6E
:1002A000FAD1304B304A1A60304B314A1A60002480
:1002B00007225C6043F8042C2E4AC3F80C2D62B66A
:1002C0000EF066F9174B1A68D1070AD52A4A2B494E
:1002D0001C60146042F8041C10221A60284A294944
:1002E0001160294A127852060ED52549254A086818
:1002F000904209D12048214C00221A60026040F847
:10030000044C102018600A600FF0EAF900F0AEF813
:100310000E200540823F04000100002B88ED00E024
:1003200010D0034014D0034002D0074000E0074043
:10033000881DFF1F54A20100080CFF1F881DFF1F0E
:100340006C38FF1F0002FF1F0000000000E400E007
:1003500056E400E008ED00E0005006400040064092
:100360004480044004800440C010050014E000E014
:10037000BFD401000000202004D0034046A3A063A6
:100380001CE00340A5C3945A00F00740FFFFFFFFA5
:10039000FFFFFFFFFFFFFFFFFFFFFFFFFFFFFFFF6D
:1003A000FFFFFFFFFFFFFFFFFFFFFFFFFFFFFFFF5D
:1003B000FFFFFFFFFFFFFFFFFFFFFFFFFFFFFFFF4D
:1003C000FFFFFFFFFFFFFFFFFFFFFFFFFFFFFFFF3D
:1003D000FFFFFFFFFFFFFFFFFFFFFFFFFFFFFFFF2D
:1003E000FFFFFFFFFFFFFFFFFFFFFFFFFFFFFFFF1D
:1003F000FFFFFFFFFFFFFFFFFFFFFFFFFFFFFFFF0D
:10040000FFFFFFFFFFFFFFFFFFFFFFFFDEF9FFFF23
:1004100010B5054C237833B9044B13B10448AFF33E
:1004200000800123237010BD881DFF1F0000000005
:1004300050A20100084B10B51BB108490848AFF3A2
:1004400000800848036803B910BD074B002BFBD0A0
:10045000BDE81040184700BF000000008C1DFF1FC2
:1004600050A20100881DFF1F000000002DE98048F8
:10047000ABB004F0DFFD0E4B0E4D1B78DFF83CA057
:10048000DFF83CB00C4C002B40F04C82D5F83C809F
:1004900098E80C000026B242C8F8083088F80C60D2
:1004A00088F80D60C8F8046024DD08F10C070DE041
:1004B0000C0CFF1FA41DFF1F010002409432FF1F00
:1004C0004433FF1FD8F80030B3420FDD57F8040F54
:1004D00007F054FF3B681A790136002AF2D09B6876
:1004E000C8F80430D8F80030B342EFDCD8F8046024
:1004F000D8F808309E4240F30887012388F80C3072
:10050000696C2E640868437B3F2B00F2F587B84A7C
:1005100052F8333093F80032DBB2027B9A4200F09B
:10052000B685B44A076812681192119AB14ED21B6F
:100530004768BA42C0F0AB8532681092109E0373D0
:10054000002201230660826083730B689A7B2AB1C4
:100550001B7B1BB94B7983F001034B71AE6CA64A30
:1005600006F5FC6393ED007AF2EE047AB4EEE77AD6
:10057000F1EE10FA01F14080002386F8F23786F898
:10058000F03786F8F137286D07F0F8FE686D07F050
:10059000F5FEAE6D304607F0F1FEEB6D08931846A0
:1005A00007F0ECFE2B690993184607F0E7FED5F833
:1005B0001880404607F0E2FEEF69384607F0DEFE9D
:1005C000D5F82090484607F0D9FE404607F0CEFE09
:1005D00020B1D8F80830012B00F08D85384607F09F
:1005E000C5FE18B1BB68012B00F08585484607F0B1
:1005F000BDFE002840F07A85089B1B79002B41F056
:100600007A80304607F0B2FE002800F0B2856A6BAF
:10061000D5F8D030784902F1020E9E45C5F834E095
:1006200002DD00234B639E46AB6C734E93F8F237AA
:10063000002B01F06C83286B07F038FEE86A07F0A6
:1006400035FE686A07F032FEA86A07F02FFED5F87B
:10065000CC0007F02BFEAB6B296C686A19441022A2
:1006600007F044FEAB6B296CA86A1022194407F00E
:100670003DFEA96BD5F8CC000BF0E8FC6B6BA96BC9
:10068000286B19440BF0E2FC6B6BA96BE86A194408
:100690000BF0DCFC6A6AAB6B1268286C6969134466
:1006A00018440CF09FFA286D534E07F05FFE0028A7
:1006B00000F07285AB6BAA6E4F4E934241DAB26C7A
:1006C00092F8F22703F1010EC6F838E0002A01F093
:1006D000A983286B07F0EAFDE86A07F0E7FD686A7E
:1006E00007F0E4FDA86A07F0E1FDD5F8CC0007F0BB
:1006F000DDFDAB6B296C686A1944102207F0F6FD2A
:10070000AB6B296CA86A1022194407F0EFFDA96BA6
:10071000D5F8CC000BF09AFC6B6BA96B286B1944D5
:100720000BF094FC6B6BA96BE86A19440BF08EFC20
:100730006A6AAB6B1268286C6969134418440CF040
:1007400051FA686D2C4E07F011FE002801F0608010
:10075000AA6BAB6E284E1344002B41DDB36C93F8AB
:10076000F23702F1FF3EC6F838E0002B01F0858336
:10077000286B07F09BFDE86A07F098FD686A07F0B0
:1007800095FDA86A07F092FDD5F8CC0007F08EFD24
:10079000AB6B296C686A1944102207F0A7FDAB6B9C
:1007A000296CA86A1022194407F0A0FDA96BD5F89E
:1007B000CC000BF04BFC6B6BA96B286B19440BF056
:1007C00045FC6B6BA96BE86A19440BF03FFC6A6A45
:1007D000AB6B1268286C6969134418440CF002FA78
:1007E000AE69304607F0C2FD002840F0E78405E01E
:1007F0002C9F01005434FF1FA41DFF1FEE693046DB
:1008000007F0B4FD002840F0E3842E6A304607F07C
:10081000ADFD002840F0E684686CA44E4379002BBF
:1008200000F0E98407F0A2FDB36C002841F0AC822F
:10083000EA6B117B002901F0BB83686A07F036FD83
:10084000A86A07F033FDD5F8CC0007F02FFDAB6B9D
:10085000296C686A1944102207F048FDAB6B296CBB
:10086000A86A1944102207F041FDA96BD5F8CC0005
:100870000BF0ECFB6A6AAB6B1268286C6969134475
:1008800018440CF0AFF9AB6C93F8F827002A40F04D
:10089000E68493F8F937002B40F0ED84844B5B78C5
:1008A000002B00F0F084834E9BF85870102F40F21C
:1008B000ED81D5F8BC00DFF810824FF00009002868
:1008C00000F0C382068843889A0800EB8202043352
:1008D000B342976880F07882438007F00F06A6F154
:1008E0000803062B00F2B181082EC7F3033700F08E
:1008F000CE82092E00F0CF820A2E40F0D0820A2F3D
:10090000DDD0D5F8C4306C49684A01338B4200F31E
:10091000FB85C2F8C4300EF003FE654B1B78002B3C
:100920003FF4B4AD654915A80BF09AF815A921A8B4
:100930000BF06AF821A80BF007FF219810F084FD56
:1009400096200DF0B5FF2E68304607F017FD6F6852
:10095000384607F013FDD5F80880404607F00EFD35
:10096000D5F80C90484607F009FD33689A7B1AB118
:100970001B7B002B00F022813B689A7B1AB11B7B0A
:10098000002B00F09B82D8F800309A7B1AB11B7BB9
:10099000002B00F0B485D9F800309A7B0AB11B7B9C
:1009A0001BB1159810F050FDBCE7454919A80BF094
:1009B00057F819A921A80BF027F821A80BF0C4FEBD
:1009C000219810F041FD96200DF072FF2F683846F7
:1009D00007F0D4FC6E68304607F0D0FCD5F80890DC
:1009E000484607F0CBFCD5F81080404607F0C6FC1F
:1009F0003B689A7B1AB11B7B002B00F02B87336876
:100A00009A7B0AB11B7B9BB1D9F800309A7B12B15B
:100A10001B7B002B5AD0404607F0A8FC06461998CD
:100A200010F012FD002EC0D0BBE71D9810F00CFD99
:100A300024491DA80BF014F81DA921A80AF0E4FF11
:100A400021A80BF081FE219810F0FEFC96200DF0FD
:100A50002FFF2E68304607F091FC6F68384607F08C
:100A60008DFCD5F81080404607F088FC33689A7BEF
:100A700012B11B7B002B60D03B689A7B1AB11B7BA9
:100A8000002B00F01F82D8F800309A7B002ACCD0CF
:100A90001E7B1D9810F0D8FC002EC9D1199810F0BB
:100AA000D3FC159810F0D0FC3CE700BFA41DFF1F3D
:100AB0000C0CFF1F4433FF1FA0860100FC1801002F
:100AC000B0190100801A0100E837FF1FB0491DA8C6
:100AD0000AF0C6FF1DA921A80AF096FF21A80BF075
:100AE00033FE219810F0B0FC96200DF0E1FE2E6848
:100AF000304607F043FC6F68384607F03FFCD5F8F6
:100B00001080404607F03AFC33689A7B1AB11B7B91
:100B1000002B00F0F8813B689A7B1AB11B7B002BFD
:100B200000F03185D8F800309A7B12B11B7B002B86
:100B30003DD01D9810F088FCC8E722789549D2076F
:100B40004B6140F16186944B1B785BB1934A1378FB
:100B500013F0700318BF13708F4B00221A702378A4
:100B6000DE07FCD54FF4806200218D480EF0E0FDD9
:100B70008C490220012200238AF816008AF8170007
:100B800021A8AAF81420AAF81220AAF80E30AAF870
:100B900010300AF065FF21A80AF01EF909F0CEFE18
:100BA00040F2EE200DF084FE219810F04DFC1D98CF
:100BB00010F04AFC199810F047FCF2E603F08CFEA6
:100BC0000646159810F040FC002E3FF4ABAE6420B2
:100BD0000DF046FF686167200DF042FFAB69EE69DA
:100BE000986068200DF03CFFB06069200DF038FF80
:100BF0002B6A98600AF0E8F86B480AF0E9F909F006
:100C00009DFE40F2EE200DF053FE2B6BD5F824E054
:100C1000AE6AEF6A93F810C031681B683A68DEF874
:100C20000000CDF818C03F7C0597367C04969EF8EE
:100C300010606F6B039601970026AF6B02960097CA
:100C40000CF04AFB594B1E7020E4B31E012BC7F376
:100C5000072240F2D080052E00F0C980042E00F05B
:100C60003E85731F022B40F2E6850F2E7FF449AEBE
:100C7000F72A00F2C080F02A04D0B5F8C030002B6B
:100C80003FF43FAE10460BF04FF83AE6736D484A1A
:100C9000186803681B69934240F0D280454B464A6E
:100CA0001B781078DBB2C0B2834202D2434A12688A
:100CB0001344181A00283FF4FCAD9BF80D31DBF803
:100CC000542023F001038BF80D3110683C4A03686F
:100CD0005B69934240F00E84364B374A1B7812789A
:100CE000DBB2D2B2934201F025813449D1F800C081
:100CF00002F1010EE64580F0C281BEF13F0F41F2E4
:100D00009781D5F8B4103F3A885C5FFA8EF1C0B293
:100D1000294AD5F8B8801170B8F1000F0FD09E4560
:100D200084BF03EB0C02CEEB0203204A526898BF4B
:100D3000CEEB0303934202D8002388F80030C1B2FF
:100D4000FD293FF4B6ADDBF86430DFF878E0002B26
:100D500040F0F8809BF859208BF85B10130600F1E7
:100D60002D864BB2002BC0F2B5879BF90D01DBF845
:100D7000043040F001008BF80D0103B198470023C7
:100D8000CBF86430CBF860308BF8593091E500BF78
:100D90006C1B0100A41DFF1F640000140000024032
:100DA0002811FF1F341B0100D01401000C0CFF1F81
:100DB000D94F00002838FF1F2938FF1F4015FF1F9B
:100DC000594F00004433FF1F0BF010F872B6BC4BB4
:100DD000186940B1BB4B02881B894168C8F81010E4
:100DE0009B1AB84A138162B6C5F8BC0075E5F02AB3
:100DF0005CD9F72A5AD0F13A0E2A3FF682AD01A308
:100E000053F822F0BF080000BF080000BF08000030
:100E10000309000003090000BF08000003090000E7
:100E2000BF08000003090000BF080000BF08000061
:100E3000BF08000003090000BF080000BF08000051
:100E4000984700283FF435AD37E79F4B1B78002BC0
:100E50003FF457AD72B69A4B186940B1994B02886E
:100E60001B894168C8F810109B1A964A138162B614
:100E7000964FC5F8BC0000283FF443AD0688002E0D
:100E80007FF421AD0AF0B2FFC7F8BC6039E5082F46
:100E90007FF437AD13E5092F7FF433AD0FE50B2E4B
:100EA00041F0CA800B2F7FF42CAD08E510460AF004
:100EB0003BFFA5F8C090D5F8BC0000E50DF05AF84E
:100EC00006467EE623780122DB076A6140F16587EA
:100ED0007F4B1B78012B0BD07E4A137813F07003E5
:100EE00018BF13707A4B01221A702378D807FCD5EB
:100EF0004FF48062002178480EF01AFC0220012293
:100F00000023764938E622787049D70781F8C8303F
:100F100040F13687724B1B78002B3FF448AE6D4A88
:100F2000137813F0700318BF13706D4B00221A7002
:100F30002378D907FCD51D9810F086FA199810F07F
:100F400083FA2EE5020600F109859BF85B20F02A62
:100F500000F04D83F72A00F04A83F21882F85B1004
:100F6000DBF860005F49421E9A4200F22C8396F83B
:100F70005B10F02900F03687F72900F033870B0665
:100F800000F1AD8600228BF87520B02A00F0BA86F9
:100F9000A02A00F0B786D02A00F0B486E02A00F03C
:100FA000B186C02A00F0AE86002303289BF85CE0DF
:100FB00008BF96F85D008BF876E018BF00204FF070
:100FC000000E4FF0010CB02A8BF874308BF87700CC
:100FD000CBF864E0CBF860E08BF8F8C000F0E8866E
:100FE00000F2DF86902A00F0E386A02A00F0E08677
:100FF000802A00F0DD8600229BF875108BF85920BE
:1010000090292CD0A1F18000C0B260282BD90AF021
:1010100073F89BF8703013F001083FF445AC9BF86F
:10102000702012F0FE0F15D096F8750080F0800346
:10103000602B00F2748196F874309F4200F0C782F2
:10104000002F00F0C4825208012A00F0B786032A5C
:1010500000F0C682B8F1000F7FF426AC29E410B985
:1010600080228BF875209F42D1D0002FCFD09BF8E3
:101070007030DB077FF51DAC4FF00008CFE7002193
:101080008E4605EB0E0292F87400C0B240E683680B
:10109000002B00F04081144A076812680F920F9AE3
:1010A000114ED21B934200F2368133681293129B89
:1010B00003600022012382608373FFF746BA00BFFA
:1010C000E837FF1FFC37FF1FE437FF1FA41DFF1F7A
:1010D00064000014000002402811FF1F501B010093
:1010E000650000144433FF1F5434FF1FD9F8083043
:1010F000012B7FF481AA686A07F0D8F8A86A07F084
:10110000D5F8D5F8CC0007F0D1F8286B07F0CEF869
:10111000E86A07F0CBF8286F07F0C8F86B6C4FF05F
:10112000000883F8058002F07DFA2B6B6F6AD5F812
:1011300028E0EE6A93F810C0386832681B68DEF861
:101140000010CDF818C0367C05969EF81060049605
:101150003E7C03966F6BAE6B0096CDF808800197CE
:101160000CF0BAF8AE6D304607F000F900287FF4B5
:101170004EAA2A69B84B1279002A3FF494AA186E35
:1011800007F0F4F800287FF442AA286DB24E07F069
:10119000EDF800287FF48EAA33681B79002B40F00D
:1011A0009786706D07F0E2F800287FF4D1AAAE6947
:1011B000304607F0DBF800283FF420AB304607F05C
:1011C00059F9EE69304607F0D1F800283FF41DAB1D
:1011D000304607F04FF92E6A304607F0C7F800286E
:1011E0003FF41AAB304607F045F9686C9A4E4379E4
:1011F000002B7FF417ABB36C93F8F277002F00F05D
:10120000878293F8F027002A3FF412ABB36B316C5E
:10121000706A1944102207F069F8B36B316CB06A38
:101220001022194407F062F8736BB16B306B1944EC
:101230000AF00CFF736BB16BF06A19440AF006FFF9
:10124000726AB36B1268306C7169134418440BF006
:10125000C9FCB36C93F8F827002A3FF41AAB6B6B08
:10126000A96B286F19440AF0F1FEAB6C93F8F937BB
:10127000002B3FF413AB286F07F018F8774B5B781F
:10128000002B7FF410AB6B6CDFF8CCE15B79002BAB
:101290007FF409ABDEF8483093F8F237002B7FF487
:1012A00002AB6F4BDEF8D4201B680C930C9B9B1A8F
:1012B000C82B7FF6F8AADEF83030DEF82470DEF8AE
:1012C00028C0DEF82C6093F810803868DCF8001035
:1012D00032681B68CDF81880367C05969CF8106043
:1012E0000496DEF8346097F810C0DEF8407001967E
:1012F000DEF838600297594F00960126CDF80CC0F1
:101300007E700BF0E9FFFFF7CEBABCBF012388F86F
:101310000D30FFF7F5B800238373FFF716B9A0F17E
:10132000F0030F2B3FF696AE01A252F823F000BF58
:101330003D1400009F140000F1130000A7130000EB
:1013400055100000551000007113000055100000EA
:10135000711300005510000071130000711300009C
:10136000711300005510000071130000711300008C
:1013700000F10803DBB2072B3FF66CAE012202FA44
:1013800003F313F0DD0F3FF465AEDBF8543035495D
:101390001A6813681B688B4240F03286324B1B6818
:1013A0005F0522D456E6DBF854302E4A18689BF8C5
:1013B000767003681B68934240F0C4852A4A12681D
:1013C000520506D5F32006F077FD736D18680368A3
:1013D0001B68244A934207F07F0140F08E85224B20
:1013E0001B6858057FF536AE084606F065FD31E608
:1013F000DBF854301B4A18689BF8767003689BF83A
:1014000077901B68934240F00086174A1268510596
:1014100006D5F22006F050FD736D186803681B684E
:1014200047EAC91707F07F019847DBF8543018687E
:101430000368C7F3C6111B6898470BE6BBF8763004
:10144000802B28BF8023002B3FF404AE7733DFF8D6
:101450001C909F1915E000BFA41DFF1F0C0CFF1F5F
:101460005434FF1F1950000034800440BB33FF1F69
:10147000BF4B1B68590501D506F01EFDB9453FF469
:10148000E9ADDBF85430BB481A6819F8011F13683E
:101490001B6883420846EBD010469847EEE7DBF81E
:1014A00054309BF8762018689BF877700368120117
:1014B00002F0700207F00F071B681743AD4A934212
:1014C00040F06E85AA4A1268520506D5F12006F052
:1014D000F3FC736D186803681B68A64A934240F0DA
:1014E0000B85A34B1B6859057FF5B4AD384606F054
:1014F000E3FCAFE5984722E40023FFF70EB800F0C5
:10150000AFFD0646FFF75DBB002316219A48C2F8DF
:10151000C4300AF0D9FA994B994A1B680B930B9B7C
:1015200012689A1A00F08181964EA6FB0213DB081E
:1015300003EB8301A2EB410230328DF8A520002B92
:1015400000F03C852121A6FB0302D20802EB8200B9
:101550000139A3EB4003C9B22AA80844303300F88C
:10156000243C1346002AEED10846C1F1220121ABEA
:1015700018440AF0A9FA814B814A1B680A930A9B16
:101580001360FFF7C8B923780122DE0785F8C82069
:1015900040F1B6847C4B1B78012B3FF408AB7B4AAF
:1015A000137813F0700318BF1370774B01221A7071
:1015B0002378DA07FCD51D980FF046FF19980FF035
:1015C00043FFFFF7EEB901334B66FFF772B99BF8A3
:1015D00070205208012A00F0F183022A7FF43AAD0C
:1015E00096F8772096F876100AF05AFC32E50BEB65
:1015F000030282F87810B3E4604BD6F8F4171B6846
:101600001393139B0F695D48D26CDB1BB3F57A7F94
:1016100040F2C183D2F8803000681B6B149014989C
:101620001B6908611BB28B60D6F8E47707EE903A2D
:1016300007EE107AF8EEE77AB8EEC77AB4EEE77AFA
:10164000F1EE10FA40F39084FA23C6F8FC3796F8CE
:10165000FA37002B40F07E84012386F8F837012307
:1016600086F8FA37D36FD6F8E827186B4FF42F7344
:101670000169013B02FA81F2FAD106F5FB6EDEED5B
:10168000007A4348C6F8E83780FB0210FDEEE77A9F
:10169000D117C1EB20223A4417EE901A02EBD27216
:1016A000C1EB6202052AC6F8E427D6F8EC2740F31E
:1016B0003A8141F6B05302F6C4129A4240F33681A1
:1016C000C6F8EC3796F8F237002B40F082830123FE
:1016D00086F8F037012386F8F237FEF754BF10463C
:1016E0000AF022FBC7F307400AF01EFB380E0AF08F
:1016F0001BFBFFF706B9099B1B79002B7FF4FBACA2
:10170000304606F033FE00287EF481AFFEF7CBBFF3
:101710000268917B11B1127B002A3FD193F8F13717
:10172000002B3FF4BBA8686A06F0C0FDA86A06F06B
:10173000BDFDD5F8CC0006F0B9FD286B06F0B6FD6E
:10174000E86A06F0B3FD286F06F0B0FD0B4B114AB6
:101750001B680D930D9BC5F8D430002353706B6C40
:10176000DFF834E05B79002B7FF49DA892E500BFA1
:101770003480044019500000081C01005434FF1F3D
:101780005834FF1FCDCCCCCC6500001400000240C3
:1017900091739F5D0C0CFF1FA41DFF1F706A06F064
:1017A00085FDB06A06F082FDD6F8CC0006F07EFD1D
:1017B000306B06F07BFDF06A06F078FD306F06F0C6
:1017C00075FD706A06F05CFDB06A06F059FDD6F84A
:1017D000CC0006F055FD306B06F052FDF06A06F0C5
:1017E0004FFD306F06F04CFD6C4B6D4A1B680E933D
:1017F0000E9BC6F8D4306B6C57705B79DFF8B8E19C
:10180000002B7FF450A845E50DF0BCF8FFF79BB91D
:1018100033681B79002B3EF4E3AFE86E06F0A6FDBB
:1018200000287EF495AFFEF7DBBF30238DF8A5309E
:10183000012121209BE610460AF076FAC7F3074003
:101840000AF072FA072E7FF434AB380E0AF06CFA05
:10185000FFF72FBB534F4FF0A0562378D9075FD522
:1018600033784BB13B7813F0700318BF3B70002303
:1018700033702378DA07FCD54B4B01369E42ECD10E
:10188000012166200DF0C4F8012167200DF0C0F899
:10189000022168200DF0BCF8032169200DF0B8F892
:1018A0002378DB0740F19282404B1B785BB13D4AC5
:1018B000137813F0700318BF13703C4B00221A709A
:1018C0002378DF07FCD54FF48062002138480DF003
:1018D0002FFF02200122002336498AF816008AF8D9
:1018E000170021A8AAF81420AAF81220AAF80E308E
:1018F000AAF810300AF0B4F821A809F06DFA09F03E
:101900001DF840F2EE200CF0D3FF21980FF09CFD63
:1019100019980FF099FD15980FF096FDFFF702B892
:101920000DF030F89CE7C83A00F11B8241F2893390
:101930009A42C6F8EC273FF7C5AEB2F57A7FBEF6FD
:1019400022AE96F8F237002B00F01282012386F8BF
:10195000F137002386F8F237FEF715BEA1F1F0004B
:101960000F283FF6F2AA0122824012F0810F00F008
:10197000CE8296F87820F02A00F02483F72A00F02F
:1019800021839EF90D01DEF8043040F001008EF84D
:101990000D01002B7FF4F2A9FFF7F1B95434FF1FBA
:1019A0000C0CFF1F00000240001000146500001422
:1019B0002811FF1F641A0100A41DFF1F02F10C0E65
:1019C0005FFA8EF3012B7FF6CCA9FD2A3FF4C9A95B
:1019D000EF2A00F2698102F0F003802B40F065816C
:1019E00000063FF5BEA901238BF85B208BF85C1045
:1019F000CBF864305FFA8EFEBEF1010F7FF6B5A919
:101A0000FD2A3FF4B2A9EF2A94BF02F0F00111467B
:101A1000A1F180007F283FF6A8A90FF2080E5EF81A
:101A200020F000BFA11C00006B0D00006B0D00003A
:101A30006B0D00006B0D00006B0D00006B0D0000C6
:101A40006B0D00006B0D00006B0D00006B0D0000B6
:101A50006B0D00006B0D00006B0D00006B0D0000A6
:101A60006B0D0000A11C00006B0D00006B0D000051
:101A70006B0D00006B0D00006B0D00006B0D000086
:101A80006B0D00006B0D00006B0D00006B0D000076
:101A90006B0D00006B0D00006B0D00006B0D000066
:101AA0006B0D0000A11C00006B0D00006B0D000011
:101AB0006B0D00006B0D00006B0D00006B0D000046
:101AC0006B0D00006B0D00006B0D00006B0D000036
:101AD0006B0D00006B0D00006B0D00006B0D000026
:101AE0006B0D0000A11C00006B0D00006B0D0000D1
:101AF0006B0D00006B0D00006B0D00006B0D000006
:101B00006B0D00006B0D00006B0D00006B0D0000F5
:101B10006B0D00006B0D00006B0D00006B0D0000E5
:101B20006B0D0000631C00006B0D00006B0D0000CE
:101B30006B0D00006B0D00006B0D00006B0D0000C5
:101B40006B0D00006B0D00006B0D00006B0D0000B5
:101B50006B0D00006B0D00006B0D00006B0D0000A5
:101B60006B0D0000631C00006B0D00006B0D00008E
:101B70006B0D00006B0D00006B0D00006B0D000085
:101B80006B0D00006B0D00006B0D00006B0D000075
:101B90006B0D00006B0D00006B0D00006B0D000065
:101BA0006B0D0000A11C00006B0D00006B0D000010
:101BB0006B0D00006B0D00006B0D00006B0D000045
:101BC0006B0D00006B0D00006B0D00006B0D000035
:101BD0006B0D00006B0D00006B0D00006B0D000025
:101BE0006B0D0000491C0000631C0000A11C0000DC
:101BF000631C00006B0D00006B0D0000251C000035
:101C0000491C0000251C0000251C0000251C0000AC
:101C1000251C0000251C00006B0D0000251C000089
:101C2000251C0000002301228BF875108BF87430FE
:101C30008BF876308BF87730CBF86430CBF86030A7
:101C40008BF8F820FFF7E0B9802000228BF878109D
:101C5000CBF860008BF859200133CBF86430FEF7E5
:101C600028BE0220CBF86000002BF5D002F00F0355
:101C700096F85C0086F8760000220120013386F891
:101C8000743086F8751086F8772072663266C6F86A
:101C9000FC0086F8F80090297FF4B4A9FFF7E0B9BA
:101CA0000322CBF86020D7E7134603F0DF0CBCF12A
:101CB000900F3FF495AE03F0BF0CBCF1A00F3FF4C2
:101CC0008FAE03F0EF03C02B3FF48AAE4BB2002B74
:101CD000BFF64BA80A4601F10C0E00238AE601F17B
:101CE0000C03DBB2012B7FF64DA9FD293FF44AA975
:101CF000EF2900F29A8101F0F002802A86F875201F
:101D000040F08B8101F00F030133FFF74EB9736C84
:101D10005B79002B7EF48FAC336B776AD6F828C0E2
:101D2000D6F82C8093F810903868DCF80010D8F8BA
:101D300000201B68CDF8189098F81080CDF814801A
:101D40009CF810C0CDF810C097F810C0376C0297FF
:101D5000B66BCDF80CC08DE840400BF0BDFAFEF735
:101D6000A2BCC6F8EC3796F8F237002B7FF4EEAD44
:101D700096F8F127002A3FF4ECAD86F8F137E8E554
:101D80000CF000FEFFF7C6B893F8F227002A3FF4E4
:101D90003DAAFEF74DBD8B6846E40CF0F3FDFFF75E
:101DA00097B8D02A04D0E02A02D0C02A7FF423A911
:101DB0008BF859109BF87510FFF722B99BF8772024
:101DC0009BF876100AF06CF8FFF744B90CF0DAFDD6
:101DD0006AE596F8F037002B3FF47CAC002386F8D8
:101DE000F03777E4F02380229BF8F7608BF87530AA
:101DF0008BF876208BF8F730CBF8FC2000230122FB
:101E00008BF877308BF874308BF8F82009F074F980
:101E1000F72202238BF879608BF87820CBF86430B6
:101E2000FEF747BD736C5B79002B7EF452AC336BCD
:101E3000776AD6F828C0D6F82C8093F810903868C6
:101E4000DCF80010D8F800201B68CDF8189098F83E
:101E50001080CDF814809CF810C0CDF810C097F811
:101E600010C0376C0297766B0196CDF80CC0CDF898
:101E700000E00BF031FAFEF764BC736C5B79002B69
:101E80007EF476AC336B776AD6F828C0D6F82C800F
:101E900093F810903868DCF80010D8F800201B6820
:101EA000CDF8189098F81080CDF814809CF810C0E8
:101EB000CDF810C097F810C0376C0297766B01967A
:101EC000CDF80CC0CDF800E00BF006FAFEF788BCA8
:101ED000706E06F04BFA00287EF4ECAB706D06F0E5
:101EE00045FA00287EF434ACE86E06F03FFA00288C
:101EF0007EF42EACFEF774BC39469847FFF7AAB8BB
:101F00000CF040FDFFF746BBFF214FF4004212F4F6
:101F10005F4F3FF41AA8002301228BF875108BF84D
:101F200076308BF877308BF87430CBF8FC208BF858
:101F3000F820B0E6736E002BE6D14FF0FF30FF21A2
:101F4000FEF708BFF3219847736D186803681B6894
:101F5000FFF73FBA96F8F837002B3FF480AB002329
:101F600086F8F837FFF77BBBD6F8FC37002B05DD8A
:101F7000013BC6F8FC37002B7FF469AB96F8FA37C3
:101F80003BB1012386F8F937002386F8FA37FFF7CB
:101F900069BB96F8F9170029F6D086F8F937F3E708
:101FA000F1219847736D186803681B68FFF795BAAD
:101FB000527B002A7EF441ACFEF766BC0121212051
:101FC000FFF7D5BA5A1C0BEB030E130AF0208BF85F
:101FD0007620CBF8FC208BF87730012200238BF899
:101FE00075008EF878108BF87430CBF86430CBF82D
:101FF00060308BF859308BF8F8207020FFF704B868
:10200000014610469847FFF725B8F2219847736DAF
:10201000186803681B68FFF703BA902A7EF4B5AF0F
:1020200001F00F030133FEF7C0BF0A46FEF7ABBF56
:102030005FFA8EF1FFF725B80C2E04D10C2F7EF439
:1020400060ACFEF73CBC0D2E04D10D2F7EF459ACD4
:10205000FEF735BC0E2F7EF454ACFEF730BC00BF4B
:102060002DE9F04FDFF88093DFF880A3DFF880835D
:1020700099B0CE49CE4D0CA809F0F2FC0CA914A8D9
:1020800009F0C2FC14A80AF05FFB14980FF0DCF909
:1020900096200CF00DFCD9F8000006F06FF9DAF884
:1020A000000006F06BF9C34B186806F067F9C24BE5
:1020B000186806F063F92C68204606F05FF9BF4BFC
:1020C000186806F05BF9D9F800301B689A7B1AB1E2
:1020D0001B7B002B00F07C82DAF800301B689A7BB7
:1020E0001AB11B7B002B00F01D83B24B186806F061
:1020F0003DF90546002840F0F986AF4B186806F018
:1021000035F90646002801F06780AD4B0493AD4BCE
:102110000293AD4EAD4BAE4F039310AC2322AD49AD
:10212000149514A815958DF85C50169509F010FCBF
:1021300033689B68002BC1F26F80A8FB0312D208A2
:1021400002EB8201A3EB410330338DF8403013469C
:10215000002A01F034822046A6460021A8FB03C2D3
:10216000D20802EB820CA3EB4C0330330EF8013F94
:1021700001311346002AF1D10DF1600E8E4463182F
:102180000EF81F2C93F800E090F800C000F801EB67
:102190000132C2EB010E724503F801C9F2DB2046A1
:1021A0000EF08EFA2146024614A809F0D1FB0F2248
:1021B000894914A809F0CCFB3B689B68002BC1F24D
:1021C0006580A8FB0312D20802EB8201A3EB410356
:1021D00030338DF840301346002A01F0E08120466C
:1021E000A6460021A8FB03C2D20802EB820CA3EB97
:1021F0004C0330330EF8013F01311346002AF1D170
:102200000DF1600E8E4463180EF81F2C93F800E059
:1022100090F800C000F801EB0132C2EB010E9645C8
:1022200003F801C9F2DC20460EF04AFA21460246C4
:1022300014A809F08DFB0F22684914A809F088FB47
:10224000049B1B689B68002BC1F20881A8FB03124A
:10225000D20802EB8201A3EB410330338DF840300A
:102260001346002A01F09F812046A6460021A8FBC4
:1022700003C2D20802EB820CA3EB4C0330330EF8FE
:10228000013F01311346002AF1D10DF1600E8E4459
:1022900063180EF81F2C93F800E090F800C000F8C7
:1022A00001EB0132C2EB010E724503F801C9F2DB0A
:1022B00020460EF005FA2146024614A809F048FB14
:1022C0000F22474914A809F043FB029B1B689B6837
:1022D000002BC1F28980A8FB0312D20802EB820115
:1022E000A3EB410330338DF840301346002A01F050
:1022F0005E812046A6460021A8FB03C2D20802EB5D
:10230000820CA3EB4C0330330EF8013F013113462E
:10231000002AF1D10DF1600E8E4463180EF81F2CC7
:1023200093F800E090F800C000F801EB0132C2EB36
:10233000010E724503F801C9F2DB20460EF0C0F928
:102340002146024614A809F003FB0F22254914A8D0
:1023500009F0FEFA039B1B689B68002BC1F20A8000
:10236000A8FB0312D20802EB8201A3EB4103303336
:102370008DF840301346002A01F01D812046A64604
:102380000021A8FB03C2D20802EB820CA3EB4C0392
:1023900030330EF8013F01311346002AF1D10DF11F
:1023A000600E8E4463180EF81F2C23E0201C0100E1
:1023B000A01FFF1FAC1DFF1FB01DFF1FB41DFF1F7F
:1023C000D01DFF1FD41DFF1FC81DFF1F141EFF1FA0
:1023D000CC1DFF1F6C1D0100101D0100201D010000
:1023E000301D0100401D0100A41DFF1FA81DFF1F7F
:1023F000CDCCCCCC93F800E090F800C000F801EB15
:102400000132C2EB010E724503F801C9F2DB20462E
:102410000EF056F92146024614A809F099FA0F2247
:10242000644914A809F094FA634B1B689B68002B5D
:10243000C0F26687A8FB0312D20802EB8201A3EB6D
:10244000410330338DF840301346002A01F0A38059
:102450002046A6460021A8FB03C2D20802EB820C4C
:10246000A3EB4C0330330EF8013F01311346002A31
:10247000F1D10DF1600E8E4463180EF81F2C93F805
:1024800000E090F800C000F801EB0132C2EB010E51
:10249000724503F801C9F2DB20460EF011F921461E
:1024A000024614A809F054FA1322444914A809F06A
:1024B0004FFA169A1095119512958DF84C50149B61
:1024C000002A41F0408018460EF0BEFF129B149582
:1024D000159516958DF85C50002B41F00D8014A8D1
:1024E0000AF032F914980EF0AFFF96200CF0E0F9E4
:1024F000D9F8000005F042FFDAF8000005F03EFFD1
:102500002F4B186805F03AFF2E4B186805F036FF80
:102510002D4BD3F800B0584605F030FF2A4B5A68CF
:102520000192104605F02AFF284B186805F026FF97
:10253000D9F80030019A1B68997B19B11B7B002BDD
:1025400000F0C687DAF800301B68997B19B11B7B55
:10255000002B00F0C2871A4B1B681B68997B19B1CE
:102560001B7B002B00F0BE87164B1B681B68997BFA
:1025700019B11B7B002B00F0E087DBF80030997B62
:1025800019B11B7B002B01F0008013689A7B1AB1F4
:102590001B7B002B01F017800C4B1B681B689A7B80
:1025A0001AB11B7B002B00F0A88510980EF04CFF91
:1025B000B4E500BF901D0100701EFF1F90200100B8
:1025C000AC1DFF1FB01DFF1FA01FFF1FB41DFF1F6D
:1025D00001232B720C9810AD0EF036FF284653499C
:1025E00009F03EFA524B1B7A002B00F0E885514966
:1025F000284609F0FBF94823029343234FF054087F
:102600004F2701934C4C4D494D4E14A809F028FA20
:102610003B01E218E158926814A809F099F9494978
:1026200014A809F0D5F94FEA0813E218E1589268A6
:10263000834609F08DF95846434909F0C9F9019BD1
:102640001B01E218E1589268834609F081F9584667
:102650003E4909F0BDF9029B1B01E218E15892685E
:10266000834609F075F95846394909F0B1F903462E
:10267000284619689A6809F06BF914A809F02EF831
:10268000294614A809F0C0F914A80AF05DF814A8A6
:1026900009F024F896200CF00BF9D9F800B05B464D
:1026A000BB461F46384605F069FEDAF8000005F023
:1026B00065FE284B186805F061FE274B186805F089
:1026C0005DFE306805F05AFED9F800703B689A7BD1
:1026D00012B11B7B002B43D033681B689A7B12B16D
:1026E0001B7B002B3CD0DAF800301B689A7B1AB1B8
:1026F0001B7B002B00F0C083164B1B681B689A7B6A
:102700001AB11B7B002B00F00085134B186805F0F5
:102710002DFE0028C6D0DFF844B0029ADBF8003066
:102720001A6023E0024A137254E700BFA42001009C
:10273000A01FFF1FA01D01001421FF1FC01D0100CD
:10274000001EFF1FF41D0100001E01000C1E0100F1
:10275000181E0100AC1DFF1FB01DFF1FC81DFF1F6D
:102760005F46DFF888B1DBF800301F60284608F0CC
:10277000B5FF544B54491B7A002B0BBF2B2330233E
:102780003222372214A80BBF4FF037084FF03C0815
:102790003E2743270393029209F062F9DBF80030E9
:1027A0001B681B01E218E158926814A809F0D0F8E0
:1027B000464914A809F00CF93B01E218E158926867
:1027C000019009F0C5F84249019809F001F94FEA72
:1027D0000813E218E1589268019009F0B9F83D49F0
:1027E000019809F0F5F8029A01901301E218E158F6
:1027F000926809F0ADF83849019809F0E9F8039BAF
:1028000001901B01E218E158926809F0A1F83349E0
:10281000019809F0DDF80146284609F0F5F814A8FA
:1028200008F05CFF294614A809F0EEF814A809F096
:102830008BFF14A808F052FF96200CF039F8D9F855
:102840000030184605F09AFDDAF8000005F096FD14
:10285000234B186805F092FD224B186805F08EFD99
:10286000306805F08BFDD9F800301A68917B11B102
:10287000127B002A3CD032681268917B11B1127B26
:10288000002A35D0DAF800201268917B19B1127B4A
:10289000002A00F0F882124A12681268917B19B17E
:1028A000127B002A00F0398401930E4B186805F062
:1028B0005DFD019B0028C4D00B4B01931B68039A5C
:1028C0001A6019E0A01FFF1F641E0100781E01009E
:1028D000F41D0100001E01000C1E0100B01E0100CD
:1028E000AC1DFF1FB01DFF1FCC1DFF1FC81DFF1F0C
:1028F000AF4B01931B681F60284608F0EFFEAD4BFD
:10290000AD491B7A002B0BBF322737273E234323C9
:102910000BBF43223C224FF0260E4FF02B0E0597A3
:1029200014A80BBF372730274FF02B084FF024088F
:10293000CDF808E007930692049709F091F8DBF8C8
:1029400000301B681B01E218E158926814A808F0D7
:10295000FFFF9A4914A809F03BF8019A13681B6815
:102960001B01E218E1589268074608F0F1FF38466B
:10297000934909F02DF84FEA0813E218E1589268DC
:10298000074608F0E5FF38468E4909F021F8029B1A
:102990001B01E218E1589268074608F0D9FF384653
:1029A000894909F015F804990B01E218E158926879
:1029B000074608F0CDFF3846844909F009F8059923
:1029C0000B01E218E1589268074608F0C1FF38464B
:1029D0007F4908F0FDFF069A1301E218E15892685A
:1029E000074608F0B5FF38467A4908F0F1FF079B23
:1029F0001B01E218E1589268074608F0A9FF384623
:102A0000754908F0E5FF0146284608F0FDFF14A8C7
:102A100008F064FE294614A808F0F6FF14A809F08F
:102A200093FE14A808F05AFE96200BF041FF614A6D
:102A3000D9F80030176852680392184605F09EFCDA
:102A4000DAF8000005F09AFC644B186805F096FC73
:102A5000634B186805F092FC384605F08FFC03982C
:102A600005F08CFC306805F089FCD9F800301A6854
:102A7000917B19B1127B002A00F0F081DAF8002076
:102A80001268917B19B1127B002A00F00282534A2E
:102A900012681268917B19B1127B002A00F04483FE
:102AA0003068089305F062FC002840F03D834C4BF1
:102AB000186805F05BFC089B002800F07583494FFF
:102AC000059A3B681A60284608F008FE394B464ACA
:102AD0001B7A0692002B0CBF4FF0370E4FF03C0EC6
:102AE000CDF810E00CBF4FF04A0E4FF04F0ECDF86E
:102AF0000CE00BBF4FF0430E4FF0480E322337234C
:102B00000CBF2B223022CDF808E02B4909930CBFD3
:102B10004FF03E0E4FF0430E14A8CDF820E00A927D
:102B200008F09EFFDBF800301B681B01E218E1583B
:102B3000926814A808F00CFF204914A808F048FF78
:102B4000019B1B681B681B01E218E15892688046D4
:102B500008F0FEFE4046254908F03AFF3B681B6836
:102B60001B01E218E1589268804608F0F1FE4046E9
:102B70001F4908F02DFF02990B01E218E1589268F5
:102B8000804608F0E5FE40461A4908F021FF039907
:102B90000B01E218E1589268804608F0D9FE4046E1
:102BA000094908F015FF04990B01E21824E000BF61
:102BB000CC1DFF1FA01FFF1F101F0100201F0100C1
:102BC000241F0100441F0100001E0100501F0100CE
:102BD0005C1F0100681F0100181E0100AC1DFF1FD3
:102BE000B01DFF1FD01DFF1FD41DFF1F741F01004C
:102BF000801F0100F41D0100E1589268804608F032
:102C0000A7FE4046A84908F0E3FE08990B01E21828
:102C1000E1589268804608F09BFE4046A34908F0C0
:102C2000D7FE0A9A1301E218E1589268804608F02C
:102C30008FFE40469E4908F0CBFE099B1B01E2181F
:102C4000E1589268804608F083FE40469949DFF8D3
:102C5000948208F0BDFE0146284608F0D5FE14A86F
:102C600008F03CFD294614A808F0CEFE14A809F08F
:102C70006BFD14A808F032FD96200BF019FE8E4B68
:102C8000D9F800201B6805938B4B5B6807931046AF
:102C900005F074FBDAF8000005F070FB874B18684C
:102CA00005F06CFB864B186805F068FB059805F08D
:102CB00065FB079805F062FB306805F05FFBD9F80B
:102CC00000201368987B18B11B7B002B00F0CB8091
:102CD00033681B68987B18B11B7B002B00F0C38006
:102CE000DAF800301B68987B18B11B7B002B00F0D2
:102CF000D580724B1B681B68987B18B11B7B002B1F
:102D000000F017826E4B0B92186805F02FFB0B9AA0
:102D1000002800F03582069B089918680B46016070
:102D200001213E2B40F391800C3B3E2BFCDCD8F87C
:102D3000000003600029AAD0284608F0CFFC6149B2
:102D400014A808F08DFEDBF800301B681B01E218A8
:102D5000E158926814A808F0FBFD5B4914A808F03C
:102D600037FE019B1B681B681B01E218E158926843
:102D7000804608F0EDFD4046544908F029FE3B68C6
:102D80001B681B01E218E1589268804608F0E0FDDC
:102D90004F49404608F01CFE069B1B681B681B0140
:102DA000E218E1589268074608F0D2FD49493846D2
:102DB00008F00EFE0146284608F026FE14A808F08A
:102DC0008DFC294614A808F01FFE14A809F0BCFCCD
:102DD00014A808F083FC96200BF06AFDD9F80000D7
:102DE00005F0CCFADAF8000005F0C8FA306805F012
:102DF000C5FA394B186805F0C1FA33681B689A7B2D
:102E000012B11B7B002B35D0D9F8000003689A7BE8
:102E100012B11B7B002B2DD02F4B1B681B689A7B9C
:102E20000AB11B7B43B1DAF800301B689A7B002A99
:102E3000D6D01B7B002BD3D11E46284608F04EFC73
:102E4000304619B0BDE8F08F0C33312BFCDDD8F8DB
:102E50000000036000293FF41AAF6DE71F4F3B6885
:102E6000C3F800802FE6069B02991B6819600B4689
:102E7000012159E70126E0E7DFF86CB0DBF800300C
:102E8000C3F8008072E4164B01931B68C3F80080FE
:102E900032E5124F029A3B681A6014E6069B0399CA
:102EA0001B6819600B46E3E70C1E01005C1F010064
:102EB000681F0100A81F0100A01FFF1FAC1DFF1FFE
:102EC000B01DFF1FDC1F0100042001001C200100B9
:102ED000342001004C200100B41DFF1FD01DFF1F36
:102EE000CC1DFF1F141EFF1FC81DFF1F944A954BCA
:102EF000029210AC944A954E954D964F03920494CD
:102F00009B4666E014A809F01FFC14980EF09CFA8A
:102F100096200BF0CDFCD9F8000005F02FFADAF876
:102F2000000005F02BFA8C4B186805F027FA8B4B44
:102F3000186805F023FA8A4B1C68204605F01EFA33
:102F4000874B5A680192104605F018FA854B1868AD
:102F500005F014FAD9F80030019A1B68997B19B171
:102F60001B7B002B00F0A680DAF800301B68997BF1
:102F700019B11B7B002B00F0A180774B1B681B68ED
:102F8000997B19B11B7B002B00F0A780734B1B684A
:102F90001B68997B19B11B7B002B00F0A380236871
:102FA000997B19B11B7B002B00F0A18013689A7BE1
:102FB0001AB11B7B002B00F09F806A4B1B681B68BB
:102FC0009A7B1AB11B7B002B00F0968010980EF0B4
:102FD0003BFA654914A808F043FD33681B681B01E0
:102FE000EA18E958926814A808F0B2FC0F225F4969
:102FF00014A808F0ADFC3B681B681B01EA18E958EF
:10300000926814A808F0A4FC0F22594914A808F0EB
:103010009FFCDBF800301B681B01EA18E958926836
:1030200014A808F095FC0F22524914A808F090FC4F
:10303000029B1B681B681B01EA18E958926814A8D8
:1030400008F086FC0F224C4914A808F081FC039B71
:103050001B681B681B01EA18E958926814A808F05D
:1030600077FC1922454914A808F072FC14A90498A9
:1030700008F0CAFC14980EF0E7F9129C0020149096
:10308000159016908DF85C00002C3FF43BAF109A21
:103090000192611C0EF0E0F9034698B11699149064
:1030A0001594019A01B901701146184616940DF055
:1030B00091FA27E730680CF061F887E738680CF080
:1030C0005DF883E70190149818B10EF0BDF9019BEB
:1030D000149300231593169314E7DBF800000CF00B
:1030E0004DF873E7029B18680CF048F86EE7039BF5
:1030F00018680CF043F869E7049C204608F0EEFAE3
:103100000C980EF0A1F9FEF7B4BFDFF840B0019AB9
:10311000DBF800301A60FFF729BB0E4B01931B68E8
:10312000029A1A60FFF7E8BB064F049A3B681A60E0
:10313000C9E4069B04991B6819600B46012184E6CB
:10314000D41DFF1FD01DFF1F141EFF1FC81DFF1F12
:103150001421FF1FCC1DFF1FAC1DFF1FB01DFF1F43
:10316000A01FFF1FB41DFF1FD41C0100101D010074
:10317000201D0100301D0100401D0100501D0100F7
:1031800005980B9205F0F2F80B9A00283ED10798AB
:103190000B9205F0EBF8069B0B9A1B68002840F099
:1031A000388201461B68BCE53846089305F0DEF816
:1031B000089BF0B1CE4F069A3B681A6083E4CD4974
:1031C000284608F013FC432302933E234FF04F0898
:1031D0004A270193FFF716BA204605F0C7F80028E2
:1031E00000F00F820CA808F079FA304619B0BDE85B
:1031F000F08F0398089305F0B9F8089B00283FF476
:103200001CACBB4F079A3B681A605CE4069B0A99AA
:103210001B6819600B4691E75B42A8FB0312D208BA
:1032200002EB8201A3EB410330332D218DF84130B5
:103230008DF840101346002A00F0CF810DF14100B7
:103240000021A8FB03E2D20802EB820EA3EB4E039F
:10325000303300F8013F01311346002AF1D14A1CF6
:1032600018A81044A64600F81F3C2244204692F8B5
:1032700000C01EF801BF00F801CF0133C3EB010C01
:10328000634502F801B9F2DBFEF789BF5B42A8FB98
:103290000312D20802EB8201A3EB410330332D214C
:1032A0008DF841308DF840101346002A00F09181CE
:1032B0000DF141000021A8FB03E2D20802EB820ECF
:1032C000A3EB4E03303300F8013F01311346002ACF
:1032D000F1D14A1C18A81044A64600F81F3C22440D
:1032E000204692F800C010F801BF0EF801CF01335C
:1032F000C3EB010C9C4502F801B9F2DCFEF793BF69
:103300005B42A8FB0312D20802EB8201A3EB41034C
:1033100030332D218DF841308DF840101346002AAE
:1033200000F063810DF141000021A8FB03E2D20807
:1033300002EB820EA3EB4E03303300F8013F013164
:103340001346002AF1D14A1C18A81044A64600F8DA
:103350001F3C2244204692F800C01EF801BF00F82E
:1033600001CF0133C3EB010C634502F801B9F2DB75
:10337000FFF792B85B42A8FB0312D20802EB82016E
:10338000A3EB410330332D218DF841308DF84010EF
:103390001346002A00F025810DF141000021A8FB11
:1033A00003E2D20802EB820EA3EB4E03303300F8A7
:1033B000013F01311346002AF1D14A1C18A81044DC
:1033C000A64600F81F3C2244204692F800C01EF892
:1033D00001BF00F801CF0133C3EB010C634502F8D4
:1033E00001B9F2DBFFF713B85B42A8FB0312D20866
:1033F00002EB8201A3EB410330332D218DF84130E4
:103400008DF840101346002A00F0F7800DF14100BE
:103410000021A8FB03E2D20802EB820EA3EB4E03CD
:10342000303300F8013F01311346002AF1D14A1C24
:1034300018A81044A64600F81F3C2244204692F8E3
:1034400000C01EF801BF00F801CF0133C3EB010C2F
:10345000634502F801B9F2DBFEF76FBF5B42A8FBE0
:103460000312D20802EB8201A3EB410330332D217A
:103470008DF841308DF840101346002A00F0B980D5
:103480000DF141000021A8FB03E2D20802EB820EFD
:10349000A3EB4E03303300F8013F01311346002AFD
:1034A000F1D14A1C18A81044A64600F81F3C22443B
:1034B000204692F800C01EF801BF00F801CF01338A
:1034C000C3EB010C9C4502F801B9F2DCFEF7F0BE3B
:1034D00030680AF0B9FBFFF768B838680AF0B4FB47
:1034E000FFF763B8049B18680AF0AEFBFFF75DB8FE
:1034F000D01DFF1FB01D0100109A0593591C00201C
:1035000001920DF0A9FF834668B11699059B1490AE
:103510001593019A01B901701146584616930DF0A2
:1035200059F8FEF7DCBF149818B10DF08DFFCDF8F7
:1035300050B015951695FEF7D2BF029B18680AF099
:1035400083FBFFF732B8511C0020059301920DF068
:1035500083FF834670B11299019A10901192059BD6
:1035600001B901701946584612920DF033F8149BB8
:10357000FEF7A9BF109818B10DF066FFCDF840B066
:10358000149B11951295FEF79EBF039B18680AF0D5
:103590005BFBFFF70AB88DF84120FEF77DBF8DF881
:1035A0004120FEF740BE8DF84120FEF781BE8DF828
:1035B0004120FEF7C2BE8DF84120FEF728BF8DF8EE
:1035C0004120FEF7ECBD154B18680AF03DFBFEF7F5
:1035D000ECBF8DF84220FEF726BE8DF84220FEF7A4
:1035E000DEBD8DF84220FEF712BF8DF84220FEF7B7
:1035F00053BF8DF84220FEF75BBE8DF84220FEF7E8
:103600009CBE074B186804F0B1FE00287FF4EAADB9
:1036100076E5099919600B4690E500BF701EFF1F03
:10362000B41DFF1F2DE9F04F2DED048BDFF8E8A24C
:10363000DFF8E8B2DFEDA68A9FEDA69A9DB0A64915
:1036400007A808F00DFAA54B1B68002B00F0748644
:10365000012B01F06B80022B01F06E80032B01F037
:1036600077809E4B5B68002B00F05F86012B01F09A
:103670005280022B01F0668007A913A808F0C4F954
:1036800013A809F061F813980DF0DEFE96200BF0F8
:103690000FF9DAF8000004F071FEDBF8000004F026
:1036A0006DFE8F4B186804F069FE8E4B186804F0AD
:1036B00065FE8D4B186804F061FE8C4B186804F0B1
:1036C0005DFE8B4B186804F059FE8A4B186804F0B5
:1036D00055FEDAF800301B689A7B1AB11C7B002C6F
:1036E00000F07E86DBF800301B689A7B1AB11B7BEA
:1036F000002B00F0FF867A4B1B681B689A7B1AB17F
:103700001B7B002B00F0DF86764B186804F02EFE42
:10371000002837D1744B186804F028FE002801F007
:103720005B8007980DF090FE4FF480620021724894
:103730000BF0FEFF714807F04BFC07F0FFF84FF469
:10374000FA700BF0B5F81DB0BDEC048BBDE8F08F3E
:103750006B4B1B6803F5FC6393ED007AF2EE047A81
:10376000B4EEE77AF1EE10FA4CBF664866480BF00B
:1037700019FB07F0E3F84FF47A700BF099F80B9807
:103780000DF062FE61490BA808F06AF90BA913A8B5
:1037900008F03AF901225E4913A808F0D9F8159CFF
:1037A000139D002C40F045840B9B0BB11C70139DA6
:1037B00000230D9328460DF047FE0BA913A808F02F
:1037C00023F90122524913A808F0C2F8159C139D51
:1037D000002C40F023840B9B0BB11C70139D002325
:1037E0000D9328460DF030FE0BA913A808F00CF934
:1037F0002D22484913A808F0ABF8159C139D002C06
:1038000040F001840B9B0BB11C70139D00230D93A2
:1038100028460DF019FE0BA913A808F0F5F813A817
:1038200008F092FF13980DF00FFE96200BF040F871
:10383000DAF8000004F0A2FDDBF8000004F09EFDC1
:10384000274B186804F09AFD264B186804F096FD83
:10385000254B186804F092FD244B186804F08EFD87
:10386000DAF800301B689A7B12B1187B002857D019
:10387000DBF800301B689A7B1AB11B7B002B3FF4EE
:103880007EAF174B1B681B689A7B1AB11B7B002B02
:103890003FF475AF134B1B681B689A7B1AB11B7BF7
:1038A000002B00F00F85104B1B681B689A7B0AB138
:1038B0001B7B33B10D4B186804F058FD00283FF412
:1038C0005EAF0BA807F00AFF07980DF0BDFDB6E646
:1038D000000000000000FA43FC240100AC1FFF1FA1
:1038E000AC1DFF1FB01DFF1FA01FFF1FB41DFF1F3A
:1038F000001EFF1F041EFF1F2811FF1FB420010020
:10390000EC1DFF1FAC270100B8270100382701007C
:10391000AC1D01007C270100A41DFF1FA81DFF1F77
:10392000B24BB34E1F6807F5FB6307F5FC6207F265
:10393000DC79C3ED008A0493C9ED008A05923C4608
:1039400007F5FA68C2ED008A3D4601E0D7F8D407D2
:103950003368DB6F1B6B1B691BB245F8043F0344E4
:10396000C7F8D43702200AF0A3FF4545EED1D7F8B7
:10397000D437D9F8005007EE903AF8EEE77A049B76
:1039800087EE898A83ED008A54F8043F07EE903A67
:10399000F8EEE77A78EE677A17EE900A0DF0C6F83F
:1039A00002460B460DF016F9064628460F460DF066
:1039B000BDF802460B46304639460CF059FF0DF073
:1039C000B9FB44450546DFD107EE100AC7EE097A78
:1039D000C9F80000874C884D274605F10A0817EE04
:1039E000900A0DF0A3F841EC100B0DF0F3FB51EC35
:1039F000100B0DF09FFB059B4FF4806218600021B7
:103A00007E480BF095FE002302210122A175E1758D
:103A1000A2826282E3812382994630E00D2B2CD072
:103A2000027A934229D3817A994226D39A1A466818
:103A3000D2B206EBC206B278CAB1F178B9B1797EDA
:103A4000002940F0E583B7F90E200492F87DB7F91C
:103A5000102097F816C00499B4F814E00390608A17
:103A6000CDF808C08DE80140624808F083FC317948
:103A7000E389A27D01FB0233E381454511D0E06972
:103A800015F8013B002800F098810A2BC6D1A7F851
:103A90000E90027B3B8AF97D454501FB02333B8258
:103AA000EDD102225649534F13A80CF0F3FA13AE8E
:103AB0000DF14E094FF0000830E00D2B2CD0027AAA
:103AC000934229D3817A994226D39A1A4568D2B271
:103AD00005EBC205AA78CAB1E978B9B1797E0029A7
:103AE00040F0BD83B7F90E200492F87DB7F910209D
:103AF00097F816C00499B4F814E00390608ACDF8E2
:103B000008C08DE801403B4808F034FC2979E3897E
:103B1000A27D01FB0233E3814E4511D0E06916F826
:103B2000013B002800F079810A2BC6D1A7F80E804E
:103B3000027B3B8AF97D4E4501FB02333B82EDD18E
:103B4000304D2C4F012305F11508A375E37530E0C6
:103B50000D2B2CD0027A934229D3817A994226D315
:103B60009A1A4668D2B206EBC206B278CAB1F178A8
:103B7000B9B1797E002940F01C83B7F90E20049278
:103B8000F87DB7F9102097F816C00499B4F814E03E
:103B90000390608ACDF808C08DE80140154808F010
:103BA000E9FB3179E389A27D01FB0233E3814545DD
:103BB00012D0E06915F8013B002800F05E810A2B65
:103BC000C6D14FF00003FB81027B3B8AF97D45455E
:103BD00001FB02333B82ECD102220949054F13A8B5
:103BE0000CF058FA13AE4FF000083EE0EC1DFF1F3A
:103BF000F01DFF1F9432FF1FCC2401002811FF1F6E
:103C0000B0200100D82401000D2B2CD0027A934261
:103C100029D3817A994226D39A1A4568D2B205EB04
:103C2000C205AA78CAB1E978B9B1797E002940F015
:103C3000AA82B7F90E200492F87DB7F9102097F800
:103C400016C00499B4F814E00390608ACDF808C057
:103C50008DE80140A14808F08DFB2979E389A27D18
:103C600001FB0233E3814E4511D0E06916F8013BB8
:103C7000002800F039810A2BC6D1A7F80E80027BFC
:103C80003B8AF97D4E4501FB02333B82EDD1944DD9
:103C9000924F022305F10A08A375E37530E00D2B5E
:103CA0002CD0027A934229D3817A994226D39A1A48
:103CB0004668D2B206EBC206B278CAB1F178B9B1A1
:103CC000797E002940F08E82B7F90E200492F87DAB
:103CD000B7F9102097F816C00499B4F814E00390CF
:103CE000608ACDF808C08DE801407C4808F042FBAE
:103CF0003179E389A27D01FB0233E381454512D08E
:103D0000E06915F8013B002800F01E810A2BC6D19E
:103D10004FF00003FB81027B3B8AF97D454501FBA7
:103D200002333B82ECD102226E496C4F13A80CF097
:103D3000B1F913AE2FE00D2B2AD0027A934227D38C
:103D4000817A994224D39A1A4568D2B205EBC2050A
:103D5000AA78BAB1E978A9B1797E002940F06E82DB
:103D6000F87DB7F90E10B7F9102097F816C0B4F81F
:103D700014E00390608ACDF808C08DE801405748F0
:103D800008F0F8FA2979E389A27D01FB0233E38187
:103D90004E453FF4DDACE06916F8013B002800F029
:103DA00003810A2BC7D14FF00003FB81027B3B8AC2
:103DB000F97D01FB02333B82EAE70A2B00F0C78161
:103DC0000D2B3FF45AAE7A7EB7F90E10002A00F0A0
:103DD0005E8197F816E0B7F90A60062212FB0E1210
:103DE000B24240F365823A8A97F817C0F88102EB35
:103DF000CC0212B201463A82A68ACDF80CC0608A83
:103E00008DE84140354808F0B5FAA37DE28903EB1F
:103E1000430302EB4303E3812FE60A2B00F09E816C
:103E20000D2B3FF479AE7A7EB7F90E10002A00F020
:103E3000128197F816E0B7F90A50062212FB0E120B
:103E4000AA4240F33A823A8A97F817C0F88102EB07
:103E5000CC0212B201463A82A58ACDF80CC0608A23
:103E60008DE821401D4808F085FAA37DE28903EB27
:103E7000430302EB4303E3814EE60A2B00F0758116
:103E80000D2B3FF494AE7A7EB7F90E10002A00F0A5
:103E9000E98097F816E0B7F90A60062212FB0E12C5
:103EA000B24240F3F6813A8A97F817C0F88102EBE4
:103EB000CC0212B201463A82A68ACDF80CC0608AC2
:103EC0008DE84140054808F055FAA37DE28903EBEF
:103ED000430302EB4303E38169E600BF9432FF1F13
:103EE000F0240100B02001000A2B00F045810D2BC9
:103EF0003FF4B9AE7A7EB7F90E10002A00F0B9800F
:103F000097F816E0B7F90A50062212FB0E12AA42E1
:103F100040F3BA813A8A97F817C0F88102EBCC02D5
:103F200012B201463A82A58ACDF80CC0608A8DE8AB
:103F30002140AB4808F01EFAA37DE28903EB43035E
:103F400002EB4303E3818EE60A2B00F0F9800D2B90
:103F50003FF4D4AE7A7EB7F90E10002A00F09080BC
:103F600097F816E0B7F90A60062212FB0E12B24269
:103F700040F394813A8A97F817C0F88102EBCC029B
:103F800012B201463A82A68ACDF80CC0608A8DE84A
:103F90004140934808F0EEF9A37DE28903EB430327
:103FA00002EB4303E381A9E60A2B00F0C2800D2B4C
:103FB0003FF4EEAE7A7EB7F90E10002A44D097F89F
:103FC00016E0B7F90A50062212FB0E12AA4240F37D
:103FD0006A813A8A97F817C0F88102EBCC0212B2D4
:103FE00001463A82A58ACDF80CC0608A8DE821404E
:103FF0007B4808F0BFF9A37DE28903EB430302EBA2
:104000004303E381C4E60C9B9C4247D80B980D9474
:1040100029460CF0DFFA139DFFF7FABB0C9B9C427C
:1040200055D80B980D9429460CF0D4FA139DFFF740
:10403000D8BB0C9B9C4263D80B980D9429460CF07E
:10404000C9FA139DFFF7B6BBB7F9102097F817C050
:1040500097F816E0C6E7B7F9102097F817C097F859
:1040600016E0F9E6B7F9102097F817C097F816E0B0
:1040700022E7B7F9102097F817C097F816E052E733
:10408000B7F9102097F817C097F816E07BE7B7F953
:10409000102097F817C097F816E0ADE6611C0B9852
:1040A0000DF0DAF9064638B10D9B0B900C94002BFD
:1040B000ADD103700B98AAE70B9810B10DF0C4F9BD
:1040C0000B960023139D0C930D93FFF7A1BB611C6E
:1040D0000B980DF0C1F9064638B10D9B0B900C946E
:1040E000002B9FD103700B989CE70B9810B10DF03B
:1040F000ABF90B960023139D0C930D93FFF771BB47
:10410000611C0B980DF0A8F9064638B10D9B0B9079
:104110000C94002B91D103700B988EE70B9810B183
:104120000DF092F90B960023139D0C930D93FFF75E
:1041300041BB3B8AFA7DF88103EBC2033B8227E651
:104140003B8AFA7DF88103EBC2033B82D6E53B8ACA
:10415000FA7DF88103EBC2033B828EE43B8AFA7D51
:10416000F88103EBC2033B82D6E43B8AFA7DF881F7
:1041700003EBC2033B821AE53B8AFA7DF88103EB2D
:10418000C2033B826FE595F905100591B7F90E1052
:104190000491059997F816C0B7F90AE00A44049902
:1041A0000CFB0212724500F3E780F87DB7F910208E
:1041B00048E596F905100591B7F90E100491059997
:1041C00097F816C0B7F90AE00A4404990CFB0212EA
:1041D000724500F3DD80F87DB7F91020D6E400BF0A
:1041E0009432FF1F96F905100591B7F90E1004914E
:1041F000059997F816C0B7F90AE00A4404990CFB30
:104200000212724500F3DF80F87DB7F9102064E5F3
:1042100096F905100591B7F90E100491059997F8D4
:1042200016C0B7F90AE00A4404990CFB0212724561
:1042300000F3BC80F87DB7F910200DE495F90580F6
:10424000B7F90E1097F816C0B7F90AE042440CFB14
:104250000212724577DCF87DB7F9102087E595F9F1
:1042600005100591B7F90E100491059997F816C03D
:10427000B7F90AE00A4404990CFB021272456EDC9D
:10428000F87DB7F9102036E4B7F9102097F817C079
:1042900049E6B7F9102097F817C00DE6B7F91020D6
:1042A00097F817C06FE6B7F9102097F817C099E68E
:1042B000B7F9102097F817C09EE5B7F9102097F8C6
:1042C00017C0C9E508F000FF844B186804F056F8E1
:1042D000824B186803689A7B002AF7D01B7B002B5F
:1042E000F4D10FAC7E49204607F0BAFB214613A853
:1042F00007F08AFB13A808F027FA13980DF0A4F82A
:10430000764B186804F03AF8744B186803689A7B87
:10431000002AF7D01B7B002BF4D10F980DF094F8F6
:104320000B980DF091F8FFF72DBA16226D4907A8EA
:1043300007F00EFBFFF7A0B916226B4907A807F09C
:1043400007FBFFF78EB94FF00002FA81027B398A32
:10435000F87D02FB001212B23A82002107E5A7F8AD
:104360000E80027B398AF87D02FB001212B2002116
:104370003A820491FFF7BFBBA7F80E80027B398A0F
:10438000F87D02FB001212B200213A82049159E436
:104390004FF00002FA81027B398AF87D02FB00129D
:1043A00012B200213A820491FFF7F0BBA7F80E90F9
:1043B000027B398AF87D02FB001212B200213A8298
:1043C0000491FFF749BB4FF00002FA81027B398A62
:1043D000F87D02FB001212B200213A8204917CE4C3
:1043E0000FAE4249304607F03BFB119D13941494E5
:1043F00015948DF85840002D4AD113A808F0A4F95F
:1044000013980DF021F896200AF052FADAF800001D
:1044100003F0B4FFDBF8000003F0B0FF344B186882
:1044200003F0ACFF2D4B186803F0A8FFDAF800305A
:104430001B689A7B0AB11B7BE3B1DBF800301B6879
:104440009A7B0AB11B7BFBB1294B1B681B689A7BCB
:104450001AB11B7B002B00F06481204B1B681B688A
:104460009A7B1AB11B7B002B00F05B810F980CF03C
:10447000EBFFB6E700F030FA05460F980CF0E4FFCA
:10448000002DAED0FFF74DB909F074FD0546F4E7F5
:10449000691C0020DDF83C800CF0DEFF074650B1BF
:1044A000159B1390149503B9037041463846159532
:1044B0000CF090F8A1E7139810B10CF0C5FF13971A
:1044C0001494159499E7FDF7CBFD044607980CF07A
:1044D000BBFF002C3FF4B3A8FFF726B9B41DFF1FA4
:1044E000C4270100B425010054250100FC2501006A
:1044F000AC1DFF1FA14DA24E0FACA249204607F0F4
:10450000AFFA214613A807F07FFA13A808F01CF9A8
:1045100013980CF099FF96200AF0CAF9DAF8000017
:1045200003F02CFFDBF8000003F028FF964B18681F
:1045300003F024FF954B186803F020FF944B186894
:1045400003F01CFFDAF800301B689A7B12B11B7B6A
:10455000002B5FD0DBF800301B689A7B1AB11B7B05
:10456000002B00F0B880884B1B681B689A7B1AB13F
:104570001B7B002B00F0B980844B186803F0F6FE1B
:10458000002800F0EB803C200AF06AFA002840F096
:10459000F0803C2004F0D8F804250F987D4C0CF0F6
:1045A00053FF4FF4806200217B480BF0C1F87B4B36
:1045B0000220012100229875D87599825982DA81EA
:1045C0001A8204F1080614F8011B744805F032FC45
:1045D000B442F8D11CAE303506F8035D344614F809
:1045E000011B6E4805F026FCC4F10103DE42F6D142
:1045F0006B4C04F1090514F8011B684805F01AFC1E
:10460000AC42F8D106F09AF94FF4FA700AF050F97A
:10461000FFF787B82B78DA075AD54FF0A0531B78ED
:10462000002B4DD1DFF8AC815E4FD8F800305E4EE4
:1046300019785E4D5E4C00200AF0EAF93B680120D3
:1046400019780AF0E5F93368022019780AF0E0F9E0
:104650002B68032019780AF0DBF923680420197805
:104660000AF0D6F9534B19680C31C9B205200AF08B
:10467000CFF9514B062019780AF0CAF9D8F8003062
:104680000720197A0AF0C4F93B680820197A0AF061
:10469000BFF933680920197A0AF0BAF92B680A20A1
:1046A000197A0AF0B5F923680B20197A0AF0B0F9E3
:1046B000424B1B680C20197A0AF0AAF901256CE715
:1046C0000AF0B8FF0028ADD10F980CF0BDFE14E73A
:1046D0000AF058F9A1E72B78DB0714D533786BB9CA
:1046E000142004F031F8022557E728200AF0B8F921
:1046F00060B9282004F028F803254EE70AF09AFF55
:104700000028E1D0ECE70AF03DF9E7E70AF092FF74
:104710000028D9D0EDE72A4907A807F067F9FEF786
:10472000ABBF304606F0DAFFFFF7CEB8254907A841
:1047300007F05CF9FEF795BF234907A807F056F983
:10474000FEF78FBF214907A807F050F9FEF794BF85
:104750001F4907A807F04AF9FEF783BF0C4B1868FA
:1047600003F004FE0028AFD0204606F0B7FFFEF7A6
:10477000D8BF0AF05FFF0028A6D00AE70100024078
:104780001400001484260100AC1DFF1FB01DFF1F84
:10479000B41DFF1FB42401002811FF1F9432FF1F16
:1047A000C0240100CC1DFF1FD01DFF1FD41DFF1F03
:1047B000141EFF1FDC1DFF1FD81DFF1F701EFF1FD3
:1047C000CC2501006C25010084250100E4250100B1
:1047D0009C250100C81DFF1F374B186803F0C6FD5C
:1047E000044600287EF49DAF344B186803F0BEFDEC
:1047F0000546002832D0324B314A1B6823B3012BC7
:1048000018D0022B0BD0032B7FF45EA82D492E4B22
:1048100009681B680C7414601C74FFF755B8294BA9
:1048200029491B6809680120187403230C7413605C
:10483000FFF74AB823492448096800680C7402212C
:1048400003741160FFF740B81E491F4B08681968D0
:104850000123037413600B74FFF736B81B4B186801
:1048600003F084FD00283FF42FA8154B144A5B6821
:104870006BB1012B15D0022B7FF426A81449154BE0
:1048800009681B680D7455601D74FFF71DB810484A
:10489000104900680968037401230B745360FFF723
:1048A00013B80B480B4900680968037402230D74A0
:1048B0005360FFF709B800BFB41DFF1F001EFF1FA4
:1048C000AC1FFF1FD01DFF1FD41DFF1F041EFF1FA5
:1048D000C81DFF1FCC1DFF1F2DE9F04FDFF85CA1A5
:1048E000DFF85C91DFF85CB1484F494D494E93B019
:1048F00049490EA807F0B4F8DAF80820DAF80010F1
:104900000EA807F025F8052244490EA807F020F864
:10491000D9F80820D9F800100EA807F019F80522D8
:104920003F490EA807F014F83E4B0EA89A68196884
:1049300007F00EF805223C490EA807F009F8DBF84D
:104940000820DBF800100EA807F002F817223749FC
:104950000EA806F0FDFF0EA906A807F055F80E9860
:104960000CF072FD06A90EA807F04EF80EA807F08D
:10497000EBFE0E980CF068FD962009F099FF386860
:1049800003F0FCFC286803F0F9FC294B186803F0DD
:10499000F5FC284B186803F0F1FC274B186803F06E
:1049A000EDFC306803F0EAFC3B681B689A7B22B19F
:1049B00093F80C80B8F1000F46D02B681B689A7BE7
:1049C00022B11B7B0093002B00F05C81184B1B680D
:1049D0001B689A7B1AB11B7B002B00F03A82154BA7
:1049E0001B681B689A7B1AB11B7B002B00F050825E
:1049F000114B186803F0BAFC002800F0848206A866
:104A000006F06CFE002013B0BDE8F08FA41DFF1F60
:104A1000A81DFF1FB41DFF1FE42801002C29010061
:104A200034290100F420FF1F3C2901004429010022
:104A3000AC1DFF1FB01DFF1FA01FFF1FD420FF1FB5
:104A4000E420FF1F0421FF1F7D4C7E490EA807F0C4
:104A500007F8D4F83824D4F830140EA806F078FFFC
:104A60000F2279490EA806F073FFD4F87823D4F802
:104A700070130EA806F06CFF0F2274490EA806F002
:104A800067FFD4F87823D4F870130EA806F060FFFF
:104A90000F226F490EA806F05BFFD4F8B822D4F8B5
:104AA000B0120EA806F054FF0B226A490EA806F0B9
:104AB0004FFF0EA90AA806F0A7FF0E980CF0C4FC41
:104AC0000AA90EA806F0A0FF302303A88DF80C3029
:104AD0008DF80D800BF0F4FD03A902460EA806F038
:104AE00037FF08225C490EA806F032FF109C0E9B8F
:104AF000002C40F0C3810A9A0AB114700E9B002268
:104B00000C9218460CF0A0FC0AA90EA806F07CFF37
:104B10000023302203A88DF80D308DF80C200BF007
:104B2000CFFD03A902460EA806F012FF26224B492C
:104B30000EA806F00DFF109C0E9B002C40F09481F7
:104B40000A9A0AB114700E9B00220C9218460CF0BF
:104B50007BFC0AA90EA806F057FF0EA807F0F4FD8B
:104B60000E983F4C0CF070FC962009F0A1FE3868BE
:104B700003F004FC286803F001FC206803F0FEFB4E
:104B8000306803F0FBFB386803689A7B0AB11B7B33
:104B9000D3B123681B689A7B0AB11B7BA3B12B6836
:104BA0001B689A7B0AB11B7B3BB133681B689A7BFD
:104BB000002ADDD01B7B002BDAD10A980CF044FCD4
:104BC00006980CF041FC93E6264C27482749284AD2
:104BD000284BD0F80080D1F800E0256817681E68DF
:104BE000254C26482649432337224FF02B0C2B60B7
:104BF000C8F80020CEF800C03A6033602378002463
:104C0000012B04600C6009D00A980CF01DFC06987A
:104C10000CF01AFC012013B0BDE8F08F28790138A0
:104C2000000200F4706040F4404040F00C0007F0D7
:104C30008DF82B7922462146C02007F031F9E3E7B1
:104C40001429FF1F84290100A8290100B8290100A7
:104C5000C8290100D8290100E42901005C290100CC
:104C6000001EFF1FC81DFF1FCC1DFF1FD01DFF1FF3
:104C7000D41DFF1F141EFF1F6C1EFF1FDC1DFF1F16
:104C8000D81DFF1FDFF8CC82A249A34C0EA806F066
:104C9000E7FED8F83824D8F830140EA806F058FEED
:104CA0009E490EA806F094FED8F87823D8F8701321
:104CB000019006F04DFE019B9949184606F088FECA
:104CC000D8F8C823D8F8C013019006F041FE019B24
:104CD0009449184606F07CFED8F84822D8F84012CD
:104CE000019006F035FE019B8F49184606F070FED4
:104CF00001460AA806F088FE0E980CF0A5FB0AA94A
:104D00000EA806F081FE4FF030089DF800308DF8B7
:104D10000D3003A88DF80C800BF0D2FC03A90246DD
:104D20000EA806F015FE81490EA806F051FE0146B8
:104D30000AA807F029F90E980CF086FB0AA90EA81C
:104D400006F062FE9DF800308DF80D3003A88DF856
:104D50000C800BF0B5FC03A902460EA806F0F8FD86
:104D600073490EA806F034FE01460AA807F00CF9B4
:104D70000E980CF069FB0AA90EA806F045FE0EA8D5
:104D800007F0E2FC0E980CF05FFB962009F090FD16
:104D9000386803F0F3FA286803F0F0FA206803F0AB
:104DA000EDFA306803F0EAFA386803689A7B0AB1D2
:104DB0001B7B3BB123681B689A7B002A38D01B7B86
:104DC000002B35D15B4C5C485C495D4A5D4B1668F5
:104DD0000F682568D0F800C01C685B485B495C4AD6
:104DE0003C234FF043094FF037084FF0240EC5F82D
:104DF0000090CCF80080C7F800E0336023600678AC
:104E00000024012E0C6014607FF4FEAE2879013876
:104E1000000200F4706040F4E03040F00C0006F056
:104E200095FF2B7922463146C02007F039F8EBE692
:104E30002B681B689A7B1AB11B7B002B3FF4BDAE1D
:104E400033681B689A7B002AA3D01B7B002BA0D160
:104E5000B3E6032003F0A6FD044606980CF0F4FA2E
:104E6000002C3FF445ADD5E60B9A944215D80A982C
:104E70000C9419460BF0AEFB0E9B67E60B9A94421E
:104E800026D80A980C9419460BF0A4FB0E9B38E622
:104E9000042003F087FD0446DFE7611C0A980093B5
:104EA0000CF0DAFA804640B10C9A0A900B94009B01
:104EB000002ADDD102700A98DAE70A9818B10CF0DE
:104EC000C3FACDF8288000220E9B0B920C923DE68F
:104ED000611C0A9800930CF0BFFA804640B10C9A0E
:104EE0000A900B94009B002ACCD102700A98C9E763
:104EF0000A9818B10CF0A8FACDF8288000220E9B71
:104F00000B920C92FDE5306803F030FA00287FF434
:104F100076AD55E684290100001EFF1FA829010077
:104F2000B8290100C8290100D8290100E42901009D
:104F30005C290100C81DFF1FCC1DFF1FD01DFF1FD6
:104F4000D41DFF1F141EFF1F6C1EFF1FDC1DFF1F43
:104F5000D81DFF1F1429FF1F70B4184B184D1B7864
:104F60002A78D9B2D2B2914222D0164B1C68531C77
:104F7000A34214D3002213461348C05CC0B2134EA0
:104F80002A7032684AB1994238BF0919CB1A1049C0
:104F900009688B4201D80023137070BC70473F2B07
:104FA00009D90C483F3A0068805CDAB2C0B2E6E743
:104FB0004FF0FF30F1E7DAB2DEE700BF2838FF1F1D
:104FC0002938FF1F4015FF1F181EFF1F5C1EFF1F03
:104FD000100CFF1F581EFF1F064A074B10781B7846
:104FE000C0B2DBB2984202D2044A12681044C01A1E
:104FF000704700BF2838FF1F2938FF1F4015FF1FCB
:105000000846114606F060BD10B508461446114624
:1050100002F0DCFF204610BD08B5044B1B685B05A1
:1050200002D5084602F048FF012008BD3480044044
:10503000704700BF2DE9F04F2DED028BDFF8CCB2A9
:105040009BF9223002213C22013389B08BF82110D8
:105050008BF8202000F06A849BF82400DFF87CA203
:1050600009F08AFE9BF8260009F086FE9BF92610BF
:105070009BF924209BF827305AF831105AF8322037
:10508000CBF830100124CBF834208BF83A408BF861
:105090003B40002B00F0DC848B4A8C4853681C6832
:1050A00059682568294321601168894C0860894D39
:1050B000CC60894C0D610C60517A5C180C3194F80D
:1050C0002C4053F821500AEBC40149680D60117A55
:1050D0005C1803EB8101247ECD690AEBC4014968A9
:1050E0000D60917A5C1803EB810394F840105C6CBE
:1050F0000AEBC1035B681C6053680ACB0C6823434E
:105100000B601268D368D46803F0E06343F0384161
:1051100041F40031A1420BD0146843F07843650498
:1051200043F4003300F1BA841060D160136114605D
:105130009BF8250009F020FE9BF825000AF008F8EE
:10514000012009F0B5FB9BF825303F2B0AD85AF80F
:105150003310624A91F88002002800F0DF830123B7
:1051600081F800310A2009F0A3FB9BF825005C4F71
:105170005C4C5D4EDFF8989109F0EAFFAE2005F037
:10518000A1FAD52005F09EFA802005F09BFAA82010
:1051900005F098FA3F2005F095FAD32005F092FA31
:1051A000002005F08FFA402005F08CFA8D2005F0E4
:1051B00089FA142005F086FA202005F083FA0020F1
:1051C00005F080FAA12005F07DFAC82005F07AFAF2
:1051D000DA2005F077FA122005F074FA812005F044
:1051E00071FACF2005F06EFAD92005F06BFAF120A4
:1051F00005F068FADB2005F065FA402005F062FA58
:10520000A42005F05FFAA62005F05CFAAF2005F0B7
:1052100059FA05F0D9FD354805F0DAFE05F08EFBA8
:105220004FF4487009F044FB05F0CEFD304805F01E
:10523000CFFE05F083FB6E2009F03AFB05F0C4FDBC
:105240002C4805F0C5FE05F079FB6E2009F030FB17
:1052500005F0BAFD284805F0BBFE05F06FFB6E2097
:1052600009F026FB05F0B0FD244805F0B1FE05F07D
:1052700065FB6E2009F01CFB05F0A6FD204805F03B
:10528000A7FE05F05BFB6E2009F012FB05F09CFD0C
:105290001C4805F09DFE05F051FB6E2009F008FB4F
:1052A00005F092FD184805F093FE05F047FB05F068
:1052B0008BFD07F009FF4FF47A7009F0F9FA40F21C
:1052C000EE283D682BE000BFF010FF1F01401F00DB
:1052D000011000380110007800001F802C9F010091
:1052E0005434FF1FE437FF1F0437FF1FF02901006C
:1052F000F02D0100F0310100F0350100F03901001E
:10530000F03D0100F0410100F04501009432FF1F23
:105310000037FF1FB3F5FA6F15D80AF001F90AF04C
:10532000FFF8237843B13378DB0705D53B68D9F81C
:1053300000209B1A0E2B06D83B6822785B1B002AA4
:10534000E8D14345E9D9DFF85C93C34EC34D4FF430
:10535000FA7009F0ADFA4FF002080621C04806F0D5
:10536000B3FB4246A9F1040107A80AF093FE4146A7
:1053700007A806F0A9FB736D1868036847F61221A9
:10538000DB6998473B680593059BC6F8003100240C
:105390004FF6FF7303228C2086F8702086F8584061
:1053A00086F85A4086F859407466346686F8F840A4
:1053B00086F8754086F8744086F8764086F877401F
:1053C000C6F8FC40B366F3660CF036F809F1480203
:1053D000A44BC2620363A44A047627230646C0F89E
:1053E0002490426380F8383000F13C02019204F0CE
:1053F000BFFD09F14C0109F19403019A31660120C6
:105400009A4986F85400B36699483167492386F86B
:105410007430F066104604F0ABFD019AC6F88020A7
:10542000C6F8882086F878804FF40060F667C6F8E2
:1054300084602E600CF000F8804614200BF0FCFF16
:105440003B680693069B03618A4A8B4910230360DD
:1054500081464FF4807381F88042136099F8001000
:10546000D6F88000019309F049FC8449C9F804404A
:105470000F20C9F80840C8F80000C8F8F497804A1F
:1054800081F88042019B13602A68C8F8E447FA2338
:10549000D06FC8F8FC377B4BC8F8EC4788F8F0476A
:1054A00088F8F14788F8F24788F8F84788F8F9470C
:1054B00088F8FA470421C3F8008009F0EBFA2B685A
:1054C000DC6F637E2046002B40F07582236B5A010F
:1054D00002F1844213460121C2F81011C3F884116D
:1054E0000322C3F8801198F8001084F8232009F0F3
:1054F00005FC644BD3F8008008F2DC7108F5FB6210
:1055000008F5FC600023136001910B600292039088
:10551000444608F5FA660360C146002101E0D8F868
:10552000D4172B68DB6F1B6B1B691BB249F8043F58
:105530000B44C8F8D437022009F0BAF94E45EED131
:10554000D8F8D4379FED507A07EE903AF8EEE77A24
:10555000019B87EE878A1D68029B83ED008A54F8C1
:10556000043F07EE903AF8EEE77A78EE677A17EEA6
:10557000900A0BF0DBFA02460B460BF02BFB804641
:10558000284689460BF0D2FA02460B464046494669
:105590000BF06EF90BF0CEFDA6420546DFD106EE0C
:1055A000900ADFED397A019B384E186086EEA77AB3
:1055B0000125022417EE100A0BF0B8FA41EC100B8B
:1055C0000BF008FE51EC100B0BF0B4FD039B1860C0
:1055D00005F0FAFB0023ABF80E30ABF81030ABF857
:1055E0001450ABF812508BF816408BF8174028482F
:1055F00009F0D8FB8BF816508BF81750254809F0A6
:10560000D1FB8BF816408BF81740234809F0CAFBF2
:105610001C4B1B6803F5FC6393ED007AF2EE047AF1
:10562000B4EEE77AF1EE10FA4CBF1C481C4809F0C2
:10563000B9FB05F083F94FF47A7009F039F970205D
:105640000BF0FAFE00231822019002604360994695
:1056500000F10C0B012541E04433FF1FF01DFF1F3B
:10566000F04A010000B0034010600340386003407E
:1056700000B00B4000A004400008FE430010FE43B1
:1056800000B00440EC1DFF1F0000FA438C4A0100EB
:10569000CC240100D8240100F0240100AC27010033
:1056A000B8270100F44901005AF83320DEF804104D
:1056B00092F800E280F80CE040F2031E4373206091
:1056C00082F88092C1F800E0A5600135192D4FF0F5
:1056D000000884F804904BF8044F1BD00C200BF00A
:1056E000ABFE56F8048F044610200BF0A5FE3B6875
:1056F00007935FFA88F30521079AC0F808903F2BBB
:105700000AEBC30E41600260CED980F80C9043735F
:105710002060D9E7AA4D019B2B6008200BF08CFE7E
:10572000FA2227210446A74FA74E02F073FE2A68EB
:10573000A6493C6017690F60A54D976E3760A54874
:10574000D76D2F6084F805805769A34C0760A34983
:10575000D7692760A24E176A0F60A24D976AA248C8
:10576000A2493760A24C176B566B2F600660D56E4E
:10577000526E256018200A600BF05EFE0246462538
:105780006FF0190443219B4E80F81080012782F8A6
:1057900011805760116051619560D46018203260AB
:1057A0000BF04AFE02463721934E80F81080022704
:1057B00082F811809560D4605760116051611820A3
:1057C00032600BF039FE024630268C4980F810809A
:1057D000032782F811809560D46057601660566187
:1057E00018200A600BF028FE0246854882F81080D7
:1057F0002421042782E8820082F811809560D46019
:105800000260516118200BF017FE024605237D4906
:1058100080F8108080F8118006608560C460466161
:10582000536018200A600BF007FE02468560532182
:10583000754E82F81080062582F81180D46055607C
:1058400011605161082032600BF0F6FD1621C8226C
:10585000044602F0DFFD6D4A6D4E146008200BF027
:10586000EBFDC8221521044602F0D4FD69496A4ABD
:105870000C600820C2F800800BF0DEFD40F22B1215
:105880001721044602F0C6FD6449654A0C60672092
:10589000C2F8008009F0E4F805460C200BF0CCFDBE
:1058A00029210446C82202F0B5FD5E4AA5606820A1
:1058B000146009F0D5F805460C200BF0BDFD112150
:1058C0000446C82202F0A6FD574AA560692014606C
:1058D00009F0C6F805460C200BF0AEFDC8220E21DB
:1058E000044602F097FD5148514A5249076014603E
:1058F000514BA5605148524D524AC1F800800C21CD
:10590000C3F80080C6F80080C5F8008080F80080E9
:10591000116009B0BDEC028BBDE8F08F02EBC30350
:105920005A68136823F0020313601BE4464BDFF848
:105930001CA15969002283F8A02083F8A12083F8D4
:105940002C2183F82D2183F82E2183F82F210C6838
:1059500048682568C3F834212843C3F838212060FB
:105960001869827093F8312108680A44147A527BCE
:105970000AEBC4041202646802F4E06242F06402BA
:10598000226093F832210A44947CD27D0AEBC4044D
:10599000120202F4E062646842F06402226000686D
:1059A0004A68104273D11A69202151711B69802203
:1059B0009A70FFF7BDBB09F029F92B68D86F85E510
:1059C000E01DFF1FE81DFF1F001EFF1FB41DFF1F6E
:1059D000041EFF1FA41DFF1FA81DFF1FAC1DFF1FDE
:1059E000B01DFF1FA01FFF1FA41FFF1F101EFF1FC2
:1059F000081EFF1FC81DFF1FCC1DFF1FD41DFF1F4A
:105A0000D01DFF1F141EFF1F701EFF1FF41DFF1F60
:105A10009037FF1FF81DFF1FDC1DFF1FFC1DFF1F20
:105A2000D81DFF1FBC1DFF1FC01DFF1F741EFF1FC1
:105A3000C41DFF1FAC1FFF1FB01FFF1F6C1EFF1FE9
:105A4000B81DFF1F0C1EFF1FB40FFF1F2C9F01006E
:105A50009BF8220009F090F99BF8230009F08CF9DB
:105A60009BF923109BF922209BF827305AF831101C
:105A70005AF832208BF839408BF83840CBF82C108C
:105A8000CBF82820002B3FF453ABFFF705BB1A6976
:105A90002C2151701A690421917184E7D16013613E
:105AA000FFF746BB2DE9F04FDE4DDFF8FC93DE4FEC
:105AB000DFF8F883DD4C87B04946284605F0D0FF73
:105AC0003A464146284609F0F9FDD94902A805F0B1
:105AD000C7FF294602A806F0DBF905F1100A0146C6
