:10000000F8FF022099010000D5D20000D9D10000EC
:10001000D9D10000D9D10000D9D10000D9D1000038
:10002000D9D10000D9D10000D9D10000D5D200002B
:10003000D5D20000D9D1000069A7000059A700005F
:10004000D5D20000D5D20000D5D20000D5D2000014
:10005000D5D20000D5D20000D5D20000D5D2000004
:10006000D5D20000D5D20000D5D20000D5D20000F4
:10007000D5D20000D5D20000D5D20000D5D20000E4
:10008000D5D20000D5D20000D5D20000D5D20000D4
:10009000D5D20000D5D20000D5D20000D5D20000C4
:1000A000418C0000358C0000D5D20000D5D2000074
:1000B000D5D20000D5D20000D5D20000497400008E
:1000C000D5D2000071730000D5D20000D5720000B7
:1000D000D5D2000039720000D5D20000D5D2000080
:1000E000D5D20000D5D20000D5D20000D5D2000074
:1000F000D5D20000D5D20000D5D20000D5D2000064
:10010000D5D20000D5D20000D5D20000D5D2000053
:10011000D5D2000019760000D5D20000D5D200005B
:10012000D5D20000D5D20000D5D20000D5D2000033
:10013000D5D20000D5D20000D5D20000D5D2000023
:10014000D5D20000D5D200009D710000D5D20000AC
:1001500005710000D5D20000D5D20000D5D2000034
:10016000D5D20000D5D20000298C0000D5D20000E5
:10017000D5D20000D5D20000D5D20000D5D20000E3
:10018000D5D20000D5D20000D5D20000D5D20000D3
:10019000D5D20000D5D2000008B55D4B4CF22052FC
:1001A0001A804DF628121A8000BF00BF102223F8D3
:1001B0000E2CA3F51F43DE3B4FF030621A60554A08
:1001C0009A60554ADA60554B4FF470021A60544AEF
:1001D000136813F4807304D152490B604FF4A85391
:1001E0001360514B1A78100703D51A7842F00802B1
:1001F0001A704E4B4E492A221A704E4A4E4B8B4271
:1002000004D252F8040F43F8040BF8E74B4B4C4967
:1002100000228B4202D243F8042BFAE749494A4AAA
:10022000002352F8230041F823000133662BF8D154
:10023000464B474A802103F8011B9342FBD1454BB3
:10024000404A1A60444B8A221A70A3F58053242234
:100250005A70A0221A709A799107FCD59A79D20621
:10026000FCD43E4A937903F00C03082B3B4BF9D1A5
:1002700003221A7146225A719A799406FCD5374A9C
:100280009179364B4806FBD5354A4FF082711160A3
:100290000921516020221A709A7902F00C020C2A6E
:1002A000FAD1304B304A1A60304B314A1A60002480
:1002B00007225C6043F8042C2E4AC3F80C2D62B66A
:1002C0000DF00CF8174B1A68D1070AD52A4A2B49AA
:1002D0001C60146042F8041C10221A60284A294944
:1002E0001160294A127852060ED52549254A086818
:1002F000904209D12048214C00221A60026040F847
:10030000044C102018600A600EF0EAFF00F0AEF80E
:100310000E200540823F04000100002B88ED00E024
:1003200010D0034014D0034002D0074000E0074043
:100330005019FF1F80A20100080CFF1F5019FF1F5A
:100340006034FF1F0002FF1F0000000000E400E017
:1003500056E400E008ED00E0005006400040064092
:100360004480044004800440C010050014E000E014
:10037000BFD401000000202004D00340C8A2A06325
:100380001CE00340A5C3945A00F00740FFFFFFFFA5
:10039000FFFFFFFFFFFFFFFFFFFFFFFFFFFFFFFF6D
:1003A000FFFFFFFFFFFFFFFFFFFFFFFFFFFFFFFF5D
:1003B000FFFFFFFFFFFFFFFFFFFFFFFFFFFFFFFF4D
:1003C000FFFFFFFFFFFFFFFFFFFFFFFFFFFFFFFF3D
:1003D000FFFFFFFFFFFFFFFFFFFFFFFFFFFFFFFF2D
:1003E000FFFFFFFFFFFFFFFFFFFFFFFFFFFFFFFF1D
:1003F000FFFFFFFFFFFFFFFFFFFFFFFFFFFFFFFF0D
:10040000FFFFFFFFFFFFFFFFFFFFFFFFDEF9FFFF23
:1004100010B5054C237833B9044B13B10448AFF33E
:1004200000800123237010BD5019FF1F0000000041
:100430007CA20100084B10B51BB108490848AFF376
:1004400000800848036803B910BD074B002BFBD0A0
:10045000BDE81040184700BF000000005419FF1FFE
:100460007CA201005019FF1F000000002DE9804808
:10047000ABB004F041FA0E4B0E4D1B78DFF83CA0F8
:10048000DFF83CB00C4C002B40F04C82D5F83C809F
:1004900098E80C000026B242C8F8083088F80C60D2
:1004A00088F80D60C8F8046024DD08F10C070DE041
:1004B0000C0CFF1F6C19FF1F010002405C2EFF1F78
:1004C000342FFF1FD8F80030B3420FDD57F8040F68
:1004D00007F088FF3B681A790136002AF2D09B6842
:1004E000C8F80430D8F80030B342EFDCD8F8046024
:1004F000D8F808309E4240F3FE86012388F80C307D
:10050000696C2E640868437B3F2B00F2EB87B84A86
:1005100052F8333093F80032DBB2027B9A4200F09B
:10052000AE85B44A076812681192119AB14ED21B77
:100530004768BA42C0F0A38532681092109E0373D8
:10054000002201230660826083730B689A7B2AB1C4
:100550001B7B1BB94B7983F001034B71AE6CA64A30
:1005600006F5FC6393ED007AF2EE047AB4EEE77AD6
:10057000F1EE10FA01F13680002386F8F23786F8A2
:10058000F03786F8F137286D07F02CFF686D07F01B
:1005900029FFAE6D304607F025FFEB6D0893184636
:1005A00007F020FF2B690993184607F01BFFD5F8C9
:1005B0001880404607F016FFEF69384607F012FF33
:1005C000D5F82090484607F00DFF404607F002FF9F
:1005D00020B1D8F80830012B00F08385384607F0A9
:1005E000F9FE18B1BB68012B00F07B85484607F087
:1005F000F1FE002840F07085089B1B79002B41F02C
:10060000EB80304607F0E6FE002800F0A8856A6B14
:10061000D5F8D030784902F1020E9E45C5F834E095
:1006200002DD00234B639E46AB6C734E93F8F237AA
:10063000002B01F05C83286B07F06CFEE86A07F082
:1006400069FE686A07F066FEA86A07F063FED5F8DF
:10065000CC0007F05FFEAB6B296C686A194410226E
:1006600007F078FEAB6B296CA86A1022194407F0DA
:1006700071FEA96BD5F8CC0009F09AFD6B6BA96BE4
:10068000286B194409F094FD6B6BA96BE86A194457
:1006900009F08EFD6A6AAB6B1268286C69691344B5
:1006A000184408F0A9FE286D534E07F093FE002869
:1006B00000F06885AB6BAA6E4F4E934241DAB26C84
:1006C00092F8F22703F1010EC6F838E0002A01F093
:1006D000B883286B07F01EFEE86A07F01BFE686A05
:1006E00007F018FEA86A07F015FED5F8CC0007F051
:1006F00011FEAB6B296C686A1944102207F02AFEC0
:10070000AB6B296CA86A1022194407F023FEA96B71
:10071000D5F8CC0009F04CFD6B6BA96B286B194424
:1007200009F046FD6B6BA96BE86A194409F040FDBE
:100730006A6AAB6B1268286C69691344184408F044
:100740005BFE686D2C4E07F045FE002801F05580D9
:10075000AA6BAB6E284E1344002B41DDB36C93F8AB
:10076000F23702F1FF3EC6F838E0002B01F01E839D
:10077000286B07F0CFFDE86A07F0CCFD686A07F048
:10078000C9FDA86A07F0C6FDD5F8CC0007F0C2FD88
:10079000AB6B296C686A1944102207F0DBFDAB6B68
:1007A000296CA86A1022194407F0D4FDA96BD5F86A
:1007B000CC0009F0FDFC6B6BA96B286B194409F0A8
:1007C000F7FC6B6BA96BE86A194409F0F1FC6A6AE3
:1007D000AB6B1268286C69691344184408F00CFE6E
:1007E000AE69304607F0F6FD002840F0DD8405E0F4
:1007F0000CA001004430FF1F6C19FF1FEE6930464A
:1008000007F0E8FD002840F0D9842E6A304607F052
:10081000E1FD002840F0DC84686CA34E4379002B96
:1008200000F0DF8407F0D6FDB36C002841F0A2820F
:10083000EA6B117B002901F07D83686A07F06AFD8D
:10084000A86A07F067FDD5F8CC0007F063FDAB6B35
:10085000296C686A1944102207F07CFDAB6B296C87
:10086000A86A1944102207F075FDA96BD5F8CC00D1
:1008700009F09EFC6A6AAB6B1268286C69691344C4
:10088000184408F0B9FDAB6C93F8F827002A40F043
:10089000DC8493F8F937002B40F0E384834B5B78DA
:1008A000002B00F0E684824E9BF85870102F40F227
:1008B000E781D5F8BC00DFF80C824FF00009002872
:1008C00000F0BB82068843889A0800EB820204335A
:1008D000B342976880F07082438007F00F06A6F15C
:1008E0000803062B00F2AB81082EC7F3033700F094
:1008F000C682092E00F0C7820A2E40F0C8820A2F55
:10090000DDD0D5F8C4306B49674A01338B4200F320
:10091000F185C2F8C4300EF0ABF8644B1B78002BA5
:100920003FF4B4AD644915A80AF0FCF815A921A854
:100930000AF0CCF821A809F0EFFA219810F084FB16
:1009400096200CF05BFE2E68304607F04BFD6F687A
:10095000384607F047FDD5F80880404607F042FDCD
:10096000D5F80C90484607F03DFD33689A7B1AB1E4
:100970001B7B002B00F01C813B689A7B1AB11B7B10
:10098000002B00F09382D8F800309A7B1AB11B7BC1
:10099000002B00F0AA85D9F800309A7B0AB11B7BA6
:1009A0001BB1159810F050FBBCE7444919A80AF098
:1009B000B9F819A921A80AF089F821A809F0ACFA18
:1009C000219810F041FB96200CF018FED5F800801D
:1009D000404607F007FD6E68304607F003FDAF683C
:1009E000384607F0FFFCD5F81090484607F0FAFCAF
:1009F000D8F800309A7B38461AB11B7B002B00F0E8
:100A00001E8733689A7B0AB11B7B83B107F0E2FC37
:100A1000002859D1484607F0DDFC0646199810F029
:100A200013FB002EC1D0BCE71D9810F00DFB24492C
:100A30001DA80AF077F81DA921A80AF047F821A8F7
:100A400009F06AFA219810F0FFFA96200CF0D6FD12
:100A50002E68304607F0C6FC6F68384607F0C2FCC7
:100A6000D5F81080404607F0BDFC33689A7B12B180
:100A70001B7B002B5FD03B689A7B1AB11B7B002B42
:100A800000F01882D8F800309A7B002ACCD01E7B68
:100A90001D9810F0D9FA002EC9D1199810F0D4FA87
:100AA000159810F0D1FA3DE76C19FF1F0C0CFF1FD1
:100AB000342FFF1FA0860100FC140100B0150100B7
:100AC00080160100B033FF1FAE491DA80AF02AF8B6
:100AD0001DA921A809F0FAFF21A809F01DFA219803
:100AE00010F0B2FA96200CF089FD2E68304607F01F
:100AF00079FC6F68384607F075FCD5F810804046E1
:100B000007F070FC33689A7B1AB11B7B002B00F056
:100B1000F2813B689A7B1AB11B7B002B00F0298580
:100B2000D8F800309A7B12B11B7B002B39D01D986E
:100B300010F08AFAC8E722789349D2074B6140F156
:100B40005886924B1B785BB1914A137813F070036F
:100B500018BF13708D4B00221A702378DE07FCD566
:100B60000BF0D8F802218AF816108AF81710894974
:100B70000122002321A8AAF81420AAF81220AAF81A
:100B80000E30AAF8103009F0CDFF21A80BF0D4F8F0
:100B90000AF0DEFD40F2EE200CF030FD219810F05E
:100BA00053FA1D9810F050FA199810F04DFAF8E623
:100BB00004F072FC0646159810F046FA002E3FF439
:100BC000B1AE64200CF0F2FD686167200CF0EEFD20
:100BD000AB69EE69986068200CF0E8FDB0606920B0
:100BE0000CF0E4FD2B6A98600BF094F86A4808F06A
:100BF0007DFF0AF0ADFD40F2EE200CF0FFFC2B6B08
:100C0000D5F824E0AE6AEF6A93F810C031681B682B
:100C10003A68DEF80000CDF818C03F7C0597367CB6
:100C200004969EF810606F6B039601970026AF6BD9
:100C30000296009708F0FAFD584B1E7026E4B31E8A
:100C4000012BC7F3072240F2CE80052E00F0C780AB
:100C5000042E00F03A85731F022B40F2E1850F2E1F
:100C60007FF44FAEF72A00F2BE80F02A04D0B5F828
:100C7000C030002B3FF445AE104609F087FF40E638
:100C8000736D474A186803681B69934240F0D0802F
:100C9000444B454A1B781078DBB2C0B2834202D283
:100CA000424A12681344181A00283FF402AE9BF817
:100CB0000D31DBF8542023F001038BF80D3110685F
:100CC0003B4A03685B69934240F00A84354B364ADD
:100CD0001B781278DBB2D2B2934201F01B81334908
:100CE000D1F800C002F1010EE64580F0C081BEF1EE
:100CF0003F0F41F28281D5F8B4103F3A885C5FFA29
:100D00008EF1C0B2284AD5F8B8801170B8F1000F42
:100D10000FD073453CBF03EB0C02CEEB02031F4A1E
:100D2000526828BFCEEB0303934202D8002388F811
:100D30000030C1B2FD293FF4BCADDBF86430DFF810
:100D400074E0002B40F0F6809BF859208BF85B1084
:100D5000130600F123864BB2002BC0F2AB879BF940
:100D60000D01DBF8043040F001008BF80D0103B1F8
:100D700098470023CBF86430CBF860308BF85930BB
:100D800097E500BF6C1701006C19FF1F6400001489
:100D90000000024034170100D01001000C0CFF1FAE
:100DA0009D480000EC33FF1FED33FF1F0811FF1FAC
:100DB0001D480000342FFF1F09F0FAFE72B6BC4B2D
:100DC000186940B1BB4B02881B894168C8F81010F4
:100DD0009B1AB84A138162B6C5F8BC007DE5F02ABB
:100DE0005CD9F72A5AD0F13A0E2A3FF68AAD01A310
:100DF00053F822F0BF080000BF080000BF08000041
:100E00000309000003090000BF08000003090000F7
:100E1000BF08000003090000BF080000BF08000071
:100E2000BF08000003090000BF080000BF08000061
:100E3000984700283FF43DAD39E79F4B1B78002BC6
:100E40003FF45FAD72B69A4B186940B1994B028876
:100E50001B894168C8F810109B1A964A138162B624
:100E6000964FC5F8BC0000283FF44BAD0688002E15
:100E70007FF429AD09F09CFEC7F8BC6041E5082F5E
:100E80007FF43FAD1BE5092F7FF43BAD17E50B2E3B
:100E900041F0B7800B2F7FF434AD10E5104609F018
:100EA00075FEA5F8C090D5F8BC0008E50CF00AFE68
:100EB000064680E623780122DB076A6140F1568707
:100EC0007F4B1B78012B0BD07E4A137813F07003F5
:100ED00018BF13707A4B01221A702378D807FCD5FB
:100EE0000AF018FF02218AF816108AF8171001225A
:100EF000002375493EE622787049D70781F8C8304B
:100F000040F12E87714B1B78002B3FF44AAE6D4A9F
:100F1000137813F0700318BF13706C4B00221A7013
:100F20002378D907FCD51D9810F08EF8199810F089
:100F30008BF836E5020600F102859BF85B20F02A6B
:100F400000F04B83F72A00F04883F21882F85B1018
:100F5000DBF860005E49421E9A4200F22A8396F84E
:100F60005B10F02900F09887F72900F095870B06B1
:100F700000F1A58600228BF87520B02A00F0B28619
:100F8000A02A00F0AF86D02A00F0AC86E02A00F05C
:100F9000A986C02A00F0A686002303289BF85CE0FF
:100FA00008BF96F85D008BF876E018BF00204FF080
:100FB000000E4FF0010CB02A8BF874308BF87700DC
:100FC000CBF864E0CBF860E08BF8F8C000F0E08686
:100FD00000F2D786902A00F0DB86A02A00F0D8869F
:100FE000802A00F0D58600229BF875108BF85920D6
:100FF00090292CD0A1F18000C0B260282BD908F034
:10100000EFFD9BF8703013F001083FF44DAC9BF8F6
:10101000702012F0FE0F15D096F8750080F0800356
:10102000602B00F2728196F874309F4200F0C58206
:10103000002F00F0C2825208012A00F0AF86032A76
:1010400000F0C482B8F1000F7FF42EAC31E410B987
:1010500080228BF875209F42D1D0002FCFD09BF8F3
:101060007030DB077FF525AC4FF00008CFE700219B
:101070008E4605EB0E0292F87400C0B242E6836819
:10108000002B00F03E81134A076812680F920F9AF6
:10109000104ED21B934200F2348133681293129B9C
:1010A00003600022012382608373FFF74EBA00BF02
:1010B000B033FF1FC433FF1FA833FF1F6C19FF1F7E
:1010C0006400001400000240501701006500001485
:1010D000342FFF1F4430FF1FD9F80830012B7FF455
:1010E0008BAA686A07F016F9A86A07F013F9D5F811
:1010F000CC0007F00FF9286B07F00CF9E86A07F04D
:1011000009F9286F07F006F96B6C4FF0000883F8B7
:10111000058002F041FA2B6B6F6AD5F828E0EE6A81
:1011200093F810C0386832681B68DEF80010CDF8FC
:1011300018C0367C05969EF8106004963E7C039697
:101140006F6BAE6B0096CDF80880019708F06EFBD0
:10115000AE6D304607F03EF900287FF458AA2A69A0
:10116000B84B1279002A3FF49EAA186E07F032F9A4
:1011700000287FF44CAA286DB24E07F02BF9002806
:101180007FF498AA33681B79002B40F03A86706D83
:1011900007F020F900287FF4DBAAAE69304607F09B
:1011A00019F900283FF42AAB304607F097F9EE69A9
:1011B000304607F00FF900283FF427AB304607F020
:1011C0008DF92E6A304607F005F900283FF424AB6C
:1011D000304607F083F9686C9A4E4379002B7FF410
:1011E00021ABB36C93F8F277002F00F07A8293F87A
:1011F000F027002A3FF41CABB36B316C706A1944C2
:10120000102207F0A7F8B36B316CB06A10221944B2
:1012100007F0A0F8736BB16B306B194408F0C8FF8E
:10122000736BB16BF06A194408F0C2FF726AB36B5A
:101230001268306C71691344184408F0DDF8B36C1F
:1012400093F8F827002A3FF424AB6B6BA96B286F47
:10125000194408F0ADFFAB6C93F8F937002B3FF45D
:101260001DAB286F07F056F8774B5B78002B7FF4A7
:101270001AAB6B6CDFF8CCE15B79002B7FF413AB1E
:10128000DEF8483093F8F237002B7FF40CAB6F4B4D
:10129000DEF8D4201B680C930C9B9B1AC82B7FF69E
:1012A00002ABDEF83030DEF82470DEF828C0DEF85D
:1012B0002C6093F810803868DCF8001032681B68E6
:1012C000CDF81880367C05969CF810600496DEF800
:1012D000346097F810C0DEF840700196DEF8386090
:1012E0000297594F00960126CDF80CC07E7008F089
:1012F0009DFAFFF7D8BABCBF012388F80D30FFF77D
:10130000FFB800238373FFF720B9A0F1F0030F2B80
:101310003FF698AE01A252F823F000BF2914000056
:101320008B140000DD130000931300004510000033
:10133000451000005D130000451000005D13000023
:10134000451000005D1300005D1300005D130000F8
:10135000451000005D1300005D13000000F108035C
:10136000DBB2072B3FF66EAE012202FA03F313F055
:10137000DD0F3FF467AEDBF8543035491A68136867
:101380001B688B4240F03486324B1B685F0522D4C9
:1013900058E6DBF854302E4A18689BF876700368DC
:1013A0001B68934240F0CC852A4A1268520506D544
:1013B000F32006F0B5FD736D186803681B68244AB6
:1013C000934207F07F0140F09E85224B1B68580531
:1013D0007FF538AE084606F0A3FD33E6DBF854305F
:1013E0001B4A18689BF8767003689BF877901B6817
:1013F000934240F0F585174A1268510506D5F22050
:1014000006F08EFD736D186803681B6847EAC917FC
:1014100007F07F019847DBF8543018680368C7F37A
:10142000C6111B6898470DE6BBF87630802B28BFA5
:101430008023002B3FF406AE7733DFF81C909F1912
:1014400015E000BF6C19FF1F0C0CFF1F4430FF1F7D
:10145000DD48000034800440AB2FFF1FB84B1B68F1
:10146000590501D506F05CFDB9453FF4EBADDBF85D
:101470005430B4481A6819F8011F13681B68834276
:101480000846EBD010469847EEE7DBF854309BF85F
:10149000762018689BF877700368120102F07002DA
:1014A00007F00F071B681743A64A934240F03A859E
:1014B000A34A1268520506D5F12006F031FD736D7E
:1014C000186803681B689F4A934240F01B859C4B39
:1014D0001B6859057FF5B6AD384606F021FDB1E52C
:1014E000984726E40023FFF718B800F0A9FD064648
:1014F000FFF761BB002316219348C2F8C43009F0FE
:10150000C9FB924B924A1B680B930B9B12689A1A69
:1015100000F080818F4EA6FB0213DB0803EB8301F2
:10152000A2EB410230328DF8A520002B00F02F8570
:101530002121A6FB0302D20802EB82000139A3EBB2
:101540004003C9B22AA80844303300F8243C1346AB
:10155000002AEED10846C1F1220121AB184409F05E
:1015600099FB7A4B7A4A1B680A930A9B1360FFF730
:10157000D2B923780122DE0785F8C82040F1C6845D
:10158000754B1B78012B3FF40CAB744A137813F0A6
:10159000700318BF1370704B01221A702378DA079A
:1015A000FCD51D980FF050FD19980FF04DFDFFF779
:1015B000F8B901334B66FFF77CB99BF870205208ED
:1015C000012A00F0EB83022A7FF43CAD96F87720E5
:1015D00096F8761008F02CFC34E50BEB030282F849
:1015E0007810B5E4594BD6F8F4171B681393139B86
:1015F0000F695648D26CDB1BB3F57A7F40F2B48397
:10160000D2F8803000681B6B149014981B69086135
:101610001BB28B60D6F8E47707EE903A07EE107AAB
:10162000F8EEE77AB8EEC77AB4EEE77AF1EE10FAA0
:1016300040F39884FA23C6F8FC3796F8FA37002B63
:1016400040F08684012386F8F837012386F8FA37BC
:10165000D36FD6F8E827186B4FF42F730169013B5D
:1016600002FA81F2FAD106F5FB6EDEED007A3C4813
:10167000C6F8E83780FB0210FDEEE77AD117C1EB20
:1016800020223A4417EE901A02EBD272C1EB6202AA
:10169000052AC6F8E427D6F8EC2740F3358141F651
:1016A000B05302F6C4129A4240F33181C6F8EC37C7
:1016B00096F8F237002B40F0BB83012386F8F03711
:1016C000012386F8F237FEF75EBF104609F05EFA96
:1016D000C7F3074009F05AFA380E09F057FAFFF736
:1016E00010B90268917B11B1127B002A3ED193F8A8
:1016F000F137002B3FF4D2A8686A06F00BFEA86A07
:1017000006F008FED5F8CC0006F004FE286B06F0C3
:1017100001FEE86A06F0FEFD286F06F0FBFD0B4BAC
:10172000104A1B680D930D9BC5F8D43000235370ED
:101730006B6CDFF834E05B79002B7FF4B4A89FE595
:1017400034800440DD480000081801004430FF1FC9
:101750004830FF1FCDCCCCCC650000140000024007
:1017600091739F5D0C0CFF1F6C19FF1F706A06F0D0
:10177000D1FDB06A06F0CEFDD6F8CC0006F0CAFD69
:10178000306B06F0C7FDF06A06F0C4FD306F06F05E
:10179000C1FD706A06F0A8FDB06A06F0A5FDD6F896
:1017A000CC0006F0A1FD306B06F09EFDF06A06F05D
:1017B0009BFD306F06F098FD714B724A1B680E93CB
:1017C0000E9BC6F8D4306B6C57705B79DFF8C8E1BC
:1017D000002B7FF468A853E5099B1B79002B7FF44D
:1017E00080AC304606F0F6FD00287EF410AFFEF720
:1017F0005ABF0BF06DFFFFF7A4B933681B79002BBC
:101800003EF4EEAFE86E06F0E5FD00287EF4A0AFF2
:10181000FEF7E6BF30238DF8A530012121209CE69C
:10182000104609F0B3F9C7F3074009F0AFF9072EE6
:101830007FF437AB380E09F0A9F9FFF732BB524FEE
:101840004FF0A0562378D9075BD533784BB13B785E
:1018500013F0700318BF3B70002333702378DA074E
:10186000FCD54A4B01369E42ECD1012166200BF09B
:1018700075FF012167200BF071FF022168200BF03A
:101880006DFF032169200BF069FF2378DB0740F12E
:10189000CC823F4B1B785BB13B4A137813F070034B
:1018A00018BF13703A4B00221A702378DF07FCD55B
:1018B0000AF030FA0221012200238AF816108AF871
:1018C000171021A83349AAF81420AAF81220AAF860
:1018D0000E30AAF8103009F025F921A80AF02CFAE8
:1018E00009F036FF40F2EE200BF088FE21980FF051
:1018F000ABFB19980FF0A8FB15980FF0A5FBFFF7AD
:1019000011B80BF0E5FEA0E7C83A00F11A8241F2E7
:1019100089339A42C6F8EC273FF7CAAEB2F57A7F10
:10192000BEF631AE96F8F237002B00F0118201239B
:1019300086F8F137002386F8F237FEF724BEA1F1CE
:10194000F0000F283FF6F9AA0122824012F0810F21
:1019500000F0C58296F87820F02A00F01C83F72A60
:1019600000F019839EF90D01DEF8043040F001000B
:101970008EF80D01002B7FF4FBA9FFF7FAB900BF29
:101980004430FF1F0C0CFF1F000002400010001429
:1019900065000014641601006C19FF1F02F10C0EA3
:1019A0005FFA8EF3012B7FF6D6A9FD2A3FF4D3A967
:1019B000EF2A00F2698102F0F003802B40F065818C
:1019C00000063FF5C8A901238BF85B208BF85C105B
:1019D000CBF864305FFA8EFEBEF1010F7FF6BFA92F
:1019E000FD2A3FF4BCA9EF2A94BF02F0F001114692
:1019F000A1F180007F283FF6B2A90FF2080E5EF831
:101A000020F000BF811C00005F0D00005F0D000092
:101A10005F0D00005F0D00005F0D00005F0D000016
:101A20005F0D00005F0D00005F0D00005F0D000006
:101A30005F0D00005F0D00005F0D00005F0D0000F6
:101A40005F0D0000811C00005F0D00005F0D0000B5
:101A50005F0D00005F0D00005F0D00005F0D0000D6
:101A60005F0D00005F0D00005F0D00005F0D0000C6
:101A70005F0D00005F0D00005F0D00005F0D0000B6
:101A80005F0D0000811C00005F0D00005F0D000075
:101A90005F0D00005F0D00005F0D00005F0D000096
:101AA0005F0D00005F0D00005F0D00005F0D000086
:101AB0005F0D00005F0D00005F0D00005F0D000076
:101AC0005F0D0000811C00005F0D00005F0D000035
:101AD0005F0D00005F0D00005F0D00005F0D000056
:101AE0005F0D00005F0D00005F0D00005F0D000046
:101AF0005F0D00005F0D00005F0D00005F0D000036
:101B00005F0D0000431C00005F0D00005F0D000032
:101B10005F0D00005F0D00005F0D00005F0D000015
:101B20005F0D00005F0D00005F0D00005F0D000005
:101B30005F0D00005F0D00005F0D00005F0D0000F5
:101B40005F0D0000431C00005F0D00005F0D0000F2
:101B50005F0D00005F0D00005F0D00005F0D0000D5
:101B60005F0D00005F0D00005F0D00005F0D0000C5
:101B70005F0D00005F0D00005F0D00005F0D0000B5
:101B80005F0D0000811C00005F0D00005F0D000074
:101B90005F0D00005F0D00005F0D00005F0D000095
:101BA0005F0D00005F0D00005F0D00005F0D000085
:101BB0005F0D00005F0D00005F0D00005F0D000075
:101BC0005F0D0000291C0000431C0000811C000068
:101BD000431C00005F0D00005F0D0000051C0000AD
:101BE000291C0000051C0000051C0000051C00004D
:101BF000051C0000051C00005F0D0000051C000016
:101C0000051C0000002301228BF875108BF874303E
:101C10008BF876308BF87730CBF86430CBF86030C7
:101C20008BF8F820FFF7E8B9802000228BF87810B5
:101C3000CBF860008BF859200133CBF86430FEF705
:101C400038BE0220CBF86000002BF5D002F00F0365
:101C500096F85C0086F8760000220120013386F8B1
:101C6000743086F8751086F8772072663266C6F88A
:101C7000FC0086F8F80090297FF4BCA9FFF7E8B9CA
:101C80000322CBF86020D7E7134603F0DF0CBCF14A
:101C9000900F3FF495AE03F0BF0CBCF1A00F3FF4E2
:101CA0008FAE03F0EF03C02B3FF48AAE4BB2002B94
:101CB000BFF655A80A4601F10C0E00238AE601F191
:101CC0000C03DBB2012B7FF655A9FD293FF452A985
:101CD000EF2900F2A58101F0F002802A86F8752034
:101CE00040F0968101F00F030133FFF756B9736C92
:101CF0005B79002B7EF49FAC336B776AD6F828C0F3
:101D0000D6F82C8093F810903868DCF80010D8F8DA
:101D100000201B68CDF8189098F81080CDF814803A
:101D20009CF810C0CDF810C097F810C0376C02971F
:101D3000B66BCDF80CC08DE8404007F077FDFEF79C
:101D4000B2BCC6F8EC3796F8F237002B7FF4EFAD53
:101D500096F8F127002A3FF4EDAD86F8F137E9E572
:101D60000BF0B6FCFFF7CEB88B6853E40BF0B0FC79
:101D7000FFF7A6B893F8F227002A3FF43DAAFEF732
:101D800057BDD02A04D0E02A02D0C02A7FF42BA964
:101D90008BF859109BF87510FFF72AB99BF877203C
:101DA0009BF8761008F044F8FFF74CB9736C5B7938
:101DB000002B7EF4DDAC336B776AD6F828C0D6F8FA
:101DC0002C8093F810903868DCF80010D8F80020C8
:101DD0001B68CDF8189098F81080CDF814809CF806
:101DE00010C0CDF810C097F810C0376C0297766B12
:101DF0000196CDF80CC0CDF800E007F017FDFEF716
:101E0000EFBC706E06F0E6FA00287EF453AC706DFD
:101E100006F0E0FA00287EF49BACE86E06F0DAFAF1
:101E200000287EF495ACFEF7DBBC0BF051FC30E5EE
:101E300096F8F037002B3FF443AC002386F8F037D8
:101E40003EE4736C5B79002B7EF443AC336B776AB2
:101E5000D6F828C0D6F82C8093F810903868DCF8B3
:101E60000010D8F800201B68CDF8189098F8108062
:101E7000CDF814809CF810C0CDF810C097F810C0B1
:101E8000376C0297766B0196CDF80CC0CDF800E068
:101E900007F0CCFCFEF755BCF02380229BF8F760DE
:101EA0008BF875308BF876208BF8F730CBF8FC2068
:101EB000002301228BF877308BF874308BF8F820F0
:101EC00007F08EFEF72202238BF879608BF87820DA
:101ED000CBF86430FEF7EDBCFF214FF4004212F462
:101EE0005F4F3FF42AA8002301228BF875108BF86E
:101EF00076308BF877308BF87430CBF8FC208BF889
:101F0000F820B8E639469847FFF79CB80BF0E0FB9D
:101F1000FFF736BB736E002BDED14FF0FF30FF2191
:101F2000FEF712BFF1219847736D186803681B68AC
:101F3000FFF7C9BA527B002A7EF47FACFEF7A4BC3F
:101F4000F3219847736D186803681B68FFF737BA69
:101F500096F8F837002B3FF478AB002386F8F83773
:101F6000FFF773BBD6F8FC37002B05DD013BC6F845
:101F7000FC37002B7FF461AB96F8FA374BB30123A3
:101F800086F8F937002386F8FA37FFF761BB01219D
:101F90002120FFF7E2BA5A1C0BEB030E130AF020C4
:101FA0008BF87620CBF8FC208BF8773001220023C9
:101FB0008BF875008EF878108BF87430CBF864309D
:101FC000CBF860308BF859308BF8F8207020FFF791
:101FD00013B896F8F9170029D4D086F8F937D1E765
:101FE000F2219847736D186803681B68FFF70EBAF3
:101FF000014610469847FFF725B85FFA8EF1FFF7C4
:1020000038B80C2E0FD10C2F7EF47BACFEF757BCEA
:10201000902A7EF4B2AF01F00F030133FEF7BDBF8B
:102020000A46FEF7A8BF0D2E04D10D2F7EF469AC31
:10203000FEF745BC0E2F7EF464ACFEF740BC00BF3B
:102040002DE9F04FDFF88083DFF88093DFF880A37D
:1020500099B0CE49CE4D0CA808F064FD0CA914A887
:1020600008F034FD14A807F057FF14980EF0ECFFA9
:1020700096200BF0C3FAD8F8000006F0B3F9D9F8AF
:10208000000006F0AFF9C34B186806F0ABF9C24B7D
:10209000186806F0A7F92C68204606F0A3F9BF4B94
:1020A000186806F09FF9D8F800301B689A7B1AB1BF
:1020B0001B7B002B00F07C82D9F800301B689A7BD8
:1020C0001AB11B7B002B00F07586B24B186806F026
:1020D00081F90546002840F09F86AF4B186806F04E
:1020E00079F90646002801F02E80AD4B0493AD4BE4
:1020F0000293AD4EAD4BAE4F039310AC2322AD49CE
:10210000149514A815958DF85C50169508F082FC6E
:1021100033689B68002BC1F23480AAFB0312D208FB
:1021200002EB8201A3EB410330338DF840301346BC
:10213000002A01F0F2812046A6460021AAFB03C234
:10214000D20802EB820CA3EB4C0330330EF8013FB4
:1021500001311346002AF1D10DF1600E8E4463184F
:102160000EF81F2C93F800E090F800C000F801EB87
:102170000132C2EB010E724503F801C9F2DB2046C1
:102180000EF09EF82146024614A808F043FC0F22E8
:10219000894914A808F03EFC3B689B68002BC1F2FB
:1021A0001B81AAFB0312D20802EB8201A3EB4103BD
:1021B00030338DF840301346002A01F0B2812046BA
:1021C000A6460021AAFB03C2D20802EB820CA3EBB5
:1021D0004C0330330EF8013F01311346002AF1D190
:1021E0000DF1600E8E4463180EF81F2C93F800E07A
:1021F00090F800C000F801EB0132C2EB010E9645E9
:1022000003F801C9F2DC20460EF05AF821460246D6
:1022100014A808F0FFFB0F22684914A808F0FAFB85
:10222000049B1B689B68002BC1F29380AAFB0312DE
:10223000D20802EB8201A3EB410330338DF840302A
:102240001346002A01F071812046A6460021AAFB10
:1022500003C2D20802EB820CA3EB4C0330330EF81E
:10226000013F01311346002AF1D10DF1600E8E4479
:1022700063180EF81F2C93F800E090F800C000F8E7
:1022800001EB0132C2EB010E724503F801C9F2DB2A
:1022900020460EF015F82146024614A808F0BAFBB5
:1022A0000F22474914A808F0B5FB029B1B689B68E6
:1022B000002BC1F21480AAFB0312D20802EB8201A8
:1022C000A3EB410330338DF840301346002A01F070
:1022D00030812046A6460021AAFB03C2D20802EBA9
:1022E000820CA3EB4C0330330EF8013F013113464F
:1022F000002AF1D10DF1600E8E4463180EF81F2CE8
:1023000093F800E090F800C000F801EB0132C2EB56
:10231000010E724503F801C9F2DB20460DF0D0FF33
:102320002146024614A808F075FB0F22254914A87F
:1023300008F070FB039B1B689B68002BC0F295871D
:10234000AAFB0312D20802EB8201A3EB4103303354
:102350008DF840301346002A01F0DB802046A64667
:102360000021AAFB03C2D20802EB820CA3EB4C03B0
:1023700030330EF8013F01311346002AF1D10DF13F
:10238000600E8E4463180EF81F2C23E02018010005
:10239000681BFF1F7419FF1F7819FF1F7C19FF1F8F
:1023A0009819FF1F9C19FF1F9019FF1FDC19FF1FB1
:1023B0009419FF1F6C190100101901002019010068
:1023C00030190100401901006C19FF1F7019FF1F1F
:1023D000CDCCCCCC93F800E090F800C000F801EB35
:1023E0000132C2EB010E724503F801C9F2DB20464F
:1023F0000DF066FF2146024614A808F00BFB0F22E1
:10240000644914A808F006FB634B1B689B68002B0B
:10241000C0F2F186AAFB0312D20802EB8201A3EB01
:10242000410330338DF840301346002A01F06D80AF
:102430002046A6460021AAFB03C2D20802EB820C6A
:10244000A3EB4C0330330EF8013F01311346002A51
:10245000F1D10DF1600E8E4463180EF81F2C93F825
:1024600000E090F800C000F801EB0132C2EB010E71
:10247000724503F801C9F2DB20460DF021FF214629
:10248000024614A808F0C6FA1322444914A808F01A
:10249000C1FA169A1095119512958DF84C50149B0F
:1024A000002A41F00A8018460EF0CEFD129B1495CA
:1024B000159516958DF85C50002B40F0D78714A821
:1024C00007F02AFD14980EF0BFFD96200BF096F849
:1024D000D8F8000005F086FFD9F8000005F082FF6B
:1024E0002F4B186805F07EFF2E4B186805F07AFF19
:1024F0002D4BD3F800B0584605F074FF2A4B5A68AC
:102500000192104605F06EFF284B186805F06AFF2F
:10251000D8F80030019A1B68997B19B11B7B002BFE
:1025200000F09487D9F800301B68997B19B11B7BA8
:10253000002B00F090871A4B1B681B68997B19B120
:102540001B7B002B00F08C87164B1B681B68997B4C
:1025500019B11B7B002B00F0AA87DBF80030997BB8
:1025600019B11B7B002B00F0CA8713689A7B1AB144
:102570001B7B002B00F0E1870C4B1B681B689A7BD0
:102580001AB11B7B002B00F0088510980EF05CFD43
:10259000B4E500BF90190100381AFF1F901C01001C
:1025A0007419FF1F7819FF1F681BFF1F7C19FF1F7D
:1025B00001232B720C9810AD0EF046FD2846B04951
:1025C00008F0B0FAAF4B1B7A002B00F0AF85AE4994
:1025D000284608F06DFA48230393542302934F26AC
:1025E0004FF0430AA94CAA49DFF8E0B214A808F05A
:1025F00099FA3301E218E158926814A808F00AFA2F
:10260000A44914A808F046FA029B1B01E218E158FD
:102610009268074608F0FEF938469F4908F03AFAF2
:102620004FEA0A13E218E1589268074608F0F2F9F7
:1026300038469A4908F02EFA039B1B01E218E1582C
:102640009268074608F0E6F93846954908F022FAFC
:102650000346284619689A6808F0DCF914A808F0BF
:102660009FF8294614A808F031FA14A807F054FC82
:1026700014A808F095F896200AF0C0FFD8F800706A
:10268000384605F0AFFED9F8000005F0ABFE854BEB
:10269000186805F0A7FE844B186805F0A3FEDBF868
:1026A000000005F09FFED8F800703B689A7B0AB1E5
:1026B0001B7B33B1DBF8000005F08CFE002800F036
:1026C00050837A4B01931B681E60284608F068F817
:1026D0006C4B77491B7A002B0BBF2B233023322204
:1026E000372214A80BBF37273C273E2643260393E7
:1026F000029208F017FA01990B681B681B01E21897
:10270000E158926814A808F085F96A4914A808F0FD
:10271000C1F93301E218E1589268824608F07AF96B
:1027200050465C4908F0B6F93B01E218E15892685E
:10273000824608F06FF95046574908F0ABF9029A03
:102740001301E218E1589268824608F063F9504696
:10275000524908F09FF9039B1B01E218E158926867
:10276000824608F057F95046534908F093F901465C
:10277000284608F0ABF914A808F012F8294614A866
:1027800008F0A4F914A807F0C7FB14A808F008F88B
:1027900096200AF033FFD8F800A0504605F022FE3C
:1027A000D9F8000005F01EFE3E4B186805F01AFE31
:1027B0003D4B186805F016FEDBF8000005F012FE30
:1027C000D8F800A0DAF800309A7B0AB11B7B33B14D
:1027D000DBF8000005F0FEFD002800F0D682DFF8EF
:1027E000F0A0DAF800301E60284607F0D9FF254B2C
:1027F00032491B7A002B0BBF32263726372730276A
:102800000BBF3E23432343223C22059614A80CBF52
:1028100026262B26039707930CBF2B2724270692E7
:10282000029608F07FF9019803681B681B01E21803
:10283000E158926814A808F0EDF8214914A808F0AE
:1028400029F9DAF800301B681B01E218E158926898
:10285000064608F0DFF830461A4908F01BF93B013C
:10286000E218E1589268064608F0D4F83046164956
:1028700008F010F9029B1B01E218E1582AE000BFA2
:10288000A41C0100681BFF1FA0190100DC1CFF1F16
:10289000C0190100F4190100001A01000C1A01000E
:1028A000181A01007419FF1F7819FF1F9019FF1FD4
:1028B000641A0100781A0100B01A0100101B01000F
:1028C000201B0100241B0100441B0100C819FF1F2D
:1028D0009419FF1F9268064608F09CF83046B249EA
:1028E00008F0D8F803990B01E218E15892680646FF
:1028F00008F090F83046AD4908F0CCF805990B0186
:10290000E218E1589268064608F084F83046A84973
:1029100008F0C0F8069A1301E218E15892680646DA
:1029200008F078F83046A34908F0B4F8079B1B017B
:10293000E218E1589268064608F06CF830469E4965
:1029400008F0A8F80146284608F0C0F814A807F0D7
:1029500027FF294614A808F0B9F814A807F0DCFAF4
:1029600014A807F01DFF96200AF048FE934AD8F8F5
:10297000003016685268089704921F46384605F0E2
:1029800031FDD9F8000005F02DFD8D4B186805F0DC
:1029900029FD8C4B186805F025FD304605F022FD19
:1029A000049805F01FFDDBF8000005F01BFDD8F8CA
:1029B00000703A68917B19B1127B002A00F03B83CA
:1029C000D9F800201268917B19B1127B002A00F01F
:1029D00001827B4B186805F0FDFC002800F07D8328
:1029E000794E039A33681A60284607F0D9FE734B74
:1029F000764A1B7A0992002B0BBF37273C274FF0F2
:102A0000430E4FF0480E0BBF322337232B223022C8
:102A1000CDF808E0049707BF4FF03E0E4A274F2736
:102A20004FF0430E6A49CDF814E014A807930692BC
:102A3000039708F077F8019803681B681B01E218F8
:102A4000E158926814A807F0E5FF624914A808F05D
:102A500021F8DAF800301B681B01E218E15892688F
:102A6000074607F0D7FF38465B4908F013F833688C
:102A70001B681B01E218E1589268074607F0CAFF7D
:102A80003846564908F006F8029B1B01E218E15847
:102A90009268074607F0BEFF3846514907F0FAFF33
:102AA00003990B01E218E1589268074607F0B2FF5C
:102AB00038463D4907F0EEFF04990B01E218E15852
:102AC0009268074607F0A6FF3846464907F0E2FF3E
:102AD00005990B01E218E1589268074607F09AFF42
:102AE0003846334907F0D6FF069A1301E218E15839
:102AF0009268074607F08EFF38462E4907F0CAFF56
:102B0000079B1B01E218E1589268074607F082FF15
:102B100038463549354F07F0BDFF0146284607F0D6
:102B2000D5FF14A807F03CFE294614A807F0CEFFF5
:102B300014A807F0F1F914A807F032FE96200AF065
:102B40005DFD1E4BD8F800201B6808931B4B0B94AF
:102B50005B680A931446204605F044FCD9F800004F
:102B600005F040FC164B186805F03CFC154B186846
:102B700005F038FC089805F035FC0A9805F032FCA1
:102B8000DBF8000005F02EFCD8F800402368997BA4
:102B900009B11B7B63B3DBF8000005F01BFC0028C8
:102BA00000F0C08024E000BF001A0100501B0100AB
:102BB0005C1B0100681B0100181A0100681BFF1F45
:102BC0007419FF1F7819FF1F9819FF1F9C19FF1F09
:102BD000101B0100201B0100741B0100801B010061
:102BE000F41901000C1A0100A81B0100DC19FF1FD9
:102BF000099B029A1B681A60134601210C3B3E2B6D
:102C0000FCDC386803600029A5D028460B9C07F03F
:102C1000C7FD764914A807F085FF019B1B681B6858
:102C20001B01E218E158926814A807F0F3FE7049FE
:102C300014A807F02FFFDAF800301B681B01E21818
:102C4000E1589268074607F0E5FE3846694907F003
:102C500021FF33681B681B01E218E15892680746A0
:102C600007F0D8FE6449384607F014FF099B1B683B
:102C70001B681B01E218E1589268064607F0CAFE7D
:102C80005E49304607F006FF0146284607F01EFF62
:102C900014A807F085FD294614A807F017FF14A80B
:102CA00007F03AF914A807F07BFD96200AF0A6FC7D
:102CB000D8F8000005F096FBD9F8000005F092FB6B
:102CC000DBF8000005F08EFB4D4B186805F08AFB21
:102CD000DBF800301B689A7B1AB11B7B002B00F0DD
:102CE000A881D8F8000003689A7B1AB11B7B002BDF
:102CF00000F09F81424B1B681B689A7B0AB11B7BCB
:102D000043B1D9F800301B689A7B002AD2D01B7BD4
:102D1000002BCFD11E46284607F042FD304619B0A1
:102D2000BDE8F08FD9F800301B68997B11B11B7B8F
:102D3000002B54D0334B186805F04CFB002800F0F2
:102D40008D81099B049A1B681A601346012100E0DB
:102D50000C33312BFCDD3868036000293FF4FBAEF7
:102D600053E7D9F800301B689A7B0AB11B7B2BB361
:102D7000244B186805F02EFB002800F06181224BDF
:102D800001931B68C3F800A09FE4D9F800301B68CA
:102D90009A7B0AB11B7BBBB11A4B186805F01AFB72
:102DA000002800F08B81DFF86CA0029ADAF800307E
:102DB0001A6019E5154A1372FFF7FCBB124B019319
:102DC0001B68029A1A6080E4DFF848A0DAF8003045
:102DD0001F6009E50E4E029A33681A6004E6099BEB
:102DE000039A1B681A60134607E700BFDC1B01004B
:102DF000041C01001C1C0100341C01004C1C0100BF
:102E00007C19FF1F7419FF1F9019FF1F681BFF1FFC
:102E10009819FF1F9419FF1F984A994B029210AC02
:102E2000984A994E994D9A4F039204949B4699491A
:102E300014A807F077FE33681B681B01EA18E958ED
:102E4000926814A807F0E6FD0F22934914A807F032
:102E5000E1FD3B681B681B01EA18E958926814A859
:102E600007F0D8FD0F228D4914A807F0D3FDDBF839
:102E700000301B681B01EA18E958926814A807F093
:102E8000C9FD0F22864914A807F0C4FD029B1B68E8
:102E90001B681B01EA18E958926814A807F0BAFDEC
:102EA0000F22804914A807F0B5FD039B1B681B681F
:102EB0001B01EA18E958926814A807F0ABFD192223
:102EC000794914A807F0A6FD14A9049807F0FEFD9F
:102ED00014980EF0B9F8129C0020149015901690DA
:102EE0008DF85C00002C7ED114A807F015F814981A
:102EF0000EF0AAF896200AF081FBD8F8000005F041
:102F000071FAD9F8000005F06DFA684B186805F001
:102F100069FA674B186805F065FA664B1C6820462D
:102F200005F060FA634B5A680192104605F05AFAB0
:102F3000614B186805F056FAD8F80030019A1B6802
:102F4000997B11B11B7B002B37D0D9F800301B685F
:102F5000997B11B11B7B002B36D0544B1B681B682F
:102F6000997B11B11B7B002B35D0514B1B681B6823
:102F7000997B11B11B7B002B53D02368997B09B13E
:102F80001B7B93B113689A7B0AB11B7B23B14A4B1D
:102F9000186805F01FFA60B1049C204607F000FC99
:102FA0000C980EF051F8FFF754B8039B18680BF01B
:102FB000F7FF10980EF048F839E730680BF0F0FF93
:102FC00010980EF041F832E738680BF0E9FF1098DE
:102FD0000EF03AF82BE7DBF800000BF0E1FF109859
:102FE0000EF032F823E7109A0192611C0EF034F8CB
:102FF000034658B1169914901594019A01B90170BD
:103000001146184616940DF0E5F86DE701901498F6
:1030100018B10EF019F8019B149300231593169321
:1030200062E7029B18680BF0BBFF10980EF00CF8DB
:10303000FDE601266FE6124E089F33681F60D3E459
:103040001B4B186805F0C6F900283FF419AB0E4B6E
:1030500001931B68039A1A60FFF737BB144B18687B
:1030600005F0B8F9002849D0099B059A196813465C
:103070000A6001213E2B3FF7C1AD6AE69C19FF1F94
:103080009819FF1FDC19FF1F9019FF1FDC1CFF1F81
:103090009419FF1FD4180100101901002019010014
:1030A0003019010040190100501901007419FF1F67
:1030B0007819FF1F681BFF1F7C19FF1FC24B186880
:1030C00005F088F900283FF468ABDFF808A3039AFD
:1030D000DAF800301A60FFF787BBDBF8000005F074
:1030E00079F900287FF47CACB74B186805F072F9C9
:1030F00098B1B64E059A33681A6075E4089805F0E1
:1031000069F968BB0A9805F065F9099B1B680028F6
:1031100040F0398201461B68ACE7304605F05AF9A9
:1031200020B3AA4E069A33681A605DE4A84928467F
:1031300007F0BEFC432303934F2302934A264FF02C
:103140003E0AFFF74FBA204605F044F9002800F088
:1031500012820CA807F024FB304619B0BDE8F08FAE
:10316000099B069A1B681A601346EFE5049805F060
:1031700031F900283FF402AC944E079A33681A6084
:1031800032E45B42AAFB0312D20802EB8201A3EBFA
:10319000410330332D218DF841308DF84010134616
:1031A000002A00F0DC810DF141000021AAFB03E2BE
:1031B000D20802EB820EA3EB4E03303300F8013F3E
:1031C00001311346002AF1D14A1C18A81044A64622
:1031D00000F81F3C2244204692F800C01EF801BFB0
:1031E00000F801CF0133C3EB010C634502F801B9CC
:1031F000F2DBFEF7C4BF5B42AAFB0312D20802EB6C
:103200008201A3EB410330332D218DF841308DF83D
:1032100040101346002A00F0A6810DF14100002164
:10322000AAFB03E2D20802EB820EA3EB4E0330337B
:1032300000F8013F01311346002AF1D14A1C18A8B9
:103240001044A64600F81F3C2244204692F800C0D5
:103250001EF801BF00F801CF0133C3EB010C634539
:1032600002F801B9F2DBFFF707B95B42AAFB0312D0
:10327000D20802EB8201A3EB410330332D218DF8FC
:1032800041308DF840101346002A00F064810DF1A2
:1032900041000021AAFB03E2D20802EB820EA3EB5D
:1032A0004E03303300F8013F01311346002AF1D1BB
:1032B0004A1C18A81044A64600F81F3C2244204689
:1032C00092F800C01EF801BF00F801CF0133C3EB34
:1032D000010C634502F801B9F2DBFFF788B85B42E5
:1032E000AAFB0312D20802EB8201A3EB41033033A5
:1032F0002D218DF841308DF840101346002A00F042
:1033000026810DF141000021AAFB03E2D20802EB65
:10331000820EA3EB4E03303300F8013F0131134618
:10332000002AF1D14A1C18A81044A64600F81F3CF8
:103330002244204692F800C01EF801BF00F801CFD9
:103340000133C3EB010C634502F801B9F2DBFEF770
:10335000E4BF5B42AAFB0312D20802EB8201A3EB9B
:10336000410330332D218DF841308DF84010134644
:10337000002A00F0E8800DF141000021AAFB03E2E1
:10338000D20802EB820EA3EB4E03303300F8013F6C
:1033900001311346002AF1D14A1C18A81044A64650
:1033A00000F81F3C2244204692F800C01EF801BFDE
:1033B00000F801CF0133C3EB010C9C4502F801B9C1
:1033C000F2DCFEF765BF00BF7819FF1F9819FF1FD9
:1033D000B01901009419FF1F5B42AAFB0312D20827
:1033E00002EB8201A3EB410330332D218DF84130F4
:1033F0008DF840101346002A00F0B9800DF141000D
:103400000021AAFB03E2D20802EB820EA3EB4E03DB
:10341000303300F8013F01311346002AF1D14A1C34
:1034200018A81044A64600F81F3C2244204692F8F3
:1034300000C010F801BF0EF801CF0133C3EB010C3F
:103440009C4502F801B9F2DCFEF7DDBE306809F0F8
:1034500029FDFFF79AB8386809F024FDFFF795B801
:10346000049B186809F01EFDFFF78FB8109A0593AA
:10347000591C002001920DF0EFFD834668B11699AA
:10348000059B14901593019A01B901701146584695
:1034900016930CF09FFEFFF712B8149818B10DF0B8
:1034A000D3FDCDF850B015951695FFF708B8029BDF
:1034B000186809F0F7FCFFF768B8511C0020059365
:1034C00001920DF0C9FD834670B11299019A1090D6
:1034D0001192059B01B901701946584612920CF0E1
:1034E00079FE149BFEF7DFBF109818B10DF0ACFD0C
:1034F000CDF840B0149B11951295FEF7D4BF039BF5
:10350000186809F0CFFCFFF740B88DF84120FEF7AE
:10351000B3BF8DF84120FEF76ABF8DF84120FEF75A
:103520002EBE8DF84120FEF76EBE8DF84120FEF7CD
:10353000AFBE8DF84120FEF7F0BE154B186809F0BC
:10354000B1FCFFF722B88DF84220FEF7A1BE8DF83E
:103550004220FEF7E2BE8DF84220FEF748BF8DF80C
:103560004220FEF70CBE8DF84220FEF785BF8DF895
:103570004220FEF748BE074B186804F02BFF0028D6
:103580007FF4E7AD0CE5079A1A601346FFF7DEBB40
:10359000381AFF1F7C19FF1F2DE9F04F2DED048B0A
:1035A000DFF8A0B2DFF8A0A2DFED968A9FED969A31
:1035B0009DB0964907A807F0B5FA954B1B68002BFC
:1035C00064D0012B01F09780022B01F09A80032B2D
:1035D00001F0A3808E4B5B68002B52D0012B00F0D2
:1035E0006887022B01F0938007A913A807F06EFAF1
:1035F00013A806F091FC13980DF026FD962009F013
:10360000FDFFDBF8000004F0EDFEDAF8000004F046
:10361000E9FE804B186804F0E5FE7F4B186804F063
:10362000E1FE7E4B186804F0DDFE7D4B186804F067
:10363000D9FE7C4B186804F0D5FE7B4B186804F06B
:10364000D1FEDBF800301B689A7B0AB11C7B14B3F7
:10365000DAF800301B689A7B1AB11B7B002B00F054
:103660002E876C4B186804F0B5FE002800F0988097
:10367000FEF7E6FC044607980DF0E6FC002C98D017
:103680005FE06A4907A807F013FAADE7684907A8A1
:1036900007F00EFA9EE70FAE6649304607F042FA91
:1036A000119D1394149415948DF85840002D5CD1FD
:1036B00013A806F031FC13980DF0C6FC962009F013
:1036C0009DFFDBF8000004F08DFEDAF8000004F046
:1036D00089FE504B186804F085FE514B186804F0C1
:1036E00081FEDBF800301B689A7B0AB11B7BEBB1D3
:1036F000DAF800301B689A7B12B11B7B002B30D0AC
:10370000444B1B681B689A7B1AB11B7B002B00F093
:10371000CB86434B1B681B689A7B1AB11B7B002B23
:1037200000F0C2860F980DF08FFCB5E701F0B4FEF3
:1037300005460F980DF088FC002DADD007980DF0D0
:1037400083FC08F0E7FA3C4806F0D0F908F000F8EE
:103750004FF4FA7009F052FF1DB0BDEC048BBDE8C8
:10376000F08F0AF0AFF90546E3E7691C0020DDF8A9
:103770003C800DF071FC074650B1159B13901495D9
:1037800003B903704146384615950CF023FD8FE7C9
:10379000139810B10DF058FC13971494159487E703
:1037A0001D4B186804F016FE002869D11B4B1868E1
:1037B00004F010FE0028C1D1194B186804F00AFE6D
:1037C00004460028BAD1174B186804F003FE0546DA
:1037D000002800F0B8870E4B0D4A1B68002B00F044
:1037E000F487012B00F0E787022B00F0D987032B29
:1037F00040F0E8801149124B09681B680C74146092
:103800001C74DFE0000000000000FA43FC2001000F
:10381000741BFF1F7419FF1F7819FF1F681BFF1F00
:103820007C19FF1FC819FF1FCC19FF1FB42101000D
:1038300054210100FC210100B41C01009819FF1F54
:103840009C19FF1F6C19FF1F7019FF1FA34B1B68EA
:1038500003F5FC6393ED007AF2EE047AB4EEE77AB6
:10386000F1EE10FA4CBF9E489E480BF091F907F01C
:103870006FFF4FF47A7009F0C1FE0B980DF0E4FB76
:1038800099490BA807F04EF90BA913A807F01EF9E8
:103890000122964913A807F0BDF8159C139D002C32
:1038A00040F023840B9B0BB11C70139D00230D93E0
:1038B00028460DF0C9FB0BA913A807F007F9012250
:1038C0008A4913A807F0A6F8159C139D002C40F018
:1038D00022840B9B0BB11C70139D00230D93284673
:1038E0000DF0B2FB0BA913A807F0F0F82D228049C8
:1038F00013A807F08FF8159C139D002C40F000844E
:103900000B9B0BB11C70139D00230D9328460DF0EB
:103910009BFB0BA913A807F0D9F813A806F0FCFA33
:1039200013980DF091FB962009F068FEDBF800007B
:1039300004F058FDDAF8000004F054FD6D4B1868EF
:1039400004F050FD6C4B186804F04CFD6B4B18688C
:1039500004F048FD6A4B186804F044FDDBF80030C1
:103960001B689A7B12B1187B00282FD0DAF8003040
:103970001B689A7B1AB11B7B002B3FF47EAF5D4B1B
:103980001B681B689A7B1AB11B7B002B3FF475AF39
:10399000594B1B681B689A7B1AB11B7B002B00F0EC
:1039A0000485564B1B681B689A7B0AB11B7B33B19D
:1039B000534B186804F00EFD00283FF45EAF0BA8CF
:1039C00006F0EEFE07980DF03FFBF2E5434B4D4E3F
:1039D0001F6807F5FB6307F5FC6207F2DC79C3EDAE
:1039E000008A0493C9ED008A05923C4607F5FA68FF
:1039F000C2ED008A3D4601E0D7F8D4073368DB6F9B
:103A00001B6B1B691BB245F8043F0344C7F8D4374E
:103A1000022009F0F3FD4545EED1D7F8D437D9F8A7
:103A2000005007EE903AF8EEE77A049B87EE898A19
:103A300083ED008A54F8043F07EE903AF8EEE77AF7
:103A400078EE677A17EE900A0CF070FE02460B468D
:103A50000CF0C0FE064628460F460CF067FE0246F4
:103A60000B46304639460CF003FD0DF063F9444532
:103A70000546DFD107EE100AC7EE097AC9F8000043
:103A8000214C224D204F05F10A0817EE900A0CF048
:103A90004DFE41EC100B0DF09DF951EC100B0DF0AB
:103AA00049F9B4F90820059B1860D31D48BF02F1FD
:103AB0000E03B4F90620A06ADB1002FB03F200211A
:103AC0000BF036FC02230122A375E3750023A282CA
:103AD0006282E381238299464BE000BFB419FF1F45
:103AE000AC230100B823010038230100AC19010008
:103AF0007C2301007419FF1F7819FF1F681BFF1F2B
:103B00007C19FF1FB819FF1F5C2EFF1FCC2001007E
:103B10000D2B2CD0027A934229D3817A994226D355
:103B20009A1A4668D2B206EBC206B278CAB1F178E8
:103B3000B9B1797E002940F09883B7F90E2004923C
:103B4000F87DB7F9102097F816C00499B4F814E07E
:103B50000390608ACDF808C08DE8014086480AF0DD
:103B6000B5FA3179E389A27D01FB0233E381454552
:103B700011D0E06915F8013B002800F093810A2B71
:103B8000C6D1A7F80E90027B3B8AF97D454501FB23
:103B900002333B82EDD102227849774F13A80CF013
:103BA00079F813AE0DF14E094FF0000830E00D2BFF
:103BB0002CD0027A934229D3817A994226D39A1A39
:103BC0004568D2B205EBC205AA78CAB1E978B9B1A5
:103BD000797E002940F0B383B7F90E200492F87D76
:103BE000B7F9102097F816C00499B4F814E00390C0
:103BF000608ACDF808C08DE801405F480AF066FA97
:103C00002979E389A27D01FB0233E3814E4511D07E
:103C1000E06916F8013B002800F074810A2BC6D138
:103C2000A7F80E80027B3B8AF97D4E4501FB0233EB
:103C30003B82EDD1524D504F012305F11508A3757C
:103C4000E37530E00D2B2CD0027A934229D3817A90
:103C5000994226D39A1A4668D2B206EBC206B278C7
:103C6000CAB1F178B9B1797E002940F01483B7F96F
:103C70000E200492F87DB7F9102097F816C0049929
:103C8000B4F814E00390608ACDF808C08DE80140D4
:103C900039480AF01BFA3179E389A27D01FB02332E
:103CA000E381454512D0E06915F8013B002800F09A
:103CB00059810A2BC6D14FF00003FB81027B3B8A5E
:103CC000F97D454501FB02333B82ECD102222B49B1
:103CD000294F13A80BF0DEFF13AE4FF0000830E0C1
:103CE0000D2B2CD0027A934229D3817A994226D384
:103CF0009A1A4568D2B205EBC205AA78CAB1E9782A
:103D0000B9B1797E002940F0DC82B7F90E20049227
:103D1000F87DB7F9102097F816C00499B4F814E0AC
:103D20000390608ACDF808C08DE8014012480AF07F
:103D3000CDF92979E389A27D01FB0233E3814E4568
:103D400011D0E06916F8013B002800F03B810A2BF6
:103D5000C6D1A7F80E80027B3B8AF97D4E4501FB58
:103D600002333B82EDD1074D034F022305F10A08D0
:103D7000A375E37539E000BF5C2EFF1FB01C010086
:103D8000D8200100F02001000D2B2CD0027A9342A4
:103D900029D3817A994226D39A1A4668D2B206EB81
:103DA000C206B278CAB1F178B9B1797E002940F083
:103DB0009E82B7F90E200492F87DB7F9102097F88B
:103DC00016C00499B4F814E00390608ACDF808C0D6
:103DD0008DE80140AB480AF079F93179E389A27D99
:103DE00001FB0233E381454512D0E06915F8013B40
:103DF000002800F017810A2BC6D14FF00003FB8189
:103E0000027B3B8AF97D454501FB02333B82ECD1C5
:103E100002229D499B4F13A80BF03CFF13AE2FE0ED
:103E20000D2B2AD0027A934227D3817A994224D348
:103E30009A1A4568D2B205EBC205AA78BAB1E978F8
:103E4000A9B1797E002940F06882F87DB7F90E109B
:103E5000B7F9102097F816C0B4F814E00390608A00
:103E6000CDF808C08DE8014086480AF02FF929797D
:103E7000E389A27D01FB0233E3814E453FF4E6ACCA
:103E8000E06916F8013B002800F000810A2BC7D139
:103E90004FF00003FB81027B3B8AF97D01FB02337B
:103EA0003B82EAE70A2B00F0B6810D2B3FF45FAEB0
:103EB0007A7EB7F90E10002A00F05B8197F816E0C1
:103EC000B7F90A60062212FB0E12B24240F3688272
:103ED0003A8A97F817C0F88102EBCC0212B2014679
:103EE0003A82A68ACDF80CC0608A8DE841406548C8
:103EF0000AF0ECF8A37DE28903EB430302EB4303F2
:103F0000E38134E60A2B00F094810D2B3FF47EAE62
:103F10007A7EB7F90E10002A00F00F8197F816E0AC
:103F2000B7F90A50062212FB0E12AA4240F31C8275
:103F30003A8A97F817C0F88102EBCC0212B2014618
:103F40003A82A58ACDF80CC0608A8DE821404D48A0
:103F50000AF0BCF8A37DE28903EB430302EB4303C1
:103F6000E38153E60A2B00F06B810D2B3FF499AEF1
:103F70007A7EB7F90E10002A00F0E68097F816E076
:103F8000B7F90A60062212FB0E12B24240F3F68124
:103F90003A8A97F817C0F88102EBCC0212B20146B8
:103FA0003A82A68ACDF80CC0608A8DE84140354837
:103FB0000AF08CF8A37DE28903EB430302EB430391
:103FC000E3816EE60A2B00F042810D2B3FF4B7AE81
:103FD0007A7EB7F90E10002A00F0BD8097F816E03F
:103FE000B7F90A50062212FB0E12AA4240F3D08102
:103FF0003A8A97F817C0F88102EBCC0212B2014658
:104000003A82A58ACDF80CC0608A8DE821401D480F
:104010000AF05CF8A37DE28903EB430302EB430360
:10402000E3818CE60A2B00F019810D2B3FF4DBAE07
:104030007A7EB7F90E10002A00F0948097F816E007
:10404000B7F90A60062212FB0E12B24240F39B81BE
:104050003A8A97F817C0F88102EBCC0212B20146F7
:104060003A82A68ACDF80CC0608A8DE841400548A6
:104070000AF02CF8A37DE28903EB430302EB430330
:10408000E381B0E65C2EFF1FB01C01000A2B00F09C
:10409000C9800D2B3FF4F1AE7A7EB7F90E10002ADD
:1040A00044D097F816E0B7F90A50062212FB0E1218
:1040B000AA4240F35E813A8A97F817C0F88102EB72
:1040C000CC0212B201463A82A58ACDF80CC0608AB1
:1040D0008DE82140B14809F0F9FFA37DE28903EBA7
:1040E000430302EB4303E381C7E60C9B9C4260D889
:1040F0000B980D9429460CF06DF8139DFFF7D8BB73
:104100000C9B9C426ED80B980D9429460CF062F8DB
:10411000139DFFF7FBBB0C9B9C4231D80B980D9471
:1041200029460CF057F8139DFFF7D9BBB7F91020BB
:1041300097F817C097F816E0C6E7B7F9102097F878
:1041400017C097F816E0FCE6B7F9102097F817C0EB
:1041500097F816E025E7B7F9102097F817C097F8F9
:1041600016E04EE7B7F9102097F817C097F816E059
:1041700077E7B7F9102097F817C097F816E0B0E680
:10418000611C0B980CF068FF064638B10D9B0B9034
:104190000C94002BC3D103700B98C0E70B9810B19F
:1041A0000CF052FF0B960023139D0C930D93FFF719
:1041B00096BB611C0B980CF04FFF064638B10D9B67
:1041C0000B900C94002B94D103700B9891E70B98F3
:1041D00010B10CF039FF0B960023139D0C930D9337
:1041E000FFF766BB611C0B980CF036FF064638B132
:1041F0000D9B0B900C94002B86D103700B9883E7DA
:104200000B9810B10CF020FF0B960023139D0C931C
:104210000D93FFF77BBB3B8AFA7DF88103EBC2036A
:104220003B82A4E43B8AFA7DF88103EBC2033B8224
:1042300023E63B8AFA7DF88103EBC2033B82E5E487
:104240003B8AFA7DF88103EBC2033B8229E53B8A76
:10425000FA7DF88103EBC2033B8270E53B8AFA7D6D
:10426000F88103EBC2033B82BDE596F90510059189
:10427000B7F90E100491059997F816C0B7F90AE03E
:104280000A4404990CFB0212724500F3DB80F87DAE
:10429000B7F910205AE496F905100591B7F90E10F8
:1042A0000491059997F816C0B7F90AE00A440499F1
:1042B0000CFB0212724500F3AB80F87DB7F91020B9
:1042C000DEE495F905100591B7F90E1004910599F2
:1042D00097F816C0B7F90AE00A4404990CFB0212D9
:1042E000724500F3C980F87DB7F9102016E596F9FC
:1042F00005100591B7F90E100491059997F816C0AD
:10430000B7F90AE00A4404990CFB0212724500F363
:104310008C80F87DB7F9102054E595F90580B7F940
:104320000E1097F816C0B7F90AE042440CFB0212CF
:10433000724500F3AD80F87DB7F910208CE595F952
:1043400005100591B7F90E100491059997F816C05C
:10435000B7F90AE00A4404990CFB021272457EDCAC
:10436000F87DB7F9102040E4B7F9102097F817C08E
:10437000E7E5B7F9102097F817C0A5E6B7F91020C0
:1043800097F817C00DE6B7F9102097F817C068E640
:10439000B7F9102097F817C033E600BF5C2EFF1F57
:1043A000B7F9102097F817C09BE505F0F9F8894B8D
:1043B000186804F017F8874B186803689A7B002A7E
:1043C000F7D01B7B002BF4D10FAC8349204606F0BD
:1043D000A9FB214613A806F079FB13A805F09CFD64
:1043E00013980CF031FE7B4B186803F0FBFF794B00
:1043F000186803689A7B002AF7D01B7B002BF4D146
:104400000F980CF021FE0B980CF01EFEFFF738BA47
:104410004FF00002FA81027B398AF87D02FB00121C
:1044200012B200213A8204912AE44FF00002FA818C
:10443000027B398AF87D02FB001212B200213A8217
:104440000491BFE4A7F80E90027B398AF87D02FB45
:10445000001212B200213A820491FFF777BBA7F84D
:104460000E80027B398AF87D02FB001212B2002115
:104470003A820491FFF7B9BBA7F80E80027B398A14
:10448000F87D02FB001212B200213A82049145E449
:104490004FF00002FA81027B398AF87D02FB00129C
:1044A00012B23A820021D7E4304606F079F9FFF7DC
:1044B00089BA4A4907A806F0FBFAFFF795B8484DB4
:1044C0000FAC4849204606F02DFB214613A806F004
:1044D000FDFA13A805F020FD13980CF0B5FD962009
:1044E00009F08CF8DBF8000003F07CFFDAF800003C
:1044F00003F078FF3C4B186803F074FF3B4B1868DF
:1045000003F070FF334B186803F06CFFDBF80030EA
:104510001B689A7B12B11B7B002B6FD0DAF800303E
:104520001B689A7B1AB11B7B002B00F0BD802E4BC1
:104530001B681B689A7B1AB11B7B002B00F0C8809C
:104540002A4B186803F046FF002800F0F1803C2059
:1045500009F02CF9002840F0E6803C2007F070FDBF
:1045600004250F98224C0CF06FFD07F0D3FB214B74
:104570000220012100229875D87599825982DA812A
:104580001A8204F1080614F8011B1A4804F07CFB97
:10459000B442F8D11CAE303506F8035D344614F849
:1045A000011B144804F070FBC4F10103DE42F6D194
:1045B000114C04F1090514F8011B0E4804F064FBCA
:1045C000AC42F8D107F0C4F84FF4FA7009F016F8CD
:1045D000FFF7B4B87C19FF1FC4230100CC210100F0
:1045E00001000240842201007419FF1F7819FF1F87
:1045F000B42001005C2EFF1FC02001002B78DB07D8
:1046000063D54FF0A0531B78002B56D1DFF80882FA
:10461000734FD8F80030734E1978734D734C0020E7
:1046200009F09CF83B680120197809F097F8336885
:104630000220197809F092F82B680320197809F004
:104640008DF823680420197809F088F8684B1968F8
:104650000C31C9B2052009F081F8664B06201978A3
:1046600009F07CF8D8F800300720197A09F076F8BC
:104670003B680820197A09F071F833680920197A23
:1046800009F06CF82B680A20197A09F067F823689A
:104690000B20197A09F062F8574B1B680C20197A25
:1046A00009F05CF801255CE7142009F07FF8C0B937
:1046B000142007F0C5FC022553E705F073F8002825
:1046C000A4D10F980CF0C0FCFBE609F001F898E7C4
:1046D000282009F06BF848B9282007F0B1FC032521
:1046E0003FE705F05FF80028EBD0E1E705F05AF866
:1046F0000028E6D0F0E7414907A806F0D9F9FEF70F
:1047000069BF3F4907A806F0D3F9FEF763BF3D49EB
:1047100007A806F0CDF9FEF767BF3B4907A806F0EA
:10472000C7F9FEF757BF05F03DF80028C9D014E7D8
:10473000364B186803F04EFE0028C2D0204606F023
:104740002FF8FEF7FBBF324B186803F043FE00283A
:104750003FF438A92F4B2F4A5B68BBB1012B0BD01C
:10476000022B7FF42FA92C491D4B09681B680D747F
:1047700055601D74FFF726B9274819490068096874
:10478000037402230D745360FFF71CB922481449C7
:1047900000680968037401230B745360FFF712B9B2
:1047A000104B11491B6809680120187403230C740D
:1047B0001360FFF707B90B490B48096800680C74D0
:1047C000022103741160FFF7FDB80649064B086823
:1047D00019680123037413600B74FFF7F3B800BF6B
:1047E0009419FF1F9819FF1F9C19FF1FDC19FF1F49
:1047F000A419FF1FA019FF1F381AFF1F6C21010009
:1048000084210100E42101009C2101007C19FF1F8B
:10481000CC19FF1F741BFF1F9019FF1F70B4184B9A
:10482000184D1B782A78D9B2D2B2914222D0164BB9
:104830001C68531CA34214D3002213461348C05CC7
:10484000C0B2134E2A7032684AB1994238BF091972
:10485000CB1A104909688B4201D80023137070BC31
:1048600070473F2B09D90C483F3A0068805CDAB2A8
:10487000C0B2E6E74FF0FF30F1E7DAB2DEE700BFA3
:10488000EC33FF1FED33FF1F0811FF1FE019FF1F5F
:10489000241AFF1F100CFF1F201AFF1F064A074B88
:1048A00010781B78C0B2DBB2984202D2044A126878
:1048B0001044C01A704700BFEC33FF1FED33FF1FD9
:1048C0000811FF1F0846114606F0E4B910B5084666
:1048D0001446114603F0AEFB204610BD08B5044B4C
:1048E0001B685B0502D5084603F01AFB012008BDD2
:1048F00034800440704700BF2DE9F04FDFF8E8A294
:104900002DED028BDAF8280089B0002800F0E5844C
:10491000BAF90820B44CD31D48BF02F10E03BAF90E
:104920000620DB1002FB03F200210AF001FDBAF9B8
:104930000820202A40F39884B4F90610AB4B402697
:104940005225403A5239204600950224019691FBA7
:10495000F4F192FBF4F209B212B207F0E9FADAF8D4
:104960002400A14D02238AF82D30002800F01D8577
:10497000B5F908309E4C202B14BF3D233C238AF808
:104980002C304269002380F8A03080F8A13080F8F4
:104990002C3180F82D3180F82E3180F82F3106CA65
:1049A0000D68C0F834312A43C0F838310A60026912
:1049B0009370426990F83131116813441D7A5B7B22
:1049C00004EBC5051B026D6803F4E06343F0640368
:1049D0002B6090F8323113449D7CDB7D04EBC505E0
:1049E0001B0203F4E0636D6843F064032B60096805
:1049F0005368194205D003692C225A7003690422B6
:104A00009A71036920225A71036980229A709AF977
:104A10003330002B31DBD8B20AF0A4F89AF8330017
:104A20000AF0A8FA012008F0E9FD9AF833303F2B8C
:104A30000AD854F833106E4A91F88002002800F02A
:104A4000AB84012381F800310A2008F0D7FD9AF8E1
:104A500033000AF08FFADAF82400634B68B9186A59
:104A600010B1196E04F066FBDAF84020DAF8501045
:104A7000136823EA0103136003E0DAF854100AF024
:104A80005DFA04215B48584C06F032FD9AF8081094
:104A900001392046C9B204F033FA0421564806F021
:104AA00027FD9AF92D30012B14BF14211021204627
:104AB00004F026FA0421514806F01AFDBAF906302E
:104AC0008F22802B8AF85C2000F0F783602B00F0A7
:104AD000BC8302254448DA21044604F011FA294631
:104AE000204604F00DFA8121204604F009FA9AF8D4
:104AF0005C10204604F004FAD921204604F000FAA4
:104B00009AF92D30012B14BFF1212221204604F007
:104B1000F7F93B48062106F0EBFCDAF82400002800
:104B200000F0AB83A16D0AF009FA07F0F3F83548FD
:104B3000354F364C364EDFF8F89004F0D7FF06F0CC
:104B400007FE4FF4487008F059FD07F0E3F83148CC
:104B500004F0CCFF06F0FCFD6E2008F04FFD07F0DE
:104B6000D9F82D4804F0C2FF06F0F2FD6E2008F0DF
:104B700045FD07F0CFF8294804F0B8FF06F0E8FD3E
:104B80006E2008F03BFD07F0C5F8254804F0AEFFA5
:104B900006F0DEFD6E2008F031FD07F0BBF821487D
:104BA00004F0A4FF06F0D4FD6E2008F027FD07F006
:104BB000B1F81D4804F09AFF06F0CAFD6E2008F017
:104BC0001DFD07F0A7F8194804F090FF06F0C0FD9E
:104BD00007F0A0F804F0E4FC4FF47A7008F00EFD42
:104BE00040F2EE283D682AE05C2EFF1F742401008D
:104BF0000CA0010014290100182901001C29010042
:104C000020290100282901004430FF1FA833FF1F7D
:104C1000F432FF1F282D0100283101002835010042
:104C200028390100283D01002841010028450100E4
:104C3000F032FF1FB3F5FA6F15D809F019FF09F02C
:104C400017FF237843B13378DB0705D53B68D9F8E4
:104C500000209B1A0E2B06D83B6822785B1B002A8B
:104C6000E8D14345E9D9DFF85C83C34EC34D4FF427
:104C7000FA7008F0C3FC4FF002090621C04806F0A4
:104C800009F84A46A8F1040107A80BF003F84946C1
:104C900007A805F0FFFF736D1868036847F6122137
:104CA000DB6998473B680593059BC6F800310024F3
:104CB0004FF6FF7303228C2086F8702086F8584048
:104CC00086F85A4086F859407466346686F8F8408B
:104CD00086F8754086F8744086F8764086F8774006
:104CE000C6F8FC40B366F3660CF0A6F908F148027A
:104CF000A44BC2620363A44A047627230646C0F885
:104D00002480426380F8383000F13C0B04F05AF8FC
:104D100008F14C0208F19403012186F85410326620
:104D20009A499B4AB3664923F166326786F8743024
:104D3000584604F047F886F87890C6F880B0C6F870
:104D400088B04FF40060F667C6F884602E600CF0FF
:104D500073F9804614200CF06FF93B6806930699AE
:104D60008C4A8D4B0161814610214FF4807B01609C
:104D700082F88042C3F800B099F80010D6F880009D
:104D800008F062FE854AC9F804400F21C9F80840BE
:104D9000C8F80010C8F8F497814B82F880422A685E
:104DA000C3F800B0FA23D06FC8F8FC377D4BC8F8C1
:104DB000E447C8F8EC4788F8F04788F8F14788F8E6
:104DC000F24788F8F84788F8F94788F8FA47042145
:104DD000C3F8008008F004FD2B68DC6F637E20467A
:104DE000002B40F02D82236B5A0102F184421346BE
:104DF0000121C2F81011C3F884110322C3F88011F5
:104E000098F8001084F8232008F01EFE654BD3F8B4
:104E1000008008F5FB6208F5FC6108F2DC7B0023EA
:104E200013600292CBF800300391444608F5FA660D
:104E30000B60C146002001E0D8F8D4072B68DB6F77
:104E40001B6B19690BB249F8043F0344C8F8D43707
:104E5000022008F0D3FB4E45EED1D8F8D4379FEDB1
:104E6000527ADBF8005007EE903AF8EEE77A029BB0
:104E700087EE878A83ED008A54F8043F07EE903A64
:104E8000F8EEE77A78EE677A17EE900A0BF04EFCB0
:104E900002460B460BF09EFC8046284689460BF0E6
:104EA00045FC02460B46404649460BF0E1FA0BF042
:104EB00041FFA6420546DFD106EE900ADFED3A7AC1
:104EC000CBF8000086EEA77A01250224374EDFF8E2
:104ED000F88017EE100A0BF029FC41EC100B0BF0D8
:104EE00079FF51EC100B0BF025FF039B186006F0C7
:104EF00011FF0023AAF80E30AAF81030AAF81450B7
:104F0000AAF812508AF816408AF81740284809F083
:104F10003FFE8AF816508AF81750264809F038FEE6
:104F20008AF816408AF81740234809F031FE1D4BD5
:104F30001B6803F5FC6393ED007AF2EE047AB4EE9D
:104F4000E77AF1EE10FA4CBF1C481D4809F020FE2C
:104F500006F0FEFB4FF47A7008F050FB70200CF066
:104F60006BF8002318220290026043609A4600F119
:104F70000C0B012544E000BF342FFF1FB819FF1FA1
:104F8000284A010000B003401060034000B00B400D
:104F9000386003400008FE4300A004400010FE43B8
:104FA00000B00440B419FF1F0000FA43C4490100D7
:104FB000CC200100D8200100F0200100AC2301002A
:104FC000B82301002C4901000CA0010058F833203F
:104FD000DEF8041092F800E280F80CE040F2031EC4
:104FE0004373206082F880A2C1F800E0A56001351B
:104FF000192D4FF0000984F804A04BF8044F1BD082
:105000000C200CF019F856F8049F044610200CF000
:1050100013F83A6807925FFA89F30521079AC0F8F6
:1050200008A03F2B08EBC30E41600260CED980F888
:105030000CA043732060D9E7B14D029B2B60082080
:105040000BF0FAFFFA2227210446AE4FAE4E03F0D2
:1050500015FA2A68AD493C6017690F60AC4D976E30
:105060003760AC48D76D2F6084F805905769AA4C1B
:105070000760AA49D7692760A94E176A0F60A94D32
:10508000976AA948A9493760A94C176B566B2F60DE
:105090000660D56E526E256018200A600BF0CCFFBA
:1050A000024646256FF019044321A24E80F8109065
:1050B000012782F811905760116051619560D460AA
:1050C000182032600BF0B8FF024637219A4E80F864
:1050D0001090022782F811909560D460576011609B
:1050E0005161182032600BF0A7FF02463026934929
:1050F00080F81090032782F811909560D460576073
:105100001660566118200A600BF096FF02468C4824
:1051100082F810902421042782E8820082F81190FE
:105120009560D4600260516118200BF085FF024643
:105130000523844980F8109080F8119006608560FE
:10514000C4604661536018200A600BF075FF024688
:10515000856053217C4E82F81090062582F81190CC
:10516000D460556011605161082032600BF064FF1B
:105170001621C822044603F081F9744A744E146063
:1051800008200BF059FFC8221521044603F076F9D8
:105190007049714A0C600820C2F800900BF04CFF77
:1051A00040F22B121721044603F068F96B496C4A50
:1051B0000C606720C2F8009008F0F8FA05460C2051
:1051C0000BF03AFF29210446C82203F057F9654A3B
:1051D000A5606820146008F0E9FA05460C200BF081
:1051E0002BFF11210446C82203F048F95E4AA5604E
:1051F0006920146008F0DAFA05460C200BF01CFF59
:10520000C8220E21044603F039F95848584A594932
:1052100007601460584BA5605848594D594AC1F869
:1052200000900C21C3F80090C6F80090C5F80090DB
:1052300080F80090116009B0BDEC028BBDE8F08FE2
:1052400008F08AFB2B68D86FCDE5B4F90830102B35
:105250007FF43FAC94F92D30012B14BFAF23102302
:105260008AF85C30022535E4B4F90610464B202656
:105270007325203A7339FFF766BB216C226D0868ED
:10528000236A02430A60002B3FF44FACDA7A002A0B
:105290003FF44BACD00703D53C4A99691160DA7AE8
:1052A000910703D53A4AD9691160DA7A52077FF536
:1052B0003CAC384A1B6A136037E4B4F90830402B21
:1052C0007FF407AC94F92D30012B14BFCF239F231B
:1052D0008AF85C301225FFF7FDBBBAF90830BAF93D
:1052E00006000822073393FBF2F300FB03F00BF0F8
:1052F000A3FECAF8280000287FF40AAB15E400BF1B
:10530000A819FF1FB019FF1FC819FF1F7C19FF1F25
:10531000CC19FF1F6C19FF1F7019FF1F7419FF1F95
:105320007819FF1F681BFF1F6C1BFF1FD819FF1F79
:10533000D019FF1F9019FF1F9419FF1F9C19FF1F01
:105340009819FF1FDC19FF1F381AFF1FBC19FF1F18
:105350008033FF1FC019FF1FA419FF1FC419FF1FAF
:10536000A019FF1F8419FF1F8819FF1F3C1AFF1F78
:105370008C19FF1F741BFF1F781BFF1F341AFF1FA0
:105380008019FF1FD419FF1F3427010000E100E03E
:1053900004E100E008E100E002EBC3035A6813688F
:1053A00023F002031360FFF74FBB95F83100364C32
:1053B00009F0D8FB95F8320009F0D4FB95F93230AA
:1053C00095F9312054F8333054F832002A6A2B64AE
:1053D0000126EE642E651968E86331431960002ADE
:1053E00038D05368294F93E80300056829430160CA
:1053F0001168274D27480F6006F1605606F5805664
:10540000CE600D610860517A58180C3190F82C006C
:1054100053F8215004EBC00149680D60117A581807
:1054200003EB8101007ECD6904EBC00149680D608A
:10543000927A991803EB820391F84020596C04EB9F
:10544000C2035B6819609AF93330002BBFF6E3AAF8
:10545000FFF701BB95F82F0009F084FB95F83000A9
:1054600009F080FB95F930306E6454F83330AE6447
:105470001A6895F92F10AB6322F0010254F831102D
:1054800069631A60DFE700BF0CA0010001401F0044
:105490000110007800001F802DE9F04FDFF8FCA21A
:1054A000DFF8FC92A74FA84DA84E93B0A8490EA8CC
:1054B00005F038FBDAF80820DAF800100EA805F03D
:1054C000A9FA0522A3490EA805F0A4FAD9F80820E4
:1054D000D9F800100EA805F09DFA05229E490EA8E5
:1054E00005F098FA9D4B0EA89A68196805F092FA93
:1054F00005229B490EA805F08DFA9A4B0EA89A68D2
:10550000196805F087FA172297490EA805F082FA64
:105510000EA906A805F0DAFA0E980BF095FD06A97B
:105520000EA805F0D3FA0EA804F0F6FC0E980BF0C6
:105530008BFD962008F062F8386802F053FF286867
:1055400002F050FF894B186802F04CFF884B186836
:1055500002F048FF874B186802F044FF306802F001
:1055600041FF3B681B689A7B22B193F80CB0BBF1FA
:10557000000F29D02B681B689A7B2AB193F80CB0D6
:10558000BBF1000F00F04A81784B1B681B689A7BC7
:105590001AB11B7B002B00F02282754B1B681B6825
:1055A0009A7B1AB11B7B002B00F03882714B186874
:1055B00002F010FF002800F08D8206A805F0F0F838
:1055C000002013B0BDE8F08F6B4C6C490EA805F0BD
:1055D000A9FAD4F83824D4F830140EA805F01AFA31
:1055E00067490EA805F056FAD4F87823D4F870135A
:1055F000804605F00FFA4046624905F04BFAD4F8B0
:105600007823D4F87013804605F004FA40465E49CA
:1056100005F040FAD4F8B822D4F8B012804605F06C
:10562000F9F94046594905F035FA0DF128080146C7
:10563000404605F04BFA0E980BF006FD41460EA8C9
:1056400005F044FA302303A88DF80C308DF80DB026
:105650000AF036FE03A902460EA805F0DBF94C4914
:105660000EA805F017FA404508D08468002C40F0D9
:10567000CB810A9B03B11C7000230C930E980BF096
:10568000E3FC41460EA805F021FA0023302203A8CE
:105690008DF80D308DF80C200AF012FE03A9024699
:1056A0000EA805F0B7F93B490EA805F0F3F94045FF
:1056B00008D08468002C40F09D810A9B03B11C70C7
:1056C00000230C930E98344C0BF0BEFC41460EA800
:1056D00005F0FCF90EA804F01FFC0E980BF0B4FCCA
:1056E000962007F08BFF386802F07CFE286802F0F5
:1056F00079FE206802F076FE306802F073FE3868AA
:1057000003689A7B12B11B7B002B4BD023681B686C
:105710009A7B12B11B7B002B44D02B681B689A7BB1
:105720000AB11B7B3BB133681B689A7B002ADBD034
:105730001B7B002BD8D10A980BF086FC06980BF047
:1057400083FCB3E66C19FF1F7019FF1F7C19FF1F44
:10575000A04A0100E84A0100F04A0100BC1CFF1FFA
:10576000F84A0100CC1CFF1F004B01007419FF1FF9
:105770007819FF1F681BFF1FDC24FF1F404B01002F
:10578000644B0100744B0100844B0100944B0100F9
:10579000A04B0100184B0100C819FF1F9C1CFF1FE4
:1057A000AC1CFF1FAD4CAE48AE49AF4AAF4BD0F872
:1057B0000080D1F800E0256817681E68AC4CAD4841
:1057C000AD49432337224FF02B0C2B60C8F8002043
:1057D000CEF800C03A60336023780024012B0460C7
:1057E0000C6009D00A980BF02FFC06980BF02CFCEB
:1057F000012013B0BDE8F08F28790138000200F4D1
:10580000706040F4404040F00C0005F031FB2B7913
:1058100022462146C02004F00BFBE3E7DFF87C8240
:105820009649974C0EA805F07DF9D8F83824D8F899
:1058300030140EA805F0EEF892490EA805F02AF9EA
:10584000D8F87823D8F87013019005F0E3F8019B9D
:105850008D49184605F01EF9D8F8C823D8F8C013AA
:10586000019005F0D7F8019B8849184605F012F918
:10587000D8F84822D8F84012019005F0CBF8019BE7
:105880008349184605F006F901460AA805F01EF9F5
:105890000E980BF0D9FB0AA90EA805F017F94FF0E6
:1058A000300803A88DF80DB08DF80C800AF008FDC3
:1058B00003A902460EA805F0ADF876490EA805F03A
:1058C000E9F801460AA804F011FC0E980BF0BCFBA5
:1058D0000AA90EA805F0FAF803A88DF80C808DF837
:1058E0000DB00AF0EDFC03A902460EA805F092F8EF
:1058F00069490EA805F0CEF801460AA804F0F6FBA7
:105900000E980BF0A1FB0AA90EA805F0DFF80EA86F
:1059100004F002FB0E980BF097FB962007F06EFE4A
:10592000386802F05FFD286802F05CFD206802F034
:1059300059FD306802F056FD386803689A7B0AB159
:105940001B7BB3B123681B689A7B0AB11B7B83B1B5
:105950002B681B689A7B1AB11B7B002B3FF4EBAEC4
:1059600033681B689A7B002ADBD01B7B002BD8D1C5
:10597000E1E63A4C3A483B493B4A3C4B16680F68D3
:105980002568D0F800C01C6839483A493A4A3C2397
:105990004FF043094FF037084FF0240EC5F8009040
:1059A000CCF80080C7F800E033602360067800245C
:1059B000012E0C6014607FF415AF287901380002C5
:1059C00000F4706040F4E03040F00C0005F050FA54
:1059D0002B7922463146C02004F02AFA02E7032040
:1059E00006F05CFC044606980BF02EFB002C3FF4FE
:1059F0005DADFDE60B9A0368944214D80A980C94A6
:105A000019460AF0E7FB5DE60B9A0368944247D813
:105A10000A980C9419460AF0DDFB2FE6042006F0E4
:105A20003DFC0446DFE7611C0A9801930BF014FB70
:105A3000834640B10C9A0A900B94019B002ADED158
:105A400002700A98DBE70A9818B10BF0FDFACDF85E
:105A500028B000230B930C9334E600BF9019FF1F6E
:105A60009419FF1F9819FF1F9C19FF1FDC19FF1FB6
:105A7000341AFF1FA419FF1FA019FF1F404B01007C
:105A8000C819FF1F644B0100744B0100844B0100D7
:105A9000944B0100A04B0100184B0100DC24FF1FB8
:105AA000611C0A9801930BF0D7FA834640B10C9A17
:105AB0000A900B94019B002AABD102700A98A8E7C8
:105AC0000A9818B10BF0C0FACDF828B000230B9358
:105AD0000C93D3E5306802F07DFC00287FF46DADB7
