:10000000F8FF022099010000E5BC0000E9BB0000F8
:10001000E9BB0000E9BB0000E9BB0000E9BB000050
:10002000E9BB0000E9BB0000E9BB0000E5BC000043
:10003000E5BC0000E9BB0000C19F0000B19F0000CB
:10004000E5BC0000E5BC0000E5BC0000E5BC00002C
:10005000E5BC0000E5BC0000E5BC0000E5BC00001C
:10006000E5BC0000E5BC0000E5BC0000E5BC00000C
:10007000E5BC0000E5BC0000E5BC0000E5BC0000FC
:10008000E5BC0000E5BC0000E5BC0000E5BC0000EC
:10009000E5BC0000E5BC0000E5BC0000E5BC0000DC
:1000A0002D91000021910000E5BC0000E5BC00009E
:1000B000E5BC0000E5BC0000E5BC0000DD6500001B
:1000C000E5BC000005650000E5BC000069640000B7
:1000D000E5BC0000CD630000E5BC0000E5BC00000D
:1000E000E5BC0000E5BC0000E5BC0000E5BC00008C
:1000F000E5BC0000E5BC0000E5BC0000E5BC00007C
:10010000E5BC0000E5BC0000E5BC0000E5BC00006B
:10011000E5BC0000AD670000E5BC0000E5BC0000E8
:10012000E5BC0000E5BC0000E5BC0000E5BC00004B
:10013000E5BC0000E5BC0000E5BC0000E5BC00003B
:10014000E5BC0000E5BC000031630000E5BC000038
:1001500099620000E5BC0000E5BC0000E5BC0000C1
:10016000E5BC0000E5BC000015910000E5BC000006
:10017000E5BC0000E5BC0000E5BC0000E5BC0000FB
:10018000E5BC0000E5BC0000E5BC0000E5BC0000EB
:10019000E5BC0000E5BC000008B55D4B4CF2205208
:1001A0001A804DF628121A8000BF00BF102223F8D3
:1001B0000E2CA3F51F43DE3B4FF030621A60554A08
:1001C0009A60554ADA60554B4FF470021A60544AEF
:1001D000136813F4807304D152490B604FF4A85391
:1001E0001360514B1A78100703D51A7842F00802B1
:1001F0001A704E4B4E492A221A704E4A4E4B8B4271
:1002000004D252F8040F43F8040BF8E74B4B4C4967
:1002100000228B4202D243F8042BFAE749494A4AAA
:10022000002352F8230041F823000133662BF8D154
:10023000464B474A802103F8011B9342FBD1454BB3
:10024000404A1A60444B8A221A70A3F58053242234
:100250005A70A0221A709A799107FCD59A79D20621
:10026000FCD43E4A937903F00C03082B3B4BF9D1A5
:1002700003221A7146225A719A799406FCD5374A9C
:100280009179364B4806FBD5354A4FF082711160A3
:100290000921516020221A709A7902F00C020C2A6E
:1002A000FAD1304B304A1A60304B314A1A60002480
:1002B00007225C6043F8042C2E4AC3F80C2D62B66A
:1002C0000BF014FD174B1A68D1070AD52A4A2B499F
:1002D0001C60146042F8041C10221A60284A294944
:1002E0001160294A127852060ED52549254A086818
:1002F000904209D12048214C00221A60026040F847
:10030000044C102018600A600EF0F6F800F0AEF809
:100310000E200540823F04000100002B88ED00E024
:1003200010D0034014D0034002D0074000E0074043
:10033000841DFF1F54860100080CFF1F841DFF1F32
:10034000BC37FF1F0002FF1F0000000000E400E0B8
:1003500056E400E008ED00E0005006400040064092
:100360004480044004800440C010050014E000E014
:10037000BFD401000000202004D003405A089F632E
:100380001CE00340A5C3945A00F00740FFFFFFFFA5
:10039000FFFFFFFFFFFFFFFFFFFFFFFFFFFFFFFF6D
:1003A000FFFFFFFFFFFFFFFFFFFFFFFFFFFFFFFF5D
:1003B000FFFFFFFFFFFFFFFFFFFFFFFFFFFFFFFF4D
:1003C000FFFFFFFFFFFFFFFFFFFFFFFFFFFFFFFF3D
:1003D000FFFFFFFFFFFFFFFFFFFFFFFFFFFFFFFF2D
:1003E000FFFFFFFFFFFFFFFFFFFFFFFFFFFFFFFF1D
:1003F000FFFFFFFFFFFFFFFFFFFFFFFFFFFFFFFF0D
:10040000FFFFFFFFFFFFFFFFFFFFFFFFDEF9FFFF23
:1004100010B5054C237833B9044B13B10448AFF33E
:1004200000800123237010BD841DFF1F0000000009
:1004300050860100084B10B51BB108490848AFF3BE
:1004400000800848036803B910BD074B002BFBD0A0
:10045000BDE81040184700BF00000000881DFF1FC6
:1004600050860100841DFF1F000000002DE9804818
:10047000ADB003F04FFC0B4B0B4C1B78DFF82CB0EE
:10048000DFF82CA0002B40F09382276C97E80C003B
:100490000025AA42BB603D737D737D601DDD07F1C1
:1004A0000C060AE00C0CFF1FA01DFF1F01000240FC
:1004B000000002403B68AB420DDD56F8040F0DF022
:1004C00055FD33681A790135002AF3D09B687B60AB
:1004D0003B68AB42F1DC7D68BB689D4240F3B2866D
:1004E00001233B73A26C65641368597B3F2900F2BA
:1004F000D886BC4850F8311091F80012C9B2187B68
:10050000884200F07383B848B74F0068139093E8AF
:1005100060001398401BB042C0F0688338681290A6
:10052000129D1973002001211D6098609973136852
:10053000997B29B11B7B1BB9537983F0010353715C
:10054000E56CA94BD5F8F4671B6815933169159BC9
:10055000A64AA548126D5B1AB3F57A7F40F2A486CD
:10056000D2F8803001681B6B169116991B693161B6
:100570001BB2B360D5F8E46707EE903A07EE106A55
:10058000F8EEE77AB8EEC77AB4EEE77AF1EE10FA51
:1005900040F35D86FA23C5F8FC3795F8FA37002B4F
:1005A00040F09686012385F8F837012385F8FA375D
:1005B000D36FD5F8E827186B4FF42F730169013B0F
:1005C00002FA81F2FAD105F5FB67D7ED007A884887
:1005D000C5F8E83780FB0210FDEEE77AD117C1EBD2
:1005E0002022324417EE901A02EBD272C1EB620263
:1005F000052AC5F8E427D5F8EC2740F30E8341F629
:10060000B05302F6C4129A4240F30A83C5F8EC379D
:1006100095F8F237002B41F08680012385F8F037FA
:10062000012385F8F237606D0DF0A0FCA06D0DF090
:100630009DFCE56D28460DF099FCD4F86090484685
:100640000DF094FC2369089318460DF08FFCE769C0
:1006500038460DF08BFC266A30460DF087FCD4F846
:10066000248040460DF082FC38460DF077FC18B12E
:10067000BB68012B00F0F08230460DF06FFC18B122
:10068000B368012B00F0E88240460DF067FC0028BB
:1006900040F0DD8299F80430002B41F03780284685
:1006A0000DF05CFC002800F0D383A56BD4F89430E7
:1006B0004E4A02359D42A56301DD00259563E36C3A
:1006C0004A4E93F8F237002B01F05281606B0DF027
:1006D00059FB206B0DF056FBA06A0DF053FBE06A4E
:1006E0000DF050FBA06F0DF04DFBE36B616CA06A49
:1006F000194410220DF08EFBE36B616CE06A194423
:1007000010220DF087FB0022E16BA06F0DF082FB41
:10071000A36BE16B606B194400220DF07BFBA36BB4
:10072000E16B206B194400220DF074FBA26AE36BAD
:100730001268606CA169134418440AF037F8606DC0
:100740002A4D0DF00BFC002800F09583E36BD4F8E4
:100750008020264D934240DAEA6C92F8F2275E1C24
:10076000EE63002A01F04E81606B0DF00BFB206BF5
:100770000DF008FBA06A0DF005FBE06A0DF002FB2E
:10078000A06F0DF0FFFAE36B616CA06A19441022B0
:100790000DF040FBE36B616CE06A194410220DF030
:1007A00039FB0022E16BA06F0DF034FBA36BE16B12
:1007B000606B194400220DF02DFBA36BE16B206BE5
:1007C000194400220DF026FBA26AE36B1268606CEC
:1007D000A1691344184409F0E9FFA06D034D0DF021
:1007E000BDFB07E0B85401005833FF1FA01DFF1FD9
:1007F00091739F5D002801F05080E26BD4F8803047
:10080000B84D1344002B40DDEB6C93F8F237561EC5
:10081000EE63002B01F03E81606B0DF0B3FA206BAC
:100820000DF0B0FAA06A0DF0ADFAE06A0DF0AAFA88
:10083000A06F0DF0A7FAE36B616CA06A1944102257
:100840000DF0E8FAE36B616CE06A194410220DF0D8
:10085000E1FA0022E16BA06F0DF0DCFAA36BE16B13
:10086000606B194400220DF0D5FAA36BE16B206B8D
:10087000194400220DF0CEFAA26AE36B1268606C94
:10088000A1691344184409F091FFE56928460DF069
:1008900065FB002840F00183256A28460DF05EFBC9
:1008A000002840F00483656A28460DF057FB0028B5
:1008B00040F00783A06C8B4D4679002E00F00A8330
:1008C0000DF04CFBEB6C002841F09580226C117B05
:1008D000002901F00C81A06A0DF054FAE06A0DF0D5
:1008E00051FAA06F0DF04EFAE36B616CA06A1944E7
:1008F00010220DF08FFAE36B616CE06A194410224C
:100900000DF088FA0022E16BA06F0DF083FAA26A65
:10091000E36B1268606CA1691344184409F046FF48
:10092000E36C93F8F827002A40F00A8393F8F9372C
:10093000002B40F012836C4B5B78002B00F015838A
:10094000D4F88800694D4FF00009002800F01281AA
:10095000078843889A0800EB82020433BB429668FA
:1009600080F0CC80438006F00F07A7F10803062B28
:1009700000F29A80082FC6F3033600F01C81092F7D
:1009800000F01D810A2F40F01E810A2EDDD0D4F820
:1009900090305749534A01338B4200F32D86C2F8F9
:1009A00090300CF045FA504B1B78002B3FF46DADA6
:1009B000504917A809F010FD17A923A809F0FCFC5D
:1009C00023A807F01BF923980EF054FE96200BF095
:1009D0001DFB256828460DF0C9FA666830460DF003
:1009E000C5FAA76838460DF0C1FAD4F80C80404625
:1009F0000DF0BCFA2B689A7B12B11B7B002B4FD0F9
:100A000033689A7B1AB11B7B002B00F0EB803846D1
:100A10000DF0A4FA002800F06F8401F039FF0546BC
:100A200017980EF027FE002DC2D064200BF0C6FBF5
:100A3000A06167200BF0C2FBE369256A986068201B
:100A40000BF0BCFBA86069200BF0B8FB636A9860F0
:100A500007F03AF8284807F03FF804F1280506F0B7
:100A6000F1FC40F2EE200BF0D1FAE0CD636B286888
:100A700093F80CE031681B683A68CDF818E03F7BCA
:100A80000597367B04962D7BA76BE66B03950025B7
:100A900002958DE8C0000AF077FB134B1D70F4E45B
:100AA00005F0E8F80546BBE7BB1E012BC6F307229D
:100AB0003AD9052F34D0042F00F0DD857B1F022B9F
:100AC00040F2F9860F2F7FF462AFF72A2CD8F02A74
:100AD00004D0B4F88C30002B3FF459AF104609F025
:100AE00097FC54E7A01DFF1F0C0CFF1F0837FF1FCA
:100AF000A086010040FF0000FCF6000009F09AFC0F
:100B000072B6AF4B186938B1AE4B02881B89416889
:100B100029619B1AAB4A138162B6C4F8880022E7A8
:100B2000F02A57D9F72A55D0F13A0E2A3FF62FAFBF
:100B300001A353F822F000BF4B0900004B0900004D
:100B40004B0900008F0900008F0900004B090000CD
:100B50008F0900004B0900008F0900004B090000BD
:100B60004B0900004B0900008F0900004B090000F1
:100B70004B090000944B1B78002B3FF408AF72B672
:100B80008F4B186938B18F4B02881B8941682961E6
:100B90009B1A8C4A138162B68C4EC4F888000028D8
:100BA0003FF4F5AE0788002F7FF4D3AE09F042FC86
:100BB000C6F88870EBE6082E7FF4E9AEC5E6092E8C
:100BC0007FF4E5AEC1E60B2F40F0C1870B2E7FF41A
:100BD000DEAEBAE6104609F01BFCA4F88C90D4F8FF
:100BE0008800B2E608F002FC054619E7996800297A
:100BF00000F0538376481E68006811901198744D78
:100C0000801B814200F2498329681491149919606C
:100C1000002001219860997389E4C83A00F12E837D
:100C200041F289339A42C5F8EC273FF7F1ACB2F5AF
:100C30007A7FBFF6F8AC95F8F237002B00F02583E9
:100C4000012385F8F137002385F8F237EBE4D8F873
:100C50000830012B7FF41EADA06A0DF093F8E06A16
:100C60000DF090F8A06F0DF08DF8606B0DF08AF824
:100C7000206B0DF087F8606F0DF084F8A36C0022F4
:100C80005A7154491BA809F0A7FB636E002B00F0B2
:100C9000D482012B00F02885022B00F03185032B34
:100CA00000F08E85A36E002B00F0C282012B00F0B5
:100CB0002185022B00F041851BA923A809F07CFBAC
:100CC00023A806F09BFF2398404E0EF0D3FC9620FD
:100CD0000BF09CF92368099318460DF047F96268F8
:100CE000089210460DF042F9A56828460DF03EF92D
:100CF000D4F80C9048460DF039F9D4F86C80404691
:100D00000DF034F9276938460DF030F9236E0A9357
:100D100018460DF02BF9236F0B9318460DF026F9AA
:100D2000099B18460DF01AF9089A002800F07A81FC
:100D3000002529491FA809F04FFB219E23952495E2
:100D400025958DF89850002E40F04D8123A806F08F
:100D500055FF23980EF08EFC96200BF057F926686D
:100D600030460DF003F9676838460DF0FFF8D4F807
:100D7000088040460DF0FAF8D4F8109048460DF07F
:100D8000F5F833689A7B0AB11B7B3BB33B689A7BCF
:100D90001AB11B7B002B00F02281D8F800309A7B1F
:100DA0000AB11B7B2BB148460DF0D8F8002800F0A3
:100DB00035811FA809F020F91B980EF05BFC60E755
:100DC0000837FF1F1C37FF1F0437FF1FA01DFF1F21
:100DD0005833FF1F4C0201004C03010004F04AFF8E
:100DE00006461F980EF046FC002EA2D01B980EF06F
:100DF00041FC4FF48062002194480DF0A5FB94481B
:100E000006F06AFE04F1280506F01CFB4FF4FA70A8
:100E10000BF0FCF8E0CD636B286893F80CE03168C8
:100E20003A681B68CDF818E03F7B0597367B04963F
:100E30002F7BA66BE56B039700278DE8E0000AF097
:100E4000A3F9E56D28460DF089F800287FF42DAC54
:100E50002269804B1279002A3FF471AC186F0DF0B3
:100E60007DF800287FF421AC606D7A4D0DF076F8A6
:100E700000287FF46BAC2B681B79002B40F0EC85CD
:100E8000A86D0DF06BF800287FF4B7ACE569284633
:100E90000DF064F800283FF4FFAC28460BF01AFB75
:100EA000256A28460DF05AF800283FF4FCAC284685
:100EB0000BF010FB656A28460DF050F800283FF44F
:100EC000F9AC28460BF006FBA06C624D4679002E6B
:100ED0007FF4F6ACEB6C93F8F277002F00F0D78339
:100EE00093F8F027002A3FF4F1ACEB6B696CA86A29
:100EF000194410220CF08EFFEB6B696CE86A194400
:100F000010220CF087FFAB6BE96B686B194432461B
:100F10000CF080FFAB6BE96B286B194432460CF088
:100F200079FFAA6AEB6B1268686CA96913441844CC
:100F300009F03CFCEB6C93F8F827002A3FF4F6AC80
:100F4000A36BE16B606F194400220CF063FFE36C4C
:100F500093F8F937002B3FF4EEAC606F0CF012FF02
:100F60003D4B5B78002B7FF4EBACA36C394D5B7988
:100F7000002B7FF4E5ACEB6C93F8F237002B7FF499
:100F8000DFAC364BD5F898201B680E930E9B9B1A4E
:100F9000C82B7FF6D5AC05F1280696E8C0406B6BF0
:100FA000306893F80CC03968DEF800201B68CDF873
:100FB00018C09EF80CE0CDF814E03F7B049796F83B
:100FC0000CE0AE6B6F6C0196ED6B234E0095012526
:100FD000CDF80CE0029775700AF0D6F8B0E408F08E
:100FE00005FA0646FDE6711C0020DDF87C800EF057
:100FF00049FB074650B1259B2390249603B9037003
:101000004146384625960EF0F1F99FE6239810B137
:101010000EF030FB23972495259597E61F980EF048
:1010200029FB86E610460CF099FF08BB28460CF019
:1010300095FF002800F0568101F02AFC05461B9818
:101040000EF018FB002D3FF41CAED2E6380DFF1F4A
:10105000FCFA0000A01DFF1F0C0CFF1F5833FF1FE0
:101060000DF0D8F9002840F08D801F980EF002FB9B
:10107000A6491FA809F0B0F91FA923A809F09CF9F7
:1010800023A806F0BBFD23980EF0F4FA96200AF090
:10109000BDFF256828460CF069FF666830460CF0F5
:1010A00065FFD4F8089048460CF060FFE7683846C2
:1010B0000CF05CFFD4F8108040460CF057FF2B6812
:1010C0009A7B12B11B7B002B52D033689A7B1AB1EA
:1010D0001B7B002B00F09A8048460CF03FFF002855
:1010E00000F0E58028200BF069F8002840F05F83CD
:1010F00028200BF017FF03261F98854D0EF0BAFA33
:101100004FF48062002183480DF01EFA82480221CC
:10111000012200238175C17582824282C3810382CC
:1011200015F8011B7C4808F025F87C4B9D42F7D14F
:1011300030368DF8AD600DF1AD0515F8011B764820
:1011400008F018F8C5F101030DF1AD02DA42F4D14F
:10115000734D15F8011B704808F00CF8714B9D4257
:10116000F7D106F06FF94FF4FA700AF04FFF3DE641
:101170009BF80030DB0752D54FF0A0531B78002BB3
:101180007FF46EAFA36A002019780AF0EFFFE36ADC
:10119000012019780AF0EAFF236B022019780AF07F
:1011A000E5FF636B032019780AF0E0FF636F04200A
:1011B00019780AF0DBFFE16B0C31C9B205200AF0A7
:1011C000D5FF94F8381006200AF0D0FFA36A072054
:1011D000197A0AF0CBFFE36A0820197A0AF0C6FFF1
:1011E000236B0920197A0AF0C1FF636B0A20197A70
:1011F0000AF0BCFF636F0B20197A0AF0B7FFA36FE8
:101200000C20197A0AF0B2FF012675E714200AF0C3
:10121000D5FF38B914200BF085FE02266CE70AF0E2
:101220005FFFA9E70DF0F6F800283FF41EAFF1E7E5
:101230003D491BA809F07EF83EE53C491BA809F092
:1012400079F82FE5BCBF01237B73FFF74BB9D5F8C5
:10125000FC37002B05DD013BC5F8FC37002B7FF484
:101260009CA995F8FA37002B00F0AC83012385F890
:10127000F937002385F8FA37FFF79AB9C5F8EC3744
:1012800095F8F237002B7FF4DBAC95F8F127002AB4
:101290003FF4D9AC85F8F137D5E400219973FFF715
:1012A00046B90021FFF72BB9B368FFF763B9384699
:1012B0000CF054FE002800F090833C200AF07EFFE2
:1012C000002840F0E1833C200BF02CFE042613E7BD
:1012D00095F8F837002B3FF468A9002385F8F83714
:1012E000FFF763B948460CF039FE002800F0188378
:1012F00000F05AFC0546A2E640460CF02FFEB8B9B5
:1013000017980EF0B7F9FFF753BB00BFD4030100E5
:1013100028FF0000380DFF1F4832FF1F30FF00007C
:1013200034FF00003DFF000004030100A40201009F
:10133000A7491BA809F050F81BA923A809F03CF8FD
:1013400023A806F05BFC23980EF094F996200AF08F
:101350005DFE266830460CF009FE656828460CF0F4
:1013600005FEA76838460CF001FED4F81080404610
:101370000CF0FCFD33689A7B28461AB11B7B002BCE
:1013800000F024820CF0EAFD70B938460CF0E6FD5E
:1013900000284FD140460CF0E1FD05461B980EF0A9
:1013A00069F9002DC4D0ABE78A49DFF848821FA84D
:1013B00009F012F81FA923A808F0FEFF23A806F0E1
:1013C0001DFC23980EF056F996200AF01FFE2568A2
:1013D00028460CF0CBFD666830460CF0C7FD276947
:1013E00038460CF0C3FD2B689A7B12B11B7B002B97
:1013F0006BD033689A7B1AB11B7B002B00F0A48062
:1014000038460CF0ABFD05461F980EF033F9002D61
:10141000CAD01B980EF02EF917980EF02BF9FFF793
:10142000C7BA38460CF09AFD05461F980EF022F90F
:10143000002DEED16849DFF8BC811FA808F0CCFF71
:101440001FA923A808F0B8FF23A806F0D7FB23980C
:101450000EF010F996200AF0D9FD266830460CF0FF
:1014600085FD656828460CF081FD276938460CF03B
:101470007DFD33689A7B28461AB11B7B002B00F058
:1014800087800CF06BFD0028CBD09BF80030012248
:10149000DE07227540F12883504B1B78012B0DD0BD
:1014A0009AF8003013F0700318BF8AF800304B4BE5
:1014B00001221A709BF80030DD07FBD51F980EF053
:1014C000D9F81B980EF0D6F81AE79BF80020C8F858
:1014D0001830D00740F17181414B1B786BB19AF8FD
:1014E000003013F0700318BF8AF800303C4B002224
:1014F0001A709BF80030DA07FBD54FF480620021A8
:1015000038480DF021F83849022001220023374DD8
:10151000AA826A82EB812B82A875E87523A808F05D
:101520005BFF23A806F0D4F905F08CFF40F2EE2013
:101530000AF06CFD23980EF09DF81F980EF09AF8B3
:101540001B980EF097F8DBE69BF800300122D907D4
:10155000A26140F14D82224B1B78012B0DD09AF8ED
:10156000003013F0700318BF8AF800301C4B0122C2
:101570001A709BF80030DB07FBD54FF48062002126
:1015800018480CF0E1FF0220012200231849BEE7B1
:101590009BF8002088F81430D20740F11B820F4BD3
:1015A0001B78002B8AD09AF8003013F0700318BF14
:1015B0008AF80030094B00221A709BF80030DF07D0
:1015C000FBD51F980EF056F81B980EF053F897E6CF
:1015D000F4FF0000C4000100B00101006500001428
:1015E00064000014380DFF1F780101004832FF1F0E
:1015F00094010100A01DFF1F00231621B848C2F866
:10160000903008F08DFFB74BB74A1B680D930D9BC8
:1016100012689A1A00F05E81B44DA5FB0213DB0834
:1016200003EB8301A2EB410230328DF8AD20002B99
:1016300000F063822121A5FB0302D20802EB8200A5
:101640000139A3EB4003C9B22CA80844303300F899
:10165000243C1346002AEED10846C1F1220123ABF7
:10166000184408F05DFF9F4B9F4A1B680C930C9B2E
:101670001360FFF796B9104608F0CAFEC6F307409C
:1016800008F0C6FE300E08F0C3FEFFF780B902680E
:10169000917B11B1127B002A55D193F8F137002BC1
:1016A0003FF449A9A06A924D0CF06CFBE06A0CF083
:1016B00069FBA06F0CF066FB606B0CF063FB206BAA
:1016C0000CF060FB606F0CF05DFB864B894A1B6879
:1016D0000F930F9BC4F8983000235370A36C5B7971
:1016E000002B7FF42DA946E483491BA808F022FEB5
:1016F000FFF7D8BA81491BA808F01CFEFFF7DCBA37
:101700007F491BA808F016FEFFF7CCBA089B1B798F
:10171000002B7FF4A1AA28460CF020FC00287EF4C0
:10172000C4AFFFF70CB895F8F037002B3EF478AF54
:10173000002385F8F037FEF773BF72491BA808F045
:10174000F9FDFFF7B9BAA86A0CF01CFBE86A0CF0C7
:1017500019FBA86F0CF016FB686B0CF013FB286BE1
:101760000CF010FB686F0CF00DFBA86A0CF0E4FAAB
:10177000E86A0CF0E1FAA86F0CF0DEFA686B0CF086
:10178000DBFA286B0CF0D8FA686F0CF0D5FA554BE1
:10179000584A1B681093109BC5F89830A36C57707B
:1017A0005B79534D002B7FF4CBA8FFF7E4BB0CF023
:1017B00031FE00283FF459AC9AE40AF091FC8BE624
:1017C00051491BA808F0B6FDFFF76CBA4FF0A055C1
:1017D0009BF80030DF075DD52B7863B19AF80030B5
:1017E00013F0700318BF8AF8003000232B709BF8A9
:1017F0000030DE07FBD5454B01359D42E8D1012184
:1018000066200AF0B3FC012006F002FD022006F07B
:10181000DBFC032006F0B4FC9BF80030D80740F155
:1018200030813B4B1B786BB19AF8003013F070039A
:1018300018BF8AF80030364B00221A709BF800302F
:10184000D907FBD5334D34484FF4806200210CF0AA
:101850007BFE0122002302203049AA826A82EB81AA
:101860002B82A875E87523A808F0B6FD23A806F01A
:101870002FF805F0E7FD40F2EE200AF0C7FB2398B1
:101880000DF0F8FE1B980DF0F5FE17980DF0F2FE26
:10189000FFF78EB80AF024FC9EE72B681B79002B1B
:1018A0003EF4F3AFD4F884000CF058FB00287EF42B
:1018B000A4AFFEF7EABF104608F0AAFDC6F3074042
:1018C00008F0A6FD072F7FF488A9300E08F0A0FDD0
:1018D000FFF783B930238DF8AD3001212120BEE61A
:1018E000880401005833FF1F5C33FF1FCDCCCCCCE4
:1018F000A01DFF1F0C0CFF1FBC0201001C030100F8
:10190000D402010034030100EC02010000100014B5
:10191000650000144832FF1F380DFF1FA8000100AA
:1019200040460CF01BFB00287FF460AA38460CF000
:1019300015FB054600287FF459AA0A980CF00EFB07
:10194000002800F0DD80736E002B00F00781012B72
:1019500000F02281022B00F01581032B7FF42CAACA
:10196000216B626B00230B7363661373FFF724BA5A
:10197000B36C5B79002B7EF4A9AE736BB76AD6F8B3
:101980002CE0D6F830C093F80C803868DEF80010F0
:10199000DCF800201B68CDF818809CF80CC0CDF84E
:1019A00014C09EF80CE0CDF810E097F80CE0776CCE
:1019B0000297F66B0096CDF80CE0019509F0E4FB78
:1019C000FEF7BDBE95F8F91700293FF452AC85F833
:1019D000F9374EE40AF084FBE1E540460CF0BEFA2C
:1019E00000283FF442AB1FA808F006FBFFF7FEB942
:1019F0000AF076FBAFE593F8F267002E3FF475AA84
:101A0000FEF764BFAB6C5B79002B7EF4ADAE6B6B05
:101A1000AF6AD5F82CE0D5F830C093F80C80386860
:101A2000DEF80010DCF800201B68CDF818809CF868
:101A30000CC0CDF814C09EF80CE0CDF810E097F87B
:101A40000CE06F6C0297AD6B0195CDF80CE0009641
:101A500009F09AFBFEF7C1BEE86F0CF07FFA002890
:101A60007EF474AEA86D0CF079FA00287EF4C5AE51
:101A7000D4F884000CF072FA00287EF4BEAEFEF7B3
:101A800004BF0AF02DFBCCE60CF0C4FC00283FF4A8
:101A9000ECAA18E4AB6C5B79002B7EF4BDAE6B6BEB
:101AA000AF6AD5F82CE0D5F830C093F80C803868D0
:101AB000DEF80010DCF800201B68CDF818809CF8D8
:101AC0000CC0CDF814C09EF80CE0CDF810E097F8EB
:101AD0000CE06F6C0297AD6B0195CDF80CE00096B1
:101AE00009F052FBFEF7D1BE0AF0FAFAD4E4527BB9
:101AF000002A7EF4F0AEFEF714BF01212120AEE5EE
:101B00000B980CF02BFA00283FF456A9B36EB3B132
:101B1000012B0AD0022B7FF44FA9A16AE26A0023AD
:101B20000B73A3661373FFF747B9A36AE26A012137
:101B30001973002102231173A366FFF73DB9B16A3F
:101B4000F26A0B7301231373B366FFF735B90C2FD9
:101B50000CD10C2E7EF41BAFFEF7F7BE316B726B0F
:101B600001230B7373661373FFF726B90D2F04D18E
:101B70000D2E7EF40CAFFEF7E8BE0E2E7EF407AFFE
:101B8000FEF7E3BE236B626B01211973002103236F
:101B900011736366FFF710B9326B716B1573022214
:101BA0000B737266FFF708B92DE9F04F744E754F4D
:101BB000DFF8ECA1DFF8ECB1734D91B000244321C4
:101BC00000200494059406948DF81C400DF05AFDF5
:101BD0008046002800F03B85422343226B49059351
:101BE0000693019304900DF061F9432100200C94B9
:101BF0000D940E948DF83C400DF044FD019B814600
:101C0000002800F01A850E9A0C900D9302B902700C
:101C10004223414648460E930DF0E8FB01225C4901
:101C20000CA808F031FB0E9BDDF83080002B40F053
:101C3000F784049A12B11370DDF8308006944046A0
:101C40000DF018FDDDF818800C940D940E948DF8AD
:101C50003C40B8F1000F40F05F8501224C490CA8D0
:101C600008F012FB0E9BDDF83080002B40F0BE84A4
:101C7000049A12B11370DDF83080069440460DF0DE
:101C8000F9FCDDF818800C940D940E948DF83C400E
:101C9000B8F1000F40F01E852D223E490CA808F037
:101CA000F3FA0E9BDDF83080002B40F0AC84049AF0
:101CB00012B11370DDF83080069440460DF0DAFC66
:101CC000DDF818800C940D940E948DF83C40B8F11A
:101CD000000F40F0DD840CA805F090FF0C980DF08B
:101CE000C9FC96200AF092F930680CF03FF9386888
:101CF0000CF03CF9DAF800000CF038F9DBF80000E1
:101D00000CF034F9244B18680CF030F9234B1868A8
:101D10000CF02CF933681B689A7B12B11B7B002BEB
:101D200068D03B681B689A7B1AB11B7B002B00F0C4
:101D30001D84DAF800301B689A7B1AB11B7B002BDC
:101D400000F01484DBF800301B689A7B1AB11B7B0F
:101D5000002B00F06685104B1B681B689A7B0AB14C
:101D60001B7B33B10D4B18680CF0F8F8002800F01D
:101D7000FD8304A808F040F9002011B0BDE8F08F01
:101D8000A01DFF1FA41DFF1F01000240A0040100B1
:101D90006C090100E40401000C1EFF1FB01DFF1FB1
:101DA000A81DFF1FAC1DFF1F3B681B689A7B1AB163
:101DB0001B7B002B00F0BC81DAF800301B689A7B9B
:101DC0001AB11B7B002B00F0C582DBF800301B68CA
:101DD0009A7B1AB11B7B002B00F0C583A74B1B68B5
:101DE0001B689A7B1AB11B7B002B00F0BC83029806
:101DF0000DF040FCB12100200DF044FC02900028C1
:101E000000F06981B1229E490DF050F8B121002007
:101E10000C940D940E948DF83C400DF033FC8046EC
:101E2000002800F07C810E9B0C90B0220D9203B92B
:101E30000370B023404602990E930DF0D7FA0CA818
:101E400005F0DCFE0C980DF015FC96200AF0DEF88B
:101E500030680CF08BF838680CF088F8DAF800007D
:101E60000CF084F8DBF800000CF080F8834B186865
:101E70000CF07CF833681B689A7B002A94D01B7B9B
:101E8000002B91D17F4BDFF814921B680193B12195
:101E90000020089409940A948DF82C400DF0F2FB70
:101EA0008046002800F00681B023B12276490993CC
:101EB0000A93039308900CF0F9FFB12100200C94D1
:101EC0000D940E948DF83C400DF0DCFB039B024614
:101ED000002800F0E5800E990C900D9301B9017077
:101EE000B023414610460E930DF080FA0CA805F081
:101EF00085FE0C980DF0BEFBC8200AF087F830680C
:101F00000CF034F838680CF031F8DAF800000CF016
:101F10002DF8DBF800000CF029F85C4B18680CF089
:101F200025F8D9F800000CF021F8544B18680CF093
:101F30001DF833681B689A7B12B11B7B002B5DD0A8
:101F40003B681B689A7B12B11B7B002B7CD0DAF8B4
:101F500000301B689A7B1AB11B7B002B00F0C180FC
:101F6000DBF800301B689A7B1AB11B7B002B00F05A
:101F70000283464B1B681B689A7B1AB11B7B002BA4
:101F800000F01D83D9F800000BF0E8FF002800F0F6
:101F90003C8408A808F030F8B12100200DF072FB55
:101FA000804600284AD0B12239490CF07FFFB12188
:101FB00000200C940D940E948DF83C400DF062FBC3
:101FC0008146002800F0C3820E9B0C90B0220D9237
:101FD00003B90370B023484641460E930DF006FA4C
:101FE0000CA805F00BFE0C980DF044FB4FF47A7032
:101FF0000AF00CF840460DF03DFBF8E6019A01238B
:1020000093602B78DB0763D5224B1B78012B0BD019
:10201000214A137813F0700318BF13701D4B01226F
:102020001A702B78DA07FCD508980DF023FBB12144
:1020300000200DF027FB80460028B4D10C900D90B5
:102040008DF83C000E90CBE7019A022393602B7829
:10205000D80761D50F4B1B78022BE5D00E4A1378B9
:1020600013F0700318BF13700A4B02221A702B78FA
:10207000DB07FCD508980DF0FDFAD8E7B01DFF1F6F
:1020800014050100BC1DFF1FC80501000C1EFF1F29
:102090007C0601006700001400000240641FFF1F5F
:1020A00003900C9818B10DF0E5FA039A0C920D9478
:1020B0000E941BE7089818B10DF0DCFACDF82080DB
:1020C00009940A940C940D940E948DF83C400DE7FD
:1020D0000AF006F898E70C900D908DF83C000E90F1
:1020E000ADE6019A032393602B78D90740F155821E
:1020F000904B1B78032B97D08F4A137813F0700303
:1021000018BF13708B4B03221A702B78D807FCD59D
:1021100008980DF0AFFA8AE709F0E2FF9AE70C9809
:1021200018B10DF0A7FACDF830800D940E9486E624
:10213000824BDFF81C921B680193B12100200894A8
:1021400009940A948DF82C400DF09CFA80460028E2
:1021500000F0BF80B023B122794909930A93039319
:1021600008900CF0A3FEB12100200C940D940E9465
:102170008DF83C400DF086FA039B0246002800F0E3
:102180009E800E990C900D9301B90170B0234146C9
:1021900010460E930DF02AF90CA805F02FFD0C98AF
:1021A0000DF068FAC82009F031FF30680BF0DEFE50
:1021B00038680BF0DBFEDAF800000BF0D7FEDBF836
:1021C00000000BF0D3FE5F4B18680BF0CFFED9F880
:1021D00000000BF0CBFE5C4B18680BF0C7FE3368B9
:1021E0001B689A7B12B11B7B002B32D03B681B68AB
:1021F0009A7B12B11B7B002B46D0DAF800301B68AB
:102200009A7B12B11B7B002B74D0DBF800301B686B
:102210009A7B1AB11B7B002B00F0B681494B1B68DF
:102220001B689A7B1AB11B7B002B00F01F82D9F828
:1022300000000BF093FE00287FF4ABAE424B186811
:102240000BF08CFE00287FF4A4AE08980DF012FA73
:1022500073E7019A012393602B78DA0747D53B4B4C
:102260001B78012B3FF4E0AE334A137813F0700370
:1022700018BF1370354B01221A702B78D907FCD583
:1022800008980DF0F7F9D2E6019A022393602B78B3
:10229000DB074BD52D4B1B78022B3FF4C5AE264AEE
:1022A000137813F0700318BF1370284B02221A70B2
:1022B0002B78DA07FCD508980DF0DCF9B7E6039027
:1022C0000C9818B10DF0D6F9039A0C920D940E9457
:1022D00062E7089818B10DF0CDF9CDF82080099487
:1022E0000A940C940D940E948DF83C4054E709F038
:1022F000F7FEB4E7019A032393602B78D80740F1E7
:102300005881124B1B78032B3FF48EAE0A4A137888
:1023100013F0700318BF13700C4B03221A702B7844
:10232000DB07FCD508980DF0A5F980E609F0D8FE8A
:10233000B0E700BF6700001400000240C01DFF1F8F
:10234000C80501000C1EFF1FB01DFF1F6800001410
:10235000641FFF1F9E4BDFF890921B680193B12111
:102360000020089409940A948DF82C400DF08AF905
:102370008046002800F0BF80B023B1229549099320
:102380000A93039308900CF091FDB12100200C9466
:102390000D940E948DF83C400DF074F9039B0246A9
:1023A000002800F09E800E990C900D9301B90170E9
:1023B000B023414610460E930DF018F80CA805F016
:1023C0001DFC0C980DF056F9C82009F01FFE30686E
:1023D0000BF0CCFD38680BF0C9FDDAF800000BF00B
:1023E000C5FDDBF800000BF0C1FD7B4B18680BF05E
:1023F000BDFDD9F800000BF0B9FD784B18680BF063
:10240000B5FD33681B689A7B12B11B7B002B32D061
:102410003B681B689A7B12B11B7B002B46D0DAF815
:1024200000301B689A7B12B11B7B002B74D0DBF849
:1024300000301B689A7B1AB11B7B002B00F0B08028
:10244000654B1B681B689A7B1AB11B7B002B00F045
:102450001681D9F800000BF081FD00287FF499ADBA
:102460005E4B18680BF07AFD00287FF492AD089857
:102470000DF000F973E7019A012393602B78D907D7
:1024800047D5574B1B78012B3FF4CEAD554A1378F7
:1024900013F0700318BF1370514B01221A702B7880
:1024A000D807FCD508980DF0E5F8C0E5019A02239D
:1024B00093602B78DA0753D5494B1B78022B3FF4F6
:1024C000B3AD484A137813F0700318BF1370444B30
:1024D00002221A702B78D907FCD508980DF0CAF89B
:1024E000A5E503900C9818B10DF0C4F8039A0C926E
:1024F0000D940E9462E7089818B10DF0BBF8CDF872
:10250000208009940A940C940D940E948DF83C400C
:1025100054E709F0E5FDB4E7019A032393602B78B3
:10252000DB0749D52E4B1B78032B3FF47DAD2D4A9D
:10253000137813F0700318BF1370294B03221A701D
:102540002B78DA07FCD508980DF094F86FE50C9815
:1025500018B10DF08FF8CDF830900D940E943FE542
:1025600009F0BEFDA8E702980DF084F804980DF07C
:1025700081F8FFF724BB019B0420986005F048FE1A
:1025800008980DF077F852E5019B0420986005F05B
:102590001BFE08980DF06EF849E509F0A1FDA7E5CE
:1025A000019B0420986005F0EBFD08980DF062F89F
:1025B0003DE509F095FDA4E609F092FDB2E7019B27
:1025C0000520986005F024FE08980DF053F82EE5DC
:1025D000C41DFF1FC80501000C1EFF1FB01DFF1FFB
:1025E0006900001400000240641FFF1F059A934217
:1025F00000F2D1800498069341460CF0F7FEDDF816
:102600003080FFF73BBB059A934200F2A780049805
:10261000069341460CF0EAFEDDF83080FFF74DBB33
:10262000059A934200F2D4800498069341460CF038
:10263000DDFEDDF83080FFF702BB0C9818B10DF01D
:1026400019F8CDF830900D940E94FFF7E7BA04987E
:1026500018B10DF00FF8CDF81080059406940C9485
:102660000D940E948DF83C40FFF7D8BA019B0520DD
:10267000986005F0A9FD08980CF0FCFFD7E4019BD9
:102680000520986005F07CFD08980CF0F3FFCEE47F
:10269000049A019208F1010100200CF0F3FF814639
:1026A00070B10E9B0C90CDF83480019A03B9037081
:1026B00011464846CDF838800CF098FEFFF70BBB6A
:1026C0000C9818B10CF0D6FFCDF830900D940E9404
:1026D000FFF701BB049A019208F1010100200CF000
:1026E000D1FF814670B10E9B0C90CDF83480019AD9
:1026F00003B9037011464846CDF838800CF076FED9
:10270000FFF7CABA0C9818B10CF0B4FFCDF83090AE
:102710000D940E94FFF7C0BA049A019208F10101DA
:1027200000200CF0AFFF814670B10E9B0C90CDF8ED
:102730003480019A03B9037011464846CDF83880B9
:102740000CF054FEFFF789BA0C9818B10CF092FF08
:10275000CDF830900D940E94FFF77FBA591C049871
:1027600001930CF08FFF814648B1069A019B0490BB
:102770000593002A7FF44CAF0270049848E7049850
:1027800018B10CF077FFCDF8109005940694DDF8A1
:102790003080FFF792BA591C049801930CF072FF35
:1027A000814648B1069A019B04900593002A7FF464
:1027B00022AF027004981EE7049818B10CF05AFF7B
:1027C000CDF8109005940694DDF83080FFF756BAE6
:1027D000591C049801930CF055FF814648B1069AA4
:1027E000019B04900593002A7FF41FAF02700498A8
:1027F0001BE7049818B10CF03DFFCDF8109005943C
:102800000694DDF83080FFF71ABA1F4B18680BF0FA
:10281000A5FB00287FF4BDAB08980CF02BFFFFF759
:1028200036BB08F033FA184B18680BF09FFB164BB9
:102830001868984603689A7B002AF6D01B7B002B09
:10284000F3D1124908A807F0C7FD08A90CA807F0A2
:10285000B3FD0CA805F0D2F90C980CF00BFFD8F8DA
:1028600000000BF083FB084B186803689A7B002A72
:10287000F7D01B7B002BF4D108980CF0FBFE0498DA
:102880000CF0F8FEFFF79BB9B01DFF1F30070100E9
:102890002DE9F04FDFF84C93DFF84CA3DFF84C83C1
:1028A00097B0BB490AA807F097FD0AA912A807F03C
:1028B00083FD12A805F0A2F912980CF0DBFE962019
:1028C00009F0A4FBD9F800000BF050FBDAF8000087
:1028D0000BF04CFBAF4B18680BF048FBAE4B186885
:1028E0000BF044FBAD4B18680BF040FBAC4B186889
:1028F0000BF03CFBD9F800301B689A7B1AB11B7BAC
:10290000002B00F05C83DAF800000BF027FB0028B6
:1029100000F0E483A34E002333700A980EAD0CF050
:10292000A9FE2846A04907F057FD3378002B00F098
:10293000B8879E49284607F0FDFC4823039354239B
:10294000019343234FF04F0B0293994C99499A4FAF
:1029500012A807F041FD04EB0B1112A807F0E2FCEE
:10296000964907F0D1FC019B04EB031107F0DAFC58
:10297000934907F0C9FC029B04EB031107F0D2FC5A
:10298000904907F0C1FC039B04EB031107F0CAFC5C
:102990008D4907F0B9FC0346284619689A6807F084
:1029A00073FC12A807F028FB294612A807F004FDC3
:1029B00012A805F023F912A807F01EFB962009F0D3
:1029C00025FBD9F8008040460BF0D0FADAF8000079
:1029D0000BF0CCFA6F4B18680BF0C8FA6E4B186806
:1029E0000BF0C4FA38680BF0C1FAD9F80080D8F8B7
:1029F00000309A7B0AB11B7B2BB138680BF0AEFA22
:102A0000002800F0EF82714B00931B68C3F800B000
:102A1000284607F0F1FA33786D49002B0BBF2B23C2
:102A20003023322237220CBF4FF0370E4FF03C0ECE
:102A300012A80CBF4FF03E084FF04308CDF804E059
:102A40000292039307F0C8FC00980368196812A863
:102A500004EB011107F066FC5E4907F055FC04EB3E
:102A6000081107F05FFC554907F04EFC019904EB93
:102A7000011107F057FC524907F046FC029A04EB9B
:102A8000021107F04FFC4F4907F03EFC039B04EB9B
:102A9000031107F047FC504907F036FC0146284671
:102AA00007F08AFC12A807F0A7FA294612A807F037
:102AB00083FC12A805F0A2F812A807F09DFA962050
:102AC00009F0A4FAD9F800B058460BF04FFADAF83A
:102AD00000000BF04BFA2F4B18680BF047FA2E4B07
:102AE00018680BF043FA38680BF040FAD9F800B0D8
:102AF000DBF800309A7B0AB11B7B2BB138680BF0F6
:102B00002DFA002800F08682DFF8E4B0DBF8003010
:102B1000C3F80080284607F06FFA33782F49002B5E
:102B20000CBF4FF0320E4FF0370ECDF814E00CBF53
:102B30004FF0370E4FF0300ECDF80CE00BBF4FF0DA
:102B4000260E4FF02B0E3E2343230CBF43223C2284
:102B5000CDF808E012A80CBF4FF02B0E4FF0240E5A
:102B6000CDF804E00692079307F036FC009803685E
:102B7000196812A804EB011107F0D4FB184907F0FB
:102B8000C3FBDBF80030196804EB011132E000BF31
:102B9000E0070100A81DFF1FAC1DFF1F0C1EFF1F3B
:102BA000B01DFF1F601FFF1F640C010060090100C2
:102BB000C820FF1F80090100001EFF1FB40901008B
:102BC000C0090100CC090100D8090100C81DFF1F80
:102BD000240A0100380A0100700A0100D00A01002D
:102BE000E00A0100A01DFF1FA41DFF1FCDCCCCCC0F
:102BF000CC1DFF1F07F096FBBD4907F085FB019A2E
:102C000004EB021107F08EFBBA4907F07DFB029935
:102C100004EB011107F086FBB74907F075FB039938
:102C200004EB011107F07EFBB44907F06DFB059939
:102C300004EB011107F076FBB14907F065FB069A3A
:102C400004EB021107F06EFBAE4907F05DFB079B3A
:102C500004EB031107F066FBAB4907F055FB014697
:102C6000284607F0A9FB12A807F0C6F9294612A8C2
:102C700007F0A2FB12A804F0C1FF12A807F0BCF9EC
:102C8000962009F0C3F97368D9F800800493404690
:102C90000BF06CF9DAF800000BF068F99B4B186840
:102CA0000BF064F99A4B18680BF060F9994B1868AF
:102CB0000BF05CF904980BF059F938680BF056F9F1
:102CC000D9F80080D8F800309A7B1AB11B7B002B12
:102CD00000F0AD81DAF800000BF040F9002800F0B8
:102CE000AD81DFF86C82029AD8F800301A6028466D
:102CF00007F082F93378884A0792002B0CBF4FF017
:102D0000370E4FF03C0ECDF80CE00CBF4FF04A0EE2
:102D10004FF04F0ECDF808E0804A09920BBF4FF0FC
:102D2000430E4FF0480E322337230CBF2B223022A4
:102D3000CDF804E07A4906920CBF4FF03E0E4FF0FA
:102D4000430E12A8CDF810E0059307F045FB00985C
:102D50000368196812A804EB011107F0E3FA71493E
:102D600007F0D2FADBF80030196804EB011107F024
:102D7000D9FA6D4907F0C8FAD8F80030196804EBA1
:102D8000011107F0CFFA694907F0BEFA019904EB87
:102D9000011107F0C7FA664907F0B6FA029904EB89
:102DA000011107F0BFFA544907F0AEFA039904EB9A
:102DB000011107F0B7FA5F4907F0A6FA049904EB8E
:102DC000011107F0AFFA4E4907F09EFA069A04EB9C
:102DD000021107F0A7FA4B4907F096FA059B04EB9E
:102DE000031107F09FFA544907F08EFA014628466E
:102DF00007F0E2FA12A807F0FFF8294612A807F038
:102E0000DBFA12A804F0FAFE12A807F0F5F89620F3
:102E100009F0FCF87368D9F80060089330460BF0AD
:102E2000A5F8DAF800000BF0A1F8384B18680BF0A1
:102E30009DF8374B18680BF099F8364B18680BF073
:102E400095F808980BF092F838680BF08FF8D9F8DD
:102E500000603368997B09B11B7B2BB138680BF09C
:102E60007DF8002800F0CA80079B019A1B681A6051
:102E7000134601210C3B3E2BFCDC099A10680360D1
:102E80000029CBD0284607F0B7F82C4912A807F044
:102E9000A3FA009B1B68196812A804EB011107F044
:102EA00041FA274907F030FADBF80030196804EBE3
:102EB000011107F037FA234907F026FAD8F8003055
:102EC000196804EB011107F02DFA1F4907F01CFAED
:102ED000079B1B68196804EB011107F023FA1B49D3
:102EE00007F012FA0146284607F066FA12A831E008
:102EF000E40A0100040B0100C0090100100B0100ED
:102F00001C0B0100280B0100D8090100A81DFF1FA0
:102F1000AC1DFF1F0C1EFF1FD41DFF1F141EFF1F23
:102F2000D00A0100E00A0100340B0100400B01004F
:102F3000B4090100CC090100680B01009C0B0100E1
:102F4000C40B0100DC0B0100F40B01000C0C0100B0
:102F5000D01DFF1F07F050F8294612A807F02CFAE1
:102F600012A804F04BFE12A807F046F8962009F0CC
:102F70004DF8D9F8006030460AF0F8FFDAF80000A2
:102F80000AF0F4FF38680AF0F1FF4E4B18680AF0B7
:102F9000EDFF3B681B689A7B1AB11B7B002B00F08E
:102FA0008E80D9F8006030460AF0D8FF044650B150
:102FB000284607F021F8204617B0BDE8F08F424EB2
:102FC00001233370A9E43F4B1B681B689A7B12B145
:102FD0001B7B002BECD0DAF800000AF0BFFF0028C2
:102FE000E6D1C8E7DAF800000AF0B8FF002833D0CD
:102FF000364B00931B68019A1A6009E5DAF8000065
:103000000AF0ACFF002834D0079B029A1B681A60B4
:1030100013462EE7DAF800000AF0A0FF002840D09F
:10302000DFF8B4B0019ADBF800301A6072E5DFF81F
:10303000A480019AD8F800301A6058E6244B18682A
:103040000AF08CFF002800F0FB83DFF88880039AE9
:10305000D8F800301A604AE61D4B18680AF07EFF67
:10306000002800F04781194B00931B68029A1A60F0
:10307000CEE4174B18680AF071FF002800F0488171
:10308000079B039A1B681A601346012100E00C336A
:10309000312BFCDD099A1068036000293FF4BEAEB5
:1030A000F0E60B4B18680AF059FF002800F0418148
:1030B000DFF824B0029ADBF800301A602AE5012418
:1030C00076E700BFB01DFF1F601FFF1FC81DFF1F59
:1030D000A81DFF1FD01DFF1FCC1DFF1F9C4B186894
:1030E0000AF03CFF0546002800F05481994B9A4AAB
:1030F00002939A4B00920EAC994A9A4E9A4D9B4F6E
:10310000019203949B469A4912A807F065F9336827
:103110001B681B01EA18E958926812A807F0B4F876
:103120000F22944912A807F0AFF83B681B681B01F7
:10313000EA18E958926812A807F0A6F80F228E49FB
:1031400012A807F0A1F8DBF800301B681B01EA1891
:10315000E958926812A807F097F80F22874912A839
:1031600007F092F8009B1B681B681B01EA18E958DE
:10317000926812A807F088F80F22814912A807F078
:1031800083F8019B1B681B681B01EA18E9589268C9
:1031900012A807F079F819227A4912A807F074F8F2
:1031A00012A9039807F008F912980CF063FA109C22
:1031B00000201290139014908DF85400002C6AD1C6
:1031C00012A804F01BFD12980CF054FA962008F097
:1031D0001DFFD9F800000AF0C9FEDAF800000AF075
:1031E000C5FE5B4B18680AF0C1FE674B18680AF011
:1031F000BDFE664B18680AF0B9FE029B5C6820466B
:103200000AF0B4FE624B18680AF0B0FED9F800303C
:103210001B689A7B12B11B7B002B2CD0DAF8003094
:103220001B689A7B12B11B7B002B2BD0484B1B6871
:103230001B689A7B0AB11B7B43B3534B1B681B680B
:103240009A7B12B11B7B002B43D0504B1B681B6831
:103250009A7B12B11B7B002B40D020460AF07EFEE9
:10326000002840D0039C204606F0C6FE0A980CF0C9
:1032700001FAFFF716BB30680AF0F4FE0E980CF066
:10328000F9F940E738680AF0EDFEF7E7DBF80000EF
:103290000AF0E8FEF2E70E9A0492611C0CF0F2F9D3
:1032A000034658B1149912901394049A01B901700D
:1032B0001146184614940CF099F881E7049012987E
:1032C00018B10CF0D7F9049B1293002313931493B5
:1032D00076E7009B18680AF0C5FECFE7019B1868E7
:1032E0000AF0C0FECAE72A4B18680AF037FE002829
:1032F000B8D1C3E7244B18680AF030FE00283FF429
:1033000062AB184B00931B68039A1A60FFF780BBEF
:103310001D4B18680AF022FE002800F0A482079BCB
:10332000049A196813460A6001213E2B3FF7A2ADAB
:10333000AEE6154B18680AF011FE00283FF4C4AB46
:10334000DFF828B0039ADBF800301A60FFF7E2BB21
:10335000A81DFF1F601FFF1FD41DFF1FD01DFF1FD3
:10336000141EFF1FC81DFF1FC820FF1FCC1DFF1FFD
:1033700094080100D0080100E0080100F0080100F5
:103380000009010010090100AC1DFF1F0C1EFF1FEA
:10339000B01DFF1FD64B18680AF0E0FD0446002858
:1033A00000F08D82D34B0293D34B0393D34B009306
:1033B000D34ED44BD44F01930EAC2322D349129554
:1033C00012A813958DF85450149506F05DFF3368DC
:1033D0009B68002BC0F29682A8FB0312D20802EB76
:1033E0008201A3EB410330338DF838301346002AB5
:1033F00000F048842046A6460021A8FB03C2D2085C
:1034000002EB820CA3EB4C0330330EF8013F013189
:103410001346002AF1D10DF1580E8E4463180EF8B0
:103420001F2C93F800E090F800C000F801EB013287
:10343000C2EB010E724503F801C9F2DB20460CF025
:103440003FF82146024612A806F01EFF0F22B0499F
:1034500012A806F019FF3B689B68002BC0F27D8321
:10346000A8FB0312D20802EB8201A3EB4103303325
:103470008DF838301346002A00F008842046A6460E
:103480000021A8FB03C2D20802EB820CA3EB4C0381
:1034900030330EF8013F01311346002AF1D10DF10E
:1034A000580E8E4463180EF81F2C93F800E090F825
:1034B00000C000F801EB0132C2EB010E964503F8A3
:1034C00001C9F2DC20460BF0FBFF2146024612A8A0
:1034D00006F0DAFE0F228F4912A806F0D5FE039BF4
:1034E0001B689B68002BC0F2FF82A8FB0312D20866
:1034F00002EB8201A3EB410330338DF838301346E1
:10350000002A00F0C6832046A6460021A8FB03C27D
:10351000D20802EB820CA3EB4C0330330EF8013FD0
:1035200001311346002AF1D10DF1580E8E44631873
:103530000EF81F2C93F800E090F800C000F801EBA3
:103540000132C2EB010E964503F801C9F2DC2046B8
:103550000BF0B6FF2146024612A806F095FE0F2298
:103560006D4912A806F090FE009B1B689B68002B1B
:10357000C0F28182A8FB0312D20802EB8201A3EB06
:10358000410330338DF838301346002A00F084832D
:103590002046A6460021A8FB03C2D20802EB820CFB
:1035A000A3EB4C0330330EF8013F01311346002AE0
:1035B000F1D10DF1580E8E4463180EF81F2C93F8BC
:1035C00000E090F800C000F801EB0132C2EB010E00
:1035D000724503F801C9F2DB20460BF071FF21466A
:1035E000024612A806F050FE0F224C4912A806F01F
:1035F0004BFE019B1B689B68002BC0F20382A8FB5B
:103600000312D20802EB8201A3EB410330338DF8A1
:1036100038301346002A00F032832046A6460021A7
:10362000A8FB03C2D20802EB820CA3EB4C0330339D
:103630000EF8013F01311346002AF1D10DF1580E69
:103640008E4463180EF81F2C93F800E090F800C029
:1036500000F801EB0132C2EB010E724503F801C91B
:10366000F2DB20460BF02CFF2146024612A806F0A2
:103670000BFE0F222A4912A806F006FE294B1B68F2
:103680009B68002BC0F27781A8FB0312D20802EBE3
:103690008201A3EB410330338DF838301346002A02
:1036A00000F0EA822046A6460021A8FB03C2D20809
:1036B00002EB820CA3EB4C0330330EF8013F0131D7
:1036C0001346002AF1D10DF1580E8E4463180EF8FE
:1036D0001F2C93F800E090F800C000F801EB0132D5
:1036E000C2EB010E724503F801C9F2DB1CE000BF1A
:1036F000AC1DFF1F601FFF1FD01DFF1FD41DFF1F2C
:10370000C81DFF1F141EFF1FCC1DFF1F2C09010029
:10371000D0080100E0080100F008010000090100E4
:1037200050090100181EFF1F20460BF0C9FE21465C
:10373000024612A806F0A8FD1322AB4912A806F013
:10374000A3FD149A0E950F9510958DF84450129B79
:10375000002A40F06C8218460BF08CFF109B1295EB
:10376000139514958DF85450002B40F03C8212A80C
:1037700004F044FA12980BF07DFF962008F046FC06
:10378000D9F800000AF0F2FBDAF800000AF0EEFBCC
:10379000964B18680AF0EAFB954B18680AF0E6FBAE
:1037A000944B18680AF0E2FB029BD3F804B0584629
:1037B0000AF0DCFB904B18680AF0D8FBD9F800300F
:1037C0001B689A7B1AB11B7B002B00F0FF81DAF893
:1037D00000301B689A7B1AB11B7B002B00F0FA812A
:1037E000824B1B681B689A7B1AB11B7B002B00F075
:1037F000F5817F4B1B681B689A7B1AB11B7B002BE2
:1038000000F010827B4B1B681B689A7B1AB11B7BF4
:10381000002B00F02C82DBF800309A7B1AB11B7B66
:10382000002B00F03C82744B1B681B689A7B1AB11A
:103830001B7B002B00F04B820E980BF01BFFBCE5AE
:1038400038680AF08BFB00287FF4FFAB684B1868E0
:103850000AF084FBC0B1DFF8A881059AD8F80030DF
:103860001A60FFF744BA634B18680AF077FB002828
:1038700041D108980AF072FB079B1B68002840F0B2
:10388000348201461B6850E55A4B18680AF066FB03
:1038900018B3DFF86C81069AD8F800301A60FFF789
:1038A00026BA5649284606F045FD432303934F2385
:1038B00001933E234FF04A0B0293FFF746B84D4B5E
:1038C00018680AF04BFB002800F006820AA806F0F0
:1038D00093FB204617B0BDE8F08F04980AF03EFB3A
:1038E00000283FF4D4A9DFF81881079AD8F80030EF
:1038F0001A60FFF7FCB9079B069A1B681A6013460B
:10390000FFF7C3BB5B42A8FB0312D20802EB8201A4
:10391000A3EB410330332D218DF839308DF8381069
:103920001346002A00F0C3810DF139000021A8FBE5
:1039300003E2D20802EB820EA3EB4E03303300F811
:10394000013F01311346002AF1D14A1C16A8104448
:10395000A64600F81F3C2244204692F800C01EF8FC
:1039600001BF00F801CF0133C3EB010C634502F83E
:1039700001B9F2DB62E55B42A8FB0312D20802EB5D
:103980008201A3EB410330332D218DF839308DF8BE
:1039900038101346002A00F091810DF13900002102
:1039A000A8FB03E2D20802EB820EA3EB4E033033F6
:1039B00000F8013F01311346002AF1D14A1C16A834
:1039C0001044A64600F81F3C2244204692F800C04E
:1039D0001EF801BF00F801CF0133C3EB010C6345B2
:1039E00002F801B9F2DB9FE6500C0100A81DFF1F91
:1039F000AC1DFF1F0C1EFF1FB01DFF1F7009010033
:103A0000D01DFF1F5B42A8FB0312D20802EB82010C
:103A1000A3EB410330332D218DF839308DF8381068
:103A20001346002A00F047810DF139000021A8FB60
:103A300003E2D20802EB820EA3EB4E03303300F810
:103A4000013F01311346002AF1D14A1C16A8104447
:103A5000A64600F81F3C2244204692F800C01EF8FB
:103A600001BF00F801CF0133C3EB010C634502F83D
:103A700001B9F2DBF5E55B42A8FB0312D20802EBC9
:103A80008201A3EB410330332D218DF839308DF8BD
:103A900038101346002A00F017810DF1390000217B
:103AA000A8FB03E2D20802EB820EA3EB4E033033F5
:103AB00000F8013F01311346002AF1D14A1C16A833
:103AC0001044A64600F81F3C2244204692F800C04D
:103AD0001EF801BF00F801CF0133C3EB010C6345B1
:103AE00002F801B9F2DB77E55B42A8FB0312D208CA
:103AF00002EB8201A3EB410330332D218DF83930E5
:103B00008DF838101346002A00F0DB800DF13900E3
:103B10000021A8FB03E2D20802EB820EA3EB4E03C6
:103B2000303300F8013F01311346002AF1D14A1C1D
:103B300016A81044A64600F81F3C2244204692F8DE
:103B400000C010F801BF0EF801CF0133C3EB010C28
:103B50009C4502F801B9F2DCF9E45B42A8FB0312D0
:103B6000D20802EB8201A3EB410330332D218DF803
:103B700039308DF838101346002A00F095800DF189
:103B800039000021A8FB03E2D20802EB820EA3EB6E
:103B90004E03303300F8013F01311346002AF1D1C2
:103BA0004A1C16A81044A64600F81F3C2244204692
:103BB00092F800C010F801BF0EF801CF0133C3EB3B
:103BC000010C9C4502F801B9F2DC7BE4306807F097
:103BD00089FE31E6386807F085FE2DE6039B1868FC
:103BE00007F080FE28E60E9A0593591C00200492E7
:103BF0000BF048FD834660B11499059B1290139316
:103C0000049A01B901701146584614930BF0EEFB6B
:103C1000ADE5129818B10BF02DFDCDF848B0139515
:103C20001495A4E5009B186807F05CFE04E6511C9F
:103C30000020059304920BF025FD834668B110998E
:103C4000049A0E900F92059B01B9017019465846CF
:103C500010920BF0CBFB129B7DE50E9818B10BF088
:103C600009FDCDF838B0129B0F95109573E5019BB7
:103C7000186807F037FEDFE58DF8392054E58DF838
:103C80003920EEE48DF83920FFF7D8BB8DF83920C4
:103C900018E48DF839205AE48DF839209CE4154B4E
:103CA000186807F01FFEC7E58DF83A200AE48DF882
:103CB0003A20FFF7C3BB8DF83A20D2E48DF83A20C2
:103CC00032E58DF83A2042E48DF83A2084E420462B
:103CD00006F092F9FFF7CABA074B18680AF03EF9E6
:103CE00000287FF4F3ADFFF7C1BA059A1A601346B6
:103CF000FFF7CBB9181EFF1FB01DFF1F10B50846F8
:103D00001446114603F060FA204610BD08461146DD
:103D100006F006BC2DE9F04FA04C94F922300221A8
:103D20003C22013387B084F8211084F8202000F071
:103D30004B8494F824009A4E09F00AFB94F826006C
:103D400009F006FB94F9261094F9242094F8273002
:103D500056F8311056F8322021630125626384F849
:103D60003A5084F83B50002B00F078848D4A8E48FE
:103D700053681D6859682F683943296011688B4D55
:103D800008608B4FCD608B4D0F610D60517A5D18CF
:103D90000C3195F82C5053F8217006EBC501496899
:103DA0000F60117A5D1803EB81012D7ECF6906EB60
:103DB000C50149680F60917A5D1803EB810395F89E
:103DC00040105D6C06EBC1035B681D6053680ACB55
:103DD0000D682B430B601168CB68CD6803F0E0637E
:103DE00043F0384242F40032AA420BD00D6843F04F
:103DF00078436F0443F4003300F19C840860CA6088
:103E00000B610D6094F8250009F0A2FA94F82500E2
:103E100009F018FB012008F0F9F894F825303F2B41
:103E20000AD856F833105E4A91F88002002800F054
:103E3000C383012381F800310A2008F0E7F894F8E1
:103E400025005D4D5D4CDFF89881DFF898A109F001
:103E5000F9FAAE2009F018FED52009F015FE8020F1
:103E600009F012FEA82009F00FFE3F2009F00CFE19
:103E7000D32009F009FE002009F006FE402009F0D9
:103E800003FE8D2009F000FE142009F0FDFD202026
:103E900009F0FAFD002009F0F7FDA12009F0F4FD7A
:103EA000C82009F0F1FDDA2009F0EEFD122009F03A
:103EB000EBFD812009F0E8FDCF2009F0E5FDD920D8
:103EC00009F0E2FDF12009F0DFFDDB2009F0DCFD67
:103ED000402009F0D9FDA42009F0D6FDA62009F064
:103EE000D3FDAF2009F0D0FD03F0EEFD344803F020
:103EF000F3FD03F0A7FA4FF4487008F087F803F0D9
:103F0000E3FD304803F0E8FD03F09CFA6E2008F072
:103F10007DF803F0D9FD2C4803F0DEFD03F092FAA2
:103F20006E2008F073F803F0CFFD284803F0D4FDAD
:103F300003F088FA6E2008F069F803F0C5FD244804
:103F400003F0CAFD03F07EFA6E2008F05FF803F07C
:103F5000BBFD204803F0C0FD03F074FA6E2008F0AA
:103F600055F803F0B1FD1C4803F0B6FD03F06AFA02
:103F70006E2008F04BF803F0A7FD184803F0ACFDE5
:103F800003F060FA03F0A0FD06F080FE4FF47A70B3
:103F900008F03CF840F2EE292F682AE04832FF1F73
:103FA000B85401000C15FF1F01401F00011000381C
:103FB0000110007800001F805833FF1F0437FF1FD7
:103FC000700C0100701001007014010070180100E5
:103FD000701C010070200100702401007028010095
:103FE0000836FF1F0436FF1FB3F5FA6F16D808F026
:103FF0001FFF08F01DFF23784BB198F80030DB0756
:1040000005D52B68DAF800209B1A0E2B06D82B68F2
:104010002278DB1B002AE7D14B45E8D94FF4FA7030
:1040200007F0F4FF0621D048D04CDFF87493DFF896
:10403000748306F075FA0222CD4904A80AF036FF0F
:10404000022104A806F06CFA00274FF46141C94828
:1040500084F8627084F8637005F0D6FFFF21204673
:10406000242284F85F7084F8607084F861700AF02C
:104070006BFADFF834E3C048C049DFF830C3DEF83C
:10408000002004780B785FFA84FADCB2A24538BFCE
:104090009244C4EB0A0484B390F800A00C785FFA51
:1040A0008AFAE4B2A245ECD0631C9A421FD93F2B96
:1040B00040F24483A4F13F0BD9F8004014F80B40C0
:1040C0005FFA83FBDCF8004081F800B0002CD6D00A
:1040D000534584BF5244D31AD8F8002098BFC3EB8D
:1040E0000A039342CBD82770DEF80020C9E74FF0CF
:1040F000000B5B46A24CE45CE4E74FF0050A4FF08E
:10410000F0094FF0AA0855274FF0010B514604A8BB
:104110008DF812A08DF810908DF811808DF813B0E5
:104120008DF8147003F050F851464FF0020304A8C4
:104130008DF813308DF810908DF811808DF812A045
:104140008DF8147003F040F80A2007F05FFF042395
:10415000514604A88DF8133001938DF810908DF816
:1041600011808DF812A08DF8147003F02DF808223C
:1041700011464FF00C0E04A88DF812208DF813E0B4
:104180008DF810908DF811808DF814B08DF817709F
:104190008DF815408DF8164003F016F88C200BF0C2
:1041A00061FADFF80C92DFF80CE2764AC0F834E0EE
:1041B00009F14801C162272107460476C0F824901E
:1041C000026380F8381000F13C0A05F071F8DFF85E
:1041D000E8C16D4AC7F86CC0492109F14C0009F1EA
:1041E00094093A6787F8741087F854B03866C7F8AE
:1041F0006890504605F05CF8DFF8C081C7F880A0F1
:104200004FF0020387F87830C7F888A04FF40060B9
:10421000FF67C7F88470C8F800700BF023FA814676
:1042200014200BF01FFA2A6803928246574A03981B
:104230005749CAF810004FF4807B1020CAF80000DC
:1042400081F88042C2F800B09AF80010D7F88000D8
:1042500008F002F94F49CAF804400F20CAF8084094
:10426000C9F80000C9F8F4A781F88042D8F8001016
:10427000019B494AC86FC2F800B01946474AC9F8BD
:10428000E447FA23C9F8EC4789F8F04789F8F14781
:1042900089F8F24789F8F84789F8F94789F8FA4721
:1042A000C9F8FC37C2F8009007F0A2FFD8F8003038
:1042B000DC6F637E2046002B40F0CA81236BDFF861
:1042C00000815A0102F184420127C2F810710323D0
:1042D000C2F88471C2F8807199F8001084F8233014
:1042E00008F0BAF870200BF0BDF9002318220190F5
:1042F000026043609A4600F10C0B19E056F8332037
:10430000DEF8041092F800E280F80CE040F2031EA0
:104310004373206082F880A2C1F800E0A7600137F3
:10432000192F4FF0000984F804A04BF8044F49D02E
:104330000C200BF097F958F8049F044610200BF05E
:1043400091F92B6804935FFA89F30521049AC0F868
:1043500008A03F2B06EBC30E41600260CED980F867
:104360000CA043732060D9E7D82D0100F432FF1F61
:10437000702C0100200CFF1F4837FF1F4937FF1F1B
:10438000A436FF1F00B003403860034000A0044083
:104390000008FE430010FE4300B00440EC1DFF1F68
:1043A0009836FF1FB413FF1FCC13FF1FA036FF1F4B
:1043B000742C01001060034000B00B40F01DFF1F83
:1043C0000C2D0100B74D019B2B6008200BF04AF922
:1043D000FA2227210446B44FB44E09F013FE2A688E
:1043E000B3493C6017690F60B24D976E3760B248B1
:1043F000D76D2F6084F805905769B04C0760B049BD
:10440000D7692760AF4E176A0F60AF4D976AAF4804
:10441000AF493760AF4C176B566B2F600660D56E97
:10442000526E256014200A600BF01CF902464624E7
:104430004321A94D80F80C90012682F80D9056601A
:1044400011601161946014202A600BF00BF9024690
:104450003721A24D80F80C90022682F80D909460CE
:1044600056601160116114202A600BF0FBF80246BF
:1044700030259B4980F80C90032682F80D909460BB
:1044800056601560156114200A600BF0EBF80246C7
:1044900024210426934F80F80C9082E8420082F891
:1044A0000D909460116114203A600BF0DBF8024625
:1044B0008D4980F80C90052782F80D901560946066
:1044C0001561576014200A600BF0CCF80246846036
:1044D0005321864D82F80C90062482F80D9054608A
:1044E0001160116108202A600BF0BCF81621C82267
:1044F000044609F087FD7E4A7E4F146008200BF0C9
:10450000B1F8C8221521044609F07CFD7A497B4A9E
:104510000C600820C2F800900BF0A4F840F22B12B7
:104520001721044609F06EFD7549764A0C60672034
:10453000C2F8009007F042FE05460C200BF092F8FE
:1045400029210446C82209F05DFD6F4AA560682054
:10455000146007F033FE05460C200BF083F81121A0
:104560000446C82209F04EFD684AA560692014601F
:1045700007F024FE05460C200BF074F8C8220E212B
:10458000044609F03FFD6248624A634906601460D0
:10459000624BA5606248634D634AC1F800900C21EC
:1045A000C3F80090C7F80090C5F8009080F800901C
:1045B000116007B0BDE8F08F02EBC3035A681368BF
:1045C00023F00203136037E4584B594E5969002217
:1045D00083F8A02083F8A12083F82C2183F82D21D3
:1045E00083F82E2183F82F210D6848682F68C3F8BF
:1045F00034213843C3F8382128601869827093F851
:10460000312108680A44157A527B06EBC50512026F
:104610006D6802F4E06242F064022A6093F832218D
:104620000A44957CD27D06EBC505120202F4E062D5
:104630006D6842F064022A6000684A6810422AD11C
:104640001A69202151711B6980229A70FFF7DABB29
:1046500007F08AFED8F80030D86F2FE694F82200D1
:1046600008F076FE94F8230008F072FE94F9231007
:1046700094F9222094F8273056F8311056F8322059
:1046800084F8395084F83850E162A262002B3FF47C
:10469000B9ABFFF76BBB1A692C2151701A69042161
:1046A0009171CDE7E01DFF1FE81DFF1F001EFF1FDA
:1046B000B01DFF1F101EFF1FA01DFF1FA41DFF1F09
:1046C000A81DFF1FAC1DFF1F0C1EFF1F641FFF1F37
:1046D000241EFF1F1C1EFF1FC81DFF1FCC1DFF1F18
:1046E000D41DFF1FD01DFF1F141EFF1F181EFF1F0C
:1046F000F41DFF1FFC36FF1FF81DFF1FDC1DFF1FF1
:10470000FC1DFF1FD81DFF1FBC1DFF1FC01DFF1F6D
:10471000341EFF1FC41DFF1F041EFF1F081EFF1FA6
:10472000B41DFF1FB81DFF1F201EFF1FD013FF1F4A
:10473000B8540100CA600B61FFF764BB5FFA83FBEA
:10474000D8E400BF704700BF2DE9F04FEB4CDFF815
:1047500038A4EB4FEB4DDFF83494DFF8348485B0A8
:104760005146204605F038FE2A463946204609F0D3
:10477000B1FE4946684605F02FFE2146684605F021
:10478000D1FD04F1100B0146584605F015FE6846B0
:1047900005F032FC2A463946584604F1200B09F050
:1047A00099FE4146584605F017FE2A4639465846B6
:1047B00004F1300B09F08EFE07F092FC514658468A
:1047C00005F00AFE2A463946584609F083FE494656
:1047D000684605F001FE5946684605F0A3FD04F160
:1047E000400B0146584605F0E7FD684605F004FC1D
:1047F0002A463946584604F1500B09F06BFE4146F3
:10480000584605F0E9FD2A463946584604F1600B42
:1048100009F060FE07F064FC5146584605F0DCFDE7
:104820002A463946584609F055FE4946684605F07D
:10483000D3FD5946684605F075FD04F1700B01463D
:10484000584605F0B9FD684605F0D6FB2A463946BC
:10485000584604F1800B09F03DFE4146584605F0EC
:10486000BBFD2A463946584604F1900B09F032FE4A
:1048700007F036FC5146584605F0AEFD2A4639464B
:10488000584609F027FE4946684605F0A5FD5946F9
:10489000684605F047FD04F1A00B0146584605F0B7
:1048A0008BFD684605F0A8FB2A463946584604F1B8
:1048B000B00B09F00FFE4146584605F08DFD2A4623
:1048C0003946584604F1C00B09F004FE51465846DB
:1048D00005F082FD2A463946584609F0FBFD494657
:1048E000684605F079FD5946684605F01BFD04F160
:1048F000D00B0146584605F05FFD684605F07CFB8D
:104900002A463946584604F1E00B09F0E3FD4146DA
:10491000584605F061FD2A463946584604F1F00B29
:1049200009F0D8FD07F0DCFB5146584605F054FD70
:104930002A463946584609F0CDFD4946684605F0F5
:104940004BFD5946684605F0EDFC04F580790146BB
:10495000484605F031FD684605F04EFB2A463946CB
:10496000484604F5887909F0B5FD4146484605F00A
:1049700033FD04F590782A463946484609F0AAFDE9
:1049800040466149DFF80092DFF800B205F024FDEF
:104990002A463946404604F5987809F09BFD404682
:1049A0005A4905F019FD2A463946404604F5A078D3
:1049B00009F090FD4046564905F00EFD2A4639465D
:1049C000404604F5A87809F085FD4046514905F0B8
:1049D00003FD2A463946404609F07CFD04F5B070D7
:1049E0004D4905F0F9FC04F5B8704C4905F0F4FCAC
:1049F00004F5C0704A4905F0EFFC04F5C870494958
:104A000005F0EAFC04F5D070474905F0E5FC04F533
:104A1000D870464905F0E0FC04F5E070444905F023
:104A2000DBFC04F5E870434905F0D6FC04F5F070B2
:104A3000414905F0D1FC04F5F870404905F0CCFC83
:104A400004F500703E4905F0C7FC04F504703D49CB
:104A500005F0C2FC04F508703B4905F0BDFC04F507
:104A60000C703A4905F0B8FC04F51070384905F0AF
:104A7000B3FC04F51470374905F0AEFC04F518706A
:104A8000354905F0A9FC04F51C70344905F0A4FC77
:104A900004F52070324905F09FFC04F5247031497B
:104AA00005F09AFC04F528702F4905F095FC04F5F3
:104AB0002C702E4905F090FC04F530702C4905F05F
:104AC0008BFC04F534702B4905F086FC04F5387036
:104AD000294905F081FC04F53C70284905F07CFC6F
:104AE00004F54070264905F077FC04F5447025492B
:104AF00005F072FC04F548704CE000BF681FFF1F12
:104B0000F99F0000080CFF1F642E0100742E0100A5
:104B1000842E0100942E0100A42E0100A82E010075
:104B2000B02E0100B42E0100BC2E0100C02E0100E9
:104B3000C42E0100CC2E0100D02E0100D82E010081
:104B4000DC2E0100E42E0100E82E0100EC2E010015
:104B5000F02E0100F42E0100F82E0100FC2E0100C1
:104B6000002F0100042F0100082F01000C2F01006D
:104B7000102F0100142F0100182F01001C2F01001D
:104B8000202F0100242F0100382E0100402E0100AB
:104B9000502E0100D34905F01FFC04F54C70D2499A
:104BA00005F01AFC04F55070D04905F015FC04F529
:104BB0005470CF4905F010FC04F55870CD4905F04C
:104BC0000BFC04F55C70CC4905F006FC04F5607044
:104BD000CA4905F001FC04F56470C94905F0FCFB05
:104BE00004F56870C74905F0F7FB04F56C70C64919
:104BF00005F0F2FB04F57070C44905F0EDFB04F517
:104C00007470C34905F0E8FB04F57870C14905F0FC
:104C1000E3FB04F57C70C04905F0DEFB04F5806021
:104C2000BE4905F0D9FB04F58260BD4905F0D4FB0F
:104C300004F58460BB4905F0CFFB04F58660BA49F2
:104C400005F0CAFB04F58860B84905F0C5FB04F51A
:104C50008A60B74905F0C0FB04F58C60B54905F0E2
:104C6000BBFB04F58E60B44905F0B6FB04F590601B
:104C7000B24905F0B1FB04F59260B14905F0ACFB17
:104C800004F59460AF4905F0A7FB04F59660AE49C2
:104C900005F0A2FB04F59860AC4905F09DFB04F516
:104CA0009A60AB4905F098FB04F59C60A94905F0B2
:104CB00093FB04F59E60A84905F08EFB04F5A06007
:104CC000A64905F089FB04F5A260A54905F084FB1F
:104CD00004F5A460A34905F07FFB04F5A660A24992
:104CE00005F07AFB04F5A860A04905F075FB04F512
:104CF000AA609F4905F070FB04F5AC609D4905F082
:104D00006BFB04F5AE609C4905F066FB04F5B060F2
:104D10009A4905F061FB04F5B260994905F05CFB26
:104D200004F5B460974905F057FB04F5B660964961
:104D300005F052FB04F5B860944905F04DFB04F50D
:104D4000BA60934905F048FB04F5BC60914905F051
:104D500043FB04F5BE60904905F03EFB04F5C060DE
:104D60008E4905F039FB04F5C2608D4905F034FB2E
:104D700004F5C4608B4905F02FFB04F5C6608A4931
:104D800005F02AFB04F5C860884905F025FB04F509
:104D9000CA60874905F020FB04F5CC60854905F021
:104DA0001BFB04F5CE60844905F016FB04F5D060CA
:104DB000824905F011FB04F5D260814905F00CFB36
:104DC00004F5D4607F4905F007FB04F5D6607E4901
:104DD00005F002FB04F5D8607C4905F0FDFA04F506
:104DE000DA607B4905F0F8FA04F5DC60794905F0F2
:104DF000F3FA04F5DE60784905F0EEFA04F5E060B8
:104E0000764905F0E9FA04F5E260754905F0E4FA3F
:104E100004F5E460734905F0DFFA04F5E6607249D1
:104E200005F0DAFA04F5E860704905F0D5FA04F502
:104E3000EA606F4905F0D0FA04F5EC606D4905F0C1
:104E4000CBFA04F5EE606C4905F0C6FA04F5F060A3
:104E50006A4905F0C1FA04F5F260694905F0BCFA47
:104E600004F5F460674905F0B7FA04F5F6606649A1
:104E700005F0B2FA04F5F860644905F0ADFA04F5FE
:104E8000FA60634905F0A8FA04F5FC60614905F091
:104E9000A3FA04F5FE60604905F09EFA04F500608F
:104EA0005E4905F099FA04F501605D4905F094FA50
:104EB00004F502605B4905F08FFA04F503605A4976
:104EC00005F08AFA04F50460584905F085FA04F5FE
:104ED0000560574905F080FA04F50660554905F06C
:104EE0007BFAA9E0282F01002C2F0100302F0100B0
:104EF000342F0100382F01003C2F0100402F01000A
:104F0000442F0100482F01004C2F0100502F0100B9
:104F1000542F0100582F01005C2F0100602F010069
:104F2000642F0100682F01006C2F0100702F010019
:104F3000742F0100782F01007C2F0100802F0100C9
:104F4000842F0100882F01008C2F0100902F010079
:104F5000942F0100982F01009C2F0100A02F010029
:104F6000A42F0100A82F0100AC2F0100B02F0100D9
:104F7000B42F0100B82F0100BC2F0100C02F010089
:104F8000C42F0100C82F0100CC2F0100D02F010039
:104F9000D42F0100D82F0100DC2F0100E02F0100E9
:104FA000E42F0100E82F0100EC2F0100F02F010099
:104FB000F42F0100F82F0100FC2F01000030010048
:104FC00004300100083001000C30010010300100F5
:104FD00014300100183001001C30010020300100A5
:104FE00024300100283001002C3001003030010055
:104FF00034300100383001003C3001004030010005
:1050000044300100483001004C30010050300100B4
:1050100054300100583001005C3001006030010064
:1050200064300100683001006C3001007030010014
:10503000743001007830010004F50760D34905F0B1
:10504000CBF904F50860D24905F0C6F904F509600A
:10505000D04905F0C1F904F50A60CF4905F0BCF963
:1050600004F50B60CD4905F0B7F904F50C60CC49A7
:1050700005F0B2F904F50D60CA4905F0ADF904F583
:105080000E60C94905F0A8F904F50F60C74905F09D
:10509000A3F904F51060C64905F09EF904F5116006
:1050A000C44905F099F904F51260C34905F094F973
:1050B00004F51360C14905F08FF904F51460C04987
:1050C00005F08AF904F51560BE4905F085F904F587
:1050D000166A2A46BC49002009F0FCF95046BB4933
:1050E00005F07AF904F51760B94905F075F904F58A
:1050F0001860B84905F070F904F51960B64905F073
:105100006BF904F51A60B54905F066F904F51B6002
:10511000B34905F061F904F51C60B24905F05CF98A
:1051200004F51D60B04905F057F904F51E60AF495C
:1051300005F052F904F51F60AD4905F04DF904F58D
:105140002060AC4905F048F904F52160AA4905F052
:1051500043F904F52260A94905F03EF904F52360FE
:10516000A74905F039F904F52460A64905F034F99A
:1051700004F52560A44905F02FF904F52660A3493C
:1051800005F02AF904F52760A14905F025F904F591
:105190002860A04905F020F904F529609E4905F032
:1051A0001BF904F52A609D4904F52C6805F014F9F3
:1051B00004F52B609A4905F00FF94046994905F02E
:1051C0000BF904F52D60984905F006F904F52E60F9
:1051D000964905F001F904F52F60954905F0FCF8B2
:1051E00004F53060934905F0F7F804F53160924911
:1051F00005F0F2F804F53260904905F0EDF804F599
:1052000033608F4905F0E8F804F534608D4905F006
:10521000E3F804F535608C4905F0DEF804F53660F6
:105220008A4905F0D9F804F53760894905F0D4F8C2
:1052300004F53860874905F0CFF804F539608649F0
:1052400005F0CAF804F53A60844905F0C5F804F59C
:105250003B60834905F0C0F804F53C60814905F0E6
:10526000BBF804F53D60804905F0B6F804F53E60F2
:105270007E4905F0B1F804F53F607D4905F0ACF8D2
:1052800004F540607B4905F0A7F804F541607A49D0
:1052900005F0A2F804F54260784905F09DF804F5A0
:1052A0004360774905F098F804F54460754905F0C6
:1052B00093F804F54560744905F08EF804F54660EE
:1052C000724905F089F804F54760714905F084F8E2
:1052D00004F548606F4905F07FF804F549606E49B0
:1052E00005F07AF804F54A606C4905F075F804F5A4
:1052F0004B606B4905F070F804F54C60694905F0A6
:105300006BF804F54D60684905F066F804F54E60E9
:10531000664905F061F804F54F60654905F05CF8F1
:1053200004F55060634905F057F804F5516062498F
:1053300005F052F804F55260604905F04DF804F5A7
:1053400053605F4905F048F804F554605D4905F085
:1053500043F804F555605C4905F03EF804F55660E5
:105360005A4905F039F804F55760594905F034F801
:1053700004F55860574905F02FF804F5596056496F
:1053800005F02AF804F55A60A8E000BF7C3001005F
:105390008030010084300100883001008C30010031
:1053A0009030010094300100983001009C300100E1
:1053B000A0300100A4300100A8300100AC30010091
:1053C000B0300100B43001001DDD0000B830010034
:1053D000C0300100CC300100D4300100E0300100C9
:1053E000E8300100F0300100FC3001000431010020
:1053F0001031010018310100243101002C3101006D
:10540000343101003C310100443101004C310100D4
:10541000543101005C310100643101006C31010044
:10542000743101007C310100843101008C310100B4
:10543000943101009C310100A4310100AC31010024
:10544000B4310100BC310100C4310100CC31010094
:10545000D4310100DC310100E4310100EC31010004
:10546000F4310100FC310100043201000C32010072
:10547000143201001C320100243201002C320100E0
:10548000343201003C320100443201004C32010050
:10549000543201005C320100643201006C320100C0
:1054A000743201007C320100843201008C32010030
:1054B000943201009C320100A4320100AC320100A0
:1054C000B4320100BC320100C4320100CC32010010
:1054D000D4320100DC320100E4320100DE4904F084
:1054E0007BFF04F55B60DD4904F076FF04F55C604A
:1054F000DB4904F071FF04F55D60DA4904F06CFFEC
:1055000004F55E60D84904F067FF04F55F60D74991
:1055100004F062FF04F56060D54904F05DFF04F516
:105520006160D44904F058FF04F56260D24904F088
:1055300053FF04F56360D14904F04EFF04F5646045
:10554000CF4904F049FF04F56560CE4904F044FFFB
:1055500004F56660CC4904F03FFF04F56760CB4971
:1055600004F03AFF04F56860C94904F035FF04F51A
:105570006960C84904F030FF04F56A60C64904F068
:105580002BFF04F56B60C54904F026FF04F56C6041
:10559000C34904F021FF04F56D60C24904F01CFF0B
:1055A00004F56E60C04904F017FF04F56F60BF4951
:1055B00004F012FF04F57060BD4904F00DFF04F51E
:1055C0007160BC4904F008FF04F57260BA4904F048
:1055D00003FF04F57360B94904F0FEFE04F574603E
:1055E000B74904F0F9FE04F57560B64904F0F4FE1D
:1055F00004F57660B44904F0EFFE04F57760B34932
:1056000004F0EAFE04F57860B14904F0E5FE04F523
:105610007960B04904F0E0FE04F57A60AE4904F028
:10562000DBFE04F57B60AD49AD4C04F0D5FE08F51A
:10563000A060AC4904F0D0FE08F5A260AA4904F0CD
:10564000CBFE08F5A460A94904F0C6FE08F5A660E3
:10565000A74904F0C1FE08F5A860A64904F0BCFE05
:1056600008F5AA60A44904F0B7FE08F5AC60A349A8
:1056700004F0B2FE08F5AE60A14904F0ADFE08F5F5
:10568000B060A04904F0A8FE08F5B2609E4904F09D
:10569000A3FE08F5B4609D4904F09EFE08F5B660CF
:1056A0009B4904F099FE08F5B8609A4904F094FE0D
:1056B00008F5BA60984904F08FFE08F5BC60974978
:1056C00004F08AFE08F5BE60954904F085FE08F5F1
:1056D000C060944904F080FE08F5C260924904F06D
:1056E0007BFE08F5C460914904F076FE08F5C660BB
:1056F0008F4904F071FE08F5C8608E4904F06CFE15
:1057000008F5CA608C4904F067FE08F5CC608B4947
:1057100004F062FE08F5CE6089492E4604F05CFE76
:10572000884D894908F5D06004F056FE08F5D2602E
:10573000864904F051FE05F168083246844900208C
:1057400008F0C8FE4946404604F046FE3246394657
:10575000404608F0BFFE5946684604F03DFE41460B
:10576000684604F0DFFD05F178080146404604F084
:1057700023FE684604F040FC32463946404605F1B7
:10578000880808F0A7FE2146404604F025FE324670
:105790003946404605F1980808F09CFE49464046C7
:1057A00004F01AFE32463946404608F093FE594648
:1057B000684604F011FE4146684604F0B3FD05F169
:1057C000A8080146404604F0F7FD684604F014FCC2
:1057D00032463946404605F1B80808F07BFE2146BE
:1057E000404604F0F9FD32463946404605F1C80806
:1057F00008F070FE4946404604F0EEFD3246394658
:10580000404608F067FE5946684604F0E5FD41460B
:10581000684604F087FD05F1D8080146404604F0CB
:10582000CBFD684604F0E8FB32463946404605F1B8
:10583000E80808F04FFE2146404604F0CDFD324610
:105840003946404605F1F80808F044FE06F048FCE9
:10585000494640467EE000BFEC320100F4320100D0
:10586000FC320100043301000C3301001433010049
:105870001C330100243301002C33010034330100B8
:105880003C330100443301004C3301005433010028
:105890005C330100643301006C3301007433010098
:1058A0007C330100843301008C3301009433010008
:1058B0009C330100A4330100AC330100B433010078
:1058C000BC330100C4330100CC330100D4330100E8
:1058D000DC330100E4330100EC330100F433010058
:1058E000502E0100FC330100043401000C3401008F
:1058F000143401001C340100243401002C34010054
:10590000343401003C340100443401004C340100C3
:10591000543401005C340100643401006C34010033
:10592000743401007C340100843401008C340100A3
:10593000943401009C340100A4340100AC34010013
:10594000B43401006030FF1FBC340100C4340100D6
:1059500001DD000004F040FD32463946404608F0C3
:10596000B9FD5946684604F037FD4146684604F0E3
:10597000D9FC05F584780146404604F01DFD6846D3
:1059800004F03AFB32463946404605F58C7808F07B
:10599000A1FD2146404604F01FFD324639464046EF
:1059A00005F5947808F096FD06F09AFB49464046C6
:1059B00004F012FD32463946404608F08BFD594648
:1059C000684604F009FD4146684604F0ABFC05F565
:1059D0009C780146404604F0EFFC684604F00CFB5E
:1059E00032463946404605F5A47808F073FD214655
:1059F000404604F0F1FC32463946404605F5AC78A5
:105A000008F068FD06F06CFB06F06AFB494640466C
:105A100004F0E2FC32463946404608F05BFD594648
:105A2000684604F0D9FC4146684604F07BFC05F565
:105A3000B4780146404604F0BFFC684604F0DCFA46
:105A400032463946404605F5BC7808F043FD21460C
:105A5000404604F0C1FC32463946404605F5C4785C
:105A600008F038FD4946404604F0B6FC3246394657
:105A7000404608F02FFD5946684604F0ADFC41460B
:105A8000684604F04FFC05F5CC780146404604F02A
:105A900093FC684604F0B0FA32463946404605F5B4
:105AA000D47808F017FD2146404604F095FC3246B4
:105AB0003946404605F5DC7808F00CFD06F010FB91
:105AC0004946404604F088FC32463946404608F0D4
:105AD00001FD5946684604F07FFC4146684604F0E3
