:10000000F8FF0220990100006DB5000025B5000041
:1000100025B5000025B5000025B5000025B5000078
:1000200025B5000025B5000025B500006DB5000020
:100030006DB5000025B5000021CD000025CD0000E4
:100040006DB500006DB500006DB500006DB5000028
:100050006DB500006DB500006DB500006DB5000018
:100060006DB500006DB500006DB500006DB5000008
:100070006DB500006DB500006DB500006DB50000F8
:100080006DB500006DB500006DB500006DB50000E8
:100090006DB500006DB500006DB500006DB50000D8
:1000A000ED9E0000F99E00006DB500006DB50000EA
:1000B0006DB500006DB500006DB5000065DB00009A
:1000C0006DB500006DB500006DB500006DB50000A8
:1000D0006DB500006DB500006DB500006DB5000098
:1000E0006DB500006DB500006DB500006DB5000088
:1000F0006DB500006DB500006DB500006DB5000078
:100100006DB500006DB500006DB500006DB5000067
:100110006DB5000071BA00006DB500006DB500004E
:100120006DB500006DB500006DB500006DB5000047
:100130006DB500006DB500006DB500006DB5000037
:100140006DB500006DB500006DB500006DB5000027
:100150006DB500006DB500006DB500006DB5000017
:100160006DB500006DB50000059F00006DB5000085
:100170006DB500006DB500006DB500006DB50000F7
:100180006DB500006DB500006DB500006DB50000E7
:100190006DB500006DB50000584B4CF2205210B503
:1001A0001A804DF628121A8000BF00BF0BF0E2F94A
:1001B000534B4FF030621A60524A9A60524ADA60EA
:1001C000524B4FF470021A60514A136813F4807353
:1001D00004D150490B604FF4A85313604E4B1A786A
:1001E000110703D51A7842F008021A704B4B4C499C
:1001F0002A221A704B4A4C4B8B4204D252F8040FFD
:1002000043F8040BF8E7494B494900228B4202D2DC
:1002100043F8042BFAE74749474A002352F82300E2
:1002200041F823000133662BF8D1444B444A802126
:1002300003F8011B9342FBD1424B3E4A1A60424BEA
:100240008A221A70A3F5805324225A70A0221A70B1
:100250009A799207FCD59A79D406FCD43B4A9379D3
:1002600003F00C03082B394BF9D103221A714622F3
:100270005A719A799006FCD5344A9179334B4906E4
:10028000FBD5334A4FF08271116009215160202261
:100290001A709A7902F00C020C2AFAD12D4B2E4AD0
:1002A0001A602E4B2E4A1A6000225A60072243F829
:1002B000042C2C4AC3F80C2D62B60BF08BFA154BAC
:1002C0001B68DA0705D528480BF008FA274B284A9F
:1002D0001A60284B1B785B0609D5244C244B2268F6
:1002E0009A4204D120480BF0F9F9002323600BF067
:1002F00047F917F0D1FD0CF0FBFEFEE70E2005409C
:1003000030800440823F04000100002B88ED00E0B3
:1003100010D0034014D0034002D0074000E0074053
:10032000781FFF1F10790200080CFF1F781FFF1FA6
:10033000583DFF1F0002FF1F0000000000E400E026
:1003400056E400E008ED00E00050064000400640A2
:100350004480044004800440C010050014E000E024
:10036000BFD401000000202053004F631CE0034075
:10037000A5C3945A00F00740FFFFFFFFFFFFFFFFF8
:10038000FFFFFFFFFFFFFFFFFFFFFFFFFFFFFFFF7D
:10039000FFFFFFFFFFFFFFFFFFFFFFFFFFFFFFFF6D
:1003A000FFFFFFFFFFFFFFFFFFFFFFFFFFFFFFFF5D
:1003B000FFFFFFFFFFFFFFFFFFFFFFFFFFFFFFFF4D
:1003C000FFFFFFFFFFFFFFFFFFFFFFFFFFFFFFFF3D
:1003D000FFFFFFFFFFFFFFFFFFFFFFFFFFFFFFFF2D
:1003E000FFFFFFFFFFFFFFFFFFFFFFFFFFFFFFFF1D
:1003F000FFFFFFFFFFFFFFFFFFFFFFFFFFFFFFFF0D
:10040000FFFFFFFFFFFFFFFFFFFFFFFFDEF9FFFF23
:1004100010B5054C237833B9044B13B10448AFF33E
:1004200000800123237010BD781FFF1F0000000013
:1004300014750200084B10B51BB108490848AFF30A
:1004400000800848036803B910BD074B002BFBD0A0
:10045000BDE81040184700BF000000007C1FFF1FD0
:1004600014750200781FFF1F0000000038B5074C0C
:10047000A4F5406554F8080CA042A4F1180401D07A
:100480000CF040FEAC42F5D138BD00BF6038FF1F14
:1004900038B5074CA4F5406554F8080CA042A4F107
:1004A000180401D00CF02EFEAC42F5D138BD00BFCF
:1004B000882BFF1F70B5054682B001B3541A0F2C6C
:1004C0000E4601940AD82B68012C184613D064B943
:1004D000019A6A600021995402B070BD002201A9FE
:1004E0000DF0FAFD019B2860AB60224631460AF010
:1004F000BDFE2B68ECE732781A702B68E8E712B182
:1005000002480DF0B9FD01920368E1E7943402005E
:1005100038B500F10803044603600D4649B10846AA
:1005200018F06EFF2A1820462946FFF7C3FF204621
:1005300038BD4FF0FF32F6E770B5044608460D4669
:1005400018F05EFF23680246294620465B68BDE836
:100550007040184738B50446006809F021FE20684D
:1005600009F04EFE10B10123237138BD0546206805
:1005700009F03CFE00B1257138BD00BF2DE9F04106
:10058000264A274B82FB0024C217C2EB640284B0C8
:1005900002EB4205A0EB85050FFA81F84020012708
:1005A000541E019000900E4603EB452341460297EE
:1005B00000221C4808F0C4FF002C29DB0B2D04D8B6
:1005C00040F6B520E840C30712D4174B1548402227
:1005D000012501920092414603EB4423029500223B
:1005E00008F0AEFF0F4804B0BDE8F0410AF050BD7E
:1005F0000E4B029715200E2206F134012A25019098
:10060000009209B205FB04332B22064808F098FF3C
:10061000044804B0BDE8F0410AF03ABDABAAAA2AEA
:1006200018D70100B82BFF1F18EF010074D5010087
:10063000F0B5364B53F82070002F85B029DB344AD3
:10064000344B0C4652F820100126402203EB412384
:10065000054621B230480192009202960022A4B2CF
:1006600008F06EFF072304F11D0101930093029629
:100670002A4B29483AB209B208F062FF284B53F8D6
:100680002530022B18D0012B24D0032B30D0042B83
:1006900005D0214805B0BDE8F0400AF0F9BC04F1EE
:1006A0002A010A221423009309B2029601921D4BDB
:1006B000194808F045FFECE704F12A010A22142347
:1006C0000192009309B20296164B1348242208F0B7
:1006D00037FFDEE704F12A010A2014220293019079
:1006E000009209B2104B0C48242208F029FFD0E7F1
:1006F00004F12A010A221423009309B202960192FE
:10070000094B054808F01CFFC3E700BF74D3010084
:100710001803020094260200B82BFF1F18050200E0
:1007200074D1010084CC0100A425020010B5044658
:1007300009480AF021FB094B1968204621B1202104
:10074000BDE81040FFF71ABFFFF718FF2046402111
:10075000BDE81040FFF76CBFB82BFF1F302CFF1F08
:10076000022825D0032820D0134A144B042806BFA2
:1007700013464A204320124A124912680968106041
:10078000114A586808601168104A98680860116832
:100790000F4AD86808601268196911600D490E4A3D
:1007A00058699B690860136070470C4B4A20E2E768
:1007B00043200B4BDFE700BF8825020050250200D5
:1007C0005C2CFF1F1C2CFF1F9038FF1F182CFF1FD5
:1007D000BC38FF1F7038FF1F682CFF1F68CC01005A
:1007E0006C2502002DE9F84304460AF059FE274B18
:1007F000D3F80090C9F80000601C0AF051FE244BA9
:10080000D3F80080C8F80000A01C0AF049FE214B74
:100810001F683860E01C0AF043FE1F4B1E68306002
:10082000201D0AF03DFE1D4B1D682860601D0AF06A
:1008300037FE1B4BA0F10C02A01D1A600AF030FE1F
:10084000184B1860E01D0AF02BFEC9F8080004F1EF
:1008500008000AF025FEC8F8080004F109000AF0B3
:100860001FFEB86004F10A000AF01AFEB06004F13D
:100870000B000AF015FEA86004F10C000AF010FE4F
:10088000094B1B689860BDE8F88300BF5C2CFF1F14
:100890001C2CFF1F9038FF1F182CFF1FBC38FF1F98
:1008A0007038FF1F682CFF1FA82BFF1F2DE9F8438E
:1008B000DFF8C090DFF8C080D9F80030274F1978F2
:1008C000274E284D04460AF005FED8F80030601C7B
:1008D00019780AF0FFFD3B68A01C19780AF0FAFDB0
:1008E0003368E01C19780AF0F5FD2B68201D197893
:1008F0000AF0F0FD1C4B19680C31601DC9B20AF0FA
:10090000E9FD1A4BA01D19780AF0E4FDD9F8003072
:10091000E01D197A0AF0DEFDD8F8003004F1080075
:10092000197A0AF0D7FD3B6804F10900197A0AF038
:10093000D1FD336804F10A00197A0AF0CBFD2B6867
:1009400004F10B00197A0AF0C5FD094B1B6804F18C
:100950000C00197ABDE8F8430AF0BCBD9038FF1FBF
:10096000182CFF1FBC38FF1F7038FF1F682CFF1F9B
:10097000A82BFF1F5C2CFF1F1C2CFF1F2DE9F04F25
:100980008BB004460A4603A8264918F065F9264AA2
:1009900004F10808C4F8008020461146FFF78AFDDC
:1009A00006AE03ADB3460DF10F09002794E806002B
:1009B00004A80A4415F801AB0496FFF77BFD012358
:1009C00000220599CDF800A004A80DF0DBFC049AE4
:1009D0002368B24217D043451BD005980699226080
:1009E0006060A268A160CBB10493069205971F7066
:1009F0000498B04201D00CF085FB4D45D6D120467D
:100A00000BB0BDE8F08F04A920460DF08BFB049BD2
:100A1000ECE70599069B22606160A360049606AB33
:100A20005E46E3E7C0340200804A0200F8B504469F
:100A3000084616460F4618F0E3FC00236360237255
:100A4000716804F1080305462360014420460DF057
:100A500053FC62686FF000439B1A9D420BD82A46F4
:100A6000394620460DF0AEFD96E8060020460DF012
:100A7000A9FD2046F8BD01480DF016FBC434020064
:100A80002DE9F041E0290C469DF8185008D8013DA9
:100A9000EDB20F2D02D849B2002912DBBDE8F0817A
:100AA000F729FBD90834E4B2012303FA04F414F063
:100AB000DD0FF3D0436D18680368BDE8F0411B6893
:100AC00018471F46436D8046186803682943C9B21A
:100AD0001B6816469847D8F854301868036806F023
:100AE0007F011B6804F0EF049847C02CD6D0D8F8DB
:100AF00054301868036807F07F011B68BDE8F041B7
:100B0000184700BF0E4B30B51C682379013B0546E2
:100B10001B02000403F4706300F4FE00184340F469
:100B2000404083B040F00C000BF0A8FC23796069D2
:100B30000093EAB20023C021FFF7A2FF03B030BD4B
:100B40005C2CFF1F30B504460A482378013B1B028A
:100B500003F4706383B00D4618430BF08FFC2378C9
:100B6000286800937B220023B021FFF789FF03B0A0
:100B700030BD00BF0BB07B0030B50568037B294456
:100B800083B001610BB103B030BD836804460079C6
:100B90001B0603F0FE43013843F41043000243F008
:100BA0000903090400F4706001F4FE0118430843CE
:100BB00015460BF063FC2179237A227C6069009151
:100BC0009021FFF75DFF002DDDDD2379013B280635
:100BD0001B0203F4706300F0FE40184340F4D83069
:100BE00040F00B000BF04AFC23796069009301226E
:100BF000EBB2B021FFF744FF03B030BD0369826858
:100C000010B51B0404461206007902F0FE4203F4FC
:100C1000FE031343013843F40043000243F008038A
:100C200000F4706082B018430BF028FC2179237A1D
:100C3000227C606900918021FFF722FF02B010BD85
:100C4000036810B504460BB17430984794F87530BA
:100C5000803B7F2B00F28580DFE813F08A00830061
:100C6000830083008300830083008300830083006C
:100C70008300830083008300830083009600830049
:100C8000830083008300830083008300830083004C
:100C90008300830083008300830083009A00830025
:100CA000830083008300830083008300830083002C
:100CB0008300830083008300830083009E00830001
:100CC000830083008300830083008300830083000C
:100CD000830083008300830083008300A2008300DD
:100CE00083008300830083008300830083008300EC
:100CF000830083008300830083008300AC008300B3
:100D000083008300830083008300830083008300CB
:100D1000830083008300830083008300B00083008E
:100D200083008300830083008300830083008300AB
:100D3000830083008300830083008300C40080005D
:100D4000D500E50083008300ED008300F100F5008D
:100D5000F900FD000101830005018400A36A002B56
:100D600064D110BD236D002BFBD0BDE810401847A7
:100D7000A368002BF5D094F8772094F8761094F8B7
:100D80007400BDE810401847E368002BF3D1E8E792
:100D90002369002BEFD1E4E76369002BEBD1E0E797
:100DA000A369002BDDD094F8761094F87400BDE8A8
:100DB00010401847E369002BF5D1D2E7226A002AD8
:100DC000CFD094F8771094F8763094F87400C90175
:100DD00001F47E5103F07F031943A1F50051BDE8F2
:100DE00010401047626A002ABBD094F8763094F81D
:100DF000771043EA0121802904F1780028BF80217F
:100E0000BDE810401047E26A002AAAD094F8773073
:100E100094F87600DB0103F47E5300F07F00184362
:100E2000BDE810401047236B002B9AD094F8760051
:100E3000BDE810401847636B002B96D191E7A36B78
:100E4000002B92D18DE7236C002B8ED189E7E36BC9
:100E5000002B8AD185E7636C002B86D181E7A36CD8
:100E6000002B82D17DE7E36C002B7FF47EAF78E727
:100E7000F8B5436D0446186803681B69984708B9BC
:100E80000020F8BD94F80D31626D23F0010384F861
:100E90000D31106803685B699847C3B2FD2BEFD032
:100EA000626E002A49D001067ED494F85B10F029C6
:100EB0005FD0F7295DD0A11881F85B30216E4B1E01
:100EC0009A4253D394F85B30F02B00F00A82F72B50
:100ED00000F007821A0650D4002284F87520B02A48
:100EE0005CD0A02A5AD0D02A58D0E02A56D0C02AA6
:100EF00054D0002084F87400032994F85C0008BFE3
:100F000094F85D5084F8760018BF00250021012078
:100F1000B02A84F877506166216684F8F80008D01A
:100F200000F2D581902A04D0A02A02D0802A00D0D5
:100F3000002384F859300120F8BD94F8592084F832
:100F40005B3015064DD440B20028C0F20E8294F9F1
:100F50000D01636840F0010084F80D0103B198476A
:100F6000002084F8590060662066F8BD0132626690
:100F700086E7A11881F87830A0E703F10C02D2B21D
:100F8000012AA9D9FD2BA7D0EF2B00F2EC8103F0A9
:100F9000F002802A84F8752040F0EF8103F00F0002
:100FA000013084F87400A7E7A3F1F0010F293FF6A0
:100FB0007CAF012000FA01F111F0810540F0B18110
:100FC00011F45F4F3FF471AF84F8765084F8775096
:100FD00084F8745084F87530C4F8FC0084F8F80084
:100FE000F8BD02F10C01CDB2012DACD9FD2AAAD079
:100FF000EF2A00F2578102F0F006802E40F0538174
:1010000040B20028A0DB0120C9B2814284F85B20F5
:1010100084F85C3060669AD9FD2A98D0EF2A94BF94
:1010200002F0F0051546A5F180037F2B8FD801A1B2
:1010300051F823F09D1200004F0F00004F0F0000E9
:101040004F0F00004F0F00004F0F00004F0F000028
:101050004F0F00004F0F00004F0F00004F0F000018
:101060004F0F00004F0F00004F0F00004F0F000008
:101070004F0F00009D1200004F0F00004F0F0000A7
:101080004F0F00004F0F00004F0F00004F0F0000E8
:101090004F0F00004F0F00004F0F00004F0F0000D8
:1010A0004F0F00004F0F00004F0F00004F0F0000C8
:1010B0004F0F00009D1200004F0F00004F0F000067
:1010C0004F0F00004F0F00004F0F00004F0F0000A8
:1010D0004F0F00004F0F00004F0F00004F0F000098
:1010E0004F0F00004F0F00004F0F00004F0F000088
:1010F0004F0F00009D1200004F0F00004F0F000027
:101100004F0F00004F0F00004F0F00004F0F000067
:101110004F0F00004F0F00004F0F00004F0F000057
:101120004F0F00004F0F00004F0F00004F0F000047
:101130004F0F0000951200004F0F00004F0F0000EE
:101140004F0F00004F0F00004F0F00004F0F000027
:101150004F0F00004F0F00004F0F00004F0F000017
:101160004F0F00004F0F00004F0F00004F0F000007
:101170004F0F0000951200004F0F00004F0F0000AE
:101180004F0F00004F0F00004F0F00004F0F0000E7
:101190004F0F00004F0F00004F0F00004F0F0000D7
:1011A0004F0F00004F0F00004F0F00004F0F0000C7
:1011B0004F0F00009D1200004F0F00004F0F000066
:1011C0004F0F00004F0F00004F0F00004F0F0000A7
:1011D0004F0F00004F0F00004F0F00004F0F000097
:1011E0004F0F00004F0F00004F0F00004F0F000087
:1011F0004F0F000053120000951200009D120000D6
:10120000951200004F0F00004F0F00003512000034
:101210005312000035120000351200003512000094
:1012200035120000351200004F0F0000351200008B
:10123000351200000023012084F8743084F87630E1
:1012400084F8773084F875506366236684F8F80074
:10125000F8BD80210023216684F8785084F8593045
:101260007F21636E8B422ED302F00F0200230132E6
:1012700094F85C1084F87420012084F8761084F8C7
:10128000773084F8755063662366C4F8FC0084F8F0
:10129000F800F8BD022323660121E2E70323236659
:1012A0000221DEE7164606F0DF05902D3FF4A8AEDA
:1012B00006F0BF05A02D3FF4A3AE06F0EF06C02E4A
:1012C0003FF49EAE3FE6013363660020F8BDD02AAE
:1012D0003FF42FAEE02A3FF42CAEC02A7FF428AEB4
:1012E00027E6F02280230025012194F8F76084F896
:1012F000752084F8763084F8F720C4F8FC30204656
:1013000084F8775084F8745084F8F810FFF798FC4C
:10131000F722022384F8796084F8782028466366EF
:10132000F8BD94F87810F02902D0F7297FF40FAEB9
:10133000551C224400214FEA152E82F878300126F0
:10134000F02784F8765084F877E084F8741084F8F5
:1013500059103046C4F8FC5084F8757061662166F7
:1013600084F8F860F8BD1A46B7E503F10C02D2B272
:10137000012A7FF6ECAD1A4650E6902A3FF40EAEF5
:10138000ADE500BF90F87030DA0718D513F0FE0F06
:1013900015D070B590F8755085F08002602A82B043
:1013A00004460DD890F874608E4231D081B35B084A
:1013B000012B32D0032B00F09F8002B070BD70472C
:1013C000A5F1F0030F2BF8D801A252F823F000BFCB
:1013D000C7140000A5140000731400005714000087
:1013E000BB130000BB1300002F140000BB13000050
:1013F0002F140000BB1300002F1400002F14000056
:101400002F140000BB1300002F1400002F14000045
:101410005B08012B01D0022BCFD194F8773094F8E0
:101420007620009629462046FFF72AFBC5E705F1FE
:101430000803DBB2072BC0D8012202FA03F313F032
:10144000DD0FBAD0636D1868036829461B6802B0C7
:10145000BDE870401847436D90F8765018680368EF
:10146000F3211B689847636D186805F07F010368D6
:10147000ECE7436D90F87750186894F8762003688D
:10148000F2211B6842EAC5159847636D1868036826
:1014900005F07F011B689847636D1868C5F3C61196
:1014A0000368D3E7436D90F87650186894F8773066
:1014B00002682D0103F00F03126805F07005F12199
:1014C0001D439047BEE790F8763090F8776043EA86
:1014D0000626802E28BF802600F17805002E3FF4D6
:1014E0006CAF2E44636D15F8011B186803681B6808
:1014F0009847B542F6D160E794F8773094F87620B3
:1015000000962946FFF7BCFA57E700BF2DE9F043E4
:10151000D24DD34ED34CDFF89C94D34FDFF8988450
:1015200085B009F077FF2846D049FEF7F1FF05F1B5
:101530001800CF49FEF7ECFF05F13000CD49FEF76A
:10154000E7FF05F14800CC49FEF7E2FF05F1600036
:10155000CA49FEF7DDFF05F17800C949FEF7D8FF5B
:1015600005F19000C749FEF7D3FF05F1A800C64971
:10157000FEF7CEFF05F1C000C449FEF7C9FF05F133
:10158000D800C349FEF7C4FF05F1F000C149FEF7DA
:10159000BFFF05F58470C049FEF7BAFF05F59070EE
:1015A000BE49FEF7B5FF05F59C70BD49FEF7B0FFDB
:1015B00005F5A870BB49FEF7ABFF05F5B470BA4955
:1015C000FEF7A6FF05F5C070B849FEF7A1FF05F5C7
:1015D000CC70B749FEF79CFF05F5D870B549FEF70A
:1015E00097FF05F5E470B449FEF792FF05F5F0703A
:1015F000B249FEF78DFF05F5FC70B149FEF788FF93
:1016000005F50470AF49FEF783FF05F50A70AE4992
:10161000FEF77EFF05F51070AC49FEF779FF05F582
:101620001670AB49FEF774FF05F51C70A949FEF76B
:101630006FFF05F52270A849FEF76AFF05F52870CF
:10164000A649FEF765FF05F52E70A549FEF760FF78
:1016500005F53470A349FEF75BFF05F53A70A24922
:10166000FEF756FF05F54070A049FEF751FF05F55E
:1016700046709F49FEF74CFF05F54C709D49FEF7FB
:1016800047FF05F552709C49FEF742FF05F558707B
:101690009A49FEF73DFF05F55E709949FEF738FF60
:1016A00005F564709749FEF733FF05F56A709649B2
:1016B000FEF72EFF05F570709449FEF729FF05F53A
:1016C00076709349FEF724FF05F57C709149FEF78B
:1016D0001FFF05F581609049FEF71AFF05F584604C
:1016E0008E49FEF715FF05F587608D49FEF710FF5F
:1016F00005F58A608B49FEF70BFF05F58D608A4979
:10170000FEF706FF05F590608849FEF701FF05F535
:1017100093608749FEF7FCFE05F596608549FEF764
:10172000F7FE05F599608449FEF7F2FE05F59C6029
:101730008249FEF7EDFE05F59F608149FEF7E8FE60
:1017400005F5A2607F49FEF7E3FE05F5A5607E4939
:10175000FEF7DEFE05F5A8607C49FEF7D9FE05F52B
:10176000AB607B49FEF7D4FE05F5AE607949FEF724
:10177000CFFE05F5B1607849FEF7CAFE05F5B46005
:101780007649FEF7C5FE05F5B7607549FEF7C0FE60
:1017900005F5BA607349FEF7BBFE05F5BD607249F9
:1017A000FEF7B6FE05F5C0607049FEF7B1FE05F51F
:1017B000C3606F49FEF7ACFE05F5C6606D49FEF7E4
:1017C000A7FE05F5C9606C49FEF7A2FE05F5CC60E1
:1017D0006A49FEF79DFE05F5CF606949FEF798FE60
:1017E00005F5D2606749FEF793FE05F5D5606649B9
:1017F000FEF78EFE05F5D8606449FEF789FE05F513
:10180000DB606349FEF784FE05F5DE606149FEF7A3
:101810007FFE05F5E1606049FEF77AFE05F5E460BC
:101820005E49FEF775FE05F5E7605D49FEF770FE5F
:1018300005F5EA605B49FEF76BFE05F5ED605A4978
:10184000FEF766FE05F5F0605849FEF761FE05F506
:10185000F3605749FEF75CFEB0E000BF981FFF1F22
:10186000080CFF1F702CFF1F81E20000DC34020017
:10187000E0340200E8340200EC340200F4340200E8
:10188000F8340200FC34020004350200083502007E
:1018900010350200143502001C350200203502000C
:1018A00024350200283502002C35020030350200B4
:1018B00034350200383502003C3502004035020064
:1018C00044350200483502004C3502005035020014
:1018D00054350200583502005C35020060350200C4
:1018E00064350200683502006C3502007035020074
:1018F00074350200783502007C3502008035020024
:1019000084350200883502008C35020090350200D3
:1019100094350200983502009C350200A035020083
:10192000A4350200A8350200AC350200B035020033
:10193000B4350200B8350200BC350200C0350200E3
:10194000C4350200C8350200CC350200D035020093
:10195000D4350200D8350200DC350200E035020043
:10196000E4350200E8350200EC350200F0350200F3
:10197000F4350200F8350200FC35020000360200A2
:1019800004360200083602000C360200103602004F
:1019900014360200183602001C36020020360200FF
:1019A00024360200283602002C36020030360200AF
:1019B000343602009838FF1FF82BFF1F05F5F6603C
:1019C000D249FEF7A5FD05F5F960D149FEF7A0FD66
:1019D00005F5FC60CF49FEF79BFD05F5FF60CE499C
:1019E000FEF796FD05F50160CC49FEF791FD05F681
:1019F0002800CB49FEF78CFD05F50460C949FEF7C8
:101A000087FD05F65800C849FEF782FD05F5076019
:101A1000C649FEF77DFD05F68800C549FEF778FD4D
:101A200005F50A60C349FEF773FD05F6B800C24923
:101A3000FEF76EFD05F50D60C049FEF769FD05F680
:101A4000E800BF49FEF764FD05F51060BD49FEF7EB
:101A50005FFD05F61810BC49FEF75AFD05F5136049
:101A6000BA49FEF755FD05F64810B949FEF750FD95
:101A700005F51660B749FEF74BFD05F67810B64937
:101A8000FEF746FD05F51960B449FEF741FD05F680
:101A9000A810B349FEF73CFD05F51C60B149FEF7FF
:101AA00037FD05F6D810B049FEF732FD05F51F6089
:101AB000AE49FEF72DFD05F60820AD49FEF728FDDD
:101AC00005F52260AB49FEF723FD05F63820AA494B
:101AD000FEF71EFD05F52560A849FEF719FD05F680
:101AE0006820A749FEF714FD05F52860A549FEF713
:101AF0000FFD05F69820A449FEF70AFD05F52B60B9
:101B0000A249FEF705FD05F6C820A149FEF700FD34
:101B100005F52E609F49FEF7FBFC05F6F8209E496F
:101B2000FEF7F6FC05F531609C49FEF7F1FC05F681
:101B300028309B49FEF7ECFC05F534609949FEF727
:101B4000E7FC05F658309849FEF7E2FC05F53760EA
:101B50009649FEF7DDFC05F688309549FEF7D8FC7E
:101B600005F53A609349FEF7D3FC05F6B830924983
:101B7000FEF7CEFC05F53D609049FEF7C9FC05F681
:101B8000E8308F498F4DFEF7C3FC32468E49002066
:101B90000CF06CFA20468D49FEF7BAFC04F11800EF
:101BA0008B49FEF7B5FC04F130008A49FEF7B0FC22
:101BB00004F148008849FEF7ABFC04F16000874956
:101BC000FEF7A6FC04F178008549FEF7A1FC04F1BC
:101BD00090008449FEF79CFC04F1A8008249FEF7BE
:101BE00097FC04F1C0008149FEF792FC04F1D80093
:101BF0007F49FEF78DFC04F1F0007E49FEF788FC7A
:101C000004F584707C49FEF783FC04F590707B49F1
:101C1000FEF77EFC04F59C707949FEF779FC04F52B
:101C2000A8707849FEF774FC04F5B4707649FEF7A5
:101C30006FFC04F5C0707549FEF76AFC04F5CC70C2
:101C40007349FEF765FC04F5D8707249FEF760FC35
:101C500004F5E4707049FEF75BFC04F5F0706F4921
:101C6000FEF756FC04F5FC706D49FEF751FC04F5D7
:101C700004706C49FEF74CFC04F50A706A49FEF7E3
:101C800047FC04F510706949FEF742FC04F5167034
:101C90006749FEF73DFC04F51C706649FEF738FC09
:101CA00004F522706449FEF733FC04F5287063499B
:101CB000FEF72EFC04F52E706149FEF729FC04F5B1
:101CC00034706049FEF724FC04F53A705E49FEF773
:101CD0001FFC04F540705D49FEF71AFC04F54670E0
:101CE0005B49FEF715FC04F54C705A49FEF710FCF1
:101CF00004F552705849FEF70BFC04F5587057492B
:101D0000FEF706FC04F55E70AAE000BF383602005C
:101D10003C360200403602004436020048360200DB
:101D20004C3602005036020054360200583602008B
:101D30005C3602006036020064360200683602003B
:101D40006C360200703602007436020078360200EB
:101D50007C3602008036020084360200883602009B
:101D60008C3602009036020094360200983602004B
:101D70009C360200A0360200A4360200A8360200FB
:101D8000AC360200B0360200B4360200B8360200AB
:101D9000BC360200C0360200C4360200C83602005B
:101DA000CC360200D0360200D4360200D83602000B
:101DB000DC360200E0360200E4360200E8360200BB
:101DC000EC360200342CFF1F91040000F0360200B4
:101DD000F8360200043702000C3702001837020000
:101DE0002037020028370200343702003C37020057
:101DF00048370200503702005C37020064370200A7
:101E00006C370200743702007C370200843702000E
:101E10008C370200943702009C370200A43702007E
:101E2000AC370200B4370200BC370200C4370200EE
:101E3000CC370200D4370200DC370200E43702005E
:101E4000EC370200F4370200FC37020004380200CD
:101E50000C380200143802001C380200243802003A
:101E6000D349FEF755FB04F56470D249FEF750FBE9
:101E700004F56A70D049FEF74BFB04F57070CF494A
:101E8000FEF746FB04F57670CD49FEF741FB04F5FD
:101E90007C70CC49FEF73CFB04F58160CA49FEF733
:101EA00037FB04F58460C949FEF732FB04F587600F
:101EB000C749FEF72DFB04F58A60C649FEF728FBEB
:101EC00004F58D60C449FEF723FB04F59060C34917
:101ED000FEF71EFB04F59360C149FEF719FB04F5FC
:101EE0009660C049FEF714FB04F59960BE49FEF701
:101EF0000FFB04F59C60BD49FEF70AFB04F59F60EB
:101F0000BB49FEF705FB04F5A260BA49FEF700FBEA
:101F100004F5A560B849FEF7FBFA04F5A860B749D7
:101F2000FEF7F6FA04F5AB60B549FEF7F1FA04F5F1
:101F3000AE60B449FEF7ECFA04F5B160B249FEF7C1
:101F4000E7FA04F5B460B149FEF7E2FA04F5B760C8
:101F5000AF49FEF7DDFA04F5BA60AE49FEF7D8FAEC
:101F600004F5BD60AC49FEF7D3FA04F5C060AB4997
:101F7000FEF7CEFA04F5C360A949FEF7C9FA04F5E5
:101F8000C660A849FEF7C4FA04F5C960A649FEF781
:101F9000BFFA04F5CC60A549FEF7BAFA04F5CF60A4
:101FA000A349FEF7B5FA04F5D260A249FEF7B0FAEC
:101FB00004F5D560A049FEF7ABFA04F5D8609F4957
:101FC000FEF7A6FA04F5DB609D49FEF7A1FA04F5D9
:101FD000DE609C49FEF79CFA04F5E1609A49FEF741
:101FE00097FA04F5E4609949FEF792FA04F5E76080
:101FF0009749FEF78DFA04F5EA609649FEF788FAEC
:1020000004F5ED609449FEF783FA04F5F060934916
:10201000FEF77EFA04F5F3609149FEF779FA04F5CC
:10202000F6609049FEF774FA04F5F9608E49FEF700
:102030006FFA04F5FC608D49FEF76AFA04F5FF605B
:102040008B49FEF765FA04F501608A49FEF760FAEC
:1020500004F628008849FEF75BFA04F50460874916
:10206000FEF756FA04F658008549FEF751FA04F5D2
:1020700007608449FEF74CFA04F688008249FEF7AF
:1020800047FA04F50A608149FEF742FA04F6B800FF
:102090007F49FEF73DFA04F50D607E49FEF738FAF8
:1020A00004F6E8007C49FEF733FA04F510607B493A
:1020B000FEF72EFA04F618107949FEF729FA04F50E
:1020C00013607849FEF724FA04F648107649FEF7C3
:1020D0001FFA04F516607549FEF71AFA04F678102F
:1020E0007349FEF715FA04F519607249FEF710FA04
:1020F00004F6A8107049FEF70BFA04F51C606F494E
:10210000FEF706FA04F6D8106D49FEF701FA04F559
:102110001F606C49FEF7FCF904F608206A49FEF7D7
:10212000F7F904F522606949FEF7F2F904F6382060
:102130006749FEF7EDF904F525606649FEF7E8F911
:1021400004F668206449FEF7E3F904F52860634962
:10215000FEF7DEF904F698206149FEF7D9F904F597
:102160002B606049FEF7D4F904F6C8205E49FEF7FB
:10217000CFF904F52E605D49FEF7CAF904F6F820A0
:102180005B49FEF7C5F904F531605A49FEF7C0F91D
:1021900004F628305849FEF7BBF904F53460574976
:1021A000FEF7B6F904F658305549FEF7B1F9A9E043
:1021B0002C380200343802003C3802004438020057
:1021C0004C380200543802005C38020064380200C7
:1021D0006C380200743802007C3802008438020037
:1021E0008C380200943802009C380200A4380200A7
:1021F000AC380200B4380200BC380200C438020017
:10220000CC380200D4380200DC380200E438020086
:10221000EC380200F4380200FC38020004390200F5
:102220000C390200143902001C3902002439020062
:102230002C390200343902003C39020044390200D2
:102240004C390200543902005C3902006439020042
:102250006C390200743902007C39020084390200B2
:102260008C390200943902009C390200A439020022
:10227000AC390200B4390200BC390200C439020092
:10228000CC390200D4390200DC390200E439020002
:10229000EC390200F4390200FC390200043A020071
:1022A0000C3A0200143A02001C3A0200243A0200DE
:1022B0002C3A0200343A02003C3A0200443A02004E
:1022C0004C3A0200543A02005C3A0200643A0200BE
:1022D0006C3A0200743A02007C3A0200843A02002E
:1022E0008C3A0200943A02009C3A0200A43A02009E
:1022F000AC3A0200B43A0200BC3A0200C43A02000E
:10230000CC3A020004F537602D49FEF701F904F6D6
:1023100088302C49FEF7FCF804F53A602A49FEF7AC
:10232000F7F804F6B8302949FEF7F2F804F53D60F5
:102330002749FEF7EDF804F6E8302649264CFEF76B
:10234000E7F83246254900200BF090FE4846244924
:10235000FEF7DEF83246394648460BF087FE404627
:102360002049FEF7D5F83246394640460BF07EFE4E
:1023700028461D49FEF7CCF83246394628460BF070
:1023800075FE20461949FEF7C3F832463946204605
:102390000BF06CFE0D220C238DE80C0009210B23A1
:1023A0000A22134808F0C6FC124B13491B6803931A
:1023B0000398124B124A08601A6005B0BDE8F0831A
:1023C000D43A0200DC3A0200E43A0200EC3A02009D
:1023D000F43A0200FC3A02007838FF1F6D04000056
:1023E000043B0200143B0200243B0200343B020089
:1023F000B82BFF1FC838FF1F7438FF1F202CFF1F8A
:102400009014FF1F2DE9F04F4A4E4B4FDFF83491E7
:10241000DFF834A187B00DF108080125454808F020
:10242000ABFC0121434807F01DFB444AB582002361
:10243000A2F19A016846F38133827582CDF800805B
:10244000FEF738F8009C204616F0DAFF21460246D7
:1024500038480AF0F7FC374808F01AFE3C68206854
:1024600007F09EFE206807F0CBFE834600284BD085
:102470002571D9F80040206807F092FE206807F027
:10248000BFFE8346002837D02571DAF80040206867
:1024900007F086FE206807F0B3FE834620B325715F
:1024A0003B68186807F0ACFE88B10023244A19463F
:1024B0006520137009F00EF80098404504D00124FF
:1024C0000AF020FE002CA9D007B0BDE8F08FD9F8A3
:1024D0000030186807F094FEF0B1194B0121652017
:1024E0001D7008F0F7FFE7E7206807F07FFE00287F
:1024F000D6D084F804B0D3E7206807F077FE002830
:10250000C3D084F804B0C0E7206807F06FFE00284D
:10251000AFD084F804B0ACE7DAF80030186807F000
:102520006FFE044600984045CAD1002C3FF476AFB8
:10253000CAE700BFB82BFF1F4C2CFF1FDE3B020079
:10254000B02BFF1F602CFF1F982BFF1F2DE9F04FB2
:10255000034699B01F6805904FF4967009F0ECF8A7
:10256000A04D7B0003930DF1200901269D4808F042
:1025700003FC01219B4807F075FA9B4AAE820023B9
:10258000A2F1430106A8EB812B826E82CDF8189050
:10259000FDF790FF069C204616F032FF21460246CA
:1025A00090480AF04FFC02218E4807F05BFA039B2B
:1025B0008E49DA198E4B0CA803EBC202FEF736FAED
:1025C0000D9A6FF000439A4200F00581012289497B
:1025D0000CA80BF0F7FF0DF150080346CDF848802A
:1025E00053F8082B9A42044600F0DE80816812926C
:1025F00014916268139218A9236051F8180D069B74
:10260000002240456260227200F099804B4500F044
:10261000B4801399149A0791069008990892002B98
:1026200000F0B08012931491002213921A70129845
:10263000404501D00AF066FD0C980EAB984201D0DF
:102640000AF060FD069CDFF8B481204616F0D8FE43
:102650002146024663480AF0F5FB0121614807F074
:1026600001FA1721644B079A009106A800210BF08C
:10267000DDFE069C204616F0C3FE21460246594860
:102680000AF0E0FB574808F003FDD8F80040206846
:1026900007F086FD206807F0B3FD8246002846D08B
:1026A0002671DFF85CA1DAF80040206807F078FDB9
:1026B000206807F0A5FD834688B32671DFF848B18E
:1026C000DBF80040206807F06BFD206807F098FDFC
:1026D000E0B12671D8F80030484C186807F090FD3A
:1026E00040B1182F41DC069848453FF43FAF0AF04F
:1026F00009FD3BE723681B7933B3182FF3DD013F56
:102700007B009620039309F017F8ECE7049020680B
:1027100007F06CFD0028DDD0049B2371DAE7206808
:1027200007F064FD0028C9D084F804B0C6E720682B
:1027300007F05CFD0028B4D084F804A0B1E706A837
:102740000BF0F0FC129B6FE7DAF800302C4C1868A5
:1027500007F056FDE0B16E2FC5DC01377B004FF46A
:102760009670039308F0E8FFBDE7013F7B004FF44C
:102770009670039308F0E0FFB5E7139A149B069058
:1027800007920893CDF848800DF1500843464BE777
:1027900023681B7983B16E2FA5DC01377B0096205F
:1027A000039308F0C9FF9EE71946102240460493A0
:1027B00008F05CFD049B1CE7DBF80030186807F0AC
:1027C0001FFD00288FD00698059B48451F6005D146
:1027D00019B0BDE8F08F0B480BF066FC0AF092FCD4
:1027E000F6E700BFB82BFF1F233C0200E0400200C9
:1027F000702CFF1F30450200243C02004C2CFF1FB0
:10280000602CFF1FC4340200982BFF1F2DE9F04FEE
:10281000DFF8DCB2DFF80C93BFB04FF0010AB44828
:1028200008F0AAFA0121B24807F01CF9B14BB249ED
:102830001B681A68ABF814A002EB4202002309EBF4
:10284000C20208A8ABF80E30ABF81030ABF812A0FB
:10285000FEF7ECF8099A6FF000439B1A0E2B40F23A
:102860009A820F22A54908A80BF0ACFE0DF1400892
:102870000546CDF8388055F8083BAB42044600F0D9
:102880005F8282680E93109263680F939C4B256061
:102890001A68002323726360136803EB430309EB98
:1028A000C30259F8331052680EA80BF08BFE16AB1A
:1028B0000546149355F8083BAB42044600F03A82B3
:1028C00082681493169263681593002262601599CA
:1028D00022726FF000435B1A0E2B256040F25B8280
:1028E0000F22884914A80BF06DFE1CAB05461A9305
:1028F00055F8083BAB42044600F0168282681A93F2
:102900001C9263681B93804B25601A680023237216
:102910006360136803EB430309EBC30259F83310F8
:1029200052681AA80BF04EFE22AB0546209355F8CC
:10293000083BAB42044600F0F1818268209322926A
:102940006368219300226260219922726FF0004334
:102950005B1A0E2B256040F21E820F226B4920A8C5
:102960000BF030FE28AD0646269556F8083BB342DC
:10297000044600F00A8282682693289263682793AF
:10298000634B26601A68002323726360136803EBAD
:10299000430309EBC30259F83310526826A80BF021
:1029A00011FE2EAE07462C9657F8083BBB42044654
:1029B00000F0E58182682C932E9263682D930022AB
:1029C00062602D9922726FF000435B1A0E2B276014
:1029D00040F2E1810F224F492CA80BF0F3FD34AFF8
:1029E0000346329753F8082B9A42044600F0BF8101
:1029F000816832923491626833922360464B1A6840
:102A0000002323726360136803EB430309EBC302E3
:102A100059F83310526832A80BF0D4FD3AAA034695
:102A2000389253F8082B9A42044600F09881816846
:102A300038923A9162683992002262603999236033
:102A40006FF000435B1A182B227240F2A481192206
:102A5000324938A80BF0B6FD04AA0346029253F897
:102A6000082B9A42044600F0718181680292049119
:102A700062680392236038980023636023723AAB44
:102A8000984201D00AF03EFB3298B84201D00AF0D9
:102A900039FB2C98B04201D00AF034FB2698A842AA
:102AA00001D00AF02FFB209822AB984201D00AF007
:102AB00029FB1A981CAB984201D00AF023FB14980A
:102AC00016AB984201D00AF01DFB0E98404501D08C
:102AD0000AF018FB08980AAB984201D00AF012FBE2
:102AE000029C0F4D204616F08BFC214602461BE04F
:102AF000B82BFF1F5C2CFF1F3C3C0200783C0200FF
:102B00001C2CFF1F883C02009038FF1F983C0200DD
:102B1000182CFF1FA83C0200BC38FF1FB83C020065
:102B20004C2CFF1F981FFF1F9C480AF08BF99B48F5
:102B300008F0AEFA2C68206807F032FB206807F036
:102B40005FFB0646002800F0C58084F804A0944B83
:102B50001C68206807F024FB206807F051FB06463C
:102B6000002800F0AF8084F804A08E4B1C68206819
:102B700007F016FB206807F043FB0646002800F02C
:102B8000998084F804A0884B1C68206807F008FB33
:102B9000206807F035FB0646002800F0838084F8A3
:102BA00004A0824E3468206807F0FAFA206807F023
:102BB00027FB074600286ED084F804A07C4F3C68B1
:102BC000206807F0EDFA206807F01AFB804600281D
:102BD00059D084F804A0DFF8F481D8F800402068C8
:102BE00007F0DEFA206807F00BFB002831D084F8EC
:102BF00004A02B68186807F003FB002837D1684B46
:102C00001B68186807F0FCFA00286BD1654B1B683D
:102C1000186807F0F5FA002869D1634B1B6818683B
:102C200007F0EEFA002867D13368186807F0E8FA71
:102C3000002866D13B68186807F0E2FA002865D0E2
:102C4000029804AB984201D00AF05CFA3FB0BDE8AC
:102C5000F08F0190206807F0C9FA0028C9D0019BC5
:102C600023712B68186807F0CBFA0028C7D0514BA6
:102C70001868FFF76BFC029804AB98423FF4CFADA5
:102C80000AF040FACBE5206807F0B0FA0028A2D09D
:102C900084F804809FE7206807F0A8FA00288DD008
:102CA00027718BE7206807F0A1FA00283FF479AF7D
:102CB000267176E7206807F099FA00283FF463AFA1
:102CC000267160E7206807F091FA00283FF44DAFC5
:102CD00026714AE7206807F089FA00283FF437AFE9
:102CE000267134E7344B1868FFF730FCC3E7334BE9
:102CF0001868FFF72BFCBEE7314B1868FFF726FC7E
:102D0000B9E7304B1868FFF721FCB4E7D8F800307A
:102D1000186807F075FA002892D1ACE7102229460E
:102D200022A808F0A3FA0BE6102229461CA808F0F6
:102D30009DFAE6E51022294616A808F097FAC2E5A2
:102D400010222946404608F091FA9DE510221946C6
:102D50000DEB0200019308F089FA019B88E6194601
:102D600010223AA8019308F081FA019B62E6194605
:102D700010223846019308F079FA019B3BE61022B5
:102D80003946304608F072FA17E6102231462846D6
:102D900008F06CFAF2E50C480BF086F9B82BFF1F2F
:102DA000602CFF1F282CFF1FAC2BFF1FC038FF1FFC
:102DB000A02BFF1F5C2CFF1F1C2CFF1F9038FF1F38
:102DC000182CFF1FBC38FF1FC4340200982BFF1FB4
:102DD0002DE9F04F9DB0034603904FF49670D3F861
:102DE0000880B14E08F0A8FC01270024AE4807F087
:102DF000C3FF0121AC4806F035FEAC4AB78206ABF2
:102E0000A2F1430104A804937782F4813482FDF790
:102E100051FB049D284616F0F3FA29460246A248C3
:102E20000AF010F80221A04806F01CFE41460AA84C
:102E3000FDF7A4FD00220323009311469C4B0AA832
:102E40000BF0F4FA12AA0346109253F8082B9A4298
:102E5000054600F00A818168109212916A68119209
:102E60006C6011992C726FF0004291422B6000F05F
:102E7000178101228F4910A80BF0A4FB0DF1600906
:102E80000346CDF8589053F8082B9A42054600F0B7
:102E9000E4808168169218916A6817921CA92B60C9
:102EA00051F8180D2C7248456C60049B00F0A88006
:102EB00006AA934200F0BA801799189A05910490D7
:102EC00006990692002B00F0B6801693189117947D
:102ED0001C701698484501D00AF014F9109812ABEE
:102EE000984201D00AF00EF90A980CAB984201D032
:102EF0000AF008F9049DDFF8C491284616F080FA1C
:102F000029460246684809F09DFF0121664806F0FF
:102F1000A9FD1721684B059A009104A800210BF028
:102F200085FA049D284616F06BFA294602465E484B
:102F300009F088FF5C4808F0ABF8D9F80050286821
:102F400007F02EF9286807F05BF9824600284FD079
:102F50002F71DFF86CA1DAF80050286807F020F92B
:102F6000286807F04DF98346002839D02F71DFF823
:102F700058B1DBF80050286807F012F9286807F00C
:102F80003FF920B32F71D9F800304C4D186807F085
:102F900037F980B1B8F1000F05DD4FF4967008F1F4
:102FA000FF3808F0C9FB049806AB98423FF41EAF07
:102FB0000AF0A8F81AE72B681B7933B3B8F1000FB1
:102FC000F1DD642008F1FF3808F0B6FBEBE7029072
:102FD000286807F00BF90028D5D0029B2B71D2E7A7
:102FE000286807F003F90028C1D085F804B0BEE7CF
:102FF000286807F0FBF80028ABD085F804A0A8E704
:1030000004A80BF08FF8169B61E7DAF800302C4D1E
:10301000186807F0F5F8A0B1B8F17E0FC3DC4FF4E3
:10302000967008F1010808F087FBBCE7179A189B17
:10303000049005920693CDF858900DF160094B4627
:1030400045E72B681B79C3B1B8F17E0FABDC642078
:1030500008F1010808F070FBA5E719461022484660
:10306000029308F003F9029B16E71946102212A8F2
:10307000029308F0FBF8029BF0E6DBF800301868DA
:1030800007F0BEF800288ED0039B0498C3F8088090
:1030900006AB984201D00AF035F81DB0BDE8F08FBC
:1030A00008480BF001F800BFB82BFF1F173D0200C6
:1030B000B037020030450200243C02004C2CFF1FB8
:1030C000602CFF1FC4340200982BFF1F2DE9F04F26
:1030D0004FF0010AF1B04FF0000BB24807F04CFE80
:1030E0000121B04806F0BEFCAF4BAE4A1B68A2F807
:1030F00014A09968A2F812A00AA8A2F80EB0A2F82B
:1031000010B0FDF73BFC2323002200931146A74B90
:103110000AA80BF08BF912AB0546109355F8083B43
:10312000AB42044600F08983826810931292636870
:103130001193C4F804B0119A84F808B06FF00043FA
:103140009B1A0E2B256040F2C3830F22984910A8CA
:103150000BF038FA0DF160080546CDF8588055F8A7
:10316000083BAB42044600F06283826816931892D3
:10317000636817938F4B25601B6884F808B0C4F808
:1031800004B099681CA8FDF7F9FB169B1D9A179CC3
:10319000434514BF18990F21A01888421C9940F28A
:1031A000C9821EADA94214BF1E9D0F25A84200F280
:1031B000C1820022009411461CA80BF037F9044686
:1031C000254624AB229355F8083BAB4200F03B83E5
:1031D000A2682293249263682393C4F804B0239ACC
:1031E00084F808B06FF000439B1A0E2B256040F264
:1031F0006F830F22704922A80BF0E4F90DF1A809A2
:103200000546CDF8A09055F8083BAB42044600F0C7
:103210000883826828932A9263682993674B256004
:103220001B6884F808B0C4F804B099682EA8FDF7AC
:10323000A5FB289B2F9A299C4B4514BF2A990F2147
:10324000A01888422E9940F27A8230ADA94214BF6C
:10325000309D0F25A84200F2728200220094114690
:103260002EA80BF0E3F80446254636AB349355F808
:10327000083BAB4200F0ED82A2683493369263685B
:103280003593C4F804B0359A84F808B06FF0004361
:103290009B1A0E2B256040F21B830F22484934A84D
:1032A0000BF090F93CAF05463A9755F8083BAB4216
:1032B000044600F0DC8282683A933C9263683B9358
:1032C000404B25601B6884F808B0C4F804B09968C6
:1032D00040A8FDF753FB3A9B3B9C419ABB4214BF6D
:1032E0003C990F21A0188842409940F22D8242ADAE
:1032F000A94214BF429D0F25A84200F22582002258
:10330000009440A811460BF091F80446254648ABBE
:10331000469355F8083BAB4200F0AF82A268469353
:10332000489263684793C4F804B0479A84F808B099
:103330006FF000439B1A0E2B256040F2C9820F22CA
:10334000214946A80BF03EF94EAD06464C9556F87D
:10335000083BB342044600F0968282684C934E923A
:1033600063684D93194B26601B6884F808B0C4F855
:1033700004B0996852A8FDF701FB4C9B4D9C539AF1
:10338000AB4214BF4E990F21A0188842529940F2C7
:10339000E08154AEB14214BF549E0F26B04200F2F9
:1033A000D88115E0B82BFF1F5C2CFF1F183D0200D1
:1033B000783C02001C2CFF1F883C02009038FF1F45
:1033C000983C0200182CFF1FA83C0200BC38FF1FCD
:1033D0000022009452A811460BF028F80446264615
:1033E0005AAB589356F8083BB34200F06282A26889
:1033F00058935A9263685993C4F804B0599A84F860
:1034000008B06FF000439B1A0E2B266040F26082DA
:103410000F22B54958A80BF0D5F860AE03465E966A
:1034200053F8082B9A42044600F03B8281685E9272
:10343000609162685F922360AC4B84F808B01B68AF
:10344000C4F804B0996864A8FDF798FA5E9B5F9C85
:10345000659AB34214BF60990F21A01888426499FD
:1034600040F27C810DF5CC7E714514BFDDF898E10A
:103470004FF00F0E704500F271810022009464A895
:1034800011460AF0D3FF044623466CAA6A9253F809
:10349000082B9A4200F0FD81A1686A926C916268E3
:1034A0006B92C4F804B06B9984F808B06FF00042D6
:1034B000521A122A236040F20B8213228C496AA806
:1034C0000BF080F806AA0346049253F8082B9A42A0
:1034D000044600F0C48181680492069162680592F6
:1034E00023606A9884F808B06CAB9842C4F804B0C2
:1034F00001D009F007FE649866AB984201D009F04C
:1035000001FE5E98B04201D009F0FCFD58985AAB1C
:10351000984201D009F0F6FD529854AB984201D080
:1035200009F0F0FD4C98A84201D009F0EBFD469857
:1035300048AB984201D009F0E5FD409842AB984273
:1035400001D009F0DFFD3A98B84201D009F0DAFD68
:10355000349836AB984201D009F0D4FD2E9830ABA8
:10356000984201D009F0CEFD2898484501D009F0D5
:10357000C9FD229824AB984201D009F0C3FD1C98E4
:103580001EAB984201D009F0BDFD1698404501D010
:1035900009F0B8FD109812AB984201D009F0B2FDC5
:1035A0000A980CAB984201D009F0ACFD049C514D37
:1035B000204615F025FF214602464F4809F042FCFF
:1035C0004D4807F065FD2C68206806F0E9FD20688D
:1035D00006F016FE0646002800F0028184F804A0DA
:1035E000464B1C68206806F0DBFD206806F008FEEC
:1035F0000646002800F0EC8084F804A0404B1C68CC
:10360000206806F0CDFD206806F0FAFD0646002889
:1036100000F0D68084F804A03A4E3468206806F0A2
:10362000BFFD206806F0ECFD0746002800F0C080D2
:1036300084F804A0344F3C68206806F0B1FD20688F
:1036400006F0DEFD8046002800F0A98084F804A082
:10365000DFF8B880D8F80040206806F0A1FD2068A7
:1036600006F0CEFD8146002800F0908084F804A08A
:10367000DFF89C90D9F80040206806F091FD2068A2
:1036800006F0BEFD00286ED084F804A02B681868F0
:1036900006F0B6FD002874D1184B1B68186806F0B8
:1036A000AFFD002840F0A480154B1B68186806F099
:1036B000A7FD002840F0A1803368186806F0A0FD3F
:1036C000002840F09F803B68186806F099FD0028AC
:1036D00040F09D80D8F80030186806F091FD002871
:1036E00040F09A8016E000BF3C3D0200A82BFF1F6F
:1036F0004C3D02004C2CFF1FB82BFF1F602CFF1FFE
:10370000282CFF1FAC2BFF1FC038FF1FA02BFF1F53
:10371000982BFF1FD9F80030186806F071FD0028BB
:1037200040F0CD80049806AB98423FF4D6AC09F047
:10373000E9FCD2E416A80AF045FF044640E528A8B3
:103740000AF040FF04468FE53AA80AF03BFF044622
:10375000DCE54CA80AF036FF044640E65EA80AF015
:1037600031FF044690E60390206806F03FFD0028F4
:103770008CD0039B23712B68186806F041FD00284C
:103780008AD0554B1868FFF723FBCBE7206806F07B
:103790002DFD00283FF46CAF84F8049068E72068A2
:1037A00006F024FD00283FF453AF84F804804FE76F
:1037B000206806F01BFD00283FF43CAF277139E775
:1037C000206806F013FD00283FF426AF267123E79A
:1037D000206806F00BFD00283FF410AF26710DE7BE
:1037E000206806F003FD00283FF4FAAE2671F7E6E4
:1037F0003A4B1868FFF7ECFA94E7394B1868FFF773
:10380000E7FA8FE7374B1868FFF7E2FA8AE7364B9B
:103810001868FFF7DDFA85E7344B1868FFF7D8FA28
:1038200080E710222946484607F020FDF4E41022E4
:103830002946404607F01AFD9AE41022294612A8AC
:1038400007F014FD73E41022294624A807F00EFDAA
:10385000C1E41022294636A807F008FD0FE51946F5
:10386000102206A8039307F001FD039B36E6102201
:103870002946384607F0FAFC20E51022294648A8D8
:1038800007F0F4FC4DE510223146284607F0EEFC27
:1038900066E5194610226CA8039307F0E7FC039B2A
:1038A000FDE5194610223046039307F0DFFC039B29
:1038B000BFE5102231465AA807F0D8FC9AE50498D3
:1038C00006AB984201D009F01DFC71B0BDE8F08F45
:1038D00007480AF0E9FB00BF5C2CFF1F1C2CFF1FF0
:1038E0009038FF1F182CFF1FBC38FF1FA82BFF1F8D
:1038F000C43402002DE9F04F6B4C6C4FDFF8C091DF
:10390000DFF8C0A18DB00DF108080125664807F069
:1039100033FA0121644806F0A5F8654AA582002320
:10392000A2F1B0016846E38123826582CDF8008070
:10393000FCF7C0FD009E304615F062FD31460246A0
:10394000594809F07FFA584807F0A2FB3E683068F2
:1039500006F026FC306806F053FC8346002800F091
:103960008C803571D9F80060306806F019FC306839
:1039700006F046FC8346002877D03571DAF80060FF
:10398000306806F00DFC306806F03AFC83460028EB
:1039900063D035713B68186806F032FC0646002893
:1039A0003CD0444B0026314664201E6007F092FD57
:1039B0003D4807F0E1F902213B4806F053F83E4A42
:1039C000E681A2F118010DF1200B06A82682A5823E
:1039D0006582CDF818B0FCF76DFD069E304615F0F7
:1039E0000FFD31460246304809F02CFA2E4807F008
:1039F0004FFB40F2EE2007F09FFE0698584501D09D
:103A000009F080FB0098404505D0012609F07AFBBB
:103A1000002E3FF47BAF0DB0BDE8F08FD9F8003039
:103A2000186806F0EDFB002830D0224B01216420FD
:103A30001D6007F04FFD1C4807F09EF902211A484F
:103A400006F010F81D4AA582A2F11A010DF1200B13
:103A500006A86582E6812682BBE7306806F0C6FBD1
:103A6000002897D086F804B094E7306806F0BEFBD3
:103A7000002883D086F804B080E7306806F0B6FBF3
:103A800000283FF46FAF86F804B06BE7DAF8003037
:103A9000186806F0B5FB064600984045B6D1002EE2
:103AA0003FF434AFB7E700BFB82BFF1F4C2CFF1F0C
:103AB000103E0200302CFF1F2C3E02004A3E020046
:103AC000602CFF1F982BFF1F2DE9F04F744DDFF87E
:103AD000DC81DFF8DC91DFF8DCA1DFF8DCB18FB04E
:103AE00004AF01266E4807F047F901216C4805F044
:103AF000B9FF6C4AAE820023A2F1B00102A8EB81AB
:103B00002B826E820297FCF7D5FC029C204615F0B2
:103B100077FC21460246624809F094F9604807F0B4
:103B2000B7FAD8F80040206806F03AFB206806F0A3
:103B300067FB002800F093802671D9F800402068C8
:103B400006F02EFB206806F05BFB00287DD0267176
:103B5000DAF80040206806F023FB206806F050FBEE
:103B6000002869D02671DBF80040206806F018FBB9
:103B7000206806F045FB002846D02671D8F80030B2
:103B8000186806F03DFB00284DD000242046002197
:103B9000013407F09FFCB4F5805FF7D1404807F08F
:103BA000EBF802213E4805F05DFF3F4AAE8200235C
:103BB000A2F119010AAC08A8EB812B826E8208944D
:103BC000FCF778FC08990191084615F019FC019959
:103BD0000246334809F036F9314807F059FA40F205
:103BE000EE2007F0A9FD0898A04201D009F08AFA5A
:103BF0000298B84205D0012409F084FA002C3FF461
:103C000071AF0FB0BDE8F08F0190206806F0EEFABA
:103C10000028B3D0019B2371D8F80030186806F053
:103C2000EFFA0028B1D1D9F80030186806F0E8FAA8
:103C3000F8B1FFF75FFEDBE70190206806F0D6FAE7
:103C4000002890D0019B23718DE70190206806F039
:103C5000CDFA00283FF47CAF019B237178E70190F7
:103C6000206806F0C3FA00283FF467AF019B237178
:103C700063E7DAF80030186806F0C2FA10B1FEF710
:103C8000C1FBB5E7DBF80030186806F0B9FA044666
:103C90000298B842B0D1002C3FF424AFB1E700BF86
:103CA000B82BFF1FFC3E0200193F02004C2CFF1FE7
:103CB000602CFF1F282CFF1F982BFF1F2DE9F041C0
:103CC0006E4E6F4D304607F057F83046022105F032
:103CD000C9FE4FF001080023F38133820A226949AB
:103CE000A6F814803046A6F8128009F0ABF83046EA
:103CF00009F0BEF84146304605F0B4FE152262498F
:103D0000304609F09FF8304609F0B2F815225F49B5
:103D1000304609F097F8304609F0AAF815225C49B8
:103D2000304609F08FF8304609F0A2F814225949BC
:103D3000304609F087F8304609F09AF815225649BE
:103D4000304609F07FF8304609F092F815225349C1
:103D5000304609F077F8304609F08AF8304607F027
:103D600097F906E084F804802B68186806F048FA92
:103D7000A8B92C68206806F013FA206806F040FA0B
:103D800007460028EED1206806F030FA0028EBD074
:103D90002B682771186806F033FA0028E9D03748F5
:103DA00006F0EAFF0121354805F05CFE01270023FB
:103DB000F381338215223A49B78277822F4809F07E
:103DC00041F82E4809F054F815222F492B4809F0E4
:103DD00039F82A4809F04CF815223249274809F0E9
:103DE00031F8264809F044F815222B49234809F0F8
:103DF00029F8224809F03CF815222B491F4809F000
:103E000021F81E4809F034F8152228491B4809F00A
:103E100019F81A4809F02CF815222549174809F015
:103E200011F8164809F024F815222249134809F020
:103E300009F8124809F01CF8104807F029F905E0C4
:103E400027712B68186806F0DBF9A8B92C68206880
:103E500006F0A6F9206806F0D3F906460028EFD14F
:103E6000206806F0C3F90028EBD02B68267118688B
:103E700006F0C6F90028E9D0BDE8F081B82BFF1F95
:103E8000982BFF1F1C3F0200283F0200403F02000A
:103E9000583F0200703F0200883F0200A03F02002E
:103EA000B83F0200D03F0200E83F0200004002009D
:103EB00018400200304002006A4B6B482DE9F04F79
:103EC0001C686A4F2379DFF8C4812DED028B013B1A
:103ED0001B0203F470638BB0184308F0CFFA237908
:103EE000606900937B22B0210023FCF7C9FD604B81
:103EF0005D481C682379013B1B0203F4706318437F
:103F000008F0BCFA2379606900937B22B02100237A
:103F1000FCF7B6FD574B54481C682379013B1B0244
:103F200003F47063184308F0A9FA237960690093D9
:103F30007B22B0210023FCF7A3FD4F4B4A481C68AD
:103F40002379013B1B0203F47063184308F096FACF
:103F50002379606900937B22B0210023FCF790FD58
:103F6000464B41481C682379013B1B0203F47063F4
:103F7000184308F083FA2379606900937B22B0210B
:103F80000023FCF77DFD3E4B37481C682379013B3D
:103F90001B0203F47063184308F070FA2379606918
:103FA00000937B220023B021FCF76AFD0DF1180A73
:103FB00001252E4806F0E0FE01212C4805F052FDB7
:103FC000304ABD820023FB813B82A2F1580104A844
:103FD0007D82CDF810A0FCF76DFA049C204615F008
:103FE0000FFA21460246214808F02CFF1F4807F02F
:103FF0004FF8D8F80040206806F0D2F8206806F0A4
:10400000FFF8064660B12571D8F80030186806F050
:10401000F7F890B904985045CBD009F073F8C8E789
:10402000206806F0E3F80028EED0D8F800302671BA
:10403000186806F0E5F80028ECD0134AD2F80080A2
:1040400008F5FC6208F5FB6508F2DC7B00232B60B9
:104050000392CBF80030444608F5FA661360C14677
:10406000002119E05C2CFF1F0BB07B00B82BFF1F59
:104070001C2CFF1FA82BFF1F182CFF1F9038FF1FA1
:10408000BC38FF1FA04002009C2BFF1F4C2CFF1FC1
:104090000000FA43D8F8D417D8F80838DB6F1B6B48
:1040A0001A6913B249F8043F0B44C8F8D437022008
:1040B00007F042FBB145EDD1D8F8D4375FED0C6A7B
:1040C000524807EE903AF8EEE77A1B2187EEA67A7F
:1040D00085ED007A08F0BEFC286812F017F841EC74
:1040E000100B02214A4808F027FF494808F0C0FE9B
:1040F00095ED008ADBF8005054F8043F07EE903A43
:10410000F8EEE77A78EE677A17EE900A11F0FEFF84
:1041100002460B4612F04EF880462846894611F0BA
:10412000F5FF02460B464046494611F091FE12F05B
:1041300011FBA6420546DFD106EE900ADFED357A87
:10414000CBF8000086EEA77A012417EE100A11F0D2
:10415000DDFF41EC100B09F057FE51EC100B12F093
:10416000F9FA039B18602C4806F006FE02212A4843
:1041700005F078FC0023FB813B820A222749264870
:10418000BC827C8208F05EFE234808F071FE214666
:10419000214805F067FC152221491F4808F052FE0E
:1041A0001D4808F065FE02211B4805F05BFC1D4917
:1041B00019480A2208F046FE174808F059FE1A4B23
:1041C00015481B6803F5FC6393ED007AF2EE047A60
:1041D000B4EEE77AF1EE10FA4CBF144914490A2202
:1041E00008F030FE0C4808F043FE0B4806F050FF84
:1041F0004FF47A7007F0A0FA0498504501D008F007
:1042000081FF0BB0BDEC028BBDE8F08FA440020033
:10421000A814FF1F0000FA43B82BFF1F1C3F020029
:10422000C0400200D84002009C2BFF1FE440020067
:10423000F04002002DE9F04F574E584FDFF86491DF
:10424000DFF864A1DFF864B189B00DF11008012432
:10425000514806F091FD01214F4805F003FC504AFA
:10426000B4820023A2F1860102A8F3813382748212
:10427000CDF80880FCF71EF9029D284615F0C0F81D
:1042800029460246444808F0DDFD434806F000FF99
:104290003D68286805F084FF286805F0B1FF002814
:1042A00053D02C71D9F80050286805F079FF2868A0
:1042B00005F0A6FF00283FD02C71DAF800502868DE
:1042C00005F06EFF286805F09BFF002846D02C7192
:1042D000DBF80050286805F063FF286805F090FFC0
:1042E00008B32C713B68186805F08AFF054650B189
:1042F000FFF7E2FD0298404501D008F003FF284691
:1043000009B0BDE8F08FD9F80030186805F078FFE3
:10431000054600282BD0FFF7D1FC0298404597D0E6
:1043200008F0F0FE94E70190286805F05FFF002890
:10433000D8D0019B2B71D5E70190286805F056FF76
:104340000028BAD0019B2B71B7E70190286805F0CF
:104350004DFF0028A6D0019B2B71A3E70190286890
:1043600005F044FF0028B3D0019B2B71B0E7DAF8C9
:104370000030186805F044FF30B102984045BCD1C8
:10438000284609B0BDE8F08FDBF80030186805F06A
:1043900037FF0028C1D0F0E7B82BFF1F4C2CFF1FC0
:1043A00082410200602CFF1F282CFF1F982BFF1F4B
:1043B0002DE9F0473E4C3F4E3F4F86B0204606F079
:1043C000DBFC2046012105F04DFB3C4A0023012582
:1043D000A2F1B001E381238268460DF10809A582AC
:1043E0006582CDF80090FCF765F8DDF80080404666
:1043F00015F006F841460246204608F023FD204607
:1044000006F046FEDFF8B8803468206805F0C8FE84
:10441000206805F0F5FE8246002839D025713C68F9
:10442000206805F0BDFE206805F0EAFE824638B33C
:104430002571D8F80040206805F0B2FE206805F02C
:10444000DFFE8246A0B125713368186805F0D8FEFA
:10445000044620B93B68186805F0D2FE00B3009806
:10446000484501D008F04EFE204606B0BDE8F08772
:10447000206805F0BBFE0028E6D084F804A0E3E73E
:10448000206805F0B3FE0028D3D084F804A0D0E75C
:10449000206805F0ABFE0028C1D084F804A0BEE778
:1044A000D8F80030186805F0ABFE0028ACD0D6E78D
:1044B000B82BFF1F4C2CFF1F602CFF1F3442020043
:1044C000982BFF1F2DE9F04F934E944FDFF8609229
:1044D000DFF860A2DFF860B289B00DF110080124A6
:1044E0008D4806F049FC01218B4805F0BBFA8C4A47
:1044F000B4820023A2F1B00102A8F3813382748256
:10450000CDF80880FBF7D6FF029D284614F078FF0F
:1045100029460246804808F095FC7F4806F0B8FD21
:104520003D68286805F03CFE286805F069FE002813
:1045300000F0A2802C71D9F80050286805F030FEF8
:10454000286805F05DFE002800F08C802C71DAF8F8
:104550000050286805F024FE286805F051FE002868
:1045600077D02C71DBF80050286805F019FE286818
:1045700005F046FE002863D02C716A4B1D68286840
:1045800005F00EFE286805F03BFE002839D02C719E
:104590003B68186805F034FE002840D0002006F083
:1045A0007FFF002872D10020FCF780F901240298D7
:1045B000404501D008F0A6FD574806F0DDFB02217A
:1045C000554805F04FFA0125002308225649524864
:1045D000F3813382B582758208F034FC21464E485F
:1045E00008F0A2FC092251494B4808F02BFC4A482C
:1045F00006F04EFD4FF4FA7007F09EF809B0BDE8E2
:10460000F08F0190286805F0F1FD0028C0D0019BD3
:104610002B713B68186805F0F3FD0028BED1D9F86E
:104620000030186805F0ECFD00283AD0142006F0A0
:1046300037FF002844D11420FCF738F90224B6E7EC
:104640000190286805F0D2FD002896D0019B2B71BF
:1046500093E70190286805F0C9FD002882D0019BEE
:104660002B717FE70190286805F0C0FD00283FF41A
:104670006EAF019B2B716AE70190286805F0B6FDCB
:1046800000283FF458AF019B2B7154E7FFF790FED1
:10469000002888D1029840453FF422AF08F032FD4F
:1046A0001EE7DAF80030186805F0AAFD68B1282086
:1046B00006F0F6FEC0B92820FCF7F8F8032476E7E8
:1046C000FFF776FE0028E5D0B5E7DBF80030186884
:1046D00005F096FD68B13C2006F0E2FEB8B93C203A
:1046E000FCF7E4F8042462E7FFF762FE0028D1D06B
:1046F000E1E70C4B1B68186805F082FD0028C9D063
:10470000029840453FF47AAF08F0FCFC76E7FFF7EB
:104710004FFE0028BED0E2E7B82BFF1F4C2CFF1F36
:10472000E8420200982BFF1FEC420200F842020010
:10473000602CFF1F282CFF1FAC2BFF1F2DE9F04F13
:1047400085B00228029000F06681032800F0058100
:10475000042840F06D814FF03C0A3F2355464FF04E
:1047600041094FF0420803933E274FF03D0BB74CF1
:10477000B74E204606F000FB2046012105F072F9F5
:1047800001220021A2826282E1811622218220463A
:10479000B04908F057FB0C22AF49204608F052FB05
:1047A000504606F07DFE00EB400056F830100191B7
:1047B000084614F025FE01990246204608F042FB07
:1047C0000322A649204608F03DFB0C22A4492046BE
:1047D00008F038FB584606F063FE00EB400056F840
:1047E00030B0584614F00CFE59460246204608F0F8
:1047F00029FB03229949204608F024FB0C22994901
:10480000204608F01FFB384606F04AFE00EB400049
:1048100056F830A0504614F0F3FD514602462046AB
:1048200008F010FB03228D49204608F00BFB0C22F8
:104830008D49204608F006FB039806F031FE00EB98
:10484000400056F83060304614F0DAFD314602463A
:10485000204608F0F7FA03228049204608F0F2FAD1
:1048600008228249204608F0EDFA484606F018FE74
:104870000C2800F2C880A0F10C01744808F054FB29
:1048800008227B49714808F0DDFA404606F008FE30
:10489000002840F0B080002301460A226B48DFF870
:1048A000E881DFF8E891DFF8E8A1DFF8E8B108F087
:1048B000FBFA01226F49654808F0C4FA11226E49DB
:1048C000624808F0BFFA13226C49604808F0BAFA4F
:1048D0005E4806F0DDFB0126D8F80040206805F0B0
:1048E0005FFC206805F08CFC0746002877D0267115
:1048F000D9F80040206805F053FC206805F080FCE2
:104900000746002864D02671DAF80040206805F0D8
:1049100047FC206805F074FC0746002851D026713A
:10492000DBF80040206805F03BFC206805F068FCDF
:104930000746F8B12671D8F80030186805F060FC19
:1049400028B32846FBF74EFF4D4B1B78012B4DD06B
:104950000124204605B0BDE8F08F4FF0280A2B2334
:1049600055464FF02D094FF02E0803932A274FF09C
:10497000290BFCE6206805F039FC0028DBD0D8F8CC
:1049800000302771186805F03BFC0028D9D1DAF80F
:104990000030186805F034FC04460028D1D1D9F85D
:1049A0000030186805F02CFC0028D2D1DBF800306C
:1049B000186805F025FC00288ED0204605B0BDE81B
:1049C000F08F206805F012FC0028A9D02771A7E716
:1049D000206805F00BFC002896D0277194E720682A
:1049E00005F004FC002883D0277181E7029803308A
:1049F000FCF788F8ACE723491448FBF79DFD4046D7
:104A000006F04EFD47E720461E49FBF795FD484658
:104A100006F046FD2FE74FF0140A172355464FF0D6
:104A200019094FF01A08039316274FF0150B9EE64D
:104A30004FF0000A032355464FF005094FF00608D2
:104A4000039302274FF0010B91E600BFB82BFF1F25
:104A5000702CFF1F044302001C4302001846020092
:104A60002C4302003C4302004C4302005C43020022
:104A70006C43020030450200784302008C43020080
:104A8000B02BFF1F684302004C2CFF1F602CFF1F40
:104A9000941FFF1F982BFF1F2DE9F04F7B4EDFF86F
:104AA000FC81DFF8FC91DFF8FCA1DFF8FCB189B0F4
:104AB00004AF0124754806F05FF90121734804F042
:104AC000D1FF734AB4820023A2F1B00102A8F3819E
:104AD000338274820297FBF7EDFC029D284614F0A6
:104AE0008FFC29460246694808F0ACF9674806F091
:104AF000CFFAD8F80050286805F052FB286805F076
:104B00007FFB002800F086802C71D9F800502868BF
:104B100005F046FB286805F073FB002871D02C7166
:104B2000DAF80050286805F03BFB286805F068FBC0
:104B300000285DD02C71DBF80050286805F030FBB0
:104B4000286805F05DFB002849D02C71514B1D6889
:104B5000286805F025FB286805F052FB002835D0B1
:104B60002C714D4B1D68286805F01AFB286805F06C
:104B700047FB10B32C71D8F80030186805F040FBE3
:104B800078B10120FFF7DAFD05460298B84201D05E
:104B900008F0B8FA002D8DD00125284609B0BDE8EF
:104BA000F08FD9F80030186805F02AFB00283BD0B8
:104BB0000220FFF7C3FD0546E7E70190286805F0EE
:104BC00015FB0028D7D0019B2B71D4E701902868F2
:104BD00005F00CFB0028C4D0019B2B71C1E70190AC
:104BE000286805F003FB0028B0D0019B2B71ADE7CE
:104BF0000190286805F0FAFA00289CD0019B2B71DF
:104C000099E70190286805F0F1FA002888D0019B07
:104C10002B7185E70190286805F0E8FA00283FF439
:104C200074AF019B2B7170E7DAF80030186805F05B
:104C3000E7FA20B10320FFF781FD0546A5E7DBF881
:104C40000030186805F0DCFA054620B10420FFF7B3
:104C500075FD054699E70F4B1A68106805F0D0FA04
:104C600028B10298B84298D008F04CFA95E70A4B60
:104C70001A68106805F0C4FA03460028F1D10298BA
:104C8000B8423FF417AF1D4682E700BFB82BFF1FA5
:104C900050440200C038FF1F982BFF1F4C2CFF1FF1
:104CA000602CFF1F282CFF1FAC2BFF1F2DE9F04F9E
:104CB000B04BB14D1B78B14C002BC3B00CBF2B23B4
:104CC000302305930CBF3223372304930CBF3723C3
:104CD0003C23039328460CBF3E234323019306F055
:104CE0004BF82846012104F0BDFEA54BA5491B68E1
:104CF0001A680123AB826B8202EB4202002304EBB1
:104D0000C202EB812B820CA8FBF790FE0D9A6FF08C
:104D100000439B1A332B40F23D820CA834229A495F
:104D200009F050FC14AB0646129356F8083BB34208
:104D3000054600F0F581826812931492019B6A681F
:104D4000139203EB4303DB00E11800222E602A726A
:104D50006A604A68E15812A809F034FC1AAB0646AA
:104D6000189356F8083BB342054600F00D8282685E
:104D700018931A926B68199300226A6019992A7223
:104D80006FF000435B1A072B2E6040F2038208226B
:104D90007E4918A809F016FC20AB06461E9356F86B
:104DA000083BB342054600F0E98182681E932092D9
:104DB000039B6A681F9203EB4303DB00E1180022A8
:104DC0002E602A726A604A68E1581EA809F0FAFB50
:104DD0000DF1980B0646CDF890B056F8083BB3425B
:104DE000054600F0C5818268249326926B6825935E
:104DF00000226A6025992A726FF000435B1A092B22
:104E00002E6040F2C7810A22614924A809F0DAFB2A
:104E10002CAE07462A9657F8083BBB42054600F0E1
:104E2000A18182682A932C92049B6A682B9203EBDF
:104E30004303DB00E11800222F602A726A604A688F
:104E4000E1582AA809F0BEFB32AF0346309753F869
:104E5000082B9A42054600F07D818168309232919C
:104E60006A68319200226A6031992B606FF00043CA
:104E70005B1A072B2A7240F28D810822454930A81F
:104E800009F0A0FB0DF1E0080346CDF8D88053F8F7
:104E9000082B9A42054600F0558181683692389178
:104EA000059A6968379102EB4202D200A0180021EE
:104EB0002B6029726960A158426836A809F082FB0C
:104EC0000DF1F80A0546CDF8F0A055F8083BAB42C5
:104ED000044600F0318182683C933E9263683D93C2
:104EE000002262603D9922726FF000435B1A5D2BD5
:104EF000256040F24F815E2227493CA809F062FB01
:104F00000DF120090546CDF8189055F8083BAB4245
:104F1000044600F00B818268069308926368079349
:104F200025603C98002350456360237201D008F04F
:104F3000E9F83698404501D008F0E4F83098B842D6
:104F400001D008F0DFF82A98B04201D008F0DAF872
:104F50002498584501D008F0D5F81E9820AB984207
:104F600001D008F0CFF818981AAB984216D008F084
:104F7000C9F813E0502CFF1FB82BFF1F981FFF1F0D
:104F80005C2CFF1F5444020068440200A04402004D
:104F9000AC440200B8440200C4440200129814ABAE
:104FA000984201D008F0AEF80C980EAB984201D0B0
:104FB00008F0A8F8069C794EDFF8F481DFF8F4A138
:104FC000DFF8F4B1764F204614F01AFA2146024673
:104FD000744807F037FF734806F05AF80125346823
:104FE000206805F0DDF8206805F00AF9002876D081
:104FF0002571D8F80040206805F0D2F8206805F047
:10500000FFF8002862D02571DAF80040206805F02A
:10501000C7F8206805F0F4F800284ED02571DBF8B9
:105020000040206805F0BCF8206805F0E9F8002889
:105030003AD025713C68206805F0B2F8206805F088
:10504000DFF888B125713368186805F0D9F8C8B160
:10505000554B019A1B681A600698484501D008F024
:1050600051F843B0BDE8F08F0290206805F0BEF81B
:105070000028E8D0029B23713368186805F0C0F857
:105080000028E5D13B68186805F0BAF80028DFD1A0
:10509000D8F80030186805F0B3F8002828D0424B43
:1050A000039A1B681A60D7E70290206805F09EF803
:1050B0000028BFD0029B2371BCE70290206805F056
:1050C00095F80028ABD0029B2371A8E702902068D6
:1050D00005F08CF8002897D0029B237194E702908A
:1050E000206805F083F8002883D0029B237180E7B5
:1050F000DAF80030186805F083F820B12A4B049ADA
:105100001B681A60A8E7DBF80030186805F078F82B
:1051100000283FF464AF244B059A1B681A609BE794
:105120001022314614A806F0A1F807E610222946FD
:10513000484606F09BF8F1E610222946504606F054
:1051400095F8CBE6194610224046029306F08EF8F9
:10515000029BA5E6194610223846029306F086F80F
:10516000029B7DE610223946304606F07FF85BE66A
:1051700010223146584606F079F837E610223146BB
:1051800020A806F073F813E6102231461AA806F09C
:105190006DF8EFE5054808F087FF00BF4C2CFF1FB6
:1051A000941FFF1FB82BFF1F1C2CFF1FC4340200CD
:1051B000602CFF1F282CFF1FAC2BFF1F2DE9F04F89
:1051C000B24CC3B0204605F0D7FD2046012104F0C3
:1051D00049FCAF4A00230125A2F1090106A8A582D6
:1051E0006582E38123820DF12009CDF81890FBF749
:1051F00061F9A84B06991B78079A3CAE3EAD0A446C
:1052000030463C95002B00F0F381FBF753F9A2499F
:10521000304609F001FA314606A809F03DF83C98FD
:10522000A84201D007F06EFF48230593542303934F
:105230004F230193432304930699079A974C0A44FA
:105240000EAB0CA80C93FBF735F995490CA809F0A7
:10525000E3F9019B03EB4303DB00E218E1585268DA
:105260000CA809F0AFF914AA0346129253F8082BC0
:105270009A42074600F0E9818168129214917A6897
:10528000139200223B607A603A72864912A809F0B4
:10529000C3F91AAA0346189253F8082B9A420746F4
:1052A00000F0EB81816818921A91039A02EB420197
:1052B000C9007A681992601800223B603A727A60DD
:1052C0004268615818A809F07DF920AA03461E9289
:1052D00053F8082B9A42074600F0C78181681E9256
:1052E00020917A681F9200223B607A603A726E4980
:1052F0001EA809F091F90DF1980B0346CDF890B076
:1053000053F8082B9A42074600F09781816824924F
:105310002691049A02EB4201C9007A68259260182E
:1053200000223B603A727A604268615824A809F012
:1053300049F90DF1B00A0346CDF8A8A053F8082B9F
:105340009A42074600F0B18181682A922C917A68CE
:105350002B9200223B607A603A7254492AA809F0E5
:105360005BF932AF0346309753F8082B9A428046D8
:1053700000F09381816830923291059AD8F8041038
:10538000319102EB4202D200A0180021C8F800308F
:1053900088F80810C8F80410A158426830A809F02D
:1053A00011F90DF1E0080346CDF8D88053F8082B29
:1053B0009A42044600F069818168369238916268A9
:1053C00037920022236062602272394936A809F0C0
:1053D00023F903463C9553F8082B9A42044600F003
:1053E0003C813C9282683E9262683D920022314646
:1053F00006A823606260227208F04EFF3C98A84223
:1054000001D007F07FFE3698404501D007F07AFEC4
:105410003098B84201D007F075FE2A98504501D067
:1054200007F070FE2498584501D007F06BFE1E98D7
:1054300020AB984201D007F065FE18981AAB98424D
:1054400001D007F05FFE129814AB984201D007F02C
:1054500059FE0C980EAB984201D007F053FE069C03
:10546000144EDFF85880DFF858A0DFF858B0124F1C
:10547000204613F0C5FF21460246044807F0E2FC2F
:10548000024805F005FE01251EE000BFB82BFF1FF6
:105490009D3F0200502CFF1F24450200981FFF1F54
:1054A00044450200A0440200AC440200B84402009B
:1054B000C44402004C2CFF1F941FFF1F602CFF1FD1
:1054C000282CFF1FAC2BFF1F3468206804F068FEF7
:1054D000206804F095FE002876D02571D8F80040A9
:1054E000206804F05DFE206804F08AFE002862D087
:1054F0002571DAF80040206804F052FE206804F0BC
:105500007FFE00284ED02571DBF80040206804F0B3
:1055100047FE206804F074FE00283AD025713C68EC
:10552000206804F03DFE206804F06AFE88B1257111
:105530003368186804F064FEC8B1604B019A1B68B8
:105540001A600698484501D007F0DCFD43B0BDE87D
:10555000F08F0290206804F049FE0028E8D0029BFA
:1055600023713368186804F04BFE0028E5D13B68CE
:10557000186804F045FE0028DFD1D8F8003018681C
:1055800004F03EFE002828D04C4B039A1B681A609A
:10559000D7E70290206804F029FE0028BFD0029BC4
:1055A0002371BCE70290206804F020FE0028ABD0F5
:1055B000029B2371A8E70290206804F017FE0028E0
:1055C00097D0029B237194E70290206804F00EFEAE
:1055D000002883D0029B237180E7DAF80030186836
:1055E00004F00EFEE0B1354B049A1B681A60A8E780
:1055F000FAF760FF3249304609F00EF8314606A846
:1056000008F04AFE3C98A84201D007F07BFD4323F6
:1056100005934F2303934A2301933E2304930BE600
:10562000DBF80030186804F0EBFD00283FF44CAFC5
:10563000224B059A1B681A6083E7194610225846C8
:10564000029305F013FE029B63E61946102214A88C
:10565000029305F00BFE029B11E619461022284624
:10566000029305F003FE029BBEE61946102220A815
:10567000029305F0FBFD029B33E6194610221AA89F
:10568000029305F0F3FD029B0FE6194610224046F7
:10569000029305F0EBFD029B91E619461022384675
:1056A000029305F0E3FD029B67E61946102250467F
:1056B000029305F0DBFD029B49E600BF5C2CFF1F57
:1056C0003445020002282DE9F84F824600F035816A
:1056D000032800F0E8809A4D9A4B042818BF1D4615
:1056E000994C9A4E204605F047FB2046012104F0D4
:1056F000B9F900230121E38123821622A18261826C
:105700002046934907F09EFB0C229249204607F061
:1057100099FB2B6803EB430356F83370384613F0BC
:105720006FFE39460246204607F08CFB03228A4969
:10573000204607F087FB0C228849204607F082FBB1
:105740006B6803EB430356F83370384613F058FE8A
:1057500039460246204607F075FB03227E49204663
:1057600007F070FB0C227E49204607F06BFBAB680C
:1057700003EB430356F83370384613F041FE3946C5
:105780000246204607F05EFB03227349204607F0DD
:1057900059FB0C227349204607F054FBEB6803EBDE
:1057A000430356F83360304613F02AFE3146024672
:1057B000204607F047FB03226749204607F042FBDB
:1057C00069492046082207F03DFB69690C2900F36E
:1057D000AE805D4807F0A8FB64495B48082207F0EB
:1057E00031FBA969002905DD61495748012207F00D
:1057F00029FBA96954485F4E5F4FDFF89881DFF8B5
:10580000989107F091FB01225C494F4807F01AFB81
:1058100012225B494C4807F015FB132259494A48AC
:1058200007F010FB484805F033FC01253468206878
:1058300004F0B6FC206804F0E3FC8346002869D03D
:1058400025713C68206804F0ABFC206804F0D8FCAB
:105850008346002856D02571D8F80040206804F00F
:105860009FFC206804F0CCFC8346002842D02571C0
:10587000D9F80040206804F093FC206804F0C0FCD4
:10588000834690B125713368186804F0B9FCC8B13B
:105890005046FAF765FF3C4B1B78012B42D00124A0
:1058A0002046BDE8F88F394D1AE7206804F09EFCC9
:1058B0000028E8D0336884F804B0186804F0A0FC2D
:1058C0000028E5D1D8F80030186804F099FC0446A7
:1058D0000028DDD13B68186804F092FC0028DFD175
:1058E000D9F80030186804F08BFC00289ED02046C0
:1058F000BDE8F88F206804F079FC0028B8D084F85F
:1059000004B0B5E7206804F071FC0028A4D084F846
:1059100004B0A1E7206804F069FC002891D084F865
:1059200004B08EE70AF1FF30FBF7ECF8B7E7104957
:105930002046FAF701FE69694BE7154DD0E600BF36
:105940008825020050250200B82BFF1F702CFF1F76
:10595000784502001C430200184602002C43020056
:105960003C4302004C4302005C4302006C430200D3
:10597000684302004C2CFF1F602CFF1F30450200C3
:10598000904502008C430200B02BFF1F68CC010041
:105990006C250200941FFF1F982BFF1F2DE9F04F6D
:1059A0000125B3B0B448B44C05F0E6F90121B24882
:1059B00004F058F8B048B14A85820023E38123827D
:1059C000AF49658208A8FBF731F8099A6FF00043E8
:1059D0009B1A042B40F222820522AA4908A808F04B
:1059E000F1FD10AE07460E9657F8083BBB42044641
:1059F00000F0F78182680E93109262680F92A24BBA
:105A000027600022626022720EA893E8060008F068
:105A1000D9FD16AF0346149753F8082B9A42044653
:105A200000F0D78181681492169162681592002265
:105A30006260159923606FF000435B1A042B227299
:105A400040F2EC810522914914A808F0BBFD0DF14C
:105A500070080346CDF8688053F8082B9A42044634
:105A600000F0AF8181681A921C9162681B9288498C
:105A700023600022626022721AA806C908F0A2FD03
:105A80000DF188090346CDF8809053F8082B9A420F
:105A9000044600F08E8181682092229162682192F2
:105AA00000226260219923606FF000435B1A042B8F
:105AB000227240F2B3810522764920A808F082FDC7
:105AC0000DF1A00A0346CDF898A053F8082B9A428E
:105AD000044600F0668181682692289162682792C8
